{
  "abi": [
    {
      "inputs": [
        {
          "internalType": "address",
          "name": "wormhole",
          "type": "address"
        }
      ],
      "stateMutability": "nonpayable",
      "type": "constructor"
    },
    {
      "inputs": [],
      "name": "AddressIsZero",
      "type": "error"
    },
    {
      "inputs": [],
      "name": "CallerMustBeOwner",
      "type": "error"
    },
    {
      "inputs": [],
      "name": "CallerMustBePendingOwner",
      "type": "error"
    },
    {
      "inputs": [
        {
          "internalType": "address",
          "name": "msgSender",
          "type": "address"
        }
      ],
      "name": "CallerNotApproved",
      "type": "error"
    },
    {
      "inputs": [],
      "name": "ChainIdIsZero",
      "type": "error"
    },
    {
      "inputs": [
        {
          "internalType": "string",
          "name": "reason",
          "type": "string"
        }
      ],
      "name": "FailedToInitializeImplementation",
      "type": "error"
    },
    {
      "inputs": [],
      "name": "GasPriceIsZero",
      "type": "error"
    },
    {
      "inputs": [],
      "name": "ImplementationAlreadyInitialized",
      "type": "error"
    },
    {
      "inputs": [],
      "name": "NativeCurrencyPriceIsZero",
      "type": "error"
    },
    {
      "inputs": [
        {
          "internalType": "uint8",
          "name": "version",
          "type": "uint8"
        },
        {
          "internalType": "uint8",
          "name": "expectedVersion",
          "type": "uint8"
        }
      ],
      "name": "UnexpectedExecutionParamsVersion",
      "type": "error"
    },
    {
      "inputs": [
        {
          "internalType": "uint8",
          "name": "version",
          "type": "uint8"
        }
      ],
      "name": "UnsupportedExecutionParamsVersion",
      "type": "error"
    },
    {
      "inputs": [],
      "name": "WrongChainId",
      "type": "error"
    },
    {
      "anonymous": false,
      "inputs": [
        {
          "indexed": false,
          "internalType": "address",
          "name": "previousAdmin",
          "type": "address"
        },
        {
          "indexed": false,
          "internalType": "address",
          "name": "newAdmin",
          "type": "address"
        }
      ],
      "name": "AdminChanged",
      "type": "event"
    },
    {
      "anonymous": false,
      "inputs": [
        {
          "indexed": false,
          "internalType": "uint16",
          "name": "targetChain",
          "type": "uint16"
        },
        {
          "indexed": false,
          "internalType": "uint16",
          "name": "buffer",
          "type": "uint16"
        },
        {
          "indexed": false,
          "internalType": "uint16",
          "name": "bufferDenominator",
          "type": "uint16"
        }
      ],
      "name": "AssetConversionBufferUpdated",
      "type": "event"
    },
    {
      "anonymous": false,
      "inputs": [
        {
          "indexed": true,
          "internalType": "address",
          "name": "beacon",
          "type": "address"
        }
      ],
      "name": "BeaconUpgraded",
      "type": "event"
    },
    {
      "anonymous": false,
      "inputs": [
        {
          "indexed": false,
          "internalType": "uint16",
          "name": "targetChain",
          "type": "uint16"
        },
        {
          "indexed": false,
          "internalType": "bool",
          "name": "isSupported",
          "type": "bool"
        }
      ],
      "name": "ChainSupportUpdated",
      "type": "event"
    },
    {
      "anonymous": false,
      "inputs": [
        {
          "indexed": true,
          "internalType": "address",
          "name": "oldContract",
          "type": "address"
        },
        {
          "indexed": true,
          "internalType": "address",
          "name": "newContract",
          "type": "address"
        }
      ],
      "name": "ContractUpgraded",
      "type": "event"
    },
    {
      "anonymous": false,
      "inputs": [
        {
          "indexed": true,
          "internalType": "Gas",
          "name": "oldGasOverhead",
          "type": "uint256"
        },
        {
          "indexed": true,
          "internalType": "Gas",
          "name": "newGasOverhead",
          "type": "uint256"
        }
      ],
      "name": "DeliverGasOverheadUpdated",
      "type": "event"
    },
    {
      "anonymous": false,
      "inputs": [
        {
          "indexed": true,
          "internalType": "address",
          "name": "oldOwner",
          "type": "address"
        },
        {
          "indexed": true,
          "internalType": "address",
          "name": "newOwner",
          "type": "address"
        }
      ],
      "name": "OwnershipTransfered",
      "type": "event"
    },
    {
      "anonymous": false,
      "inputs": [
        {
          "indexed": true,
          "internalType": "address",
          "name": "newAddress",
          "type": "address"
        }
      ],
      "name": "RewardAddressUpdated",
      "type": "event"
    },
    {
      "anonymous": false,
      "inputs": [
        {
          "indexed": true,
          "internalType": "uint16",
          "name": "targetChain",
          "type": "uint16"
        },
        {
          "indexed": true,
          "internalType": "bytes32",
          "name": "newAddress",
          "type": "bytes32"
        }
      ],
      "name": "TargetChainAddressUpdated",
      "type": "event"
    },
    {
      "anonymous": false,
      "inputs": [
        {
          "indexed": true,
          "internalType": "address",
          "name": "implementation",
          "type": "address"
        }
      ],
      "name": "Upgraded",
      "type": "event"
    },
    {
      "anonymous": false,
      "inputs": [
        {
          "indexed": false,
          "internalType": "address",
          "name": "coreRelayer",
          "type": "address"
        }
      ],
      "name": "WormholeRelayerUpdated",
      "type": "event"
    },
    {
      "inputs": [
        {
          "internalType": "uint16",
          "name": "targetChain",
          "type": "uint16"
        }
      ],
      "name": "assetConversionBuffer",
      "outputs": [
        {
          "internalType": "uint16",
          "name": "tolerance",
          "type": "uint16"
        },
        {
          "internalType": "uint16",
          "name": "toleranceDenominator",
          "type": "uint16"
        }
      ],
      "stateMutability": "view",
      "type": "function"
    },
    {
      "inputs": [],
      "name": "chainId",
      "outputs": [
        {
          "internalType": "uint16",
          "name": "",
          "type": "uint16"
        }
      ],
      "stateMutability": "view",
      "type": "function"
    },
    {
      "inputs": [],
      "name": "confirmOwnershipTransferRequest",
      "outputs": [],
      "stateMutability": "nonpayable",
      "type": "function"
    },
    {
      "inputs": [],
      "name": "coreRelayer",
      "outputs": [
        {
          "internalType": "address",
          "name": "",
          "type": "address"
        }
      ],
      "stateMutability": "view",
      "type": "function"
    },
    {
      "inputs": [
        {
          "internalType": "uint16",
          "name": "targetChain",
          "type": "uint16"
        }
      ],
      "name": "deliverGasOverhead",
      "outputs": [
        {
          "internalType": "Gas",
          "name": "",
          "type": "uint256"
        }
      ],
      "stateMutability": "view",
      "type": "function"
    },
    {
      "inputs": [
        {
          "internalType": "uint16",
          "name": "targetChain",
          "type": "uint16"
        }
      ],
      "name": "gasPrice",
      "outputs": [
        {
          "internalType": "GasPrice",
          "name": "",
          "type": "uint256"
        }
      ],
      "stateMutability": "view",
      "type": "function"
    },
    {
      "inputs": [],
      "name": "getRewardAddress",
      "outputs": [
        {
          "internalType": "address payable",
          "name": "",
          "type": "address"
        }
      ],
      "stateMutability": "view",
      "type": "function"
    },
    {
      "inputs": [
        {
          "internalType": "uint16",
          "name": "targetChain",
          "type": "uint16"
        }
      ],
      "name": "getTargetChainAddress",
      "outputs": [
        {
          "internalType": "bytes32",
          "name": "deliveryProviderAddress",
          "type": "bytes32"
        }
      ],
      "stateMutability": "view",
      "type": "function"
    },
    {
      "inputs": [],
      "name": "initialize",
      "outputs": [],
      "stateMutability": "nonpayable",
      "type": "function"
    },
    {
      "inputs": [
        {
          "internalType": "uint16",
          "name": "targetChain",
          "type": "uint16"
        }
      ],
      "name": "isChainSupported",
      "outputs": [
        {
          "internalType": "bool",
          "name": "supported",
          "type": "bool"
        }
      ],
      "stateMutability": "view",
      "type": "function"
    },
    {
      "inputs": [
        {
          "internalType": "address",
          "name": "impl",
          "type": "address"
        }
      ],
      "name": "isInitialized",
      "outputs": [
        {
          "internalType": "bool",
          "name": "",
          "type": "bool"
        }
      ],
      "stateMutability": "view",
      "type": "function"
    },
    {
      "inputs": [
        {
          "internalType": "uint16",
          "name": "targetChain",
          "type": "uint16"
        }
      ],
      "name": "maximumBudget",
      "outputs": [
        {
          "internalType": "Wei",
          "name": "",
          "type": "uint256"
        }
      ],
      "stateMutability": "view",
      "type": "function"
    },
    {
      "inputs": [
        {
          "internalType": "uint16",
          "name": "targetChain",
          "type": "uint16"
        }
      ],
      "name": "nativeCurrencyPrice",
      "outputs": [
        {
          "internalType": "WeiPrice",
          "name": "",
          "type": "uint256"
        }
      ],
      "stateMutability": "view",
      "type": "function"
    },
    {
      "inputs": [],
      "name": "owner",
      "outputs": [
        {
          "internalType": "address",
          "name": "",
          "type": "address"
        }
      ],
      "stateMutability": "view",
      "type": "function"
    },
    {
      "inputs": [],
      "name": "pendingOwner",
      "outputs": [
        {
          "internalType": "address",
          "name": "",
          "type": "address"
        }
      ],
      "stateMutability": "view",
      "type": "function"
    },
    {
      "inputs": [
        {
          "internalType": "uint16",
          "name": "targetChain",
          "type": "uint16"
        },
        {
          "internalType": "LocalNative",
          "name": "currentChainAmount",
          "type": "uint256"
        }
      ],
      "name": "quoteAssetConversion",
      "outputs": [
        {
          "internalType": "TargetNative",
          "name": "targetChainAmount",
          "type": "uint256"
        }
      ],
      "stateMutability": "view",
      "type": "function"
    },
    {
      "inputs": [
        {
          "internalType": "uint16",
          "name": "targetChain",
          "type": "uint16"
        }
      ],
      "name": "quoteDeliveryOverhead",
      "outputs": [
        {
          "internalType": "Wei",
          "name": "nativePriceQuote",
          "type": "uint256"
        }
      ],
      "stateMutability": "view",
      "type": "function"
    },
    {
      "inputs": [
        {
          "internalType": "uint16",
          "name": "targetChain",
          "type": "uint16"
        },
        {
          "internalType": "TargetNative",
          "name": "receiverValue",
          "type": "uint256"
        },
        {
          "internalType": "bytes",
          "name": "encodedExecutionParams",
          "type": "bytes"
        }
      ],
      "name": "quoteDeliveryPrice",
      "outputs": [
        {
          "internalType": "LocalNative",
          "name": "nativePriceQuote",
          "type": "uint256"
        },
        {
          "internalType": "bytes",
          "name": "encodedExecutionInfo",
          "type": "bytes"
        }
      ],
      "stateMutability": "view",
      "type": "function"
    },
    {
      "inputs": [
        {
          "internalType": "uint16",
          "name": "targetChain",
          "type": "uint16"
        },
        {
          "internalType": "Gas",
          "name": "gasLimit",
          "type": "uint256"
        },
        {
          "internalType": "TargetNative",
          "name": "receiverValue",
          "type": "uint256"
        }
      ],
      "name": "quoteEvmDeliveryPrice",
      "outputs": [
        {
          "internalType": "LocalNative",
          "name": "nativePriceQuote",
          "type": "uint256"
        },
        {
          "internalType": "GasPrice",
          "name": "targetChainRefundPerUnitGasUnused",
          "type": "uint256"
        }
      ],
      "stateMutability": "view",
      "type": "function"
    },
    {
      "inputs": [
        {
          "internalType": "uint16",
          "name": "targetChain",
          "type": "uint16"
        }
      ],
      "name": "quoteGasPrice",
      "outputs": [
        {
          "internalType": "GasPrice",
          "name": "",
          "type": "uint256"
        }
      ],
      "stateMutability": "view",
      "type": "function"
    },
    {
      "inputs": [],
      "name": "rewardAddress",
      "outputs": [
        {
          "internalType": "address payable",
          "name": "",
          "type": "address"
        }
      ],
      "stateMutability": "view",
      "type": "function"
    },
    {
      "inputs": [
        {
          "internalType": "uint16",
          "name": "thisRelayerChainId",
          "type": "uint16"
        },
        {
          "internalType": "address",
          "name": "newOwner",
          "type": "address"
        }
      ],
      "name": "submitOwnershipTransferRequest",
      "outputs": [],
      "stateMutability": "nonpayable",
      "type": "function"
    },
    {
      "inputs": [
        {
          "internalType": "uint16",
          "name": "targetChain",
          "type": "uint16"
        }
      ],
      "name": "targetChainAddress",
      "outputs": [
        {
          "internalType": "bytes32",
          "name": "",
          "type": "bytes32"
        }
      ],
      "stateMutability": "view",
      "type": "function"
    },
    {
      "inputs": [
        {
          "internalType": "uint16",
          "name": "targetChain",
          "type": "uint16"
        },
        {
          "internalType": "uint16",
          "name": "buffer",
          "type": "uint16"
        },
        {
          "internalType": "uint16",
          "name": "bufferDenominator",
          "type": "uint16"
        }
      ],
      "name": "updateAssetConversionBuffer",
      "outputs": [],
      "stateMutability": "nonpayable",
      "type": "function"
    },
    {
      "inputs": [
        {
          "components": [
            {
              "internalType": "uint16",
              "name": "chainId",
              "type": "uint16"
            },
            {
              "internalType": "uint16",
              "name": "buffer",
              "type": "uint16"
            },
            {
              "internalType": "uint16",
              "name": "bufferDenominator",
              "type": "uint16"
            }
          ],
          "internalType": "struct DeliveryProviderStructs.AssetConversionBufferUpdate[]",
          "name": "updates",
          "type": "tuple[]"
        }
      ],
      "name": "updateAssetConversionBuffers",
      "outputs": [],
      "stateMutability": "nonpayable",
      "type": "function"
    },
    {
      "inputs": [
        {
          "components": [
            {
              "internalType": "bool",
              "name": "updateAssetConversionBuffer",
              "type": "bool"
            },
            {
              "internalType": "bool",
              "name": "updateDeliverGasOverhead",
              "type": "bool"
            },
            {
              "internalType": "bool",
              "name": "updatePrice",
              "type": "bool"
            },
            {
              "internalType": "bool",
              "name": "updateTargetChainAddress",
              "type": "bool"
            },
            {
              "internalType": "bool",
              "name": "updateMaximumBudget",
              "type": "bool"
            },
            {
              "internalType": "bool",
              "name": "updateSupportedChain",
              "type": "bool"
            },
            {
              "internalType": "bool",
              "name": "isSupported",
              "type": "bool"
            },
            {
              "internalType": "uint16",
              "name": "chainId",
              "type": "uint16"
            },
            {
              "internalType": "uint16",
              "name": "buffer",
              "type": "uint16"
            },
            {
              "internalType": "uint16",
              "name": "bufferDenominator",
              "type": "uint16"
            },
            {
              "internalType": "Gas",
              "name": "newGasOverhead",
              "type": "uint256"
            },
            {
              "internalType": "GasPrice",
              "name": "gasPrice",
              "type": "uint256"
            },
            {
              "internalType": "WeiPrice",
              "name": "nativeCurrencyPrice",
              "type": "uint256"
            },
            {
              "internalType": "bytes32",
              "name": "targetChainAddress",
              "type": "bytes32"
            },
            {
              "internalType": "Wei",
              "name": "maximumTotalBudget",
              "type": "uint256"
            }
          ],
          "internalType": "struct DeliveryProviderStructs.Update[]",
          "name": "updates",
          "type": "tuple[]"
        },
        {
          "components": [
            {
              "internalType": "bool",
              "name": "updateWormholeRelayer",
              "type": "bool"
            },
            {
              "internalType": "bool",
              "name": "updateRewardAddress",
              "type": "bool"
            },
            {
              "internalType": "address payable",
              "name": "coreRelayer",
              "type": "address"
            },
            {
              "internalType": "address payable",
              "name": "rewardAddress",
              "type": "address"
            }
          ],
          "internalType": "struct DeliveryProviderStructs.CoreConfig",
          "name": "coreConfig",
          "type": "tuple"
        }
      ],
      "name": "updateConfig",
      "outputs": [],
      "stateMutability": "nonpayable",
      "type": "function"
    },
    {
      "inputs": [
        {
          "internalType": "uint16",
          "name": "chainId",
          "type": "uint16"
        },
        {
          "internalType": "Gas",
          "name": "newGasOverhead",
          "type": "uint256"
        }
      ],
      "name": "updateDeliverGasOverhead",
      "outputs": [],
      "stateMutability": "nonpayable",
      "type": "function"
    },
    {
      "inputs": [
        {
          "components": [
            {
              "internalType": "uint16",
              "name": "chainId",
              "type": "uint16"
            },
            {
              "internalType": "Gas",
              "name": "newGasOverhead",
              "type": "uint256"
            }
          ],
          "internalType": "struct DeliveryProviderStructs.DeliverGasOverheadUpdate[]",
          "name": "overheadUpdates",
          "type": "tuple[]"
        }
      ],
      "name": "updateDeliverGasOverheads",
      "outputs": [],
      "stateMutability": "nonpayable",
      "type": "function"
    },
    {
      "inputs": [
        {
          "internalType": "uint16",
          "name": "targetChain",
          "type": "uint16"
        },
        {
          "internalType": "Wei",
          "name": "maximumTotalBudget",
          "type": "uint256"
        }
      ],
      "name": "updateMaximumBudget",
      "outputs": [],
      "stateMutability": "nonpayable",
      "type": "function"
    },
    {
      "inputs": [
        {
          "components": [
            {
              "internalType": "uint16",
              "name": "chainId",
              "type": "uint16"
            },
            {
              "internalType": "Wei",
              "name": "maximumTotalBudget",
              "type": "uint256"
            }
          ],
          "internalType": "struct DeliveryProviderStructs.MaximumBudgetUpdate[]",
          "name": "updates",
          "type": "tuple[]"
        }
      ],
      "name": "updateMaximumBudgets",
      "outputs": [],
      "stateMutability": "nonpayable",
      "type": "function"
    },
    {
      "inputs": [
        {
          "internalType": "uint16",
          "name": "updateChainId",
          "type": "uint16"
        },
        {
          "internalType": "GasPrice",
          "name": "updateGasPrice",
          "type": "uint256"
        },
        {
          "internalType": "WeiPrice",
          "name": "updateNativeCurrencyPrice",
          "type": "uint256"
        }
      ],
      "name": "updatePrice",
      "outputs": [],
      "stateMutability": "nonpayable",
      "type": "function"
    },
    {
      "inputs": [
        {
          "components": [
            {
              "internalType": "uint16",
              "name": "chainId",
              "type": "uint16"
            },
            {
              "internalType": "GasPrice",
              "name": "gasPrice",
              "type": "uint256"
            },
            {
              "internalType": "WeiPrice",
              "name": "nativeCurrencyPrice",
              "type": "uint256"
            }
          ],
          "internalType": "struct DeliveryProviderStructs.UpdatePrice[]",
          "name": "updates",
          "type": "tuple[]"
        }
      ],
      "name": "updatePrices",
      "outputs": [],
      "stateMutability": "nonpayable",
      "type": "function"
    },
    {
      "inputs": [
        {
          "internalType": "address payable",
          "name": "newAddress",
          "type": "address"
        }
      ],
      "name": "updateRewardAddress",
      "outputs": [],
      "stateMutability": "nonpayable",
      "type": "function"
    },
    {
      "inputs": [
        {
          "internalType": "uint16",
          "name": "targetChain",
          "type": "uint16"
        },
        {
          "internalType": "bool",
          "name": "isSupported",
          "type": "bool"
        }
      ],
      "name": "updateSupportedChain",
      "outputs": [],
      "stateMutability": "nonpayable",
      "type": "function"
    },
    {
      "inputs": [
        {
          "components": [
            {
              "internalType": "uint16",
              "name": "chainId",
              "type": "uint16"
            },
            {
              "internalType": "bool",
              "name": "isSupported",
              "type": "bool"
            }
          ],
          "internalType": "struct DeliveryProviderStructs.SupportedChainUpdate[]",
          "name": "updates",
          "type": "tuple[]"
        }
      ],
      "name": "updateSupportedChains",
      "outputs": [],
      "stateMutability": "nonpayable",
      "type": "function"
    },
    {
      "inputs": [
        {
          "internalType": "uint16",
          "name": "targetChain",
          "type": "uint16"
        },
        {
          "internalType": "bytes32",
          "name": "newAddress",
          "type": "bytes32"
        }
      ],
      "name": "updateTargetChainAddress",
      "outputs": [],
      "stateMutability": "nonpayable",
      "type": "function"
    },
    {
      "inputs": [
        {
          "components": [
            {
              "internalType": "uint16",
              "name": "chainId",
              "type": "uint16"
            },
            {
              "internalType": "bytes32",
              "name": "targetChainAddress",
              "type": "bytes32"
            }
          ],
          "internalType": "struct DeliveryProviderStructs.TargetChainUpdate[]",
          "name": "updates",
          "type": "tuple[]"
        }
      ],
      "name": "updateTargetChainAddresses",
      "outputs": [],
      "stateMutability": "nonpayable",
      "type": "function"
    },
    {
      "inputs": [
        {
          "internalType": "address payable",
          "name": "newAddress",
          "type": "address"
        }
      ],
      "name": "updateWormholeRelayer",
      "outputs": [],
      "stateMutability": "nonpayable",
      "type": "function"
    },
    {
      "inputs": [
        {
          "internalType": "uint16",
          "name": "deliveryProviderChainId",
          "type": "uint16"
        },
        {
          "internalType": "address",
          "name": "newImplementation",
          "type": "address"
        }
      ],
      "name": "upgrade",
      "outputs": [],
      "stateMutability": "nonpayable",
      "type": "function"
    },
    {
      "inputs": [],
      "name": "wormholeMessageFee",
      "outputs": [
        {
          "internalType": "Wei",
          "name": "",
          "type": "uint256"
        }
      ],
      "stateMutability": "view",
      "type": "function"
    }
  ],
  "bytecode": {
    "object": "0x60a06040523480156200001157600080fd5b50604051620026a3380380620026a3833981016040819052620000349162000046565b6001600160a01b031660805262000078565b6000602082840312156200005957600080fd5b81516001600160a01b03811681146200007157600080fd5b9392505050565b60805161260f62000094600039600061133f015261260f6000f3fe608060405234801561001057600080fd5b50600436106102485760003560e01c80638cf57cb91161013b578063bb7c0a63116100b8578063ddf049191161007c578063ddf04919146105e7578063e30c3978146105fa578063e8f62d411461060b578063e8fec1ce1461061e578063fa79380f1461062f57600080fd5b8063bb7c0a631461053e578063bf9321fc1461058d578063d60b347f14610595578063d9f88e14146105c1578063dd36889f146105d457600080fd5b80639a8a0592116100ff5780639a8a0592146104ce578063a31bcc50146104e4578063b51a5f7b146104f7578063b57866d91461050a578063b9e75e661461051d57600080fd5b80638cf57cb9146104595780638da5cb5b1461047e578063944dd5a21461049557806394cc743d146104a8578063973ef215146104bb57600080fd5b80633d77cbfd116101c95780635b5bfc1e1161018d5780635b5bfc1e146103f0578063646e5048146104185780636631703b1461042b5780636b13b5041461043e5780638129fc1c1461045157600080fd5b80633d77cbfd1461035b5780633e48e7731461036e5780634713de7a1461039257806349cdb88c146103b9578063562817e1146103dd57600080fd5b80633171aaec116102105780633171aaec146102cc57806332f3e784146102fe5780633522be7d146103115780633978748a146103245780633a8231541461034857600080fd5b8063038c0b661461024d57806303fed6a514610257578063111335c51461026a57806314de5ced1461027d57806328f41de314610290575b600080fd5b610255610637565b005b610255610265366004611b72565b6106ee565b610255610278366004611c33565b61076b565b61025561028b366004611c33565b6107ab565b6102b761029e366004611c5d565b61ffff1660009081526004602052604090205460ff1690565b60405190151581526020015b60405180910390f35b6102f06102da366004611c5d565b61ffff1660009081526008602052604090205490565b6040519081526020016102c3565b6102f061030c366004611c33565b6107e7565b61025561031f366004611c8d565b610809565b6102f0610332366004611c5d565b61ffff1660009081526005602052604090205490565b610255610356366004611cc4565b610999565b6102f0610369366004611c5d565b6109d6565b6102f061037c366004611c5d565b61ffff1660009081526007602052604090205490565b6102f06103a0366004611c5d565b61ffff1660009081526006602052604090206001015490565b6102f06103c7366004611c5d565b61ffff1660009081526006602052604090205490565b6102556103eb366004611d8b565b6109ef565b6104036103fe366004611cc4565b610b37565b604080519283526020830191909152016102c3565b610255610426366004611f21565b610c20565b610255610439366004611f54565b610cb3565b61025561044c366004611c33565b610d30565b610255610d6c565b600a546001600160a01b03165b6040516001600160a01b0390911681526020016102c3565b6000546201000090046001600160a01b0316610466565b6102556104a3366004612018565b610e0c565b6102556104b6366004611c8d565b610e47565b6102556104c936600461203c565b610ed1565b60005460405161ffff90911681526020016102c3565b6102f06104f2366004611c5d565b610f0e565b610255610505366004612018565b610faa565b61025561051836600461207f565b610fe5565b61053061052b366004612130565b61105d565b6040516102c392919061222e565b61057261054c366004611c5d565b61ffff908116600090815260096020526040902054808216926201000090910490911690565b6040805161ffff9384168152929091166020830152016102c3565b610466611125565b6102b76105a3366004612018565b6001600160a01b031660009081526003602052604090205460ff1690565b6102556105cf366004612247565b61113e565b6102556105e2366004612300565b6111b6565b6102556105f53660046123c6565b611233565b6001546001600160a01b0316610466565b6102f0610619366004611c5d565b6112ab565b6002546001600160a01b0316610466565b6102f061133b565b600061064b6001546001600160a01b031690565b9050336001600160a01b0382161461067657604051630106037360e21b815260040160405180910390fd5b600080546001600160a01b038381166201000090810262010000600160b01b0319841617845590910416906106aa906113bf565b816001600160a01b0316816001600160a01b03167f0d18b5fd22306e373229b9439188228edca81207d1667f604daf6cef8aa3ee6760405160405180910390a35050565b6000546001600160a01b03620100009091041633146107205760405163c0e22f3d60e01b815260040160405180910390fd5b805160005b8181101561076657600083828151811061074157610741612477565b6020026020010151905061075d816000015182602001516113e1565b50600101610725565b505050565b6000546001600160a01b036201000090910416331461079d5760405163c0e22f3d60e01b815260040160405180910390fd5b6107a78282611442565b5050565b6000546001600160a01b03620100009091041633146107dd5760405163c0e22f3d60e01b815260040160405180910390fd5b6107a78282611492565b60006108006107f960005461ffff1690565b84846114d4565b90505b92915050565b6000546001600160a01b036201000090910416331461083b5760405163c0e22f3d60e01b815260040160405180910390fd5b60005461ffff838116911614610863576040516217e1ef60ea1b815260040160405180910390fd5b60006108967f360894a13ba1a3210667c828492db98dca3e2076cc3735a920a3ca505d382bbc546001600160a01b031690565b90506108a182611541565b60408051600481526024810182526020810180516001600160e01b031663204a7f0760e21b179052905160009182916001600160a01b038616916108e49161248d565b600060405180830381855af49150503d806000811461091f576040519150601f19603f3d011682016040523d82523d6000602084013e610924565b606091505b50915091508161095257806040516385f11c8360e01b815260040161094991906124a9565b60405180910390fd5b836001600160a01b0316836001600160a01b03167f2e4cc16c100f0b55e2df82ab0b1a7e294aa9cbd01b48fbaf622683fbc0507a4960405160405180910390a35050505050565b6000546001600160a01b03620100009091041633146109cb5760405163c0e22f3d60e01b815260040160405180910390fd5b610766838383611581565b61ffff8116600090815260056020526040812054610803565b6000546001600160a01b0362010000909104163314610a215760405163c0e22f3d60e01b815260040160405180910390fd5b815160005b81811015610b0b576000848281518110610a4257610a42612477565b60200260200101519050806040015115610a6f57610a6f8160e00151826101600151836101800151611581565b806060015115610a8c57610a8c8160e00151826101a00151611492565b806020015115610aa957610aa98160e00151826101400151611442565b806080015115610ac657610ac68160e00151826101c001516113e1565b805115610ae657610ae68160e001518261010001518361012001516115f3565b8060a0015115610b0257610b028160e001518260c00151610c52565b50600101610a26565b50815115610b2057610b20826040015161166b565b8160200151156107665761076682606001516116c5565b61ffff83166000908152600660205260408120546000610b578583611717565b90506000610b7f610b6788610f0e565b610b7a610b738a6112ab565b8990611717565b611726565b90506000610b8d8887611732565b9050610ba8610ba5610b9f84866117a5565b83611726565b90565b9450610bd0610bb78785611726565b61ffff8a16600090815260086020526040902054101590565b610c155760405162461bcd60e51b8152602060048201526016602482015275115e18d959591cc81b585e1a5b5d5b48189d5919d95d60521b6044820152606401610949565b505050935093915050565b6000546001600160a01b0362010000909104163314610c525760405163c0e22f3d60e01b815260040160405180910390fd5b61ffff82166000908152600460205260409020805460ff19168215151790556040805161ffff8416815282151560208201527feaa35dfb768f1ccf1313ea7faae95ecba5820bf18c08a3e58cbdf3aaa4259096910160405180910390a15050565b6000546001600160a01b0362010000909104163314610ce55760405163c0e22f3d60e01b815260040160405180910390fd5b805160005b81811015610766576000838281518110610d0657610d06612477565b60200260200101519050610d27816000015182602001518360400151611581565b50600101610cea565b6000546001600160a01b0362010000909104163314610d625760405163c0e22f3d60e01b815260040160405180910390fd5b6107a782826113e1565b6000610d9f7f360894a13ba1a3210667c828492db98dca3e2076cc3735a920a3ca505d382bbc546001600160a01b031690565b9050610dc3816001600160a01b031660009081526003602052604090205460ff1690565b15610de1576040516316af21ab60e11b815260040160405180910390fd5b610e09816001600160a01b03166000908152600360205260409020805460ff19166001179055565b50565b6000546001600160a01b0362010000909104163314610e3e5760405163c0e22f3d60e01b815260040160405180910390fd5b610e09816116c5565b6000546001600160a01b0362010000909104163314610e795760405163c0e22f3d60e01b815260040160405180910390fd5b60005461ffff838116911614610ea1576040516217e1ef60ea1b815260040160405180910390fd5b6001600160a01b038116610ec85760405163867915ab60e01b815260040160405180910390fd5b6107a7816113bf565b6000546001600160a01b0362010000909104163314610f035760405163c0e22f3d60e01b815260040160405180910390fd5b6107668383836115f3565b61ffff811660009081526007602090815260408083205460069092528220548290610f3a908390611717565b90506000610f558583610f5060005461ffff1690565b6117ba565b90506fffffffffffffffffffffffffffffffff811115610fa25760405162461bcd60e51b81526020600482015260086024820152674f766572666c6f7760c01b6044820152606401610949565b949350505050565b6000546001600160a01b0362010000909104163314610fdc5760405163c0e22f3d60e01b815260040160405180910390fd5b610e098161166b565b6000546001600160a01b03620100009091041633146110175760405163c0e22f3d60e01b815260040160405180910390fd5b805160005b8181101561076657600083828151811061103857611038612477565b6020026020010151905061105481600001518260200151611492565b5060010161101c565b60006060600061106c846117ef565b9050600081801561107f5761107f6124bc565b036110ef57600061108f85611805565b905060006110a288836000015189610b37565b60408051808201825294518086526020958601839052815160009681019690965285820152606080860192909252805180860390920182526080909401909352945090925061111d915050565b8080156110fe576110fe6124bc565b6040516301959ad760e71b815260ff9091166004820152602401610949565b935093915050565b6000611139600a546001600160a01b031690565b905090565b6000546001600160a01b03620100009091041633146111705760405163c0e22f3d60e01b815260040160405180910390fd5b805160005b8181101561076657600083828151811061119157611191612477565b602002602001015190506111ad81600001518260200151610c52565b50600101611175565b6000546001600160a01b03620100009091041633146111e85760405163c0e22f3d60e01b815260040160405180910390fd5b805160005b8181101561076657600083828151811061120957611209612477565b6020026020010151905061122a8160000151826020015183604001516115f3565b506001016111ed565b6000546001600160a01b03620100009091041633146112655760405163c0e22f3d60e01b815260040160405180910390fd5b805160005b8181101561076657600083828151811061128657611286612477565b602002602001015190506112a281600001518260200151611442565b5060010161126a565b6000806112e0836112d46112cf8661ffff1660009081526006602052604090205490565b61185c565b60005461ffff166117ba565b90506affffffffffffffffffffff8111156113285760405162461bcd60e51b81526020600482015260086024820152674f766572666c6f7760c01b6044820152606401610949565b6affffffffffffffffffffff1692915050565b60007f00000000000000000000000000000000000000000000000000000000000000006001600160a01b0316631a90a2196040518163ffffffff1660e01b8152600401602060405180830381865afa15801561139b573d6000803e3d6000fd5b505050506040513d601f19601f8201168201806040525081019061113991906124d2565b600180546001600160a01b0319166001600160a01b0392909216919091179055565b6001600160c01b0381111561142b5760405162461bcd60e51b815260206004820152601060248201526f616d6f756e7420746f6f206c6172676560801b6044820152606401610949565b61ffff909116600090815260086020526040902055565b61ffff82166000908152600760205260409020546114608383611864565b604051829082907fa73b3e840df75fb07563bcc4e73041b76e761005717b548d420aee0dbfb82e8890600090a3505050565b61ffff8216600081815260056020526040808220849055518392917fca40221dbf955f8619d86581ec5e380ca9ce15f9083a0ab52909d2383d2249f691a35050565b61ffff82811660008181526009602090815260408083205488861684526006909252808320600190810154948452908320015491938181169362010000909204169161153791610ba591856115298682612501565b60008a5b94939291906118cf565b9695505050505050565b61154a81611929565b6040516001600160a01b038216907fbc7cd75a20ee27fd9adebab32041f755214dbc6bffa90cc0225b39da2e5c2d3b90600090a250565b8261ffff166000036115a657604051631b1be67360e21b815260040160405180910390fd5b816000036115c757604051630657481960e21b815260040160405180910390fd5b806000036115e857604051630f47f0ed60e31b815260040160405180910390fd5b6107668383836119ce565b61ffff838116600081815260096020908152604091829020805487861663ffffffff19909116811762010000968816968702179091558251938452908301528181019290925290517faed3d5a75b6e523af32a68084c636eb7880958755291bb890cf7c8abc107a556916060908290030190a1505050565b600280546001600160a01b0319166001600160a01b0383161790556040516001600160a01b03821681527f80ba15fb50f5b4a4de303ae58538112279fb2b00af61c4d38126265bae2944da9060200160405180910390a150565b600a80546001600160a01b0319166001600160a01b0383161790556040516001600160a01b038216907f97e1f675f69047e4b663d3b795841c629240f48eb403a6337e5367c4405737e090600090a250565b600081835b6108009190612525565b6000610800828461253c565b61ffff82811660009081526009602052604081205481549192818116926201000090920481169161179c9161176791166103a0565b61ffff871660009081526006602052604090206001015461178f61ffff808616908716612501565b61ffff861660018961152d565b95945050505050565b60008282116117b45782610800565b50919050565b61ffff83811660009081526006602052604080822060019081015493851683529082208101549192610fa292869280806118cf565b600081806020019051810190610803919061254f565b60408051602081019091526000815260008280602001905181019061182a9190612570565b8352905060ff8116156117b457604051631d4a282160e21b815260ff8216600482015260006024820152604401610949565b600081610803565b63ffffffff8111156118b85760405162461bcd60e51b815260206004820152601c60248201527f64656c697665724761734f7665726865616420746f6f206c61726765000000006044820152606401610949565b61ffff909116600090815260076020526040902055565b6000806118f58563ffffffff166118ef898b611a4290919063ffffffff16565b90611a4e565b9050600061190c8763ffffffff80881690611a4e16565b9050600061191b838387611a57565b9a9950505050505050505050565b803b61198d5760405162461bcd60e51b815260206004820152602d60248201527f455243313936373a206e657720696d706c656d656e746174696f6e206973206e60448201526c1bdd08184818dbdb9d1c9858dd609a1b6064820152608401610949565b7f360894a13ba1a3210667c828492db98dca3e2076cc3735a920a3ca505d382bbc80546001600160a01b0319166001600160a01b0392909216919091179055565b6001600160401b03821115611a255760405162461bcd60e51b815260206004820152601860248201527f676173207072696365206d757374206265203c20325e363400000000000000006044820152606401610949565b61ffff909216600090815260066020526040902090815560010155565b60006108008284612525565b6000818361171c565b60008282611a66576000611a71565b611a716001856125a4565b611a7b908661253c565b610fa291906125b7565b634e487b7160e01b600052604160045260246000fd5b604080519081016001600160401b0381118282101715611abd57611abd611a85565b60405290565b6040516101e081016001600160401b0381118282101715611abd57611abd611a85565b604051606081016001600160401b0381118282101715611abd57611abd611a85565b604051601f8201601f191681016001600160401b0381118282101715611b3057611b30611a85565b604052919050565b60006001600160401b03821115611b5157611b51611a85565b5060051b60200190565b803561ffff81168114611b6d57600080fd5b919050565b60006020808385031215611b8557600080fd5b82356001600160401b03811115611b9b57600080fd5b8301601f81018513611bac57600080fd5b8035611bbf611bba82611b38565b611b08565b81815260069190911b82018301908381019087831115611bde57600080fd5b928401925b82841015611c285760408489031215611bfc5760008081fd5b611c04611a9b565b611c0d85611b5b565b81528486013586820152825260409093019290840190611be3565b979650505050505050565b60008060408385031215611c4657600080fd5b611c4f83611b5b565b946020939093013593505050565b600060208284031215611c6f57600080fd5b61080082611b5b565b6001600160a01b0381168114610e0957600080fd5b60008060408385031215611ca057600080fd5b611ca983611b5b565b91506020830135611cb981611c78565b809150509250929050565b600080600060608486031215611cd957600080fd5b611ce284611b5b565b95602085013595506040909401359392505050565b80358015158114611b6d57600080fd5b600060808284031215611d1957600080fd5b604051608081018181106001600160401b0382111715611d3b57611d3b611a85565b604052905080611d4a83611cf7565b8152611d5860208401611cf7565b60208201526040830135611d6b81611c78565b60408201526060830135611d7e81611c78565b6060919091015292915050565b60008060a0808486031215611d9f57600080fd5b83356001600160401b03811115611db557600080fd5b8401601f81018613611dc657600080fd5b80356020611dd6611bba83611b38565b8281526101e0928302840182019282820191908a851115611df657600080fd5b948301945b84861015611f035780868c031215611e135760008081fd5b611e1b611ac3565b611e2487611cf7565b8152611e31858801611cf7565b858201526040611e42818901611cf7565b908201526060611e53888201611cf7565b908201526080611e64888201611cf7565b90820152611e73878901611cf7565b8882015260c0611e84818901611cf7565b9082015260e0611e95888201611b5b565b90820152610100611ea7888201611b5b565b90820152610120611eb9888201611b5b565b908201526101408781013590820152610160808801359082015261018080880135908201526101a080880135908201526101c0808801359082015283529485019491830191611dfb565b509650611f14905088888301611d07565b9450505050509250929050565b60008060408385031215611f3457600080fd5b611f3d83611b5b565b9150611f4b60208401611cf7565b90509250929050565b60006020808385031215611f6757600080fd5b82356001600160401b03811115611f7d57600080fd5b8301601f81018513611f8e57600080fd5b8035611f9c611bba82611b38565b81815260609182028301840191848201919088841115611fbb57600080fd5b938501935b8385101561200c5780858a031215611fd85760008081fd5b611fe0611ae6565b611fe986611b5b565b815285870135878201526040808701359082015283529384019391850191611fc0565b50979650505050505050565b60006020828403121561202a57600080fd5b813561203581611c78565b9392505050565b60008060006060848603121561205157600080fd5b61205a84611b5b565b925061206860208501611b5b565b915061207660408501611b5b565b90509250925092565b6000602080838503121561209257600080fd5b82356001600160401b038111156120a857600080fd5b8301601f810185136120b957600080fd5b80356120c7611bba82611b38565b81815260069190911b820183019083810190878311156120e657600080fd5b928401925b82841015611c2857604084890312156121045760008081fd5b61210c611a9b565b61211585611b5b565b815284860135868201528252604090930192908401906120eb565b60008060006060848603121561214557600080fd5b61214e84611b5b565b9250602080850135925060408501356001600160401b038082111561217257600080fd5b818701915087601f83011261218657600080fd5b81358181111561219857612198611a85565b6121aa601f8201601f19168501611b08565b915080825288848285010111156121c057600080fd5b80848401858401376000848284010152508093505050509250925092565b60005b838110156121f95781810151838201526020016121e1565b50506000910152565b6000815180845261221a8160208601602086016121de565b601f01601f19169290920160200192915050565b828152604060208201526000610fa26040830184612202565b6000602080838503121561225a57600080fd5b82356001600160401b0381111561227057600080fd5b8301601f8101851361228157600080fd5b803561228f611bba82611b38565b81815260069190911b820183019083810190878311156122ae57600080fd5b928401925b82841015611c2857604084890312156122cc5760008081fd5b6122d4611a9b565b6122dd85611b5b565b81526122ea868601611cf7565b81870152825260409390930192908401906122b3565b6000602080838503121561231357600080fd5b82356001600160401b0381111561232957600080fd5b8301601f8101851361233a57600080fd5b8035612348611bba82611b38565b8181526060918202830184019184820191908884111561236757600080fd5b938501935b8385101561200c5780858a0312156123845760008081fd5b61238c611ae6565b61239586611b5b565b81526123a2878701611b5b565b8782015260406123b3818801611b5b565b908201528352938401939185019161236c565b600060208083850312156123d957600080fd5b82356001600160401b038111156123ef57600080fd5b8301601f8101851361240057600080fd5b803561240e611bba82611b38565b81815260069190911b8201830190838101908783111561242d57600080fd5b928401925b82841015611c28576040848903121561244b5760008081fd5b612453611a9b565b61245c85611b5b565b81528486013586820152825260409093019290840190612432565b634e487b7160e01b600052603260045260246000fd5b6000825161249f8184602087016121de565b9190910192915050565b6020815260006108006020830184612202565b634e487b7160e01b600052602160045260246000fd5b6000602082840312156124e457600080fd5b5051919050565b634e487b7160e01b600052601160045260246000fd5b63ffffffff81811683821601908082111561251e5761251e6124eb565b5092915050565b8082028115828204841417610803576108036124eb565b80820180821115610803576108036124eb565b60006020828403121561256157600080fd5b81516001811061203557600080fd5b6000806040838503121561258357600080fd5b825160ff8116811461259457600080fd5b6020939093015192949293505050565b81810381811115610803576108036124eb565b6000826125d457634e487b7160e01b600052601260045260246000fd5b50049056fea2646970667358221220f72c086262e1992605964653385071b3131d31b07ca1d79ff3e3bfbf69d22b3a64736f6c63430008130033",
    "linkReferences": {}
  },
  "methodIdentifiers": {
    "assetConversionBuffer(uint16)": "bb7c0a63",
    "chainId()": "9a8a0592",
    "confirmOwnershipTransferRequest()": "038c0b66",
    "coreRelayer()": "e8fec1ce",
    "deliverGasOverhead(uint16)": "3e48e773",
    "gasPrice(uint16)": "49cdb88c",
    "getRewardAddress()": "bf9321fc",
    "getTargetChainAddress(uint16)": "3d77cbfd",
    "initialize()": "8129fc1c",
    "isChainSupported(uint16)": "28f41de3",
    "isInitialized(address)": "d60b347f",
    "maximumBudget(uint16)": "3171aaec",
    "nativeCurrencyPrice(uint16)": "4713de7a",
    "owner()": "8da5cb5b",
    "pendingOwner()": "e30c3978",
    "quoteAssetConversion(uint16,uint256)": "32f3e784",
    "quoteDeliveryOverhead(uint16)": "a31bcc50",
    "quoteDeliveryPrice(uint16,uint256,bytes)": "b9e75e66",
    "quoteEvmDeliveryPrice(uint16,uint256,uint256)": "5b5bfc1e",
    "quoteGasPrice(uint16)": "e8f62d41",
    "rewardAddress()": "8cf57cb9",
    "submitOwnershipTransferRequest(uint16,address)": "94cc743d",
    "targetChainAddress(uint16)": "3978748a",
    "updateAssetConversionBuffer(uint16,uint16,uint16)": "973ef215",
    "updateAssetConversionBuffers((uint16,uint16,uint16)[])": "dd36889f",
    "updateConfig((bool,bool,bool,bool,bool,bool,bool,uint16,uint16,uint16,uint256,uint256,uint256,bytes32,uint256)[],(bool,bool,address,address))": "562817e1",
    "updateDeliverGasOverhead(uint16,uint256)": "111335c5",
    "updateDeliverGasOverheads((uint16,uint256)[])": "ddf04919",
    "updateMaximumBudget(uint16,uint256)": "6b13b504",
    "updateMaximumBudgets((uint16,uint256)[])": "03fed6a5",
    "updatePrice(uint16,uint256,uint256)": "3a823154",
    "updatePrices((uint16,uint256,uint256)[])": "6631703b",
    "updateRewardAddress(address)": "944dd5a2",
    "updateSupportedChain(uint16,bool)": "646e5048",
    "updateSupportedChains((uint16,bool)[])": "d9f88e14",
    "updateTargetChainAddress(uint16,bytes32)": "14de5ced",
    "updateTargetChainAddresses((uint16,bytes32)[])": "b57866d9",
    "updateWormholeRelayer(address)": "b51a5f7b",
    "upgrade(uint16,address)": "3522be7d",
    "wormholeMessageFee()": "fa79380f"
  },
  "id": 16
}