{
  "abi": [
    {
      "anonymous": false,
      "inputs": [
        {
          "indexed": false,
          "internalType": "address",
          "name": "previousAdmin",
          "type": "address"
        },
        {
          "indexed": false,
          "internalType": "address",
          "name": "newAdmin",
          "type": "address"
        }
      ],
      "name": "AdminChanged",
      "type": "event"
    },
    {
      "anonymous": false,
      "inputs": [
        {
          "indexed": true,
          "internalType": "address",
          "name": "beacon",
          "type": "address"
        }
      ],
      "name": "BeaconUpgraded",
      "type": "event"
    },
    {
      "anonymous": false,
      "inputs": [
        {
          "indexed": true,
          "internalType": "address",
          "name": "oldContract",
          "type": "address"
        },
        {
          "indexed": true,
          "internalType": "address",
          "name": "newContract",
          "type": "address"
        }
      ],
      "name": "ContractUpgraded",
      "type": "event"
    },
    {
      "anonymous": false,
      "inputs": [
        {
          "indexed": true,
          "internalType": "address",
          "name": "implementation",
          "type": "address"
        }
      ],
      "name": "Upgraded",
      "type": "event"
    },
    {
      "inputs": [
        {
          "internalType": "uint16",
          "name": "chainId_",
          "type": "uint16"
        }
      ],
      "name": "bridgeContracts",
      "outputs": [
        {
          "internalType": "bytes32",
          "name": "",
          "type": "bytes32"
        }
      ],
      "stateMutability": "view",
      "type": "function"
    },
    {
      "inputs": [],
      "name": "chainId",
      "outputs": [
        {
          "internalType": "uint16",
          "name": "",
          "type": "uint16"
        }
      ],
      "stateMutability": "view",
      "type": "function"
    },
    {
      "inputs": [
        {
          "internalType": "bytes",
          "name": "encodedVm",
          "type": "bytes"
        }
      ],
      "name": "completeTransfer",
      "outputs": [],
      "stateMutability": "nonpayable",
      "type": "function"
    },
    {
      "inputs": [
        {
          "components": [
            {
              "internalType": "bytes32",
              "name": "tokenAddress",
              "type": "bytes32"
            },
            {
              "internalType": "uint16",
              "name": "tokenChain",
              "type": "uint16"
            },
            {
              "internalType": "bytes32",
              "name": "symbol",
              "type": "bytes32"
            },
            {
              "internalType": "bytes32",
              "name": "name",
              "type": "bytes32"
            },
            {
              "internalType": "uint256",
              "name": "tokenID",
              "type": "uint256"
            },
            {
              "internalType": "string",
              "name": "uri",
              "type": "string"
            },
            {
              "internalType": "bytes32",
              "name": "to",
              "type": "bytes32"
            },
            {
              "internalType": "uint16",
              "name": "toChain",
              "type": "uint16"
            }
          ],
          "internalType": "struct NFTBridgeStructs.Transfer",
          "name": "transfer",
          "type": "tuple"
        }
      ],
      "name": "encodeTransfer",
      "outputs": [
        {
          "internalType": "bytes",
          "name": "encoded",
          "type": "bytes"
        }
      ],
      "stateMutability": "pure",
      "type": "function"
    },
    {
      "inputs": [],
      "name": "evmChainId",
      "outputs": [
        {
          "internalType": "uint256",
          "name": "",
          "type": "uint256"
        }
      ],
      "stateMutability": "view",
      "type": "function"
    },
    {
      "inputs": [],
      "name": "finality",
      "outputs": [
        {
          "internalType": "uint8",
          "name": "",
          "type": "uint8"
        }
      ],
      "stateMutability": "view",
      "type": "function"
    },
    {
      "inputs": [
        {
          "internalType": "bytes32",
          "name": "hash",
          "type": "bytes32"
        }
      ],
      "name": "governanceActionIsConsumed",
      "outputs": [
        {
          "internalType": "bool",
          "name": "",
          "type": "bool"
        }
      ],
      "stateMutability": "view",
      "type": "function"
    },
    {
      "inputs": [],
      "name": "governanceChainId",
      "outputs": [
        {
          "internalType": "uint16",
          "name": "",
          "type": "uint16"
        }
      ],
      "stateMutability": "view",
      "type": "function"
    },
    {
      "inputs": [],
      "name": "governanceContract",
      "outputs": [
        {
          "internalType": "bytes32",
          "name": "",
          "type": "bytes32"
        }
      ],
      "stateMutability": "view",
      "type": "function"
    },
    {
      "inputs": [],
      "name": "implementation",
      "outputs": [
        {
          "internalType": "address",
          "name": "",
          "type": "address"
        }
      ],
      "stateMutability": "view",
      "type": "function"
    },
    {
      "inputs": [],
      "name": "initialize",
      "outputs": [],
      "stateMutability": "nonpayable",
      "type": "function"
    },
    {
      "inputs": [],
      "name": "isFork",
      "outputs": [
        {
          "internalType": "bool",
          "name": "",
          "type": "bool"
        }
      ],
      "stateMutability": "view",
      "type": "function"
    },
    {
      "inputs": [
        {
          "internalType": "address",
          "name": "impl",
          "type": "address"
        }
      ],
      "name": "isInitialized",
      "outputs": [
        {
          "internalType": "bool",
          "name": "",
          "type": "bool"
        }
      ],
      "stateMutability": "view",
      "type": "function"
    },
    {
      "inputs": [
        {
          "internalType": "bytes32",
          "name": "hash",
          "type": "bytes32"
        }
      ],
      "name": "isTransferCompleted",
      "outputs": [
        {
          "internalType": "bool",
          "name": "",
          "type": "bool"
        }
      ],
      "stateMutability": "view",
      "type": "function"
    },
    {
      "inputs": [
        {
          "internalType": "address",
          "name": "token",
          "type": "address"
        }
      ],
      "name": "isWrappedAsset",
      "outputs": [
        {
          "internalType": "bool",
          "name": "",
          "type": "bool"
        }
      ],
      "stateMutability": "view",
      "type": "function"
    },
    {
      "inputs": [
        {
          "internalType": "address",
          "name": "operator",
          "type": "address"
        },
        {
          "internalType": "address",
          "name": "",
          "type": "address"
        },
        {
          "internalType": "uint256",
          "name": "",
          "type": "uint256"
        },
        {
          "internalType": "bytes",
          "name": "",
          "type": "bytes"
        }
      ],
      "name": "onERC721Received",
      "outputs": [
        {
          "internalType": "bytes4",
          "name": "",
          "type": "bytes4"
        }
      ],
      "stateMutability": "view",
      "type": "function"
    },
    {
      "inputs": [
        {
          "internalType": "bytes",
          "name": "encodedRecoverChainId",
          "type": "bytes"
        }
      ],
      "name": "parseRecoverChainId",
      "outputs": [
        {
          "components": [
            {
              "internalType": "bytes32",
              "name": "module",
              "type": "bytes32"
            },
            {
              "internalType": "uint8",
              "name": "action",
              "type": "uint8"
            },
            {
              "internalType": "uint256",
              "name": "evmChainId",
              "type": "uint256"
            },
            {
              "internalType": "uint16",
              "name": "newChainId",
              "type": "uint16"
            }
          ],
          "internalType": "struct NFTBridgeStructs.RecoverChainId",
          "name": "rci",
          "type": "tuple"
        }
      ],
      "stateMutability": "pure",
      "type": "function"
    },
    {
      "inputs": [
        {
          "internalType": "bytes",
          "name": "encoded",
          "type": "bytes"
        }
      ],
      "name": "parseRegisterChain",
      "outputs": [
        {
          "components": [
            {
              "internalType": "bytes32",
              "name": "module",
              "type": "bytes32"
            },
            {
              "internalType": "uint8",
              "name": "action",
              "type": "uint8"
            },
            {
              "internalType": "uint16",
              "name": "chainId",
              "type": "uint16"
            },
            {
              "internalType": "uint16",
              "name": "emitterChainID",
              "type": "uint16"
            },
            {
              "internalType": "bytes32",
              "name": "emitterAddress",
              "type": "bytes32"
            }
          ],
          "internalType": "struct NFTBridgeStructs.RegisterChain",
          "name": "chain",
          "type": "tuple"
        }
      ],
      "stateMutability": "pure",
      "type": "function"
    },
    {
      "inputs": [
        {
          "internalType": "bytes",
          "name": "encoded",
          "type": "bytes"
        }
      ],
      "name": "parseTransfer",
      "outputs": [
        {
          "components": [
            {
              "internalType": "bytes32",
              "name": "tokenAddress",
              "type": "bytes32"
            },
            {
              "internalType": "uint16",
              "name": "tokenChain",
              "type": "uint16"
            },
            {
              "internalType": "bytes32",
              "name": "symbol",
              "type": "bytes32"
            },
            {
              "internalType": "bytes32",
              "name": "name",
              "type": "bytes32"
            },
            {
              "internalType": "uint256",
              "name": "tokenID",
              "type": "uint256"
            },
            {
              "internalType": "string",
              "name": "uri",
              "type": "string"
            },
            {
              "internalType": "bytes32",
              "name": "to",
              "type": "bytes32"
            },
            {
              "internalType": "uint16",
              "name": "toChain",
              "type": "uint16"
            }
          ],
          "internalType": "struct NFTBridgeStructs.Transfer",
          "name": "transfer",
          "type": "tuple"
        }
      ],
      "stateMutability": "pure",
      "type": "function"
    },
    {
      "inputs": [
        {
          "internalType": "bytes",
          "name": "encoded",
          "type": "bytes"
        }
      ],
      "name": "parseUpgrade",
      "outputs": [
        {
          "components": [
            {
              "internalType": "bytes32",
              "name": "module",
              "type": "bytes32"
            },
            {
              "internalType": "uint8",
              "name": "action",
              "type": "uint8"
            },
            {
              "internalType": "uint16",
              "name": "chainId",
              "type": "uint16"
            },
            {
              "internalType": "bytes32",
              "name": "newContract",
              "type": "bytes32"
            }
          ],
          "internalType": "struct NFTBridgeStructs.UpgradeContract",
          "name": "chain",
          "type": "tuple"
        }
      ],
      "stateMutability": "pure",
      "type": "function"
    },
    {
      "inputs": [
        {
          "internalType": "bytes",
          "name": "encodedVM",
          "type": "bytes"
        }
      ],
      "name": "registerChain",
      "outputs": [],
      "stateMutability": "nonpayable",
      "type": "function"
    },
    {
      "inputs": [
        {
          "internalType": "uint256",
          "name": "tokenId",
          "type": "uint256"
        }
      ],
      "name": "splCache",
      "outputs": [
        {
          "components": [
            {
              "internalType": "bytes32",
              "name": "name",
              "type": "bytes32"
            },
            {
              "internalType": "bytes32",
              "name": "symbol",
              "type": "bytes32"
            }
          ],
          "internalType": "struct NFTBridgeStorage.SPLCache",
          "name": "",
          "type": "tuple"
        }
      ],
      "stateMutability": "view",
      "type": "function"
    },
    {
      "inputs": [
        {
          "internalType": "bytes",
          "name": "encodedVM",
          "type": "bytes"
        }
      ],
      "name": "submitRecoverChainId",
      "outputs": [],
      "stateMutability": "nonpayable",
      "type": "function"
    },
    {
      "inputs": [],
      "name": "tokenImplementation",
      "outputs": [
        {
          "internalType": "address",
          "name": "",
          "type": "address"
        }
      ],
      "stateMutability": "view",
      "type": "function"
    },
    {
      "inputs": [
        {
          "internalType": "address",
          "name": "token",
          "type": "address"
        },
        {
          "internalType": "uint256",
          "name": "tokenID",
          "type": "uint256"
        },
        {
          "internalType": "uint16",
          "name": "recipientChain",
          "type": "uint16"
        },
        {
          "internalType": "bytes32",
          "name": "recipient",
          "type": "bytes32"
        },
        {
          "internalType": "uint32",
          "name": "nonce",
          "type": "uint32"
        }
      ],
      "name": "transferNFT",
      "outputs": [
        {
          "internalType": "uint64",
          "name": "sequence",
          "type": "uint64"
        }
      ],
      "stateMutability": "payable",
      "type": "function"
    },
    {
      "inputs": [
        {
          "internalType": "bytes",
          "name": "encodedVM",
          "type": "bytes"
        }
      ],
      "name": "upgrade",
      "outputs": [],
      "stateMutability": "nonpayable",
      "type": "function"
    },
    {
      "inputs": [],
      "name": "wormhole",
      "outputs": [
        {
          "internalType": "contract IWormhole",
          "name": "",
          "type": "address"
        }
      ],
      "stateMutability": "view",
      "type": "function"
    },
    {
      "inputs": [
        {
          "internalType": "uint16",
          "name": "tokenChainId",
          "type": "uint16"
        },
        {
          "internalType": "bytes32",
          "name": "tokenAddress",
          "type": "bytes32"
        }
      ],
      "name": "wrappedAsset",
      "outputs": [
        {
          "internalType": "address",
          "name": "",
          "type": "address"
        }
      ],
      "stateMutability": "view",
      "type": "function"
    }
  ],
  "bytecode": {
    "object": "0x608060405234801561001057600080fd5b50613fbc806100206000396000f3fe608060405260043610620001db5760003560e01c806384acd1bb11620000ff578063c96616e11162000095578063e039f224116200006c578063e039f22414620006d7578063e6a853e014620006ef578063fbe3c2cd1462000723578063fbeeacd9146200074457600080fd5b8063c96616e1146200060a578063cb4cfea8146200063a578063d60b347f146200069a57600080fd5b8063aa4efa5b11620000d6578063aa4efa5b1462000565578063ad66a5f11462000599578063b172b22214620005ce578063c687851914620005e557600080fd5b806384acd1bb14620004f65780639a8a05921462000516578063a5799f93146200054057600080fd5b80632c3c02a411620001755780635c60da1b116200014c5780635c60da1b146200047657806364d42b17146200048e578063739fc8d114620004af5780638129fc1c14620004de57600080fd5b80632c3c02a414620003a95780632f3a3d5d14620003dd5780633ca6482614620003fd57600080fd5b80631a2be4da11620001b65780631a2be4da14620002c45780631ff1e28614620003125780632539464514620003505780632b511375146200037557600080fd5b806301f5325514620001e0578063150b7a02146200025e578063178149e7146200029d575b600080fd5b348015620001ed57600080fd5b5062000205620001ff36600462002e5b565b620007a4565b604051620002559190600060a0820190508251825260ff6020840151166020830152604083015161ffff808216604085015280606086015116606085015250506080830151608083015292915050565b60405180910390f35b3480156200026b57600080fd5b50620002836200027d36600462002ecd565b620009ac565b6040516001600160e01b0319909116815260200162000255565b348015620002aa57600080fd5b50620002c2620002bc36600462002e5b565b62000a30565b005b348015620002d157600080fd5b5062000301620002e336600462002f70565b6001600160a01b031660009081526008602052604090205460ff1690565b604051901515815260200162000255565b3480156200031f57600080fd5b50620003376200033136600462002fb3565b62000b4c565b6040516001600160a01b03909116815260200162000255565b3480156200035d57600080fd5b50620002c26200036f36600462002e5b565b62000b7b565b3480156200038257600080fd5b506200039a6200039436600462002e5b565b62000c8b565b60405162000255919062003036565b348015620003b657600080fd5b5062000301620003c8366004620030b4565b60009081526004602052604090205460ff1690565b348015620003ea57600080fd5b506001546001600160a01b031662000337565b3480156200040a57600080fd5b506200045a6200041c366004620030b4565b6040805180820190915260008082526020820152506000908152600a6020908152604091829020825180840190935280548352600101549082015290565b6040805182518152602092830151928101929092520162000255565b3480156200048357600080fd5b506200033762000e61565b3480156200049b57600080fd5b50600b545b60405190815260200162000255565b348015620004bc57600080fd5b50600254640100000000900460ff1660405160ff909116815260200162000255565b348015620004eb57600080fd5b50620002c262000e7b565b3480156200050357600080fd5b506000546001600160a01b031662000337565b3480156200052357600080fd5b5060025461ffff165b60405161ffff909116815260200162000255565b3480156200054d57600080fd5b50620002c26200055f36600462002e5b565b6200112c565b3480156200057257600080fd5b506200030162000584366004620030b4565b60009081526005602052604090205460ff1690565b348015620005a657600080fd5b50620004a0620005b8366004620030ce565b61ffff1660009081526009602052604090205490565b348015620005db57600080fd5b50600354620004a0565b348015620005f257600080fd5b50620002c26200060436600462002e5b565b62001231565b620006216200061b36600462003101565b6200123c565b6040516001600160401b03909116815260200162000255565b3480156200064757600080fd5b506200065f6200065936600462002e5b565b620018bf565b6040516200025591908151815260208083015160ff16908201526040808301519082015260609182015161ffff169181019190915260800190565b348015620006a757600080fd5b5062000301620006b936600462002f70565b6001600160a01b031660009081526006602052604090205460ff1690565b348015620006e457600080fd5b506200030162001a7f565b348015620006fc57600080fd5b50620007146200070e36600462003188565b62001a93565b60405162000255919062003255565b3480156200073057600080fd5b5060025462010000900461ffff166200052c565b3480156200075157600080fd5b50620007696200076336600462002e5b565b62001b4f565b6040516200025591908151815260208083015160ff169082015260408083015161ffff16908201526060918201519181019190915260800190565b6040805160a081018252600080825260208201819052918101829052606081018290526080810182905290620007db838262001d28565b8252620007ea60208262003280565b8251909150684e465442726964676514620008585760405162461bcd60e51b815260206004820152602360248201527f696e76616c6964205265676973746572436861696e3a2077726f6e67206d6f64604482015262756c6560e81b60648201526084015b60405180910390fd5b62000864838262001d8a565b60ff1660208301526200087960018262003280565b9050816020015160ff16600114620008e05760405162461bcd60e51b815260206004820152602360248201527f696e76616c6964205265676973746572436861696e3a2077726f6e672061637460448201526234b7b760e91b60648201526084016200084f565b620008ec838262001dea565b61ffff1660408301526200090260028262003280565b905062000910838262001dea565b61ffff1660608301526200092660028262003280565b905062000934838262001d28565b60808301526200094660208262003280565b905080835114620009a65760405162461bcd60e51b815260206004820152602360248201527f696e76616c6964205265676973746572436861696e3a2077726f6e67206c656e6044820152620cee8d60eb1b60648201526084016200084f565b50919050565b60006001600160a01b038616301462000a1e5760405162461bcd60e51b815260206004820152602d60248201527f63616e206f6e6c792062726964676520746f6b656e7320766961207472616e7360448201526c19995c939195081b595d1a1bd9609a1b60648201526084016200084f565b50630a85bd0160e11b95945050505050565b62000a3a62001a7f565b62000a755760405162461bcd60e51b815260206004820152600a6024820152696e6f74206120666f726b60b01b60448201526064016200084f565b600080600062000a858462001e4b565b92509250925081819062000aae5760405162461bcd60e51b81526004016200084f919062003255565b5062000abf8361014001516200206a565b600062000ad08460e00151620018bf565b90504681604001511462000b1b5760405162461bcd60e51b815260206004820152601160248201527034b73b30b634b21022ab269021b430b4b760791b60448201526064016200084f565b62000b2a816040015162002085565b60608101516002805461ffff191661ffff9092169190911790555b5050505050565b61ffff821660009081526007602090815260408083208484529091529020546001600160a01b03165b92915050565b62000b8562001a7f565b1562000bc35760405162461bcd60e51b815260206004820152600c60248201526b696e76616c696420666f726b60a01b60448201526064016200084f565b600080600062000bd38462001e4b565b92509250925081819062000bfc5760405162461bcd60e51b81526004016200084f919062003255565b5062000c0d8361014001516200206a565b600062000c1e8460e0015162001b4f565b905062000c2e60025461ffff1690565b61ffff16816040015161ffff161462000c7b5760405162461bcd60e51b815260206004820152600e60248201526d1ddc9bdb99c818da185a5b881a5960921b60448201526064016200084f565b606081015162000b4590620020d0565b604080516101008101825260008082526020820181905291810182905260608082018390526080820183905260a082015260c0810182905260e08101829052908062000cd8848262001d8a565b905062000ce760018362003280565b91508060ff1660011462000d315760405162461bcd60e51b815260206004820152601060248201526f34b73b30b634b2102a3930b739b332b960811b60448201526064016200084f565b62000d3d848362001d28565b835262000d4c60208362003280565b915062000d5a848362001dea565b61ffff16602084015262000d7060028362003280565b915062000d7e848362001d28565b604084015262000d9060208362003280565b915062000d9e848362001d28565b606084015262000db060208362003280565b915062000dbe848362002207565b608084015262000dd060208362003280565b915062000ddf60018362003280565b915062000e0c82602284875162000df7919062003296565b62000e03919062003296565b86919062002260565b60a08401528351915062000e2260028362003296565b915062000e30848362001dea565b61ffff1660e084015262000e4660208362003296565b915062000e54848362001d28565b60c0840152509092915050565b600062000e766001546001600160a01b031690565b905090565b600062000eaf7f360894a13ba1a3210667c828492db98dca3e2076cc3735a920a3ca505d382bbc546001600160a01b031690565b905062000ed4816001600160a01b031660009081526006602052604090205460ff1690565b1562000f195760405162461bcd60e51b8152602060048201526013602482015272185b1c9958591e481a5b9a5d1a585b1a5e9959606a1b60448201526064016200084f565b62000f42816001600160a01b03166000908152600660205260409020805460ff19166001179055565b600b54600003620011295760008062000f5e60025461ffff1690565b90508061ffff1660020362000f7757600191506200111b565b8061ffff1660040362000f8e57603891506200111b565b8061ffff1660050362000fa557608991506200111b565b8061ffff1660060362000fbd5761a86a91506200111b565b8061ffff1660070362000fd55761a51691506200111b565b8061ffff1660090362000fef57634e45415291506200111b565b8061ffff16600a03620010065760fa91506200111b565b8061ffff16600b036200101e576102ae91506200111b565b8061ffff16600c03620010365761031391506200111b565b8061ffff16600d036200104e5761201991506200111b565b8061ffff16600e03620010665761a4ec91506200111b565b8061ffff166010036200107e5761050491506200111b565b8061ffff166011036200109857630e9ac0d691506200111b565b8061ffff16601703620010b05761a4b191506200111b565b8061ffff16601803620010c757600a91506200111b565b8061ffff16601903620010de57606491506200111b565b60405162461bcd60e51b81526020600482015260116024820152702ab735b737bbb71031b430b4b71034b21760791b60448201526064016200084f565b620011268262002085565b50505b50565b60008060006200113c8462001e4b565b925092509250818190620011655760405162461bcd60e51b81526004016200084f919062003255565b50620011768361014001516200206a565b6000620011878460e00151620007a4565b90506200119760025461ffff1690565b61ffff16816040015161ffff16148015620011b95750620011b762001a7f565b155b80620011cb5750604081015161ffff16155b6200120c5760405162461bcd60e51b815260206004820152601060248201526f1a5b9d985b1a590818da185a5b881a5960821b60448201526064016200084f565b62000b458160600151826080015161ffff909116600090815260096020526040902055565b620011298162002379565b600080600062001264886001600160a01b031660009081526008602052604090205460ff1690565b156200133e57876001600160a01b0316639a8a05926040518163ffffffff1660e01b8152600401602060405180830381865afa158015620012a9573d6000803e3d6000fd5b505050506040513d601f19601f82011682018060405250810190620012cf9190620032b9565b9150876001600160a01b0316633d6c043b6040518163ffffffff1660e01b8152600401602060405180830381865afa15801562001310573d6000803e3d6000fd5b505050506040513d601f19601f82011682018060405250810190620013369190620032d9565b9050620014e8565b60025461ffff166040516301ffc9a760e01b81526380ac58cd60e01b60048201529092506001600160a01b038916915081906301ffc9a790602401602060405180830381865afa15801562001397573d6000803e3d6000fd5b505050506040513d601f19601f82011682018060405250810190620013bd919062003304565b620014155760405162461bcd60e51b815260206004820152602160248201527f6d75737420737570706f7274207468652045524337323120696e7465726661636044820152606560f81b60648201526084016200084f565b6040516301ffc9a760e01b8152635b5e139f60e01b60048201526001600160a01b038916906301ffc9a790602401602060405180830381865afa15801562001461573d6000803e3d6000fd5b505050506040513d601f19601f8201168201806040525081019062001487919062003304565b620014e85760405162461bcd60e51b815260206004820152602a60248201527f6d75737420737570706f727420746865204552433732312d4d657461646174616044820152691032bc3a32b739b4b7b760b11b60648201526084016200084f565b60608060608461ffff16600114620016425760408051600481526024810182526020810180516001600160e01b03166395d89b4160e01b17905290516000916001600160a01b038e16916200153e919062003322565b600060405180830381855afa9150503d80600081146200157b576040519150601f19603f3d011682016040523d82523d6000602084013e62001580565b606091505b5060408051600481526024810182526020810180516001600160e01b03166306fdde0360e01b1790529051919350600092506001600160a01b038f1691620015c9919062003322565b600060405180830381855afa9150503d806000811462001606576040519150601f19603f3d011682016040523d82523d6000602084013e6200160b565b606091505b50915050818060200190518101906200162591906200338c565b9450808060200190518101906200163d91906200338c565b935050505b60008b6001600160a01b03168b6040516024016200166291815260200190565b60408051601f198184030181529181526020820180516001600160e01b031663c87b56dd60e01b1790525162001699919062003322565b600060405180830381855afa9150503d8060008114620016d6576040519150601f19603f3d011682016040523d82523d6000602084013e620016db565b606091505b5091505080806020019051810190620016f591906200338c565b9150506000808661ffff166001036200177157604080518082018252600080825260209182018190528e8152600a825282812083518085019094528054845260010154918301919091529060208101518151909450925090506200176a8d6000908152600a6020526040812081815560010155565b506200177e565b5050602083810151908301515b604051632142170760e11b8152336004820152306024820152604481018d90526001600160a01b038e16906342842e0e90606401600060405180830381600087803b158015620017cd57600080fd5b505af1158015620017e2573d6000803e3d6000fd5b50505050620017f460025461ffff1690565b61ffff168761ffff16146200186057604051630852cd8d60e31b8152600481018d90526001600160a01b038e16906342966c6890602401600060405180830381600087803b1580156200184657600080fd5b505af11580156200185b573d6000803e3d6000fd5b505050505b620018ae6040518061010001604052808881526020018961ffff1681526020018481526020018381526020018e81526020018581526020018c81526020018d61ffff16815250348b6200274b565b9d9c50505050505050505050505050565b604080516080810182526000808252602082018190529181018290526060810182905290620018ef838262001d28565b8252620018fe60208262003280565b8251909150684e465442726964676514620019685760405162461bcd60e51b8152602060048201526024808201527f696e76616c6964205265636f766572436861696e49643a2077726f6e67206d6f60448201526364756c6560e01b60648201526084016200084f565b62001974838262001d8a565b60ff1660208301526200198960018262003280565b9050816020015160ff16600314620019f05760405162461bcd60e51b8152602060048201526024808201527f696e76616c6964205265636f766572436861696e49643a2077726f6e672061636044820152633a34b7b760e11b60648201526084016200084f565b620019fc838262002207565b604083015262001a0e60208262003280565b905062001a1c838262001dea565b61ffff16606083015262001a3260028262003280565b905080835114620009a65760405162461bcd60e51b81526020600482015260166024820152751a5b9d985b1a5908149958dbdd995c90da185a5b925960521b60448201526064016200084f565b60004662001a8c600b5490565b1415905090565b606060c88260a0015151111562001af85760405162461bcd60e51b815260206004820152602260248201527f746f6b656e555249206d757374206e6f74206578636565642032303020627974604482015261657360f01b60648201526084016200084f565b81516020808401516040808601516060870151608088015160a0890151805160c08b015160e08c0151965162001b399a60019a9099989394939101620033c4565b6040516020818303038152906040529050919050565b60408051608081018252600080825260208201819052918101829052606081018290529062001b7f838262001d28565b825262001b8e60208262003280565b8251909150684e46544272696467651462001bfa5760405162461bcd60e51b815260206004820152602560248201527f696e76616c69642055706772616465436f6e74726163743a2077726f6e67206d6044820152646f64756c6560d81b60648201526084016200084f565b62001c06838262001d8a565b60ff16602083015262001c1b60018262003280565b9050816020015160ff1660021462001c845760405162461bcd60e51b815260206004820152602560248201527f696e76616c69642055706772616465436f6e74726163743a2077726f6e67206160448201526431ba34b7b760d91b60648201526084016200084f565b62001c90838262001dea565b61ffff16604083015262001ca660028262003280565b905062001cb4838262001d28565b606083015262001cc660208262003280565b905080835114620009a65760405162461bcd60e51b815260206004820152602560248201527f696e76616c69642055706772616465436f6e74726163743a2077726f6e67206c6044820152640cadccee8d60db1b60648201526084016200084f565b600062001d3782602062003280565b8351101562001d815760405162461bcd60e51b8152602060048201526015602482015274746f427974657333325f6f75744f66426f756e647360581b60448201526064016200084f565b50016020015190565b600062001d9982600162003280565b8351101562001de15760405162461bcd60e51b8152602060048201526013602482015272746f55696e74385f6f75744f66426f756e647360681b60448201526064016200084f565b50016001015190565b600062001df982600262003280565b8351101562001e425760405162461bcd60e51b8152602060048201526014602482015273746f55696e7431365f6f75744f66426f756e647360601b60448201526064016200084f565b50016002015190565b604080516101608101825260008082526020820181905291810182905260608082018390526080820183905260a0820183905260c0820183905260e08201819052610100820183905261012082015261014081019190915260006060600080600062001ebf6000546001600160a01b031690565b6001600160a01b031663c0fd8bde886040518263ffffffff1660e01b815260040162001eec919062003255565b600060405180830381865afa15801562001f0a573d6000803e3d6000fd5b505050506040513d6000823e601f3d908101601f1916820160405262001f34919081019062003550565b9250925092508162001f4d579194509250905062002063565b60025462010000900461ffff1661ffff16836060015161ffff161462001fab5750506040805180820190915260168152753bb937b7339033b7bb32b93730b731b29031b430b4b760511b602082015290935060009250905062002063565b60035483608001511462001ffe57505060408051808201909152601981527f77726f6e6720676f7665726e616e636520636f6e747261637400000000000000602082015290935060009250905062002063565b61014083015160009081526004602052604090205460ff1615620020485782600060405180606001604052806022815260200162003f656022913995509550955050505062002063565b50506040805160208101909152600081529093506001925090505b9193909250565b6000908152600460205260409020805460ff19166001179055565b468114620020cb5760405162461bcd60e51b81526020600482015260126024820152711a5b9d985b1a5908195d9b50da185a5b925960721b60448201526064016200084f565b600b55565b6000620021047f360894a13ba1a3210667c828492db98dca3e2076cc3735a920a3ca505d382bbc546001600160a01b031690565b9050620021118262002804565b60408051600481526024810182526020810180516001600160e01b031663204a7f0760e21b179052905160009182916001600160a01b03861691620021569162003322565b600060405180830381855af49150503d806000811462002193576040519150601f19603f3d011682016040523d82523d6000602084013e62002198565b606091505b5091509150818190620021c05760405162461bcd60e51b81526004016200084f919062003255565b50836001600160a01b0316836001600160a01b03167f2e4cc16c100f0b55e2df82ab0b1a7e294aa9cbd01b48fbaf622683fbc0507a4960405160405180910390a350505050565b60006200221682602062003280565b8351101562001d815760405162461bcd60e51b8152602060048201526015602482015274746f55696e743235365f6f75744f66426f756e647360581b60448201526064016200084f565b6060816200227081601f62003280565b1015620022b15760405162461bcd60e51b815260206004820152600e60248201526d736c6963655f6f766572666c6f7760901b60448201526064016200084f565b620022bd828462003280565b84511015620023035760405162461bcd60e51b8152602060048201526011602482015270736c6963655f6f75744f66426f756e647360781b60448201526064016200084f565b60608215801562002324576040519150600082526020820160405262002370565b6040519150601f8416801560200281840101858101878315602002848b0101015b818310156200235f57805183526020928301920162002345565b5050858452601f01601f1916604052505b50949350505050565b6000806000620023916000546001600160a01b031690565b6001600160a01b031663c0fd8bde856040518263ffffffff1660e01b8152600401620023be919062003255565b600060405180830381865afa158015620023dc573d6000803e3d6000fd5b505050506040513d6000823e601f3d908101601f1916820160405262002406919081019062003550565b9250925092508181906200242f5760405162461bcd60e51b81526004016200084f919062003255565b506200243b8362002846565b6200247b5760405162461bcd60e51b815260206004820152600f60248201526e34b73b30b634b21032b6b4ba3a32b960891b60448201526064016200084f565b60006200248c8460e0015162000c8b565b9050620024ad84610140015160009081526005602052604090205460ff1690565b15620024fc5760405162461bcd60e51b815260206004820152601a60248201527f7472616e7366657220616c726561647920636f6d706c6574656400000000000060448201526064016200084f565b620025218461014001516000908152600560205260409020805460ff19166001179055565b60025461ffff1661ffff168160e0015161ffff16146200257b5760405162461bcd60e51b815260206004820152601460248201527334b73b30b634b2103a30b933b2ba1031b430b4b760611b60448201526064016200084f565b60006200258b60025461ffff1690565b61ffff16826020015161ffff1603620025a757508051620025f2565b6000620025bd8360200151846000015162000b4c565b90506001600160a01b038116620025ef57620025ec8360200151846000015185606001518660400151620028c3565b90505b90505b60c082015160025461ffff1661ffff16836020015161ffff1614620026d057826020015161ffff166001036200265c576080830151604080518082018252606086015181528186015160208083019182526000948552600a90529190922091518255516001909101555b608083015160a08401516040516334ff261960e21b81526001600160a01b0385169263d3fc986492620026969286929190600401620036c5565b600060405180830381600087803b158015620026b157600080fd5b505af1158015620026c6573d6000803e3d6000fd5b5050505062002742565b6080830151604051632142170760e11b81523060048201526001600160a01b0383811660248301526044820192909252908316906342842e0e90606401600060405180830381600087803b1580156200272857600080fd5b505af11580156200273d573d6000803e3d6000fd5b505050505b50505050505050565b600080620027598562001a93565b90506200276e6000546001600160a01b031690565b6001600160a01b031663b19a437e8585846200279560025460ff6401000000009091041690565b6040518563ffffffff1660e01b8152600401620027b593929190620036ee565b60206040518083038185885af1158015620027d4573d6000803e3d6000fd5b50505050506040513d601f19601f82011682018060405250810190620027fb919062003722565b95945050505050565b6200280f8162002b6e565b6040516001600160a01b038216907fbc7cd75a20ee27fd9adebab32041f755214dbc6bffa90cc0225b39da2e5c2d3b90600090a250565b60006200285262001a7f565b15620028905760405162461bcd60e51b815260206004820152600c60248201526b696e76616c696420666f726b60a01b60448201526064016200084f565b6080820151606083015161ffff1660009081526009602052604090205403620028bb57506001919050565b506000919050565b6000620028d360025461ffff1690565b61ffff168561ffff16036200293c5760405162461bcd60e51b815260206004820152602860248201527f63616e206f6e6c79207772617020746f6b656e732066726f6d20666f726569676044820152676e20636861696e7360c01b60648201526084016200084f565b60006200294a868662000b4c565b6001600160a01b031614620029a25760405162461bcd60e51b815260206004820152601c60248201527f7772617070656420617373657420616c7265616479206578697374730000000060448201526064016200084f565b8461ffff16600103620029e3577f576f726d686f6c65204272696467656420536f6c616e612d4e4654000000000092506915d3d49354d41313919560b21b91505b6000627ce50b60e31b620029f78562002c15565b62002a028562002c15565b30898960405160240162002a1b95949392919062003740565b60408051601f19818403018152918152602080830180516001600160e01b03166001600160e01b0319909516949094179093525190925060009162002a6591309185910162003794565b604051602081830303815290604052905060006040518060200162002a8a9062002d20565b601f1982820381018352601f90910116604081905262002ab091908490602001620037ba565b60408051601f19818403018152908290526001600160f01b031960f08b901b166020830152602282018990529150600090604201604051602081830303815290604052805190602001209050808251602084016000f59450843b62002b1457600080fd5b61ffff891660009081526007602090815260408083208b8452825280832080546001600160a01b0319166001600160a01b038a16908117909155835260089091529020805460ff1916600117905550505050949350505050565b803b62002bd45760405162461bcd60e51b815260206004820152602d60248201527f455243313936373a206e657720696d706c656d656e746174696f6e206973206e60448201526c1bdd08184818dbdb9d1c9858dd609a1b60648201526084016200084f565b7f360894a13ba1a3210667c828492db98dca3e2076cc3735a920a3ca505d382bbc80546001600160a01b0319166001600160a01b0392909216919091179055565b606060005b60208110801562002c4c575082816020811062002c3b5762002c3b620037ed565b1a60f81b6001600160f81b03191615155b1562002c67578062002c5e8162003803565b91505062002c1a565b6000816001600160401b0381111562002c845762002c8462002d2e565b6040519080825280601f01601f19166020018201604052801562002caf576020820181803683370190505b50905060005b8281101562002d185784816020811062002cd35762002cd3620037ed565b1a60f81b82828151811062002cec5762002cec620037ed565b60200101906001600160f81b031916908160001a9053508062002d0f8162003803565b91505062002cb5565b509392505050565b610745806200382083390190565b634e487b7160e01b600052604160045260246000fd5b60405161010081016001600160401b038111828210171562002d6a5762002d6a62002d2e565b60405290565b604051608081016001600160401b038111828210171562002d6a5762002d6a62002d2e565b60405161016081016001600160401b038111828210171562002d6a5762002d6a62002d2e565b604051601f8201601f191681016001600160401b038111828210171562002de65762002de662002d2e565b604052919050565b60006001600160401b0382111562002e0a5762002e0a62002d2e565b50601f01601f191660200190565b600062002e2f62002e298462002dee565b62002dbb565b905082815283838301111562002e4457600080fd5b828260208301376000602084830101529392505050565b60006020828403121562002e6e57600080fd5b81356001600160401b0381111562002e8557600080fd5b8201601f8101841362002e9757600080fd5b62002ea88482356020840162002e18565b949350505050565b80356001600160a01b038116811462002ec857600080fd5b919050565b60008060008060006080868803121562002ee657600080fd5b62002ef18662002eb0565b945062002f016020870162002eb0565b93506040860135925060608601356001600160401b038082111562002f2557600080fd5b818801915088601f83011262002f3a57600080fd5b81358181111562002f4a57600080fd5b89602082850101111562002f5d57600080fd5b9699959850939650602001949392505050565b60006020828403121562002f8357600080fd5b62002f8e8262002eb0565b9392505050565b61ffff811681146200112957600080fd5b803562002ec88162002f95565b6000806040838503121562002fc757600080fd5b823562002fd48162002f95565b946020939093013593505050565b60005b8381101562002fff57818101518382015260200162002fe5565b50506000910152565b600081518084526200302281602086016020860162002fe2565b601f01601f19169290920160200192915050565b60208152815160208201526000602083015161ffff80821660408501526040850151606085015260608501516080850152608085015160a085015260a085015191506101008060c08601526200309161012086018462003008565b925060c086015160e08601528160e0870151168186015250508091505092915050565b600060208284031215620030c757600080fd5b5035919050565b600060208284031215620030e157600080fd5b813562002f8e8162002f95565b63ffffffff811681146200112957600080fd5b600080600080600060a086880312156200311a57600080fd5b620031258662002eb0565b94506020860135935060408601356200313e8162002f95565b92506060860135915060808601356200315781620030ee565b809150509295509295909350565b600082601f8301126200317757600080fd5b62002f8e8383356020850162002e18565b6000602082840312156200319b57600080fd5b81356001600160401b0380821115620031b357600080fd5b908301906101008286031215620031c957600080fd5b620031d362002d44565b82358152620031e56020840162002fa6565b602082015260408301356040820152606083013560608201526080830135608082015260a0830135828111156200321b57600080fd5b620032298782860162003165565b60a08301525060c083013560c08201526200324760e0840162002fa6565b60e082015295945050505050565b60208152600062002f8e602083018462003008565b634e487b7160e01b600052601160045260246000fd5b8082018082111562000b755762000b756200326a565b8181038181111562000b755762000b756200326a565b805162002ec88162002f95565b600060208284031215620032cc57600080fd5b815162002f8e8162002f95565b600060208284031215620032ec57600080fd5b5051919050565b8051801515811462002ec857600080fd5b6000602082840312156200331757600080fd5b62002f8e82620032f3565b600082516200333681846020870162002fe2565b9190910192915050565b600082601f8301126200335257600080fd5b81516200336362002e298262002dee565b8181528460208386010111156200337957600080fd5b62002ea882602083016020870162002fe2565b6000602082840312156200339f57600080fd5b81516001600160401b03811115620033b657600080fd5b62002ea88482850162003340565b600060ff60f81b808d60f81b1683528b600184015261ffff60f01b808c60f01b1660218501528a6023850152896043850152886063850152818860f81b166083850152865191506200341e826084860160208a0162002fe2565b920160848101949094525060f09190911b1660a482015260a60198975050505050505050565b805160ff8116811462002ec857600080fd5b805162002ec881620030ee565b80516001600160401b038116811462002ec857600080fd5b600082601f8301126200348d57600080fd5b815160206001600160401b03821115620034ab57620034ab62002d2e565b620034bb818360051b0162002dbb565b82815260079290921b84018101918181019086841115620034db57600080fd5b8286015b84811015620035455760808189031215620034fa5760008081fd5b6200350462002d70565b81518152848201518582015260406200351f81840162003444565b9082015260606200353283820162003444565b90820152835291830191608001620034df565b509695505050505050565b6000806000606084860312156200356657600080fd5b83516001600160401b03808211156200357e57600080fd5b9085019061016082880312156200359457600080fd5b6200359e62002d95565b620035a98362003444565b8152620035b96020840162003456565b6020820152620035cc6040840162003456565b6040820152620035df60608401620032ac565b606082015260808301516080820152620035fc60a0840162003463565b60a08201526200360f60c0840162003444565b60c082015260e0830151828111156200362757600080fd5b620036358982860162003340565b60e0830152506101006200364b81850162003456565b9082015261012083810151838111156200366457600080fd5b620036728a8287016200347b565b9183019190915250610140838101519082015294506200369560208701620032f3565b93506040860151915080821115620036ac57600080fd5b50620036bb8682870162003340565b9150509250925092565b60018060a01b0384168152826020820152606060408201526000620027fb606083018462003008565b63ffffffff841681526060602082015260006200370f606083018562003008565b905060ff83166040830152949350505050565b6000602082840312156200373557600080fd5b62002f8e8262003463565b60a0815260006200375560a083018862003008565b828103602084015262003769818862003008565b6001600160a01b03969096166040840152505061ffff92909216606083015260809091015292915050565b6001600160a01b038316815260406020820181905260009062002ea89083018462003008565b60008351620037ce81846020880162002fe2565b835190830190620037e481836020880162002fe2565b01949350505050565b634e487b7160e01b600052603260045260246000fd5b6000600182016200381857620038186200326a565b506001019056fe608060405234801561001057600080fd5b5060405161074538038061074583398101604081905261002f91610442565b818161005c60017fa3f0ad74e5423aebfd80d3ef4346578335a9a72aeaee59ff6cb3582b35133d51610502565b6000805160206106fe8339815191521461007857610078610523565b6100848282600061008d565b505050506105a3565b6100968361014e565b6040516001600160a01b038416907f1cf3b03a6cf19fa2baba4df148e9dcabedea7f8a5c07840e207e5c089be95d3e90600090a26000825111806100d75750805b1561014957610147836001600160a01b0316635c60da1b6040518163ffffffff1660e01b8152600401602060405180830381865afa15801561011d573d6000803e3d6000fd5b505050506040513d601f19601f820116820180604052508101906101419190610539565b836102ae565b505b505050565b803b6101af5760405162461bcd60e51b815260206004820152602560248201527f455243313936373a206e657720626561636f6e206973206e6f74206120636f6e6044820152641d1c9858dd60da1b60648201526084015b60405180910390fd5b61021a816001600160a01b0316635c60da1b6040518163ffffffff1660e01b8152600401602060405180830381865afa1580156101f0573d6000803e3d6000fd5b505050506040513d601f19601f820116820180604052508101906102149190610539565b3b151590565b61027f5760405162461bcd60e51b815260206004820152603060248201527f455243313936373a20626561636f6e20696d706c656d656e746174696f6e206960448201526f1cc81b9bdd08184818dbdb9d1c9858dd60821b60648201526084016101a6565b6000805160206106fe83398151915280546001600160a01b0319166001600160a01b0392909216919091179055565b60606102d3838360405180606001604052806027815260200161071e602791396102dc565b90505b92915050565b6060833b61033b5760405162461bcd60e51b815260206004820152602660248201527f416464726573733a2064656c65676174652063616c6c20746f206e6f6e2d636f6044820152651b9d1c9858dd60d21b60648201526084016101a6565b600080856001600160a01b0316856040516103569190610554565b600060405180830381855af49150503d8060008114610391576040519150601f19603f3d011682016040523d82523d6000602084013e610396565b606091505b5090925090506103a78282866103b3565b925050505b9392505050565b606083156103c25750816103ac565b8251156103d25782518084602001fd5b8160405162461bcd60e51b81526004016101a69190610570565b80516001600160a01b038116811461040357600080fd5b919050565b634e487b7160e01b600052604160045260246000fd5b60005b83811015610439578181015183820152602001610421565b50506000910152565b6000806040838503121561045557600080fd5b61045e836103ec565b60208401519092506001600160401b038082111561047b57600080fd5b818501915085601f83011261048f57600080fd5b8151818111156104a1576104a1610408565b604051601f8201601f19908116603f011681019083821181831017156104c9576104c9610408565b816040528281528860208487010111156104e257600080fd5b6104f383602083016020880161041e565b80955050505050509250929050565b818103818111156102d657634e487b7160e01b600052601160045260246000fd5b634e487b7160e01b600052600160045260246000fd5b60006020828403121561054b57600080fd5b6102d3826103ec565b6000825161056681846020870161041e565b9190910192915050565b602081526000825180602084015261058f81604085016020870161041e565b601f01601f19169190910160400192915050565b61014c806105b26000396000f3fe60806040523661001357610011610017565b005b6100115b610027610022610029565b6100c2565b565b600061005c7fa3f0ad74e5423aebfd80d3ef4346578335a9a72aeaee59ff6cb3582b35133d50546001600160a01b031690565b6001600160a01b0316635c60da1b6040518163ffffffff1660e01b8152600401602060405180830381865afa158015610099573d6000803e3d6000fd5b505050506040513d601f19601f820116820180604052508101906100bd91906100e6565b905090565b3660008037600080366000845af43d6000803e8080156100e1573d6000f35b3d6000fd5b6000602082840312156100f857600080fd5b81516001600160a01b038116811461010f57600080fd5b939250505056fea26469706673582212201eb9b2aded96f70ed4d0a5fb3cbab0c97edfa90c8635e7d32f7472db5f5e588464736f6c63430008130033a3f0ad74e5423aebfd80d3ef4346578335a9a72aeaee59ff6cb3582b35133d50416464726573733a206c6f772d6c6576656c2064656c65676174652063616c6c206661696c6564676f7665726e616e636520616374696f6e20616c726561647920636f6e73756d6564a26469706673582212201ce29c3c262dab1dd49c26537ff70b4e9c9473c5008b338969a3e38edaec586864736f6c63430008130033",
    "linkReferences": {}
  },
  "methodIdentifiers": {
    "bridgeContracts(uint16)": "ad66a5f1",
    "chainId()": "9a8a0592",
    "completeTransfer(bytes)": "c6878519",
    "encodeTransfer((bytes32,uint16,bytes32,bytes32,uint256,string,bytes32,uint16))": "e6a853e0",
    "evmChainId()": "64d42b17",
    "finality()": "739fc8d1",
    "governanceActionIsConsumed(bytes32)": "2c3c02a4",
    "governanceChainId()": "fbe3c2cd",
    "governanceContract()": "b172b222",
    "implementation()": "5c60da1b",
    "initialize()": "8129fc1c",
    "isFork()": "e039f224",
    "isInitialized(address)": "d60b347f",
    "isTransferCompleted(bytes32)": "aa4efa5b",
    "isWrappedAsset(address)": "1a2be4da",
    "onERC721Received(address,address,uint256,bytes)": "150b7a02",
    "parseRecoverChainId(bytes)": "cb4cfea8",
    "parseRegisterChain(bytes)": "01f53255",
    "parseTransfer(bytes)": "2b511375",
    "parseUpgrade(bytes)": "fbeeacd9",
    "registerChain(bytes)": "a5799f93",
    "splCache(uint256)": "3ca64826",
    "submitRecoverChainId(bytes)": "178149e7",
    "tokenImplementation()": "2f3a3d5d",
    "transferNFT(address,uint256,uint16,bytes32,uint32)": "c96616e1",
    "upgrade(bytes)": "25394645",
    "wormhole()": "84acd1bb",
    "wrappedAsset(uint16,bytes32)": "1ff1e286"
  },
  "id": 52
}