{
  "abi": [
    {
      "inputs": [
        {
          "internalType": "address",
          "name": "_wormhole",
          "type": "address"
        },
        {
          "internalType": "address",
          "name": "_wormholeSimulator",
          "type": "address"
        }
      ],
      "stateMutability": "nonpayable",
      "type": "constructor"
    },
    {
      "inputs": [
        {
          "internalType": "uint8",
          "name": "parsed",
          "type": "uint8"
        },
        {
          "internalType": "uint8",
          "name": "expected",
          "type": "uint8"
        }
      ],
      "name": "InvalidPayloadId",
      "type": "error"
    },
    {
      "inputs": [
        {
          "internalType": "uint256",
          "name": "received",
          "type": "uint256"
        },
        {
          "internalType": "uint256",
          "name": "expected",
          "type": "uint256"
        }
      ],
      "name": "InvalidPayloadLength",
      "type": "error"
    },
    {
      "inputs": [
        {
          "internalType": "uint8",
          "name": "version",
          "type": "uint8"
        },
        {
          "internalType": "uint8",
          "name": "expectedVersion",
          "type": "uint8"
        }
      ],
      "name": "UnexpectedExecutionInfoVersion",
      "type": "error"
    },
    {
      "inputs": [
        {
          "internalType": "uint16",
          "name": "chainId",
          "type": "uint16"
        },
        {
          "internalType": "uint64",
          "name": "deliveryVAASequence",
          "type": "uint64"
        }
      ],
      "name": "getPastDeliveryVAA",
      "outputs": [
        {
          "internalType": "bytes",
          "name": "",
          "type": "bytes"
        }
      ],
      "stateMutability": "view",
      "type": "function"
    },
    {
      "inputs": [
        {
          "internalType": "uint16",
          "name": "chainId",
          "type": "uint16"
        },
        {
          "internalType": "uint64",
          "name": "deliveryVAASequence",
          "type": "uint64"
        }
      ],
      "name": "getPastEncodedVMs",
      "outputs": [
        {
          "internalType": "bytes[]",
          "name": "",
          "type": "bytes[]"
        }
      ],
      "stateMutability": "view",
      "type": "function"
    },
    {
      "inputs": [
        {
          "internalType": "uint16",
          "name": "chainId",
          "type": "uint16"
        },
        {
          "internalType": "bytes",
          "name": "deliveryOverrides",
          "type": "bytes"
        }
      ],
      "name": "relay",
      "outputs": [],
      "stateMutability": "nonpayable",
      "type": "function"
    },
    {
      "inputs": [
        {
          "internalType": "uint16",
          "name": "chainId",
          "type": "uint16"
        }
      ],
      "name": "relay",
      "outputs": [],
      "stateMutability": "nonpayable",
      "type": "function"
    },
    {
      "inputs": [
        {
          "components": [
            {
              "internalType": "bytes32[]",
              "name": "topics",
              "type": "bytes32[]"
            },
            {
              "internalType": "bytes",
              "name": "data",
              "type": "bytes"
            }
          ],
          "internalType": "struct Vm.Log[]",
          "name": "logs",
          "type": "tuple[]"
        },
        {
          "internalType": "uint16",
          "name": "chainId",
          "type": "uint16"
        },
        {
          "internalType": "bytes",
          "name": "deliveryOverrides",
          "type": "bytes"
        }
      ],
      "name": "relay",
      "outputs": [],
      "stateMutability": "nonpayable",
      "type": "function"
    },
    {
      "inputs": [
        {
          "internalType": "uint16",
          "name": "chainId",
          "type": "uint16"
        },
        {
          "internalType": "address",
          "name": "deliveryAddress",
          "type": "address"
        }
      ],
      "name": "setProviderDeliveryAddress",
      "outputs": [],
      "stateMutability": "nonpayable",
      "type": "function"
    },
    {
      "inputs": [
        {
          "internalType": "uint16",
          "name": "chainId",
          "type": "uint16"
        },
        {
          "internalType": "address",
          "name": "contractAddress",
          "type": "address"
        }
      ],
      "name": "setWormholeRelayerContract",
      "outputs": [],
      "stateMutability": "nonpayable",
      "type": "function"
    },
    {
      "inputs": [],
      "name": "vm",
      "outputs": [
        {
          "internalType": "contract Vm",
          "name": "",
          "type": "address"
        }
      ],
      "stateMutability": "view",
      "type": "function"
    }
  ],
  "bytecode": {
    "object": "0x60806040523480156200001157600080fd5b50604051620024b1380380620024b1833981016040819052620000349162000089565b600080546001600160a01b039384166001600160a01b03199182161782556001805493909416921691909117909155600255620000c1565b80516001600160a01b03811681146200008457600080fd5b919050565b600080604083850312156200009d57600080fd5b620000a8836200006c565b9150620000b8602084016200006c565b90509250929050565b6123e080620000d16000396000f3fe608060405234801561001057600080fd5b50600436106100885760003560e01c806380cb624d1161005b57806380cb624d1461015e578063a595b6bf1461017e578063d449888e14610191578063d6fef2e4146101a457600080fd5b8063153cb5fc1461008d5780633a768463146100d15780635dcc7749146101095780637b6aa6731461011c575b600080fd5b6100cf61009b366004611703565b61ffff91909116600090815260046020526040902080546001600160a01b0319166001600160a01b03909216919091179055565b005b6100ec737109709ecfa91a80626ff3989d68f67f5b1dd12d81565b6040516001600160a01b0390911681526020015b60405180910390f35b6100cf610117366004611878565b6101c4565b6100cf61012a366004611703565b61ffff91909116600090815260036020526040902080546001600160a01b0319166001600160a01b03909216919091179055565b61017161016c3660046118dc565b610263565b604051610100919061195a565b6100cf61018c36600461196d565b610332565b6100cf61019f3660046119ad565b6103df565b6101b76101b23660046118dc565b610820565b6040516101009190611bae565b61025f7f885cb69240a935d632d79c317109709ecfa91a80626ff3989d68f67f5b1dd12d60001c60601b60601c6001600160a01b031663191553a46040518163ffffffff1660e01b81526004016000604051808303816000875af1158015610230573d6000803e3d6000fd5b505050506040513d6000823e601f3d908101601f191682016040526102589190810190611c06565b83836103df565b5050565b606060066000848460405160200161027c929190611d61565b60405160208183030381529060405280519060200120815260200190815260200160002080546102ab90611d8b565b80601f01602080910402602001604051908101604052809291908181526020018280546102d790611d8b565b80156103245780601f106102f957610100808354040283529160200191610324565b820191906000526020600020905b81548152906001019060200180831161030757829003601f168201915b505050505090505b92915050565b6103dc7f885cb69240a935d632d79c317109709ecfa91a80626ff3989d68f67f5b1dd12d60001c60601b60601c6001600160a01b031663191553a46040518163ffffffff1660e01b81526004016000604051808303816000875af115801561039e573d6000803e3d6000fd5b505050506040513d6000823e601f3d908101601f191682016040526103c69190810190611c06565b82604051806020016040528060008152506103df565b50565b600154604051639404495d60e01b81526000916001600160a01b031690639404495d90610410908790600401611e1e565b600060405180830381865afa15801561042d573d6000803e3d6000fd5b505050506040513d6000823e601f3d908101601f191682016040526104559190810190611c06565b9050600081516001600160401b0381111561047257610472611748565b6040519080825280602002602001820160405280156104a557816020015b60608152602001906001900390816104905790505b50905060005b81518110156105b65760015483516001600160a01b0390911690634603c12a908590849081106104dd576104dd611e80565b6020026020010151878685815181106104f8576104f8611e80565b60200260200101516000015160018151811061051657610516611e80565b602002602001015160001c6040518463ffffffff1660e01b815260040161053f93929190611e96565b6000604051808303816000875af115801561055e573d6000803e3d6000fd5b505050506040513d6000823e601f3d908101601f191682016040526105869190810190611ecd565b82828151811061059857610598611e80565b602002602001018190525080806105ae90611f17565b9150506104ab565b50600081516001600160401b038111156105d2576105d2611748565b60405190808252806020026020018201604052801561065857816020015b60408051610160810182526000808252602080830182905292820181905260608083018290526080830182905260a0830182905260c0830182905260e08301819052610100830182905261012083015261014082015282526000199092019101816105f05790505b50905060005b82518161ffff1610156107355760005483516001600160a01b039091169063a9e1189390859061ffff851690811061069857610698611e80565b60200260200101516040518263ffffffff1660e01b81526004016106bc919061195a565b600060405180830381865afa1580156106d9573d6000803e3d6000fd5b505050506040513d6000823e601f3d908101601f191682016040526107019190810190612017565b828261ffff168151811061071757610717611e80565b6020026020010181905250808061072d9061213b565b91505061065e565b5060005b82518161ffff1610156108175761ffff86166000908152600360205260409020546001600160a01b0316828261ffff168151811061077957610779611e80565b6020026020010151608001511480156107ba57508561ffff16828261ffff16815181106107a8576107a8611e80565b60200260200101516060015161ffff16145b1561080557610805838261ffff16815181106107d8576107d8611e80565b602002602001015184848461ffff16815181106107f7576107f7611e80565b602002602001015188610935565b8061080f8161213b565b915050610739565b50505050505050565b6060600560008484604051602001610839929190611d61565b604051602081830303815290604052805190602001208152602001908152602001600020805480602002602001604051908101604052809291908181526020016000905b8282101561092957838290600052602060002001805461089c90611d8b565b80601f01602080910402602001604051908101604052809291908181526020018280546108c890611d8b565b80156109155780601f106108ea57610100808354040283529160200191610915565b820191906000526020600020905b8154815290600101906020018083116108f857829003601f168201915b50505050508152602001906001019061087d565b50505050905092915050565b60e08201516000906109479082610e9a565b90508060ff16600103610c285760006109638460e00151610efb565b90506000816101600151516001600160401b0381111561098557610985611748565b6040519080825280602002602001820160405280156109b857816020015b60608152602001906001900390816109a35790505b50905060005b826101600151518160ff161015610a915760005b87518160ff161015610a7e57610a258461016001518360ff16815181106109fb576109fb611e80565b6020026020010151898360ff1681518110610a1857610a18611e80565b6020026020010151611078565b15610a6c57878160ff1681518110610a3f57610a3f611e80565b6020026020010151838360ff1681518110610a5c57610a5c611e80565b6020026020010181905250610a7e565b80610a768161215c565b9150506109d2565b5080610a898161215c565b9150506109be565b506000610aa18360a00151611143565b90506000610ada610ad0610ac6846020015185600001516111aa90919063ffffffff16565b60608701516111bd565b60808601516111bd565b845161ffff811660009081526004602081905260409182902054915163ca669fa760e01b81526001600160a01b039092169082015291925090737109709ecfa91a80626ff3989d68f67f5b1dd12d9063ca669fa790602401600060405180830381600087803b158015610b4c57600080fd5b505af1158015610b60573d6000803e3d6000fd5b5050505061ffff81166000908152600360205260409020546001600160a01b031663a60eb4c883868d600460008761ffff1661ffff16815260200190815260200160002060009054906101000a90046001600160a01b03168c6040518663ffffffff1660e01b8152600401610bd8949392919061217b565b6000604051808303818588803b158015610bf157600080fd5b505af1158015610c05573d6000803e3d6000fd5b5050505050610c1e88606001518960a00151868d6111c9565b5050505050610e93565b8060ff16600203610e93576000610c428460e00151611261565b905060006040518060600160405280836040015181526020018360600151815260200186610140015181525090506000610c7f8360600151611143565b90506000610cab610ca1836020015184600001516111aa90919063ffffffff16565b60408601516111bd565b84518051604090910151919250600091610cc59190610263565b85518051604090910151919250600091610cdf9190610820565b6000805460405163a9e1189360e01b81529293509091610d65916001600160a01b03169063a9e1189390610d1790879060040161195a565b600060405180830381865afa158015610d34573d6000803e3d6000fd5b505050506040513d6000823e601f3d908101601f19168201604052610d5c9190810190612017565b60e00151610efb565b5161ffff811660009081526004602081905260409182902054915163ca669fa760e01b81526001600160a01b0390921690820152909150737109709ecfa91a80626ff3989d68f67f5b1dd12d9063ca669fa790602401600060405180830381600087803b158015610dd557600080fd5b505af1158015610de9573d6000803e3d6000fd5b5050505061ffff81166000908152600360205260409020546001600160a01b031663a60eb4c88561ffff8416600090815260046020526040902054859087906001600160a01b0316610e3a8c611336565b6040518663ffffffff1660e01b8152600401610e59949392919061217b565b6000604051808303818588803b158015610e7257600080fd5b505af1158015610e86573d6000803e3d6000fd5b5050505050505050505050505b5050505050565b6000610ea78260016121ce565b83511015610ef25760405162461bcd60e51b8152602060048201526013602482015272746f55696e74385f6f75744f66426f756e647360681b60448201526064015b60405180910390fd5b50016001015190565b604080516101808101825260008082526020820181905260609282018390528282018190526080820181905260a0820183905260c0820181905260e08201819052610100820181905261012082018190526101408201526101608101919091526000610f6a836000600161137a565b9050600080610f828584600291810182015192910190565b61ffff90911685529250610f9685846113cf565b60208601919091529250610faa85846113f5565b6040868101929092528681016020810151908301519190920194509092509050610fd485846113f5565b60a0860191909152600286820181015161ffff1660c0870152019250610ffa85846113cf565b60e0860191909152925061100e85846113cf565b610100860191909152925061102385846113cf565b610120860191909152925061103885846113cf565b610140860191909152925061104d8584611431565b6101608601919091526060850183905260808501829052925061107085846114ff565b505050919050565b6000805460405163a9e1189360e01b815282916001600160a01b03169063a9e11893906110a990869060040161195a565b600060405180830381865afa1580156110c6573d6000803e3d6000fd5b505050506040513d6000823e601f3d908101601f191682016040526110ee9190810190612017565b9050806060015161ffff16846000015161ffff16148015611116575080608001518460200151145b801561113b57508060a001516001600160401b031684604001516001600160401b0316145b949350505050565b604080518082019091526000808252602082015260008280602001905181019061116d91906121e1565b60208501528352905060ff8116156111a45760405163c1f4bdd960e01b815260ff8216600482015260006024820152604401610ee9565b50919050565b60006111b68284612216565b9392505050565b60006111b682846121ce565b816005600086866040516020016111e1929190611d61565b6040516020818303038152906040528051906020012081526020019081526020016000209080519060200190611218929190611626565b5080600660008686604051602001611231929190611d61565b6040516020818303038152906040528051906020012081526020019081526020016000209081610e93919061227c565b6040805161012081018252600060c0820181815260e0830182905261010083018290528252602082018190529181018290526060808201526080810182905260a08101829052906112b48382600261137a565b905060006112c2848361152d565b908452848101600281015161ffff1660208601526022908101519101925090506112ec84836113f5565b6060850191909152915061130084836113cf565b6080850191909152915061131484836113cf565b60a085019190915260408401829052915061132f84836114ff565b5050919050565b60606001826000015161134c846020015161159b565b8460400151604051602001611364949392919061233b565b6040516020818303038152906040529050919050565b6000806113908585600191810182015192910190565b9250905060ff808216908416146113c757604051633ce5fedf60e11b815260ff808316600483015284166024820152604401610ee9565b509392505050565b6000806000806113e88686602091810182015192910190565b9097909650945050505050565b606060008061140d8585600491810182015192910190565b92509050611425858363ffffffff808516906115b116565b90969095509350505050565b60606000806114498585600191810182015192910190565b9250905060ff81166001600160401b0381111561146857611468611748565b6040519080825280602002602001820160405280156114b357816020015b60408051606081018252600080825260208083018290529282015282526000199092019101816114865790505b50925060005b83518110156114f6576114cc868461152d565b8583815181106114de576114de611e80565b602090810291909101019190915292506001016114b9565b50509250929050565b8082511461025f57815160405163061bc83560e51b8152600481019190915260248101829052604401610ee9565b60408051606081018252600080825260208201819052918101829052906115568484600161137a565b600281860181015161ffff16845201905061157184826113cf565b602084019190915260089481018501516001600160401b0316604084015291949390910192915050565b6060815182604051602001611364929190612378565b60606000826000036115d45750506040805160008152602081019091528261161e565b5050604051828201601f8316806115e9575060205b80830184810186838901015b8183101561160d5780518352602092830192016115f5565b5050848452601f01601f1916604052505b935093915050565b82805482825590600052602060002090810192821561166c579160200282015b8281111561166c578251829061165c908261227c565b5091602001919060010190611646565b5061167892915061167c565b5090565b808211156116785760006116908282611699565b5060010161167c565b5080546116a590611d8b565b6000825580601f106116b5575050565b601f0160209004906000526020600020908101906103dc91905b8082111561167857600081556001016116cf565b61ffff811681146103dc57600080fd5b80356116fe816116e3565b919050565b6000806040838503121561171657600080fd5b8235611721816116e3565b915060208301356001600160a01b038116811461173d57600080fd5b809150509250929050565b634e487b7160e01b600052604160045260246000fd5b604080519081016001600160401b038111828210171561178057611780611748565b60405290565b604051608081016001600160401b038111828210171561178057611780611748565b60405161016081016001600160401b038111828210171561178057611780611748565b604051601f8201601f191681016001600160401b03811182821017156117f3576117f3611748565b604052919050565b60006001600160401b0382111561181457611814611748565b50601f01601f191660200190565b600082601f83011261183357600080fd5b8135611846611841826117fb565b6117cb565b81815284602083860101111561185b57600080fd5b816020850160208301376000918101602001919091529392505050565b6000806040838503121561188b57600080fd5b8235611896816116e3565b915060208301356001600160401b038111156118b157600080fd5b6118bd85828601611822565b9150509250929050565b6001600160401b03811681146103dc57600080fd5b600080604083850312156118ef57600080fd5b82356118fa816116e3565b9150602083013561173d816118c7565b60005b8381101561192557818101518382015260200161190d565b50506000910152565b6000815180845261194681602086016020860161190a565b601f01601f19169290920160200192915050565b6020815260006111b6602083018461192e565b60006020828403121561197f57600080fd5b81356111b6816116e3565b60006001600160401b038211156119a3576119a3611748565b5060051b60200190565b6000806000606084860312156119c257600080fd5b6001600160401b0380853511156119d857600080fd5b8435850186601f8201126119eb57600080fd5b6119f8611841823561198a565b81358082526020808301929160051b840101891015611a1657600080fd5b602083015b6020843560051b850101811015611b1a578481351115611a3a57600080fd5b803584016040818c03601f19011215611a5257600080fd5b611a5a61175e565b8660208301351115611a6b57600080fd5b602082013582018c603f820112611a8157600080fd5b611a91611841602083013561198a565b602082810135808352908201919060051b83016040018f811115611ab457600080fd5b6040840193505b80841015611ad6578335835260209384019390920191611abb565b50835250506040820135871015611aec57600080fd5b611aff8c60206040850135850101611822565b60208201528085525050602083019250602081019050611a1b565b509550611b2c915050602086016116f3565b92508060408601351115611b3f57600080fd5b50611b508560408601358601611822565b90509250925092565b600081518084526020808501808196508360051b8101915082860160005b85811015611ba1578284038952611b8f84835161192e565b98850198935090840190600101611b77565b5091979650505050505050565b6020815260006111b66020830184611b59565b600082601f830112611bd257600080fd5b8151611be0611841826117fb565b818152846020838601011115611bf557600080fd5b61113b82602083016020870161190a565b60006020808385031215611c1957600080fd5b82516001600160401b0380821115611c3057600080fd5b818501915085601f830112611c4457600080fd5b8151611c526118418261198a565b81815260059190911b83018401908481019088831115611c7157600080fd5b8585015b83811015611d5457805185811115611c8c57600080fd5b86016040818c03601f19011215611ca257600080fd5b611caa61175e565b8882015187811115611cbb57600080fd5b8201603f81018d13611ccc57600080fd5b89810151611cdc6118418261198a565b81815260059190911b8201604001908b8101908f831115611cfc57600080fd5b6040840193505b82841015611d1c5783518252928c0192908c0190611d03565b8452505050604082015187811115611d3357600080fd5b611d418d8b83860101611bc1565b828b015250845250918601918601611c75565b5098975050505050505050565b60f09290921b6001600160f01b031916825260c01b6001600160c01b0319166002820152600a0190565b600181811c90821680611d9f57607f821691505b6020821081036111a457634e487b7160e01b600052602260045260246000fd5b805160408084528151908401819052600091602091908201906060860190845b81811015611dfb57835183529284019291840191600101611ddf565b505082850151915085810383870152611e14818361192e565b9695505050505050565b6000602080830181845280855180835260408601915060408160051b870101925083870160005b82811015611e7357603f19888603018452611e61858351611dbf565b94509285019290850190600101611e45565b5092979650505050505050565b634e487b7160e01b600052603260045260246000fd5b606081526000611ea96060830186611dbf565b61ffff949094166020830152506001600160a01b0391909116604090910152919050565b600060208284031215611edf57600080fd5b81516001600160401b03811115611ef557600080fd5b61113b84828501611bc1565b634e487b7160e01b600052601160045260246000fd5b600060018201611f2957611f29611f01565b5060010190565b805160ff811681146116fe57600080fd5b805163ffffffff811681146116fe57600080fd5b80516116fe816116e3565b80516116fe816118c7565b600082601f830112611f7c57600080fd5b81516020611f8c6118418361198a565b82815260079290921b84018101918181019086841115611fab57600080fd5b8286015b8481101561200c5760808189031215611fc85760008081fd5b611fd0611786565b8151815284820151858201526040611fe9818401611f30565b908201526060611ffa838201611f30565b90820152835291830191608001611faf565b509695505050505050565b60006020828403121561202957600080fd5b81516001600160401b038082111561204057600080fd5b90830190610160828603121561205557600080fd5b61205d6117a8565b61206683611f30565b815261207460208401611f41565b602082015261208560408401611f41565b604082015261209660608401611f55565b6060820152608083015160808201526120b160a08401611f60565b60a08201526120c260c08401611f30565b60c082015260e0830151828111156120d957600080fd5b6120e587828601611bc1565b60e0830152506101006120f9818501611f41565b90820152610120838101518381111561211157600080fd5b61211d88828701611f6b565b91830191909152506101409283015192810192909252509392505050565b600061ffff80831681810361215257612152611f01565b6001019392505050565b600060ff821660ff810361217257612172611f01565b60010192915050565b60808152600061218e6080830187611b59565b82810360208401526121a0818761192e565b6001600160a01b0386166040850152838103606085015290506121c3818561192e565b979650505050505050565b8082018082111561032c5761032c611f01565b6000806000606084860312156121f657600080fd5b6121ff84611f30565b925060208401519150604084015190509250925092565b808202811582820484141761032c5761032c611f01565b601f82111561227757600081815260208120601f850160051c810160208610156122545750805b601f850160051c820191505b8181101561227357828155600101612260565b5050505b505050565b81516001600160401b0381111561229557612295611748565b6122a9816122a38454611d8b565b8461222d565b602080601f8311600181146122de57600084156122c65750858301515b600019600386901b1c1916600185901b178555612273565b600085815260208120601f198616915b8281101561230d578886015182559484019460019091019084016122ee565b508582101561232b5787850151600019600388901b60f8161c191681555b5050505050600190811b01905550565b60ff60f81b8560f81b1681528360018201526000835161236281602185016020880161190a565b6021920191820192909252604101949350505050565b63ffffffff60e01b8360e01b1681526000825161239c81600485016020870161190a565b91909101600401939250505056fea26469706673582212208f5b8d7932e9a1380c6b21dc5dfd8ed6b3bd526e915ddf69b44dd4068403b3d364736f6c63430008130033",
    "linkReferences": {}
  },
  "methodIdentifiers": {
    "getPastDeliveryVAA(uint16,uint64)": "80cb624d",
    "getPastEncodedVMs(uint16,uint64)": "d6fef2e4",
    "relay((bytes32[],bytes)[],uint16,bytes)": "d449888e",
    "relay(uint16)": "a595b6bf",
    "relay(uint16,bytes)": "5dcc7749",
    "setProviderDeliveryAddress(uint16,address)": "153cb5fc",
    "setWormholeRelayerContract(uint16,address)": "7b6aa673",
    "vm()": "3a768463"
  },
  "id": 33
}