{
  "abi": [
    {
      "inputs": [
        {
          "internalType": "uint256",
          "name": "offset",
          "type": "uint256"
        },
        {
          "internalType": "uint256",
          "name": "length",
          "type": "uint256"
        }
      ],
      "name": "OutOfBounds",
      "type": "error"
    },
    {
      "inputs": [
        {
          "internalType": "bytes",
          "name": "payload",
          "type": "bytes"
        },
        {
          "internalType": "bytes[]",
          "name": "",
          "type": "bytes[]"
        },
        {
          "internalType": "bytes32",
          "name": "",
          "type": "bytes32"
        },
        {
          "internalType": "uint16",
          "name": "",
          "type": "uint16"
        },
        {
          "internalType": "bytes32",
          "name": "",
          "type": "bytes32"
        }
      ],
      "name": "receiveWormholeMessages",
      "outputs": [],
      "stateMutability": "payable",
      "type": "function"
    }
  ],
  "bytecode": {
    "object": "0x608060405234801561001057600080fd5b5061038d806100206000396000f3fe60806040526004361061001e5760003560e01c8063529dca3214610023575b600080fd5b610036610031366004610211565b610038565b005b600061004486826100e1565b50905060008167ffffffffffffffff81111561006257610062610143565b6040519080825280601f01601f19166020018201604052801561008c576020820181803683370190505b50905060005b81518110156100d8578060f81b8282815181106100b1576100b161031a565b60200101906001600160f81b031916908160001a9053506100d181610330565b9050610092565b50602081018281fd5b6000806100f78484602091810182015192910190565b85519193509150610109908290610110565b9250929050565b8082111561013f57604051633d71388b60e21b8152600481018390526024810182905260440160405180910390fd5b5050565b634e487b7160e01b600052604160045260246000fd5b604051601f8201601f1916810167ffffffffffffffff8111828210171561018257610182610143565b604052919050565b600082601f83011261019b57600080fd5b813567ffffffffffffffff8111156101b5576101b5610143565b6101c8601f8201601f1916602001610159565b8181528460208386010111156101dd57600080fd5b816020850160208301376000918101602001919091529392505050565b803561ffff8116811461020c57600080fd5b919050565b600080600080600060a0868803121561022957600080fd5b853567ffffffffffffffff8082111561024157600080fd5b61024d89838a0161018a565b965060209150818801358181111561026457600080fd5b8801601f81018a1361027557600080fd5b80358281111561028757610287610143565b8060051b610296858201610159565b918252828101850191858101908d8411156102b057600080fd5b86850192505b838310156102ec578235868111156102ce5760008081fd5b6102dc8f898389010161018a565b83525091860191908601906102b6565b809a505050505050505060408601359250610309606087016101fa565b949793965091946080013592915050565b634e487b7160e01b600052603260045260246000fd5b60006001820161035057634e487b7160e01b600052601160045260246000fd5b506001019056fea2646970667358221220a888438726d6e7d82198043bc835bd396f5929d7f941b0e868c092520e40b8f564736f6c63430008130033",
    "linkReferences": {}
  },
  "methodIdentifiers": {
    "receiveWormholeMessages(bytes,bytes[],bytes32,uint16,bytes32)": "529dca32"
  },
  "id": 32
}