{
  "abi": [
    {
      "inputs": [],
      "name": "chainId",
      "outputs": [
        {
          "internalType": "uint16",
          "name": "",
          "type": "uint16"
        }
      ],
      "stateMutability": "view",
      "type": "function"
    },
    {
      "inputs": [],
      "name": "evmChainId",
      "outputs": [
        {
          "internalType": "uint256",
          "name": "",
          "type": "uint256"
        }
      ],
      "stateMutability": "view",
      "type": "function"
    },
    {
      "inputs": [],
      "name": "getCurrentGuardianSetIndex",
      "outputs": [
        {
          "internalType": "uint32",
          "name": "",
          "type": "uint32"
        }
      ],
      "stateMutability": "view",
      "type": "function"
    },
    {
      "inputs": [
        {
          "internalType": "uint32",
          "name": "index",
          "type": "uint32"
        }
      ],
      "name": "getGuardianSet",
      "outputs": [
        {
          "components": [
            {
              "internalType": "address[]",
              "name": "keys",
              "type": "address[]"
            },
            {
              "internalType": "uint32",
              "name": "expirationTime",
              "type": "uint32"
            }
          ],
          "internalType": "struct Structs.GuardianSet",
          "name": "",
          "type": "tuple"
        }
      ],
      "stateMutability": "view",
      "type": "function"
    },
    {
      "inputs": [],
      "name": "getGuardianSetExpiry",
      "outputs": [
        {
          "internalType": "uint32",
          "name": "",
          "type": "uint32"
        }
      ],
      "stateMutability": "view",
      "type": "function"
    },
    {
      "inputs": [
        {
          "internalType": "bytes32",
          "name": "hash",
          "type": "bytes32"
        }
      ],
      "name": "governanceActionIsConsumed",
      "outputs": [
        {
          "internalType": "bool",
          "name": "",
          "type": "bool"
        }
      ],
      "stateMutability": "view",
      "type": "function"
    },
    {
      "inputs": [],
      "name": "governanceChainId",
      "outputs": [
        {
          "internalType": "uint16",
          "name": "",
          "type": "uint16"
        }
      ],
      "stateMutability": "view",
      "type": "function"
    },
    {
      "inputs": [],
      "name": "governanceContract",
      "outputs": [
        {
          "internalType": "bytes32",
          "name": "",
          "type": "bytes32"
        }
      ],
      "stateMutability": "view",
      "type": "function"
    },
    {
      "inputs": [],
      "name": "isFork",
      "outputs": [
        {
          "internalType": "bool",
          "name": "",
          "type": "bool"
        }
      ],
      "stateMutability": "view",
      "type": "function"
    },
    {
      "inputs": [
        {
          "internalType": "address",
          "name": "impl",
          "type": "address"
        }
      ],
      "name": "isInitialized",
      "outputs": [
        {
          "internalType": "bool",
          "name": "",
          "type": "bool"
        }
      ],
      "stateMutability": "view",
      "type": "function"
    },
    {
      "inputs": [],
      "name": "messageFee",
      "outputs": [
        {
          "internalType": "uint256",
          "name": "",
          "type": "uint256"
        }
      ],
      "stateMutability": "view",
      "type": "function"
    },
    {
      "inputs": [
        {
          "internalType": "address",
          "name": "emitter",
          "type": "address"
        }
      ],
      "name": "nextSequence",
      "outputs": [
        {
          "internalType": "uint64",
          "name": "",
          "type": "uint64"
        }
      ],
      "stateMutability": "view",
      "type": "function"
    }
  ],
  "bytecode": {
    "object": "0x608060405234801561001057600080fd5b506103d7806100206000396000f3fe608060405234801561001057600080fd5b50600436106100b45760003560e01c8063b172b22211610071578063b172b22214610191578063d60b347f14610199578063e039f224146101c5578063eb8d3f12146101cd578063f951975a146101e3578063fbe3c2cd1461020357600080fd5b80631a90a219146100b95780631cfe7951146100d05780632c3c02a4146100ef5780634cf842b51461012257806364d42b171461016e5780639a8a059214610176575b600080fd5b6007545b6040519081526020015b60405180910390f35b60035463ffffffff165b60405163ffffffff90911681526020016100c7565b6101126100fd3660046102c7565b60009081526005602052604090205460ff1690565b60405190151581526020016100c7565b6101556101303660046102e0565b6001600160a01b031660009081526004602052604090205467ffffffffffffffff1690565b60405167ffffffffffffffff90911681526020016100c7565b6008546100bd565b60005461ffff165b60405161ffff90911681526020016100c7565b6001546100bd565b6101126101a73660046102e0565b6001600160a01b031660009081526006602052604090205460ff1690565b610112610215565b600354640100000000900463ffffffff166100da565b6101f66101f1366004610310565b610228565b6040516100c79190610336565b60005462010000900461ffff1661017e565b60004661022160085490565b1415905090565b60408051808201825260608082526000602080840182905263ffffffff861682526002815290849020845181549283028101840186529485018281529394939092849284918401828280156102a657602002820191906000526020600020905b81546001600160a01b03168152600190910190602001808311610288575b50505091835250506001919091015463ffffffff1660209091015292915050565b6000602082840312156102d957600080fd5b5035919050565b6000602082840312156102f257600080fd5b81356001600160a01b038116811461030957600080fd5b9392505050565b60006020828403121561032257600080fd5b813563ffffffff8116811461030957600080fd5b6020808252825160408383015280516060840181905260009291820190839060808601905b808310156103845783516001600160a01b0316825292840192600192909201919084019061035b565b5063ffffffff84880151166040870152809450505050509291505056fea2646970667358221220235b60a98b288828445d9fd4a9b1caf650f339cb0fbed4d1a737961f5ba1575564736f6c63430008130033",
    "linkReferences": {}
  },
  "methodIdentifiers": {
    "chainId()": "9a8a0592",
    "evmChainId()": "64d42b17",
    "getCurrentGuardianSetIndex()": "1cfe7951",
    "getGuardianSet(uint32)": "f951975a",
    "getGuardianSetExpiry()": "eb8d3f12",
    "governanceActionIsConsumed(bytes32)": "2c3c02a4",
    "governanceChainId()": "fbe3c2cd",
    "governanceContract()": "b172b222",
    "isFork()": "e039f224",
    "isInitialized(address)": "d60b347f",
    "messageFee()": "1a90a219",
    "nextSequence(address)": "4cf842b5"
  },
  "id": 0
}