{
  "abi": [
    {
      "anonymous": false,
      "inputs": [
        {
          "indexed": false,
          "internalType": "address",
          "name": "previousAdmin",
          "type": "address"
        },
        {
          "indexed": false,
          "internalType": "address",
          "name": "newAdmin",
          "type": "address"
        }
      ],
      "name": "AdminChanged",
      "type": "event"
    },
    {
      "anonymous": false,
      "inputs": [
        {
          "indexed": true,
          "internalType": "address",
          "name": "beacon",
          "type": "address"
        }
      ],
      "name": "BeaconUpgraded",
      "type": "event"
    },
    {
      "anonymous": false,
      "inputs": [
        {
          "indexed": true,
          "internalType": "address",
          "name": "oldContract",
          "type": "address"
        },
        {
          "indexed": true,
          "internalType": "address",
          "name": "newContract",
          "type": "address"
        }
      ],
      "name": "ContractUpgraded",
      "type": "event"
    },
    {
      "anonymous": false,
      "inputs": [
        {
          "indexed": true,
          "internalType": "uint32",
          "name": "index",
          "type": "uint32"
        }
      ],
      "name": "GuardianSetAdded",
      "type": "event"
    },
    {
      "anonymous": false,
      "inputs": [
        {
          "indexed": true,
          "internalType": "address",
          "name": "sender",
          "type": "address"
        },
        {
          "indexed": false,
          "internalType": "uint64",
          "name": "sequence",
          "type": "uint64"
        },
        {
          "indexed": false,
          "internalType": "uint32",
          "name": "nonce",
          "type": "uint32"
        },
        {
          "indexed": false,
          "internalType": "bytes",
          "name": "payload",
          "type": "bytes"
        },
        {
          "indexed": false,
          "internalType": "uint8",
          "name": "consistencyLevel",
          "type": "uint8"
        }
      ],
      "name": "LogMessagePublished",
      "type": "event"
    },
    {
      "anonymous": false,
      "inputs": [
        {
          "indexed": true,
          "internalType": "address",
          "name": "implementation",
          "type": "address"
        }
      ],
      "name": "Upgraded",
      "type": "event"
    },
    {
      "stateMutability": "payable",
      "type": "fallback"
    },
    {
      "inputs": [],
      "name": "chainId",
      "outputs": [
        {
          "internalType": "uint16",
          "name": "",
          "type": "uint16"
        }
      ],
      "stateMutability": "view",
      "type": "function"
    },
    {
      "inputs": [],
      "name": "evmChainId",
      "outputs": [
        {
          "internalType": "uint256",
          "name": "",
          "type": "uint256"
        }
      ],
      "stateMutability": "view",
      "type": "function"
    },
    {
      "inputs": [],
      "name": "getCurrentGuardianSetIndex",
      "outputs": [
        {
          "internalType": "uint32",
          "name": "",
          "type": "uint32"
        }
      ],
      "stateMutability": "view",
      "type": "function"
    },
    {
      "inputs": [
        {
          "internalType": "uint32",
          "name": "index",
          "type": "uint32"
        }
      ],
      "name": "getGuardianSet",
      "outputs": [
        {
          "components": [
            {
              "internalType": "address[]",
              "name": "keys",
              "type": "address[]"
            },
            {
              "internalType": "uint32",
              "name": "expirationTime",
              "type": "uint32"
            }
          ],
          "internalType": "struct Structs.GuardianSet",
          "name": "",
          "type": "tuple"
        }
      ],
      "stateMutability": "view",
      "type": "function"
    },
    {
      "inputs": [],
      "name": "getGuardianSetExpiry",
      "outputs": [
        {
          "internalType": "uint32",
          "name": "",
          "type": "uint32"
        }
      ],
      "stateMutability": "view",
      "type": "function"
    },
    {
      "inputs": [
        {
          "internalType": "bytes32",
          "name": "hash",
          "type": "bytes32"
        }
      ],
      "name": "governanceActionIsConsumed",
      "outputs": [
        {
          "internalType": "bool",
          "name": "",
          "type": "bool"
        }
      ],
      "stateMutability": "view",
      "type": "function"
    },
    {
      "inputs": [],
      "name": "governanceChainId",
      "outputs": [
        {
          "internalType": "uint16",
          "name": "",
          "type": "uint16"
        }
      ],
      "stateMutability": "view",
      "type": "function"
    },
    {
      "inputs": [],
      "name": "governanceContract",
      "outputs": [
        {
          "internalType": "bytes32",
          "name": "",
          "type": "bytes32"
        }
      ],
      "stateMutability": "view",
      "type": "function"
    },
    {
      "inputs": [],
      "name": "initialize",
      "outputs": [],
      "stateMutability": "nonpayable",
      "type": "function"
    },
    {
      "inputs": [],
      "name": "isFork",
      "outputs": [
        {
          "internalType": "bool",
          "name": "",
          "type": "bool"
        }
      ],
      "stateMutability": "view",
      "type": "function"
    },
    {
      "inputs": [
        {
          "internalType": "address",
          "name": "impl",
          "type": "address"
        }
      ],
      "name": "isInitialized",
      "outputs": [
        {
          "internalType": "bool",
          "name": "",
          "type": "bool"
        }
      ],
      "stateMutability": "view",
      "type": "function"
    },
    {
      "inputs": [],
      "name": "messageFee",
      "outputs": [
        {
          "internalType": "uint256",
          "name": "",
          "type": "uint256"
        }
      ],
      "stateMutability": "view",
      "type": "function"
    },
    {
      "inputs": [
        {
          "internalType": "address",
          "name": "emitter",
          "type": "address"
        }
      ],
      "name": "nextSequence",
      "outputs": [
        {
          "internalType": "uint64",
          "name": "",
          "type": "uint64"
        }
      ],
      "stateMutability": "view",
      "type": "function"
    },
    {
      "inputs": [
        {
          "internalType": "bytes",
          "name": "encodedVM",
          "type": "bytes"
        }
      ],
      "name": "parseAndVerifyVM",
      "outputs": [
        {
          "components": [
            {
              "internalType": "uint8",
              "name": "version",
              "type": "uint8"
            },
            {
              "internalType": "uint32",
              "name": "timestamp",
              "type": "uint32"
            },
            {
              "internalType": "uint32",
              "name": "nonce",
              "type": "uint32"
            },
            {
              "internalType": "uint16",
              "name": "emitterChainId",
              "type": "uint16"
            },
            {
              "internalType": "bytes32",
              "name": "emitterAddress",
              "type": "bytes32"
            },
            {
              "internalType": "uint64",
              "name": "sequence",
              "type": "uint64"
            },
            {
              "internalType": "uint8",
              "name": "consistencyLevel",
              "type": "uint8"
            },
            {
              "internalType": "bytes",
              "name": "payload",
              "type": "bytes"
            },
            {
              "internalType": "uint32",
              "name": "guardianSetIndex",
              "type": "uint32"
            },
            {
              "components": [
                {
                  "internalType": "bytes32",
                  "name": "r",
                  "type": "bytes32"
                },
                {
                  "internalType": "bytes32",
                  "name": "s",
                  "type": "bytes32"
                },
                {
                  "internalType": "uint8",
                  "name": "v",
                  "type": "uint8"
                },
                {
                  "internalType": "uint8",
                  "name": "guardianIndex",
                  "type": "uint8"
                }
              ],
              "internalType": "struct Structs.Signature[]",
              "name": "signatures",
              "type": "tuple[]"
            },
            {
              "internalType": "bytes32",
              "name": "hash",
              "type": "bytes32"
            }
          ],
          "internalType": "struct Structs.VM",
          "name": "vm",
          "type": "tuple"
        },
        {
          "internalType": "bool",
          "name": "valid",
          "type": "bool"
        },
        {
          "internalType": "string",
          "name": "reason",
          "type": "string"
        }
      ],
      "stateMutability": "view",
      "type": "function"
    },
    {
      "inputs": [
        {
          "internalType": "bytes",
          "name": "encodedUpgrade",
          "type": "bytes"
        }
      ],
      "name": "parseContractUpgrade",
      "outputs": [
        {
          "components": [
            {
              "internalType": "bytes32",
              "name": "module",
              "type": "bytes32"
            },
            {
              "internalType": "uint8",
              "name": "action",
              "type": "uint8"
            },
            {
              "internalType": "uint16",
              "name": "chain",
              "type": "uint16"
            },
            {
              "internalType": "address",
              "name": "newContract",
              "type": "address"
            }
          ],
          "internalType": "struct GovernanceStructs.ContractUpgrade",
          "name": "cu",
          "type": "tuple"
        }
      ],
      "stateMutability": "pure",
      "type": "function"
    },
    {
      "inputs": [
        {
          "internalType": "bytes",
          "name": "encodedUpgrade",
          "type": "bytes"
        }
      ],
      "name": "parseGuardianSetUpgrade",
      "outputs": [
        {
          "components": [
            {
              "internalType": "bytes32",
              "name": "module",
              "type": "bytes32"
            },
            {
              "internalType": "uint8",
              "name": "action",
              "type": "uint8"
            },
            {
              "internalType": "uint16",
              "name": "chain",
              "type": "uint16"
            },
            {
              "components": [
                {
                  "internalType": "address[]",
                  "name": "keys",
                  "type": "address[]"
                },
                {
                  "internalType": "uint32",
                  "name": "expirationTime",
                  "type": "uint32"
                }
              ],
              "internalType": "struct Structs.GuardianSet",
              "name": "newGuardianSet",
              "type": "tuple"
            },
            {
              "internalType": "uint32",
              "name": "newGuardianSetIndex",
              "type": "uint32"
            }
          ],
          "internalType": "struct GovernanceStructs.GuardianSetUpgrade",
          "name": "gsu",
          "type": "tuple"
        }
      ],
      "stateMutability": "pure",
      "type": "function"
    },
    {
      "inputs": [
        {
          "internalType": "bytes",
          "name": "encodedRecoverChainId",
          "type": "bytes"
        }
      ],
      "name": "parseRecoverChainId",
      "outputs": [
        {
          "components": [
            {
              "internalType": "bytes32",
              "name": "module",
              "type": "bytes32"
            },
            {
              "internalType": "uint8",
              "name": "action",
              "type": "uint8"
            },
            {
              "internalType": "uint256",
              "name": "evmChainId",
              "type": "uint256"
            },
            {
              "internalType": "uint16",
              "name": "newChainId",
              "type": "uint16"
            }
          ],
          "internalType": "struct GovernanceStructs.RecoverChainId",
          "name": "rci",
          "type": "tuple"
        }
      ],
      "stateMutability": "pure",
      "type": "function"
    },
    {
      "inputs": [
        {
          "internalType": "bytes",
          "name": "encodedSetMessageFee",
          "type": "bytes"
        }
      ],
      "name": "parseSetMessageFee",
      "outputs": [
        {
          "components": [
            {
              "internalType": "bytes32",
              "name": "module",
              "type": "bytes32"
            },
            {
              "internalType": "uint8",
              "name": "action",
              "type": "uint8"
            },
            {
              "internalType": "uint16",
              "name": "chain",
              "type": "uint16"
            },
            {
              "internalType": "uint256",
              "name": "messageFee",
              "type": "uint256"
            }
          ],
          "internalType": "struct GovernanceStructs.SetMessageFee",
          "name": "smf",
          "type": "tuple"
        }
      ],
      "stateMutability": "pure",
      "type": "function"
    },
    {
      "inputs": [
        {
          "internalType": "bytes",
          "name": "encodedTransferFees",
          "type": "bytes"
        }
      ],
      "name": "parseTransferFees",
      "outputs": [
        {
          "components": [
            {
              "internalType": "bytes32",
              "name": "module",
              "type": "bytes32"
            },
            {
              "internalType": "uint8",
              "name": "action",
              "type": "uint8"
            },
            {
              "internalType": "uint16",
              "name": "chain",
              "type": "uint16"
            },
            {
              "internalType": "uint256",
              "name": "amount",
              "type": "uint256"
            },
            {
              "internalType": "bytes32",
              "name": "recipient",
              "type": "bytes32"
            }
          ],
          "internalType": "struct GovernanceStructs.TransferFees",
          "name": "tf",
          "type": "tuple"
        }
      ],
      "stateMutability": "pure",
      "type": "function"
    },
    {
      "inputs": [
        {
          "internalType": "bytes",
          "name": "encodedVM",
          "type": "bytes"
        }
      ],
      "name": "parseVM",
      "outputs": [
        {
          "components": [
            {
              "internalType": "uint8",
              "name": "version",
              "type": "uint8"
            },
            {
              "internalType": "uint32",
              "name": "timestamp",
              "type": "uint32"
            },
            {
              "internalType": "uint32",
              "name": "nonce",
              "type": "uint32"
            },
            {
              "internalType": "uint16",
              "name": "emitterChainId",
              "type": "uint16"
            },
            {
              "internalType": "bytes32",
              "name": "emitterAddress",
              "type": "bytes32"
            },
            {
              "internalType": "uint64",
              "name": "sequence",
              "type": "uint64"
            },
            {
              "internalType": "uint8",
              "name": "consistencyLevel",
              "type": "uint8"
            },
            {
              "internalType": "bytes",
              "name": "payload",
              "type": "bytes"
            },
            {
              "internalType": "uint32",
              "name": "guardianSetIndex",
              "type": "uint32"
            },
            {
              "components": [
                {
                  "internalType": "bytes32",
                  "name": "r",
                  "type": "bytes32"
                },
                {
                  "internalType": "bytes32",
                  "name": "s",
                  "type": "bytes32"
                },
                {
                  "internalType": "uint8",
                  "name": "v",
                  "type": "uint8"
                },
                {
                  "internalType": "uint8",
                  "name": "guardianIndex",
                  "type": "uint8"
                }
              ],
              "internalType": "struct Structs.Signature[]",
              "name": "signatures",
              "type": "tuple[]"
            },
            {
              "internalType": "bytes32",
              "name": "hash",
              "type": "bytes32"
            }
          ],
          "internalType": "struct Structs.VM",
          "name": "vm",
          "type": "tuple"
        }
      ],
      "stateMutability": "pure",
      "type": "function"
    },
    {
      "inputs": [
        {
          "internalType": "uint32",
          "name": "nonce",
          "type": "uint32"
        },
        {
          "internalType": "bytes",
          "name": "payload",
          "type": "bytes"
        },
        {
          "internalType": "uint8",
          "name": "consistencyLevel",
          "type": "uint8"
        }
      ],
      "name": "publishMessage",
      "outputs": [
        {
          "internalType": "uint64",
          "name": "sequence",
          "type": "uint64"
        }
      ],
      "stateMutability": "payable",
      "type": "function"
    },
    {
      "inputs": [
        {
          "internalType": "uint256",
          "name": "numGuardians",
          "type": "uint256"
        }
      ],
      "name": "quorum",
      "outputs": [
        {
          "internalType": "uint256",
          "name": "numSignaturesRequiredForQuorum",
          "type": "uint256"
        }
      ],
      "stateMutability": "pure",
      "type": "function"
    },
    {
      "inputs": [
        {
          "internalType": "bytes",
          "name": "_vm",
          "type": "bytes"
        }
      ],
      "name": "submitContractUpgrade",
      "outputs": [],
      "stateMutability": "nonpayable",
      "type": "function"
    },
    {
      "inputs": [
        {
          "internalType": "bytes",
          "name": "_vm",
          "type": "bytes"
        }
      ],
      "name": "submitNewGuardianSet",
      "outputs": [],
      "stateMutability": "nonpayable",
      "type": "function"
    },
    {
      "inputs": [
        {
          "internalType": "bytes",
          "name": "_vm",
          "type": "bytes"
        }
      ],
      "name": "submitRecoverChainId",
      "outputs": [],
      "stateMutability": "nonpayable",
      "type": "function"
    },
    {
      "inputs": [
        {
          "internalType": "bytes",
          "name": "_vm",
          "type": "bytes"
        }
      ],
      "name": "submitSetMessageFee",
      "outputs": [],
      "stateMutability": "nonpayable",
      "type": "function"
    },
    {
      "inputs": [
        {
          "internalType": "bytes",
          "name": "_vm",
          "type": "bytes"
        }
      ],
      "name": "submitTransferFees",
      "outputs": [],
      "stateMutability": "nonpayable",
      "type": "function"
    },
    {
      "inputs": [
        {
          "internalType": "bytes32",
          "name": "hash",
          "type": "bytes32"
        },
        {
          "components": [
            {
              "internalType": "bytes32",
              "name": "r",
              "type": "bytes32"
            },
            {
              "internalType": "bytes32",
              "name": "s",
              "type": "bytes32"
            },
            {
              "internalType": "uint8",
              "name": "v",
              "type": "uint8"
            },
            {
              "internalType": "uint8",
              "name": "guardianIndex",
              "type": "uint8"
            }
          ],
          "internalType": "struct Structs.Signature[]",
          "name": "signatures",
          "type": "tuple[]"
        },
        {
          "components": [
            {
              "internalType": "address[]",
              "name": "keys",
              "type": "address[]"
            },
            {
              "internalType": "uint32",
              "name": "expirationTime",
              "type": "uint32"
            }
          ],
          "internalType": "struct Structs.GuardianSet",
          "name": "guardianSet",
          "type": "tuple"
        }
      ],
      "name": "verifySignatures",
      "outputs": [
        {
          "internalType": "bool",
          "name": "valid",
          "type": "bool"
        },
        {
          "internalType": "string",
          "name": "reason",
          "type": "string"
        }
      ],
      "stateMutability": "pure",
      "type": "function"
    },
    {
      "inputs": [
        {
          "components": [
            {
              "internalType": "uint8",
              "name": "version",
              "type": "uint8"
            },
            {
              "internalType": "uint32",
              "name": "timestamp",
              "type": "uint32"
            },
            {
              "internalType": "uint32",
              "name": "nonce",
              "type": "uint32"
            },
            {
              "internalType": "uint16",
              "name": "emitterChainId",
              "type": "uint16"
            },
            {
              "internalType": "bytes32",
              "name": "emitterAddress",
              "type": "bytes32"
            },
            {
              "internalType": "uint64",
              "name": "sequence",
              "type": "uint64"
            },
            {
              "internalType": "uint8",
              "name": "consistencyLevel",
              "type": "uint8"
            },
            {
              "internalType": "bytes",
              "name": "payload",
              "type": "bytes"
            },
            {
              "internalType": "uint32",
              "name": "guardianSetIndex",
              "type": "uint32"
            },
            {
              "components": [
                {
                  "internalType": "bytes32",
                  "name": "r",
                  "type": "bytes32"
                },
                {
                  "internalType": "bytes32",
                  "name": "s",
                  "type": "bytes32"
                },
                {
                  "internalType": "uint8",
                  "name": "v",
                  "type": "uint8"
                },
                {
                  "internalType": "uint8",
                  "name": "guardianIndex",
                  "type": "uint8"
                }
              ],
              "internalType": "struct Structs.Signature[]",
              "name": "signatures",
              "type": "tuple[]"
            },
            {
              "internalType": "bytes32",
              "name": "hash",
              "type": "bytes32"
            }
          ],
          "internalType": "struct Structs.VM",
          "name": "vm",
          "type": "tuple"
        }
      ],
      "name": "verifyVM",
      "outputs": [
        {
          "internalType": "bool",
          "name": "valid",
          "type": "bool"
        },
        {
          "internalType": "string",
          "name": "reason",
          "type": "string"
        }
      ],
      "stateMutability": "view",
      "type": "function"
    },
    {
      "stateMutability": "payable",
      "type": "receive"
    }
  ],
  "bytecode": {
    "object": "0x608060405234801561001057600080fd5b5061381f806100206000396000f3fe6080604052600436106101c65760003560e01c806393df337e116100f7578063cb4cfea811610095578063f42bc64111610064578063f42bc64114610712578063f8ce560a14610732578063f951975a14610752578063fbe3c2cd1461077f5761022d565b8063cb4cfea814610647578063d60b347f146106a1578063e039f224146106da578063eb8d3f12146106ef5761022d565b8063a9e11893116100d1578063a9e11893146105c3578063b172b222146105f0578063b19a437e14610605578063c0fd8bde146106185761022d565b806393df337e1461055b5780639a8a05921461057b578063a0cce1b3146105a35761022d565b80634fdc60fa1161016457806364d42b171161013e57806364d42b17146104e35780636606b4e0146104f85780638129fc1c14610518578063875be02a1461052d5761022d565b80634fdc60fa14610406578063515f3247146104695780635cb8cae2146104c35761022d565b80631a90a219116101a05780631a90a219146103245780631cfe7951146103435780632c3c02a41461036f5780634cf842b5146103af5761022d565b80630319e59c1461026357806304ca84cf146102d5578063178149e7146103025761022d565b3661022d5760405162461bcd60e51b815260206004820152602c60248201527f74686520576f726d686f6c6520636f6e747261637420646f6573206e6f74206160448201526b63636570742061737365747360a01b60648201526084015b60405180910390fd5b60405162461bcd60e51b815260206004820152600b60248201526a1d5b9cdd5c1c1bdc9d195960aa1b6044820152606401610224565b34801561026f57600080fd5b5061028361027e366004612de7565b61079e565b6040516102cc9190600060a0820190508251825260ff602084015116602083015261ffff6040840151166040830152606083015160608301526080830151608083015292915050565b60405180910390f35b3480156102e157600080fd5b506102f56102f0366004612de7565b6108f4565b6040516102cc9190612e82565b34801561030e57600080fd5b5061032261031d366004612de7565b610b0b565b005b34801561033057600080fd5b506007545b6040519081526020016102cc565b34801561034f57600080fd5b5060035463ffffffff165b60405163ffffffff90911681526020016102cc565b34801561037b57600080fd5b5061039f61038a366004612edf565b60009081526005602052604090205460ff1690565b60405190151581526020016102cc565b3480156103bb57600080fd5b506103ee6103ca366004612f0f565b6001600160a01b03166000908152600460205260409020546001600160401b031690565b6040516001600160401b0390911681526020016102cc565b34801561041257600080fd5b50610426610421366004612de7565b610c44565b6040516102cc91908151815260208083015160ff169082015260408083015161ffff16908201526060918201516001600160a01b03169181019190915260800190565b34801561047557600080fd5b50610489610484366004612de7565b610d80565b6040516102cc91908151815260208083015160ff169082015260408083015161ffff16908201526060918201519181019190915260800190565b3480156104cf57600080fd5b506103226104de366004612de7565b610eaf565b3480156104ef57600080fd5b50600854610335565b34801561050457600080fd5b50610322610513366004612de7565b610ff4565b34801561052457600080fd5b50610322611204565b34801561053957600080fd5b5061054d610548366004613053565b61148b565b6040516102cc9291906131c7565b34801561056757600080fd5b50610322610576366004612de7565b6114a4565b34801561058757600080fd5b5060005461ffff165b60405161ffff90911681526020016102cc565b3480156105af57600080fd5b5061054d6105be3660046131e2565b6115e0565b3480156105cf57600080fd5b506105e36105de366004612de7565b61185b565b6040516102cc919061343e565b3480156105fc57600080fd5b50600154610335565b6103ee610613366004613451565b611bf3565b34801561062457600080fd5b506106386106333660046134ae565b611c93565b6040516102cc9392919061351f565b34801561065357600080fd5b50610667610662366004612de7565b611cf7565b6040516102cc91908151815260208083015160ff16908201526040808301519082015260609182015161ffff169181019190915260800190565b3480156106ad57600080fd5b5061039f6106bc366004612f0f565b6001600160a01b031660009081526006602052604090205460ff1690565b3480156106e657600080fd5b5061039f611e28565b3480156106fb57600080fd5b50600354640100000000900463ffffffff1661035a565b34801561071e57600080fd5b5061032261072d366004612de7565b611e3b565b34801561073e57600080fd5b5061033561074d366004612edf565b611f4d565b34801561075e57600080fd5b5061077261076d366004613556565b611fbd565b6040516102cc9190613571565b34801561078b57600080fd5b5060005462010000900461ffff16610590565b6040805160a0810182526000808252602082018190529181018290526060810182905260808101829052906107d3838261205c565b82526107e060208261359a565b90506107ec83826120ba565b60ff1660208301526107ff60018261359a565b9050816020015160ff1660041461084f5760405162461bcd60e51b8152602060048201526014602482015273696e76616c6964205472616e736665724665657360601b6044820152606401610224565b6108598382612116565b61ffff16604083015261086d60028261359a565b90506108798382612173565b606083015261088960208261359a565b9050610895838261205c565b60808301526108a560208261359a565b9050808351146108ee5760405162461bcd60e51b8152602060048201526014602482015273696e76616c6964205472616e736665724665657360601b6044820152606401610224565b50919050565b6108fc612b96565b6000610908838261205c565b825261091560208261359a565b905061092183826120ba565b60ff16602083015261093460018261359a565b9050816020015160ff1660021461098d5760405162461bcd60e51b815260206004820152601a60248201527f696e76616c696420477561726469616e536574557067726164650000000000006044820152606401610224565b6109978382612116565b61ffff1660408301526109ab60028261359a565b90506109b783826121c8565b63ffffffff1660808301526109cd60048261359a565b905060006109db84836120ba565b90506109e860018361359a565b915060405180604001604052808260ff166001600160401b03811115610a1057610a10612cc5565b604051908082528060200260200182016040528015610a39578160200160208202803683370190505b5081526000602090910181905260608501919091525b8160ff16811015610ab357610a648584612225565b606085015151805183908110610a7c57610a7c6135ad565b6001600160a01b0390921660209283029190910190910152610a9f60148461359a565b925080610aab816135c3565b915050610a4f565b5081845114610b045760405162461bcd60e51b815260206004820152601a60248201527f696e76616c696420477561726469616e536574557067726164650000000000006044820152606401610224565b5050919050565b610b13611e28565b610b4c5760405162461bcd60e51b815260206004820152600a6024820152696e6f74206120666f726b60b01b6044820152606401610224565b6000610b578261185b565b9050600080610b658361228a565b91509150818190610b895760405162461bcd60e51b815260040161022491906135dc565b506000610b998460e00151611cf7565b805190915063436f726514610bc05760405162461bcd60e51b8152600401610224906135ef565b46816040015114610c075760405162461bcd60e51b815260206004820152601160248201527034b73b30b634b21022ab269021b430b4b760791b6044820152606401610224565b610c15846101400151612400565b610c22816040015161241b565b60608101516000805461ffff191661ffff9092169190911790555b5050505050565b604080516080810182526000808252602082018190529181018290526060810182905290610c72838261205c565b8252610c7f60208261359a565b9050610c8b83826120ba565b60ff166020830152610c9e60018261359a565b9050816020015160ff16600114610cf15760405162461bcd60e51b8152602060048201526017602482015276696e76616c696420436f6e74726163745570677261646560481b6044820152606401610224565b610cfb8382612116565b61ffff166040830152610d0f60028261359a565b9050610d1b838261205c565b6001600160a01b03166060830152610d3460208261359a565b9050808351146108ee5760405162461bcd60e51b8152602060048201526017602482015276696e76616c696420436f6e74726163745570677261646560481b6044820152606401610224565b604080516080810182526000808252602082018190529181018290526060810182905290610dae838261205c565b8252610dbb60208261359a565b9050610dc783826120ba565b60ff166020830152610dda60018261359a565b9050816020015160ff16600314610e2b5760405162461bcd60e51b8152602060048201526015602482015274696e76616c6964205365744d65737361676546656560581b6044820152606401610224565b610e358382612116565b61ffff166040830152610e4960028261359a565b9050610e558382612173565b6060830152610e6560208261359a565b9050808351146108ee5760405162461bcd60e51b8152602060048201526015602482015274696e76616c6964205365744d65737361676546656560581b6044820152606401610224565b610eb7611e28565b15610ef35760405162461bcd60e51b815260206004820152600c60248201526b696e76616c696420666f726b60a01b6044820152606401610224565b6000610efe8261185b565b9050600080610f0c8361228a565b91509150818190610f305760405162461bcd60e51b815260040161022491906135dc565b506000610f408460e00151610c44565b805190915063436f726514610f885760405162461bcd60e51b815260206004820152600e60248201526d496e76616c6964204d6f64756c6560901b6044820152606401610224565b60005461ffff1661ffff16816040015161ffff1614610fd95760405162461bcd60e51b815260206004820152600d60248201526c24b73b30b634b21021b430b4b760991b6044820152606401610224565b610fe7846101400151612400565b610c3d8160600151612464565b6000610fff8261185b565b905060008061100d8361228a565b915091508181906110315760405162461bcd60e51b815260040161022491906135dc565b5060006110418460e001516108f4565b805190915063436f7265146110685760405162461bcd60e51b8152600401610224906135ef565b60005461ffff1661ffff16816040015161ffff1614801561108e575061108c611e28565b155b8061109f5750604081015161ffff16155b6110db5760405162461bcd60e51b815260206004820152600d60248201526c34b73b30b634b21021b430b4b760991b6044820152606401610224565b6060810151515161112e5760405162461bcd60e51b815260206004820152601960248201527f6e657720677561726469616e2073657420697320656d707479000000000000006044820152606401610224565b60035463ffffffff16611142906001613617565b63ffffffff16816080015163ffffffff16146111aa5760405162461bcd60e51b815260206004820152602160248201527f696e646578206d75737420696e63726561736520696e207374657073206f66206044820152603160f81b6064820152608401610224565b6111b8846101400151612400565b6111cf6111ca60035463ffffffff1690565b612591565b6111e1816060015182608001516125c9565b60808101516003805463ffffffff191663ffffffff909216919091179055610c3d565b60006112377f360894a13ba1a3210667c828492db98dca3e2076cc3735a920a3ca505d382bbc546001600160a01b031690565b905061125b816001600160a01b031660009081526006602052604090205460ff1690565b1561129e5760405162461bcd60e51b8152602060048201526013602482015272185b1c9958591e481a5b9a5d1a585b1a5e9959606a1b6044820152606401610224565b6112c6816001600160a01b03166000908152600660205260409020805460ff19166001179055565b600854600003611488576000806112e060005461ffff1690565b90508061ffff166002036112f7576001915061147c565b8061ffff1660040361130c576038915061147c565b8061ffff16600503611321576089915061147c565b8061ffff166006036113375761a86a915061147c565b8061ffff1660070361134d5761a516915061147c565b8061ffff1660090361136557634e454152915061147c565b8061ffff16600a0361137a5760fa915061147c565b8061ffff16600b03611390576102ae915061147c565b8061ffff16600c036113a657610313915061147c565b8061ffff16600d036113bc57612019915061147c565b8061ffff16600e036113d25761a4ec915061147c565b8061ffff166010036113e857610504915061147c565b8061ffff1660110361140057630e9ac0d6915061147c565b8061ffff166017036114165761a4b1915061147c565b8061ffff1660180361142b57600a915061147c565b8061ffff16601903611440576064915061147c565b60405162461bcd60e51b81526020600482015260116024820152702ab735b737bbb71031b430b4b71034b21760791b6044820152606401610224565b6114858261241b565b50505b50565b6000606061149a8360016126a3565b9094909350915050565b60006114af8261185b565b90506000806114bd8361228a565b915091508181906114e15760405162461bcd60e51b815260040161022491906135dc565b5060006114f18460e0015161079e565b805190915063436f7265146115185760405162461bcd60e51b8152600401610224906135ef565b60005461ffff1661ffff16816040015161ffff1614801561153e575061153c611e28565b155b8061154f5750604081015161ffff16155b61158b5760405162461bcd60e51b815260206004820152600d60248201526c34b73b30b634b21021b430b4b760991b6044820152606401610224565b611599846101400151612400565b608081015160608201516040516001600160a01b0383169180156108fc02916000818181858888f193505050501580156115d7573d6000803e3d6000fd5b50505050505050565b8051516000906060908290815b865181101561183957600087828151811061160a5761160a6135ad565b60200260200101519050600060018a8360400151846000015185602001516040516000815260200160405260405161165e949392919093845260ff9290921660208401526040830152606082015260800190565b6020604051602081039080840390855afa158015611680573d6000803e3d6000fd5b5050604051601f1901519150506001600160a01b0381166116e35760405162461bcd60e51b815260206004820152601f60248201527f65637265636f766572206661696c65642077697468207369676e6174757265006044820152606401610224565b8215806116f957508460ff16826060015160ff16115b6117515760405162461bcd60e51b815260206004820152602360248201527f7369676e617475726520696e6469636573206d75737420626520617363656e64604482015262696e6760e81b6064820152608401610224565b6060820151945060ff851684116117aa5760405162461bcd60e51b815260206004820152601c60248201527f677561726469616e20696e646578206f7574206f6620626f756e6473000000006044820152606401610224565b8760000151826060015160ff16815181106117c7576117c76135ad565b60200260200101516001600160a01b0316816001600160a01b031614611824576000604051806040016040528060148152602001731593481cda59db985d1d5c99481a5b9d985b1a5960621b815250965096505050505050611853565b50508080611831906135c3565b9150506115ed565b506001604051806020016040528060008152509350935050505b935093915050565b611863612bf0565b600061186f83826120ba565b60ff16825261187f60018261359a565b9050816000015160ff166001146118d85760405162461bcd60e51b815260206004820152601760248201527f564d2076657273696f6e20696e636f6d70617469626c650000000000000000006044820152606401610224565b6118e283826121c8565b63ffffffff166101008301526118f960048261359a565b9050600061190784836120ba565b60ff16905061191760018361359a565b9150806001600160401b0381111561193157611931612cc5565b60405190808252806020026020018201604052801561198357816020015b60408051608081018252600080825260208083018290529282018190526060820152825260001990920191018161194f5790505b5061012084015260005b81811015611aba5761199f85846120ba565b84610120015182815181106119b6576119b66135ad565b602090810291909101015160ff9091166060909101526119d760018461359a565b92506119e3858461205c565b84610120015182815181106119fa576119fa6135ad565b60200260200101516000018181525050602083611a17919061359a565b9250611a23858461205c565b8461012001518281518110611a3a57611a3a6135ad565b60200260200101516020018181525050602083611a57919061359a565b9250611a6385846120ba565b611a6e90601b61363b565b8461012001518281518110611a8557611a856135ad565b602090810291909101015160ff909116604090910152611aa660018461359a565b925080611ab2816135c3565b91505061198d565b506000611ad683848751611ace9190613654565b8791906128d7565b90508080519060200120604051602001611af291815260200190565b60408051601f198184030181529190528051602090910120610140850152611b1a85846121c8565b63ffffffff166020850152611b3060048461359a565b9250611b3c85846121c8565b63ffffffff166040850152611b5260048461359a565b9250611b5e8584612116565b61ffff166060850152611b7260028461359a565b9250611b7e858461205c565b6080850152611b8e60208461359a565b9250611b9a85846129e4565b6001600160401b031660a0850152611bb360088461359a565b9250611bbf85846120ba565b60ff1660c0850152611bd260018461359a565b9250611be583848751611ace9190613654565b60e085015250919392505050565b6000611bfe60075490565b3414611c3a5760405162461bcd60e51b815260206004820152600b60248201526a696e76616c69642066656560a81b6044820152606401610224565b611c4333612a41565b9050336001600160a01b03167f6eb224fb001ed210e379b335e35efe88672a8ce935d981a6896b27ffdf52a3b282868686604051611c849493929190613667565b60405180910390a29392505050565b611c9b612bf0565b60006060611cde85858080601f01602080910402602001604051908101604052809392919081815260200183838082843760009201919091525061185b92505050565b9250611ceb8360006126a3565b93969095509293505050565b604080516080810182526000808252602082018190529181018290526060810182905290611d25838261205c565b8252611d3260208261359a565b9050611d3e83826120ba565b60ff166020830152611d5160018261359a565b9050816020015160ff16600514611da35760405162461bcd60e51b81526020600482015260166024820152751a5b9d985b1a5908149958dbdd995c90da185a5b925960521b6044820152606401610224565b611dad8382612173565b6040830152611dbd60208261359a565b9050611dc98382612116565b61ffff166060830152611ddd60028261359a565b9050808351146108ee5760405162461bcd60e51b81526020600482015260166024820152751a5b9d985b1a5908149958dbdd995c90da185a5b925960521b6044820152606401610224565b600046611e3460085490565b1415905090565b6000611e468261185b565b9050600080611e548361228a565b91509150818190611e785760405162461bcd60e51b815260040161022491906135dc565b506000611e888460e00151610d80565b805190915063436f726514611ed05760405162461bcd60e51b815260206004820152600e60248201526d496e76616c6964204d6f64756c6560901b6044820152606401610224565b60005461ffff1661ffff16816040015161ffff16148015611ef65750611ef4611e28565b155b611f325760405162461bcd60e51b815260206004820152600d60248201526c24b73b30b634b21021b430b4b760991b6044820152606401610224565b611f40846101400151612400565b610c3d8160600151600755565b60006101008210611f955760405162461bcd60e51b8152602060048201526012602482015271746f6f206d616e7920677561726469616e7360701b6044820152606401610224565b6003611fa28360026136a9565b611fac91906136c0565b611fb790600161359a565b92915050565b60408051808201825260608082526000602080840182905263ffffffff8616825260028152908490208451815492830281018401865294850182815293949390928492849184018282801561203b57602002820191906000526020600020905b81546001600160a01b0316815260019091019060200180831161201d575b50505091835250506001919091015463ffffffff1660209091015292915050565b600061206982602061359a565b835110156120b15760405162461bcd60e51b8152602060048201526015602482015274746f427974657333325f6f75744f66426f756e647360581b6044820152606401610224565b50016020015190565b60006120c782600161359a565b8351101561210d5760405162461bcd60e51b8152602060048201526013602482015272746f55696e74385f6f75744f66426f756e647360681b6044820152606401610224565b50016001015190565b600061212382600261359a565b8351101561216a5760405162461bcd60e51b8152602060048201526014602482015273746f55696e7431365f6f75744f66426f756e647360601b6044820152606401610224565b50016002015190565b600061218082602061359a565b835110156120b15760405162461bcd60e51b8152602060048201526015602482015274746f55696e743235365f6f75744f66426f756e647360581b6044820152606401610224565b60006121d582600461359a565b8351101561221c5760405162461bcd60e51b8152602060048201526014602482015273746f55696e7433325f6f75744f66426f756e647360601b6044820152606401610224565b50016004015190565b600061223282601461359a565b8351101561227a5760405162461bcd60e51b8152602060048201526015602482015274746f416464726573735f6f75744f66426f756e647360581b6044820152606401610224565b500160200151600160601b900490565b6000606060008061229a8561148b565b91509150816122af5760009590945092505050565b60035463ffffffff1663ffffffff1685610100015163ffffffff16146122f55760006040518060600160405280602281526020016137a660229139935093505050915091565b60005462010000900461ffff1661ffff16856060015161ffff1614612350576000604051806040016040528060168152602001753bb937b7339033b7bb32b93730b731b29031b430b4b760511b815250935093505050915091565b6001548560800151146123a05760006040518060400160405280601981526020017f77726f6e6720676f7665726e616e636520636f6e747261637400000000000000815250935093505050915091565b61014085015160009081526005602052604090205460ff16156123e35760006040518060600160405280602281526020016137c860229139935093505050915091565b600160405180602001604052806000815250935093505050915091565b6000908152600560205260409020805460ff19166001179055565b46811461245f5760405162461bcd60e51b81526020600482015260126024820152711a5b9d985b1a5908195d9b50da185a5b925960721b6044820152606401610224565b600855565b60006124977f360894a13ba1a3210667c828492db98dca3e2076cc3735a920a3ca505d382bbc546001600160a01b031690565b90506124a282612ab1565b60408051600481526024810182526020810180516001600160e01b031663204a7f0760e21b179052905160009182916001600160a01b038616916124e5916136e2565b600060405180830381855af49150503d8060008114612520576040519150601f19603f3d011682016040523d82523d6000602084013e612525565b606091505b509150915081819061254a5760405162461bcd60e51b815260040161022491906135dc565b50836001600160a01b0316836001600160a01b03167f2e4cc16c100f0b55e2df82ab0b1a7e294aa9cbd01b48fbaf622683fbc0507a4960405160405180910390a350505050565b61259e4262015180613617565b63ffffffff9182166000908152600260205260409020600101805463ffffffff191691909216179055565b81515160005b8181101561264d578351805160009190839081106125ef576125ef6135ad565b60200260200101516001600160a01b03160361263b5760405162461bcd60e51b815260206004820152600b60248201526a496e76616c6964206b657960a81b6044820152606401610224565b80612645816135c3565b9150506125cf565b5063ffffffff8216600090815260026020908152604090912084518051869361267a928492910190612c4b565b50602091909101516001909101805463ffffffff191663ffffffff909216919091179055505050565b6000606060006126b7856101000151611fbd565b9050831561278d57602080860151604080880151606089015160808a015160a08b015160c08c015160e08d015195516000986126f5989791016136fe565b60405160208183030381529060405290506000818051906020012060405160200161272291815260200190565b604051602081830303815290604052805190602001209050866101400151811461278a5760006040518060400160405280601a81526020017f766d2e6861736820646f65736e2774206d6174636820626f6479000000000000815250945094505050506128d0565b50505b8051516000036127cd5750506040805180820190915260148152731a5b9d985b1a590819dd585c991a585b881cd95d60621b6020820152600091506128d0565b60035463ffffffff1663ffffffff1685610100015163ffffffff16141580156127ff575042816020015163ffffffff16105b1561284357505060408051808201909152601881527f677561726469616e2073657420686173206578706972656400000000000000006020820152600091506128d0565b80515161284f90611f4d565b8561012001515110156128875750506040805180820190915260098152686e6f2071756f72756d60b81b6020820152600091506128d0565b60008061289f876101400151886101200151856115e0565b91509150816128b6576000945092506128d0915050565b600160405180602001604052806000815250945094505050505b9250929050565b6060816128e581601f61359a565b10156129245760405162461bcd60e51b815260206004820152600e60248201526d736c6963655f6f766572666c6f7760901b6044820152606401610224565b61292e828461359a565b845110156129725760405162461bcd60e51b8152602060048201526011602482015270736c6963655f6f75744f66426f756e647360781b6044820152606401610224565b60608215801561299157604051915060008252602082016040526129db565b6040519150601f8416801560200281840101858101878315602002848b0101015b818310156129ca5780518352602092830192016129b2565b5050858452601f01601f1916604052505b50949350505050565b60006129f182600861359a565b83511015612a385760405162461bcd60e51b8152602060048201526014602482015273746f55696e7436345f6f75744f66426f756e647360601b6044820152606401610224565b50016008015190565b6001600160a01b0381166000908152600460205260409020546001600160401b0316612aac82612a72836001613785565b6001600160a01b03919091166000908152600460205260409020805467ffffffffffffffff19166001600160401b03909216919091179055565b919050565b612aba81612af1565b6040516001600160a01b038216907fbc7cd75a20ee27fd9adebab32041f755214dbc6bffa90cc0225b39da2e5c2d3b90600090a250565b803b612b555760405162461bcd60e51b815260206004820152602d60248201527f455243313936373a206e657720696d706c656d656e746174696f6e206973206e60448201526c1bdd08184818dbdb9d1c9858dd609a1b6064820152608401610224565b7f360894a13ba1a3210667c828492db98dca3e2076cc3735a920a3ca505d382bbc80546001600160a01b0319166001600160a01b0392909216919091179055565b6040518060a0016040528060008019168152602001600060ff168152602001600061ffff168152602001612be3604051806040016040528060608152602001600063ffffffff1681525090565b8152600060209091015290565b604080516101608101825260008082526020820181905291810182905260608082018390526080820183905260a0820183905260c0820183905260e08201819052610100820183905261012082015261014081019190915290565b828054828255906000526020600020908101928215612ca0579160200282015b82811115612ca057825182546001600160a01b0319166001600160a01b03909116178255602090920191600190910190612c6b565b50612cac929150612cb0565b5090565b5b80821115612cac5760008155600101612cb1565b634e487b7160e01b600052604160045260246000fd5b604051608081016001600160401b0381118282101715612cfd57612cfd612cc5565b60405290565b60405161016081016001600160401b0381118282101715612cfd57612cfd612cc5565b604080519081016001600160401b0381118282101715612cfd57612cfd612cc5565b604051601f8201601f191681016001600160401b0381118282101715612d7057612d70612cc5565b604052919050565b600082601f830112612d8957600080fd5b81356001600160401b03811115612da257612da2612cc5565b612db5601f8201601f1916602001612d48565b818152846020838601011115612dca57600080fd5b816020850160208301376000918101602001919091529392505050565b600060208284031215612df957600080fd5b81356001600160401b03811115612e0f57600080fd5b612e1b84828501612d78565b949350505050565b805160408084528151908401819052600091602091908201906060860190845b81811015612e685783516001600160a01b031683529284019291840191600101612e43565b50509382015163ffffffff16949091019390935250919050565b602081528151602082015260ff602083015116604082015261ffff60408301511660608201526000606083015160a06080840152612ec360c0840182612e23565b905063ffffffff60808501511660a08401528091505092915050565b600060208284031215612ef157600080fd5b5035919050565b80356001600160a01b0381168114612aac57600080fd5b600060208284031215612f2157600080fd5b612f2a82612ef8565b9392505050565b803560ff81168114612aac57600080fd5b803563ffffffff81168114612aac57600080fd5b803561ffff81168114612aac57600080fd5b80356001600160401b0381168114612aac57600080fd5b60006001600160401b03821115612f9857612f98612cc5565b5060051b60200190565b600082601f830112612fb357600080fd5b81356020612fc8612fc383612f7f565b612d48565b82815260079290921b84018101918181019086841115612fe757600080fd5b8286015b8481101561304857608081890312156130045760008081fd5b61300c612cdb565b8135815284820135858201526040613025818401612f31565b908201526060613036838201612f31565b90820152835291830191608001612feb565b509695505050505050565b60006020828403121561306557600080fd5b81356001600160401b038082111561307c57600080fd5b90830190610160828603121561309157600080fd5b613099612d03565b6130a283612f31565b81526130b060208401612f42565b60208201526130c160408401612f42565b60408201526130d260608401612f56565b6060820152608083013560808201526130ed60a08401612f68565b60a08201526130fe60c08401612f31565b60c082015260e08301358281111561311557600080fd5b61312187828601612d78565b60e083015250610100613135818501612f42565b90820152610120838101358381111561314d57600080fd5b61315988828701612fa2565b91830191909152506101409283013592810192909252509392505050565b60005b8381101561319257818101518382015260200161317a565b50506000910152565b600081518084526131b3816020860160208601613177565b601f01601f19169290920160200192915050565b8215158152604060208201526000612e1b604083018461319b565b6000806000606084860312156131f757600080fd5b833592506020808501356001600160401b038082111561321657600080fd5b61322288838901612fa2565b9450604087013591508082111561323857600080fd5b908601906040828903121561324c57600080fd5b613254612d26565b82358281111561326357600080fd5b83019150601f8201891361327657600080fd5b8135613284612fc382612f7f565b81815260059190911b8301850190858101908b8311156132a357600080fd5b938601935b828510156132c8576132b985612ef8565b825293860193908601906132a8565b8352506132d89050838501612f42565b84820152809450505050509250925092565b600081518084526020808501945080840160005b8381101561334357815180518852838101518489015260408082015160ff908116918a01919091526060918201511690880152608090960195908201906001016132fe565b509495945050505050565b805160ff16825260006101606020830151613371602086018263ffffffff169052565b506040830151613389604086018263ffffffff169052565b50606083015161339f606086018261ffff169052565b506080830151608085015260a08301516133c460a08601826001600160401b03169052565b5060c08301516133d960c086018260ff169052565b5060e08301518160e08601526133f18286018261319b565b9150506101008084015161340c8287018263ffffffff169052565b5050610120808401518583038287015261342683826132ea565b61014095860151969095019590955250919392505050565b602081526000612f2a602083018461334e565b60008060006060848603121561346657600080fd5b61346f84612f42565b925060208401356001600160401b0381111561348a57600080fd5b61349686828701612d78565b9250506134a560408501612f31565b90509250925092565b600080602083850312156134c157600080fd5b82356001600160401b03808211156134d857600080fd5b818501915085601f8301126134ec57600080fd5b8135818111156134fb57600080fd5b86602082850101111561350d57600080fd5b60209290920196919550909350505050565b606081526000613532606083018661334e565b8415156020840152828103604084015261354c818561319b565b9695505050505050565b60006020828403121561356857600080fd5b612f2a82612f42565b602081526000612f2a6020830184612e23565b634e487b7160e01b600052601160045260246000fd5b80820180821115611fb757611fb7613584565b634e487b7160e01b600052603260045260246000fd5b6000600182016135d5576135d5613584565b5060010190565b602081526000612f2a602083018461319b565b6020808252600e908201526d696e76616c6964204d6f64756c6560901b604082015260600190565b63ffffffff81811683821601908082111561363457613634613584565b5092915050565b60ff8181168382160190811115611fb757611fb7613584565b81810381811115611fb757611fb7613584565b6001600160401b038516815263ffffffff84166020820152608060408201526000613695608083018561319b565b905060ff8316606083015295945050505050565b8082028115828204841417611fb757611fb7613584565b6000826136dd57634e487b7160e01b600052601260045260246000fd5b500490565b600082516136f4818460208701613177565b9190910192915050565b6001600160e01b031960e089811b8216835288901b1660048201526001600160f01b031960f087901b166008820152600a81018590526001600160c01b031960c085901b16602a8201526001600160f81b031960f884901b1660328201528151600090613772816033850160208701613177565b9190910160330198975050505050505050565b6001600160401b038181168382160190808211156136345761363461358456fe6e6f74207369676e65642062792063757272656e7420677561726469616e20736574676f7665726e616e636520616374696f6e20616c726561647920636f6e73756d6564a26469706673582212205d5882e1f3c291261b1e6d945d34d01ec6821cbee679e060e12fe0f9b5f8706c64736f6c63430008130033",
    "linkReferences": {}
  },
  "methodIdentifiers": {
    "chainId()": "9a8a0592",
    "evmChainId()": "64d42b17",
    "getCurrentGuardianSetIndex()": "1cfe7951",
    "getGuardianSet(uint32)": "f951975a",
    "getGuardianSetExpiry()": "eb8d3f12",
    "governanceActionIsConsumed(bytes32)": "2c3c02a4",
    "governanceChainId()": "fbe3c2cd",
    "governanceContract()": "b172b222",
    "initialize()": "8129fc1c",
    "isFork()": "e039f224",
    "isInitialized(address)": "d60b347f",
    "messageFee()": "1a90a219",
    "nextSequence(address)": "4cf842b5",
    "parseAndVerifyVM(bytes)": "c0fd8bde",
    "parseContractUpgrade(bytes)": "4fdc60fa",
    "parseGuardianSetUpgrade(bytes)": "04ca84cf",
    "parseRecoverChainId(bytes)": "cb4cfea8",
    "parseSetMessageFee(bytes)": "515f3247",
    "parseTransferFees(bytes)": "0319e59c",
    "parseVM(bytes)": "a9e11893",
    "publishMessage(uint32,bytes,uint8)": "b19a437e",
    "quorum(uint256)": "f8ce560a",
    "submitContractUpgrade(bytes)": "5cb8cae2",
    "submitNewGuardianSet(bytes)": "6606b4e0",
    "submitRecoverChainId(bytes)": "178149e7",
    "submitSetMessageFee(bytes)": "f42bc641",
    "submitTransferFees(bytes)": "93df337e",
    "verifySignatures(bytes32,(bytes32,bytes32,uint8,uint8)[],(address[],uint32))": "a0cce1b3",
    "verifyVM((uint8,uint32,uint32,uint16,bytes32,uint64,uint8,bytes,uint32,(bytes32,bytes32,uint8,uint8)[],bytes32))": "875be02a"
  },
  "id": 3
}