{
  "abi": [
    {
      "anonymous": false,
      "inputs": [
        {
          "indexed": false,
          "internalType": "address",
          "name": "previousAdmin",
          "type": "address"
        },
        {
          "indexed": false,
          "internalType": "address",
          "name": "newAdmin",
          "type": "address"
        }
      ],
      "name": "AdminChanged",
      "type": "event"
    },
    {
      "anonymous": false,
      "inputs": [
        {
          "indexed": true,
          "internalType": "address",
          "name": "beacon",
          "type": "address"
        }
      ],
      "name": "BeaconUpgraded",
      "type": "event"
    },
    {
      "anonymous": false,
      "inputs": [
        {
          "indexed": true,
          "internalType": "address",
          "name": "oldContract",
          "type": "address"
        },
        {
          "indexed": true,
          "internalType": "address",
          "name": "newContract",
          "type": "address"
        }
      ],
      "name": "ContractUpgraded",
      "type": "event"
    },
    {
      "anonymous": false,
      "inputs": [
        {
          "indexed": true,
          "internalType": "address",
          "name": "implementation",
          "type": "address"
        }
      ],
      "name": "Upgraded",
      "type": "event"
    },
    {
      "inputs": [],
      "name": "WETH",
      "outputs": [
        {
          "internalType": "contract IWETH",
          "name": "",
          "type": "address"
        }
      ],
      "stateMutability": "view",
      "type": "function"
    },
    {
      "inputs": [
        {
          "internalType": "bytes",
          "name": "encoded",
          "type": "bytes"
        }
      ],
      "name": "_parseTransferCommon",
      "outputs": [
        {
          "components": [
            {
              "internalType": "uint8",
              "name": "payloadID",
              "type": "uint8"
            },
            {
              "internalType": "uint256",
              "name": "amount",
              "type": "uint256"
            },
            {
              "internalType": "bytes32",
              "name": "tokenAddress",
              "type": "bytes32"
            },
            {
              "internalType": "uint16",
              "name": "tokenChain",
              "type": "uint16"
            },
            {
              "internalType": "bytes32",
              "name": "to",
              "type": "bytes32"
            },
            {
              "internalType": "uint16",
              "name": "toChain",
              "type": "uint16"
            },
            {
              "internalType": "uint256",
              "name": "fee",
              "type": "uint256"
            }
          ],
          "internalType": "struct BridgeStructs.Transfer",
          "name": "transfer",
          "type": "tuple"
        }
      ],
      "stateMutability": "pure",
      "type": "function"
    },
    {
      "inputs": [
        {
          "internalType": "address",
          "name": "tokenAddress",
          "type": "address"
        },
        {
          "internalType": "uint32",
          "name": "nonce",
          "type": "uint32"
        }
      ],
      "name": "attestToken",
      "outputs": [
        {
          "internalType": "uint64",
          "name": "sequence",
          "type": "uint64"
        }
      ],
      "stateMutability": "payable",
      "type": "function"
    },
    {
      "inputs": [
        {
          "internalType": "uint16",
          "name": "chainId_",
          "type": "uint16"
        }
      ],
      "name": "bridgeContracts",
      "outputs": [
        {
          "internalType": "bytes32",
          "name": "",
          "type": "bytes32"
        }
      ],
      "stateMutability": "view",
      "type": "function"
    },
    {
      "inputs": [],
      "name": "chainId",
      "outputs": [
        {
          "internalType": "uint16",
          "name": "",
          "type": "uint16"
        }
      ],
      "stateMutability": "view",
      "type": "function"
    },
    {
      "inputs": [
        {
          "internalType": "bytes",
          "name": "encodedVm",
          "type": "bytes"
        }
      ],
      "name": "completeTransfer",
      "outputs": [],
      "stateMutability": "nonpayable",
      "type": "function"
    },
    {
      "inputs": [
        {
          "internalType": "bytes",
          "name": "encodedVm",
          "type": "bytes"
        }
      ],
      "name": "completeTransferAndUnwrapETH",
      "outputs": [],
      "stateMutability": "nonpayable",
      "type": "function"
    },
    {
      "inputs": [
        {
          "internalType": "bytes",
          "name": "encodedVm",
          "type": "bytes"
        }
      ],
      "name": "completeTransferAndUnwrapETHWithPayload",
      "outputs": [
        {
          "internalType": "bytes",
          "name": "",
          "type": "bytes"
        }
      ],
      "stateMutability": "nonpayable",
      "type": "function"
    },
    {
      "inputs": [
        {
          "internalType": "bytes",
          "name": "encodedVm",
          "type": "bytes"
        }
      ],
      "name": "completeTransferWithPayload",
      "outputs": [
        {
          "internalType": "bytes",
          "name": "",
          "type": "bytes"
        }
      ],
      "stateMutability": "nonpayable",
      "type": "function"
    },
    {
      "inputs": [
        {
          "internalType": "bytes",
          "name": "encodedVm",
          "type": "bytes"
        }
      ],
      "name": "createWrapped",
      "outputs": [
        {
          "internalType": "address",
          "name": "token",
          "type": "address"
        }
      ],
      "stateMutability": "nonpayable",
      "type": "function"
    },
    {
      "inputs": [
        {
          "components": [
            {
              "internalType": "uint8",
              "name": "payloadID",
              "type": "uint8"
            },
            {
              "internalType": "bytes32",
              "name": "tokenAddress",
              "type": "bytes32"
            },
            {
              "internalType": "uint16",
              "name": "tokenChain",
              "type": "uint16"
            },
            {
              "internalType": "uint8",
              "name": "decimals",
              "type": "uint8"
            },
            {
              "internalType": "bytes32",
              "name": "symbol",
              "type": "bytes32"
            },
            {
              "internalType": "bytes32",
              "name": "name",
              "type": "bytes32"
            }
          ],
          "internalType": "struct BridgeStructs.AssetMeta",
          "name": "meta",
          "type": "tuple"
        }
      ],
      "name": "encodeAssetMeta",
      "outputs": [
        {
          "internalType": "bytes",
          "name": "encoded",
          "type": "bytes"
        }
      ],
      "stateMutability": "pure",
      "type": "function"
    },
    {
      "inputs": [
        {
          "components": [
            {
              "internalType": "uint8",
              "name": "payloadID",
              "type": "uint8"
            },
            {
              "internalType": "uint256",
              "name": "amount",
              "type": "uint256"
            },
            {
              "internalType": "bytes32",
              "name": "tokenAddress",
              "type": "bytes32"
            },
            {
              "internalType": "uint16",
              "name": "tokenChain",
              "type": "uint16"
            },
            {
              "internalType": "bytes32",
              "name": "to",
              "type": "bytes32"
            },
            {
              "internalType": "uint16",
              "name": "toChain",
              "type": "uint16"
            },
            {
              "internalType": "uint256",
              "name": "fee",
              "type": "uint256"
            }
          ],
          "internalType": "struct BridgeStructs.Transfer",
          "name": "transfer",
          "type": "tuple"
        }
      ],
      "name": "encodeTransfer",
      "outputs": [
        {
          "internalType": "bytes",
          "name": "encoded",
          "type": "bytes"
        }
      ],
      "stateMutability": "pure",
      "type": "function"
    },
    {
      "inputs": [
        {
          "components": [
            {
              "internalType": "uint8",
              "name": "payloadID",
              "type": "uint8"
            },
            {
              "internalType": "uint256",
              "name": "amount",
              "type": "uint256"
            },
            {
              "internalType": "bytes32",
              "name": "tokenAddress",
              "type": "bytes32"
            },
            {
              "internalType": "uint16",
              "name": "tokenChain",
              "type": "uint16"
            },
            {
              "internalType": "bytes32",
              "name": "to",
              "type": "bytes32"
            },
            {
              "internalType": "uint16",
              "name": "toChain",
              "type": "uint16"
            },
            {
              "internalType": "bytes32",
              "name": "fromAddress",
              "type": "bytes32"
            },
            {
              "internalType": "bytes",
              "name": "payload",
              "type": "bytes"
            }
          ],
          "internalType": "struct BridgeStructs.TransferWithPayload",
          "name": "transfer",
          "type": "tuple"
        }
      ],
      "name": "encodeTransferWithPayload",
      "outputs": [
        {
          "internalType": "bytes",
          "name": "encoded",
          "type": "bytes"
        }
      ],
      "stateMutability": "pure",
      "type": "function"
    },
    {
      "inputs": [],
      "name": "evmChainId",
      "outputs": [
        {
          "internalType": "uint256",
          "name": "",
          "type": "uint256"
        }
      ],
      "stateMutability": "view",
      "type": "function"
    },
    {
      "inputs": [],
      "name": "finality",
      "outputs": [
        {
          "internalType": "uint8",
          "name": "",
          "type": "uint8"
        }
      ],
      "stateMutability": "view",
      "type": "function"
    },
    {
      "inputs": [
        {
          "internalType": "bytes32",
          "name": "hash",
          "type": "bytes32"
        }
      ],
      "name": "governanceActionIsConsumed",
      "outputs": [
        {
          "internalType": "bool",
          "name": "",
          "type": "bool"
        }
      ],
      "stateMutability": "view",
      "type": "function"
    },
    {
      "inputs": [],
      "name": "governanceChainId",
      "outputs": [
        {
          "internalType": "uint16",
          "name": "",
          "type": "uint16"
        }
      ],
      "stateMutability": "view",
      "type": "function"
    },
    {
      "inputs": [],
      "name": "governanceContract",
      "outputs": [
        {
          "internalType": "bytes32",
          "name": "",
          "type": "bytes32"
        }
      ],
      "stateMutability": "view",
      "type": "function"
    },
    {
      "inputs": [],
      "name": "implementation",
      "outputs": [
        {
          "internalType": "address",
          "name": "",
          "type": "address"
        }
      ],
      "stateMutability": "view",
      "type": "function"
    },
    {
      "inputs": [],
      "name": "initialize",
      "outputs": [],
      "stateMutability": "nonpayable",
      "type": "function"
    },
    {
      "inputs": [],
      "name": "isFork",
      "outputs": [
        {
          "internalType": "bool",
          "name": "",
          "type": "bool"
        }
      ],
      "stateMutability": "view",
      "type": "function"
    },
    {
      "inputs": [
        {
          "internalType": "address",
          "name": "impl",
          "type": "address"
        }
      ],
      "name": "isInitialized",
      "outputs": [
        {
          "internalType": "bool",
          "name": "",
          "type": "bool"
        }
      ],
      "stateMutability": "view",
      "type": "function"
    },
    {
      "inputs": [
        {
          "internalType": "bytes32",
          "name": "hash",
          "type": "bytes32"
        }
      ],
      "name": "isTransferCompleted",
      "outputs": [
        {
          "internalType": "bool",
          "name": "",
          "type": "bool"
        }
      ],
      "stateMutability": "view",
      "type": "function"
    },
    {
      "inputs": [
        {
          "internalType": "address",
          "name": "token",
          "type": "address"
        }
      ],
      "name": "isWrappedAsset",
      "outputs": [
        {
          "internalType": "bool",
          "name": "",
          "type": "bool"
        }
      ],
      "stateMutability": "view",
      "type": "function"
    },
    {
      "inputs": [
        {
          "internalType": "address",
          "name": "token",
          "type": "address"
        }
      ],
      "name": "outstandingBridged",
      "outputs": [
        {
          "internalType": "uint256",
          "name": "",
          "type": "uint256"
        }
      ],
      "stateMutability": "view",
      "type": "function"
    },
    {
      "inputs": [
        {
          "internalType": "bytes",
          "name": "encoded",
          "type": "bytes"
        }
      ],
      "name": "parseAssetMeta",
      "outputs": [
        {
          "components": [
            {
              "internalType": "uint8",
              "name": "payloadID",
              "type": "uint8"
            },
            {
              "internalType": "bytes32",
              "name": "tokenAddress",
              "type": "bytes32"
            },
            {
              "internalType": "uint16",
              "name": "tokenChain",
              "type": "uint16"
            },
            {
              "internalType": "uint8",
              "name": "decimals",
              "type": "uint8"
            },
            {
              "internalType": "bytes32",
              "name": "symbol",
              "type": "bytes32"
            },
            {
              "internalType": "bytes32",
              "name": "name",
              "type": "bytes32"
            }
          ],
          "internalType": "struct BridgeStructs.AssetMeta",
          "name": "meta",
          "type": "tuple"
        }
      ],
      "stateMutability": "pure",
      "type": "function"
    },
    {
      "inputs": [
        {
          "internalType": "bytes",
          "name": "encoded",
          "type": "bytes"
        }
      ],
      "name": "parsePayloadID",
      "outputs": [
        {
          "internalType": "uint8",
          "name": "payloadID",
          "type": "uint8"
        }
      ],
      "stateMutability": "pure",
      "type": "function"
    },
    {
      "inputs": [
        {
          "internalType": "bytes",
          "name": "encodedRecoverChainId",
          "type": "bytes"
        }
      ],
      "name": "parseRecoverChainId",
      "outputs": [
        {
          "components": [
            {
              "internalType": "bytes32",
              "name": "module",
              "type": "bytes32"
            },
            {
              "internalType": "uint8",
              "name": "action",
              "type": "uint8"
            },
            {
              "internalType": "uint256",
              "name": "evmChainId",
              "type": "uint256"
            },
            {
              "internalType": "uint16",
              "name": "newChainId",
              "type": "uint16"
            }
          ],
          "internalType": "struct BridgeStructs.RecoverChainId",
          "name": "rci",
          "type": "tuple"
        }
      ],
      "stateMutability": "pure",
      "type": "function"
    },
    {
      "inputs": [
        {
          "internalType": "bytes",
          "name": "encoded",
          "type": "bytes"
        }
      ],
      "name": "parseRegisterChain",
      "outputs": [
        {
          "components": [
            {
              "internalType": "bytes32",
              "name": "module",
              "type": "bytes32"
            },
            {
              "internalType": "uint8",
              "name": "action",
              "type": "uint8"
            },
            {
              "internalType": "uint16",
              "name": "chainId",
              "type": "uint16"
            },
            {
              "internalType": "uint16",
              "name": "emitterChainID",
              "type": "uint16"
            },
            {
              "internalType": "bytes32",
              "name": "emitterAddress",
              "type": "bytes32"
            }
          ],
          "internalType": "struct BridgeStructs.RegisterChain",
          "name": "chain",
          "type": "tuple"
        }
      ],
      "stateMutability": "pure",
      "type": "function"
    },
    {
      "inputs": [
        {
          "internalType": "bytes",
          "name": "encoded",
          "type": "bytes"
        }
      ],
      "name": "parseTransfer",
      "outputs": [
        {
          "components": [
            {
              "internalType": "uint8",
              "name": "payloadID",
              "type": "uint8"
            },
            {
              "internalType": "uint256",
              "name": "amount",
              "type": "uint256"
            },
            {
              "internalType": "bytes32",
              "name": "tokenAddress",
              "type": "bytes32"
            },
            {
              "internalType": "uint16",
              "name": "tokenChain",
              "type": "uint16"
            },
            {
              "internalType": "bytes32",
              "name": "to",
              "type": "bytes32"
            },
            {
              "internalType": "uint16",
              "name": "toChain",
              "type": "uint16"
            },
            {
              "internalType": "uint256",
              "name": "fee",
              "type": "uint256"
            }
          ],
          "internalType": "struct BridgeStructs.Transfer",
          "name": "transfer",
          "type": "tuple"
        }
      ],
      "stateMutability": "pure",
      "type": "function"
    },
    {
      "inputs": [
        {
          "internalType": "bytes",
          "name": "encoded",
          "type": "bytes"
        }
      ],
      "name": "parseTransferWithPayload",
      "outputs": [
        {
          "components": [
            {
              "internalType": "uint8",
              "name": "payloadID",
              "type": "uint8"
            },
            {
              "internalType": "uint256",
              "name": "amount",
              "type": "uint256"
            },
            {
              "internalType": "bytes32",
              "name": "tokenAddress",
              "type": "bytes32"
            },
            {
              "internalType": "uint16",
              "name": "tokenChain",
              "type": "uint16"
            },
            {
              "internalType": "bytes32",
              "name": "to",
              "type": "bytes32"
            },
            {
              "internalType": "uint16",
              "name": "toChain",
              "type": "uint16"
            },
            {
              "internalType": "bytes32",
              "name": "fromAddress",
              "type": "bytes32"
            },
            {
              "internalType": "bytes",
              "name": "payload",
              "type": "bytes"
            }
          ],
          "internalType": "struct BridgeStructs.TransferWithPayload",
          "name": "transfer",
          "type": "tuple"
        }
      ],
      "stateMutability": "pure",
      "type": "function"
    },
    {
      "inputs": [
        {
          "internalType": "bytes",
          "name": "encoded",
          "type": "bytes"
        }
      ],
      "name": "parseUpgrade",
      "outputs": [
        {
          "components": [
            {
              "internalType": "bytes32",
              "name": "module",
              "type": "bytes32"
            },
            {
              "internalType": "uint8",
              "name": "action",
              "type": "uint8"
            },
            {
              "internalType": "uint16",
              "name": "chainId",
              "type": "uint16"
            },
            {
              "internalType": "bytes32",
              "name": "newContract",
              "type": "bytes32"
            }
          ],
          "internalType": "struct BridgeStructs.UpgradeContract",
          "name": "chain",
          "type": "tuple"
        }
      ],
      "stateMutability": "pure",
      "type": "function"
    },
    {
      "inputs": [
        {
          "internalType": "bytes",
          "name": "encodedVM",
          "type": "bytes"
        }
      ],
      "name": "registerChain",
      "outputs": [],
      "stateMutability": "nonpayable",
      "type": "function"
    },
    {
      "inputs": [
        {
          "internalType": "bytes",
          "name": "encodedVM",
          "type": "bytes"
        }
      ],
      "name": "submitRecoverChainId",
      "outputs": [],
      "stateMutability": "nonpayable",
      "type": "function"
    },
    {
      "inputs": [],
      "name": "testNewImplementationActive",
      "outputs": [
        {
          "internalType": "bool",
          "name": "",
          "type": "bool"
        }
      ],
      "stateMutability": "pure",
      "type": "function"
    },
    {
      "inputs": [
        {
          "internalType": "uint16",
          "name": "fakeChainId",
          "type": "uint16"
        },
        {
          "internalType": "uint256",
          "name": "fakeEvmChainId",
          "type": "uint256"
        }
      ],
      "name": "testOverwriteEVMChainId",
      "outputs": [],
      "stateMutability": "nonpayable",
      "type": "function"
    },
    {
      "inputs": [
        {
          "internalType": "address",
          "name": "WETH",
          "type": "address"
        }
      ],
      "name": "testUpdateWETHAddress",
      "outputs": [],
      "stateMutability": "nonpayable",
      "type": "function"
    },
    {
      "inputs": [],
      "name": "tokenImplementation",
      "outputs": [
        {
          "internalType": "address",
          "name": "",
          "type": "address"
        }
      ],
      "stateMutability": "view",
      "type": "function"
    },
    {
      "inputs": [
        {
          "internalType": "address",
          "name": "token",
          "type": "address"
        },
        {
          "internalType": "uint256",
          "name": "amount",
          "type": "uint256"
        },
        {
          "internalType": "uint16",
          "name": "recipientChain",
          "type": "uint16"
        },
        {
          "internalType": "bytes32",
          "name": "recipient",
          "type": "bytes32"
        },
        {
          "internalType": "uint256",
          "name": "arbiterFee",
          "type": "uint256"
        },
        {
          "internalType": "uint32",
          "name": "nonce",
          "type": "uint32"
        }
      ],
      "name": "transferTokens",
      "outputs": [
        {
          "internalType": "uint64",
          "name": "sequence",
          "type": "uint64"
        }
      ],
      "stateMutability": "payable",
      "type": "function"
    },
    {
      "inputs": [
        {
          "internalType": "address",
          "name": "token",
          "type": "address"
        },
        {
          "internalType": "uint256",
          "name": "amount",
          "type": "uint256"
        },
        {
          "internalType": "uint16",
          "name": "recipientChain",
          "type": "uint16"
        },
        {
          "internalType": "bytes32",
          "name": "recipient",
          "type": "bytes32"
        },
        {
          "internalType": "uint32",
          "name": "nonce",
          "type": "uint32"
        },
        {
          "internalType": "bytes",
          "name": "payload",
          "type": "bytes"
        }
      ],
      "name": "transferTokensWithPayload",
      "outputs": [
        {
          "internalType": "uint64",
          "name": "sequence",
          "type": "uint64"
        }
      ],
      "stateMutability": "payable",
      "type": "function"
    },
    {
      "inputs": [
        {
          "internalType": "bytes",
          "name": "encodedVm",
          "type": "bytes"
        }
      ],
      "name": "updateWrapped",
      "outputs": [
        {
          "internalType": "address",
          "name": "token",
          "type": "address"
        }
      ],
      "stateMutability": "nonpayable",
      "type": "function"
    },
    {
      "inputs": [
        {
          "internalType": "bytes",
          "name": "encodedVM",
          "type": "bytes"
        }
      ],
      "name": "upgrade",
      "outputs": [],
      "stateMutability": "nonpayable",
      "type": "function"
    },
    {
      "inputs": [],
      "name": "wormhole",
      "outputs": [
        {
          "internalType": "contract IWormhole",
          "name": "",
          "type": "address"
        }
      ],
      "stateMutability": "view",
      "type": "function"
    },
    {
      "inputs": [
        {
          "internalType": "uint16",
          "name": "recipientChain",
          "type": "uint16"
        },
        {
          "internalType": "bytes32",
          "name": "recipient",
          "type": "bytes32"
        },
        {
          "internalType": "uint256",
          "name": "arbiterFee",
          "type": "uint256"
        },
        {
          "internalType": "uint32",
          "name": "nonce",
          "type": "uint32"
        }
      ],
      "name": "wrapAndTransferETH",
      "outputs": [
        {
          "internalType": "uint64",
          "name": "sequence",
          "type": "uint64"
        }
      ],
      "stateMutability": "payable",
      "type": "function"
    },
    {
      "inputs": [
        {
          "internalType": "uint16",
          "name": "recipientChain",
          "type": "uint16"
        },
        {
          "internalType": "bytes32",
          "name": "recipient",
          "type": "bytes32"
        },
        {
          "internalType": "uint32",
          "name": "nonce",
          "type": "uint32"
        },
        {
          "internalType": "bytes",
          "name": "payload",
          "type": "bytes"
        }
      ],
      "name": "wrapAndTransferETHWithPayload",
      "outputs": [
        {
          "internalType": "uint64",
          "name": "sequence",
          "type": "uint64"
        }
      ],
      "stateMutability": "payable",
      "type": "function"
    },
    {
      "inputs": [
        {
          "internalType": "uint16",
          "name": "tokenChainId",
          "type": "uint16"
        },
        {
          "internalType": "bytes32",
          "name": "tokenAddress",
          "type": "bytes32"
        }
      ],
      "name": "wrappedAsset",
      "outputs": [
        {
          "internalType": "address",
          "name": "",
          "type": "address"
        }
      ],
      "stateMutability": "view",
      "type": "function"
    },
    {
      "stateMutability": "payable",
      "type": "receive"
    }
  ],
  "bytecode": {
    "object": "0x608060405234801561001057600080fd5b506001600d55615a12806100256000396000f3fe608060405260043610620002b75760003560e01c8063ad5c4648116200016b578063c687851911620000d1578063e89bc4011162000084578063e89bc4011462000a48578063ea63738d1462000a6d578063f768441f1462000aa1578063fbe3c2cd1462000ac6578063fbeeacd91462000ae7578063ff200cde1462000b4757600080fd5b8063c68785191462000924578063cb4cfea81462000949578063d56e2e2414620009a9578063d60b347f14620009ce578063e039f2241462000a0b578063e80598101462000a2357600080fd5b8063b96c7e4d116200012a578063b96c7e4d1462000845578063bee9cdfc146200087f578063c054a2e01462000896578063c3f511c114620008d1578063c48fa11514620008f6578063c5a5ebda146200090d57600080fd5b8063ad5c46481462000777578063ad66a5f11462000797578063b046223b14620007cc578063b172b22214620007f1578063b6268146146200080857600080fd5b80632c3c02a4116200021d5780638129fc1c11620001d05780638129fc1c14620006a557806384acd1bb14620006bd5780639981509f14620006dd5780639a8a059214620006f4578063a5799f93146200071e578063aa4efa5b146200074357600080fd5b80632c3c02a414620005d15780632f3a3d5d14620006055780635c60da1b14620006255780635f854266146200063d57806364d42b171462000662578063739fc8d1146200068357600080fd5b80631a2be4da11620002765780631a2be4da146200044d5780631c8475e4146200049b5780631f8cdb2b14620004cf5780631ff1e28614620004e55780632539464514620005235780632b511375146200054857600080fd5b806301f5325514620002c457806307dfd8fb14620003425780630f50900814620003be5780630f5287b014620003f6578063178149e7146200042657600080fd5b36620002bf57005b600080fd5b348015620002d157600080fd5b50620002e9620002e33660046200445e565b62000b6c565b604051620003399190600060a0820190508251825260ff6020840151166020830152604083015161ffff808216604085015280606086015116606085015250506080830151608083015292915050565b60405180910390f35b3480156200034f57600080fd5b5062000367620003613660046200445e565b62000ce8565b604051620003399190600060c08201905060ff83511682526020830151602083015261ffff604084015116604083015260ff60608401511660608301526080830151608083015260a083015160a083015292915050565b348015620003cb57600080fd5b50620003e3620003dd3660046200445e565b62000e77565b60405160ff909116815260200162000339565b6200040d62000407366004620044e4565b62000e8b565b6040516001600160401b03909116815260200162000339565b3480156200043357600080fd5b506200044b620004453660046200445e565b62000f2e565b005b3480156200045a57600080fd5b506200048a6200046c36600462004550565b6001600160a01b031660009081526009602052604090205460ff1690565b604051901515815260200162000339565b348015620004a857600080fd5b50620004c0620004ba3660046200445e565b6200104a565b604051620003399190620045c2565b348015620004dc57600080fd5b5060016200048a565b348015620004f257600080fd5b506200050a62000504366004620045d7565b62001059565b6040516001600160a01b03909116815260200162000339565b3480156200053057600080fd5b506200044b620005423660046200445e565b62001085565b3480156200055557600080fd5b506200056d620005673660046200445e565b62001195565b604051620003399190600060e08201905060ff83511682526020830151602083015260408301516040830152606083015161ffff8082166060850152608085015160808501528060a08601511660a0850152505060c083015160c083015292915050565b348015620005de57600080fd5b506200048a620005f036600462004606565b60009081526005602052604090205460ff1690565b3480156200061257600080fd5b506001546001600160a01b03166200050a565b3480156200063257600080fd5b506200050a62001306565b3480156200064a57600080fd5b50620004c06200065c3660046200463d565b62001320565b3480156200066f57600080fd5b50600c545b60405190815260200162000339565b3480156200069057600080fd5b50600254640100000000900460ff16620003e3565b348015620006b257600080fd5b506200044b620013b5565b348015620006ca57600080fd5b506000546001600160a01b03166200050a565b6200040d620006ee366004620046e4565b6200147f565b3480156200070157600080fd5b5060025461ffff165b60405161ffff909116815260200162000339565b3480156200072b57600080fd5b506200044b6200073d3660046200445e565b620014bf565b3480156200075057600080fd5b506200048a6200076236600462004606565b60009081526006602052604090205460ff1690565b3480156200078457600080fd5b506004546001600160a01b03166200050a565b348015620007a457600080fd5b5062000674620007b636600462004733565b61ffff166000908152600b602052604090205490565b348015620007d957600080fd5b50620004c0620007eb36600462004753565b6200162b565b348015620007fe57600080fd5b5060035462000674565b3480156200081557600080fd5b506200044b6200082736600462004550565b600480546001600160a01b0319166001600160a01b03831617905550565b3480156200085257600080fd5b50620006746200086436600462004550565b6001600160a01b03166000908152600a602052604090205490565b6200040d62000890366004620047ee565b620016a4565b348015620008a357600080fd5b506200044b620008b5366004620045d7565b6002805461ffff191661ffff9390931692909217909155600c55565b348015620008de57600080fd5b50620004c0620008f03660046200445e565b620016d7565b6200040d6200090736600462004861565b620016e6565b6200040d6200091e3660046200489d565b620019fb565b3480156200093157600080fd5b506200044b620009433660046200445e565b62001a89565b3480156200095657600080fd5b506200096e620009683660046200445e565b62001a9a565b6040516200033991908151815260208083015160ff16908201526040808301519082015260609182015161ffff169181019190915260800190565b348015620009b657600080fd5b50620004c0620009c83660046200492b565b62001b99565b348015620009db57600080fd5b506200048a620009ed36600462004550565b6001600160a01b031660009081526007602052604090205460ff1690565b34801562000a1857600080fd5b506200048a62001bdc565b34801562000a3057600080fd5b506200050a62000a423660046200445e565b62001bf0565b34801562000a5557600080fd5b506200056d62000a673660046200445e565b62001cf5565b34801562000a7a57600080fd5b5062000a9262000a8c3660046200445e565b62001dff565b60405162000339919062004a01565b34801562000aae57600080fd5b506200050a62000ac03660046200445e565b62001f7c565b34801562000ad357600080fd5b5060025462010000900461ffff166200070a565b34801562000af457600080fd5b5062000b0c62000b063660046200445e565b62002081565b6040516200033991908151815260208083015160ff169082015260408083015161ffff16908201526060918201519181019190915260800190565b34801562000b5457600080fd5b506200044b62000b663660046200445e565b62002180565b6040805160a08101825260008082526020820181905291810182905260608101829052608081018290529062000ba383826200218d565b825262000bb260208262004a92565b82519091506a546f6b656e4272696467651462000bec5760405162461bcd60e51b815260040162000be39062004aa8565b60405180910390fd5b62000bf88382620021ef565b60ff16602083015262000c0d60018262004a92565b9050816020015160ff1660011462000c395760405162461bcd60e51b815260040162000be39062004ace565b62000c4583826200224f565b61ffff16604083015262000c5b60028262004a92565b905062000c6983826200224f565b61ffff16606083015262000c7f60028262004a92565b905062000c8d83826200218d565b608083015262000c9f60208262004a92565b90508083511462000ce25760405162461bcd60e51b815260206004820152600c60248201526b0eee4dedcce40d8cadccee8d60a31b604482015260640162000be3565b50919050565b6040805160c081018252600080825260208201819052918101829052606081018290526080810182905260a081018290529062000d268382620021ef565b60ff16825262000d3860018262004a92565b9050816000015160ff1660021462000d875760405162461bcd60e51b8152602060048201526011602482015270696e76616c69642041737365744d65746160781b604482015260640162000be3565b62000d9383826200218d565b60208084019190915262000da8908262004a92565b905062000db683826200224f565b61ffff16604083015262000dcc60028262004a92565b905062000dda8382620021ef565b60ff16606083015262000def60018262004a92565b905062000dfd83826200218d565b608083015262000e0f60208262004a92565b905062000e1d83826200218d565b60a083015262000e2f60208262004a92565b90508083511462000ce25760405162461bcd60e51b8152602060048201526011602482015270696e76616c69642041737365744d65746160781b604482015260640162000be3565b600062000e858282620021ef565b92915050565b60006002600d540362000ee15760405162461bcd60e51b815260206004820152601f60248201527f5265656e7472616e637947756172643a207265656e7472616e742063616c6c00604482015260640162000be3565b6002600d55600062000ef5888886620022b0565b905062000f1d8160000151826020015183604001518989866060015187608001518a6200273e565b6001600d5598975050505050505050565b62000f3862001bdc565b62000f735760405162461bcd60e51b815260206004820152600a6024820152696e6f74206120666f726b60b01b604482015260640162000be3565b600080600062000f838462002862565b92509250925081819062000fac5760405162461bcd60e51b815260040162000be39190620045c2565b5062000fbd83610140015162002a81565b600062000fce8460e0015162001a9a565b905046816040015114620010195760405162461bcd60e51b815260206004820152601160248201527034b73b30b634b21022ab269021b430b4b760791b604482015260640162000be3565b62001028816040015162002a9c565b60608101516002805461ffff191661ffff9092169190911790555b5050505050565b606062000e8582600162002ae7565b61ffff91909116600090815260086020908152604080832093835292905220546001600160a01b031690565b6200108f62001bdc565b15620010cd5760405162461bcd60e51b815260206004820152600c60248201526b696e76616c696420666f726b60a01b604482015260640162000be3565b6000806000620010dd8462002862565b925092509250818190620011065760405162461bcd60e51b815260040162000be39190620045c2565b506200111783610140015162002a81565b6000620011288460e0015162002081565b90506200113860025461ffff1690565b61ffff16816040015161ffff1614620011855760405162461bcd60e51b815260206004820152600e60248201526d1ddc9bdb99c818da185a5b881a5960921b604482015260640162000be3565b6060810151620010439062003246565b6040805160e081018252600080825260208201819052918101829052606081018290526080810182905260a0810182905260c0810182905290620011da8382620021ef565b60ff168252620011ec60018262004a92565b9050816000015160ff16600114620012185760405162461bcd60e51b815260040162000be39062004af4565b6200122483826200337d565b60208084019190915262001239908262004a92565b90506200124783826200218d565b60408301526200125960208262004a92565b90506200126783826200224f565b61ffff1660608301526200127d60028262004a92565b90506200128b83826200218d565b60808301526200129d60208262004a92565b9050620012ab83826200224f565b61ffff1660a0830152620012c160028262004a92565b9050620012cf83826200337d565b60c0830152620012e160208262004a92565b90508083511462000ce25760405162461bcd60e51b815260040162000be39062004af4565b60006200131b6001546001600160a01b031690565b905090565b8051602080830151604080850151606080870151608088015160a089015160c08a0151955160f89990991b6001600160f81b031916978901979097526021880195909552604187019290925260f091821b6001600160f01b03199081166061880152606387019490945293901b909116608384015260858301529060a5015b6040516020818303038152906040529050919050565b6000620013e97f360894a13ba1a3210667c828492db98dca3e2076cc3735a920a3ca505d382bbc546001600160a01b031690565b90506200140e816001600160a01b031660009081526007602052604090205460ff1690565b15620014535760405162461bcd60e51b8152602060048201526013602482015272185b1c9958591e481a5b9a5d1a585b1a5e9959606a1b604482015260640162000be3565b6200147c816001600160a01b03166000908152600760205260409020805460ff19166001179055565b50565b6000806200148d84620033d6565b9050620014b58160000151826020015183604001518989866060015187608001518a6200273e565b9695505050505050565b6000806000620014cf8462002862565b925092509250818190620014f85760405162461bcd60e51b815260040162000be39190620045c2565b506200150983610140015162002a81565b60006200151a8460e0015162000b6c565b90506200152a60025461ffff1690565b61ffff16816040015161ffff161480156200154c57506200154a62001bdc565b155b806200155e5750604081015161ffff16155b6200159f5760405162461bcd60e51b815260206004820152601060248201526f1a5b9d985b1a590818da185a5b881a5960821b604482015260640162000be3565b606081015161ffff166000908152600b602052604081205414620016065760405162461bcd60e51b815260206004820152601860248201527f636861696e20616c726561647920726567697374657265640000000000000000604482015260640162000be3565b620010438160600151826080015161ffff9091166000908152600b6020526040902055565b8051602080830151604080850151606080870151608088015160a0890151945160f898891b6001600160f81b031990811698820198909852602181019690965260f09390931b6001600160f01b031916604186015290951b9093166043830152604482019290925260648101919091526084016200139f565b600080620016b36000620033d6565b9050620014b5816000015182602001518360400151898986608001518a8a620036a0565b606062000e8582600062002ae7565b60408051600481526024810182526020810180516001600160e01b031663313ce56760e01b179052905160009182916001600160a01b038616916200172b9162004b1e565b600060405180830381855afa9150503d806000811462001768576040519150601f19603f3d011682016040523d82523d6000602084013e6200176d565b606091505b5060408051600481526024810182526020810180516001600160e01b03166395d89b4160e01b1790529051919350600092506001600160a01b03871691620017b6919062004b1e565b600060405180830381855afa9150503d8060008114620017f3576040519150601f19603f3d011682016040523d82523d6000602084013e620017f8565b606091505b5060408051600481526024810182526020810180516001600160e01b03166306fdde0360e01b1790529051919350600092506001600160a01b0388169162001841919062004b1e565b600060405180830381855afa9150503d80600081146200187e576040519150601f19603f3d011682016040523d82523d6000602084013e62001883565b606091505b509150506000838060200190518101906200189f919062004b49565b9050600083806020019051810190620018b9919062004bb5565b9050600083806020019051810190620018d3919062004bb5565b9050600080602084015191506020830151905060006040518060c00160405280600260ff1681526020018d6001600160a01b031660001b81526020016200191d60025461ffff1690565b61ffff1681526020018760ff168152602001848152602001838152509050600062001948826200162b565b90506200195d6000546001600160a01b031690565b6001600160a01b031663b19a437e348e846200198460025460ff6401000000009091041690565b6040518563ffffffff1660e01b8152600401620019a49392919062004bed565b60206040518083038185885af1158015620019c3573d6000803e3d6000fd5b50505050506040513d601f19601f82011682018060405250810190620019ea919062004c39565b9d9c50505050505050505050505050565b60006002600d540362001a515760405162461bcd60e51b815260206004820152601f60248201527f5265656e7472616e637947756172643a207265656e7472616e742063616c6c00604482015260640162000be3565b6002600d55600062001a65888883620022b0565b905062000f1d816000015182602001518360400151898986608001518a8a620036a0565b62001a9681600062002ae7565b5050565b60408051608081018252600080825260208201819052918101829052606081018290529062001aca83826200218d565b825262001ad960208262004a92565b82519091506a546f6b656e4272696467651462001b0a5760405162461bcd60e51b815260040162000be39062004aa8565b62001b168382620021ef565b60ff16602083015262001b2b60018262004a92565b9050816020015160ff1660031462001b575760405162461bcd60e51b815260040162000be39062004ace565b62001b6383826200337d565b604083015262001b7560208262004a92565b905062001b8383826200224f565b61ffff16606083015262000c9f60028262004a92565b6060816000015182602001518360400151846060015185608001518660a001518760c001518860e001516040516020016200139f98979695949392919062004c57565b60004662001be9600c5490565b1415905090565b60008060008062001c096000546001600160a01b031690565b6001600160a01b031663c0fd8bde866040518263ffffffff1660e01b815260040162001c369190620045c2565b600060405180830381865afa15801562001c54573d6000803e3d6000fd5b505050506040513d6000823e601f3d908101601f1916820160405262001c7e919081019062004dc7565b92509250925081819062001ca75760405162461bcd60e51b815260040162000be39190620045c2565b5062001cb38362003713565b62001cd25760405162461bcd60e51b815260040162000be39062004f3c565b600062001ce38460e0015162000ce8565b9050620014b5818560a0015162003780565b6040805160e081018252600080825260208201819052918101829052606081018290526080810182905260a0810182905260c081018290529062001d398362000e77565b90508060ff1660010362001d5a5762001d528362001195565b915062000ce2565b8060ff1660030362001dc157600062001d738462001dff565b60038452602080820151908501526040808201519085015260608082015161ffff908116918601919091526080808301519086015260a091820151169084015250600060c083015262000ce2565b60405162461bcd60e51b8152602060048201526012602482015271125b9d985b1a59081c185e5b1bd859081a5960721b604482015260640162000be3565b604080516101008101825260008082526020820181905291810182905260608082018390526080820183905260a0820183905260c0820183905260e08201529062001e4b8382620021ef565b60ff16825262001e5d60018262004a92565b9050816000015160ff1660031462001e895760405162461bcd60e51b815260040162000be39062004af4565b62001e9583826200337d565b60208084019190915262001eaa908262004a92565b905062001eb883826200218d565b604083015262001eca60208262004a92565b905062001ed883826200224f565b61ffff16606083015262001eee60028262004a92565b905062001efc83826200218d565b608083015262001f0e60208262004a92565b905062001f1c83826200224f565b61ffff1660a083015262001f3260028262004a92565b905062001f4083826200218d565b60c083015262001f5260208262004a92565b905062001f718182855162001f68919062004f65565b85919062003a30565b60e083015250919050565b60008060008062001f956000546001600160a01b031690565b6001600160a01b031663c0fd8bde866040518263ffffffff1660e01b815260040162001fc29190620045c2565b600060405180830381865afa15801562001fe0573d6000803e3d6000fd5b505050506040513d6000823e601f3d908101601f191682016040526200200a919081019062004dc7565b925092509250818190620020335760405162461bcd60e51b815260040162000be39190620045c2565b506200203f8362003713565b6200205e5760405162461bcd60e51b815260040162000be39062004f3c565b60006200206f8460e0015162000ce8565b9050620014b5818560a0015162003b4b565b604080516080810182526000808252602082018190529181018290526060810182905290620020b183826200218d565b8252620020c060208262004a92565b82519091506a546f6b656e42726964676514620020f15760405162461bcd60e51b815260040162000be39062004aa8565b620020fd8382620021ef565b60ff1660208301526200211260018262004a92565b9050816020015160ff166002146200213e5760405162461bcd60e51b815260040162000be39062004ace565b6200214a83826200224f565b61ffff1660408301526200216060028262004a92565b90506200216e83826200218d565b606083015262000c9f60208262004a92565b62001a9681600162002ae7565b60006200219c82602062004a92565b83511015620021e65760405162461bcd60e51b8152602060048201526015602482015274746f427974657333325f6f75744f66426f756e647360581b604482015260640162000be3565b50016020015190565b6000620021fe82600162004a92565b83511015620022465760405162461bcd60e51b8152602060048201526013602482015272746f55696e74385f6f75744f66426f756e647360681b604482015260640162000be3565b50016001015190565b60006200225e82600262004a92565b83511015620022a75760405162461bcd60e51b8152602060048201526014602482015273746f55696e7431365f6f75744f66426f756e647360601b604482015260640162000be3565b50016002015190565b6040805160a0810182526000808252602082018190529181018290526060810182905260808101919091526001600160a01b038416600090815260096020526040812054819060ff1615620023d357856001600160a01b0316639a8a05926040518163ffffffff1660e01b8152600401602060405180830381865afa1580156200233e573d6000803e3d6000fd5b505050506040513d601f19601f8201168201806040525081019062002364919062004f7b565b9150856001600160a01b0316633d6c043b6040518163ffffffff1660e01b8152600401602060405180830381865afa158015620023a5573d6000803e3d6000fd5b505050506040513d601f19601f82011682018060405250810190620023cb919062004f9b565b9050620023e7565b505060025461ffff166001600160a01b0385165b60408051600481526024810182526020810180516001600160e01b031663313ce56760e01b17905290516000916001600160a01b038916916200242b919062004b1e565b600060405180830381855afa9150503d806000811462002468576040519150601f19603f3d011682016040523d82523d6000602084013e6200246d565b606091505b5091505060008180602001905181019062002489919062004b49565b9050620024a26200249b888362003c46565b8262003c85565b9650620024b260025461ffff1690565b61ffff168461ffff16036200265157604080513060248083019190915282518083039091018152604490910182526020810180516001600160e01b03166370a0823160e01b17905290516000916001600160a01b038b169162002516919062004b1e565b600060405180830381855afa9150503d806000811462002553576040519150601f19603f3d011682016040523d82523d6000602084013e62002558565b606091505b5091505060008180602001905181019062002574919062004f9b565b9050620025848a33308c62003cba565b604080513060248083019190915282518083039091018152604490910182526020810180516001600160e01b03166370a0823160e01b17905290516000916001600160a01b038d1691620025d9919062004b1e565b600060405180830381855afa9150503d806000811462002616576040519150601f19603f3d011682016040523d82523d6000602084013e6200261b565b606091505b5091505060008180602001905181019062002637919062004f9b565b905062002645838262004f65565b9a5050505050620026c2565b6200265f8833308a62003cba565b604051632770a7eb60e21b8152306004820152602481018890526001600160a01b03891690639dc29fac90604401600060405180830381600087803b158015620026a857600080fd5b505af1158015620026bd573d6000803e3d6000fd5b505050505b6000620026d0888362003c46565b90506000620026e0888462003c46565b9050620026f060025461ffff1690565b61ffff168661ffff16036200270b576200270b8a8362003d2d565b6040805160a08101825261ffff909716875260208701959095529385015250506060820152346080820152949350505050565b600086841115620027875760405162461bcd60e51b815260206004820152601260248201527119995948195e18d959591cc8185b5bdd5b9d60721b604482015260640162000be3565b6040805160e081018252600181526020810189905290810189905261ffff8a8116606083015260808201879052871660a082015260c081018590526000546001600160a01b031663b19a437e8585620027e08562001320565b600254640100000000900460ff166040518563ffffffff1660e01b81526004016200280e9392919062004bed565b60206040518083038185885af11580156200282d573d6000803e3d6000fd5b50505050506040513d601f19601f8201168201806040525081019062002854919062004c39565b9a9950505050505050505050565b604080516101608101825260008082526020820181905291810182905260608082018390526080820183905260a0820183905260c0820183905260e082018190526101008201839052610120820152610140810191909152600060606000806000620028d66000546001600160a01b031690565b6001600160a01b031663c0fd8bde886040518263ffffffff1660e01b8152600401620029039190620045c2565b600060405180830381865afa15801562002921573d6000803e3d6000fd5b505050506040513d6000823e601f3d908101601f191682016040526200294b919081019062004dc7565b9250925092508162002964579194509250905062002a7a565b60025462010000900461ffff1661ffff16836060015161ffff1614620029c25750506040805180820190915260168152753bb937b7339033b7bb32b93730b731b29031b430b4b760511b602082015290935060009250905062002a7a565b60035483608001511462002a1557505060408051808201909152601981527f77726f6e6720676f7665726e616e636520636f6e747261637400000000000000602082015290935060009250905062002a7a565b61014083015160009081526005602052604090205460ff161562002a5f57826000604051806060016040528060228152602001620059bb6022913995509550955050505062002a7a565b50506040805160208101909152600081529093506001925090505b9193909250565b6000908152600560205260409020805460ff19166001179055565b46811462002ae25760405162461bcd60e51b81526020600482015260126024820152711a5b9d985b1a5908195d9b50da185a5b925960721b604482015260640162000be3565b600c55565b6060600080600062002b016000546001600160a01b031690565b6001600160a01b031663c0fd8bde876040518263ffffffff1660e01b815260040162002b2e9190620045c2565b600060405180830381865afa15801562002b4c573d6000803e3d6000fd5b505050506040513d6000823e601f3d908101601f1916820160405262002b76919081019062004dc7565b92509250925081819062002b9f5760405162461bcd60e51b815260040162000be39190620045c2565b5062002bab8362003713565b62002bca5760405162461bcd60e51b815260040162000be39062004f3c565b600062002bdb8460e0015162001cf5565b9050600062002bee826080015162003dfa565b825190915060ff1660030362002c4957336001600160a01b0382161462002c495760405162461bcd60e51b815260206004820152600e60248201526d34b73b30b634b21039b2b73232b960911b604482015260640162000be3565b61014085015160009081526006602052604090205460ff161562002cb05760405162461bcd60e51b815260206004820152601a60248201527f7472616e7366657220616c726561647920636f6d706c65746564000000000000604482015260640162000be3565b62002cd58561014001516000908152600660205260409020805460ff19166001179055565b60025461ffff1661ffff168260a0015161ffff161462002d2f5760405162461bcd60e51b815260206004820152601460248201527334b73b30b634b2103a30b933b2ba1031b430b4b760611b604482015260640162000be3565b600062002d3f60025461ffff1690565b61ffff16836060015161ffff160362002d795762002d61836040015162003dfa565b905062002d7381846020015162003e50565b62002dfa565b600062002d8f8460600151856040015162001059565b90506001600160a01b03811662002df75760405162461bcd60e51b815260206004820152602560248201527f6e6f207772617070657220666f72207468697320746f6b656e2063726561746560448201526419081e595d60da1b606482015260840162000be3565b90505b87158062002e1557506004546001600160a01b038281169116145b62002e6f5760405162461bcd60e51b815260206004820152602360248201527f696e76616c696420746f6b656e2c2063616e206f6e6c7920756e77726170205760448201526208aa8960eb1b606482015260840162000be3565b60408051600481526024810182526020810180516001600160e01b031663313ce56760e01b17905290516000916001600160a01b0384169162002eb3919062004b1e565b600060405180830381855afa9150503d806000811462002ef0576040519150601f19603f3d011682016040523d82523d6000602084013e62002ef5565b606091505b5091505060008180602001905181019062002f11919062004b49565b9050600062002f2586602001518362003c85565b9050600062002f398760c001518462003c85565b905060008111801562002f5557506001600160a01b0386163314155b15620030e7578181111562002fb85760405162461bcd60e51b815260206004820152602260248201527f66656520686967686572207468616e207472616e7366657272656420616d6f756044820152611b9d60f21b606482015260840162000be3565b8b15620030525760048054604051632e1a7d4d60e01b81529182018390526001600160a01b031690632e1a7d4d90602401600060405180830381600087803b1580156200300457600080fd5b505af115801562003019573d6000803e3d6000fd5b505060405133925083156108fc02915083906000818181858888f193505050501580156200304b573d6000803e3d6000fd5b50620030eb565b60025461ffff1661ffff16876060015161ffff1614620030d4576040516340c10f1960e01b8152336004820152602481018290526001600160a01b038616906340c10f1990604401600060405180830381600087803b158015620030b557600080fd5b505af1158015620030ca573d6000803e3d6000fd5b50505050620030eb565b620030e185338362003e82565b620030eb565b5060005b6000620030f9828462004f65565b90508c156200319e5760048054604051632e1a7d4d60e01b81529182018390526001600160a01b031690632e1a7d4d90602401600060405180830381600087803b1580156200314757600080fd5b505af11580156200315c573d6000803e3d6000fd5b50506040516001600160a01b038a16925083156108fc02915083906000818181858888f1935050505015801562003197573d6000803e3d6000fd5b506200322f565b60025461ffff1661ffff16886060015161ffff161462003222576040516340c10f1960e01b81526001600160a01b038881166004830152602482018390528716906340c10f1990604401600060405180830381600087803b1580156200320357600080fd5b505af115801562003218573d6000803e3d6000fd5b505050506200322f565b6200322f86888362003e82565b50505060e0909701519a9950505050505050505050565b60006200327a7f360894a13ba1a3210667c828492db98dca3e2076cc3735a920a3ca505d382bbc546001600160a01b031690565b9050620032878262003eb4565b60408051600481526024810182526020810180516001600160e01b031663204a7f0760e21b179052905160009182916001600160a01b03861691620032cc9162004b1e565b600060405180830381855af49150503d806000811462003309576040519150601f19603f3d011682016040523d82523d6000602084013e6200330e565b606091505b5091509150818190620033365760405162461bcd60e51b815260040162000be39190620045c2565b50836001600160a01b0316836001600160a01b03167f2e4cc16c100f0b55e2df82ab0b1a7e294aa9cbd01b48fbaf622683fbc0507a4960405160405180910390a350505050565b60006200338c82602062004a92565b83511015620021e65760405162461bcd60e51b8152602060048201526015602482015274746f55696e743235365f6f75744f66426f756e647360581b604482015260640162000be3565b6040805160a081018252600080825260208201819052918101829052606081018290526080810191909152600080546001600160a01b03166001600160a01b0316631a90a2196040518163ffffffff1660e01b8152600401602060405180830381865afa1580156200344c573d6000803e3d6000fd5b505050506040513d601f19601f8201168201806040525081019062003472919062004f9b565b9050348110620034d05760405162461bcd60e51b815260206004820152602260248201527f76616c756520697320736d616c6c6572207468616e20776f726d686f6c652066604482015261656560f01b606482015260840162000be3565b6000620034de823462004f65565b905080841115620035475760405162461bcd60e51b815260206004820152602c60248201527f66656520697320626967676572207468616e20616d6f756e74206d696e75732060448201526b776f726d686f6c652066656560a01b606482015260840162000be3565b60006200355682601262003c46565b905060006200356786601262003c46565b905060006200357883601262003c85565b62003584908562004f65565b90508015620035bd57604051339082156108fc029083906000818181858888f19350505050158015620035bb573d6000803e3d6000fd5b505b6004546001600160a01b031663d0e30db0620035da838762004f65565b6040518263ffffffff1660e01b81526004016000604051808303818588803b1580156200360657600080fd5b505af11580156200361b573d6000803e3d6000fd5b50505050506200363e620036376004546001600160a01b031690565b8462003d2d565b6040518060a001604052806200365760025461ffff1690565b61ffff168152602001620036736004546001600160a01b031690565b6001600160a01b031660001b81526020018481526020018381526020018681525095505050505050919050565b6040805161010081018252600381526020810188905290810188905261ffff808a16606083015260808201869052861660a08201523360c082015260e08101829052600090620036f86000546001600160a01b031690565b6001600160a01b031663b19a437e8686620027e08562001b99565b60006200371f62001bdc565b156200375d5760405162461bcd60e51b815260206004820152600c60248201526b696e76616c696420666f726b60a01b604482015260640162000be3565b50608081015160609091015161ffff166000908152600b60205260409020541490565b60006200379060025461ffff1690565b61ffff16836040015161ffff1603620037fd5760405162461bcd60e51b815260206004820152602860248201527f63616e206f6e6c79207772617020746f6b656e732066726f6d20666f726569676044820152676e20636861696e7360c01b606482015260840162000be3565b60006001600160a01b03166200381c8460400151856020015162001059565b6001600160a01b031614620038745760405162461bcd60e51b815260206004820152601c60248201527f7772617070656420617373657420616c72656164792065786973747300000000604482015260640162000be3565b600063c71f461560e01b6200388d8560a0015162003ef6565b6200389c866080015162003ef6565b8660600151863089604001518a60200151604051602401620038c5979695949392919062004fb5565b60408051601f19818403018152918152602080830180516001600160e01b03166001600160e01b031990951694909417909352519092506000916200390f91309185910162005022565b604051602081830303815290604052905060006040518060200162003934906200430a565b601f1982820381018352601f9091011660408190526200395a9190849060200162005048565b6040516020818303038152906040529050600086604001518760200151604051602001620039a192919060f09290921b6001600160f01b0319168252600282015260220190565b604051602081830303815290604052805190602001209050808251602084016000f59450843b620039d157600080fd5b6040808801516020808a015161ffff90921660009081526008825283812092815291815282822080546001600160a01b0319166001600160a01b038a1690811790915582526009905220805460ff191660011790555050505092915050565b60608162003a4081601f62004a92565b101562003a815760405162461bcd60e51b815260206004820152600e60248201526d736c6963655f6f766572666c6f7760901b604482015260640162000be3565b62003a8d828462004a92565b8451101562003ad35760405162461bcd60e51b8152602060048201526011602482015270736c6963655f6f75744f66426f756e647360781b604482015260640162000be3565b60608215801562003af4576040519150600082526020820160405262003b40565b6040519150601f8416801560200281840101858101878315602002848b0101015b8183101562003b2f57805183526020928301920162003b15565b5050858452601f01601f1916604052505b5090505b9392505050565b60008062003b628460400151856020015162001059565b90506001600160a01b03811662003bbc5760405162461bcd60e51b815260206004820152601d60248201527f7772617070656420617373657420646f6573206e6f7420657869737473000000604482015260640162000be3565b806001600160a01b031663a18cd7c662003bda8660a0015162003ef6565b62003be9876080015162003ef6565b866040518463ffffffff1660e01b815260040162003c0a939291906200507b565b600060405180830381600087803b15801562003c2557600080fd5b505af115801562003c3a573d6000803e3d6000fd5b50929695505050505050565b600060088260ff16111562003c7e5762003c62600883620050be565b62003c6f90600a620051d7565b62003c7b9084620051e8565b92505b5090919050565b600060088260ff16111562003c7e5762003ca1600883620050be565b62003cae90600a620051d7565b62003c7b90846200520b565b6040516001600160a01b038085166024830152831660448201526064810182905262003d279085906323b872dd60e01b906084015b60408051601f198184030181529190526020810180516001600160e01b03166001600160e01b03199093169290921790915262004001565b50505050565b6001600160a01b0382166000908152600a60205260409020546001600160401b0362003d5a838362004a92565b111562003dc85760405162461bcd60e51b815260206004820152603560248201527f7472616e736665722065786365656473206d6178206f75747374616e64696e6760448201527408189c9a5919d959081d1bdad95b88185b5bdd5b9d605a1b606482015260840162000be3565b62003df58362003dd9848462004a92565b6001600160a01b039091166000908152600a6020526040902055565b505050565b60006001600160a01b031982161562003e4c5760405162461bcd60e51b8152602060048201526013602482015272696e76616c69642045564d206164647265737360681b604482015260640162000be3565b5090565b62001a96828262003e76856001600160a01b03166000908152600a602052604090205490565b62003dd9919062004f65565b6040516001600160a01b03831660248201526044810182905262003df590849063a9059cbb60e01b9060640162003cef565b62003ebf81620040da565b6040516001600160a01b038216907fbc7cd75a20ee27fd9adebab32041f755214dbc6bffa90cc0225b39da2e5c2d3b90600090a250565b606060005b60208110801562003f2d575082816020811062003f1c5762003f1c62005225565b1a60f81b6001600160f81b03191615155b1562003f48578062003f3f816200523b565b91505062003efb565b6000816001600160401b0381111562003f655762003f6562004318565b6040519080825280601f01601f19166020018201604052801562003f90576020820181803683370190505b50905060005b8281101562003ff95784816020811062003fb45762003fb462005225565b1a60f81b82828151811062003fcd5762003fcd62005225565b60200101906001600160f81b031916908160001a9053508062003ff0816200523b565b91505062003f96565b509392505050565b600062004058826040518060400160405280602081526020017f5361666545524332303a206c6f772d6c6576656c2063616c6c206661696c6564815250856001600160a01b0316620041819092919063ffffffff16565b80519091501562003df5578080602001905181019062004079919062005257565b62003df55760405162461bcd60e51b815260206004820152602a60248201527f5361666545524332303a204552433230206f7065726174696f6e20646964206e6044820152691bdd081cdd58d8d9595960b21b606482015260840162000be3565b803b620041405760405162461bcd60e51b815260206004820152602d60248201527f455243313936373a206e657720696d706c656d656e746174696f6e206973206e60448201526c1bdd08184818dbdb9d1c9858dd609a1b606482015260840162000be3565b7f360894a13ba1a3210667c828492db98dca3e2076cc3735a920a3ca505d382bbc80546001600160a01b0319166001600160a01b0392909216919091179055565b60606200419284846000856200419a565b949350505050565b606082471015620041fd5760405162461bcd60e51b815260206004820152602660248201527f416464726573733a20696e73756666696369656e742062616c616e636520666f6044820152651c8818d85b1b60d21b606482015260840162000be3565b843b6200424d5760405162461bcd60e51b815260206004820152601d60248201527f416464726573733a2063616c6c20746f206e6f6e2d636f6e7472616374000000604482015260640162000be3565b600080866001600160a01b031685876040516200426b919062004b1e565b60006040518083038185875af1925050503d8060008114620042aa576040519150601f19603f3d011682016040523d82523d6000602084013e620042af565b606091505b5091509150620042c1828286620042cc565b979650505050505050565b60608315620042dd57508162003b44565b825115620042ee5782518084602001fd5b8160405162461bcd60e51b815260040162000be39190620045c2565b610745806200527683390190565b634e487b7160e01b600052604160045260246000fd5b60405161010081016001600160401b038111828210171562004354576200435462004318565b60405290565b604051608081016001600160401b038111828210171562004354576200435462004318565b60405161016081016001600160401b038111828210171562004354576200435462004318565b604051601f8201601f191681016001600160401b0381118282101715620043d057620043d062004318565b604052919050565b60006001600160401b03821115620043f457620043f462004318565b50601f01601f191660200190565b600082601f8301126200441457600080fd5b81356200442b6200442582620043d8565b620043a5565b8181528460208386010111156200444157600080fd5b816020850160208301376000918101602001919091529392505050565b6000602082840312156200447157600080fd5b81356001600160401b038111156200448857600080fd5b620041928482850162004402565b80356001600160a01b0381168114620044ae57600080fd5b919050565b61ffff811681146200147c57600080fd5b8035620044ae81620044b3565b63ffffffff811681146200147c57600080fd5b60008060008060008060c08789031215620044fe57600080fd5b620045098762004496565b95506020870135945060408701356200452281620044b3565b9350606087013592506080870135915060a08701356200454281620044d1565b809150509295509295509295565b6000602082840312156200456357600080fd5b62003b448262004496565b60005b838110156200458b57818101518382015260200162004571565b50506000910152565b60008151808452620045ae8160208601602086016200456e565b601f01601f19169290920160200192915050565b60208152600062003b44602083018462004594565b60008060408385031215620045eb57600080fd5b8235620045f881620044b3565b946020939093013593505050565b6000602082840312156200461957600080fd5b5035919050565b60ff811681146200147c57600080fd5b8035620044ae8162004620565b600060e082840312156200465057600080fd5b60405160e081018181106001600160401b038211171562004675576200467562004318565b6040528235620046858162004620565b8082525060208301356020820152604083013560408201526060830135620046ad81620044b3565b60608201526080838101359082015260a0830135620046cc81620044b3565b60a082015260c0928301359281019290925250919050565b60008060008060808587031215620046fb57600080fd5b84356200470881620044b3565b9350602085013592506040850135915060608501356200472881620044d1565b939692955090935050565b6000602082840312156200474657600080fd5b813562003b4481620044b3565b600060c082840312156200476657600080fd5b60405160c081018181106001600160401b03821117156200478b576200478b62004318565b60405282356200479b8162004620565b8152602083810135908201526040830135620047b781620044b3565b60408201526060830135620047cc8162004620565b60608201526080838101359082015260a0928301359281019290925250919050565b600080600080608085870312156200480557600080fd5b84356200481281620044b3565b93506020850135925060408501356200482b81620044d1565b915060608501356001600160401b038111156200484757600080fd5b620048558782880162004402565b91505092959194509250565b600080604083850312156200487557600080fd5b620048808362004496565b915060208301356200489281620044d1565b809150509250929050565b60008060008060008060c08789031215620048b757600080fd5b620048c28762004496565b9550602087013594506040870135620048db81620044b3565b9350606087013592506080870135620048f481620044d1565b915060a08701356001600160401b038111156200491057600080fd5b6200491e89828a0162004402565b9150509295509295509295565b6000602082840312156200493e57600080fd5b81356001600160401b03808211156200495657600080fd5b9083019061010082860312156200496c57600080fd5b620049766200432e565b620049818362004630565b81526020830135602082015260408301356040820152620049a560608401620044c4565b606082015260808301356080820152620049c260a08401620044c4565b60a082015260c083013560c082015260e083013582811115620049e457600080fd5b620049f28782860162004402565b60e08301525095945050505050565b6020815260ff8251166020820152602082015160408201526040820151606082015261ffff6060830151166080820152608082015160a0820152600060a083015162004a5360c084018261ffff169052565b5060c083015160e083015260e08301516101008081850152506200419261012084018262004594565b634e487b7160e01b600052601160045260246000fd5b8082018082111562000e855762000e8562004a7c565b6020808252600c908201526b77726f6e67206d6f64756c6560a01b604082015260600190565b6020808252600c908201526b3bb937b7339030b1ba34b7b760a11b604082015260600190565b60208082526010908201526f34b73b30b634b2102a3930b739b332b960811b604082015260600190565b6000825162004b328184602087016200456e565b9190910192915050565b8051620044ae8162004620565b60006020828403121562004b5c57600080fd5b815162003b448162004620565b600082601f83011262004b7b57600080fd5b815162004b8c6200442582620043d8565b81815284602083860101111562004ba257600080fd5b620041928260208301602087016200456e565b60006020828403121562004bc857600080fd5b81516001600160401b0381111562004bdf57600080fd5b620041928482850162004b69565b63ffffffff8416815260606020820152600062004c0e606083018562004594565b905060ff83166040830152949350505050565b80516001600160401b0381168114620044ae57600080fd5b60006020828403121562004c4c57600080fd5b62003b448262004c21565b60ff60f81b8960f81b168152876001820152866021820152600061ffff60f01b808860f01b166041840152866043840152808660f01b16606384015250836065830152825162004caf8160858501602087016200456e565b919091016085019998505050505050505050565b8051620044ae81620044d1565b8051620044ae81620044b3565b600082601f83011262004cef57600080fd5b815160206001600160401b0382111562004d0d5762004d0d62004318565b62004d1d818360051b01620043a5565b82815260079290921b8401810191818101908684111562004d3d57600080fd5b8286015b8481101562004dab576080818903121562004d5c5760008081fd5b62004d666200435a565b81518152848201518582015260408083015162004d838162004620565b9082015260608281015162004d988162004620565b9082015283529183019160800162004d41565b509695505050505050565b80518015158114620044ae57600080fd5b60008060006060848603121562004ddd57600080fd5b83516001600160401b038082111562004df557600080fd5b90850190610160828803121562004e0b57600080fd5b62004e156200437f565b62004e208362004b3c565b815262004e306020840162004cc3565b602082015262004e436040840162004cc3565b604082015262004e566060840162004cd0565b60608201526080830151608082015262004e7360a0840162004c21565b60a082015262004e8660c0840162004b3c565b60c082015260e08301518281111562004e9e57600080fd5b62004eac8982860162004b69565b60e08301525061010062004ec281850162004cc3565b90820152610120838101518381111562004edb57600080fd5b62004ee98a82870162004cdd565b91830191909152506101408381015190820152945062004f0c6020870162004db6565b9350604086015191508082111562004f2357600080fd5b5062004f328682870162004b69565b9150509250925092565b6020808252600f908201526e34b73b30b634b21032b6b4ba3a32b960891b604082015260600190565b8181038181111562000e855762000e8562004a7c565b60006020828403121562004f8e57600080fd5b815162003b4481620044b3565b60006020828403121562004fae57600080fd5b5051919050565b60e08152600062004fca60e083018a62004594565b828103602084015262004fde818a62004594565b60ff98909816604084015250506001600160401b039490941660608501526001600160a01b0392909216608084015261ffff1660a083015260c09091015292915050565b6001600160a01b0383168152604060208201819052600090620041929083018462004594565b600083516200505c8184602088016200456e565b835190830190620050728183602088016200456e565b01949350505050565b60608152600062005090606083018662004594565b8281036020840152620050a4818662004594565b9150506001600160401b0383166040830152949350505050565b60ff828116828216039081111562000e855762000e8562004a7c565b600181815b808511156200511b578160001904821115620050ff57620050ff62004a7c565b808516156200510d57918102915b93841c9390800290620050df565b509250929050565b600082620051345750600162000e85565b81620051435750600062000e85565b81600181146200515c5760028114620051675762005187565b600191505062000e85565b60ff8411156200517b576200517b62004a7c565b50506001821b62000e85565b5060208310610133831016604e8410600b8410161715620051ac575081810a62000e85565b620051b88383620050da565b8060001904821115620051cf57620051cf62004a7c565b029392505050565b600062003b4460ff84168362005123565b6000826200520657634e487b7160e01b600052601260045260246000fd5b500490565b808202811582820484141762000e855762000e8562004a7c565b634e487b7160e01b600052603260045260246000fd5b60006001820162005250576200525062004a7c565b5060010190565b6000602082840312156200526a57600080fd5b62003b448262004db656fe608060405234801561001057600080fd5b5060405161074538038061074583398101604081905261002f91610442565b818161005c60017fa3f0ad74e5423aebfd80d3ef4346578335a9a72aeaee59ff6cb3582b35133d51610502565b6000805160206106fe8339815191521461007857610078610523565b6100848282600061008d565b505050506105a3565b6100968361014e565b6040516001600160a01b038416907f1cf3b03a6cf19fa2baba4df148e9dcabedea7f8a5c07840e207e5c089be95d3e90600090a26000825111806100d75750805b1561014957610147836001600160a01b0316635c60da1b6040518163ffffffff1660e01b8152600401602060405180830381865afa15801561011d573d6000803e3d6000fd5b505050506040513d601f19601f820116820180604052508101906101419190610539565b836102ae565b505b505050565b803b6101af5760405162461bcd60e51b815260206004820152602560248201527f455243313936373a206e657720626561636f6e206973206e6f74206120636f6e6044820152641d1c9858dd60da1b60648201526084015b60405180910390fd5b61021a816001600160a01b0316635c60da1b6040518163ffffffff1660e01b8152600401602060405180830381865afa1580156101f0573d6000803e3d6000fd5b505050506040513d601f19601f820116820180604052508101906102149190610539565b3b151590565b61027f5760405162461bcd60e51b815260206004820152603060248201527f455243313936373a20626561636f6e20696d706c656d656e746174696f6e206960448201526f1cc81b9bdd08184818dbdb9d1c9858dd60821b60648201526084016101a6565b6000805160206106fe83398151915280546001600160a01b0319166001600160a01b0392909216919091179055565b60606102d3838360405180606001604052806027815260200161071e602791396102dc565b90505b92915050565b6060833b61033b5760405162461bcd60e51b815260206004820152602660248201527f416464726573733a2064656c65676174652063616c6c20746f206e6f6e2d636f6044820152651b9d1c9858dd60d21b60648201526084016101a6565b600080856001600160a01b0316856040516103569190610554565b600060405180830381855af49150503d8060008114610391576040519150601f19603f3d011682016040523d82523d6000602084013e610396565b606091505b5090925090506103a78282866103b3565b925050505b9392505050565b606083156103c25750816103ac565b8251156103d25782518084602001fd5b8160405162461bcd60e51b81526004016101a69190610570565b80516001600160a01b038116811461040357600080fd5b919050565b634e487b7160e01b600052604160045260246000fd5b60005b83811015610439578181015183820152602001610421565b50506000910152565b6000806040838503121561045557600080fd5b61045e836103ec565b60208401519092506001600160401b038082111561047b57600080fd5b818501915085601f83011261048f57600080fd5b8151818111156104a1576104a1610408565b604051601f8201601f19908116603f011681019083821181831017156104c9576104c9610408565b816040528281528860208487010111156104e257600080fd5b6104f383602083016020880161041e565b80955050505050509250929050565b818103818111156102d657634e487b7160e01b600052601160045260246000fd5b634e487b7160e01b600052600160045260246000fd5b60006020828403121561054b57600080fd5b6102d3826103ec565b6000825161056681846020870161041e565b9190910192915050565b602081526000825180602084015261058f81604085016020870161041e565b601f01601f19169190910160400192915050565b61014c806105b26000396000f3fe60806040523661001357610011610017565b005b6100115b610027610022610029565b6100c2565b565b600061005c7fa3f0ad74e5423aebfd80d3ef4346578335a9a72aeaee59ff6cb3582b35133d50546001600160a01b031690565b6001600160a01b0316635c60da1b6040518163ffffffff1660e01b8152600401602060405180830381865afa158015610099573d6000803e3d6000fd5b505050506040513d601f19601f820116820180604052508101906100bd91906100e6565b905090565b3660008037600080366000845af43d6000803e8080156100e1573d6000f35b3d6000fd5b6000602082840312156100f857600080fd5b81516001600160a01b038116811461010f57600080fd5b939250505056fea26469706673582212209887d4052b6f141cf8f0707b2e69487c02f7a90c1bed9054d625ad29ec8b8d1964736f6c63430008130033a3f0ad74e5423aebfd80d3ef4346578335a9a72aeaee59ff6cb3582b35133d50416464726573733a206c6f772d6c6576656c2064656c65676174652063616c6c206661696c6564676f7665726e616e636520616374696f6e20616c726561647920636f6e73756d6564a26469706673582212201e1911397c06f82a74aa69cdd210e28b35fbde184ea4d77f255e07ac36d3cdb564736f6c63430008130033",
    "linkReferences": {}
  },
  "methodIdentifiers": {
    "WETH()": "ad5c4648",
    "_parseTransferCommon(bytes)": "e89bc401",
    "attestToken(address,uint32)": "c48fa115",
    "bridgeContracts(uint16)": "ad66a5f1",
    "chainId()": "9a8a0592",
    "completeTransfer(bytes)": "c6878519",
    "completeTransferAndUnwrapETH(bytes)": "ff200cde",
    "completeTransferAndUnwrapETHWithPayload(bytes)": "1c8475e4",
    "completeTransferWithPayload(bytes)": "c3f511c1",
    "createWrapped(bytes)": "e8059810",
    "encodeAssetMeta((uint8,bytes32,uint16,uint8,bytes32,bytes32))": "b046223b",
    "encodeTransfer((uint8,uint256,bytes32,uint16,bytes32,uint16,uint256))": "5f854266",
    "encodeTransferWithPayload((uint8,uint256,bytes32,uint16,bytes32,uint16,bytes32,bytes))": "d56e2e24",
    "evmChainId()": "64d42b17",
    "finality()": "739fc8d1",
    "governanceActionIsConsumed(bytes32)": "2c3c02a4",
    "governanceChainId()": "fbe3c2cd",
    "governanceContract()": "b172b222",
    "implementation()": "5c60da1b",
    "initialize()": "8129fc1c",
    "isFork()": "e039f224",
    "isInitialized(address)": "d60b347f",
    "isTransferCompleted(bytes32)": "aa4efa5b",
    "isWrappedAsset(address)": "1a2be4da",
    "outstandingBridged(address)": "b96c7e4d",
    "parseAssetMeta(bytes)": "07dfd8fb",
    "parsePayloadID(bytes)": "0f509008",
    "parseRecoverChainId(bytes)": "cb4cfea8",
    "parseRegisterChain(bytes)": "01f53255",
    "parseTransfer(bytes)": "2b511375",
    "parseTransferWithPayload(bytes)": "ea63738d",
    "parseUpgrade(bytes)": "fbeeacd9",
    "registerChain(bytes)": "a5799f93",
    "submitRecoverChainId(bytes)": "178149e7",
    "testNewImplementationActive()": "1f8cdb2b",
    "testOverwriteEVMChainId(uint16,uint256)": "c054a2e0",
    "testUpdateWETHAddress(address)": "b6268146",
    "tokenImplementation()": "2f3a3d5d",
    "transferTokens(address,uint256,uint16,bytes32,uint256,uint32)": "0f5287b0",
    "transferTokensWithPayload(address,uint256,uint16,bytes32,uint32,bytes)": "c5a5ebda",
    "updateWrapped(bytes)": "f768441f",
    "upgrade(bytes)": "25394645",
    "wormhole()": "84acd1bb",
    "wrapAndTransferETH(uint16,bytes32,uint256,uint32)": "9981509f",
    "wrapAndTransferETHWithPayload(uint16,bytes32,uint32,bytes)": "bee9cdfc",
    "wrappedAsset(uint16,bytes32)": "1ff1e286"
  },
  "id": 24
}