{
  "abi": [
    {
      "inputs": [],
      "stateMutability": "nonpayable",
      "type": "constructor"
    },
    {
      "anonymous": false,
      "inputs": [
        {
          "indexed": false,
          "internalType": "address",
          "name": "previousAdmin",
          "type": "address"
        },
        {
          "indexed": false,
          "internalType": "address",
          "name": "newAdmin",
          "type": "address"
        }
      ],
      "name": "AdminChanged",
      "type": "event"
    },
    {
      "anonymous": false,
      "inputs": [
        {
          "indexed": true,
          "internalType": "address",
          "name": "beacon",
          "type": "address"
        }
      ],
      "name": "BeaconUpgraded",
      "type": "event"
    },
    {
      "anonymous": false,
      "inputs": [
        {
          "indexed": true,
          "internalType": "address",
          "name": "implementation",
          "type": "address"
        }
      ],
      "name": "Upgraded",
      "type": "event"
    },
    {
      "inputs": [
        {
          "internalType": "address",
          "name": "impl",
          "type": "address"
        },
        {
          "internalType": "bytes",
          "name": "call",
          "type": "bytes"
        }
      ],
      "name": "upgrade",
      "outputs": [],
      "stateMutability": "nonpayable",
      "type": "function"
    }
  ],
  "bytecode": {
    "object": "0x608060405234801561001057600080fd5b5061045a806100206000396000f3fe608060405234801561001057600080fd5b506004361061002b5760003560e01c8063c987336c14610030575b600080fd5b61004361003e3660046102ba565b610045565b005b61005182826000610055565b5050565b61005e83610081565b60008251118061006b5750805b1561007c5761007a83836100c1565b505b505050565b61008a816100ed565b6040516001600160a01b038216907fbc7cd75a20ee27fd9adebab32041f755214dbc6bffa90cc0225b39da2e5c2d3b90600090a250565b60606100e683836040518060600160405280602781526020016103fe60279139610197565b9392505050565b803b6101565760405162461bcd60e51b815260206004820152602d60248201527f455243313936373a206e657720696d706c656d656e746174696f6e206973206e60448201526c1bdd08184818dbdb9d1c9858dd609a1b60648201526084015b60405180910390fd5b7f360894a13ba1a3210667c828492db98dca3e2076cc3735a920a3ca505d382bbc80546001600160a01b0319166001600160a01b0392909216919091179055565b6060833b6101f65760405162461bcd60e51b815260206004820152602660248201527f416464726573733a2064656c65676174652063616c6c20746f206e6f6e2d636f6044820152651b9d1c9858dd60d21b606482015260840161014d565b600080856001600160a01b03168560405161021191906103ae565b600060405180830381855af49150503d806000811461024c576040519150601f19603f3d011682016040523d82523d6000602084013e610251565b606091505b509150915061026182828661026b565b9695505050505050565b6060831561027a5750816100e6565b82511561028a5782518084602001fd5b8160405162461bcd60e51b815260040161014d91906103ca565b634e487b7160e01b600052604160045260246000fd5b600080604083850312156102cd57600080fd5b82356001600160a01b03811681146102e457600080fd5b9150602083013567ffffffffffffffff8082111561030157600080fd5b818501915085601f83011261031557600080fd5b813581811115610327576103276102a4565b604051601f8201601f19908116603f0116810190838211818310171561034f5761034f6102a4565b8160405282815288602084870101111561036857600080fd5b8260208601602083013760006020848301015280955050505050509250929050565b60005b838110156103a557818101518382015260200161038d565b50506000910152565b600082516103c081846020870161038a565b9190910192915050565b60208152600082518060208401526103e981604085016020870161038a565b601f01601f1916919091016040019291505056fe416464726573733a206c6f772d6c6576656c2064656c65676174652063616c6c206661696c6564a2646970667358221220d45d30307f0a9ca049c6a820187e9210d414b890270164722df7ef6210ab6b7d64736f6c63430008130033",
    "linkReferences": {}
  },
  "methodIdentifiers": {
    "upgrade(address,bytes)": "c987336c"
  },
  "id": 71
}