{
  "abi": [
    {
      "inputs": [
        {
          "internalType": "address",
          "name": "_wormholeCore",
          "type": "address"
        },
        {
          "internalType": "address",
          "name": "_coreRelayer",
          "type": "address"
        }
      ],
      "stateMutability": "nonpayable",
      "type": "constructor"
    },
    {
      "inputs": [],
      "name": "emitterAddress",
      "outputs": [
        {
          "internalType": "bytes32",
          "name": "",
          "type": "bytes32"
        }
      ],
      "stateMutability": "view",
      "type": "function"
    },
    {
      "inputs": [
        {
          "components": [
            {
              "internalType": "enum MockRelayerIntegration.Version",
              "name": "version",
              "type": "uint8"
            },
            {
              "internalType": "bytes",
              "name": "message",
              "type": "bytes"
            },
            {
              "internalType": "bytes",
              "name": "forwardMessage",
              "type": "bytes"
            }
          ],
          "internalType": "struct MockRelayerIntegration.Message",
          "name": "message",
          "type": "tuple"
        }
      ],
      "name": "encodeMessage",
      "outputs": [
        {
          "internalType": "bytes",
          "name": "encoded",
          "type": "bytes"
        }
      ],
      "stateMutability": "pure",
      "type": "function"
    },
    {
      "inputs": [],
      "name": "getDeliveryData",
      "outputs": [
        {
          "components": [
            {
              "internalType": "bytes32",
              "name": "sourceAddress",
              "type": "bytes32"
            },
            {
              "internalType": "uint16",
              "name": "sourceChain",
              "type": "uint16"
            },
            {
              "internalType": "bytes32",
              "name": "deliveryHash",
              "type": "bytes32"
            },
            {
              "internalType": "bytes",
              "name": "payload",
              "type": "bytes"
            },
            {
              "internalType": "bytes[]",
              "name": "additionalVaas",
              "type": "bytes[]"
            }
          ],
          "internalType": "struct DeliveryData",
          "name": "deliveryData",
          "type": "tuple"
        }
      ],
      "stateMutability": "view",
      "type": "function"
    },
    {
      "inputs": [],
      "name": "getMessage",
      "outputs": [
        {
          "internalType": "bytes",
          "name": "",
          "type": "bytes"
        }
      ],
      "stateMutability": "view",
      "type": "function"
    },
    {
      "inputs": [],
      "name": "getMessageHistory",
      "outputs": [
        {
          "internalType": "bytes[]",
          "name": "",
          "type": "bytes[]"
        }
      ],
      "stateMutability": "view",
      "type": "function"
    },
    {
      "inputs": [
        {
          "internalType": "uint16",
          "name": "chainId",
          "type": "uint16"
        }
      ],
      "name": "getRegisteredContract",
      "outputs": [
        {
          "internalType": "bytes32",
          "name": "",
          "type": "bytes32"
        }
      ],
      "stateMutability": "view",
      "type": "function"
    },
    {
      "inputs": [
        {
          "internalType": "uint16",
          "name": "chainId",
          "type": "uint16"
        }
      ],
      "name": "getRegisteredContractAddress",
      "outputs": [
        {
          "internalType": "address",
          "name": "",
          "type": "address"
        }
      ],
      "stateMutability": "view",
      "type": "function"
    },
    {
      "inputs": [
        {
          "internalType": "bytes",
          "name": "payload",
          "type": "bytes"
        },
        {
          "internalType": "bytes[]",
          "name": "additionalVaas",
          "type": "bytes[]"
        },
        {
          "internalType": "bytes32",
          "name": "sourceAddress",
          "type": "bytes32"
        },
        {
          "internalType": "uint16",
          "name": "sourceChain",
          "type": "uint16"
        },
        {
          "internalType": "bytes32",
          "name": "deliveryHash",
          "type": "bytes32"
        }
      ],
      "name": "receiveWormholeMessages",
      "outputs": [],
      "stateMutability": "payable",
      "type": "function"
    },
    {
      "inputs": [
        {
          "internalType": "uint16",
          "name": "chainId",
          "type": "uint16"
        },
        {
          "internalType": "bytes32",
          "name": "emitterAddress_",
          "type": "bytes32"
        }
      ],
      "name": "registerEmitter",
      "outputs": [],
      "stateMutability": "nonpayable",
      "type": "function"
    },
    {
      "inputs": [
        {
          "components": [
            {
              "internalType": "uint16",
              "name": "chainId",
              "type": "uint16"
            },
            {
              "internalType": "bytes32",
              "name": "addr",
              "type": "bytes32"
            }
          ],
          "internalType": "struct XAddress[]",
          "name": "emitters",
          "type": "tuple[]"
        }
      ],
      "name": "registerEmitters",
      "outputs": [],
      "stateMutability": "nonpayable",
      "type": "function"
    },
    {
      "inputs": [
        {
          "internalType": "uint16",
          "name": "chainId",
          "type": "uint16"
        },
        {
          "internalType": "uint64",
          "name": "sequence",
          "type": "uint64"
        },
        {
          "internalType": "uint16",
          "name": "targetChain",
          "type": "uint16"
        },
        {
          "internalType": "uint32",
          "name": "newGasLimit",
          "type": "uint32"
        },
        {
          "internalType": "uint128",
          "name": "newReceiverValue",
          "type": "uint128"
        }
      ],
      "name": "resend",
      "outputs": [
        {
          "internalType": "uint64",
          "name": "resendSequence",
          "type": "uint64"
        }
      ],
      "stateMutability": "payable",
      "type": "function"
    },
    {
      "inputs": [
        {
          "internalType": "bytes",
          "name": "_message",
          "type": "bytes"
        },
        {
          "internalType": "uint16",
          "name": "targetChain",
          "type": "uint16"
        },
        {
          "internalType": "uint32",
          "name": "gasLimit",
          "type": "uint32"
        },
        {
          "internalType": "uint128",
          "name": "receiverValue",
          "type": "uint128"
        }
      ],
      "name": "sendMessage",
      "outputs": [
        {
          "internalType": "uint64",
          "name": "sequence",
          "type": "uint64"
        }
      ],
      "stateMutability": "payable",
      "type": "function"
    },
    {
      "inputs": [
        {
          "internalType": "bytes",
          "name": "_message",
          "type": "bytes"
        },
        {
          "internalType": "uint16",
          "name": "targetChain",
          "type": "uint16"
        },
        {
          "internalType": "uint32",
          "name": "gasLimit",
          "type": "uint32"
        },
        {
          "internalType": "uint128",
          "name": "receiverValue",
          "type": "uint128"
        },
        {
          "components": [
            {
              "internalType": "uint16",
              "name": "chainId",
              "type": "uint16"
            },
            {
              "internalType": "bytes32",
              "name": "emitterAddress",
              "type": "bytes32"
            },
            {
              "internalType": "uint64",
              "name": "sequence",
              "type": "uint64"
            }
          ],
          "internalType": "struct VaaKey[]",
          "name": "vaaKeys",
          "type": "tuple[]"
        }
      ],
      "name": "sendMessageWithAdditionalVaas",
      "outputs": [
        {
          "internalType": "uint64",
          "name": "sequence",
          "type": "uint64"
        }
      ],
      "stateMutability": "payable",
      "type": "function"
    },
    {
      "inputs": [
        {
          "internalType": "bytes",
          "name": "_message",
          "type": "bytes"
        },
        {
          "internalType": "bytes",
          "name": "_forwardedMessage",
          "type": "bytes"
        },
        {
          "internalType": "uint16",
          "name": "targetChain",
          "type": "uint16"
        },
        {
          "internalType": "uint32",
          "name": "gasLimit",
          "type": "uint32"
        },
        {
          "internalType": "uint128",
          "name": "receiverValue",
          "type": "uint128"
        }
      ],
      "name": "sendMessageWithForwardedResponse",
      "outputs": [
        {
          "internalType": "uint64",
          "name": "sequence",
          "type": "uint64"
        }
      ],
      "stateMutability": "payable",
      "type": "function"
    },
    {
      "inputs": [
        {
          "internalType": "bytes",
          "name": "_message",
          "type": "bytes"
        },
        {
          "internalType": "bytes",
          "name": "_forwardedMessage",
          "type": "bytes"
        },
        {
          "internalType": "uint16",
          "name": "targetChain",
          "type": "uint16"
        },
        {
          "internalType": "uint32",
          "name": "gasLimit",
          "type": "uint32"
        },
        {
          "internalType": "uint128",
          "name": "receiverValue",
          "type": "uint128"
        },
        {
          "internalType": "uint16",
          "name": "refundChain",
          "type": "uint16"
        },
        {
          "internalType": "address",
          "name": "refundAddress",
          "type": "address"
        }
      ],
      "name": "sendMessageWithForwardedResponse",
      "outputs": [
        {
          "internalType": "uint64",
          "name": "sequence",
          "type": "uint64"
        }
      ],
      "stateMutability": "payable",
      "type": "function"
    },
    {
      "inputs": [
        {
          "internalType": "bytes",
          "name": "_message",
          "type": "bytes"
        },
        {
          "internalType": "bytes",
          "name": "_forwardedMessage",
          "type": "bytes"
        },
        {
          "internalType": "uint16",
          "name": "targetChain",
          "type": "uint16"
        },
        {
          "internalType": "uint32",
          "name": "gasLimit",
          "type": "uint32"
        },
        {
          "internalType": "uint128",
          "name": "receiverValue",
          "type": "uint128"
        }
      ],
      "name": "sendMessageWithMultiForwardedResponse",
      "outputs": [
        {
          "internalType": "uint64",
          "name": "sequence",
          "type": "uint64"
        }
      ],
      "stateMutability": "payable",
      "type": "function"
    },
    {
      "inputs": [
        {
          "internalType": "bytes",
          "name": "_message",
          "type": "bytes"
        },
        {
          "internalType": "uint16",
          "name": "targetChain",
          "type": "uint16"
        },
        {
          "internalType": "uint32",
          "name": "gasLimit",
          "type": "uint32"
        },
        {
          "internalType": "uint128",
          "name": "receiverValue",
          "type": "uint128"
        },
        {
          "internalType": "uint16",
          "name": "refundChain",
          "type": "uint16"
        },
        {
          "internalType": "address",
          "name": "refundAddress",
          "type": "address"
        }
      ],
      "name": "sendMessageWithRefund",
      "outputs": [
        {
          "internalType": "uint64",
          "name": "sequence",
          "type": "uint64"
        }
      ],
      "stateMutability": "payable",
      "type": "function"
    },
    {
      "inputs": [
        {
          "internalType": "uint16",
          "name": "targetChain",
          "type": "uint16"
        },
        {
          "internalType": "address",
          "name": "destination",
          "type": "address"
        },
        {
          "internalType": "uint32",
          "name": "gasLimit",
          "type": "uint32"
        },
        {
          "internalType": "uint16",
          "name": "refundChain",
          "type": "uint16"
        },
        {
          "internalType": "address",
          "name": "refundAddress",
          "type": "address"
        },
        {
          "internalType": "uint128",
          "name": "receiverValue",
          "type": "uint128"
        },
        {
          "internalType": "uint256",
          "name": "paymentForExtraReceiverValue",
          "type": "uint256"
        },
        {
          "internalType": "bytes",
          "name": "payload",
          "type": "bytes"
        },
        {
          "components": [
            {
              "internalType": "uint16",
              "name": "chainId",
              "type": "uint16"
            },
            {
              "internalType": "bytes32",
              "name": "emitterAddress",
              "type": "bytes32"
            },
            {
              "internalType": "uint64",
              "name": "sequence",
              "type": "uint64"
            }
          ],
          "internalType": "struct VaaKey[]",
          "name": "vaaKeys",
          "type": "tuple[]"
        }
      ],
      "name": "sendToEvm",
      "outputs": [
        {
          "internalType": "uint64",
          "name": "sequence",
          "type": "uint64"
        }
      ],
      "stateMutability": "payable",
      "type": "function"
    },
    {
      "stateMutability": "payable",
      "type": "receive"
    }
  ],
  "bytecode": {
    "object": "0x60e06040523480156200001157600080fd5b50604051620027673803806200276783398101604081905262000034916200006d565b6001600160a01b039182166080521660a0523360c052620000a5565b80516001600160a01b03811681146200006857600080fd5b919050565b600080604083850312156200008157600080fd5b6200008c8362000050565b91506200009c6020840162000050565b90509250929050565b60805160a05160c05161263e620001296000396000818161041401526111110152600081816104c801528181610655015281816106fc0152818161083701528181610a7001528181610b9b01528181610be201528181610e600152610ea3015260008181610868015281816108ed0152818161098d0152610a12015261263e6000f3fe60806040526004361061010d5760003560e01c806398542ae211610095578063bca4b0fa11610064578063bca4b0fa146102b1578063cba9272e146102d1578063ce6d41de146102e4578063da974c2b146102f9578063ea22b3cf1461031b57600080fd5b806398542ae21461024b578063aea3a4741461025e578063b922653214610271578063bbc209491461028457600080fd5b8063529dca32116100dc578063529dca32146101dd5780636c5df4b3146101f0578063710000301461020357806375abf68514610216578063899820c91461023857600080fd5b80630644c8d01461011957806316a4735e146101495780633d62cca01461016b578063475888d2146101aa57600080fd5b3661011457005b600080fd5b61012c6101273660046119f7565b61032e565b6040516001600160401b0390911681526020015b60405180910390f35b34801561015557600080fd5b50610169610164366004611a67565b610409565b005b34801561017757600080fd5b5061019c610186366004611adb565b61ffff1660009081526005602052604090205490565b604051908152602001610140565b3480156101b657600080fd5b506101c5610186366004611adb565b6040516001600160a01b039091168152602001610140565b6101696101eb366004611b22565b6104bd565b61012c6101fe366004611cf7565b610b97565b61012c610211366004611dcc565b610cdc565b34801561022257600080fd5b5061022b610d3f565b6040516101409190611f08565b61012c610246366004611f1b565b610e18565b34801561025757600080fd5b503061019c565b61012c61026c366004611f5e565b610fcc565b61012c61027f366004611dcc565b611097565b34801561029057600080fd5b506102a461029f366004611ff4565b6110ba565b604051610140919061209b565b3480156102bd57600080fd5b506101696102cc3660046120ae565b611106565b61012c6102df3660046120da565b611152565b3480156102f057600080fd5b506102a46111df565b34801561030557600080fd5b5061030e6112b7565b6040516101409190612174565b61012c6103293660046121d8565b61147d565b60008061037560405180606001604052806000600381111561035257610352612296565b8152602001888152602001604051806020016040528060008152508152506110ba565b90506103ff856103958761ffff1660009081526005602052604090205490565b86886103b18a61ffff1660009081526005602052604090205490565b604080516000808252602082019092528a91908990826103f9565b60408051606081018252600080825260208083018290529282015282526000199092019101816103cc5790505b50610b97565b9695505050505050565b336001600160a01b037f0000000000000000000000000000000000000000000000000000000000000000161461043e57600080fd5b60005b818110156104b85782828281811061045b5761045b6122ac565b905060400201602001356005600085858581811061047b5761047b6122ac565b6104919260206040909202019081019150611adb565b61ffff168152602081019190915260400160002055806104b0816122d8565b915050610441565b505050565b336001600160a01b037f0000000000000000000000000000000000000000000000000000000000000000161461052d5760405162461bcd60e51b815260206004820152601060248201526f2bb937b7339036b9b39739b2b73232b960811b60448201526064015b60405180910390fd5b6040805160a08101825284815261ffff841660208201819052918101839052606081018790526080810186905260008581556001805461ffff191690931790925560028390559060036105808882612371565b506080820151805161059c91600484019160209091019061180a565b509050506105c56040805160608101909152806000815260200160608152602001606081525090565b8551156105d8576105d5866114e2565b90505b6020810151600680546001810182556000919091527ff652222313e28459528d920b65115c16c04f3efc82aaedc97be59f3f377c0d3f019061061a9082612371565b5060028151600381111561063057610630612296565b148061064e575060038151600381111561064c5761064c612296565b145b1561081b577f00000000000000000000000000000000000000000000000000000000000000006001600160a01b0316634d48ec60348561069e8761ffff1660009081526005602052604090205490565b60408051606081019091526106d8908060005b815260200188604001518152602001604051806020016040528060008152508152506110ba565b6000806207a1208b6106fa8d61ffff1660009081526005602052604090205490565b7f00000000000000000000000000000000000000000000000000000000000000006001600160a01b03166324320c9f6040518163ffffffff1660e01b8152600401602060405180830381865afa158015610758573d6000803e3d6000fd5b505050506040513d601f19601f8201168201806040525081019061077c9190612430565b60408051600080825260208201909252906107bf565b60408051606081018252600080825260208083018290529282015282526000199092019101816107925790505b50600f6040518d63ffffffff1660e01b81526004016107e89b9a999897969594939291906124b3565b6000604051808303818588803b15801561080157600080fd5b505af1158015610815573d6000803e3d6000fd5b50505050505b60038151600381111561083057610830612296565b03610b8f577f00000000000000000000000000000000000000000000000000000000000000006001600160a01b0316634d48ec6060007f00000000000000000000000000000000000000000000000000000000000000006001600160a01b0316639a8a05926040518163ffffffff1660e01b8152600401602060405180830381865afa1580156108c4573d6000803e3d6000fd5b505050506040513d601f19601f820116820180604052508101906108e89190612540565b61096d7f00000000000000000000000000000000000000000000000000000000000000006001600160a01b0316639a8a05926040518163ffffffff1660e01b8152600401602060405180830381865afa158015610949573d6000803e3d6000fd5b505050506040513d601f19601f820116820180604052508101906101869190612540565b6040805160608101909152610984908060006106b1565b6000806207a1207f00000000000000000000000000000000000000000000000000000000000000006001600160a01b0316639a8a05926040518163ffffffff1660e01b8152600401602060405180830381865afa1580156109e9573d6000803e3d6000fd5b505050506040513d601f19601f82011682018060405250810190610a0d9190612540565b610a6e7f00000000000000000000000000000000000000000000000000000000000000006001600160a01b0316639a8a05926040518163ffffffff1660e01b8152600401602060405180830381865afa158015610949573d6000803e3d6000fd5b7f00000000000000000000000000000000000000000000000000000000000000006001600160a01b03166324320c9f6040518163ffffffff1660e01b8152600401602060405180830381865afa158015610acc573d6000803e3d6000fd5b505050506040513d601f19601f82011682018060405250810190610af09190612430565b6040805160008082526020820190925290610b33565b6040805160608101825260008082526020808301829052928201528252600019909201910181610b065790505b50600f6040518d63ffffffff1660e01b8152600401610b5c9b9a999897969594939291906124b3565b6000604051808303818588803b158015610b7557600080fd5b505af1158015610b89573d6000803e3d6000fd5b50505050505b505050505050565b60007f00000000000000000000000000000000000000000000000000000000000000006001600160a01b0316633a2c767d348c8c878a6001600160801b03168a8f63ffffffff168f8f7f00000000000000000000000000000000000000000000000000000000000000006001600160a01b03166324320c9f6040518163ffffffff1660e01b8152600401602060405180830381865afa158015610c3e573d6000803e3d6000fd5b505050506040513d601f19601f82011682018060405250810190610c629190612430565b8d60c86040518d63ffffffff1660e01b8152600401610c8b9b9a999897969594939291906124b3565b60206040518083038185885af1158015610ca9573d6000803e3d6000fd5b50505050506040513d601f19601f82011682018060405250810190610cce919061255d565b9a9950505050505050505050565b600080610d14604051806060016040528060026003811115610d0057610d00612296565b8152602001898152602001888152506110ba565b9050610d34856103958761ffff1660009081526005602052604090205490565b979650505050505050565b60606006805480602002602001604051908101604052809291908181526020016000905b82821015610e0f578382906000526020600020018054610d82906122f1565b80601f0160208091040260200160405190810160405280929190818152602001828054610dae906122f1565b8015610dfb5780601f10610dd057610100808354040283529160200191610dfb565b820191906000526020600020905b815481529060010190602001808311610dde57829003601f168201915b505050505081526020019060010190610d63565b50505050905090565b60008060405180606001604052808861ffff168152602001610e4a8961ffff1660009081526005602052604090205490565b8152602001876001600160401b031681525090507f00000000000000000000000000000000000000000000000000000000000000006001600160a01b0316638b0301b1348388876001600160801b03168963ffffffff167f00000000000000000000000000000000000000000000000000000000000000006001600160a01b03166324320c9f6040518163ffffffff1660e01b8152600401602060405180830381865afa158015610eff573d6000803e3d6000fd5b505050506040513d601f19601f82011682018060405250810190610f239190612430565b604080516001600160e01b031960e08a901b168152865161ffff90811660048301526020880151602483015296909101516001600160401b03166044820152949093166064850152608484019190915260a48301526001600160a01b031660c482015260e40160206040518083038185885af1158015610fa7573d6000803e3d6000fd5b50505050506040513d601f19601f82011682018060405250810190610d34919061255d565b600080611013604051806060016040528060006003811115610ff057610ff0612296565b81526020018a8152602001604051806020016040528060008152508152506110ba565b905061108b876110338961ffff1660009081526005602052604090205490565b8887878a600088816040519080825280602002602001820160405280156103f957604080516060810182526000808252602082810182905282840191909152840152600019909101908201816103cc57905050610b97565b98975050505050505050565b600080610d146040518060600160405280600380811115610d0057610d00612296565b805160609060038111156110d0576110d0612296565b6020808401518051604080870151805191516110f096959394930161257a565b6040516020818303038152906040529050919050565b336001600160a01b037f0000000000000000000000000000000000000000000000000000000000000000161461113b57600080fd5b61ffff909116600090815260056020526040902055565b60008061119960405180606001604052806000600381111561117657611176612296565b8152602001898152602001604051806020016040528060008152508152506110ba565b9050610d34866111b98861ffff1660009081526005602052604090205490565b87896111d58b61ffff1660009081526005602052604090205490565b896000888b610b97565b6006546060906000036111ff575060408051600081526020810190915290565b6006805461120f906001906125e2565b8154811061121f5761121f6122ac565b906000526020600020018054611234906122f1565b80601f0160208091040260200160405190810160405280929190818152602001828054611260906122f1565b80156112ad5780601f10611282576101008083540402835291602001916112ad565b820191906000526020600020905b81548152906001019060200180831161129057829003601f168201915b5050505050905090565b6040805160a08101825260008082526020820181905291810191909152606080820181905260808201526040805160a08101825260008054825260015461ffff166020830152600254928201929092526003805491929160608401919061131d906122f1565b80601f0160208091040260200160405190810160405280929190818152602001828054611349906122f1565b80156113965780601f1061136b57610100808354040283529160200191611396565b820191906000526020600020905b81548152906001019060200180831161137957829003601f168201915b5050505050815260200160048201805480602002602001604051908101604052809291908181526020016000905b828210156114705783829060005260206000200180546113e3906122f1565b80601f016020809104026020016040519081016040528092919081815260200182805461140f906122f1565b801561145c5780601f106114315761010080835404028352916020019161145c565b820191906000526020600020905b81548152906001019060200180831161143f57829003601f168201915b5050505050815260200190600101906113c4565b5050505081525050905090565b6000806114b56040518060600160405280600260038111156114a1576114a1612296565b81526020018b81526020018a8152506110ba565b90506114d5876110338961ffff1660009081526005602052604090205490565b9998505050505050505050565b6115076040805160608101909152806000815260200160608152602001606081525090565b6000611513838261163e565b60ff16600381111561152757611527612296565b8290600381111561153a5761153a612296565b9081600381111561154d5761154d612296565b90525061155b6001826125f5565b9050600061156984836116a0565b90506115766004836125f5565b915061158c848363ffffffff808516906116fd16565b60208401526115a163ffffffff8216836125f5565b91506115ad84836116a0565b90506115ba6004836125f5565b91506115d0848363ffffffff808516906116fd16565b60408401526115e563ffffffff8216836125f5565b9150835182146116375760405162461bcd60e51b815260206004820152601b60248201527f4465636f646564206d65737361676520696e636f72726563746c7900000000006044820152606401610524565b5050919050565b600061164b8260016125f5565b835110156116915760405162461bcd60e51b8152602060048201526013602482015272746f55696e74385f6f75744f66426f756e647360681b6044820152606401610524565b50818101600101515b92915050565b60006116ad8260046125f5565b835110156116f45760405162461bcd60e51b8152602060048201526014602482015273746f55696e7433325f6f75744f66426f756e647360601b6044820152606401610524565b50016004015190565b60608161170b81601f6125f5565b101561174a5760405162461bcd60e51b815260206004820152600e60248201526d736c6963655f6f766572666c6f7760901b6044820152606401610524565b61175482846125f5565b845110156117985760405162461bcd60e51b8152602060048201526011602482015270736c6963655f6f75744f66426f756e647360781b6044820152606401610524565b6060821580156117b75760405191506000825260208201604052611801565b6040519150601f8416801560200281840101858101878315602002848b0101015b818310156117f05780518352602092830192016117d8565b5050858452601f01601f1916604052505b50949350505050565b828054828255906000526020600020908101928215611850579160200282015b8281111561185057825182906118409082612371565b509160200191906001019061182a565b5061185c929150611860565b5090565b8082111561185c576000611874828261187d565b50600101611860565b508054611889906122f1565b6000825580601f10611899575050565b601f0160209004906000526020600020908101906118b791906118ba565b50565b5b8082111561185c57600081556001016118bb565b634e487b7160e01b600052604160045260246000fd5b604051606081016001600160401b0381118282101715611907576119076118cf565b60405290565b604051601f8201601f191681016001600160401b0381118282101715611935576119356118cf565b604052919050565b600082601f83011261194e57600080fd5b81356001600160401b03811115611967576119676118cf565b61197a601f8201601f191660200161190d565b81815284602083860101111561198f57600080fd5b816020850160208301376000918101602001919091529392505050565b61ffff811681146118b757600080fd5b80356119c7816119ac565b919050565b803563ffffffff811681146119c757600080fd5b80356001600160801b03811681146119c757600080fd5b60008060008060808587031215611a0d57600080fd5b84356001600160401b03811115611a2357600080fd5b611a2f8782880161193d565b9450506020850135611a40816119ac565b9250611a4e604086016119cc565b9150611a5c606086016119e0565b905092959194509250565b60008060208385031215611a7a57600080fd5b82356001600160401b0380821115611a9157600080fd5b818501915085601f830112611aa557600080fd5b813581811115611ab457600080fd5b8660208260061b8501011115611ac957600080fd5b60209290920196919550909350505050565b600060208284031215611aed57600080fd5b8135611af8816119ac565b9392505050565b60006001600160401b03821115611b1857611b186118cf565b5060051b60200190565b600080600080600060a08688031215611b3a57600080fd5b85356001600160401b0380821115611b5157600080fd5b611b5d89838a0161193d565b9650602091508188013581811115611b7457600080fd5b8801601f81018a13611b8557600080fd5b8035611b98611b9382611aff565b61190d565b81815260059190911b8201840190848101908c831115611bb757600080fd5b8584015b83811015611bef57803586811115611bd35760008081fd5b611be18f898389010161193d565b845250918601918601611bbb565b50985050505060408801359450611c0b915050606087016119bc565b949793965091946080013592915050565b6001600160a01b03811681146118b757600080fd5b80356119c781611c1c565b6001600160401b03811681146118b757600080fd5b600082601f830112611c6257600080fd5b81356020611c72611b9383611aff565b82815260609283028501820192828201919087851115611c9157600080fd5b8387015b85811015611cea5781818a031215611cad5760008081fd5b611cb56118e5565b8135611cc0816119ac565b81528186013586820152604080830135611cd981611c3c565b908201528452928401928101611c95565b5090979650505050505050565b60008060008060008060008060006101208a8c031215611d1657600080fd5b8935611d21816119ac565b985060208a0135611d3181611c1c565b9750611d3f60408b016119cc565b9650611d4d60608b016119bc565b9550611d5b60808b01611c31565b9450611d6960a08b016119e0565b935060c08a0135925060e08a01356001600160401b0380821115611d8c57600080fd5b611d988d838e0161193d565b93506101008c0135915080821115611daf57600080fd5b50611dbc8c828d01611c51565b9150509295985092959850929598565b600080600080600060a08688031215611de457600080fd5b85356001600160401b0380821115611dfb57600080fd5b611e0789838a0161193d565b96506020880135915080821115611e1d57600080fd5b50611e2a8882890161193d565b9450506040860135611e3b816119ac565b9250611e49606087016119cc565b9150611e57608087016119e0565b90509295509295909350565b60005b83811015611e7e578181015183820152602001611e66565b50506000910152565b60008151808452611e9f816020860160208601611e63565b601f01601f19169290920160200192915050565b600081518084526020808501808196508360051b8101915082860160005b85811015611efb578284038952611ee9848351611e87565b98850198935090840190600101611ed1565b5091979650505050505050565b602081526000611af86020830184611eb3565b600080600080600060a08688031215611f3357600080fd5b8535611f3e816119ac565b94506020860135611f4e81611c3c565b93506040860135611e3b816119ac565b60008060008060008060c08789031215611f7757600080fd5b86356001600160401b03811115611f8d57600080fd5b611f9989828a0161193d565b9650506020870135611faa816119ac565b9450611fb8604088016119cc565b9350611fc6606088016119e0565b92506080870135611fd6816119ac565b915060a0870135611fe681611c1c565b809150509295509295509295565b60006020828403121561200657600080fd5b81356001600160401b038082111561201d57600080fd5b908301906060828603121561203157600080fd5b6120396118e5565b82356004811061204857600080fd5b815260208301358281111561205c57600080fd5b6120688782860161193d565b60208301525060408301358281111561208057600080fd5b61208c8782860161193d565b60408301525095945050505050565b602081526000611af86020830184611e87565b600080604083850312156120c157600080fd5b82356120cc816119ac565b946020939093013593505050565b600080600080600060a086880312156120f257600080fd5b85356001600160401b038082111561210957600080fd5b61211589838a0161193d565b965060208801359150612127826119ac565b819550612136604089016119cc565b9450612144606089016119e0565b9350608088013591508082111561215a57600080fd5b5061216788828901611c51565b9150509295509295909350565b602081528151602082015261ffff6020830151166040820152604082015160608201526000606083015160a060808401526121b260c0840182611e87565b90506080840151601f198483030160a08501526121cf8282611eb3565b95945050505050565b600080600080600080600060e0888a0312156121f357600080fd5b87356001600160401b038082111561220a57600080fd5b6122168b838c0161193d565b985060208a013591508082111561222c57600080fd5b506122398a828b0161193d565b965050604088013561224a816119ac565b9450612258606089016119cc565b9350612266608089016119e0565b925060a0880135612276816119ac565b915060c088013561228681611c1c565b8091505092959891949750929550565b634e487b7160e01b600052602160045260246000fd5b634e487b7160e01b600052603260045260246000fd5b634e487b7160e01b600052601160045260246000fd5b6000600182016122ea576122ea6122c2565b5060010190565b600181811c9082168061230557607f821691505b60208210810361232557634e487b7160e01b600052602260045260246000fd5b50919050565b601f8211156104b857600081815260208120601f850160051c810160208610156123525750805b601f850160051c820191505b81811015610b8f5782815560010161235e565b81516001600160401b0381111561238a5761238a6118cf565b61239e8161239884546122f1565b8461232b565b602080601f8311600181146123d357600084156123bb5750858301515b600019600386901b1c1916600185901b178555610b8f565b600085815260208120601f198616915b82811015612402578886015182559484019460019091019084016123e3565b50858210156124205787850151600019600388901b60f8161c191681555b5050505050600190811b01905550565b60006020828403121561244257600080fd5b8151611af881611c1c565b600081518084526020808501945080840160005b838110156124a857612495878351805161ffff168252602080820151908301526040908101516001600160401b0316910152565b6060969096019590820190600101612461565b509495945050505050565b600061016061ffff808f16845260018060a01b03808f1660208601528260408601526124e18386018f611e87565b92508c60608601528b60808601528a60a0860152818a1660c086015280891660e08601528088166101008601525050828103610120840152612523818661244d565b91505060ff83166101408301529c9b505050505050505050505050565b60006020828403121561255257600080fd5b8151611af8816119ac565b60006020828403121561256f57600080fd5b8151611af881611c3c565b60ff60f81b8660f81b168152600063ffffffff60e01b808760e01b16600184015285516125ae816005860160208a01611e63565b8084019050818660e01b166005820152845191506125d3826009830160208801611e63565b01600901979650505050505050565b8181038181111561169a5761169a6122c2565b8082018082111561169a5761169a6122c256fea2646970667358221220c5a0e873b3b8b703bb03aabfa22c7b2b2930069658e7b32196f7af9ccec7f65564736f6c63430008130033",
    "linkReferences": {}
  },
  "methodIdentifiers": {
    "emitterAddress()": "98542ae2",
    "encodeMessage((uint8,bytes,bytes))": "bbc20949",
    "getDeliveryData()": "da974c2b",
    "getMessage()": "ce6d41de",
    "getMessageHistory()": "75abf685",
    "getRegisteredContract(uint16)": "3d62cca0",
    "getRegisteredContractAddress(uint16)": "475888d2",
    "receiveWormholeMessages(bytes,bytes[],bytes32,uint16,bytes32)": "529dca32",
    "registerEmitter(uint16,bytes32)": "bca4b0fa",
    "registerEmitters((uint16,bytes32)[])": "16a4735e",
    "resend(uint16,uint64,uint16,uint32,uint128)": "899820c9",
    "sendMessage(bytes,uint16,uint32,uint128)": "0644c8d0",
    "sendMessageWithAdditionalVaas(bytes,uint16,uint32,uint128,(uint16,bytes32,uint64)[])": "cba9272e",
    "sendMessageWithForwardedResponse(bytes,bytes,uint16,uint32,uint128)": "71000030",
    "sendMessageWithForwardedResponse(bytes,bytes,uint16,uint32,uint128,uint16,address)": "ea22b3cf",
    "sendMessageWithMultiForwardedResponse(bytes,bytes,uint16,uint32,uint128)": "b9226532",
    "sendMessageWithRefund(bytes,uint16,uint32,uint128,uint16,address)": "aea3a474",
    "sendToEvm(uint16,address,uint32,uint16,address,uint128,uint256,bytes,(uint16,bytes32,uint64)[])": "6c5df4b3"
  },
  "id": 11
}