{
  "abi": [
    {
      "anonymous": false,
      "inputs": [
        {
          "indexed": false,
          "internalType": "address",
          "name": "previousAdmin",
          "type": "address"
        },
        {
          "indexed": false,
          "internalType": "address",
          "name": "newAdmin",
          "type": "address"
        }
      ],
      "name": "AdminChanged",
      "type": "event"
    },
    {
      "anonymous": false,
      "inputs": [
        {
          "indexed": true,
          "internalType": "address",
          "name": "beacon",
          "type": "address"
        }
      ],
      "name": "BeaconUpgraded",
      "type": "event"
    },
    {
      "anonymous": false,
      "inputs": [
        {
          "indexed": true,
          "internalType": "address",
          "name": "oldContract",
          "type": "address"
        },
        {
          "indexed": true,
          "internalType": "address",
          "name": "newContract",
          "type": "address"
        }
      ],
      "name": "ContractUpgraded",
      "type": "event"
    },
    {
      "anonymous": false,
      "inputs": [
        {
          "indexed": true,
          "internalType": "address",
          "name": "implementation",
          "type": "address"
        }
      ],
      "name": "Upgraded",
      "type": "event"
    },
    {
      "inputs": [],
      "name": "WETH",
      "outputs": [
        {
          "internalType": "contract IWETH",
          "name": "",
          "type": "address"
        }
      ],
      "stateMutability": "view",
      "type": "function"
    },
    {
      "inputs": [
        {
          "internalType": "bytes",
          "name": "encoded",
          "type": "bytes"
        }
      ],
      "name": "_parseTransferCommon",
      "outputs": [
        {
          "components": [
            {
              "internalType": "uint8",
              "name": "payloadID",
              "type": "uint8"
            },
            {
              "internalType": "uint256",
              "name": "amount",
              "type": "uint256"
            },
            {
              "internalType": "bytes32",
              "name": "tokenAddress",
              "type": "bytes32"
            },
            {
              "internalType": "uint16",
              "name": "tokenChain",
              "type": "uint16"
            },
            {
              "internalType": "bytes32",
              "name": "to",
              "type": "bytes32"
            },
            {
              "internalType": "uint16",
              "name": "toChain",
              "type": "uint16"
            },
            {
              "internalType": "uint256",
              "name": "fee",
              "type": "uint256"
            }
          ],
          "internalType": "struct BridgeStructs.Transfer",
          "name": "transfer",
          "type": "tuple"
        }
      ],
      "stateMutability": "pure",
      "type": "function"
    },
    {
      "inputs": [
        {
          "internalType": "address",
          "name": "tokenAddress",
          "type": "address"
        },
        {
          "internalType": "uint32",
          "name": "nonce",
          "type": "uint32"
        }
      ],
      "name": "attestToken",
      "outputs": [
        {
          "internalType": "uint64",
          "name": "sequence",
          "type": "uint64"
        }
      ],
      "stateMutability": "payable",
      "type": "function"
    },
    {
      "inputs": [
        {
          "internalType": "uint16",
          "name": "chainId_",
          "type": "uint16"
        }
      ],
      "name": "bridgeContracts",
      "outputs": [
        {
          "internalType": "bytes32",
          "name": "",
          "type": "bytes32"
        }
      ],
      "stateMutability": "view",
      "type": "function"
    },
    {
      "inputs": [],
      "name": "chainId",
      "outputs": [
        {
          "internalType": "uint16",
          "name": "",
          "type": "uint16"
        }
      ],
      "stateMutability": "view",
      "type": "function"
    },
    {
      "inputs": [
        {
          "internalType": "bytes",
          "name": "encodedVm",
          "type": "bytes"
        }
      ],
      "name": "completeTransfer",
      "outputs": [],
      "stateMutability": "nonpayable",
      "type": "function"
    },
    {
      "inputs": [
        {
          "internalType": "bytes",
          "name": "encodedVm",
          "type": "bytes"
        }
      ],
      "name": "completeTransferAndUnwrapETH",
      "outputs": [],
      "stateMutability": "nonpayable",
      "type": "function"
    },
    {
      "inputs": [
        {
          "internalType": "bytes",
          "name": "encodedVm",
          "type": "bytes"
        }
      ],
      "name": "completeTransferAndUnwrapETHWithPayload",
      "outputs": [
        {
          "internalType": "bytes",
          "name": "",
          "type": "bytes"
        }
      ],
      "stateMutability": "nonpayable",
      "type": "function"
    },
    {
      "inputs": [
        {
          "internalType": "bytes",
          "name": "encodedVm",
          "type": "bytes"
        }
      ],
      "name": "completeTransferWithPayload",
      "outputs": [
        {
          "internalType": "bytes",
          "name": "",
          "type": "bytes"
        }
      ],
      "stateMutability": "nonpayable",
      "type": "function"
    },
    {
      "inputs": [
        {
          "internalType": "bytes",
          "name": "encodedVm",
          "type": "bytes"
        }
      ],
      "name": "createWrapped",
      "outputs": [
        {
          "internalType": "address",
          "name": "token",
          "type": "address"
        }
      ],
      "stateMutability": "nonpayable",
      "type": "function"
    },
    {
      "inputs": [
        {
          "components": [
            {
              "internalType": "uint8",
              "name": "payloadID",
              "type": "uint8"
            },
            {
              "internalType": "bytes32",
              "name": "tokenAddress",
              "type": "bytes32"
            },
            {
              "internalType": "uint16",
              "name": "tokenChain",
              "type": "uint16"
            },
            {
              "internalType": "uint8",
              "name": "decimals",
              "type": "uint8"
            },
            {
              "internalType": "bytes32",
              "name": "symbol",
              "type": "bytes32"
            },
            {
              "internalType": "bytes32",
              "name": "name",
              "type": "bytes32"
            }
          ],
          "internalType": "struct BridgeStructs.AssetMeta",
          "name": "meta",
          "type": "tuple"
        }
      ],
      "name": "encodeAssetMeta",
      "outputs": [
        {
          "internalType": "bytes",
          "name": "encoded",
          "type": "bytes"
        }
      ],
      "stateMutability": "pure",
      "type": "function"
    },
    {
      "inputs": [
        {
          "components": [
            {
              "internalType": "uint8",
              "name": "payloadID",
              "type": "uint8"
            },
            {
              "internalType": "uint256",
              "name": "amount",
              "type": "uint256"
            },
            {
              "internalType": "bytes32",
              "name": "tokenAddress",
              "type": "bytes32"
            },
            {
              "internalType": "uint16",
              "name": "tokenChain",
              "type": "uint16"
            },
            {
              "internalType": "bytes32",
              "name": "to",
              "type": "bytes32"
            },
            {
              "internalType": "uint16",
              "name": "toChain",
              "type": "uint16"
            },
            {
              "internalType": "uint256",
              "name": "fee",
              "type": "uint256"
            }
          ],
          "internalType": "struct BridgeStructs.Transfer",
          "name": "transfer",
          "type": "tuple"
        }
      ],
      "name": "encodeTransfer",
      "outputs": [
        {
          "internalType": "bytes",
          "name": "encoded",
          "type": "bytes"
        }
      ],
      "stateMutability": "pure",
      "type": "function"
    },
    {
      "inputs": [
        {
          "components": [
            {
              "internalType": "uint8",
              "name": "payloadID",
              "type": "uint8"
            },
            {
              "internalType": "uint256",
              "name": "amount",
              "type": "uint256"
            },
            {
              "internalType": "bytes32",
              "name": "tokenAddress",
              "type": "bytes32"
            },
            {
              "internalType": "uint16",
              "name": "tokenChain",
              "type": "uint16"
            },
            {
              "internalType": "bytes32",
              "name": "to",
              "type": "bytes32"
            },
            {
              "internalType": "uint16",
              "name": "toChain",
              "type": "uint16"
            },
            {
              "internalType": "bytes32",
              "name": "fromAddress",
              "type": "bytes32"
            },
            {
              "internalType": "bytes",
              "name": "payload",
              "type": "bytes"
            }
          ],
          "internalType": "struct BridgeStructs.TransferWithPayload",
          "name": "transfer",
          "type": "tuple"
        }
      ],
      "name": "encodeTransferWithPayload",
      "outputs": [
        {
          "internalType": "bytes",
          "name": "encoded",
          "type": "bytes"
        }
      ],
      "stateMutability": "pure",
      "type": "function"
    },
    {
      "inputs": [],
      "name": "evmChainId",
      "outputs": [
        {
          "internalType": "uint256",
          "name": "",
          "type": "uint256"
        }
      ],
      "stateMutability": "view",
      "type": "function"
    },
    {
      "inputs": [],
      "name": "finality",
      "outputs": [
        {
          "internalType": "uint8",
          "name": "",
          "type": "uint8"
        }
      ],
      "stateMutability": "view",
      "type": "function"
    },
    {
      "inputs": [
        {
          "internalType": "bytes32",
          "name": "hash",
          "type": "bytes32"
        }
      ],
      "name": "governanceActionIsConsumed",
      "outputs": [
        {
          "internalType": "bool",
          "name": "",
          "type": "bool"
        }
      ],
      "stateMutability": "view",
      "type": "function"
    },
    {
      "inputs": [],
      "name": "governanceChainId",
      "outputs": [
        {
          "internalType": "uint16",
          "name": "",
          "type": "uint16"
        }
      ],
      "stateMutability": "view",
      "type": "function"
    },
    {
      "inputs": [],
      "name": "governanceContract",
      "outputs": [
        {
          "internalType": "bytes32",
          "name": "",
          "type": "bytes32"
        }
      ],
      "stateMutability": "view",
      "type": "function"
    },
    {
      "inputs": [],
      "name": "isFork",
      "outputs": [
        {
          "internalType": "bool",
          "name": "",
          "type": "bool"
        }
      ],
      "stateMutability": "view",
      "type": "function"
    },
    {
      "inputs": [
        {
          "internalType": "address",
          "name": "impl",
          "type": "address"
        }
      ],
      "name": "isInitialized",
      "outputs": [
        {
          "internalType": "bool",
          "name": "",
          "type": "bool"
        }
      ],
      "stateMutability": "view",
      "type": "function"
    },
    {
      "inputs": [
        {
          "internalType": "bytes32",
          "name": "hash",
          "type": "bytes32"
        }
      ],
      "name": "isTransferCompleted",
      "outputs": [
        {
          "internalType": "bool",
          "name": "",
          "type": "bool"
        }
      ],
      "stateMutability": "view",
      "type": "function"
    },
    {
      "inputs": [
        {
          "internalType": "address",
          "name": "token",
          "type": "address"
        }
      ],
      "name": "isWrappedAsset",
      "outputs": [
        {
          "internalType": "bool",
          "name": "",
          "type": "bool"
        }
      ],
      "stateMutability": "view",
      "type": "function"
    },
    {
      "inputs": [
        {
          "internalType": "address",
          "name": "token",
          "type": "address"
        }
      ],
      "name": "outstandingBridged",
      "outputs": [
        {
          "internalType": "uint256",
          "name": "",
          "type": "uint256"
        }
      ],
      "stateMutability": "view",
      "type": "function"
    },
    {
      "inputs": [
        {
          "internalType": "bytes",
          "name": "encoded",
          "type": "bytes"
        }
      ],
      "name": "parseAssetMeta",
      "outputs": [
        {
          "components": [
            {
              "internalType": "uint8",
              "name": "payloadID",
              "type": "uint8"
            },
            {
              "internalType": "bytes32",
              "name": "tokenAddress",
              "type": "bytes32"
            },
            {
              "internalType": "uint16",
              "name": "tokenChain",
              "type": "uint16"
            },
            {
              "internalType": "uint8",
              "name": "decimals",
              "type": "uint8"
            },
            {
              "internalType": "bytes32",
              "name": "symbol",
              "type": "bytes32"
            },
            {
              "internalType": "bytes32",
              "name": "name",
              "type": "bytes32"
            }
          ],
          "internalType": "struct BridgeStructs.AssetMeta",
          "name": "meta",
          "type": "tuple"
        }
      ],
      "stateMutability": "pure",
      "type": "function"
    },
    {
      "inputs": [
        {
          "internalType": "bytes",
          "name": "encoded",
          "type": "bytes"
        }
      ],
      "name": "parsePayloadID",
      "outputs": [
        {
          "internalType": "uint8",
          "name": "payloadID",
          "type": "uint8"
        }
      ],
      "stateMutability": "pure",
      "type": "function"
    },
    {
      "inputs": [
        {
          "internalType": "bytes",
          "name": "encodedRecoverChainId",
          "type": "bytes"
        }
      ],
      "name": "parseRecoverChainId",
      "outputs": [
        {
          "components": [
            {
              "internalType": "bytes32",
              "name": "module",
              "type": "bytes32"
            },
            {
              "internalType": "uint8",
              "name": "action",
              "type": "uint8"
            },
            {
              "internalType": "uint256",
              "name": "evmChainId",
              "type": "uint256"
            },
            {
              "internalType": "uint16",
              "name": "newChainId",
              "type": "uint16"
            }
          ],
          "internalType": "struct BridgeStructs.RecoverChainId",
          "name": "rci",
          "type": "tuple"
        }
      ],
      "stateMutability": "pure",
      "type": "function"
    },
    {
      "inputs": [
        {
          "internalType": "bytes",
          "name": "encoded",
          "type": "bytes"
        }
      ],
      "name": "parseRegisterChain",
      "outputs": [
        {
          "components": [
            {
              "internalType": "bytes32",
              "name": "module",
              "type": "bytes32"
            },
            {
              "internalType": "uint8",
              "name": "action",
              "type": "uint8"
            },
            {
              "internalType": "uint16",
              "name": "chainId",
              "type": "uint16"
            },
            {
              "internalType": "uint16",
              "name": "emitterChainID",
              "type": "uint16"
            },
            {
              "internalType": "bytes32",
              "name": "emitterAddress",
              "type": "bytes32"
            }
          ],
          "internalType": "struct BridgeStructs.RegisterChain",
          "name": "chain",
          "type": "tuple"
        }
      ],
      "stateMutability": "pure",
      "type": "function"
    },
    {
      "inputs": [
        {
          "internalType": "bytes",
          "name": "encoded",
          "type": "bytes"
        }
      ],
      "name": "parseTransfer",
      "outputs": [
        {
          "components": [
            {
              "internalType": "uint8",
              "name": "payloadID",
              "type": "uint8"
            },
            {
              "internalType": "uint256",
              "name": "amount",
              "type": "uint256"
            },
            {
              "internalType": "bytes32",
              "name": "tokenAddress",
              "type": "bytes32"
            },
            {
              "internalType": "uint16",
              "name": "tokenChain",
              "type": "uint16"
            },
            {
              "internalType": "bytes32",
              "name": "to",
              "type": "bytes32"
            },
            {
              "internalType": "uint16",
              "name": "toChain",
              "type": "uint16"
            },
            {
              "internalType": "uint256",
              "name": "fee",
              "type": "uint256"
            }
          ],
          "internalType": "struct BridgeStructs.Transfer",
          "name": "transfer",
          "type": "tuple"
        }
      ],
      "stateMutability": "pure",
      "type": "function"
    },
    {
      "inputs": [
        {
          "internalType": "bytes",
          "name": "encoded",
          "type": "bytes"
        }
      ],
      "name": "parseTransferWithPayload",
      "outputs": [
        {
          "components": [
            {
              "internalType": "uint8",
              "name": "payloadID",
              "type": "uint8"
            },
            {
              "internalType": "uint256",
              "name": "amount",
              "type": "uint256"
            },
            {
              "internalType": "bytes32",
              "name": "tokenAddress",
              "type": "bytes32"
            },
            {
              "internalType": "uint16",
              "name": "tokenChain",
              "type": "uint16"
            },
            {
              "internalType": "bytes32",
              "name": "to",
              "type": "bytes32"
            },
            {
              "internalType": "uint16",
              "name": "toChain",
              "type": "uint16"
            },
            {
              "internalType": "bytes32",
              "name": "fromAddress",
              "type": "bytes32"
            },
            {
              "internalType": "bytes",
              "name": "payload",
              "type": "bytes"
            }
          ],
          "internalType": "struct BridgeStructs.TransferWithPayload",
          "name": "transfer",
          "type": "tuple"
        }
      ],
      "stateMutability": "pure",
      "type": "function"
    },
    {
      "inputs": [
        {
          "internalType": "bytes",
          "name": "encoded",
          "type": "bytes"
        }
      ],
      "name": "parseUpgrade",
      "outputs": [
        {
          "components": [
            {
              "internalType": "bytes32",
              "name": "module",
              "type": "bytes32"
            },
            {
              "internalType": "uint8",
              "name": "action",
              "type": "uint8"
            },
            {
              "internalType": "uint16",
              "name": "chainId",
              "type": "uint16"
            },
            {
              "internalType": "bytes32",
              "name": "newContract",
              "type": "bytes32"
            }
          ],
          "internalType": "struct BridgeStructs.UpgradeContract",
          "name": "chain",
          "type": "tuple"
        }
      ],
      "stateMutability": "pure",
      "type": "function"
    },
    {
      "inputs": [
        {
          "internalType": "bytes",
          "name": "encodedVM",
          "type": "bytes"
        }
      ],
      "name": "registerChain",
      "outputs": [],
      "stateMutability": "nonpayable",
      "type": "function"
    },
    {
      "inputs": [
        {
          "internalType": "bytes",
          "name": "encodedVM",
          "type": "bytes"
        }
      ],
      "name": "submitRecoverChainId",
      "outputs": [],
      "stateMutability": "nonpayable",
      "type": "function"
    },
    {
      "inputs": [],
      "name": "tokenImplementation",
      "outputs": [
        {
          "internalType": "address",
          "name": "",
          "type": "address"
        }
      ],
      "stateMutability": "view",
      "type": "function"
    },
    {
      "inputs": [
        {
          "internalType": "address",
          "name": "token",
          "type": "address"
        },
        {
          "internalType": "uint256",
          "name": "amount",
          "type": "uint256"
        },
        {
          "internalType": "uint16",
          "name": "recipientChain",
          "type": "uint16"
        },
        {
          "internalType": "bytes32",
          "name": "recipient",
          "type": "bytes32"
        },
        {
          "internalType": "uint256",
          "name": "arbiterFee",
          "type": "uint256"
        },
        {
          "internalType": "uint32",
          "name": "nonce",
          "type": "uint32"
        }
      ],
      "name": "transferTokens",
      "outputs": [
        {
          "internalType": "uint64",
          "name": "sequence",
          "type": "uint64"
        }
      ],
      "stateMutability": "payable",
      "type": "function"
    },
    {
      "inputs": [
        {
          "internalType": "address",
          "name": "token",
          "type": "address"
        },
        {
          "internalType": "uint256",
          "name": "amount",
          "type": "uint256"
        },
        {
          "internalType": "uint16",
          "name": "recipientChain",
          "type": "uint16"
        },
        {
          "internalType": "bytes32",
          "name": "recipient",
          "type": "bytes32"
        },
        {
          "internalType": "uint32",
          "name": "nonce",
          "type": "uint32"
        },
        {
          "internalType": "bytes",
          "name": "payload",
          "type": "bytes"
        }
      ],
      "name": "transferTokensWithPayload",
      "outputs": [
        {
          "internalType": "uint64",
          "name": "sequence",
          "type": "uint64"
        }
      ],
      "stateMutability": "payable",
      "type": "function"
    },
    {
      "inputs": [
        {
          "internalType": "bytes",
          "name": "encodedVm",
          "type": "bytes"
        }
      ],
      "name": "updateWrapped",
      "outputs": [
        {
          "internalType": "address",
          "name": "token",
          "type": "address"
        }
      ],
      "stateMutability": "nonpayable",
      "type": "function"
    },
    {
      "inputs": [
        {
          "internalType": "bytes",
          "name": "encodedVM",
          "type": "bytes"
        }
      ],
      "name": "upgrade",
      "outputs": [],
      "stateMutability": "nonpayable",
      "type": "function"
    },
    {
      "inputs": [],
      "name": "wormhole",
      "outputs": [
        {
          "internalType": "contract IWormhole",
          "name": "",
          "type": "address"
        }
      ],
      "stateMutability": "view",
      "type": "function"
    },
    {
      "inputs": [
        {
          "internalType": "uint16",
          "name": "recipientChain",
          "type": "uint16"
        },
        {
          "internalType": "bytes32",
          "name": "recipient",
          "type": "bytes32"
        },
        {
          "internalType": "uint256",
          "name": "arbiterFee",
          "type": "uint256"
        },
        {
          "internalType": "uint32",
          "name": "nonce",
          "type": "uint32"
        }
      ],
      "name": "wrapAndTransferETH",
      "outputs": [
        {
          "internalType": "uint64",
          "name": "sequence",
          "type": "uint64"
        }
      ],
      "stateMutability": "payable",
      "type": "function"
    },
    {
      "inputs": [
        {
          "internalType": "uint16",
          "name": "recipientChain",
          "type": "uint16"
        },
        {
          "internalType": "bytes32",
          "name": "recipient",
          "type": "bytes32"
        },
        {
          "internalType": "uint32",
          "name": "nonce",
          "type": "uint32"
        },
        {
          "internalType": "bytes",
          "name": "payload",
          "type": "bytes"
        }
      ],
      "name": "wrapAndTransferETHWithPayload",
      "outputs": [
        {
          "internalType": "uint64",
          "name": "sequence",
          "type": "uint64"
        }
      ],
      "stateMutability": "payable",
      "type": "function"
    },
    {
      "inputs": [
        {
          "internalType": "uint16",
          "name": "tokenChainId",
          "type": "uint16"
        },
        {
          "internalType": "bytes32",
          "name": "tokenAddress",
          "type": "bytes32"
        }
      ],
      "name": "wrappedAsset",
      "outputs": [
        {
          "internalType": "address",
          "name": "",
          "type": "address"
        }
      ],
      "stateMutability": "view",
      "type": "function"
    },
    {
      "stateMutability": "payable",
      "type": "receive"
    }
  ],
  "bytecode": {
    "object": "0x608060405234801561001057600080fd5b506001600d55615837806100256000396000f3fe6080604052600436106200027b5760003560e01c8063ad5c46481162000153578063cb4cfea811620000c5578063e89bc4011162000084578063e89bc401146200094e578063ea63738d1462000973578063f768441f14620009a7578063fbe3c2cd14620009cc578063fbeeacd914620009ed578063ff200cde1462000a4d57600080fd5b8063cb4cfea8146200084f578063d56e2e2414620008af578063d60b347f14620008d4578063e039f2241462000911578063e8059810146200092957600080fd5b8063bee9cdfc1162000112578063bee9cdfc14620007c0578063c3f511c114620007d7578063c48fa11514620007fc578063c5a5ebda1462000813578063c6878519146200082a57600080fd5b8063ad5c464814620006f5578063ad66a5f11462000715578063b046223b146200074a578063b172b222146200076f578063b96c7e4d146200078657600080fd5b80632c3c02a411620001ed57806384acd1bb11620001ac57806384acd1bb146200063b5780639981509f146200065b5780639a8a05921462000672578063a5799f93146200069c578063aa4efa5b14620006c157600080fd5b80632c3c02a4146200057f5780632f3a3d5d14620005b35780635f85426614620005d357806364d42b1714620005f8578063739fc8d1146200061957600080fd5b80631a2be4da116200023a5780631a2be4da14620004115780631c8475e4146200045f5780631ff1e28614620004935780632539464514620004d15780632b51137514620004f657600080fd5b806301f53255146200028857806307dfd8fb14620003065780630f50900814620003825780630f5287b014620003ba578063178149e714620003ea57600080fd5b366200028357005b600080fd5b3480156200029557600080fd5b50620002ad620002a736600462004280565b62000a72565b604051620002fd9190600060a0820190508251825260ff6020840151166020830152604083015161ffff808216604085015280606086015116606085015250506080830151608083015292915050565b60405180910390f35b3480156200031357600080fd5b506200032b6200032536600462004280565b62000bee565b604051620002fd9190600060c08201905060ff83511682526020830151602083015261ffff604084015116604083015260ff60608401511660608301526080830151608083015260a083015160a083015292915050565b3480156200038f57600080fd5b50620003a7620003a136600462004280565b62000d7d565b60405160ff9091168152602001620002fd565b620003d1620003cb36600462004309565b62000d91565b6040516001600160401b039091168152602001620002fd565b348015620003f757600080fd5b506200040f6200040936600462004280565b62000e34565b005b3480156200041e57600080fd5b506200044e6200043036600462004375565b6001600160a01b031660009081526009602052604090205460ff1690565b6040519015158152602001620002fd565b3480156200046c57600080fd5b50620004846200047e36600462004280565b62000f50565b604051620002fd9190620043e7565b348015620004a057600080fd5b50620004b8620004b2366004620043fc565b62000f5f565b6040516001600160a01b039091168152602001620002fd565b348015620004de57600080fd5b506200040f620004f036600462004280565b62000f8b565b3480156200050357600080fd5b506200051b6200051536600462004280565b6200109b565b604051620002fd9190600060e08201905060ff83511682526020830151602083015260408301516040830152606083015161ffff8082166060850152608085015160808501528060a08601511660a0850152505060c083015160c083015292915050565b3480156200058c57600080fd5b506200044e6200059e3660046200442b565b60009081526005602052604090205460ff1690565b348015620005c057600080fd5b506001546001600160a01b0316620004b8565b348015620005e057600080fd5b5062000484620005f236600462004462565b6200120c565b3480156200060557600080fd5b50600c545b604051908152602001620002fd565b3480156200062657600080fd5b50600254640100000000900460ff16620003a7565b3480156200064857600080fd5b506000546001600160a01b0316620004b8565b620003d16200066c36600462004509565b620012a1565b3480156200067f57600080fd5b5060025461ffff165b60405161ffff9091168152602001620002fd565b348015620006a957600080fd5b506200040f620006bb36600462004280565b620012e1565b348015620006ce57600080fd5b506200044e620006e03660046200442b565b60009081526006602052604090205460ff1690565b3480156200070257600080fd5b506004546001600160a01b0316620004b8565b3480156200072257600080fd5b506200060a6200073436600462004558565b61ffff166000908152600b602052604090205490565b3480156200075757600080fd5b50620004846200076936600462004578565b6200144d565b3480156200077c57600080fd5b506003546200060a565b3480156200079357600080fd5b506200060a620007a536600462004375565b6001600160a01b03166000908152600a602052604090205490565b620003d1620007d136600462004613565b620014c6565b348015620007e457600080fd5b5062000484620007f636600462004280565b620014f9565b620003d16200080d36600462004686565b62001508565b620003d162000824366004620046c2565b6200181d565b3480156200083757600080fd5b506200040f6200084936600462004280565b620018ab565b3480156200085c57600080fd5b50620008746200086e36600462004280565b620018bc565b604051620002fd91908151815260208083015160ff16908201526040808301519082015260609182015161ffff169181019190915260800190565b348015620008bc57600080fd5b5062000484620008ce36600462004750565b620019bb565b348015620008e157600080fd5b506200044e620008f336600462004375565b6001600160a01b031660009081526007602052604090205460ff1690565b3480156200091e57600080fd5b506200044e620019fe565b3480156200093657600080fd5b50620004b86200094836600462004280565b62001a12565b3480156200095b57600080fd5b506200051b6200096d36600462004280565b62001b17565b3480156200098057600080fd5b50620009986200099236600462004280565b62001c21565b604051620002fd919062004826565b348015620009b457600080fd5b50620004b8620009c636600462004280565b62001d9e565b348015620009d957600080fd5b5060025462010000900461ffff1662000688565b348015620009fa57600080fd5b5062000a1262000a0c36600462004280565b62001ea3565b604051620002fd91908151815260208083015160ff169082015260408083015161ffff16908201526060918201519181019190915260800190565b34801562000a5a57600080fd5b506200040f62000a6c36600462004280565b62001fa2565b6040805160a08101825260008082526020820181905291810182905260608101829052608081018290529062000aa9838262001faf565b825262000ab8602082620048b7565b82519091506a546f6b656e4272696467651462000af25760405162461bcd60e51b815260040162000ae990620048cd565b60405180910390fd5b62000afe838262002011565b60ff16602083015262000b13600182620048b7565b9050816020015160ff1660011462000b3f5760405162461bcd60e51b815260040162000ae990620048f3565b62000b4b838262002071565b61ffff16604083015262000b61600282620048b7565b905062000b6f838262002071565b61ffff16606083015262000b85600282620048b7565b905062000b93838262001faf565b608083015262000ba5602082620048b7565b90508083511462000be85760405162461bcd60e51b815260206004820152600c60248201526b0eee4dedcce40d8cadccee8d60a31b604482015260640162000ae9565b50919050565b6040805160c081018252600080825260208201819052918101829052606081018290526080810182905260a081018290529062000c2c838262002011565b60ff16825262000c3e600182620048b7565b9050816000015160ff1660021462000c8d5760405162461bcd60e51b8152602060048201526011602482015270696e76616c69642041737365744d65746160781b604482015260640162000ae9565b62000c99838262001faf565b60208084019190915262000cae9082620048b7565b905062000cbc838262002071565b61ffff16604083015262000cd2600282620048b7565b905062000ce0838262002011565b60ff16606083015262000cf5600182620048b7565b905062000d03838262001faf565b608083015262000d15602082620048b7565b905062000d23838262001faf565b60a083015262000d35602082620048b7565b90508083511462000be85760405162461bcd60e51b8152602060048201526011602482015270696e76616c69642041737365744d65746160781b604482015260640162000ae9565b600062000d8b828262002011565b92915050565b60006002600d540362000de75760405162461bcd60e51b815260206004820152601f60248201527f5265656e7472616e637947756172643a207265656e7472616e742063616c6c00604482015260640162000ae9565b6002600d55600062000dfb888886620020d2565b905062000e238160000151826020015183604001518989866060015187608001518a62002560565b6001600d5598975050505050505050565b62000e3e620019fe565b62000e795760405162461bcd60e51b815260206004820152600a6024820152696e6f74206120666f726b60b01b604482015260640162000ae9565b600080600062000e898462002684565b92509250925081819062000eb25760405162461bcd60e51b815260040162000ae99190620043e7565b5062000ec3836101400151620028a3565b600062000ed48460e00151620018bc565b90504681604001511462000f1f5760405162461bcd60e51b815260206004820152601160248201527034b73b30b634b21022ab269021b430b4b760791b604482015260640162000ae9565b62000f2e8160400151620028be565b60608101516002805461ffff191661ffff9092169190911790555b5050505050565b606062000d8b82600162002909565b61ffff91909116600090815260086020908152604080832093835292905220546001600160a01b031690565b62000f95620019fe565b1562000fd35760405162461bcd60e51b815260206004820152600c60248201526b696e76616c696420666f726b60a01b604482015260640162000ae9565b600080600062000fe38462002684565b9250925092508181906200100c5760405162461bcd60e51b815260040162000ae99190620043e7565b506200101d836101400151620028a3565b60006200102e8460e0015162001ea3565b90506200103e60025461ffff1690565b61ffff16816040015161ffff16146200108b5760405162461bcd60e51b815260206004820152600e60248201526d1ddc9bdb99c818da185a5b881a5960921b604482015260640162000ae9565b606081015162000f499062003068565b6040805160e081018252600080825260208201819052918101829052606081018290526080810182905260a0810182905260c0810182905290620010e0838262002011565b60ff168252620010f2600182620048b7565b9050816000015160ff166001146200111e5760405162461bcd60e51b815260040162000ae99062004919565b6200112a83826200319f565b6020808401919091526200113f9082620048b7565b90506200114d838262001faf565b60408301526200115f602082620048b7565b90506200116d838262002071565b61ffff16606083015262001183600282620048b7565b905062001191838262001faf565b6080830152620011a3602082620048b7565b9050620011b1838262002071565b61ffff1660a0830152620011c7600282620048b7565b9050620011d583826200319f565b60c0830152620011e7602082620048b7565b90508083511462000be85760405162461bcd60e51b815260040162000ae99062004919565b8051602080830151604080850151606080870151608088015160a089015160c08a0151955160f89990991b6001600160f81b031916978901979097526021880195909552604187019290925260f091821b6001600160f01b03199081166061880152606387019490945293901b909116608384015260858301529060a5015b6040516020818303038152906040529050919050565b600080620012af84620031f8565b9050620012d78160000151826020015183604001518989866060015187608001518a62002560565b9695505050505050565b6000806000620012f18462002684565b9250925092508181906200131a5760405162461bcd60e51b815260040162000ae99190620043e7565b506200132b836101400151620028a3565b60006200133c8460e0015162000a72565b90506200134c60025461ffff1690565b61ffff16816040015161ffff161480156200136e57506200136c620019fe565b155b80620013805750604081015161ffff16155b620013c15760405162461bcd60e51b815260206004820152601060248201526f1a5b9d985b1a590818da185a5b881a5960821b604482015260640162000ae9565b606081015161ffff166000908152600b602052604081205414620014285760405162461bcd60e51b815260206004820152601860248201527f636861696e20616c726561647920726567697374657265640000000000000000604482015260640162000ae9565b62000f498160600151826080015161ffff9091166000908152600b6020526040902055565b8051602080830151604080850151606080870151608088015160a0890151945160f898891b6001600160f81b031990811698820198909852602181019690965260f09390931b6001600160f01b031916604186015290951b9093166043830152604482019290925260648101919091526084016200128b565b600080620014d56000620031f8565b9050620012d7816000015182602001518360400151898986608001518a8a620034c2565b606062000d8b82600062002909565b60408051600481526024810182526020810180516001600160e01b031663313ce56760e01b179052905160009182916001600160a01b038616916200154d9162004943565b600060405180830381855afa9150503d80600081146200158a576040519150601f19603f3d011682016040523d82523d6000602084013e6200158f565b606091505b5060408051600481526024810182526020810180516001600160e01b03166395d89b4160e01b1790529051919350600092506001600160a01b03871691620015d8919062004943565b600060405180830381855afa9150503d806000811462001615576040519150601f19603f3d011682016040523d82523d6000602084013e6200161a565b606091505b5060408051600481526024810182526020810180516001600160e01b03166306fdde0360e01b1790529051919350600092506001600160a01b0388169162001663919062004943565b600060405180830381855afa9150503d8060008114620016a0576040519150601f19603f3d011682016040523d82523d6000602084013e620016a5565b606091505b50915050600083806020019051810190620016c191906200496e565b9050600083806020019051810190620016db9190620049da565b9050600083806020019051810190620016f59190620049da565b9050600080602084015191506020830151905060006040518060c00160405280600260ff1681526020018d6001600160a01b031660001b81526020016200173f60025461ffff1690565b61ffff1681526020018760ff16815260200184815260200183815250905060006200176a826200144d565b90506200177f6000546001600160a01b031690565b6001600160a01b031663b19a437e348e84620017a660025460ff6401000000009091041690565b6040518563ffffffff1660e01b8152600401620017c69392919062004a12565b60206040518083038185885af1158015620017e5573d6000803e3d6000fd5b50505050506040513d601f19601f820116820180604052508101906200180c919062004a5e565b9d9c50505050505050505050505050565b60006002600d5403620018735760405162461bcd60e51b815260206004820152601f60248201527f5265656e7472616e637947756172643a207265656e7472616e742063616c6c00604482015260640162000ae9565b6002600d55600062001887888883620020d2565b905062000e23816000015182602001518360400151898986608001518a8a620034c2565b620018b881600062002909565b5050565b604080516080810182526000808252602082018190529181018290526060810182905290620018ec838262001faf565b8252620018fb602082620048b7565b82519091506a546f6b656e427269646765146200192c5760405162461bcd60e51b815260040162000ae990620048cd565b62001938838262002011565b60ff1660208301526200194d600182620048b7565b9050816020015160ff16600314620019795760405162461bcd60e51b815260040162000ae990620048f3565b6200198583826200319f565b604083015262001997602082620048b7565b9050620019a5838262002071565b61ffff16606083015262000ba5600282620048b7565b6060816000015182602001518360400151846060015185608001518660a001518760c001518860e001516040516020016200128b98979695949392919062004a7c565b60004662001a0b600c5490565b1415905090565b60008060008062001a2b6000546001600160a01b031690565b6001600160a01b031663c0fd8bde866040518263ffffffff1660e01b815260040162001a589190620043e7565b600060405180830381865afa15801562001a76573d6000803e3d6000fd5b505050506040513d6000823e601f3d908101601f1916820160405262001aa0919081019062004bec565b92509250925081819062001ac95760405162461bcd60e51b815260040162000ae99190620043e7565b5062001ad58362003535565b62001af45760405162461bcd60e51b815260040162000ae99062004d61565b600062001b058460e0015162000bee565b9050620012d7818560a00151620035a2565b6040805160e081018252600080825260208201819052918101829052606081018290526080810182905260a0810182905260c081018290529062001b5b8362000d7d565b90508060ff1660010362001b7c5762001b74836200109b565b915062000be8565b8060ff1660030362001be357600062001b958462001c21565b60038452602080820151908501526040808201519085015260608082015161ffff908116918601919091526080808301519086015260a091820151169084015250600060c083015262000be8565b60405162461bcd60e51b8152602060048201526012602482015271125b9d985b1a59081c185e5b1bd859081a5960721b604482015260640162000ae9565b604080516101008101825260008082526020820181905291810182905260608082018390526080820183905260a0820183905260c0820183905260e08201529062001c6d838262002011565b60ff16825262001c7f600182620048b7565b9050816000015160ff1660031462001cab5760405162461bcd60e51b815260040162000ae99062004919565b62001cb783826200319f565b60208084019190915262001ccc9082620048b7565b905062001cda838262001faf565b604083015262001cec602082620048b7565b905062001cfa838262002071565b61ffff16606083015262001d10600282620048b7565b905062001d1e838262001faf565b608083015262001d30602082620048b7565b905062001d3e838262002071565b61ffff1660a083015262001d54600282620048b7565b905062001d62838262001faf565b60c083015262001d74602082620048b7565b905062001d938182855162001d8a919062004d8a565b85919062003852565b60e083015250919050565b60008060008062001db76000546001600160a01b031690565b6001600160a01b031663c0fd8bde866040518263ffffffff1660e01b815260040162001de49190620043e7565b600060405180830381865afa15801562001e02573d6000803e3d6000fd5b505050506040513d6000823e601f3d908101601f1916820160405262001e2c919081019062004bec565b92509250925081819062001e555760405162461bcd60e51b815260040162000ae99190620043e7565b5062001e618362003535565b62001e805760405162461bcd60e51b815260040162000ae99062004d61565b600062001e918460e0015162000bee565b9050620012d7818560a001516200396d565b60408051608081018252600080825260208201819052918101829052606081018290529062001ed3838262001faf565b825262001ee2602082620048b7565b82519091506a546f6b656e4272696467651462001f135760405162461bcd60e51b815260040162000ae990620048cd565b62001f1f838262002011565b60ff16602083015262001f34600182620048b7565b9050816020015160ff1660021462001f605760405162461bcd60e51b815260040162000ae990620048f3565b62001f6c838262002071565b61ffff16604083015262001f82600282620048b7565b905062001f90838262001faf565b606083015262000ba5602082620048b7565b620018b881600162002909565b600062001fbe826020620048b7565b83511015620020085760405162461bcd60e51b8152602060048201526015602482015274746f427974657333325f6f75744f66426f756e647360581b604482015260640162000ae9565b50016020015190565b600062002020826001620048b7565b83511015620020685760405162461bcd60e51b8152602060048201526013602482015272746f55696e74385f6f75744f66426f756e647360681b604482015260640162000ae9565b50016001015190565b600062002080826002620048b7565b83511015620020c95760405162461bcd60e51b8152602060048201526014602482015273746f55696e7431365f6f75744f66426f756e647360601b604482015260640162000ae9565b50016002015190565b6040805160a0810182526000808252602082018190529181018290526060810182905260808101919091526001600160a01b038416600090815260096020526040812054819060ff1615620021f557856001600160a01b0316639a8a05926040518163ffffffff1660e01b8152600401602060405180830381865afa15801562002160573d6000803e3d6000fd5b505050506040513d601f19601f8201168201806040525081019062002186919062004da0565b9150856001600160a01b0316633d6c043b6040518163ffffffff1660e01b8152600401602060405180830381865afa158015620021c7573d6000803e3d6000fd5b505050506040513d601f19601f82011682018060405250810190620021ed919062004dc0565b905062002209565b505060025461ffff166001600160a01b0385165b60408051600481526024810182526020810180516001600160e01b031663313ce56760e01b17905290516000916001600160a01b038916916200224d919062004943565b600060405180830381855afa9150503d80600081146200228a576040519150601f19603f3d011682016040523d82523d6000602084013e6200228f565b606091505b50915050600081806020019051810190620022ab91906200496e565b9050620022c4620022bd888362003a68565b8262003aa7565b9650620022d460025461ffff1690565b61ffff168461ffff16036200247357604080513060248083019190915282518083039091018152604490910182526020810180516001600160e01b03166370a0823160e01b17905290516000916001600160a01b038b169162002338919062004943565b600060405180830381855afa9150503d806000811462002375576040519150601f19603f3d011682016040523d82523d6000602084013e6200237a565b606091505b5091505060008180602001905181019062002396919062004dc0565b9050620023a68a33308c62003adc565b604080513060248083019190915282518083039091018152604490910182526020810180516001600160e01b03166370a0823160e01b17905290516000916001600160a01b038d1691620023fb919062004943565b600060405180830381855afa9150503d806000811462002438576040519150601f19603f3d011682016040523d82523d6000602084013e6200243d565b606091505b5091505060008180602001905181019062002459919062004dc0565b905062002467838262004d8a565b9a5050505050620024e4565b620024818833308a62003adc565b604051632770a7eb60e21b8152306004820152602481018890526001600160a01b03891690639dc29fac90604401600060405180830381600087803b158015620024ca57600080fd5b505af1158015620024df573d6000803e3d6000fd5b505050505b6000620024f2888362003a68565b9050600062002502888462003a68565b90506200251260025461ffff1690565b61ffff168661ffff16036200252d576200252d8a8362003b4f565b6040805160a08101825261ffff909716875260208701959095529385015250506060820152346080820152949350505050565b600086841115620025a95760405162461bcd60e51b815260206004820152601260248201527119995948195e18d959591cc8185b5bdd5b9d60721b604482015260640162000ae9565b6040805160e081018252600181526020810189905290810189905261ffff8a8116606083015260808201879052871660a082015260c081018590526000546001600160a01b031663b19a437e858562002602856200120c565b600254640100000000900460ff166040518563ffffffff1660e01b8152600401620026309392919062004a12565b60206040518083038185885af11580156200264f573d6000803e3d6000fd5b50505050506040513d601f19601f8201168201806040525081019062002676919062004a5e565b9a9950505050505050505050565b604080516101608101825260008082526020820181905291810182905260608082018390526080820183905260a0820183905260c0820183905260e082018190526101008201839052610120820152610140810191909152600060606000806000620026f86000546001600160a01b031690565b6001600160a01b031663c0fd8bde886040518263ffffffff1660e01b8152600401620027259190620043e7565b600060405180830381865afa15801562002743573d6000803e3d6000fd5b505050506040513d6000823e601f3d908101601f191682016040526200276d919081019062004bec565b925092509250816200278657919450925090506200289c565b60025462010000900461ffff1661ffff16836060015161ffff1614620027e45750506040805180820190915260168152753bb937b7339033b7bb32b93730b731b29031b430b4b760511b60208201529093506000925090506200289c565b6003548360800151146200283757505060408051808201909152601981527f77726f6e6720676f7665726e616e636520636f6e74726163740000000000000060208201529093506000925090506200289c565b61014083015160009081526005602052604090205460ff16156200288157826000604051806060016040528060228152602001620057e0602291399550955095505050506200289c565b50506040805160208101909152600081529093506001925090505b9193909250565b6000908152600560205260409020805460ff19166001179055565b468114620029045760405162461bcd60e51b81526020600482015260126024820152711a5b9d985b1a5908195d9b50da185a5b925960721b604482015260640162000ae9565b600c55565b60606000806000620029236000546001600160a01b031690565b6001600160a01b031663c0fd8bde876040518263ffffffff1660e01b8152600401620029509190620043e7565b600060405180830381865afa1580156200296e573d6000803e3d6000fd5b505050506040513d6000823e601f3d908101601f1916820160405262002998919081019062004bec565b925092509250818190620029c15760405162461bcd60e51b815260040162000ae99190620043e7565b50620029cd8362003535565b620029ec5760405162461bcd60e51b815260040162000ae99062004d61565b6000620029fd8460e0015162001b17565b9050600062002a10826080015162003c1c565b825190915060ff1660030362002a6b57336001600160a01b0382161462002a6b5760405162461bcd60e51b815260206004820152600e60248201526d34b73b30b634b21039b2b73232b960911b604482015260640162000ae9565b61014085015160009081526006602052604090205460ff161562002ad25760405162461bcd60e51b815260206004820152601a60248201527f7472616e7366657220616c726561647920636f6d706c65746564000000000000604482015260640162000ae9565b62002af78561014001516000908152600660205260409020805460ff19166001179055565b60025461ffff1661ffff168260a0015161ffff161462002b515760405162461bcd60e51b815260206004820152601460248201527334b73b30b634b2103a30b933b2ba1031b430b4b760611b604482015260640162000ae9565b600062002b6160025461ffff1690565b61ffff16836060015161ffff160362002b9b5762002b83836040015162003c1c565b905062002b9581846020015162003c72565b62002c1c565b600062002bb18460600151856040015162000f5f565b90506001600160a01b03811662002c195760405162461bcd60e51b815260206004820152602560248201527f6e6f207772617070657220666f72207468697320746f6b656e2063726561746560448201526419081e595d60da1b606482015260840162000ae9565b90505b87158062002c3757506004546001600160a01b038281169116145b62002c915760405162461bcd60e51b815260206004820152602360248201527f696e76616c696420746f6b656e2c2063616e206f6e6c7920756e77726170205760448201526208aa8960eb1b606482015260840162000ae9565b60408051600481526024810182526020810180516001600160e01b031663313ce56760e01b17905290516000916001600160a01b0384169162002cd5919062004943565b600060405180830381855afa9150503d806000811462002d12576040519150601f19603f3d011682016040523d82523d6000602084013e62002d17565b606091505b5091505060008180602001905181019062002d3391906200496e565b9050600062002d4786602001518362003aa7565b9050600062002d5b8760c001518462003aa7565b905060008111801562002d7757506001600160a01b0386163314155b1562002f09578181111562002dda5760405162461bcd60e51b815260206004820152602260248201527f66656520686967686572207468616e207472616e7366657272656420616d6f756044820152611b9d60f21b606482015260840162000ae9565b8b1562002e745760048054604051632e1a7d4d60e01b81529182018390526001600160a01b031690632e1a7d4d90602401600060405180830381600087803b15801562002e2657600080fd5b505af115801562002e3b573d6000803e3d6000fd5b505060405133925083156108fc02915083906000818181858888f1935050505015801562002e6d573d6000803e3d6000fd5b5062002f0d565b60025461ffff1661ffff16876060015161ffff161462002ef6576040516340c10f1960e01b8152336004820152602481018290526001600160a01b038616906340c10f1990604401600060405180830381600087803b15801562002ed757600080fd5b505af115801562002eec573d6000803e3d6000fd5b5050505062002f0d565b62002f0385338362003ca4565b62002f0d565b5060005b600062002f1b828462004d8a565b90508c1562002fc05760048054604051632e1a7d4d60e01b81529182018390526001600160a01b031690632e1a7d4d90602401600060405180830381600087803b15801562002f6957600080fd5b505af115801562002f7e573d6000803e3d6000fd5b50506040516001600160a01b038a16925083156108fc02915083906000818181858888f1935050505015801562002fb9573d6000803e3d6000fd5b5062003051565b60025461ffff1661ffff16886060015161ffff161462003044576040516340c10f1960e01b81526001600160a01b038881166004830152602482018390528716906340c10f1990604401600060405180830381600087803b1580156200302557600080fd5b505af11580156200303a573d6000803e3d6000fd5b5050505062003051565b6200305186888362003ca4565b50505060e0909701519a9950505050505050505050565b60006200309c7f360894a13ba1a3210667c828492db98dca3e2076cc3735a920a3ca505d382bbc546001600160a01b031690565b9050620030a98262003cd6565b60408051600481526024810182526020810180516001600160e01b031663204a7f0760e21b179052905160009182916001600160a01b03861691620030ee9162004943565b600060405180830381855af49150503d80600081146200312b576040519150601f19603f3d011682016040523d82523d6000602084013e62003130565b606091505b5091509150818190620031585760405162461bcd60e51b815260040162000ae99190620043e7565b50836001600160a01b0316836001600160a01b03167f2e4cc16c100f0b55e2df82ab0b1a7e294aa9cbd01b48fbaf622683fbc0507a4960405160405180910390a350505050565b6000620031ae826020620048b7565b83511015620020085760405162461bcd60e51b8152602060048201526015602482015274746f55696e743235365f6f75744f66426f756e647360581b604482015260640162000ae9565b6040805160a081018252600080825260208201819052918101829052606081018290526080810191909152600080546001600160a01b03166001600160a01b0316631a90a2196040518163ffffffff1660e01b8152600401602060405180830381865afa1580156200326e573d6000803e3d6000fd5b505050506040513d601f19601f8201168201806040525081019062003294919062004dc0565b9050348110620032f25760405162461bcd60e51b815260206004820152602260248201527f76616c756520697320736d616c6c6572207468616e20776f726d686f6c652066604482015261656560f01b606482015260840162000ae9565b600062003300823462004d8a565b905080841115620033695760405162461bcd60e51b815260206004820152602c60248201527f66656520697320626967676572207468616e20616d6f756e74206d696e75732060448201526b776f726d686f6c652066656560a01b606482015260840162000ae9565b60006200337882601262003a68565b905060006200338986601262003a68565b905060006200339a83601262003aa7565b620033a6908562004d8a565b90508015620033df57604051339082156108fc029083906000818181858888f19350505050158015620033dd573d6000803e3d6000fd5b505b6004546001600160a01b031663d0e30db0620033fc838762004d8a565b6040518263ffffffff1660e01b81526004016000604051808303818588803b1580156200342857600080fd5b505af11580156200343d573d6000803e3d6000fd5b505050505062003460620034596004546001600160a01b031690565b8462003b4f565b6040518060a001604052806200347960025461ffff1690565b61ffff168152602001620034956004546001600160a01b031690565b6001600160a01b031660001b81526020018481526020018381526020018681525095505050505050919050565b6040805161010081018252600381526020810188905290810188905261ffff808a16606083015260808201869052861660a08201523360c082015260e081018290526000906200351a6000546001600160a01b031690565b6001600160a01b031663b19a437e86866200260285620019bb565b600062003541620019fe565b156200357f5760405162461bcd60e51b815260206004820152600c60248201526b696e76616c696420666f726b60a01b604482015260640162000ae9565b50608081015160609091015161ffff166000908152600b60205260409020541490565b6000620035b260025461ffff1690565b61ffff16836040015161ffff16036200361f5760405162461bcd60e51b815260206004820152602860248201527f63616e206f6e6c79207772617020746f6b656e732066726f6d20666f726569676044820152676e20636861696e7360c01b606482015260840162000ae9565b60006001600160a01b03166200363e8460400151856020015162000f5f565b6001600160a01b031614620036965760405162461bcd60e51b815260206004820152601c60248201527f7772617070656420617373657420616c72656164792065786973747300000000604482015260640162000ae9565b600063c71f461560e01b620036af8560a0015162003d18565b620036be866080015162003d18565b8660600151863089604001518a60200151604051602401620036e7979695949392919062004dda565b60408051601f19818403018152918152602080830180516001600160e01b03166001600160e01b031990951694909417909352519092506000916200373191309185910162004e47565b604051602081830303815290604052905060006040518060200162003756906200412c565b601f1982820381018352601f9091011660408190526200377c9190849060200162004e6d565b6040516020818303038152906040529050600086604001518760200151604051602001620037c392919060f09290921b6001600160f01b0319168252600282015260220190565b604051602081830303815290604052805190602001209050808251602084016000f59450843b620037f357600080fd5b6040808801516020808a015161ffff90921660009081526008825283812092815291815282822080546001600160a01b0319166001600160a01b038a1690811790915582526009905220805460ff191660011790555050505092915050565b6060816200386281601f620048b7565b1015620038a35760405162461bcd60e51b815260206004820152600e60248201526d736c6963655f6f766572666c6f7760901b604482015260640162000ae9565b620038af8284620048b7565b84511015620038f55760405162461bcd60e51b8152602060048201526011602482015270736c6963655f6f75744f66426f756e647360781b604482015260640162000ae9565b60608215801562003916576040519150600082526020820160405262003962565b6040519150601f8416801560200281840101858101878315602002848b0101015b818310156200395157805183526020928301920162003937565b5050858452601f01601f1916604052505b5090505b9392505050565b600080620039848460400151856020015162000f5f565b90506001600160a01b038116620039de5760405162461bcd60e51b815260206004820152601d60248201527f7772617070656420617373657420646f6573206e6f7420657869737473000000604482015260640162000ae9565b806001600160a01b031663a18cd7c6620039fc8660a0015162003d18565b62003a0b876080015162003d18565b866040518463ffffffff1660e01b815260040162003a2c9392919062004ea0565b600060405180830381600087803b15801562003a4757600080fd5b505af115801562003a5c573d6000803e3d6000fd5b50929695505050505050565b600060088260ff16111562003aa05762003a8460088362004ee3565b62003a9190600a62004ffc565b62003a9d90846200500d565b92505b5090919050565b600060088260ff16111562003aa05762003ac360088362004ee3565b62003ad090600a62004ffc565b62003a9d908462005030565b6040516001600160a01b038085166024830152831660448201526064810182905262003b499085906323b872dd60e01b906084015b60408051601f198184030181529190526020810180516001600160e01b03166001600160e01b03199093169290921790915262003e23565b50505050565b6001600160a01b0382166000908152600a60205260409020546001600160401b0362003b7c8383620048b7565b111562003bea5760405162461bcd60e51b815260206004820152603560248201527f7472616e736665722065786365656473206d6178206f75747374616e64696e6760448201527408189c9a5919d959081d1bdad95b88185b5bdd5b9d605a1b606482015260840162000ae9565b62003c178362003bfb8484620048b7565b6001600160a01b039091166000908152600a6020526040902055565b505050565b60006001600160a01b031982161562003c6e5760405162461bcd60e51b8152602060048201526013602482015272696e76616c69642045564d206164647265737360681b604482015260640162000ae9565b5090565b620018b8828262003c98856001600160a01b03166000908152600a602052604090205490565b62003bfb919062004d8a565b6040516001600160a01b03831660248201526044810182905262003c1790849063a9059cbb60e01b9060640162003b11565b62003ce18162003efc565b6040516001600160a01b038216907fbc7cd75a20ee27fd9adebab32041f755214dbc6bffa90cc0225b39da2e5c2d3b90600090a250565b606060005b60208110801562003d4f575082816020811062003d3e5762003d3e6200504a565b1a60f81b6001600160f81b03191615155b1562003d6a578062003d618162005060565b91505062003d1d565b6000816001600160401b0381111562003d875762003d876200413a565b6040519080825280601f01601f19166020018201604052801562003db2576020820181803683370190505b50905060005b8281101562003e1b5784816020811062003dd65762003dd66200504a565b1a60f81b82828151811062003def5762003def6200504a565b60200101906001600160f81b031916908160001a9053508062003e128162005060565b91505062003db8565b509392505050565b600062003e7a826040518060400160405280602081526020017f5361666545524332303a206c6f772d6c6576656c2063616c6c206661696c6564815250856001600160a01b031662003fa39092919063ffffffff16565b80519091501562003c17578080602001905181019062003e9b91906200507c565b62003c175760405162461bcd60e51b815260206004820152602a60248201527f5361666545524332303a204552433230206f7065726174696f6e20646964206e6044820152691bdd081cdd58d8d9595960b21b606482015260840162000ae9565b803b62003f625760405162461bcd60e51b815260206004820152602d60248201527f455243313936373a206e657720696d706c656d656e746174696f6e206973206e60448201526c1bdd08184818dbdb9d1c9858dd609a1b606482015260840162000ae9565b7f360894a13ba1a3210667c828492db98dca3e2076cc3735a920a3ca505d382bbc80546001600160a01b0319166001600160a01b0392909216919091179055565b606062003fb4848460008562003fbc565b949350505050565b6060824710156200401f5760405162461bcd60e51b815260206004820152602660248201527f416464726573733a20696e73756666696369656e742062616c616e636520666f6044820152651c8818d85b1b60d21b606482015260840162000ae9565b843b6200406f5760405162461bcd60e51b815260206004820152601d60248201527f416464726573733a2063616c6c20746f206e6f6e2d636f6e7472616374000000604482015260640162000ae9565b600080866001600160a01b031685876040516200408d919062004943565b60006040518083038185875af1925050503d8060008114620040cc576040519150601f19603f3d011682016040523d82523d6000602084013e620040d1565b606091505b5091509150620040e3828286620040ee565b979650505050505050565b60608315620040ff57508162003966565b825115620041105782518084602001fd5b8160405162461bcd60e51b815260040162000ae99190620043e7565b610745806200509b83390190565b634e487b7160e01b600052604160045260246000fd5b60405161010081016001600160401b03811182821017156200417657620041766200413a565b60405290565b604051608081016001600160401b03811182821017156200417657620041766200413a565b60405161016081016001600160401b03811182821017156200417657620041766200413a565b604051601f8201601f191681016001600160401b0381118282101715620041f257620041f26200413a565b604052919050565b60006001600160401b038211156200421657620042166200413a565b50601f01601f191660200190565b600082601f8301126200423657600080fd5b81356200424d6200424782620041fa565b620041c7565b8181528460208386010111156200426357600080fd5b816020850160208301376000918101602001919091529392505050565b6000602082840312156200429357600080fd5b81356001600160401b03811115620042aa57600080fd5b62003fb48482850162004224565b80356001600160a01b0381168114620042d057600080fd5b919050565b61ffff81168114620042e657600080fd5b50565b8035620042d081620042d5565b63ffffffff81168114620042e657600080fd5b60008060008060008060c087890312156200432357600080fd5b6200432e87620042b8565b95506020870135945060408701356200434781620042d5565b9350606087013592506080870135915060a08701356200436781620042f6565b809150509295509295509295565b6000602082840312156200438857600080fd5b6200396682620042b8565b60005b83811015620043b057818101518382015260200162004396565b50506000910152565b60008151808452620043d381602086016020860162004393565b601f01601f19169290920160200192915050565b602081526000620039666020830184620043b9565b600080604083850312156200441057600080fd5b82356200441d81620042d5565b946020939093013593505050565b6000602082840312156200443e57600080fd5b5035919050565b60ff81168114620042e657600080fd5b8035620042d08162004445565b600060e082840312156200447557600080fd5b60405160e081018181106001600160401b03821117156200449a576200449a6200413a565b6040528235620044aa8162004445565b8082525060208301356020820152604083013560408201526060830135620044d281620042d5565b60608201526080838101359082015260a0830135620044f181620042d5565b60a082015260c0928301359281019290925250919050565b600080600080608085870312156200452057600080fd5b84356200452d81620042d5565b9350602085013592506040850135915060608501356200454d81620042f6565b939692955090935050565b6000602082840312156200456b57600080fd5b81356200396681620042d5565b600060c082840312156200458b57600080fd5b60405160c081018181106001600160401b0382111715620045b057620045b06200413a565b6040528235620045c08162004445565b8152602083810135908201526040830135620045dc81620042d5565b60408201526060830135620045f18162004445565b60608201526080838101359082015260a0928301359281019290925250919050565b600080600080608085870312156200462a57600080fd5b84356200463781620042d5565b93506020850135925060408501356200465081620042f6565b915060608501356001600160401b038111156200466c57600080fd5b6200467a8782880162004224565b91505092959194509250565b600080604083850312156200469a57600080fd5b620046a583620042b8565b91506020830135620046b781620042f6565b809150509250929050565b60008060008060008060c08789031215620046dc57600080fd5b620046e787620042b8565b95506020870135945060408701356200470081620042d5565b93506060870135925060808701356200471981620042f6565b915060a08701356001600160401b038111156200473557600080fd5b6200474389828a0162004224565b9150509295509295509295565b6000602082840312156200476357600080fd5b81356001600160401b03808211156200477b57600080fd5b9083019061010082860312156200479157600080fd5b6200479b62004150565b620047a68362004455565b81526020830135602082015260408301356040820152620047ca60608401620042e9565b606082015260808301356080820152620047e760a08401620042e9565b60a082015260c083013560c082015260e0830135828111156200480957600080fd5b620048178782860162004224565b60e08301525095945050505050565b6020815260ff8251166020820152602082015160408201526040820151606082015261ffff6060830151166080820152608082015160a0820152600060a08301516200487860c084018261ffff169052565b5060c083015160e083015260e083015161010080818501525062003fb4610120840182620043b9565b634e487b7160e01b600052601160045260246000fd5b8082018082111562000d8b5762000d8b620048a1565b6020808252600c908201526b77726f6e67206d6f64756c6560a01b604082015260600190565b6020808252600c908201526b3bb937b7339030b1ba34b7b760a11b604082015260600190565b60208082526010908201526f34b73b30b634b2102a3930b739b332b960811b604082015260600190565b600082516200495781846020870162004393565b9190910192915050565b8051620042d08162004445565b6000602082840312156200498157600080fd5b8151620039668162004445565b600082601f830112620049a057600080fd5b8151620049b16200424782620041fa565b818152846020838601011115620049c757600080fd5b62003fb482602083016020870162004393565b600060208284031215620049ed57600080fd5b81516001600160401b0381111562004a0457600080fd5b62003fb4848285016200498e565b63ffffffff8416815260606020820152600062004a336060830185620043b9565b905060ff83166040830152949350505050565b80516001600160401b0381168114620042d057600080fd5b60006020828403121562004a7157600080fd5b620039668262004a46565b60ff60f81b8960f81b168152876001820152866021820152600061ffff60f01b808860f01b166041840152866043840152808660f01b16606384015250836065830152825162004ad481608585016020870162004393565b919091016085019998505050505050505050565b8051620042d081620042f6565b8051620042d081620042d5565b600082601f83011262004b1457600080fd5b815160206001600160401b0382111562004b325762004b326200413a565b62004b42818360051b01620041c7565b82815260079290921b8401810191818101908684111562004b6257600080fd5b8286015b8481101562004bd0576080818903121562004b815760008081fd5b62004b8b6200417c565b81518152848201518582015260408083015162004ba88162004445565b9082015260608281015162004bbd8162004445565b9082015283529183019160800162004b66565b509695505050505050565b80518015158114620042d057600080fd5b60008060006060848603121562004c0257600080fd5b83516001600160401b038082111562004c1a57600080fd5b90850190610160828803121562004c3057600080fd5b62004c3a620041a1565b62004c458362004961565b815262004c556020840162004ae8565b602082015262004c686040840162004ae8565b604082015262004c7b6060840162004af5565b60608201526080830151608082015262004c9860a0840162004a46565b60a082015262004cab60c0840162004961565b60c082015260e08301518281111562004cc357600080fd5b62004cd1898286016200498e565b60e08301525061010062004ce781850162004ae8565b90820152610120838101518381111562004d0057600080fd5b62004d0e8a82870162004b02565b91830191909152506101408381015190820152945062004d316020870162004bdb565b9350604086015191508082111562004d4857600080fd5b5062004d57868287016200498e565b9150509250925092565b6020808252600f908201526e34b73b30b634b21032b6b4ba3a32b960891b604082015260600190565b8181038181111562000d8b5762000d8b620048a1565b60006020828403121562004db357600080fd5b81516200396681620042d5565b60006020828403121562004dd357600080fd5b5051919050565b60e08152600062004def60e083018a620043b9565b828103602084015262004e03818a620043b9565b60ff98909816604084015250506001600160401b039490941660608501526001600160a01b0392909216608084015261ffff1660a083015260c09091015292915050565b6001600160a01b038316815260406020820181905260009062003fb490830184620043b9565b6000835162004e8181846020880162004393565b83519083019062004e9781836020880162004393565b01949350505050565b60608152600062004eb56060830186620043b9565b828103602084015262004ec98186620043b9565b9150506001600160401b0383166040830152949350505050565b60ff828116828216039081111562000d8b5762000d8b620048a1565b600181815b8085111562004f4057816000190482111562004f245762004f24620048a1565b8085161562004f3257918102915b93841c939080029062004f04565b509250929050565b60008262004f595750600162000d8b565b8162004f685750600062000d8b565b816001811462004f81576002811462004f8c5762004fac565b600191505062000d8b565b60ff84111562004fa05762004fa0620048a1565b50506001821b62000d8b565b5060208310610133831016604e8410600b841016171562004fd1575081810a62000d8b565b62004fdd838362004eff565b806000190482111562004ff45762004ff4620048a1565b029392505050565b60006200396660ff84168362004f48565b6000826200502b57634e487b7160e01b600052601260045260246000fd5b500490565b808202811582820484141762000d8b5762000d8b620048a1565b634e487b7160e01b600052603260045260246000fd5b600060018201620050755762005075620048a1565b5060010190565b6000602082840312156200508f57600080fd5b620039668262004bdb56fe608060405234801561001057600080fd5b5060405161074538038061074583398101604081905261002f91610442565b818161005c60017fa3f0ad74e5423aebfd80d3ef4346578335a9a72aeaee59ff6cb3582b35133d51610502565b6000805160206106fe8339815191521461007857610078610523565b6100848282600061008d565b505050506105a3565b6100968361014e565b6040516001600160a01b038416907f1cf3b03a6cf19fa2baba4df148e9dcabedea7f8a5c07840e207e5c089be95d3e90600090a26000825111806100d75750805b1561014957610147836001600160a01b0316635c60da1b6040518163ffffffff1660e01b8152600401602060405180830381865afa15801561011d573d6000803e3d6000fd5b505050506040513d601f19601f820116820180604052508101906101419190610539565b836102ae565b505b505050565b803b6101af5760405162461bcd60e51b815260206004820152602560248201527f455243313936373a206e657720626561636f6e206973206e6f74206120636f6e6044820152641d1c9858dd60da1b60648201526084015b60405180910390fd5b61021a816001600160a01b0316635c60da1b6040518163ffffffff1660e01b8152600401602060405180830381865afa1580156101f0573d6000803e3d6000fd5b505050506040513d601f19601f820116820180604052508101906102149190610539565b3b151590565b61027f5760405162461bcd60e51b815260206004820152603060248201527f455243313936373a20626561636f6e20696d706c656d656e746174696f6e206960448201526f1cc81b9bdd08184818dbdb9d1c9858dd60821b60648201526084016101a6565b6000805160206106fe83398151915280546001600160a01b0319166001600160a01b0392909216919091179055565b60606102d3838360405180606001604052806027815260200161071e602791396102dc565b90505b92915050565b6060833b61033b5760405162461bcd60e51b815260206004820152602660248201527f416464726573733a2064656c65676174652063616c6c20746f206e6f6e2d636f6044820152651b9d1c9858dd60d21b60648201526084016101a6565b600080856001600160a01b0316856040516103569190610554565b600060405180830381855af49150503d8060008114610391576040519150601f19603f3d011682016040523d82523d6000602084013e610396565b606091505b5090925090506103a78282866103b3565b925050505b9392505050565b606083156103c25750816103ac565b8251156103d25782518084602001fd5b8160405162461bcd60e51b81526004016101a69190610570565b80516001600160a01b038116811461040357600080fd5b919050565b634e487b7160e01b600052604160045260246000fd5b60005b83811015610439578181015183820152602001610421565b50506000910152565b6000806040838503121561045557600080fd5b61045e836103ec565b60208401519092506001600160401b038082111561047b57600080fd5b818501915085601f83011261048f57600080fd5b8151818111156104a1576104a1610408565b604051601f8201601f19908116603f011681019083821181831017156104c9576104c9610408565b816040528281528860208487010111156104e257600080fd5b6104f383602083016020880161041e565b80955050505050509250929050565b818103818111156102d657634e487b7160e01b600052601160045260246000fd5b634e487b7160e01b600052600160045260246000fd5b60006020828403121561054b57600080fd5b6102d3826103ec565b6000825161056681846020870161041e565b9190910192915050565b602081526000825180602084015261058f81604085016020870161041e565b601f01601f19169190910160400192915050565b61014c806105b26000396000f3fe60806040523661001357610011610017565b005b6100115b610027610022610029565b6100c2565b565b600061005c7fa3f0ad74e5423aebfd80d3ef4346578335a9a72aeaee59ff6cb3582b35133d50546001600160a01b031690565b6001600160a01b0316635c60da1b6040518163ffffffff1660e01b8152600401602060405180830381865afa158015610099573d6000803e3d6000fd5b505050506040513d601f19601f820116820180604052508101906100bd91906100e6565b905090565b3660008037600080366000845af43d6000803e8080156100e1573d6000f35b3d6000fd5b6000602082840312156100f857600080fd5b81516001600160a01b038116811461010f57600080fd5b939250505056fea26469706673582212209887d4052b6f141cf8f0707b2e69487c02f7a90c1bed9054d625ad29ec8b8d1964736f6c63430008130033a3f0ad74e5423aebfd80d3ef4346578335a9a72aeaee59ff6cb3582b35133d50416464726573733a206c6f772d6c6576656c2064656c65676174652063616c6c206661696c6564676f7665726e616e636520616374696f6e20616c726561647920636f6e73756d6564a2646970667358221220dfa65bbf5e8679af9798114c471ef1a0b5347359ce64b322e8d0082e66fbc15164736f6c63430008130033",
    "linkReferences": {}
  },
  "methodIdentifiers": {
    "WETH()": "ad5c4648",
    "_parseTransferCommon(bytes)": "e89bc401",
    "attestToken(address,uint32)": "c48fa115",
    "bridgeContracts(uint16)": "ad66a5f1",
    "chainId()": "9a8a0592",
    "completeTransfer(bytes)": "c6878519",
    "completeTransferAndUnwrapETH(bytes)": "ff200cde",
    "completeTransferAndUnwrapETHWithPayload(bytes)": "1c8475e4",
    "completeTransferWithPayload(bytes)": "c3f511c1",
    "createWrapped(bytes)": "e8059810",
    "encodeAssetMeta((uint8,bytes32,uint16,uint8,bytes32,bytes32))": "b046223b",
    "encodeTransfer((uint8,uint256,bytes32,uint16,bytes32,uint16,uint256))": "5f854266",
    "encodeTransferWithPayload((uint8,uint256,bytes32,uint16,bytes32,uint16,bytes32,bytes))": "d56e2e24",
    "evmChainId()": "64d42b17",
    "finality()": "739fc8d1",
    "governanceActionIsConsumed(bytes32)": "2c3c02a4",
    "governanceChainId()": "fbe3c2cd",
    "governanceContract()": "b172b222",
    "isFork()": "e039f224",
    "isInitialized(address)": "d60b347f",
    "isTransferCompleted(bytes32)": "aa4efa5b",
    "isWrappedAsset(address)": "1a2be4da",
    "outstandingBridged(address)": "b96c7e4d",
    "parseAssetMeta(bytes)": "07dfd8fb",
    "parsePayloadID(bytes)": "0f509008",
    "parseRecoverChainId(bytes)": "cb4cfea8",
    "parseRegisterChain(bytes)": "01f53255",
    "parseTransfer(bytes)": "2b511375",
    "parseTransferWithPayload(bytes)": "ea63738d",
    "parseUpgrade(bytes)": "fbeeacd9",
    "registerChain(bytes)": "a5799f93",
    "submitRecoverChainId(bytes)": "178149e7",
    "tokenImplementation()": "2f3a3d5d",
    "transferTokens(address,uint256,uint16,bytes32,uint256,uint32)": "0f5287b0",
    "transferTokensWithPayload(address,uint256,uint16,bytes32,uint32,bytes)": "c5a5ebda",
    "updateWrapped(bytes)": "f768441f",
    "upgrade(bytes)": "25394645",
    "wormhole()": "84acd1bb",
    "wrapAndTransferETH(uint16,bytes32,uint256,uint32)": "9981509f",
    "wrapAndTransferETHWithPayload(uint16,bytes32,uint32,bytes)": "bee9cdfc",
    "wrappedAsset(uint16,bytes32)": "1ff1e286"
  },
  "id": 12
}