{
  "abi": [
    {
      "anonymous": false,
      "inputs": [
        {
          "indexed": false,
          "internalType": "address",
          "name": "previousAdmin",
          "type": "address"
        },
        {
          "indexed": false,
          "internalType": "address",
          "name": "newAdmin",
          "type": "address"
        }
      ],
      "name": "AdminChanged",
      "type": "event"
    },
    {
      "anonymous": false,
      "inputs": [
        {
          "indexed": true,
          "internalType": "address",
          "name": "beacon",
          "type": "address"
        }
      ],
      "name": "BeaconUpgraded",
      "type": "event"
    },
    {
      "anonymous": false,
      "inputs": [
        {
          "indexed": true,
          "internalType": "address",
          "name": "oldContract",
          "type": "address"
        },
        {
          "indexed": true,
          "internalType": "address",
          "name": "newContract",
          "type": "address"
        }
      ],
      "name": "ContractUpgraded",
      "type": "event"
    },
    {
      "anonymous": false,
      "inputs": [
        {
          "indexed": true,
          "internalType": "address",
          "name": "implementation",
          "type": "address"
        }
      ],
      "name": "Upgraded",
      "type": "event"
    },
    {
      "inputs": [],
      "name": "WETH",
      "outputs": [
        {
          "internalType": "contract IWETH",
          "name": "",
          "type": "address"
        }
      ],
      "stateMutability": "view",
      "type": "function"
    },
    {
      "inputs": [
        {
          "internalType": "bytes",
          "name": "encoded",
          "type": "bytes"
        }
      ],
      "name": "_parseTransferCommon",
      "outputs": [
        {
          "components": [
            {
              "internalType": "uint8",
              "name": "payloadID",
              "type": "uint8"
            },
            {
              "internalType": "uint256",
              "name": "amount",
              "type": "uint256"
            },
            {
              "internalType": "bytes32",
              "name": "tokenAddress",
              "type": "bytes32"
            },
            {
              "internalType": "uint16",
              "name": "tokenChain",
              "type": "uint16"
            },
            {
              "internalType": "bytes32",
              "name": "to",
              "type": "bytes32"
            },
            {
              "internalType": "uint16",
              "name": "toChain",
              "type": "uint16"
            },
            {
              "internalType": "uint256",
              "name": "fee",
              "type": "uint256"
            }
          ],
          "internalType": "struct BridgeStructs.Transfer",
          "name": "transfer",
          "type": "tuple"
        }
      ],
      "stateMutability": "pure",
      "type": "function"
    },
    {
      "inputs": [
        {
          "internalType": "address",
          "name": "tokenAddress",
          "type": "address"
        },
        {
          "internalType": "uint32",
          "name": "nonce",
          "type": "uint32"
        }
      ],
      "name": "attestToken",
      "outputs": [
        {
          "internalType": "uint64",
          "name": "sequence",
          "type": "uint64"
        }
      ],
      "stateMutability": "payable",
      "type": "function"
    },
    {
      "inputs": [
        {
          "internalType": "uint16",
          "name": "chainId_",
          "type": "uint16"
        }
      ],
      "name": "bridgeContracts",
      "outputs": [
        {
          "internalType": "bytes32",
          "name": "",
          "type": "bytes32"
        }
      ],
      "stateMutability": "view",
      "type": "function"
    },
    {
      "inputs": [],
      "name": "chainId",
      "outputs": [
        {
          "internalType": "uint16",
          "name": "",
          "type": "uint16"
        }
      ],
      "stateMutability": "view",
      "type": "function"
    },
    {
      "inputs": [
        {
          "internalType": "bytes",
          "name": "encodedVm",
          "type": "bytes"
        }
      ],
      "name": "completeTransfer",
      "outputs": [],
      "stateMutability": "nonpayable",
      "type": "function"
    },
    {
      "inputs": [
        {
          "internalType": "bytes",
          "name": "encodedVm",
          "type": "bytes"
        }
      ],
      "name": "completeTransferAndUnwrapETH",
      "outputs": [],
      "stateMutability": "nonpayable",
      "type": "function"
    },
    {
      "inputs": [
        {
          "internalType": "bytes",
          "name": "encodedVm",
          "type": "bytes"
        }
      ],
      "name": "completeTransferAndUnwrapETHWithPayload",
      "outputs": [
        {
          "internalType": "bytes",
          "name": "",
          "type": "bytes"
        }
      ],
      "stateMutability": "nonpayable",
      "type": "function"
    },
    {
      "inputs": [
        {
          "internalType": "bytes",
          "name": "encodedVm",
          "type": "bytes"
        }
      ],
      "name": "completeTransferWithPayload",
      "outputs": [
        {
          "internalType": "bytes",
          "name": "",
          "type": "bytes"
        }
      ],
      "stateMutability": "nonpayable",
      "type": "function"
    },
    {
      "inputs": [
        {
          "internalType": "bytes",
          "name": "encodedVm",
          "type": "bytes"
        }
      ],
      "name": "createWrapped",
      "outputs": [
        {
          "internalType": "address",
          "name": "token",
          "type": "address"
        }
      ],
      "stateMutability": "nonpayable",
      "type": "function"
    },
    {
      "inputs": [
        {
          "components": [
            {
              "internalType": "uint8",
              "name": "payloadID",
              "type": "uint8"
            },
            {
              "internalType": "bytes32",
              "name": "tokenAddress",
              "type": "bytes32"
            },
            {
              "internalType": "uint16",
              "name": "tokenChain",
              "type": "uint16"
            },
            {
              "internalType": "uint8",
              "name": "decimals",
              "type": "uint8"
            },
            {
              "internalType": "bytes32",
              "name": "symbol",
              "type": "bytes32"
            },
            {
              "internalType": "bytes32",
              "name": "name",
              "type": "bytes32"
            }
          ],
          "internalType": "struct BridgeStructs.AssetMeta",
          "name": "meta",
          "type": "tuple"
        }
      ],
      "name": "encodeAssetMeta",
      "outputs": [
        {
          "internalType": "bytes",
          "name": "encoded",
          "type": "bytes"
        }
      ],
      "stateMutability": "pure",
      "type": "function"
    },
    {
      "inputs": [
        {
          "components": [
            {
              "internalType": "uint8",
              "name": "payloadID",
              "type": "uint8"
            },
            {
              "internalType": "uint256",
              "name": "amount",
              "type": "uint256"
            },
            {
              "internalType": "bytes32",
              "name": "tokenAddress",
              "type": "bytes32"
            },
            {
              "internalType": "uint16",
              "name": "tokenChain",
              "type": "uint16"
            },
            {
              "internalType": "bytes32",
              "name": "to",
              "type": "bytes32"
            },
            {
              "internalType": "uint16",
              "name": "toChain",
              "type": "uint16"
            },
            {
              "internalType": "uint256",
              "name": "fee",
              "type": "uint256"
            }
          ],
          "internalType": "struct BridgeStructs.Transfer",
          "name": "transfer",
          "type": "tuple"
        }
      ],
      "name": "encodeTransfer",
      "outputs": [
        {
          "internalType": "bytes",
          "name": "encoded",
          "type": "bytes"
        }
      ],
      "stateMutability": "pure",
      "type": "function"
    },
    {
      "inputs": [
        {
          "components": [
            {
              "internalType": "uint8",
              "name": "payloadID",
              "type": "uint8"
            },
            {
              "internalType": "uint256",
              "name": "amount",
              "type": "uint256"
            },
            {
              "internalType": "bytes32",
              "name": "tokenAddress",
              "type": "bytes32"
            },
            {
              "internalType": "uint16",
              "name": "tokenChain",
              "type": "uint16"
            },
            {
              "internalType": "bytes32",
              "name": "to",
              "type": "bytes32"
            },
            {
              "internalType": "uint16",
              "name": "toChain",
              "type": "uint16"
            },
            {
              "internalType": "bytes32",
              "name": "fromAddress",
              "type": "bytes32"
            },
            {
              "internalType": "bytes",
              "name": "payload",
              "type": "bytes"
            }
          ],
          "internalType": "struct BridgeStructs.TransferWithPayload",
          "name": "transfer",
          "type": "tuple"
        }
      ],
      "name": "encodeTransferWithPayload",
      "outputs": [
        {
          "internalType": "bytes",
          "name": "encoded",
          "type": "bytes"
        }
      ],
      "stateMutability": "pure",
      "type": "function"
    },
    {
      "inputs": [],
      "name": "evmChainId",
      "outputs": [
        {
          "internalType": "uint256",
          "name": "",
          "type": "uint256"
        }
      ],
      "stateMutability": "view",
      "type": "function"
    },
    {
      "inputs": [],
      "name": "finality",
      "outputs": [
        {
          "internalType": "uint8",
          "name": "",
          "type": "uint8"
        }
      ],
      "stateMutability": "view",
      "type": "function"
    },
    {
      "inputs": [
        {
          "internalType": "bytes32",
          "name": "hash",
          "type": "bytes32"
        }
      ],
      "name": "governanceActionIsConsumed",
      "outputs": [
        {
          "internalType": "bool",
          "name": "",
          "type": "bool"
        }
      ],
      "stateMutability": "view",
      "type": "function"
    },
    {
      "inputs": [],
      "name": "governanceChainId",
      "outputs": [
        {
          "internalType": "uint16",
          "name": "",
          "type": "uint16"
        }
      ],
      "stateMutability": "view",
      "type": "function"
    },
    {
      "inputs": [],
      "name": "governanceContract",
      "outputs": [
        {
          "internalType": "bytes32",
          "name": "",
          "type": "bytes32"
        }
      ],
      "stateMutability": "view",
      "type": "function"
    },
    {
      "inputs": [],
      "name": "implementation",
      "outputs": [
        {
          "internalType": "address",
          "name": "",
          "type": "address"
        }
      ],
      "stateMutability": "view",
      "type": "function"
    },
    {
      "inputs": [],
      "name": "initialize",
      "outputs": [],
      "stateMutability": "nonpayable",
      "type": "function"
    },
    {
      "inputs": [],
      "name": "isFork",
      "outputs": [
        {
          "internalType": "bool",
          "name": "",
          "type": "bool"
        }
      ],
      "stateMutability": "view",
      "type": "function"
    },
    {
      "inputs": [
        {
          "internalType": "address",
          "name": "impl",
          "type": "address"
        }
      ],
      "name": "isInitialized",
      "outputs": [
        {
          "internalType": "bool",
          "name": "",
          "type": "bool"
        }
      ],
      "stateMutability": "view",
      "type": "function"
    },
    {
      "inputs": [
        {
          "internalType": "bytes32",
          "name": "hash",
          "type": "bytes32"
        }
      ],
      "name": "isTransferCompleted",
      "outputs": [
        {
          "internalType": "bool",
          "name": "",
          "type": "bool"
        }
      ],
      "stateMutability": "view",
      "type": "function"
    },
    {
      "inputs": [
        {
          "internalType": "address",
          "name": "token",
          "type": "address"
        }
      ],
      "name": "isWrappedAsset",
      "outputs": [
        {
          "internalType": "bool",
          "name": "",
          "type": "bool"
        }
      ],
      "stateMutability": "view",
      "type": "function"
    },
    {
      "inputs": [
        {
          "internalType": "address",
          "name": "token",
          "type": "address"
        }
      ],
      "name": "outstandingBridged",
      "outputs": [
        {
          "internalType": "uint256",
          "name": "",
          "type": "uint256"
        }
      ],
      "stateMutability": "view",
      "type": "function"
    },
    {
      "inputs": [
        {
          "internalType": "bytes",
          "name": "encoded",
          "type": "bytes"
        }
      ],
      "name": "parseAssetMeta",
      "outputs": [
        {
          "components": [
            {
              "internalType": "uint8",
              "name": "payloadID",
              "type": "uint8"
            },
            {
              "internalType": "bytes32",
              "name": "tokenAddress",
              "type": "bytes32"
            },
            {
              "internalType": "uint16",
              "name": "tokenChain",
              "type": "uint16"
            },
            {
              "internalType": "uint8",
              "name": "decimals",
              "type": "uint8"
            },
            {
              "internalType": "bytes32",
              "name": "symbol",
              "type": "bytes32"
            },
            {
              "internalType": "bytes32",
              "name": "name",
              "type": "bytes32"
            }
          ],
          "internalType": "struct BridgeStructs.AssetMeta",
          "name": "meta",
          "type": "tuple"
        }
      ],
      "stateMutability": "pure",
      "type": "function"
    },
    {
      "inputs": [
        {
          "internalType": "bytes",
          "name": "encoded",
          "type": "bytes"
        }
      ],
      "name": "parsePayloadID",
      "outputs": [
        {
          "internalType": "uint8",
          "name": "payloadID",
          "type": "uint8"
        }
      ],
      "stateMutability": "pure",
      "type": "function"
    },
    {
      "inputs": [
        {
          "internalType": "bytes",
          "name": "encodedRecoverChainId",
          "type": "bytes"
        }
      ],
      "name": "parseRecoverChainId",
      "outputs": [
        {
          "components": [
            {
              "internalType": "bytes32",
              "name": "module",
              "type": "bytes32"
            },
            {
              "internalType": "uint8",
              "name": "action",
              "type": "uint8"
            },
            {
              "internalType": "uint256",
              "name": "evmChainId",
              "type": "uint256"
            },
            {
              "internalType": "uint16",
              "name": "newChainId",
              "type": "uint16"
            }
          ],
          "internalType": "struct BridgeStructs.RecoverChainId",
          "name": "rci",
          "type": "tuple"
        }
      ],
      "stateMutability": "pure",
      "type": "function"
    },
    {
      "inputs": [
        {
          "internalType": "bytes",
          "name": "encoded",
          "type": "bytes"
        }
      ],
      "name": "parseRegisterChain",
      "outputs": [
        {
          "components": [
            {
              "internalType": "bytes32",
              "name": "module",
              "type": "bytes32"
            },
            {
              "internalType": "uint8",
              "name": "action",
              "type": "uint8"
            },
            {
              "internalType": "uint16",
              "name": "chainId",
              "type": "uint16"
            },
            {
              "internalType": "uint16",
              "name": "emitterChainID",
              "type": "uint16"
            },
            {
              "internalType": "bytes32",
              "name": "emitterAddress",
              "type": "bytes32"
            }
          ],
          "internalType": "struct BridgeStructs.RegisterChain",
          "name": "chain",
          "type": "tuple"
        }
      ],
      "stateMutability": "pure",
      "type": "function"
    },
    {
      "inputs": [
        {
          "internalType": "bytes",
          "name": "encoded",
          "type": "bytes"
        }
      ],
      "name": "parseTransfer",
      "outputs": [
        {
          "components": [
            {
              "internalType": "uint8",
              "name": "payloadID",
              "type": "uint8"
            },
            {
              "internalType": "uint256",
              "name": "amount",
              "type": "uint256"
            },
            {
              "internalType": "bytes32",
              "name": "tokenAddress",
              "type": "bytes32"
            },
            {
              "internalType": "uint16",
              "name": "tokenChain",
              "type": "uint16"
            },
            {
              "internalType": "bytes32",
              "name": "to",
              "type": "bytes32"
            },
            {
              "internalType": "uint16",
              "name": "toChain",
              "type": "uint16"
            },
            {
              "internalType": "uint256",
              "name": "fee",
              "type": "uint256"
            }
          ],
          "internalType": "struct BridgeStructs.Transfer",
          "name": "transfer",
          "type": "tuple"
        }
      ],
      "stateMutability": "pure",
      "type": "function"
    },
    {
      "inputs": [
        {
          "internalType": "bytes",
          "name": "encoded",
          "type": "bytes"
        }
      ],
      "name": "parseTransferWithPayload",
      "outputs": [
        {
          "components": [
            {
              "internalType": "uint8",
              "name": "payloadID",
              "type": "uint8"
            },
            {
              "internalType": "uint256",
              "name": "amount",
              "type": "uint256"
            },
            {
              "internalType": "bytes32",
              "name": "tokenAddress",
              "type": "bytes32"
            },
            {
              "internalType": "uint16",
              "name": "tokenChain",
              "type": "uint16"
            },
            {
              "internalType": "bytes32",
              "name": "to",
              "type": "bytes32"
            },
            {
              "internalType": "uint16",
              "name": "toChain",
              "type": "uint16"
            },
            {
              "internalType": "bytes32",
              "name": "fromAddress",
              "type": "bytes32"
            },
            {
              "internalType": "bytes",
              "name": "payload",
              "type": "bytes"
            }
          ],
          "internalType": "struct BridgeStructs.TransferWithPayload",
          "name": "transfer",
          "type": "tuple"
        }
      ],
      "stateMutability": "pure",
      "type": "function"
    },
    {
      "inputs": [
        {
          "internalType": "bytes",
          "name": "encoded",
          "type": "bytes"
        }
      ],
      "name": "parseUpgrade",
      "outputs": [
        {
          "components": [
            {
              "internalType": "bytes32",
              "name": "module",
              "type": "bytes32"
            },
            {
              "internalType": "uint8",
              "name": "action",
              "type": "uint8"
            },
            {
              "internalType": "uint16",
              "name": "chainId",
              "type": "uint16"
            },
            {
              "internalType": "bytes32",
              "name": "newContract",
              "type": "bytes32"
            }
          ],
          "internalType": "struct BridgeStructs.UpgradeContract",
          "name": "chain",
          "type": "tuple"
        }
      ],
      "stateMutability": "pure",
      "type": "function"
    },
    {
      "inputs": [
        {
          "internalType": "bytes",
          "name": "encodedVM",
          "type": "bytes"
        }
      ],
      "name": "registerChain",
      "outputs": [],
      "stateMutability": "nonpayable",
      "type": "function"
    },
    {
      "inputs": [
        {
          "internalType": "bytes",
          "name": "encodedVM",
          "type": "bytes"
        }
      ],
      "name": "submitRecoverChainId",
      "outputs": [],
      "stateMutability": "nonpayable",
      "type": "function"
    },
    {
      "inputs": [],
      "name": "tokenImplementation",
      "outputs": [
        {
          "internalType": "address",
          "name": "",
          "type": "address"
        }
      ],
      "stateMutability": "view",
      "type": "function"
    },
    {
      "inputs": [
        {
          "internalType": "address",
          "name": "token",
          "type": "address"
        },
        {
          "internalType": "uint256",
          "name": "amount",
          "type": "uint256"
        },
        {
          "internalType": "uint16",
          "name": "recipientChain",
          "type": "uint16"
        },
        {
          "internalType": "bytes32",
          "name": "recipient",
          "type": "bytes32"
        },
        {
          "internalType": "uint256",
          "name": "arbiterFee",
          "type": "uint256"
        },
        {
          "internalType": "uint32",
          "name": "nonce",
          "type": "uint32"
        }
      ],
      "name": "transferTokens",
      "outputs": [
        {
          "internalType": "uint64",
          "name": "sequence",
          "type": "uint64"
        }
      ],
      "stateMutability": "payable",
      "type": "function"
    },
    {
      "inputs": [
        {
          "internalType": "address",
          "name": "token",
          "type": "address"
        },
        {
          "internalType": "uint256",
          "name": "amount",
          "type": "uint256"
        },
        {
          "internalType": "uint16",
          "name": "recipientChain",
          "type": "uint16"
        },
        {
          "internalType": "bytes32",
          "name": "recipient",
          "type": "bytes32"
        },
        {
          "internalType": "uint32",
          "name": "nonce",
          "type": "uint32"
        },
        {
          "internalType": "bytes",
          "name": "payload",
          "type": "bytes"
        }
      ],
      "name": "transferTokensWithPayload",
      "outputs": [
        {
          "internalType": "uint64",
          "name": "sequence",
          "type": "uint64"
        }
      ],
      "stateMutability": "payable",
      "type": "function"
    },
    {
      "inputs": [
        {
          "internalType": "bytes",
          "name": "encodedVm",
          "type": "bytes"
        }
      ],
      "name": "updateWrapped",
      "outputs": [
        {
          "internalType": "address",
          "name": "token",
          "type": "address"
        }
      ],
      "stateMutability": "nonpayable",
      "type": "function"
    },
    {
      "inputs": [
        {
          "internalType": "bytes",
          "name": "encodedVM",
          "type": "bytes"
        }
      ],
      "name": "upgrade",
      "outputs": [],
      "stateMutability": "nonpayable",
      "type": "function"
    },
    {
      "inputs": [],
      "name": "wormhole",
      "outputs": [
        {
          "internalType": "contract IWormhole",
          "name": "",
          "type": "address"
        }
      ],
      "stateMutability": "view",
      "type": "function"
    },
    {
      "inputs": [
        {
          "internalType": "uint16",
          "name": "recipientChain",
          "type": "uint16"
        },
        {
          "internalType": "bytes32",
          "name": "recipient",
          "type": "bytes32"
        },
        {
          "internalType": "uint256",
          "name": "arbiterFee",
          "type": "uint256"
        },
        {
          "internalType": "uint32",
          "name": "nonce",
          "type": "uint32"
        }
      ],
      "name": "wrapAndTransferETH",
      "outputs": [
        {
          "internalType": "uint64",
          "name": "sequence",
          "type": "uint64"
        }
      ],
      "stateMutability": "payable",
      "type": "function"
    },
    {
      "inputs": [
        {
          "internalType": "uint16",
          "name": "recipientChain",
          "type": "uint16"
        },
        {
          "internalType": "bytes32",
          "name": "recipient",
          "type": "bytes32"
        },
        {
          "internalType": "uint32",
          "name": "nonce",
          "type": "uint32"
        },
        {
          "internalType": "bytes",
          "name": "payload",
          "type": "bytes"
        }
      ],
      "name": "wrapAndTransferETHWithPayload",
      "outputs": [
        {
          "internalType": "uint64",
          "name": "sequence",
          "type": "uint64"
        }
      ],
      "stateMutability": "payable",
      "type": "function"
    },
    {
      "inputs": [
        {
          "internalType": "uint16",
          "name": "tokenChainId",
          "type": "uint16"
        },
        {
          "internalType": "bytes32",
          "name": "tokenAddress",
          "type": "bytes32"
        }
      ],
      "name": "wrappedAsset",
      "outputs": [
        {
          "internalType": "address",
          "name": "",
          "type": "address"
        }
      ],
      "stateMutability": "view",
      "type": "function"
    },
    {
      "stateMutability": "payable",
      "type": "receive"
    }
  ],
  "bytecode": {
    "object": "0x608060405234801561001057600080fd5b506001600d55615960806100256000396000f3fe608060405260043610620002935760003560e01c8063aa4efa5b116200015f578063cb4cfea811620000c5578063e89bc4011162000084578063e89bc4011462000996578063ea63738d14620009bb578063f768441f14620009ef578063fbe3c2cd1462000a14578063fbeeacd91462000a35578063ff200cde1462000a9557600080fd5b8063cb4cfea81462000897578063d56e2e2414620008f7578063d60b347f146200091c578063e039f2241462000959578063e8059810146200097157600080fd5b8063b96c7e4d116200011e578063b96c7e4d14620007ce578063bee9cdfc1462000808578063c3f511c1146200081f578063c48fa1151462000844578063c5a5ebda146200085b578063c6878519146200087257600080fd5b8063aa4efa5b1462000709578063ad5c4648146200073d578063ad66a5f1146200075d578063b046223b1462000792578063b172b22214620007b757600080fd5b80632c3c02a41162000205578063739fc8d111620001c4578063739fc8d114620006495780638129fc1c146200066b57806384acd1bb14620006835780639981509f14620006a35780639a8a059214620006ba578063a5799f9314620006e457600080fd5b80632c3c02a414620005975780632f3a3d5d14620005cb5780635c60da1b14620005eb5780635f854266146200060357806364d42b17146200062857600080fd5b80631a2be4da11620002525780631a2be4da14620004295780631c8475e414620004775780631ff1e28614620004ab5780632539464514620004e95780632b511375146200050e57600080fd5b806301f5325514620002a057806307dfd8fb146200031e5780630f509008146200039a5780630f5287b014620003d2578063178149e7146200040257600080fd5b366200029b57005b600080fd5b348015620002ad57600080fd5b50620002c5620002bf366004620043ac565b62000aba565b604051620003159190600060a0820190508251825260ff6020840151166020830152604083015161ffff808216604085015280606086015116606085015250506080830151608083015292915050565b60405180910390f35b3480156200032b57600080fd5b50620003436200033d366004620043ac565b62000c36565b604051620003159190600060c08201905060ff83511682526020830151602083015261ffff604084015116604083015260ff60608401511660608301526080830151608083015260a083015160a083015292915050565b348015620003a757600080fd5b50620003bf620003b9366004620043ac565b62000dc5565b60405160ff909116815260200162000315565b620003e9620003e336600462004432565b62000dd9565b6040516001600160401b03909116815260200162000315565b3480156200040f57600080fd5b506200042762000421366004620043ac565b62000e7c565b005b3480156200043657600080fd5b5062000466620004483660046200449e565b6001600160a01b031660009081526009602052604090205460ff1690565b604051901515815260200162000315565b3480156200048457600080fd5b506200049c62000496366004620043ac565b62000f98565b60405162000315919062004510565b348015620004b857600080fd5b50620004d0620004ca36600462004525565b62000fa7565b6040516001600160a01b03909116815260200162000315565b348015620004f657600080fd5b506200042762000508366004620043ac565b62000fd3565b3480156200051b57600080fd5b50620005336200052d366004620043ac565b620010e3565b604051620003159190600060e08201905060ff83511682526020830151602083015260408301516040830152606083015161ffff8082166060850152608085015160808501528060a08601511660a0850152505060c083015160c083015292915050565b348015620005a457600080fd5b5062000466620005b636600462004554565b60009081526005602052604090205460ff1690565b348015620005d857600080fd5b506001546001600160a01b0316620004d0565b348015620005f857600080fd5b50620004d062001254565b3480156200061057600080fd5b506200049c620006223660046200458b565b6200126e565b3480156200063557600080fd5b50600c545b60405190815260200162000315565b3480156200065657600080fd5b50600254640100000000900460ff16620003bf565b3480156200067857600080fd5b506200042762001303565b3480156200069057600080fd5b506000546001600160a01b0316620004d0565b620003e9620006b436600462004632565b620013cd565b348015620006c757600080fd5b5060025461ffff165b60405161ffff909116815260200162000315565b348015620006f157600080fd5b506200042762000703366004620043ac565b6200140d565b3480156200071657600080fd5b50620004666200072836600462004554565b60009081526006602052604090205460ff1690565b3480156200074a57600080fd5b506004546001600160a01b0316620004d0565b3480156200076a57600080fd5b506200063a6200077c36600462004681565b61ffff166000908152600b602052604090205490565b3480156200079f57600080fd5b506200049c620007b1366004620046a1565b62001579565b348015620007c457600080fd5b506003546200063a565b348015620007db57600080fd5b506200063a620007ed3660046200449e565b6001600160a01b03166000908152600a602052604090205490565b620003e9620008193660046200473c565b620015f2565b3480156200082c57600080fd5b506200049c6200083e366004620043ac565b62001625565b620003e962000855366004620047af565b62001634565b620003e96200086c366004620047eb565b62001949565b3480156200087f57600080fd5b506200042762000891366004620043ac565b620019d7565b348015620008a457600080fd5b50620008bc620008b6366004620043ac565b620019e8565b6040516200031591908151815260208083015160ff16908201526040808301519082015260609182015161ffff169181019190915260800190565b3480156200090457600080fd5b506200049c6200091636600462004879565b62001ae7565b3480156200092957600080fd5b50620004666200093b3660046200449e565b6001600160a01b031660009081526007602052604090205460ff1690565b3480156200096657600080fd5b506200046662001b2a565b3480156200097e57600080fd5b50620004d062000990366004620043ac565b62001b3e565b348015620009a357600080fd5b5062000533620009b5366004620043ac565b62001c43565b348015620009c857600080fd5b50620009e0620009da366004620043ac565b62001d4d565b6040516200031591906200494f565b348015620009fc57600080fd5b50620004d062000a0e366004620043ac565b62001eca565b34801562000a2157600080fd5b5060025462010000900461ffff16620006d0565b34801562000a4257600080fd5b5062000a5a62000a54366004620043ac565b62001fcf565b6040516200031591908151815260208083015160ff169082015260408083015161ffff16908201526060918201519181019190915260800190565b34801562000aa257600080fd5b506200042762000ab4366004620043ac565b620020ce565b6040805160a08101825260008082526020820181905291810182905260608101829052608081018290529062000af18382620020db565b825262000b00602082620049e0565b82519091506a546f6b656e4272696467651462000b3a5760405162461bcd60e51b815260040162000b3190620049f6565b60405180910390fd5b62000b4683826200213d565b60ff16602083015262000b5b600182620049e0565b9050816020015160ff1660011462000b875760405162461bcd60e51b815260040162000b319062004a1c565b62000b9383826200219d565b61ffff16604083015262000ba9600282620049e0565b905062000bb783826200219d565b61ffff16606083015262000bcd600282620049e0565b905062000bdb8382620020db565b608083015262000bed602082620049e0565b90508083511462000c305760405162461bcd60e51b815260206004820152600c60248201526b0eee4dedcce40d8cadccee8d60a31b604482015260640162000b31565b50919050565b6040805160c081018252600080825260208201819052918101829052606081018290526080810182905260a081018290529062000c7483826200213d565b60ff16825262000c86600182620049e0565b9050816000015160ff1660021462000cd55760405162461bcd60e51b8152602060048201526011602482015270696e76616c69642041737365744d65746160781b604482015260640162000b31565b62000ce18382620020db565b60208084019190915262000cf69082620049e0565b905062000d0483826200219d565b61ffff16604083015262000d1a600282620049e0565b905062000d2883826200213d565b60ff16606083015262000d3d600182620049e0565b905062000d4b8382620020db565b608083015262000d5d602082620049e0565b905062000d6b8382620020db565b60a083015262000d7d602082620049e0565b90508083511462000c305760405162461bcd60e51b8152602060048201526011602482015270696e76616c69642041737365744d65746160781b604482015260640162000b31565b600062000dd382826200213d565b92915050565b60006002600d540362000e2f5760405162461bcd60e51b815260206004820152601f60248201527f5265656e7472616e637947756172643a207265656e7472616e742063616c6c00604482015260640162000b31565b6002600d55600062000e43888886620021fe565b905062000e6b8160000151826020015183604001518989866060015187608001518a6200268c565b6001600d5598975050505050505050565b62000e8662001b2a565b62000ec15760405162461bcd60e51b815260206004820152600a6024820152696e6f74206120666f726b60b01b604482015260640162000b31565b600080600062000ed184620027b0565b92509250925081819062000efa5760405162461bcd60e51b815260040162000b31919062004510565b5062000f0b836101400151620029cf565b600062000f1c8460e00151620019e8565b90504681604001511462000f675760405162461bcd60e51b815260206004820152601160248201527034b73b30b634b21022ab269021b430b4b760791b604482015260640162000b31565b62000f768160400151620029ea565b60608101516002805461ffff191661ffff9092169190911790555b5050505050565b606062000dd382600162002a35565b61ffff91909116600090815260086020908152604080832093835292905220546001600160a01b031690565b62000fdd62001b2a565b156200101b5760405162461bcd60e51b815260206004820152600c60248201526b696e76616c696420666f726b60a01b604482015260640162000b31565b60008060006200102b84620027b0565b925092509250818190620010545760405162461bcd60e51b815260040162000b31919062004510565b5062001065836101400151620029cf565b6000620010768460e0015162001fcf565b90506200108660025461ffff1690565b61ffff16816040015161ffff1614620010d35760405162461bcd60e51b815260206004820152600e60248201526d1ddc9bdb99c818da185a5b881a5960921b604482015260640162000b31565b606081015162000f919062003194565b6040805160e081018252600080825260208201819052918101829052606081018290526080810182905260a0810182905260c08101829052906200112883826200213d565b60ff1682526200113a600182620049e0565b9050816000015160ff16600114620011665760405162461bcd60e51b815260040162000b319062004a42565b620011728382620032cb565b602080840191909152620011879082620049e0565b9050620011958382620020db565b6040830152620011a7602082620049e0565b9050620011b583826200219d565b61ffff166060830152620011cb600282620049e0565b9050620011d98382620020db565b6080830152620011eb602082620049e0565b9050620011f983826200219d565b61ffff1660a08301526200120f600282620049e0565b90506200121d8382620032cb565b60c08301526200122f602082620049e0565b90508083511462000c305760405162461bcd60e51b815260040162000b319062004a42565b6000620012696001546001600160a01b031690565b905090565b8051602080830151604080850151606080870151608088015160a089015160c08a0151955160f89990991b6001600160f81b031916978901979097526021880195909552604187019290925260f091821b6001600160f01b03199081166061880152606387019490945293901b909116608384015260858301529060a5015b6040516020818303038152906040529050919050565b6000620013377f360894a13ba1a3210667c828492db98dca3e2076cc3735a920a3ca505d382bbc546001600160a01b031690565b90506200135c816001600160a01b031660009081526007602052604090205460ff1690565b15620013a15760405162461bcd60e51b8152602060048201526013602482015272185b1c9958591e481a5b9a5d1a585b1a5e9959606a1b604482015260640162000b31565b620013ca816001600160a01b03166000908152600760205260409020805460ff19166001179055565b50565b600080620013db8462003324565b9050620014038160000151826020015183604001518989866060015187608001518a6200268c565b9695505050505050565b60008060006200141d84620027b0565b925092509250818190620014465760405162461bcd60e51b815260040162000b31919062004510565b5062001457836101400151620029cf565b6000620014688460e0015162000aba565b90506200147860025461ffff1690565b61ffff16816040015161ffff161480156200149a57506200149862001b2a565b155b80620014ac5750604081015161ffff16155b620014ed5760405162461bcd60e51b815260206004820152601060248201526f1a5b9d985b1a590818da185a5b881a5960821b604482015260640162000b31565b606081015161ffff166000908152600b602052604081205414620015545760405162461bcd60e51b815260206004820152601860248201527f636861696e20616c726561647920726567697374657265640000000000000000604482015260640162000b31565b62000f918160600151826080015161ffff9091166000908152600b6020526040902055565b8051602080830151604080850151606080870151608088015160a0890151945160f898891b6001600160f81b031990811698820198909852602181019690965260f09390931b6001600160f01b031916604186015290951b909316604383015260448201929092526064810191909152608401620012ed565b60008062001601600062003324565b905062001403816000015182602001518360400151898986608001518a8a620035ee565b606062000dd382600062002a35565b60408051600481526024810182526020810180516001600160e01b031663313ce56760e01b179052905160009182916001600160a01b03861691620016799162004a6c565b600060405180830381855afa9150503d8060008114620016b6576040519150601f19603f3d011682016040523d82523d6000602084013e620016bb565b606091505b5060408051600481526024810182526020810180516001600160e01b03166395d89b4160e01b1790529051919350600092506001600160a01b0387169162001704919062004a6c565b600060405180830381855afa9150503d806000811462001741576040519150601f19603f3d011682016040523d82523d6000602084013e62001746565b606091505b5060408051600481526024810182526020810180516001600160e01b03166306fdde0360e01b1790529051919350600092506001600160a01b038816916200178f919062004a6c565b600060405180830381855afa9150503d8060008114620017cc576040519150601f19603f3d011682016040523d82523d6000602084013e620017d1565b606091505b50915050600083806020019051810190620017ed919062004a97565b905060008380602001905181019062001807919062004b03565b905060008380602001905181019062001821919062004b03565b9050600080602084015191506020830151905060006040518060c00160405280600260ff1681526020018d6001600160a01b031660001b81526020016200186b60025461ffff1690565b61ffff1681526020018760ff1681526020018481526020018381525090506000620018968262001579565b9050620018ab6000546001600160a01b031690565b6001600160a01b031663b19a437e348e84620018d260025460ff6401000000009091041690565b6040518563ffffffff1660e01b8152600401620018f29392919062004b3b565b60206040518083038185885af115801562001911573d6000803e3d6000fd5b50505050506040513d601f19601f8201168201806040525081019062001938919062004b87565b9d9c50505050505050505050505050565b60006002600d54036200199f5760405162461bcd60e51b815260206004820152601f60248201527f5265656e7472616e637947756172643a207265656e7472616e742063616c6c00604482015260640162000b31565b6002600d556000620019b3888883620021fe565b905062000e6b816000015182602001518360400151898986608001518a8a620035ee565b620019e481600062002a35565b5050565b60408051608081018252600080825260208201819052918101829052606081018290529062001a188382620020db565b825262001a27602082620049e0565b82519091506a546f6b656e4272696467651462001a585760405162461bcd60e51b815260040162000b3190620049f6565b62001a6483826200213d565b60ff16602083015262001a79600182620049e0565b9050816020015160ff1660031462001aa55760405162461bcd60e51b815260040162000b319062004a1c565b62001ab18382620032cb565b604083015262001ac3602082620049e0565b905062001ad183826200219d565b61ffff16606083015262000bed600282620049e0565b6060816000015182602001518360400151846060015185608001518660a001518760c001518860e00151604051602001620012ed98979695949392919062004ba5565b60004662001b37600c5490565b1415905090565b60008060008062001b576000546001600160a01b031690565b6001600160a01b031663c0fd8bde866040518263ffffffff1660e01b815260040162001b84919062004510565b600060405180830381865afa15801562001ba2573d6000803e3d6000fd5b505050506040513d6000823e601f3d908101601f1916820160405262001bcc919081019062004d15565b92509250925081819062001bf55760405162461bcd60e51b815260040162000b31919062004510565b5062001c018362003661565b62001c205760405162461bcd60e51b815260040162000b319062004e8a565b600062001c318460e0015162000c36565b905062001403818560a00151620036ce565b6040805160e081018252600080825260208201819052918101829052606081018290526080810182905260a0810182905260c081018290529062001c878362000dc5565b90508060ff1660010362001ca85762001ca083620010e3565b915062000c30565b8060ff1660030362001d0f57600062001cc18462001d4d565b60038452602080820151908501526040808201519085015260608082015161ffff908116918601919091526080808301519086015260a091820151169084015250600060c083015262000c30565b60405162461bcd60e51b8152602060048201526012602482015271125b9d985b1a59081c185e5b1bd859081a5960721b604482015260640162000b31565b604080516101008101825260008082526020820181905291810182905260608082018390526080820183905260a0820183905260c0820183905260e08201529062001d9983826200213d565b60ff16825262001dab600182620049e0565b9050816000015160ff1660031462001dd75760405162461bcd60e51b815260040162000b319062004a42565b62001de38382620032cb565b60208084019190915262001df89082620049e0565b905062001e068382620020db565b604083015262001e18602082620049e0565b905062001e2683826200219d565b61ffff16606083015262001e3c600282620049e0565b905062001e4a8382620020db565b608083015262001e5c602082620049e0565b905062001e6a83826200219d565b61ffff1660a083015262001e80600282620049e0565b905062001e8e8382620020db565b60c083015262001ea0602082620049e0565b905062001ebf8182855162001eb6919062004eb3565b8591906200397e565b60e083015250919050565b60008060008062001ee36000546001600160a01b031690565b6001600160a01b031663c0fd8bde866040518263ffffffff1660e01b815260040162001f10919062004510565b600060405180830381865afa15801562001f2e573d6000803e3d6000fd5b505050506040513d6000823e601f3d908101601f1916820160405262001f58919081019062004d15565b92509250925081819062001f815760405162461bcd60e51b815260040162000b31919062004510565b5062001f8d8362003661565b62001fac5760405162461bcd60e51b815260040162000b319062004e8a565b600062001fbd8460e0015162000c36565b905062001403818560a0015162003a99565b60408051608081018252600080825260208201819052918101829052606081018290529062001fff8382620020db565b82526200200e602082620049e0565b82519091506a546f6b656e427269646765146200203f5760405162461bcd60e51b815260040162000b3190620049f6565b6200204b83826200213d565b60ff16602083015262002060600182620049e0565b9050816020015160ff166002146200208c5760405162461bcd60e51b815260040162000b319062004a1c565b6200209883826200219d565b61ffff166040830152620020ae600282620049e0565b9050620020bc8382620020db565b606083015262000bed602082620049e0565b620019e481600162002a35565b6000620020ea826020620049e0565b83511015620021345760405162461bcd60e51b8152602060048201526015602482015274746f427974657333325f6f75744f66426f756e647360581b604482015260640162000b31565b50016020015190565b60006200214c826001620049e0565b83511015620021945760405162461bcd60e51b8152602060048201526013602482015272746f55696e74385f6f75744f66426f756e647360681b604482015260640162000b31565b50016001015190565b6000620021ac826002620049e0565b83511015620021f55760405162461bcd60e51b8152602060048201526014602482015273746f55696e7431365f6f75744f66426f756e647360601b604482015260640162000b31565b50016002015190565b6040805160a0810182526000808252602082018190529181018290526060810182905260808101919091526001600160a01b038416600090815260096020526040812054819060ff16156200232157856001600160a01b0316639a8a05926040518163ffffffff1660e01b8152600401602060405180830381865afa1580156200228c573d6000803e3d6000fd5b505050506040513d601f19601f82011682018060405250810190620022b2919062004ec9565b9150856001600160a01b0316633d6c043b6040518163ffffffff1660e01b8152600401602060405180830381865afa158015620022f3573d6000803e3d6000fd5b505050506040513d601f19601f8201168201806040525081019062002319919062004ee9565b905062002335565b505060025461ffff166001600160a01b0385165b60408051600481526024810182526020810180516001600160e01b031663313ce56760e01b17905290516000916001600160a01b0389169162002379919062004a6c565b600060405180830381855afa9150503d8060008114620023b6576040519150601f19603f3d011682016040523d82523d6000602084013e620023bb565b606091505b50915050600081806020019051810190620023d7919062004a97565b9050620023f0620023e9888362003b94565b8262003bd3565b96506200240060025461ffff1690565b61ffff168461ffff16036200259f57604080513060248083019190915282518083039091018152604490910182526020810180516001600160e01b03166370a0823160e01b17905290516000916001600160a01b038b169162002464919062004a6c565b600060405180830381855afa9150503d8060008114620024a1576040519150601f19603f3d011682016040523d82523d6000602084013e620024a6565b606091505b50915050600081806020019051810190620024c2919062004ee9565b9050620024d28a33308c62003c08565b604080513060248083019190915282518083039091018152604490910182526020810180516001600160e01b03166370a0823160e01b17905290516000916001600160a01b038d169162002527919062004a6c565b600060405180830381855afa9150503d806000811462002564576040519150601f19603f3d011682016040523d82523d6000602084013e62002569565b606091505b5091505060008180602001905181019062002585919062004ee9565b905062002593838262004eb3565b9a505050505062002610565b620025ad8833308a62003c08565b604051632770a7eb60e21b8152306004820152602481018890526001600160a01b03891690639dc29fac90604401600060405180830381600087803b158015620025f657600080fd5b505af11580156200260b573d6000803e3d6000fd5b505050505b60006200261e888362003b94565b905060006200262e888462003b94565b90506200263e60025461ffff1690565b61ffff168661ffff16036200265957620026598a8362003c7b565b6040805160a08101825261ffff909716875260208701959095529385015250506060820152346080820152949350505050565b600086841115620026d55760405162461bcd60e51b815260206004820152601260248201527119995948195e18d959591cc8185b5bdd5b9d60721b604482015260640162000b31565b6040805160e081018252600181526020810189905290810189905261ffff8a8116606083015260808201879052871660a082015260c081018590526000546001600160a01b031663b19a437e85856200272e856200126e565b600254640100000000900460ff166040518563ffffffff1660e01b81526004016200275c9392919062004b3b565b60206040518083038185885af11580156200277b573d6000803e3d6000fd5b50505050506040513d601f19601f82011682018060405250810190620027a2919062004b87565b9a9950505050505050505050565b604080516101608101825260008082526020820181905291810182905260608082018390526080820183905260a0820183905260c0820183905260e082018190526101008201839052610120820152610140810191909152600060606000806000620028246000546001600160a01b031690565b6001600160a01b031663c0fd8bde886040518263ffffffff1660e01b815260040162002851919062004510565b600060405180830381865afa1580156200286f573d6000803e3d6000fd5b505050506040513d6000823e601f3d908101601f1916820160405262002899919081019062004d15565b92509250925081620028b25791945092509050620029c8565b60025462010000900461ffff1661ffff16836060015161ffff1614620029105750506040805180820190915260168152753bb937b7339033b7bb32b93730b731b29031b430b4b760511b6020820152909350600092509050620029c8565b6003548360800151146200296357505060408051808201909152601981527f77726f6e6720676f7665726e616e636520636f6e7472616374000000000000006020820152909350600092509050620029c8565b61014083015160009081526005602052604090205460ff1615620029ad578260006040518060600160405280602281526020016200590960229139955095509550505050620029c8565b50506040805160208101909152600081529093506001925090505b9193909250565b6000908152600560205260409020805460ff19166001179055565b46811462002a305760405162461bcd60e51b81526020600482015260126024820152711a5b9d985b1a5908195d9b50da185a5b925960721b604482015260640162000b31565b600c55565b6060600080600062002a4f6000546001600160a01b031690565b6001600160a01b031663c0fd8bde876040518263ffffffff1660e01b815260040162002a7c919062004510565b600060405180830381865afa15801562002a9a573d6000803e3d6000fd5b505050506040513d6000823e601f3d908101601f1916820160405262002ac4919081019062004d15565b92509250925081819062002aed5760405162461bcd60e51b815260040162000b31919062004510565b5062002af98362003661565b62002b185760405162461bcd60e51b815260040162000b319062004e8a565b600062002b298460e0015162001c43565b9050600062002b3c826080015162003d48565b825190915060ff1660030362002b9757336001600160a01b0382161462002b975760405162461bcd60e51b815260206004820152600e60248201526d34b73b30b634b21039b2b73232b960911b604482015260640162000b31565b61014085015160009081526006602052604090205460ff161562002bfe5760405162461bcd60e51b815260206004820152601a60248201527f7472616e7366657220616c726561647920636f6d706c65746564000000000000604482015260640162000b31565b62002c238561014001516000908152600660205260409020805460ff19166001179055565b60025461ffff1661ffff168260a0015161ffff161462002c7d5760405162461bcd60e51b815260206004820152601460248201527334b73b30b634b2103a30b933b2ba1031b430b4b760611b604482015260640162000b31565b600062002c8d60025461ffff1690565b61ffff16836060015161ffff160362002cc75762002caf836040015162003d48565b905062002cc181846020015162003d9e565b62002d48565b600062002cdd8460600151856040015162000fa7565b90506001600160a01b03811662002d455760405162461bcd60e51b815260206004820152602560248201527f6e6f207772617070657220666f72207468697320746f6b656e2063726561746560448201526419081e595d60da1b606482015260840162000b31565b90505b87158062002d6357506004546001600160a01b038281169116145b62002dbd5760405162461bcd60e51b815260206004820152602360248201527f696e76616c696420746f6b656e2c2063616e206f6e6c7920756e77726170205760448201526208aa8960eb1b606482015260840162000b31565b60408051600481526024810182526020810180516001600160e01b031663313ce56760e01b17905290516000916001600160a01b0384169162002e01919062004a6c565b600060405180830381855afa9150503d806000811462002e3e576040519150601f19603f3d011682016040523d82523d6000602084013e62002e43565b606091505b5091505060008180602001905181019062002e5f919062004a97565b9050600062002e7386602001518362003bd3565b9050600062002e878760c001518462003bd3565b905060008111801562002ea357506001600160a01b0386163314155b1562003035578181111562002f065760405162461bcd60e51b815260206004820152602260248201527f66656520686967686572207468616e207472616e7366657272656420616d6f756044820152611b9d60f21b606482015260840162000b31565b8b1562002fa05760048054604051632e1a7d4d60e01b81529182018390526001600160a01b031690632e1a7d4d90602401600060405180830381600087803b15801562002f5257600080fd5b505af115801562002f67573d6000803e3d6000fd5b505060405133925083156108fc02915083906000818181858888f1935050505015801562002f99573d6000803e3d6000fd5b5062003039565b60025461ffff1661ffff16876060015161ffff161462003022576040516340c10f1960e01b8152336004820152602481018290526001600160a01b038616906340c10f1990604401600060405180830381600087803b1580156200300357600080fd5b505af115801562003018573d6000803e3d6000fd5b5050505062003039565b6200302f85338362003dd0565b62003039565b5060005b600062003047828462004eb3565b90508c15620030ec5760048054604051632e1a7d4d60e01b81529182018390526001600160a01b031690632e1a7d4d90602401600060405180830381600087803b1580156200309557600080fd5b505af1158015620030aa573d6000803e3d6000fd5b50506040516001600160a01b038a16925083156108fc02915083906000818181858888f19350505050158015620030e5573d6000803e3d6000fd5b506200317d565b60025461ffff1661ffff16886060015161ffff161462003170576040516340c10f1960e01b81526001600160a01b038881166004830152602482018390528716906340c10f1990604401600060405180830381600087803b1580156200315157600080fd5b505af115801562003166573d6000803e3d6000fd5b505050506200317d565b6200317d86888362003dd0565b50505060e0909701519a9950505050505050505050565b6000620031c87f360894a13ba1a3210667c828492db98dca3e2076cc3735a920a3ca505d382bbc546001600160a01b031690565b9050620031d58262003e02565b60408051600481526024810182526020810180516001600160e01b031663204a7f0760e21b179052905160009182916001600160a01b038616916200321a9162004a6c565b600060405180830381855af49150503d806000811462003257576040519150601f19603f3d011682016040523d82523d6000602084013e6200325c565b606091505b5091509150818190620032845760405162461bcd60e51b815260040162000b31919062004510565b50836001600160a01b0316836001600160a01b03167f2e4cc16c100f0b55e2df82ab0b1a7e294aa9cbd01b48fbaf622683fbc0507a4960405160405180910390a350505050565b6000620032da826020620049e0565b83511015620021345760405162461bcd60e51b8152602060048201526015602482015274746f55696e743235365f6f75744f66426f756e647360581b604482015260640162000b31565b6040805160a081018252600080825260208201819052918101829052606081018290526080810191909152600080546001600160a01b03166001600160a01b0316631a90a2196040518163ffffffff1660e01b8152600401602060405180830381865afa1580156200339a573d6000803e3d6000fd5b505050506040513d601f19601f82011682018060405250810190620033c0919062004ee9565b90503481106200341e5760405162461bcd60e51b815260206004820152602260248201527f76616c756520697320736d616c6c6572207468616e20776f726d686f6c652066604482015261656560f01b606482015260840162000b31565b60006200342c823462004eb3565b905080841115620034955760405162461bcd60e51b815260206004820152602c60248201527f66656520697320626967676572207468616e20616d6f756e74206d696e75732060448201526b776f726d686f6c652066656560a01b606482015260840162000b31565b6000620034a482601262003b94565b90506000620034b586601262003b94565b90506000620034c683601262003bd3565b620034d2908562004eb3565b905080156200350b57604051339082156108fc029083906000818181858888f1935050505015801562003509573d6000803e3d6000fd5b505b6004546001600160a01b031663d0e30db062003528838762004eb3565b6040518263ffffffff1660e01b81526004016000604051808303818588803b1580156200355457600080fd5b505af115801562003569573d6000803e3d6000fd5b50505050506200358c620035856004546001600160a01b031690565b8462003c7b565b6040518060a00160405280620035a560025461ffff1690565b61ffff168152602001620035c16004546001600160a01b031690565b6001600160a01b031660001b81526020018481526020018381526020018681525095505050505050919050565b6040805161010081018252600381526020810188905290810188905261ffff808a16606083015260808201869052861660a08201523360c082015260e08101829052600090620036466000546001600160a01b031690565b6001600160a01b031663b19a437e86866200272e8562001ae7565b60006200366d62001b2a565b15620036ab5760405162461bcd60e51b815260206004820152600c60248201526b696e76616c696420666f726b60a01b604482015260640162000b31565b50608081015160609091015161ffff166000908152600b60205260409020541490565b6000620036de60025461ffff1690565b61ffff16836040015161ffff16036200374b5760405162461bcd60e51b815260206004820152602860248201527f63616e206f6e6c79207772617020746f6b656e732066726f6d20666f726569676044820152676e20636861696e7360c01b606482015260840162000b31565b60006001600160a01b03166200376a8460400151856020015162000fa7565b6001600160a01b031614620037c25760405162461bcd60e51b815260206004820152601c60248201527f7772617070656420617373657420616c72656164792065786973747300000000604482015260640162000b31565b600063c71f461560e01b620037db8560a0015162003e44565b620037ea866080015162003e44565b8660600151863089604001518a6020015160405160240162003813979695949392919062004f03565b60408051601f19818403018152918152602080830180516001600160e01b03166001600160e01b031990951694909417909352519092506000916200385d91309185910162004f70565b6040516020818303038152906040529050600060405180602001620038829062004258565b601f1982820381018352601f909101166040819052620038a89190849060200162004f96565b6040516020818303038152906040529050600086604001518760200151604051602001620038ef92919060f09290921b6001600160f01b0319168252600282015260220190565b604051602081830303815290604052805190602001209050808251602084016000f59450843b6200391f57600080fd5b6040808801516020808a015161ffff90921660009081526008825283812092815291815282822080546001600160a01b0319166001600160a01b038a1690811790915582526009905220805460ff191660011790555050505092915050565b6060816200398e81601f620049e0565b1015620039cf5760405162461bcd60e51b815260206004820152600e60248201526d736c6963655f6f766572666c6f7760901b604482015260640162000b31565b620039db8284620049e0565b8451101562003a215760405162461bcd60e51b8152602060048201526011602482015270736c6963655f6f75744f66426f756e647360781b604482015260640162000b31565b60608215801562003a42576040519150600082526020820160405262003a8e565b6040519150601f8416801560200281840101858101878315602002848b0101015b8183101562003a7d57805183526020928301920162003a63565b5050858452601f01601f1916604052505b5090505b9392505050565b60008062003ab08460400151856020015162000fa7565b90506001600160a01b03811662003b0a5760405162461bcd60e51b815260206004820152601d60248201527f7772617070656420617373657420646f6573206e6f7420657869737473000000604482015260640162000b31565b806001600160a01b031663a18cd7c662003b288660a0015162003e44565b62003b37876080015162003e44565b866040518463ffffffff1660e01b815260040162003b589392919062004fc9565b600060405180830381600087803b15801562003b7357600080fd5b505af115801562003b88573d6000803e3d6000fd5b50929695505050505050565b600060088260ff16111562003bcc5762003bb06008836200500c565b62003bbd90600a62005125565b62003bc9908462005136565b92505b5090919050565b600060088260ff16111562003bcc5762003bef6008836200500c565b62003bfc90600a62005125565b62003bc9908462005159565b6040516001600160a01b038085166024830152831660448201526064810182905262003c759085906323b872dd60e01b906084015b60408051601f198184030181529190526020810180516001600160e01b03166001600160e01b03199093169290921790915262003f4f565b50505050565b6001600160a01b0382166000908152600a60205260409020546001600160401b0362003ca88383620049e0565b111562003d165760405162461bcd60e51b815260206004820152603560248201527f7472616e736665722065786365656473206d6178206f75747374616e64696e6760448201527408189c9a5919d959081d1bdad95b88185b5bdd5b9d605a1b606482015260840162000b31565b62003d438362003d278484620049e0565b6001600160a01b039091166000908152600a6020526040902055565b505050565b60006001600160a01b031982161562003d9a5760405162461bcd60e51b8152602060048201526013602482015272696e76616c69642045564d206164647265737360681b604482015260640162000b31565b5090565b620019e4828262003dc4856001600160a01b03166000908152600a602052604090205490565b62003d27919062004eb3565b6040516001600160a01b03831660248201526044810182905262003d4390849063a9059cbb60e01b9060640162003c3d565b62003e0d8162004028565b6040516001600160a01b038216907fbc7cd75a20ee27fd9adebab32041f755214dbc6bffa90cc0225b39da2e5c2d3b90600090a250565b606060005b60208110801562003e7b575082816020811062003e6a5762003e6a62005173565b1a60f81b6001600160f81b03191615155b1562003e96578062003e8d8162005189565b91505062003e49565b6000816001600160401b0381111562003eb35762003eb362004266565b6040519080825280601f01601f19166020018201604052801562003ede576020820181803683370190505b50905060005b8281101562003f475784816020811062003f025762003f0262005173565b1a60f81b82828151811062003f1b5762003f1b62005173565b60200101906001600160f81b031916908160001a9053508062003f3e8162005189565b91505062003ee4565b509392505050565b600062003fa6826040518060400160405280602081526020017f5361666545524332303a206c6f772d6c6576656c2063616c6c206661696c6564815250856001600160a01b0316620040cf9092919063ffffffff16565b80519091501562003d43578080602001905181019062003fc79190620051a5565b62003d435760405162461bcd60e51b815260206004820152602a60248201527f5361666545524332303a204552433230206f7065726174696f6e20646964206e6044820152691bdd081cdd58d8d9595960b21b606482015260840162000b31565b803b6200408e5760405162461bcd60e51b815260206004820152602d60248201527f455243313936373a206e657720696d706c656d656e746174696f6e206973206e60448201526c1bdd08184818dbdb9d1c9858dd609a1b606482015260840162000b31565b7f360894a13ba1a3210667c828492db98dca3e2076cc3735a920a3ca505d382bbc80546001600160a01b0319166001600160a01b0392909216919091179055565b6060620040e08484600085620040e8565b949350505050565b6060824710156200414b5760405162461bcd60e51b815260206004820152602660248201527f416464726573733a20696e73756666696369656e742062616c616e636520666f6044820152651c8818d85b1b60d21b606482015260840162000b31565b843b6200419b5760405162461bcd60e51b815260206004820152601d60248201527f416464726573733a2063616c6c20746f206e6f6e2d636f6e7472616374000000604482015260640162000b31565b600080866001600160a01b03168587604051620041b9919062004a6c565b60006040518083038185875af1925050503d8060008114620041f8576040519150601f19603f3d011682016040523d82523d6000602084013e620041fd565b606091505b50915091506200420f8282866200421a565b979650505050505050565b606083156200422b57508162003a92565b8251156200423c5782518084602001fd5b8160405162461bcd60e51b815260040162000b31919062004510565b61074580620051c483390190565b634e487b7160e01b600052604160045260246000fd5b60405161010081016001600160401b0381118282101715620042a257620042a262004266565b60405290565b604051608081016001600160401b0381118282101715620042a257620042a262004266565b60405161016081016001600160401b0381118282101715620042a257620042a262004266565b604051601f8201601f191681016001600160401b03811182821017156200431e576200431e62004266565b604052919050565b60006001600160401b0382111562004342576200434262004266565b50601f01601f191660200190565b600082601f8301126200436257600080fd5b813562004379620043738262004326565b620042f3565b8181528460208386010111156200438f57600080fd5b816020850160208301376000918101602001919091529392505050565b600060208284031215620043bf57600080fd5b81356001600160401b03811115620043d657600080fd5b620040e08482850162004350565b80356001600160a01b0381168114620043fc57600080fd5b919050565b61ffff81168114620013ca57600080fd5b8035620043fc8162004401565b63ffffffff81168114620013ca57600080fd5b60008060008060008060c087890312156200444c57600080fd5b6200445787620043e4565b9550602087013594506040870135620044708162004401565b9350606087013592506080870135915060a087013562004490816200441f565b809150509295509295509295565b600060208284031215620044b157600080fd5b62003a9282620043e4565b60005b83811015620044d9578181015183820152602001620044bf565b50506000910152565b60008151808452620044fc816020860160208601620044bc565b601f01601f19169290920160200192915050565b60208152600062003a926020830184620044e2565b600080604083850312156200453957600080fd5b8235620045468162004401565b946020939093013593505050565b6000602082840312156200456757600080fd5b5035919050565b60ff81168114620013ca57600080fd5b8035620043fc816200456e565b600060e082840312156200459e57600080fd5b60405160e081018181106001600160401b0382111715620045c357620045c362004266565b6040528235620045d3816200456e565b8082525060208301356020820152604083013560408201526060830135620045fb8162004401565b60608201526080838101359082015260a08301356200461a8162004401565b60a082015260c0928301359281019290925250919050565b600080600080608085870312156200464957600080fd5b8435620046568162004401565b93506020850135925060408501359150606085013562004676816200441f565b939692955090935050565b6000602082840312156200469457600080fd5b813562003a928162004401565b600060c08284031215620046b457600080fd5b60405160c081018181106001600160401b0382111715620046d957620046d962004266565b6040528235620046e9816200456e565b8152602083810135908201526040830135620047058162004401565b604082015260608301356200471a816200456e565b60608201526080838101359082015260a0928301359281019290925250919050565b600080600080608085870312156200475357600080fd5b8435620047608162004401565b935060208501359250604085013562004779816200441f565b915060608501356001600160401b038111156200479557600080fd5b620047a38782880162004350565b91505092959194509250565b60008060408385031215620047c357600080fd5b620047ce83620043e4565b91506020830135620047e0816200441f565b809150509250929050565b60008060008060008060c087890312156200480557600080fd5b6200481087620043e4565b9550602087013594506040870135620048298162004401565b935060608701359250608087013562004842816200441f565b915060a08701356001600160401b038111156200485e57600080fd5b6200486c89828a0162004350565b9150509295509295509295565b6000602082840312156200488c57600080fd5b81356001600160401b0380821115620048a457600080fd5b908301906101008286031215620048ba57600080fd5b620048c46200427c565b620048cf836200457e565b81526020830135602082015260408301356040820152620048f36060840162004412565b6060820152608083013560808201526200491060a0840162004412565b60a082015260c083013560c082015260e0830135828111156200493257600080fd5b620049408782860162004350565b60e08301525095945050505050565b6020815260ff8251166020820152602082015160408201526040820151606082015261ffff6060830151166080820152608082015160a0820152600060a0830151620049a160c084018261ffff169052565b5060c083015160e083015260e0830151610100808185015250620040e0610120840182620044e2565b634e487b7160e01b600052601160045260246000fd5b8082018082111562000dd35762000dd3620049ca565b6020808252600c908201526b77726f6e67206d6f64756c6560a01b604082015260600190565b6020808252600c908201526b3bb937b7339030b1ba34b7b760a11b604082015260600190565b60208082526010908201526f34b73b30b634b2102a3930b739b332b960811b604082015260600190565b6000825162004a80818460208701620044bc565b9190910192915050565b8051620043fc816200456e565b60006020828403121562004aaa57600080fd5b815162003a92816200456e565b600082601f83011262004ac957600080fd5b815162004ada620043738262004326565b81815284602083860101111562004af057600080fd5b620040e0826020830160208701620044bc565b60006020828403121562004b1657600080fd5b81516001600160401b0381111562004b2d57600080fd5b620040e08482850162004ab7565b63ffffffff8416815260606020820152600062004b5c6060830185620044e2565b905060ff83166040830152949350505050565b80516001600160401b0381168114620043fc57600080fd5b60006020828403121562004b9a57600080fd5b62003a928262004b6f565b60ff60f81b8960f81b168152876001820152866021820152600061ffff60f01b808860f01b166041840152866043840152808660f01b16606384015250836065830152825162004bfd816085850160208701620044bc565b919091016085019998505050505050505050565b8051620043fc816200441f565b8051620043fc8162004401565b600082601f83011262004c3d57600080fd5b815160206001600160401b0382111562004c5b5762004c5b62004266565b62004c6b818360051b01620042f3565b82815260079290921b8401810191818101908684111562004c8b57600080fd5b8286015b8481101562004cf9576080818903121562004caa5760008081fd5b62004cb4620042a8565b81518152848201518582015260408083015162004cd1816200456e565b9082015260608281015162004ce6816200456e565b9082015283529183019160800162004c8f565b509695505050505050565b80518015158114620043fc57600080fd5b60008060006060848603121562004d2b57600080fd5b83516001600160401b038082111562004d4357600080fd5b90850190610160828803121562004d5957600080fd5b62004d63620042cd565b62004d6e8362004a8a565b815262004d7e6020840162004c11565b602082015262004d916040840162004c11565b604082015262004da46060840162004c1e565b60608201526080830151608082015262004dc160a0840162004b6f565b60a082015262004dd460c0840162004a8a565b60c082015260e08301518281111562004dec57600080fd5b62004dfa8982860162004ab7565b60e08301525061010062004e1081850162004c11565b90820152610120838101518381111562004e2957600080fd5b62004e378a82870162004c2b565b91830191909152506101408381015190820152945062004e5a6020870162004d04565b9350604086015191508082111562004e7157600080fd5b5062004e808682870162004ab7565b9150509250925092565b6020808252600f908201526e34b73b30b634b21032b6b4ba3a32b960891b604082015260600190565b8181038181111562000dd35762000dd3620049ca565b60006020828403121562004edc57600080fd5b815162003a928162004401565b60006020828403121562004efc57600080fd5b5051919050565b60e08152600062004f1860e083018a620044e2565b828103602084015262004f2c818a620044e2565b60ff98909816604084015250506001600160401b039490941660608501526001600160a01b0392909216608084015261ffff1660a083015260c09091015292915050565b6001600160a01b0383168152604060208201819052600090620040e090830184620044e2565b6000835162004faa818460208801620044bc565b83519083019062004fc0818360208801620044bc565b01949350505050565b60608152600062004fde6060830186620044e2565b828103602084015262004ff28186620044e2565b9150506001600160401b0383166040830152949350505050565b60ff828116828216039081111562000dd35762000dd3620049ca565b600181815b80851115620050695781600019048211156200504d576200504d620049ca565b808516156200505b57918102915b93841c93908002906200502d565b509250929050565b600082620050825750600162000dd3565b81620050915750600062000dd3565b8160018114620050aa5760028114620050b557620050d5565b600191505062000dd3565b60ff841115620050c957620050c9620049ca565b50506001821b62000dd3565b5060208310610133831016604e8410600b8410161715620050fa575081810a62000dd3565b62005106838362005028565b80600019048211156200511d576200511d620049ca565b029392505050565b600062003a9260ff84168362005071565b6000826200515457634e487b7160e01b600052601260045260246000fd5b500490565b808202811582820484141762000dd35762000dd3620049ca565b634e487b7160e01b600052603260045260246000fd5b6000600182016200519e576200519e620049ca565b5060010190565b600060208284031215620051b857600080fd5b62003a928262004d0456fe608060405234801561001057600080fd5b5060405161074538038061074583398101604081905261002f91610442565b818161005c60017fa3f0ad74e5423aebfd80d3ef4346578335a9a72aeaee59ff6cb3582b35133d51610502565b6000805160206106fe8339815191521461007857610078610523565b6100848282600061008d565b505050506105a3565b6100968361014e565b6040516001600160a01b038416907f1cf3b03a6cf19fa2baba4df148e9dcabedea7f8a5c07840e207e5c089be95d3e90600090a26000825111806100d75750805b1561014957610147836001600160a01b0316635c60da1b6040518163ffffffff1660e01b8152600401602060405180830381865afa15801561011d573d6000803e3d6000fd5b505050506040513d601f19601f820116820180604052508101906101419190610539565b836102ae565b505b505050565b803b6101af5760405162461bcd60e51b815260206004820152602560248201527f455243313936373a206e657720626561636f6e206973206e6f74206120636f6e6044820152641d1c9858dd60da1b60648201526084015b60405180910390fd5b61021a816001600160a01b0316635c60da1b6040518163ffffffff1660e01b8152600401602060405180830381865afa1580156101f0573d6000803e3d6000fd5b505050506040513d601f19601f820116820180604052508101906102149190610539565b3b151590565b61027f5760405162461bcd60e51b815260206004820152603060248201527f455243313936373a20626561636f6e20696d706c656d656e746174696f6e206960448201526f1cc81b9bdd08184818dbdb9d1c9858dd60821b60648201526084016101a6565b6000805160206106fe83398151915280546001600160a01b0319166001600160a01b0392909216919091179055565b60606102d3838360405180606001604052806027815260200161071e602791396102dc565b90505b92915050565b6060833b61033b5760405162461bcd60e51b815260206004820152602660248201527f416464726573733a2064656c65676174652063616c6c20746f206e6f6e2d636f6044820152651b9d1c9858dd60d21b60648201526084016101a6565b600080856001600160a01b0316856040516103569190610554565b600060405180830381855af49150503d8060008114610391576040519150601f19603f3d011682016040523d82523d6000602084013e610396565b606091505b5090925090506103a78282866103b3565b925050505b9392505050565b606083156103c25750816103ac565b8251156103d25782518084602001fd5b8160405162461bcd60e51b81526004016101a69190610570565b80516001600160a01b038116811461040357600080fd5b919050565b634e487b7160e01b600052604160045260246000fd5b60005b83811015610439578181015183820152602001610421565b50506000910152565b6000806040838503121561045557600080fd5b61045e836103ec565b60208401519092506001600160401b038082111561047b57600080fd5b818501915085601f83011261048f57600080fd5b8151818111156104a1576104a1610408565b604051601f8201601f19908116603f011681019083821181831017156104c9576104c9610408565b816040528281528860208487010111156104e257600080fd5b6104f383602083016020880161041e565b80955050505050509250929050565b818103818111156102d657634e487b7160e01b600052601160045260246000fd5b634e487b7160e01b600052600160045260246000fd5b60006020828403121561054b57600080fd5b6102d3826103ec565b6000825161056681846020870161041e565b9190910192915050565b602081526000825180602084015261058f81604085016020870161041e565b601f01601f19169190910160400192915050565b61014c806105b26000396000f3fe60806040523661001357610011610017565b005b6100115b610027610022610029565b6100c2565b565b600061005c7fa3f0ad74e5423aebfd80d3ef4346578335a9a72aeaee59ff6cb3582b35133d50546001600160a01b031690565b6001600160a01b0316635c60da1b6040518163ffffffff1660e01b8152600401602060405180830381865afa158015610099573d6000803e3d6000fd5b505050506040513d601f19601f820116820180604052508101906100bd91906100e6565b905090565b3660008037600080366000845af43d6000803e8080156100e1573d6000f35b3d6000fd5b6000602082840312156100f857600080fd5b81516001600160a01b038116811461010f57600080fd5b939250505056fea26469706673582212209887d4052b6f141cf8f0707b2e69487c02f7a90c1bed9054d625ad29ec8b8d1964736f6c63430008130033a3f0ad74e5423aebfd80d3ef4346578335a9a72aeaee59ff6cb3582b35133d50416464726573733a206c6f772d6c6576656c2064656c65676174652063616c6c206661696c6564676f7665726e616e636520616374696f6e20616c726561647920636f6e73756d6564a26469706673582212205b2b6efcf0dee0d23de190e20e25d2c7bb0ece6f5e40162fa192eb8088e828ad64736f6c63430008130033",
    "linkReferences": {}
  },
  "methodIdentifiers": {
    "WETH()": "ad5c4648",
    "_parseTransferCommon(bytes)": "e89bc401",
    "attestToken(address,uint32)": "c48fa115",
    "bridgeContracts(uint16)": "ad66a5f1",
    "chainId()": "9a8a0592",
    "completeTransfer(bytes)": "c6878519",
    "completeTransferAndUnwrapETH(bytes)": "ff200cde",
    "completeTransferAndUnwrapETHWithPayload(bytes)": "1c8475e4",
    "completeTransferWithPayload(bytes)": "c3f511c1",
    "createWrapped(bytes)": "e8059810",
    "encodeAssetMeta((uint8,bytes32,uint16,uint8,bytes32,bytes32))": "b046223b",
    "encodeTransfer((uint8,uint256,bytes32,uint16,bytes32,uint16,uint256))": "5f854266",
    "encodeTransferWithPayload((uint8,uint256,bytes32,uint16,bytes32,uint16,bytes32,bytes))": "d56e2e24",
    "evmChainId()": "64d42b17",
    "finality()": "739fc8d1",
    "governanceActionIsConsumed(bytes32)": "2c3c02a4",
    "governanceChainId()": "fbe3c2cd",
    "governanceContract()": "b172b222",
    "implementation()": "5c60da1b",
    "initialize()": "8129fc1c",
    "isFork()": "e039f224",
    "isInitialized(address)": "d60b347f",
    "isTransferCompleted(bytes32)": "aa4efa5b",
    "isWrappedAsset(address)": "1a2be4da",
    "outstandingBridged(address)": "b96c7e4d",
    "parseAssetMeta(bytes)": "07dfd8fb",
    "parsePayloadID(bytes)": "0f509008",
    "parseRecoverChainId(bytes)": "cb4cfea8",
    "parseRegisterChain(bytes)": "01f53255",
    "parseTransfer(bytes)": "2b511375",
    "parseTransferWithPayload(bytes)": "ea63738d",
    "parseUpgrade(bytes)": "fbeeacd9",
    "registerChain(bytes)": "a5799f93",
    "submitRecoverChainId(bytes)": "178149e7",
    "tokenImplementation()": "2f3a3d5d",
    "transferTokens(address,uint256,uint16,bytes32,uint256,uint32)": "0f5287b0",
    "transferTokensWithPayload(address,uint256,uint16,bytes32,uint32,bytes)": "c5a5ebda",
    "updateWrapped(bytes)": "f768441f",
    "upgrade(bytes)": "25394645",
    "wormhole()": "84acd1bb",
    "wrapAndTransferETH(uint16,bytes32,uint256,uint32)": "9981509f",
    "wrapAndTransferETHWithPayload(uint16,bytes32,uint32,bytes)": "bee9cdfc",
    "wrappedAsset(uint16,bytes32)": "1ff1e286"
  },
  "id": 15
}