{
  "abi": [
    {
      "inputs": [
        {
          "internalType": "address",
          "name": "_wormhole",
          "type": "address"
        }
      ],
      "stateMutability": "nonpayable",
      "type": "constructor"
    },
    {
      "inputs": [],
      "name": "AddressIsZero",
      "type": "error"
    },
    {
      "inputs": [],
      "name": "CallerMustBeOwner",
      "type": "error"
    },
    {
      "inputs": [],
      "name": "CallerMustBePendingOwner",
      "type": "error"
    },
    {
      "inputs": [
        {
          "internalType": "address",
          "name": "msgSender",
          "type": "address"
        }
      ],
      "name": "CallerNotApproved",
      "type": "error"
    },
    {
      "inputs": [],
      "name": "ChainIdIsZero",
      "type": "error"
    },
    {
      "inputs": [
        {
          "internalType": "string",
          "name": "reason",
          "type": "string"
        }
      ],
      "name": "FailedToInitializeImplementation",
      "type": "error"
    },
    {
      "inputs": [],
      "name": "GasPriceIsZero",
      "type": "error"
    },
    {
      "inputs": [],
      "name": "NativeCurrencyPriceIsZero",
      "type": "error"
    },
    {
      "inputs": [
        {
          "internalType": "uint8",
          "name": "version",
          "type": "uint8"
        },
        {
          "internalType": "uint8",
          "name": "expectedVersion",
          "type": "uint8"
        }
      ],
      "name": "UnexpectedExecutionParamsVersion",
      "type": "error"
    },
    {
      "inputs": [
        {
          "internalType": "uint8",
          "name": "version",
          "type": "uint8"
        }
      ],
      "name": "UnsupportedExecutionParamsVersion",
      "type": "error"
    },
    {
      "inputs": [],
      "name": "WrongChainId",
      "type": "error"
    },
    {
      "anonymous": false,
      "inputs": [
        {
          "indexed": false,
          "internalType": "address",
          "name": "previousAdmin",
          "type": "address"
        },
        {
          "indexed": false,
          "internalType": "address",
          "name": "newAdmin",
          "type": "address"
        }
      ],
      "name": "AdminChanged",
      "type": "event"
    },
    {
      "anonymous": false,
      "inputs": [
        {
          "indexed": false,
          "internalType": "uint16",
          "name": "targetChain",
          "type": "uint16"
        },
        {
          "indexed": false,
          "internalType": "uint16",
          "name": "buffer",
          "type": "uint16"
        },
        {
          "indexed": false,
          "internalType": "uint16",
          "name": "bufferDenominator",
          "type": "uint16"
        }
      ],
      "name": "AssetConversionBufferUpdated",
      "type": "event"
    },
    {
      "anonymous": false,
      "inputs": [
        {
          "indexed": true,
          "internalType": "address",
          "name": "beacon",
          "type": "address"
        }
      ],
      "name": "BeaconUpgraded",
      "type": "event"
    },
    {
      "anonymous": false,
      "inputs": [
        {
          "indexed": false,
          "internalType": "uint16",
          "name": "targetChain",
          "type": "uint16"
        },
        {
          "indexed": false,
          "internalType": "bool",
          "name": "isSupported",
          "type": "bool"
        }
      ],
      "name": "ChainSupportUpdated",
      "type": "event"
    },
    {
      "anonymous": false,
      "inputs": [
        {
          "indexed": true,
          "internalType": "address",
          "name": "oldContract",
          "type": "address"
        },
        {
          "indexed": true,
          "internalType": "address",
          "name": "newContract",
          "type": "address"
        }
      ],
      "name": "ContractUpgraded",
      "type": "event"
    },
    {
      "anonymous": false,
      "inputs": [
        {
          "indexed": true,
          "internalType": "Gas",
          "name": "oldGasOverhead",
          "type": "uint256"
        },
        {
          "indexed": true,
          "internalType": "Gas",
          "name": "newGasOverhead",
          "type": "uint256"
        }
      ],
      "name": "DeliverGasOverheadUpdated",
      "type": "event"
    },
    {
      "anonymous": false,
      "inputs": [
        {
          "indexed": true,
          "internalType": "address",
          "name": "oldOwner",
          "type": "address"
        },
        {
          "indexed": true,
          "internalType": "address",
          "name": "newOwner",
          "type": "address"
        }
      ],
      "name": "OwnershipTransfered",
      "type": "event"
    },
    {
      "anonymous": false,
      "inputs": [
        {
          "indexed": true,
          "internalType": "address",
          "name": "newAddress",
          "type": "address"
        }
      ],
      "name": "RewardAddressUpdated",
      "type": "event"
    },
    {
      "anonymous": false,
      "inputs": [
        {
          "indexed": true,
          "internalType": "uint16",
          "name": "targetChain",
          "type": "uint16"
        },
        {
          "indexed": true,
          "internalType": "bytes32",
          "name": "newAddress",
          "type": "bytes32"
        }
      ],
      "name": "TargetChainAddressUpdated",
      "type": "event"
    },
    {
      "anonymous": false,
      "inputs": [
        {
          "indexed": true,
          "internalType": "address",
          "name": "implementation",
          "type": "address"
        }
      ],
      "name": "Upgraded",
      "type": "event"
    },
    {
      "anonymous": false,
      "inputs": [
        {
          "indexed": false,
          "internalType": "address",
          "name": "coreRelayer",
          "type": "address"
        }
      ],
      "name": "WormholeRelayerUpdated",
      "type": "event"
    },
    {
      "inputs": [
        {
          "internalType": "uint16",
          "name": "targetChain",
          "type": "uint16"
        }
      ],
      "name": "assetConversionBuffer",
      "outputs": [
        {
          "internalType": "uint16",
          "name": "tolerance",
          "type": "uint16"
        },
        {
          "internalType": "uint16",
          "name": "toleranceDenominator",
          "type": "uint16"
        }
      ],
      "stateMutability": "view",
      "type": "function"
    },
    {
      "inputs": [],
      "name": "chainId",
      "outputs": [
        {
          "internalType": "uint16",
          "name": "",
          "type": "uint16"
        }
      ],
      "stateMutability": "view",
      "type": "function"
    },
    {
      "inputs": [],
      "name": "confirmOwnershipTransferRequest",
      "outputs": [],
      "stateMutability": "nonpayable",
      "type": "function"
    },
    {
      "inputs": [],
      "name": "coreRelayer",
      "outputs": [
        {
          "internalType": "address",
          "name": "",
          "type": "address"
        }
      ],
      "stateMutability": "view",
      "type": "function"
    },
    {
      "inputs": [
        {
          "internalType": "uint16",
          "name": "targetChain",
          "type": "uint16"
        }
      ],
      "name": "deliverGasOverhead",
      "outputs": [
        {
          "internalType": "Gas",
          "name": "",
          "type": "uint256"
        }
      ],
      "stateMutability": "view",
      "type": "function"
    },
    {
      "inputs": [
        {
          "internalType": "uint16",
          "name": "targetChain",
          "type": "uint16"
        }
      ],
      "name": "gasPrice",
      "outputs": [
        {
          "internalType": "GasPrice",
          "name": "",
          "type": "uint256"
        }
      ],
      "stateMutability": "view",
      "type": "function"
    },
    {
      "inputs": [],
      "name": "getRewardAddress",
      "outputs": [
        {
          "internalType": "address payable",
          "name": "",
          "type": "address"
        }
      ],
      "stateMutability": "view",
      "type": "function"
    },
    {
      "inputs": [
        {
          "internalType": "uint16",
          "name": "targetChain",
          "type": "uint16"
        }
      ],
      "name": "getTargetChainAddress",
      "outputs": [
        {
          "internalType": "bytes32",
          "name": "deliveryProviderAddress",
          "type": "bytes32"
        }
      ],
      "stateMutability": "view",
      "type": "function"
    },
    {
      "inputs": [
        {
          "internalType": "uint16",
          "name": "targetChain",
          "type": "uint16"
        }
      ],
      "name": "isChainSupported",
      "outputs": [
        {
          "internalType": "bool",
          "name": "supported",
          "type": "bool"
        }
      ],
      "stateMutability": "view",
      "type": "function"
    },
    {
      "inputs": [
        {
          "internalType": "address",
          "name": "impl",
          "type": "address"
        }
      ],
      "name": "isInitialized",
      "outputs": [
        {
          "internalType": "bool",
          "name": "",
          "type": "bool"
        }
      ],
      "stateMutability": "view",
      "type": "function"
    },
    {
      "inputs": [
        {
          "internalType": "uint16",
          "name": "targetChain",
          "type": "uint16"
        }
      ],
      "name": "maximumBudget",
      "outputs": [
        {
          "internalType": "Wei",
          "name": "",
          "type": "uint256"
        }
      ],
      "stateMutability": "view",
      "type": "function"
    },
    {
      "inputs": [
        {
          "internalType": "uint16",
          "name": "targetChain",
          "type": "uint16"
        }
      ],
      "name": "nativeCurrencyPrice",
      "outputs": [
        {
          "internalType": "WeiPrice",
          "name": "",
          "type": "uint256"
        }
      ],
      "stateMutability": "view",
      "type": "function"
    },
    {
      "inputs": [],
      "name": "owner",
      "outputs": [
        {
          "internalType": "address",
          "name": "",
          "type": "address"
        }
      ],
      "stateMutability": "view",
      "type": "function"
    },
    {
      "inputs": [],
      "name": "pendingOwner",
      "outputs": [
        {
          "internalType": "address",
          "name": "",
          "type": "address"
        }
      ],
      "stateMutability": "view",
      "type": "function"
    },
    {
      "inputs": [
        {
          "internalType": "uint16",
          "name": "targetChain",
          "type": "uint16"
        },
        {
          "internalType": "LocalNative",
          "name": "currentChainAmount",
          "type": "uint256"
        }
      ],
      "name": "quoteAssetConversion",
      "outputs": [
        {
          "internalType": "TargetNative",
          "name": "targetChainAmount",
          "type": "uint256"
        }
      ],
      "stateMutability": "view",
      "type": "function"
    },
    {
      "inputs": [
        {
          "internalType": "uint16",
          "name": "targetChain",
          "type": "uint16"
        }
      ],
      "name": "quoteDeliveryOverhead",
      "outputs": [
        {
          "internalType": "Wei",
          "name": "nativePriceQuote",
          "type": "uint256"
        }
      ],
      "stateMutability": "view",
      "type": "function"
    },
    {
      "inputs": [
        {
          "internalType": "uint16",
          "name": "targetChain",
          "type": "uint16"
        },
        {
          "internalType": "TargetNative",
          "name": "receiverValue",
          "type": "uint256"
        },
        {
          "internalType": "bytes",
          "name": "encodedExecutionParams",
          "type": "bytes"
        }
      ],
      "name": "quoteDeliveryPrice",
      "outputs": [
        {
          "internalType": "LocalNative",
          "name": "nativePriceQuote",
          "type": "uint256"
        },
        {
          "internalType": "bytes",
          "name": "encodedExecutionInfo",
          "type": "bytes"
        }
      ],
      "stateMutability": "view",
      "type": "function"
    },
    {
      "inputs": [
        {
          "internalType": "uint16",
          "name": "targetChain",
          "type": "uint16"
        },
        {
          "internalType": "Gas",
          "name": "gasLimit",
          "type": "uint256"
        },
        {
          "internalType": "TargetNative",
          "name": "receiverValue",
          "type": "uint256"
        }
      ],
      "name": "quoteEvmDeliveryPrice",
      "outputs": [
        {
          "internalType": "LocalNative",
          "name": "nativePriceQuote",
          "type": "uint256"
        },
        {
          "internalType": "GasPrice",
          "name": "targetChainRefundPerUnitGasUnused",
          "type": "uint256"
        }
      ],
      "stateMutability": "view",
      "type": "function"
    },
    {
      "inputs": [
        {
          "internalType": "uint16",
          "name": "targetChain",
          "type": "uint16"
        }
      ],
      "name": "quoteGasPrice",
      "outputs": [
        {
          "internalType": "GasPrice",
          "name": "",
          "type": "uint256"
        }
      ],
      "stateMutability": "view",
      "type": "function"
    },
    {
      "inputs": [],
      "name": "rewardAddress",
      "outputs": [
        {
          "internalType": "address payable",
          "name": "",
          "type": "address"
        }
      ],
      "stateMutability": "view",
      "type": "function"
    },
    {
      "inputs": [
        {
          "internalType": "uint16",
          "name": "thisRelayerChainId",
          "type": "uint16"
        },
        {
          "internalType": "address",
          "name": "newOwner",
          "type": "address"
        }
      ],
      "name": "submitOwnershipTransferRequest",
      "outputs": [],
      "stateMutability": "nonpayable",
      "type": "function"
    },
    {
      "inputs": [
        {
          "internalType": "uint16",
          "name": "targetChain",
          "type": "uint16"
        }
      ],
      "name": "targetChainAddress",
      "outputs": [
        {
          "internalType": "bytes32",
          "name": "",
          "type": "bytes32"
        }
      ],
      "stateMutability": "view",
      "type": "function"
    },
    {
      "inputs": [
        {
          "internalType": "uint16",
          "name": "targetChain",
          "type": "uint16"
        },
        {
          "internalType": "uint16",
          "name": "buffer",
          "type": "uint16"
        },
        {
          "internalType": "uint16",
          "name": "bufferDenominator",
          "type": "uint16"
        }
      ],
      "name": "updateAssetConversionBuffer",
      "outputs": [],
      "stateMutability": "nonpayable",
      "type": "function"
    },
    {
      "inputs": [
        {
          "components": [
            {
              "internalType": "uint16",
              "name": "chainId",
              "type": "uint16"
            },
            {
              "internalType": "uint16",
              "name": "buffer",
              "type": "uint16"
            },
            {
              "internalType": "uint16",
              "name": "bufferDenominator",
              "type": "uint16"
            }
          ],
          "internalType": "struct DeliveryProviderStructs.AssetConversionBufferUpdate[]",
          "name": "updates",
          "type": "tuple[]"
        }
      ],
      "name": "updateAssetConversionBuffers",
      "outputs": [],
      "stateMutability": "nonpayable",
      "type": "function"
    },
    {
      "inputs": [
        {
          "components": [
            {
              "internalType": "bool",
              "name": "updateAssetConversionBuffer",
              "type": "bool"
            },
            {
              "internalType": "bool",
              "name": "updateDeliverGasOverhead",
              "type": "bool"
            },
            {
              "internalType": "bool",
              "name": "updatePrice",
              "type": "bool"
            },
            {
              "internalType": "bool",
              "name": "updateTargetChainAddress",
              "type": "bool"
            },
            {
              "internalType": "bool",
              "name": "updateMaximumBudget",
              "type": "bool"
            },
            {
              "internalType": "bool",
              "name": "updateSupportedChain",
              "type": "bool"
            },
            {
              "internalType": "bool",
              "name": "isSupported",
              "type": "bool"
            },
            {
              "internalType": "uint16",
              "name": "chainId",
              "type": "uint16"
            },
            {
              "internalType": "uint16",
              "name": "buffer",
              "type": "uint16"
            },
            {
              "internalType": "uint16",
              "name": "bufferDenominator",
              "type": "uint16"
            },
            {
              "internalType": "Gas",
              "name": "newGasOverhead",
              "type": "uint256"
            },
            {
              "internalType": "GasPrice",
              "name": "gasPrice",
              "type": "uint256"
            },
            {
              "internalType": "WeiPrice",
              "name": "nativeCurrencyPrice",
              "type": "uint256"
            },
            {
              "internalType": "bytes32",
              "name": "targetChainAddress",
              "type": "bytes32"
            },
            {
              "internalType": "Wei",
              "name": "maximumTotalBudget",
              "type": "uint256"
            }
          ],
          "internalType": "struct DeliveryProviderStructs.Update[]",
          "name": "updates",
          "type": "tuple[]"
        },
        {
          "components": [
            {
              "internalType": "bool",
              "name": "updateWormholeRelayer",
              "type": "bool"
            },
            {
              "internalType": "bool",
              "name": "updateRewardAddress",
              "type": "bool"
            },
            {
              "internalType": "address payable",
              "name": "coreRelayer",
              "type": "address"
            },
            {
              "internalType": "address payable",
              "name": "rewardAddress",
              "type": "address"
            }
          ],
          "internalType": "struct DeliveryProviderStructs.CoreConfig",
          "name": "coreConfig",
          "type": "tuple"
        }
      ],
      "name": "updateConfig",
      "outputs": [],
      "stateMutability": "nonpayable",
      "type": "function"
    },
    {
      "inputs": [
        {
          "internalType": "uint16",
          "name": "chainId",
          "type": "uint16"
        },
        {
          "internalType": "Gas",
          "name": "newGasOverhead",
          "type": "uint256"
        }
      ],
      "name": "updateDeliverGasOverhead",
      "outputs": [],
      "stateMutability": "nonpayable",
      "type": "function"
    },
    {
      "inputs": [
        {
          "components": [
            {
              "internalType": "uint16",
              "name": "chainId",
              "type": "uint16"
            },
            {
              "internalType": "Gas",
              "name": "newGasOverhead",
              "type": "uint256"
            }
          ],
          "internalType": "struct DeliveryProviderStructs.DeliverGasOverheadUpdate[]",
          "name": "overheadUpdates",
          "type": "tuple[]"
        }
      ],
      "name": "updateDeliverGasOverheads",
      "outputs": [],
      "stateMutability": "nonpayable",
      "type": "function"
    },
    {
      "inputs": [
        {
          "internalType": "uint16",
          "name": "targetChain",
          "type": "uint16"
        },
        {
          "internalType": "Wei",
          "name": "maximumTotalBudget",
          "type": "uint256"
        }
      ],
      "name": "updateMaximumBudget",
      "outputs": [],
      "stateMutability": "nonpayable",
      "type": "function"
    },
    {
      "inputs": [
        {
          "components": [
            {
              "internalType": "uint16",
              "name": "chainId",
              "type": "uint16"
            },
            {
              "internalType": "Wei",
              "name": "maximumTotalBudget",
              "type": "uint256"
            }
          ],
          "internalType": "struct DeliveryProviderStructs.MaximumBudgetUpdate[]",
          "name": "updates",
          "type": "tuple[]"
        }
      ],
      "name": "updateMaximumBudgets",
      "outputs": [],
      "stateMutability": "nonpayable",
      "type": "function"
    },
    {
      "inputs": [
        {
          "internalType": "uint16",
          "name": "updateChainId",
          "type": "uint16"
        },
        {
          "internalType": "GasPrice",
          "name": "updateGasPrice",
          "type": "uint256"
        },
        {
          "internalType": "WeiPrice",
          "name": "updateNativeCurrencyPrice",
          "type": "uint256"
        }
      ],
      "name": "updatePrice",
      "outputs": [],
      "stateMutability": "nonpayable",
      "type": "function"
    },
    {
      "inputs": [
        {
          "components": [
            {
              "internalType": "uint16",
              "name": "chainId",
              "type": "uint16"
            },
            {
              "internalType": "GasPrice",
              "name": "gasPrice",
              "type": "uint256"
            },
            {
              "internalType": "WeiPrice",
              "name": "nativeCurrencyPrice",
              "type": "uint256"
            }
          ],
          "internalType": "struct DeliveryProviderStructs.UpdatePrice[]",
          "name": "updates",
          "type": "tuple[]"
        }
      ],
      "name": "updatePrices",
      "outputs": [],
      "stateMutability": "nonpayable",
      "type": "function"
    },
    {
      "inputs": [
        {
          "internalType": "address payable",
          "name": "newAddress",
          "type": "address"
        }
      ],
      "name": "updateRewardAddress",
      "outputs": [],
      "stateMutability": "nonpayable",
      "type": "function"
    },
    {
      "inputs": [
        {
          "internalType": "uint16",
          "name": "targetChain",
          "type": "uint16"
        },
        {
          "internalType": "bool",
          "name": "isSupported",
          "type": "bool"
        }
      ],
      "name": "updateSupportedChain",
      "outputs": [],
      "stateMutability": "nonpayable",
      "type": "function"
    },
    {
      "inputs": [
        {
          "components": [
            {
              "internalType": "uint16",
              "name": "chainId",
              "type": "uint16"
            },
            {
              "internalType": "bool",
              "name": "isSupported",
              "type": "bool"
            }
          ],
          "internalType": "struct DeliveryProviderStructs.SupportedChainUpdate[]",
          "name": "updates",
          "type": "tuple[]"
        }
      ],
      "name": "updateSupportedChains",
      "outputs": [],
      "stateMutability": "nonpayable",
      "type": "function"
    },
    {
      "inputs": [
        {
          "internalType": "uint16",
          "name": "targetChain",
          "type": "uint16"
        },
        {
          "internalType": "bytes32",
          "name": "newAddress",
          "type": "bytes32"
        }
      ],
      "name": "updateTargetChainAddress",
      "outputs": [],
      "stateMutability": "nonpayable",
      "type": "function"
    },
    {
      "inputs": [
        {
          "components": [
            {
              "internalType": "uint16",
              "name": "chainId",
              "type": "uint16"
            },
            {
              "internalType": "bytes32",
              "name": "targetChainAddress",
              "type": "bytes32"
            }
          ],
          "internalType": "struct DeliveryProviderStructs.TargetChainUpdate[]",
          "name": "updates",
          "type": "tuple[]"
        }
      ],
      "name": "updateTargetChainAddresses",
      "outputs": [],
      "stateMutability": "nonpayable",
      "type": "function"
    },
    {
      "inputs": [
        {
          "internalType": "address payable",
          "name": "newAddress",
          "type": "address"
        }
      ],
      "name": "updateWormholeRelayer",
      "outputs": [],
      "stateMutability": "nonpayable",
      "type": "function"
    },
    {
      "inputs": [
        {
          "internalType": "uint16",
          "name": "deliveryProviderChainId",
          "type": "uint16"
        },
        {
          "internalType": "address",
          "name": "newImplementation",
          "type": "address"
        }
      ],
      "name": "upgrade",
      "outputs": [],
      "stateMutability": "nonpayable",
      "type": "function"
    },
    {
      "inputs": [],
      "name": "wormholeMessageFee",
      "outputs": [
        {
          "internalType": "Wei",
          "name": "",
          "type": "uint256"
        }
      ],
      "stateMutability": "view",
      "type": "function"
    }
  ],
  "bytecode": {
    "object": "0x60a06040523480156200001157600080fd5b50604051620025f3380380620025f3833981016040819052620000349162000046565b6001600160a01b031660805262000078565b6000602082840312156200005957600080fd5b81516001600160a01b03811681146200007157600080fd5b9392505050565b60805161255f62000094600039600061128f015261255f6000f3fe608060405234801561001057600080fd5b506004361061023d5760003560e01c80638cf57cb91161013b578063bb7c0a63116100b8578063ddf049191161007c578063ddf04919146105d4578063e30c3978146105e7578063e8f62d41146105f8578063e8fec1ce1461060b578063fa79380f1461061c57600080fd5b8063bb7c0a631461052b578063bf9321fc1461057a578063d60b347f14610582578063d9f88e14146105ae578063dd36889f146105c157600080fd5b80639a8a0592116100ff5780639a8a0592146104bb578063a31bcc50146104d1578063b51a5f7b146104e4578063b57866d9146104f7578063b9e75e661461050a57600080fd5b80638cf57cb9146104465780638da5cb5b1461046b578063944dd5a21461048257806394cc743d14610495578063973ef215146104a857600080fd5b80633a823154116101c9578063562817e11161018d578063562817e1146103d25780635b5bfc1e146103e5578063646e50481461040d5780636631703b146104205780636b13b5041461043357600080fd5b80633a8231541461033d5780633d77cbfd146103505780633e48e773146103635780634713de7a1461038757806349cdb88c146103ae57600080fd5b806328f41de31161021057806328f41de3146102855780633171aaec146102c157806332f3e784146102f35780633522be7d146103065780633978748a1461031957600080fd5b8063038c0b661461024257806303fed6a51461024c578063111335c51461025f57806314de5ced14610272575b600080fd5b61024a610624565b005b61024a61025a366004611ac2565b6106db565b61024a61026d366004611b83565b610758565b61024a610280366004611b83565b610798565b6102ac610293366004611bad565b61ffff1660009081526004602052604090205460ff1690565b60405190151581526020015b60405180910390f35b6102e56102cf366004611bad565b61ffff1660009081526008602052604090205490565b6040519081526020016102b8565b6102e5610301366004611b83565b6107d4565b61024a610314366004611bdd565b6107f6565b6102e5610327366004611bad565b61ffff1660009081526005602052604090205490565b61024a61034b366004611c14565b610986565b6102e561035e366004611bad565b6109c3565b6102e5610371366004611bad565b61ffff1660009081526007602052604090205490565b6102e5610395366004611bad565b61ffff1660009081526006602052604090206001015490565b6102e56103bc366004611bad565b61ffff1660009081526006602052604090205490565b61024a6103e0366004611cdb565b6109dc565b6103f86103f3366004611c14565b610b24565b604080519283526020830191909152016102b8565b61024a61041b366004611e71565b610c0d565b61024a61042e366004611ea4565b610ca0565b61024a610441366004611b83565b610d1d565b600a546001600160a01b03165b6040516001600160a01b0390911681526020016102b8565b6000546201000090046001600160a01b0316610453565b61024a610490366004611f68565b610d59565b61024a6104a3366004611bdd565b610d97565b61024a6104b6366004611f8c565b610e21565b60005460405161ffff90911681526020016102b8565b6102e56104df366004611bad565b610e5e565b61024a6104f2366004611f68565b610efa565b61024a610505366004611fcf565b610f35565b61051d610518366004612080565b610fad565b6040516102b892919061217e565b61055f610539366004611bad565b61ffff908116600090815260096020526040902054808216926201000090910490911690565b6040805161ffff9384168152929091166020830152016102b8565b610453611075565b6102ac610590366004611f68565b6001600160a01b031660009081526003602052604090205460ff1690565b61024a6105bc366004612197565b61108e565b61024a6105cf366004612250565b611106565b61024a6105e2366004612316565b611183565b6001546001600160a01b0316610453565b6102e5610606366004611bad565b6111fb565b6002546001600160a01b0316610453565b6102e561128b565b60006106386001546001600160a01b031690565b9050336001600160a01b0382161461066357604051630106037360e21b815260040160405180910390fd5b600080546001600160a01b038381166201000090810262010000600160b01b0319841617845590910416906106979061130f565b816001600160a01b0316816001600160a01b03167f0d18b5fd22306e373229b9439188228edca81207d1667f604daf6cef8aa3ee6760405160405180910390a35050565b6000546001600160a01b036201000090910416331461070d5760405163c0e22f3d60e01b815260040160405180910390fd5b805160005b8181101561075357600083828151811061072e5761072e6123c7565b6020026020010151905061074a81600001518260200151611331565b50600101610712565b505050565b6000546001600160a01b036201000090910416331461078a5760405163c0e22f3d60e01b815260040160405180910390fd5b6107948282611392565b5050565b6000546001600160a01b03620100009091041633146107ca5760405163c0e22f3d60e01b815260040160405180910390fd5b61079482826113e2565b60006107ed6107e660005461ffff1690565b8484611424565b90505b92915050565b6000546001600160a01b03620100009091041633146108285760405163c0e22f3d60e01b815260040160405180910390fd5b60005461ffff838116911614610850576040516217e1ef60ea1b815260040160405180910390fd5b60006108837f360894a13ba1a3210667c828492db98dca3e2076cc3735a920a3ca505d382bbc546001600160a01b031690565b905061088e82611491565b60408051600481526024810182526020810180516001600160e01b031663204a7f0760e21b179052905160009182916001600160a01b038616916108d1916123dd565b600060405180830381855af49150503d806000811461090c576040519150601f19603f3d011682016040523d82523d6000602084013e610911565b606091505b50915091508161093f57806040516385f11c8360e01b815260040161093691906123f9565b60405180910390fd5b836001600160a01b0316836001600160a01b03167f2e4cc16c100f0b55e2df82ab0b1a7e294aa9cbd01b48fbaf622683fbc0507a4960405160405180910390a35050505050565b6000546001600160a01b03620100009091041633146109b85760405163c0e22f3d60e01b815260040160405180910390fd5b6107538383836114d1565b61ffff81166000908152600560205260408120546107f0565b6000546001600160a01b0362010000909104163314610a0e5760405163c0e22f3d60e01b815260040160405180910390fd5b815160005b81811015610af8576000848281518110610a2f57610a2f6123c7565b60200260200101519050806040015115610a5c57610a5c8160e001518261016001518361018001516114d1565b806060015115610a7957610a798160e00151826101a001516113e2565b806020015115610a9657610a968160e00151826101400151611392565b806080015115610ab357610ab38160e00151826101c00151611331565b805115610ad357610ad38160e00151826101000151836101200151611543565b8060a0015115610aef57610aef8160e001518260c00151610c3f565b50600101610a13565b50815115610b0d57610b0d82604001516115bb565b816020015115610753576107538260600151611615565b61ffff83166000908152600660205260408120546000610b448583611667565b90506000610b6c610b5488610e5e565b610b67610b608a6111fb565b8990611667565b611676565b90506000610b7a8887611682565b9050610b95610b92610b8c84866116f5565b83611676565b90565b9450610bbd610ba48785611676565b61ffff8a16600090815260086020526040902054101590565b610c025760405162461bcd60e51b8152602060048201526016602482015275115e18d959591cc81b585e1a5b5d5b48189d5919d95d60521b6044820152606401610936565b505050935093915050565b6000546001600160a01b0362010000909104163314610c3f5760405163c0e22f3d60e01b815260040160405180910390fd5b61ffff82166000908152600460205260409020805460ff19168215151790556040805161ffff8416815282151560208201527feaa35dfb768f1ccf1313ea7faae95ecba5820bf18c08a3e58cbdf3aaa4259096910160405180910390a15050565b6000546001600160a01b0362010000909104163314610cd25760405163c0e22f3d60e01b815260040160405180910390fd5b805160005b81811015610753576000838281518110610cf357610cf36123c7565b60200260200101519050610d148160000151826020015183604001516114d1565b50600101610cd7565b6000546001600160a01b0362010000909104163314610d4f5760405163c0e22f3d60e01b815260040160405180910390fd5b6107948282611331565b6000546001600160a01b0362010000909104163314610d8b5760405163c0e22f3d60e01b815260040160405180910390fd5b610d9481611615565b50565b6000546001600160a01b0362010000909104163314610dc95760405163c0e22f3d60e01b815260040160405180910390fd5b60005461ffff838116911614610df1576040516217e1ef60ea1b815260040160405180910390fd5b6001600160a01b038116610e185760405163867915ab60e01b815260040160405180910390fd5b6107948161130f565b6000546001600160a01b0362010000909104163314610e535760405163c0e22f3d60e01b815260040160405180910390fd5b610753838383611543565b61ffff811660009081526007602090815260408083205460069092528220548290610e8a908390611667565b90506000610ea58583610ea060005461ffff1690565b61170a565b90506fffffffffffffffffffffffffffffffff811115610ef25760405162461bcd60e51b81526020600482015260086024820152674f766572666c6f7760c01b6044820152606401610936565b949350505050565b6000546001600160a01b0362010000909104163314610f2c5760405163c0e22f3d60e01b815260040160405180910390fd5b610d94816115bb565b6000546001600160a01b0362010000909104163314610f675760405163c0e22f3d60e01b815260040160405180910390fd5b805160005b81811015610753576000838281518110610f8857610f886123c7565b60200260200101519050610fa4816000015182602001516113e2565b50600101610f6c565b600060606000610fbc8461173f565b90506000818015610fcf57610fcf61240c565b0361103f576000610fdf85611755565b90506000610ff288836000015189610b24565b60408051808201825294518086526020958601839052815160009681019690965285820152606080860192909252805180860390920182526080909401909352945090925061106d915050565b80801561104e5761104e61240c565b6040516301959ad760e71b815260ff9091166004820152602401610936565b935093915050565b6000611089600a546001600160a01b031690565b905090565b6000546001600160a01b03620100009091041633146110c05760405163c0e22f3d60e01b815260040160405180910390fd5b805160005b818110156107535760008382815181106110e1576110e16123c7565b602002602001015190506110fd81600001518260200151610c3f565b506001016110c5565b6000546001600160a01b03620100009091041633146111385760405163c0e22f3d60e01b815260040160405180910390fd5b805160005b81811015610753576000838281518110611159576111596123c7565b6020026020010151905061117a816000015182602001518360400151611543565b5060010161113d565b6000546001600160a01b03620100009091041633146111b55760405163c0e22f3d60e01b815260040160405180910390fd5b805160005b818110156107535760008382815181106111d6576111d66123c7565b602002602001015190506111f281600001518260200151611392565b506001016111ba565b6000806112308361122461121f8661ffff1660009081526006602052604090205490565b6117ac565b60005461ffff1661170a565b90506affffffffffffffffffffff8111156112785760405162461bcd60e51b81526020600482015260086024820152674f766572666c6f7760c01b6044820152606401610936565b6affffffffffffffffffffff1692915050565b60007f00000000000000000000000000000000000000000000000000000000000000006001600160a01b0316631a90a2196040518163ffffffff1660e01b8152600401602060405180830381865afa1580156112eb573d6000803e3d6000fd5b505050506040513d601f19601f820116820180604052508101906110899190612422565b600180546001600160a01b0319166001600160a01b0392909216919091179055565b6001600160c01b0381111561137b5760405162461bcd60e51b815260206004820152601060248201526f616d6f756e7420746f6f206c6172676560801b6044820152606401610936565b61ffff909116600090815260086020526040902055565b61ffff82166000908152600760205260409020546113b083836117b4565b604051829082907fa73b3e840df75fb07563bcc4e73041b76e761005717b548d420aee0dbfb82e8890600090a3505050565b61ffff8216600081815260056020526040808220849055518392917fca40221dbf955f8619d86581ec5e380ca9ce15f9083a0ab52909d2383d2249f691a35050565b61ffff82811660008181526009602090815260408083205488861684526006909252808320600190810154948452908320015491938181169362010000909204169161148791610b9291856114798682612451565b60008a5b949392919061181f565b9695505050505050565b61149a81611879565b6040516001600160a01b038216907fbc7cd75a20ee27fd9adebab32041f755214dbc6bffa90cc0225b39da2e5c2d3b90600090a250565b8261ffff166000036114f657604051631b1be67360e21b815260040160405180910390fd5b8160000361151757604051630657481960e21b815260040160405180910390fd5b8060000361153857604051630f47f0ed60e31b815260040160405180910390fd5b61075383838361191e565b61ffff838116600081815260096020908152604091829020805487861663ffffffff19909116811762010000968816968702179091558251938452908301528181019290925290517faed3d5a75b6e523af32a68084c636eb7880958755291bb890cf7c8abc107a556916060908290030190a1505050565b600280546001600160a01b0319166001600160a01b0383161790556040516001600160a01b03821681527f80ba15fb50f5b4a4de303ae58538112279fb2b00af61c4d38126265bae2944da9060200160405180910390a150565b600a80546001600160a01b0319166001600160a01b0383161790556040516001600160a01b038216907f97e1f675f69047e4b663d3b795841c629240f48eb403a6337e5367c4405737e090600090a250565b600081835b6107ed9190612475565b60006107ed828461248c565b61ffff8281166000908152600960205260408120548154919281811692620100009092048116916116ec916116b79116610395565b61ffff87166000908152600660205260409020600101546116df61ffff808616908716612451565b61ffff861660018961147d565b95945050505050565b600082821161170457826107ed565b50919050565b61ffff83811660009081526006602052604080822060019081015493851683529082208101549192610ef2928692808061181f565b6000818060200190518101906107f0919061249f565b60408051602081019091526000815260008280602001905181019061177a91906124c0565b8352905060ff81161561170457604051631d4a282160e21b815260ff8216600482015260006024820152604401610936565b6000816107f0565b63ffffffff8111156118085760405162461bcd60e51b815260206004820152601c60248201527f64656c697665724761734f7665726865616420746f6f206c61726765000000006044820152606401610936565b61ffff909116600090815260076020526040902055565b6000806118458563ffffffff1661183f898b61199290919063ffffffff16565b9061199e565b9050600061185c8763ffffffff8088169061199e16565b9050600061186b8383876119a7565b9a9950505050505050505050565b803b6118dd5760405162461bcd60e51b815260206004820152602d60248201527f455243313936373a206e657720696d706c656d656e746174696f6e206973206e60448201526c1bdd08184818dbdb9d1c9858dd609a1b6064820152608401610936565b7f360894a13ba1a3210667c828492db98dca3e2076cc3735a920a3ca505d382bbc80546001600160a01b0319166001600160a01b0392909216919091179055565b6001600160401b038211156119755760405162461bcd60e51b815260206004820152601860248201527f676173207072696365206d757374206265203c20325e363400000000000000006044820152606401610936565b61ffff909216600090815260066020526040902090815560010155565b60006107ed8284612475565b6000818361166c565b600082826119b65760006119c1565b6119c16001856124f4565b6119cb908661248c565b610ef29190612507565b634e487b7160e01b600052604160045260246000fd5b604080519081016001600160401b0381118282101715611a0d57611a0d6119d5565b60405290565b6040516101e081016001600160401b0381118282101715611a0d57611a0d6119d5565b604051606081016001600160401b0381118282101715611a0d57611a0d6119d5565b604051601f8201601f191681016001600160401b0381118282101715611a8057611a806119d5565b604052919050565b60006001600160401b03821115611aa157611aa16119d5565b5060051b60200190565b803561ffff81168114611abd57600080fd5b919050565b60006020808385031215611ad557600080fd5b82356001600160401b03811115611aeb57600080fd5b8301601f81018513611afc57600080fd5b8035611b0f611b0a82611a88565b611a58565b81815260069190911b82018301908381019087831115611b2e57600080fd5b928401925b82841015611b785760408489031215611b4c5760008081fd5b611b546119eb565b611b5d85611aab565b81528486013586820152825260409093019290840190611b33565b979650505050505050565b60008060408385031215611b9657600080fd5b611b9f83611aab565b946020939093013593505050565b600060208284031215611bbf57600080fd5b6107ed82611aab565b6001600160a01b0381168114610d9457600080fd5b60008060408385031215611bf057600080fd5b611bf983611aab565b91506020830135611c0981611bc8565b809150509250929050565b600080600060608486031215611c2957600080fd5b611c3284611aab565b95602085013595506040909401359392505050565b80358015158114611abd57600080fd5b600060808284031215611c6957600080fd5b604051608081018181106001600160401b0382111715611c8b57611c8b6119d5565b604052905080611c9a83611c47565b8152611ca860208401611c47565b60208201526040830135611cbb81611bc8565b60408201526060830135611cce81611bc8565b6060919091015292915050565b60008060a0808486031215611cef57600080fd5b83356001600160401b03811115611d0557600080fd5b8401601f81018613611d1657600080fd5b80356020611d26611b0a83611a88565b8281526101e0928302840182019282820191908a851115611d4657600080fd5b948301945b84861015611e535780868c031215611d635760008081fd5b611d6b611a13565b611d7487611c47565b8152611d81858801611c47565b858201526040611d92818901611c47565b908201526060611da3888201611c47565b908201526080611db4888201611c47565b90820152611dc3878901611c47565b8882015260c0611dd4818901611c47565b9082015260e0611de5888201611aab565b90820152610100611df7888201611aab565b90820152610120611e09888201611aab565b908201526101408781013590820152610160808801359082015261018080880135908201526101a080880135908201526101c0808801359082015283529485019491830191611d4b565b509650611e64905088888301611c57565b9450505050509250929050565b60008060408385031215611e8457600080fd5b611e8d83611aab565b9150611e9b60208401611c47565b90509250929050565b60006020808385031215611eb757600080fd5b82356001600160401b03811115611ecd57600080fd5b8301601f81018513611ede57600080fd5b8035611eec611b0a82611a88565b81815260609182028301840191848201919088841115611f0b57600080fd5b938501935b83851015611f5c5780858a031215611f285760008081fd5b611f30611a36565b611f3986611aab565b815285870135878201526040808701359082015283529384019391850191611f10565b50979650505050505050565b600060208284031215611f7a57600080fd5b8135611f8581611bc8565b9392505050565b600080600060608486031215611fa157600080fd5b611faa84611aab565b9250611fb860208501611aab565b9150611fc660408501611aab565b90509250925092565b60006020808385031215611fe257600080fd5b82356001600160401b03811115611ff857600080fd5b8301601f8101851361200957600080fd5b8035612017611b0a82611a88565b81815260069190911b8201830190838101908783111561203657600080fd5b928401925b82841015611b7857604084890312156120545760008081fd5b61205c6119eb565b61206585611aab565b8152848601358682015282526040909301929084019061203b565b60008060006060848603121561209557600080fd5b61209e84611aab565b9250602080850135925060408501356001600160401b03808211156120c257600080fd5b818701915087601f8301126120d657600080fd5b8135818111156120e8576120e86119d5565b6120fa601f8201601f19168501611a58565b9150808252888482850101111561211057600080fd5b80848401858401376000848284010152508093505050509250925092565b60005b83811015612149578181015183820152602001612131565b50506000910152565b6000815180845261216a81602086016020860161212e565b601f01601f19169290920160200192915050565b828152604060208201526000610ef26040830184612152565b600060208083850312156121aa57600080fd5b82356001600160401b038111156121c057600080fd5b8301601f810185136121d157600080fd5b80356121df611b0a82611a88565b81815260069190911b820183019083810190878311156121fe57600080fd5b928401925b82841015611b78576040848903121561221c5760008081fd5b6122246119eb565b61222d85611aab565b815261223a868601611c47565b8187015282526040939093019290840190612203565b6000602080838503121561226357600080fd5b82356001600160401b0381111561227957600080fd5b8301601f8101851361228a57600080fd5b8035612298611b0a82611a88565b818152606091820283018401918482019190888411156122b757600080fd5b938501935b83851015611f5c5780858a0312156122d45760008081fd5b6122dc611a36565b6122e586611aab565b81526122f2878701611aab565b878201526040612303818801611aab565b90820152835293840193918501916122bc565b6000602080838503121561232957600080fd5b82356001600160401b0381111561233f57600080fd5b8301601f8101851361235057600080fd5b803561235e611b0a82611a88565b81815260069190911b8201830190838101908783111561237d57600080fd5b928401925b82841015611b78576040848903121561239b5760008081fd5b6123a36119eb565b6123ac85611aab565b81528486013586820152825260409093019290840190612382565b634e487b7160e01b600052603260045260246000fd5b600082516123ef81846020870161212e565b9190910192915050565b6020815260006107ed6020830184612152565b634e487b7160e01b600052602160045260246000fd5b60006020828403121561243457600080fd5b5051919050565b634e487b7160e01b600052601160045260246000fd5b63ffffffff81811683821601908082111561246e5761246e61243b565b5092915050565b80820281158282048414176107f0576107f061243b565b808201808211156107f0576107f061243b565b6000602082840312156124b157600080fd5b815160018110611f8557600080fd5b600080604083850312156124d357600080fd5b825160ff811681146124e457600080fd5b6020939093015192949293505050565b818103818111156107f0576107f061243b565b60008261252457634e487b7160e01b600052601260045260246000fd5b50049056fea2646970667358221220f8d71646c3038f82e5272b7c1e69e96950a3faea38dec2e4a274b7e3303a6dda64736f6c63430008130033",
    "linkReferences": {}
  },
  "methodIdentifiers": {
    "assetConversionBuffer(uint16)": "bb7c0a63",
    "chainId()": "9a8a0592",
    "confirmOwnershipTransferRequest()": "038c0b66",
    "coreRelayer()": "e8fec1ce",
    "deliverGasOverhead(uint16)": "3e48e773",
    "gasPrice(uint16)": "49cdb88c",
    "getRewardAddress()": "bf9321fc",
    "getTargetChainAddress(uint16)": "3d77cbfd",
    "isChainSupported(uint16)": "28f41de3",
    "isInitialized(address)": "d60b347f",
    "maximumBudget(uint16)": "3171aaec",
    "nativeCurrencyPrice(uint16)": "4713de7a",
    "owner()": "8da5cb5b",
    "pendingOwner()": "e30c3978",
    "quoteAssetConversion(uint16,uint256)": "32f3e784",
    "quoteDeliveryOverhead(uint16)": "a31bcc50",
    "quoteDeliveryPrice(uint16,uint256,bytes)": "b9e75e66",
    "quoteEvmDeliveryPrice(uint16,uint256,uint256)": "5b5bfc1e",
    "quoteGasPrice(uint16)": "e8f62d41",
    "rewardAddress()": "8cf57cb9",
    "submitOwnershipTransferRequest(uint16,address)": "94cc743d",
    "targetChainAddress(uint16)": "3978748a",
    "updateAssetConversionBuffer(uint16,uint16,uint16)": "973ef215",
    "updateAssetConversionBuffers((uint16,uint16,uint16)[])": "dd36889f",
    "updateConfig((bool,bool,bool,bool,bool,bool,bool,uint16,uint16,uint16,uint256,uint256,uint256,bytes32,uint256)[],(bool,bool,address,address))": "562817e1",
    "updateDeliverGasOverhead(uint16,uint256)": "111335c5",
    "updateDeliverGasOverheads((uint16,uint256)[])": "ddf04919",
    "updateMaximumBudget(uint16,uint256)": "6b13b504",
    "updateMaximumBudgets((uint16,uint256)[])": "03fed6a5",
    "updatePrice(uint16,uint256,uint256)": "3a823154",
    "updatePrices((uint16,uint256,uint256)[])": "6631703b",
    "updateRewardAddress(address)": "944dd5a2",
    "updateSupportedChain(uint16,bool)": "646e5048",
    "updateSupportedChains((uint16,bool)[])": "d9f88e14",
    "updateTargetChainAddress(uint16,bytes32)": "14de5ced",
    "updateTargetChainAddresses((uint16,bytes32)[])": "b57866d9",
    "updateWormholeRelayer(address)": "b51a5f7b",
    "upgrade(uint16,address)": "3522be7d",
    "wormholeMessageFee()": "fa79380f"
  },
  "id": 13
}