{
  "abi": [
    {
      "anonymous": false,
      "inputs": [
        {
          "indexed": false,
          "internalType": "address",
          "name": "previousAdmin",
          "type": "address"
        },
        {
          "indexed": false,
          "internalType": "address",
          "name": "newAdmin",
          "type": "address"
        }
      ],
      "name": "AdminChanged",
      "type": "event"
    },
    {
      "anonymous": false,
      "inputs": [
        {
          "indexed": true,
          "internalType": "address",
          "name": "beacon",
          "type": "address"
        }
      ],
      "name": "BeaconUpgraded",
      "type": "event"
    },
    {
      "anonymous": false,
      "inputs": [
        {
          "indexed": true,
          "internalType": "address",
          "name": "oldContract",
          "type": "address"
        },
        {
          "indexed": true,
          "internalType": "address",
          "name": "newContract",
          "type": "address"
        }
      ],
      "name": "ContractUpgraded",
      "type": "event"
    },
    {
      "anonymous": false,
      "inputs": [
        {
          "indexed": true,
          "internalType": "address",
          "name": "implementation",
          "type": "address"
        }
      ],
      "name": "Upgraded",
      "type": "event"
    },
    {
      "inputs": [
        {
          "internalType": "uint16",
          "name": "chainId_",
          "type": "uint16"
        }
      ],
      "name": "bridgeContracts",
      "outputs": [
        {
          "internalType": "bytes32",
          "name": "",
          "type": "bytes32"
        }
      ],
      "stateMutability": "view",
      "type": "function"
    },
    {
      "inputs": [],
      "name": "chainId",
      "outputs": [
        {
          "internalType": "uint16",
          "name": "",
          "type": "uint16"
        }
      ],
      "stateMutability": "view",
      "type": "function"
    },
    {
      "inputs": [
        {
          "internalType": "bytes",
          "name": "encodedVm",
          "type": "bytes"
        }
      ],
      "name": "completeTransfer",
      "outputs": [],
      "stateMutability": "nonpayable",
      "type": "function"
    },
    {
      "inputs": [
        {
          "components": [
            {
              "internalType": "bytes32",
              "name": "tokenAddress",
              "type": "bytes32"
            },
            {
              "internalType": "uint16",
              "name": "tokenChain",
              "type": "uint16"
            },
            {
              "internalType": "bytes32",
              "name": "symbol",
              "type": "bytes32"
            },
            {
              "internalType": "bytes32",
              "name": "name",
              "type": "bytes32"
            },
            {
              "internalType": "uint256",
              "name": "tokenID",
              "type": "uint256"
            },
            {
              "internalType": "string",
              "name": "uri",
              "type": "string"
            },
            {
              "internalType": "bytes32",
              "name": "to",
              "type": "bytes32"
            },
            {
              "internalType": "uint16",
              "name": "toChain",
              "type": "uint16"
            }
          ],
          "internalType": "struct NFTBridgeStructs.Transfer",
          "name": "transfer",
          "type": "tuple"
        }
      ],
      "name": "encodeTransfer",
      "outputs": [
        {
          "internalType": "bytes",
          "name": "encoded",
          "type": "bytes"
        }
      ],
      "stateMutability": "pure",
      "type": "function"
    },
    {
      "inputs": [],
      "name": "evmChainId",
      "outputs": [
        {
          "internalType": "uint256",
          "name": "",
          "type": "uint256"
        }
      ],
      "stateMutability": "view",
      "type": "function"
    },
    {
      "inputs": [],
      "name": "finality",
      "outputs": [
        {
          "internalType": "uint8",
          "name": "",
          "type": "uint8"
        }
      ],
      "stateMutability": "view",
      "type": "function"
    },
    {
      "inputs": [
        {
          "internalType": "bytes32",
          "name": "hash",
          "type": "bytes32"
        }
      ],
      "name": "governanceActionIsConsumed",
      "outputs": [
        {
          "internalType": "bool",
          "name": "",
          "type": "bool"
        }
      ],
      "stateMutability": "view",
      "type": "function"
    },
    {
      "inputs": [],
      "name": "governanceChainId",
      "outputs": [
        {
          "internalType": "uint16",
          "name": "",
          "type": "uint16"
        }
      ],
      "stateMutability": "view",
      "type": "function"
    },
    {
      "inputs": [],
      "name": "governanceContract",
      "outputs": [
        {
          "internalType": "bytes32",
          "name": "",
          "type": "bytes32"
        }
      ],
      "stateMutability": "view",
      "type": "function"
    },
    {
      "inputs": [],
      "name": "implementation",
      "outputs": [
        {
          "internalType": "address",
          "name": "",
          "type": "address"
        }
      ],
      "stateMutability": "view",
      "type": "function"
    },
    {
      "inputs": [],
      "name": "initialize",
      "outputs": [],
      "stateMutability": "nonpayable",
      "type": "function"
    },
    {
      "inputs": [],
      "name": "isFork",
      "outputs": [
        {
          "internalType": "bool",
          "name": "",
          "type": "bool"
        }
      ],
      "stateMutability": "view",
      "type": "function"
    },
    {
      "inputs": [
        {
          "internalType": "address",
          "name": "impl",
          "type": "address"
        }
      ],
      "name": "isInitialized",
      "outputs": [
        {
          "internalType": "bool",
          "name": "",
          "type": "bool"
        }
      ],
      "stateMutability": "view",
      "type": "function"
    },
    {
      "inputs": [
        {
          "internalType": "bytes32",
          "name": "hash",
          "type": "bytes32"
        }
      ],
      "name": "isTransferCompleted",
      "outputs": [
        {
          "internalType": "bool",
          "name": "",
          "type": "bool"
        }
      ],
      "stateMutability": "view",
      "type": "function"
    },
    {
      "inputs": [
        {
          "internalType": "address",
          "name": "token",
          "type": "address"
        }
      ],
      "name": "isWrappedAsset",
      "outputs": [
        {
          "internalType": "bool",
          "name": "",
          "type": "bool"
        }
      ],
      "stateMutability": "view",
      "type": "function"
    },
    {
      "inputs": [
        {
          "internalType": "address",
          "name": "operator",
          "type": "address"
        },
        {
          "internalType": "address",
          "name": "",
          "type": "address"
        },
        {
          "internalType": "uint256",
          "name": "",
          "type": "uint256"
        },
        {
          "internalType": "bytes",
          "name": "",
          "type": "bytes"
        }
      ],
      "name": "onERC721Received",
      "outputs": [
        {
          "internalType": "bytes4",
          "name": "",
          "type": "bytes4"
        }
      ],
      "stateMutability": "view",
      "type": "function"
    },
    {
      "inputs": [
        {
          "internalType": "bytes",
          "name": "encodedRecoverChainId",
          "type": "bytes"
        }
      ],
      "name": "parseRecoverChainId",
      "outputs": [
        {
          "components": [
            {
              "internalType": "bytes32",
              "name": "module",
              "type": "bytes32"
            },
            {
              "internalType": "uint8",
              "name": "action",
              "type": "uint8"
            },
            {
              "internalType": "uint256",
              "name": "evmChainId",
              "type": "uint256"
            },
            {
              "internalType": "uint16",
              "name": "newChainId",
              "type": "uint16"
            }
          ],
          "internalType": "struct NFTBridgeStructs.RecoverChainId",
          "name": "rci",
          "type": "tuple"
        }
      ],
      "stateMutability": "pure",
      "type": "function"
    },
    {
      "inputs": [
        {
          "internalType": "bytes",
          "name": "encoded",
          "type": "bytes"
        }
      ],
      "name": "parseRegisterChain",
      "outputs": [
        {
          "components": [
            {
              "internalType": "bytes32",
              "name": "module",
              "type": "bytes32"
            },
            {
              "internalType": "uint8",
              "name": "action",
              "type": "uint8"
            },
            {
              "internalType": "uint16",
              "name": "chainId",
              "type": "uint16"
            },
            {
              "internalType": "uint16",
              "name": "emitterChainID",
              "type": "uint16"
            },
            {
              "internalType": "bytes32",
              "name": "emitterAddress",
              "type": "bytes32"
            }
          ],
          "internalType": "struct NFTBridgeStructs.RegisterChain",
          "name": "chain",
          "type": "tuple"
        }
      ],
      "stateMutability": "pure",
      "type": "function"
    },
    {
      "inputs": [
        {
          "internalType": "bytes",
          "name": "encoded",
          "type": "bytes"
        }
      ],
      "name": "parseTransfer",
      "outputs": [
        {
          "components": [
            {
              "internalType": "bytes32",
              "name": "tokenAddress",
              "type": "bytes32"
            },
            {
              "internalType": "uint16",
              "name": "tokenChain",
              "type": "uint16"
            },
            {
              "internalType": "bytes32",
              "name": "symbol",
              "type": "bytes32"
            },
            {
              "internalType": "bytes32",
              "name": "name",
              "type": "bytes32"
            },
            {
              "internalType": "uint256",
              "name": "tokenID",
              "type": "uint256"
            },
            {
              "internalType": "string",
              "name": "uri",
              "type": "string"
            },
            {
              "internalType": "bytes32",
              "name": "to",
              "type": "bytes32"
            },
            {
              "internalType": "uint16",
              "name": "toChain",
              "type": "uint16"
            }
          ],
          "internalType": "struct NFTBridgeStructs.Transfer",
          "name": "transfer",
          "type": "tuple"
        }
      ],
      "stateMutability": "pure",
      "type": "function"
    },
    {
      "inputs": [
        {
          "internalType": "bytes",
          "name": "encoded",
          "type": "bytes"
        }
      ],
      "name": "parseUpgrade",
      "outputs": [
        {
          "components": [
            {
              "internalType": "bytes32",
              "name": "module",
              "type": "bytes32"
            },
            {
              "internalType": "uint8",
              "name": "action",
              "type": "uint8"
            },
            {
              "internalType": "uint16",
              "name": "chainId",
              "type": "uint16"
            },
            {
              "internalType": "bytes32",
              "name": "newContract",
              "type": "bytes32"
            }
          ],
          "internalType": "struct NFTBridgeStructs.UpgradeContract",
          "name": "chain",
          "type": "tuple"
        }
      ],
      "stateMutability": "pure",
      "type": "function"
    },
    {
      "inputs": [
        {
          "internalType": "bytes",
          "name": "encodedVM",
          "type": "bytes"
        }
      ],
      "name": "registerChain",
      "outputs": [],
      "stateMutability": "nonpayable",
      "type": "function"
    },
    {
      "inputs": [
        {
          "internalType": "uint256",
          "name": "tokenId",
          "type": "uint256"
        }
      ],
      "name": "splCache",
      "outputs": [
        {
          "components": [
            {
              "internalType": "bytes32",
              "name": "name",
              "type": "bytes32"
            },
            {
              "internalType": "bytes32",
              "name": "symbol",
              "type": "bytes32"
            }
          ],
          "internalType": "struct NFTBridgeStorage.SPLCache",
          "name": "",
          "type": "tuple"
        }
      ],
      "stateMutability": "view",
      "type": "function"
    },
    {
      "inputs": [
        {
          "internalType": "bytes",
          "name": "encodedVM",
          "type": "bytes"
        }
      ],
      "name": "submitRecoverChainId",
      "outputs": [],
      "stateMutability": "nonpayable",
      "type": "function"
    },
    {
      "inputs": [],
      "name": "testNewImplementationActive",
      "outputs": [
        {
          "internalType": "bool",
          "name": "",
          "type": "bool"
        }
      ],
      "stateMutability": "pure",
      "type": "function"
    },
    {
      "inputs": [
        {
          "internalType": "uint16",
          "name": "fakeChainId",
          "type": "uint16"
        },
        {
          "internalType": "uint256",
          "name": "fakeEvmChainId",
          "type": "uint256"
        }
      ],
      "name": "testOverwriteEVMChainId",
      "outputs": [],
      "stateMutability": "nonpayable",
      "type": "function"
    },
    {
      "inputs": [],
      "name": "tokenImplementation",
      "outputs": [
        {
          "internalType": "address",
          "name": "",
          "type": "address"
        }
      ],
      "stateMutability": "view",
      "type": "function"
    },
    {
      "inputs": [
        {
          "internalType": "address",
          "name": "token",
          "type": "address"
        },
        {
          "internalType": "uint256",
          "name": "tokenID",
          "type": "uint256"
        },
        {
          "internalType": "uint16",
          "name": "recipientChain",
          "type": "uint16"
        },
        {
          "internalType": "bytes32",
          "name": "recipient",
          "type": "bytes32"
        },
        {
          "internalType": "uint32",
          "name": "nonce",
          "type": "uint32"
        }
      ],
      "name": "transferNFT",
      "outputs": [
        {
          "internalType": "uint64",
          "name": "sequence",
          "type": "uint64"
        }
      ],
      "stateMutability": "payable",
      "type": "function"
    },
    {
      "inputs": [
        {
          "internalType": "bytes",
          "name": "encodedVM",
          "type": "bytes"
        }
      ],
      "name": "upgrade",
      "outputs": [],
      "stateMutability": "nonpayable",
      "type": "function"
    },
    {
      "inputs": [],
      "name": "wormhole",
      "outputs": [
        {
          "internalType": "contract IWormhole",
          "name": "",
          "type": "address"
        }
      ],
      "stateMutability": "view",
      "type": "function"
    },
    {
      "inputs": [
        {
          "internalType": "uint16",
          "name": "tokenChainId",
          "type": "uint16"
        },
        {
          "internalType": "bytes32",
          "name": "tokenAddress",
          "type": "bytes32"
        }
      ],
      "name": "wrappedAsset",
      "outputs": [
        {
          "internalType": "address",
          "name": "",
          "type": "address"
        }
      ],
      "stateMutability": "view",
      "type": "function"
    }
  ],
  "bytecode": {
    "object": "0x608060405234801561001057600080fd5b50613e3e806100206000396000f3fe608060405260043610620001f35760003560e01c806384acd1bb116200010b578063c687851911620000a1578063e039f224116200006c578063e039f2241462000740578063e6a853e01462000758578063fbe3c2cd146200078c578063fbeeacd914620007ad57600080fd5b8063c6878519146200064e578063c96616e11462000673578063cb4cfea814620006a3578063d60b347f146200070357600080fd5b8063aa4efa5b11620000e2578063aa4efa5b1462000593578063ad66a5f114620005c7578063b172b22214620005fc578063c054a2e0146200061357600080fd5b806384acd1bb14620005245780639a8a05921462000544578063a5799f93146200056e57600080fd5b80632b511375116200018d5780635c60da1b11620001585780635c60da1b14620004a457806364d42b1714620004bc578063739fc8d114620004dd5780638129fc1c146200050c57600080fd5b80632b51137514620003a35780632c3c02a414620003d75780632f3a3d5d146200040b5780633ca64826146200042b57600080fd5b80631a2be4da11620001ce5780631a2be4da14620002dc5780631f8cdb2b146200032a5780631ff1e286146200034057806325394645146200037e57600080fd5b806301f5325514620001f8578063150b7a021462000276578063178149e714620002b5575b600080fd5b3480156200020557600080fd5b506200021d6200021736600462002cdd565b6200080d565b6040516200026d9190600060a0820190508251825260ff6020840151166020830152604083015161ffff808216604085015280606086015116606085015250506080830151608083015292915050565b60405180910390f35b3480156200028357600080fd5b506200029b6200029536600462002d4f565b62000a15565b6040516001600160e01b031990911681526020016200026d565b348015620002c257600080fd5b50620002da620002d436600462002cdd565b62000a99565b005b348015620002e957600080fd5b5062000319620002fb36600462002df2565b6001600160a01b031660009081526008602052604090205460ff1690565b60405190151581526020016200026d565b3480156200033757600080fd5b50600162000319565b3480156200034d57600080fd5b50620003656200035f36600462002e35565b62000bb5565b6040516001600160a01b0390911681526020016200026d565b3480156200038b57600080fd5b50620002da6200039d36600462002cdd565b62000be4565b348015620003b057600080fd5b50620003c8620003c236600462002cdd565b62000cf4565b6040516200026d919062002eb8565b348015620003e457600080fd5b5062000319620003f636600462002f36565b60009081526004602052604090205460ff1690565b3480156200041857600080fd5b506001546001600160a01b031662000365565b3480156200043857600080fd5b50620004886200044a36600462002f36565b6040805180820190915260008082526020820152506000908152600a6020908152604091829020825180840190935280548352600101549082015290565b604080518251815260209283015192810192909252016200026d565b348015620004b157600080fd5b506200036562000eca565b348015620004c957600080fd5b50600b545b6040519081526020016200026d565b348015620004ea57600080fd5b50600254640100000000900460ff1660405160ff90911681526020016200026d565b3480156200051957600080fd5b50620002da62000ee4565b3480156200053157600080fd5b506000546001600160a01b031662000365565b3480156200055157600080fd5b5060025461ffff165b60405161ffff90911681526020016200026d565b3480156200057b57600080fd5b50620002da6200058d36600462002cdd565b62000fae565b348015620005a057600080fd5b5062000319620005b236600462002f36565b60009081526005602052604090205460ff1690565b348015620005d457600080fd5b50620004ce620005e636600462002f50565b61ffff1660009081526009602052604090205490565b3480156200060957600080fd5b50600354620004ce565b3480156200062057600080fd5b50620002da6200063236600462002e35565b6002805461ffff191661ffff9390931692909217909155600b55565b3480156200065b57600080fd5b50620002da6200066d36600462002cdd565b620010b3565b6200068a6200068436600462002f83565b620010be565b6040516001600160401b0390911681526020016200026d565b348015620006b057600080fd5b50620006c8620006c236600462002cdd565b62001741565b6040516200026d91908151815260208083015160ff16908201526040808301519082015260609182015161ffff169181019190915260800190565b3480156200071057600080fd5b50620003196200072236600462002df2565b6001600160a01b031660009081526006602052604090205460ff1690565b3480156200074d57600080fd5b506200031962001901565b3480156200076557600080fd5b506200077d620007773660046200300a565b62001915565b6040516200026d9190620030d7565b3480156200079957600080fd5b5060025462010000900461ffff166200055a565b348015620007ba57600080fd5b50620007d2620007cc36600462002cdd565b620019d1565b6040516200026d91908151815260208083015160ff169082015260408083015161ffff16908201526060918201519181019190915260800190565b6040805160a08101825260008082526020820181905291810182905260608101829052608081018290529062000844838262001baa565b82526200085360208262003102565b8251909150684e465442726964676514620008c15760405162461bcd60e51b815260206004820152602360248201527f696e76616c6964205265676973746572436861696e3a2077726f6e67206d6f64604482015262756c6560e81b60648201526084015b60405180910390fd5b620008cd838262001c0c565b60ff166020830152620008e260018262003102565b9050816020015160ff16600114620009495760405162461bcd60e51b815260206004820152602360248201527f696e76616c6964205265676973746572436861696e3a2077726f6e672061637460448201526234b7b760e91b6064820152608401620008b8565b62000955838262001c6c565b61ffff1660408301526200096b60028262003102565b905062000979838262001c6c565b61ffff1660608301526200098f60028262003102565b90506200099d838262001baa565b6080830152620009af60208262003102565b90508083511462000a0f5760405162461bcd60e51b815260206004820152602360248201527f696e76616c6964205265676973746572436861696e3a2077726f6e67206c656e6044820152620cee8d60eb1b6064820152608401620008b8565b50919050565b60006001600160a01b038616301462000a875760405162461bcd60e51b815260206004820152602d60248201527f63616e206f6e6c792062726964676520746f6b656e7320766961207472616e7360448201526c19995c939195081b595d1a1bd9609a1b6064820152608401620008b8565b50630a85bd0160e11b95945050505050565b62000aa362001901565b62000ade5760405162461bcd60e51b815260206004820152600a6024820152696e6f74206120666f726b60b01b6044820152606401620008b8565b600080600062000aee8462001ccd565b92509250925081819062000b175760405162461bcd60e51b8152600401620008b89190620030d7565b5062000b2883610140015162001eec565b600062000b398460e0015162001741565b90504681604001511462000b845760405162461bcd60e51b815260206004820152601160248201527034b73b30b634b21022ab269021b430b4b760791b6044820152606401620008b8565b62000b93816040015162001f07565b60608101516002805461ffff191661ffff9092169190911790555b5050505050565b61ffff821660009081526007602090815260408083208484529091529020546001600160a01b03165b92915050565b62000bee62001901565b1562000c2c5760405162461bcd60e51b815260206004820152600c60248201526b696e76616c696420666f726b60a01b6044820152606401620008b8565b600080600062000c3c8462001ccd565b92509250925081819062000c655760405162461bcd60e51b8152600401620008b89190620030d7565b5062000c7683610140015162001eec565b600062000c878460e00151620019d1565b905062000c9760025461ffff1690565b61ffff16816040015161ffff161462000ce45760405162461bcd60e51b815260206004820152600e60248201526d1ddc9bdb99c818da185a5b881a5960921b6044820152606401620008b8565b606081015162000bae9062001f52565b604080516101008101825260008082526020820181905291810182905260608082018390526080820183905260a082015260c0810182905260e08101829052908062000d41848262001c0c565b905062000d5060018362003102565b91508060ff1660011462000d9a5760405162461bcd60e51b815260206004820152601060248201526f34b73b30b634b2102a3930b739b332b960811b6044820152606401620008b8565b62000da6848362001baa565b835262000db560208362003102565b915062000dc3848362001c6c565b61ffff16602084015262000dd960028362003102565b915062000de7848362001baa565b604084015262000df960208362003102565b915062000e07848362001baa565b606084015262000e1960208362003102565b915062000e27848362002089565b608084015262000e3960208362003102565b915062000e4860018362003102565b915062000e7582602284875162000e60919062003118565b62000e6c919062003118565b869190620020e2565b60a08401528351915062000e8b60028362003118565b915062000e99848362001c6c565b61ffff1660e084015262000eaf60208362003118565b915062000ebd848362001baa565b60c0840152509092915050565b600062000edf6001546001600160a01b031690565b905090565b600062000f187f360894a13ba1a3210667c828492db98dca3e2076cc3735a920a3ca505d382bbc546001600160a01b031690565b905062000f3d816001600160a01b031660009081526006602052604090205460ff1690565b1562000f825760405162461bcd60e51b8152602060048201526013602482015272185b1c9958591e481a5b9a5d1a585b1a5e9959606a1b6044820152606401620008b8565b62000fab816001600160a01b03166000908152600660205260409020805460ff19166001179055565b50565b600080600062000fbe8462001ccd565b92509250925081819062000fe75760405162461bcd60e51b8152600401620008b89190620030d7565b5062000ff883610140015162001eec565b6000620010098460e001516200080d565b90506200101960025461ffff1690565b61ffff16816040015161ffff161480156200103b57506200103962001901565b155b806200104d5750604081015161ffff16155b6200108e5760405162461bcd60e51b815260206004820152601060248201526f1a5b9d985b1a590818da185a5b881a5960821b6044820152606401620008b8565b62000bae8160600151826080015161ffff909116600090815260096020526040902055565b62000fab81620021fb565b6000806000620010e6886001600160a01b031660009081526008602052604090205460ff1690565b15620011c057876001600160a01b0316639a8a05926040518163ffffffff1660e01b8152600401602060405180830381865afa1580156200112b573d6000803e3d6000fd5b505050506040513d601f19601f820116820180604052508101906200115191906200313b565b9150876001600160a01b0316633d6c043b6040518163ffffffff1660e01b8152600401602060405180830381865afa15801562001192573d6000803e3d6000fd5b505050506040513d601f19601f82011682018060405250810190620011b891906200315b565b90506200136a565b60025461ffff166040516301ffc9a760e01b81526380ac58cd60e01b60048201529092506001600160a01b038916915081906301ffc9a790602401602060405180830381865afa15801562001219573d6000803e3d6000fd5b505050506040513d601f19601f820116820180604052508101906200123f919062003186565b620012975760405162461bcd60e51b815260206004820152602160248201527f6d75737420737570706f7274207468652045524337323120696e7465726661636044820152606560f81b6064820152608401620008b8565b6040516301ffc9a760e01b8152635b5e139f60e01b60048201526001600160a01b038916906301ffc9a790602401602060405180830381865afa158015620012e3573d6000803e3d6000fd5b505050506040513d601f19601f8201168201806040525081019062001309919062003186565b6200136a5760405162461bcd60e51b815260206004820152602a60248201527f6d75737420737570706f727420746865204552433732312d4d657461646174616044820152691032bc3a32b739b4b7b760b11b6064820152608401620008b8565b60608060608461ffff16600114620014c45760408051600481526024810182526020810180516001600160e01b03166395d89b4160e01b17905290516000916001600160a01b038e1691620013c09190620031a4565b600060405180830381855afa9150503d8060008114620013fd576040519150601f19603f3d011682016040523d82523d6000602084013e62001402565b606091505b5060408051600481526024810182526020810180516001600160e01b03166306fdde0360e01b1790529051919350600092506001600160a01b038f16916200144b9190620031a4565b600060405180830381855afa9150503d806000811462001488576040519150601f19603f3d011682016040523d82523d6000602084013e6200148d565b606091505b5091505081806020019051810190620014a791906200320e565b945080806020019051810190620014bf91906200320e565b935050505b60008b6001600160a01b03168b604051602401620014e491815260200190565b60408051601f198184030181529181526020820180516001600160e01b031663c87b56dd60e01b179052516200151b9190620031a4565b600060405180830381855afa9150503d806000811462001558576040519150601f19603f3d011682016040523d82523d6000602084013e6200155d565b606091505b50915050808060200190518101906200157791906200320e565b9150506000808661ffff16600103620015f357604080518082018252600080825260209182018190528e8152600a82528281208351808501909452805484526001015491830191909152906020810151815190945092509050620015ec8d6000908152600a6020526040812081815560010155565b5062001600565b5050602083810151908301515b604051632142170760e11b8152336004820152306024820152604481018d90526001600160a01b038e16906342842e0e90606401600060405180830381600087803b1580156200164f57600080fd5b505af115801562001664573d6000803e3d6000fd5b505050506200167660025461ffff1690565b61ffff168761ffff1614620016e257604051630852cd8d60e31b8152600481018d90526001600160a01b038e16906342966c6890602401600060405180830381600087803b158015620016c857600080fd5b505af1158015620016dd573d6000803e3d6000fd5b505050505b620017306040518061010001604052808881526020018961ffff1681526020018481526020018381526020018e81526020018581526020018c81526020018d61ffff16815250348b620025cd565b9d9c50505050505050505050505050565b60408051608081018252600080825260208201819052918101829052606081018290529062001771838262001baa565b82526200178060208262003102565b8251909150684e465442726964676514620017ea5760405162461bcd60e51b8152602060048201526024808201527f696e76616c6964205265636f766572436861696e49643a2077726f6e67206d6f60448201526364756c6560e01b6064820152608401620008b8565b620017f6838262001c0c565b60ff1660208301526200180b60018262003102565b9050816020015160ff16600314620018725760405162461bcd60e51b8152602060048201526024808201527f696e76616c6964205265636f766572436861696e49643a2077726f6e672061636044820152633a34b7b760e11b6064820152608401620008b8565b6200187e838262002089565b60408301526200189060208262003102565b90506200189e838262001c6c565b61ffff166060830152620018b460028262003102565b90508083511462000a0f5760405162461bcd60e51b81526020600482015260166024820152751a5b9d985b1a5908149958dbdd995c90da185a5b925960521b6044820152606401620008b8565b6000466200190e600b5490565b1415905090565b606060c88260a001515111156200197a5760405162461bcd60e51b815260206004820152602260248201527f746f6b656e555249206d757374206e6f74206578636565642032303020627974604482015261657360f01b6064820152608401620008b8565b81516020808401516040808601516060870151608088015160a0890151805160c08b015160e08c01519651620019bb9a60019a909998939493910162003246565b6040516020818303038152906040529050919050565b60408051608081018252600080825260208201819052918101829052606081018290529062001a01838262001baa565b825262001a1060208262003102565b8251909150684e46544272696467651462001a7c5760405162461bcd60e51b815260206004820152602560248201527f696e76616c69642055706772616465436f6e74726163743a2077726f6e67206d6044820152646f64756c6560d81b6064820152608401620008b8565b62001a88838262001c0c565b60ff16602083015262001a9d60018262003102565b9050816020015160ff1660021462001b065760405162461bcd60e51b815260206004820152602560248201527f696e76616c69642055706772616465436f6e74726163743a2077726f6e67206160448201526431ba34b7b760d91b6064820152608401620008b8565b62001b12838262001c6c565b61ffff16604083015262001b2860028262003102565b905062001b36838262001baa565b606083015262001b4860208262003102565b90508083511462000a0f5760405162461bcd60e51b815260206004820152602560248201527f696e76616c69642055706772616465436f6e74726163743a2077726f6e67206c6044820152640cadccee8d60db1b6064820152608401620008b8565b600062001bb982602062003102565b8351101562001c035760405162461bcd60e51b8152602060048201526015602482015274746f427974657333325f6f75744f66426f756e647360581b6044820152606401620008b8565b50016020015190565b600062001c1b82600162003102565b8351101562001c635760405162461bcd60e51b8152602060048201526013602482015272746f55696e74385f6f75744f66426f756e647360681b6044820152606401620008b8565b50016001015190565b600062001c7b82600262003102565b8351101562001cc45760405162461bcd60e51b8152602060048201526014602482015273746f55696e7431365f6f75744f66426f756e647360601b6044820152606401620008b8565b50016002015190565b604080516101608101825260008082526020820181905291810182905260608082018390526080820183905260a0820183905260c0820183905260e08201819052610100820183905261012082015261014081019190915260006060600080600062001d416000546001600160a01b031690565b6001600160a01b031663c0fd8bde886040518263ffffffff1660e01b815260040162001d6e9190620030d7565b600060405180830381865afa15801562001d8c573d6000803e3d6000fd5b505050506040513d6000823e601f3d908101601f1916820160405262001db69190810190620033d2565b9250925092508162001dcf579194509250905062001ee5565b60025462010000900461ffff1661ffff16836060015161ffff161462001e2d5750506040805180820190915260168152753bb937b7339033b7bb32b93730b731b29031b430b4b760511b602082015290935060009250905062001ee5565b60035483608001511462001e8057505060408051808201909152601981527f77726f6e6720676f7665726e616e636520636f6e747261637400000000000000602082015290935060009250905062001ee5565b61014083015160009081526004602052604090205460ff161562001eca5782600060405180606001604052806022815260200162003de76022913995509550955050505062001ee5565b50506040805160208101909152600081529093506001925090505b9193909250565b6000908152600460205260409020805460ff19166001179055565b46811462001f4d5760405162461bcd60e51b81526020600482015260126024820152711a5b9d985b1a5908195d9b50da185a5b925960721b6044820152606401620008b8565b600b55565b600062001f867f360894a13ba1a3210667c828492db98dca3e2076cc3735a920a3ca505d382bbc546001600160a01b031690565b905062001f938262002686565b60408051600481526024810182526020810180516001600160e01b031663204a7f0760e21b179052905160009182916001600160a01b0386169162001fd891620031a4565b600060405180830381855af49150503d806000811462002015576040519150601f19603f3d011682016040523d82523d6000602084013e6200201a565b606091505b5091509150818190620020425760405162461bcd60e51b8152600401620008b89190620030d7565b50836001600160a01b0316836001600160a01b03167f2e4cc16c100f0b55e2df82ab0b1a7e294aa9cbd01b48fbaf622683fbc0507a4960405160405180910390a350505050565b60006200209882602062003102565b8351101562001c035760405162461bcd60e51b8152602060048201526015602482015274746f55696e743235365f6f75744f66426f756e647360581b6044820152606401620008b8565b606081620020f281601f62003102565b1015620021335760405162461bcd60e51b815260206004820152600e60248201526d736c6963655f6f766572666c6f7760901b6044820152606401620008b8565b6200213f828462003102565b84511015620021855760405162461bcd60e51b8152602060048201526011602482015270736c6963655f6f75744f66426f756e647360781b6044820152606401620008b8565b606082158015620021a65760405191506000825260208201604052620021f2565b6040519150601f8416801560200281840101858101878315602002848b0101015b81831015620021e1578051835260209283019201620021c7565b5050858452601f01601f1916604052505b50949350505050565b6000806000620022136000546001600160a01b031690565b6001600160a01b031663c0fd8bde856040518263ffffffff1660e01b8152600401620022409190620030d7565b600060405180830381865afa1580156200225e573d6000803e3d6000fd5b505050506040513d6000823e601f3d908101601f19168201604052620022889190810190620033d2565b925092509250818190620022b15760405162461bcd60e51b8152600401620008b89190620030d7565b50620022bd83620026c8565b620022fd5760405162461bcd60e51b815260206004820152600f60248201526e34b73b30b634b21032b6b4ba3a32b960891b6044820152606401620008b8565b60006200230e8460e0015162000cf4565b90506200232f84610140015160009081526005602052604090205460ff1690565b156200237e5760405162461bcd60e51b815260206004820152601a60248201527f7472616e7366657220616c726561647920636f6d706c657465640000000000006044820152606401620008b8565b620023a38461014001516000908152600560205260409020805460ff19166001179055565b60025461ffff1661ffff168160e0015161ffff1614620023fd5760405162461bcd60e51b815260206004820152601460248201527334b73b30b634b2103a30b933b2ba1031b430b4b760611b6044820152606401620008b8565b60006200240d60025461ffff1690565b61ffff16826020015161ffff1603620024295750805162002474565b60006200243f8360200151846000015162000bb5565b90506001600160a01b03811662002471576200246e836020015184600001518560600151866040015162002745565b90505b90505b60c082015160025461ffff1661ffff16836020015161ffff16146200255257826020015161ffff16600103620024de576080830151604080518082018252606086015181528186015160208083019182526000948552600a90529190922091518255516001909101555b608083015160a08401516040516334ff261960e21b81526001600160a01b0385169263d3fc98649262002518928692919060040162003547565b600060405180830381600087803b1580156200253357600080fd5b505af115801562002548573d6000803e3d6000fd5b50505050620025c4565b6080830151604051632142170760e11b81523060048201526001600160a01b0383811660248301526044820192909252908316906342842e0e90606401600060405180830381600087803b158015620025aa57600080fd5b505af1158015620025bf573d6000803e3d6000fd5b505050505b50505050505050565b600080620025db8562001915565b9050620025f06000546001600160a01b031690565b6001600160a01b031663b19a437e8585846200261760025460ff6401000000009091041690565b6040518563ffffffff1660e01b8152600401620026379392919062003570565b60206040518083038185885af115801562002656573d6000803e3d6000fd5b50505050506040513d601f19601f820116820180604052508101906200267d9190620035a4565b95945050505050565b6200269181620029f0565b6040516001600160a01b038216907fbc7cd75a20ee27fd9adebab32041f755214dbc6bffa90cc0225b39da2e5c2d3b90600090a250565b6000620026d462001901565b15620027125760405162461bcd60e51b815260206004820152600c60248201526b696e76616c696420666f726b60a01b6044820152606401620008b8565b6080820151606083015161ffff16600090815260096020526040902054036200273d57506001919050565b506000919050565b60006200275560025461ffff1690565b61ffff168561ffff1603620027be5760405162461bcd60e51b815260206004820152602860248201527f63616e206f6e6c79207772617020746f6b656e732066726f6d20666f726569676044820152676e20636861696e7360c01b6064820152608401620008b8565b6000620027cc868662000bb5565b6001600160a01b031614620028245760405162461bcd60e51b815260206004820152601c60248201527f7772617070656420617373657420616c726561647920657869737473000000006044820152606401620008b8565b8461ffff1660010362002865577f576f726d686f6c65204272696467656420536f6c616e612d4e4654000000000092506915d3d49354d41313919560b21b91505b6000627ce50b60e31b620028798562002a97565b620028848562002a97565b3089896040516024016200289d959493929190620035c2565b60408051601f19818403018152918152602080830180516001600160e01b03166001600160e01b03199095169490941790935251909250600091620028e791309185910162003616565b60405160208183030381529060405290506000604051806020016200290c9062002ba2565b601f1982820381018352601f90910116604081905262002932919084906020016200363c565b60408051601f19818403018152908290526001600160f01b031960f08b901b166020830152602282018990529150600090604201604051602081830303815290604052805190602001209050808251602084016000f59450843b6200299657600080fd5b61ffff891660009081526007602090815260408083208b8452825280832080546001600160a01b0319166001600160a01b038a16908117909155835260089091529020805460ff1916600117905550505050949350505050565b803b62002a565760405162461bcd60e51b815260206004820152602d60248201527f455243313936373a206e657720696d706c656d656e746174696f6e206973206e60448201526c1bdd08184818dbdb9d1c9858dd609a1b6064820152608401620008b8565b7f360894a13ba1a3210667c828492db98dca3e2076cc3735a920a3ca505d382bbc80546001600160a01b0319166001600160a01b0392909216919091179055565b606060005b60208110801562002ace575082816020811062002abd5762002abd6200366f565b1a60f81b6001600160f81b03191615155b1562002ae9578062002ae08162003685565b91505062002a9c565b6000816001600160401b0381111562002b065762002b0662002bb0565b6040519080825280601f01601f19166020018201604052801562002b31576020820181803683370190505b50905060005b8281101562002b9a5784816020811062002b555762002b556200366f565b1a60f81b82828151811062002b6e5762002b6e6200366f565b60200101906001600160f81b031916908160001a9053508062002b918162003685565b91505062002b37565b509392505050565b61074580620036a283390190565b634e487b7160e01b600052604160045260246000fd5b60405161010081016001600160401b038111828210171562002bec5762002bec62002bb0565b60405290565b604051608081016001600160401b038111828210171562002bec5762002bec62002bb0565b60405161016081016001600160401b038111828210171562002bec5762002bec62002bb0565b604051601f8201601f191681016001600160401b038111828210171562002c685762002c6862002bb0565b604052919050565b60006001600160401b0382111562002c8c5762002c8c62002bb0565b50601f01601f191660200190565b600062002cb162002cab8462002c70565b62002c3d565b905082815283838301111562002cc657600080fd5b828260208301376000602084830101529392505050565b60006020828403121562002cf057600080fd5b81356001600160401b0381111562002d0757600080fd5b8201601f8101841362002d1957600080fd5b62002d2a8482356020840162002c9a565b949350505050565b80356001600160a01b038116811462002d4a57600080fd5b919050565b60008060008060006080868803121562002d6857600080fd5b62002d738662002d32565b945062002d836020870162002d32565b93506040860135925060608601356001600160401b038082111562002da757600080fd5b818801915088601f83011262002dbc57600080fd5b81358181111562002dcc57600080fd5b89602082850101111562002ddf57600080fd5b9699959850939650602001949392505050565b60006020828403121562002e0557600080fd5b62002e108262002d32565b9392505050565b61ffff8116811462000fab57600080fd5b803562002d4a8162002e17565b6000806040838503121562002e4957600080fd5b823562002e568162002e17565b946020939093013593505050565b60005b8381101562002e8157818101518382015260200162002e67565b50506000910152565b6000815180845262002ea481602086016020860162002e64565b601f01601f19169290920160200192915050565b60208152815160208201526000602083015161ffff80821660408501526040850151606085015260608501516080850152608085015160a085015260a085015191506101008060c086015262002f1361012086018462002e8a565b925060c086015160e08601528160e0870151168186015250508091505092915050565b60006020828403121562002f4957600080fd5b5035919050565b60006020828403121562002f6357600080fd5b813562002e108162002e17565b63ffffffff8116811462000fab57600080fd5b600080600080600060a0868803121562002f9c57600080fd5b62002fa78662002d32565b945060208601359350604086013562002fc08162002e17565b925060608601359150608086013562002fd98162002f70565b809150509295509295909350565b600082601f83011262002ff957600080fd5b62002e108383356020850162002c9a565b6000602082840312156200301d57600080fd5b81356001600160401b03808211156200303557600080fd5b9083019061010082860312156200304b57600080fd5b6200305562002bc6565b82358152620030676020840162002e28565b602082015260408301356040820152606083013560608201526080830135608082015260a0830135828111156200309d57600080fd5b620030ab8782860162002fe7565b60a08301525060c083013560c0820152620030c960e0840162002e28565b60e082015295945050505050565b60208152600062002e10602083018462002e8a565b634e487b7160e01b600052601160045260246000fd5b8082018082111562000bde5762000bde620030ec565b8181038181111562000bde5762000bde620030ec565b805162002d4a8162002e17565b6000602082840312156200314e57600080fd5b815162002e108162002e17565b6000602082840312156200316e57600080fd5b5051919050565b8051801515811462002d4a57600080fd5b6000602082840312156200319957600080fd5b62002e108262003175565b60008251620031b881846020870162002e64565b9190910192915050565b600082601f830112620031d457600080fd5b8151620031e562002cab8262002c70565b818152846020838601011115620031fb57600080fd5b62002d2a82602083016020870162002e64565b6000602082840312156200322157600080fd5b81516001600160401b038111156200323857600080fd5b62002d2a84828501620031c2565b600060ff60f81b808d60f81b1683528b600184015261ffff60f01b808c60f01b1660218501528a6023850152896043850152886063850152818860f81b16608385015286519150620032a0826084860160208a0162002e64565b920160848101949094525060f09190911b1660a482015260a60198975050505050505050565b805160ff8116811462002d4a57600080fd5b805162002d4a8162002f70565b80516001600160401b038116811462002d4a57600080fd5b600082601f8301126200330f57600080fd5b815160206001600160401b038211156200332d576200332d62002bb0565b6200333d818360051b0162002c3d565b82815260079290921b840181019181810190868411156200335d57600080fd5b8286015b84811015620033c757608081890312156200337c5760008081fd5b6200338662002bf2565b8151815284820151858201526040620033a1818401620032c6565b908201526060620033b4838201620032c6565b9082015283529183019160800162003361565b509695505050505050565b600080600060608486031215620033e857600080fd5b83516001600160401b03808211156200340057600080fd5b9085019061016082880312156200341657600080fd5b6200342062002c17565b6200342b83620032c6565b81526200343b60208401620032d8565b60208201526200344e60408401620032d8565b604082015262003461606084016200312e565b6060820152608083015160808201526200347e60a08401620032e5565b60a08201526200349160c08401620032c6565b60c082015260e083015182811115620034a957600080fd5b620034b789828601620031c2565b60e083015250610100620034cd818501620032d8565b908201526101208381015183811115620034e657600080fd5b620034f48a828701620032fd565b918301919091525061014083810151908201529450620035176020870162003175565b935060408601519150808211156200352e57600080fd5b506200353d86828701620031c2565b9150509250925092565b60018060a01b03841681528260208201526060604082015260006200267d606083018462002e8a565b63ffffffff8416815260606020820152600062003591606083018562002e8a565b905060ff83166040830152949350505050565b600060208284031215620035b757600080fd5b62002e1082620032e5565b60a081526000620035d760a083018862002e8a565b8281036020840152620035eb818862002e8a565b6001600160a01b03969096166040840152505061ffff92909216606083015260809091015292915050565b6001600160a01b038316815260406020820181905260009062002d2a9083018462002e8a565b600083516200365081846020880162002e64565b8351908301906200366681836020880162002e64565b01949350505050565b634e487b7160e01b600052603260045260246000fd5b6000600182016200369a576200369a620030ec565b506001019056fe608060405234801561001057600080fd5b5060405161074538038061074583398101604081905261002f91610442565b818161005c60017fa3f0ad74e5423aebfd80d3ef4346578335a9a72aeaee59ff6cb3582b35133d51610502565b6000805160206106fe8339815191521461007857610078610523565b6100848282600061008d565b505050506105a3565b6100968361014e565b6040516001600160a01b038416907f1cf3b03a6cf19fa2baba4df148e9dcabedea7f8a5c07840e207e5c089be95d3e90600090a26000825111806100d75750805b1561014957610147836001600160a01b0316635c60da1b6040518163ffffffff1660e01b8152600401602060405180830381865afa15801561011d573d6000803e3d6000fd5b505050506040513d601f19601f820116820180604052508101906101419190610539565b836102ae565b505b505050565b803b6101af5760405162461bcd60e51b815260206004820152602560248201527f455243313936373a206e657720626561636f6e206973206e6f74206120636f6e6044820152641d1c9858dd60da1b60648201526084015b60405180910390fd5b61021a816001600160a01b0316635c60da1b6040518163ffffffff1660e01b8152600401602060405180830381865afa1580156101f0573d6000803e3d6000fd5b505050506040513d601f19601f820116820180604052508101906102149190610539565b3b151590565b61027f5760405162461bcd60e51b815260206004820152603060248201527f455243313936373a20626561636f6e20696d706c656d656e746174696f6e206960448201526f1cc81b9bdd08184818dbdb9d1c9858dd60821b60648201526084016101a6565b6000805160206106fe83398151915280546001600160a01b0319166001600160a01b0392909216919091179055565b60606102d3838360405180606001604052806027815260200161071e602791396102dc565b90505b92915050565b6060833b61033b5760405162461bcd60e51b815260206004820152602660248201527f416464726573733a2064656c65676174652063616c6c20746f206e6f6e2d636f6044820152651b9d1c9858dd60d21b60648201526084016101a6565b600080856001600160a01b0316856040516103569190610554565b600060405180830381855af49150503d8060008114610391576040519150601f19603f3d011682016040523d82523d6000602084013e610396565b606091505b5090925090506103a78282866103b3565b925050505b9392505050565b606083156103c25750816103ac565b8251156103d25782518084602001fd5b8160405162461bcd60e51b81526004016101a69190610570565b80516001600160a01b038116811461040357600080fd5b919050565b634e487b7160e01b600052604160045260246000fd5b60005b83811015610439578181015183820152602001610421565b50506000910152565b6000806040838503121561045557600080fd5b61045e836103ec565b60208401519092506001600160401b038082111561047b57600080fd5b818501915085601f83011261048f57600080fd5b8151818111156104a1576104a1610408565b604051601f8201601f19908116603f011681019083821181831017156104c9576104c9610408565b816040528281528860208487010111156104e257600080fd5b6104f383602083016020880161041e565b80955050505050509250929050565b818103818111156102d657634e487b7160e01b600052601160045260246000fd5b634e487b7160e01b600052600160045260246000fd5b60006020828403121561054b57600080fd5b6102d3826103ec565b6000825161056681846020870161041e565b9190910192915050565b602081526000825180602084015261058f81604085016020870161041e565b601f01601f19169190910160400192915050565b61014c806105b26000396000f3fe60806040523661001357610011610017565b005b6100115b610027610022610029565b6100c2565b565b600061005c7fa3f0ad74e5423aebfd80d3ef4346578335a9a72aeaee59ff6cb3582b35133d50546001600160a01b031690565b6001600160a01b0316635c60da1b6040518163ffffffff1660e01b8152600401602060405180830381865afa158015610099573d6000803e3d6000fd5b505050506040513d601f19601f820116820180604052508101906100bd91906100e6565b905090565b3660008037600080366000845af43d6000803e8080156100e1573d6000f35b3d6000fd5b6000602082840312156100f857600080fd5b81516001600160a01b038116811461010f57600080fd5b939250505056fea26469706673582212201eb9b2aded96f70ed4d0a5fb3cbab0c97edfa90c8635e7d32f7472db5f5e588464736f6c63430008130033a3f0ad74e5423aebfd80d3ef4346578335a9a72aeaee59ff6cb3582b35133d50416464726573733a206c6f772d6c6576656c2064656c65676174652063616c6c206661696c6564676f7665726e616e636520616374696f6e20616c726561647920636f6e73756d6564a26469706673582212203e9f88578e6af80b20e239a23b6015e35fb09835dad22aad2394206ef325b24364736f6c63430008130033",
    "linkReferences": {}
  },
  "methodIdentifiers": {
    "bridgeContracts(uint16)": "ad66a5f1",
    "chainId()": "9a8a0592",
    "completeTransfer(bytes)": "c6878519",
    "encodeTransfer((bytes32,uint16,bytes32,bytes32,uint256,string,bytes32,uint16))": "e6a853e0",
    "evmChainId()": "64d42b17",
    "finality()": "739fc8d1",
    "governanceActionIsConsumed(bytes32)": "2c3c02a4",
    "governanceChainId()": "fbe3c2cd",
    "governanceContract()": "b172b222",
    "implementation()": "5c60da1b",
    "initialize()": "8129fc1c",
    "isFork()": "e039f224",
    "isInitialized(address)": "d60b347f",
    "isTransferCompleted(bytes32)": "aa4efa5b",
    "isWrappedAsset(address)": "1a2be4da",
    "onERC721Received(address,address,uint256,bytes)": "150b7a02",
    "parseRecoverChainId(bytes)": "cb4cfea8",
    "parseRegisterChain(bytes)": "01f53255",
    "parseTransfer(bytes)": "2b511375",
    "parseUpgrade(bytes)": "fbeeacd9",
    "registerChain(bytes)": "a5799f93",
    "splCache(uint256)": "3ca64826",
    "submitRecoverChainId(bytes)": "178149e7",
    "testNewImplementationActive()": "1f8cdb2b",
    "testOverwriteEVMChainId(uint16,uint256)": "c054a2e0",
    "tokenImplementation()": "2f3a3d5d",
    "transferNFT(address,uint256,uint16,bytes32,uint32)": "c96616e1",
    "upgrade(bytes)": "25394645",
    "wormhole()": "84acd1bb",
    "wrappedAsset(uint16,bytes32)": "1ff1e286"
  },
  "id": 59
}