{
  "abi": [
    {
      "anonymous": false,
      "inputs": [
        {
          "indexed": false,
          "internalType": "address",
          "name": "previousAdmin",
          "type": "address"
        },
        {
          "indexed": false,
          "internalType": "address",
          "name": "newAdmin",
          "type": "address"
        }
      ],
      "name": "AdminChanged",
      "type": "event"
    },
    {
      "anonymous": false,
      "inputs": [
        {
          "indexed": true,
          "internalType": "address",
          "name": "beacon",
          "type": "address"
        }
      ],
      "name": "BeaconUpgraded",
      "type": "event"
    },
    {
      "anonymous": false,
      "inputs": [
        {
          "indexed": true,
          "internalType": "address",
          "name": "implementation",
          "type": "address"
        }
      ],
      "name": "Upgraded",
      "type": "event"
    },
    {
      "inputs": [
        {
          "internalType": "address",
          "name": "implementation",
          "type": "address"
        },
        {
          "internalType": "uint16",
          "name": "chainId",
          "type": "uint16"
        },
        {
          "internalType": "address",
          "name": "wormhole",
          "type": "address"
        },
        {
          "internalType": "uint16",
          "name": "governanceChainId",
          "type": "uint16"
        },
        {
          "internalType": "bytes32",
          "name": "governanceContract",
          "type": "bytes32"
        },
        {
          "internalType": "address",
          "name": "tokenImplementation",
          "type": "address"
        },
        {
          "internalType": "address",
          "name": "WETH",
          "type": "address"
        },
        {
          "internalType": "uint8",
          "name": "finality",
          "type": "uint8"
        },
        {
          "internalType": "uint256",
          "name": "evmChainId",
          "type": "uint256"
        }
      ],
      "name": "setup",
      "outputs": [],
      "stateMutability": "nonpayable",
      "type": "function"
    }
  ],
  "bytecode": {
    "object": "0x608060405234801561001057600080fd5b506103bc806100206000396000f3fe608060405234801561001057600080fd5b506004361061002b5760003560e01c8063b5d93f2614610030575b600080fd5b61004361003e3660046102e2565b610045565b005b60028054600080546001600160a01b038b166001600160a01b031990911617905561ffff888116620100000263ffffffff19909216908b1617179055600385905561008f84610109565b600480546001600160a01b0319166001600160a01b0385161790556002805464ff00000000191664010000000060ff8516021790556100cd81610186565b6100d6896101cf565b6100fe896001600160a01b03166000908152600760205260409020805460ff19166001179055565b505050505050505050565b6001600160a01b0381166101645760405162461bcd60e51b815260206004820152601e60248201527f696e76616c696420696d706c656d656e746174696f6e2061646472657373000060448201526064015b60405180910390fd5b600180546001600160a01b0319166001600160a01b0392909216919091179055565b4681146101ca5760405162461bcd60e51b81526020600482015260126024820152711a5b9d985b1a5908195d9b50da185a5b925960721b604482015260640161015b565b600c55565b6101d88161020f565b6040516001600160a01b038216907fbc7cd75a20ee27fd9adebab32041f755214dbc6bffa90cc0225b39da2e5c2d3b90600090a250565b803b6102735760405162461bcd60e51b815260206004820152602d60248201527f455243313936373a206e657720696d706c656d656e746174696f6e206973206e60448201526c1bdd08184818dbdb9d1c9858dd609a1b606482015260840161015b565b7f360894a13ba1a3210667c828492db98dca3e2076cc3735a920a3ca505d382bbc80546001600160a01b0319166001600160a01b0392909216919091179055565b80356001600160a01b03811681146102cb57600080fd5b919050565b803561ffff811681146102cb57600080fd5b60008060008060008060008060006101208a8c03121561030157600080fd5b61030a8a6102b4565b985061031860208b016102d0565b975061032660408b016102b4565b965061033460608b016102d0565b955060808a0135945061034960a08b016102b4565b935061035760c08b016102b4565b925060e08a013560ff8116811461036d57600080fd5b809250506101008a01359050929598509295985092959856fea2646970667358221220c10d34d99feec247070850992e2763b5e7170755bdf639462a10f53d0cc0496a64736f6c63430008130033",
    "linkReferences": {}
  },
  "methodIdentifiers": {
    "setup(address,uint16,address,uint16,bytes32,address,address,uint8,uint256)": "b5d93f26"
  },
  "id": 17
}