{
  "abi": [
    {
      "inputs": [
        {
          "internalType": "uint16",
          "name": "targetChain",
          "type": "uint16"
        }
      ],
      "name": "assetConversionBuffer",
      "outputs": [
        {
          "internalType": "uint16",
          "name": "tolerance",
          "type": "uint16"
        },
        {
          "internalType": "uint16",
          "name": "toleranceDenominator",
          "type": "uint16"
        }
      ],
      "stateMutability": "view",
      "type": "function"
    },
    {
      "inputs": [],
      "name": "chainId",
      "outputs": [
        {
          "internalType": "uint16",
          "name": "",
          "type": "uint16"
        }
      ],
      "stateMutability": "view",
      "type": "function"
    },
    {
      "inputs": [],
      "name": "coreRelayer",
      "outputs": [
        {
          "internalType": "address",
          "name": "",
          "type": "address"
        }
      ],
      "stateMutability": "view",
      "type": "function"
    },
    {
      "inputs": [
        {
          "internalType": "uint16",
          "name": "targetChain",
          "type": "uint16"
        }
      ],
      "name": "deliverGasOverhead",
      "outputs": [
        {
          "internalType": "Gas",
          "name": "",
          "type": "uint256"
        }
      ],
      "stateMutability": "view",
      "type": "function"
    },
    {
      "inputs": [
        {
          "internalType": "uint16",
          "name": "targetChain",
          "type": "uint16"
        }
      ],
      "name": "gasPrice",
      "outputs": [
        {
          "internalType": "GasPrice",
          "name": "",
          "type": "uint256"
        }
      ],
      "stateMutability": "view",
      "type": "function"
    },
    {
      "inputs": [
        {
          "internalType": "address",
          "name": "impl",
          "type": "address"
        }
      ],
      "name": "isInitialized",
      "outputs": [
        {
          "internalType": "bool",
          "name": "",
          "type": "bool"
        }
      ],
      "stateMutability": "view",
      "type": "function"
    },
    {
      "inputs": [
        {
          "internalType": "uint16",
          "name": "targetChain",
          "type": "uint16"
        }
      ],
      "name": "maximumBudget",
      "outputs": [
        {
          "internalType": "Wei",
          "name": "",
          "type": "uint256"
        }
      ],
      "stateMutability": "view",
      "type": "function"
    },
    {
      "inputs": [
        {
          "internalType": "uint16",
          "name": "targetChain",
          "type": "uint16"
        }
      ],
      "name": "nativeCurrencyPrice",
      "outputs": [
        {
          "internalType": "WeiPrice",
          "name": "",
          "type": "uint256"
        }
      ],
      "stateMutability": "view",
      "type": "function"
    },
    {
      "inputs": [],
      "name": "owner",
      "outputs": [
        {
          "internalType": "address",
          "name": "",
          "type": "address"
        }
      ],
      "stateMutability": "view",
      "type": "function"
    },
    {
      "inputs": [],
      "name": "pendingOwner",
      "outputs": [
        {
          "internalType": "address",
          "name": "",
          "type": "address"
        }
      ],
      "stateMutability": "view",
      "type": "function"
    },
    {
      "inputs": [],
      "name": "rewardAddress",
      "outputs": [
        {
          "internalType": "address payable",
          "name": "",
          "type": "address"
        }
      ],
      "stateMutability": "view",
      "type": "function"
    },
    {
      "inputs": [
        {
          "internalType": "uint16",
          "name": "targetChain",
          "type": "uint16"
        }
      ],
      "name": "targetChainAddress",
      "outputs": [
        {
          "internalType": "bytes32",
          "name": "",
          "type": "bytes32"
        }
      ],
      "stateMutability": "view",
      "type": "function"
    }
  ],
  "bytecode": {
    "object": "0x608060405234801561001057600080fd5b5061030c806100206000396000f3fe608060405234801561001057600080fd5b50600436106100b45760003560e01c80638da5cb5b116100715780638da5cb5b146101a85780639a8a0592146101bf578063bb7c0a63146101d5578063d60b347f14610224578063e30c397814610260578063e8fec1ce1461027157600080fd5b80633171aaec146100b95780633978748a146100f05780633e48e773146101145780634713de7a1461013857806349cdb88c1461015f5780638cf57cb914610183575b600080fd5b6100dd6100c7366004610282565b61ffff1660009081526008602052604090205490565b6040519081526020015b60405180910390f35b6100dd6100fe366004610282565b61ffff1660009081526005602052604090205490565b6100dd610122366004610282565b61ffff1660009081526007602052604090205490565b6100dd610146366004610282565b61ffff1660009081526006602052604090206001015490565b6100dd61016d366004610282565b61ffff1660009081526006602052604090205490565b600a546001600160a01b03165b6040516001600160a01b0390911681526020016100e7565b6000546201000090046001600160a01b0316610190565b60005460405161ffff90911681526020016100e7565b6102096101e3366004610282565b61ffff908116600090815260096020526040902054808216926201000090910490911690565b6040805161ffff9384168152929091166020830152016100e7565b6102506102323660046102ad565b6001600160a01b031660009081526003602052604090205460ff1690565b60405190151581526020016100e7565b6001546001600160a01b0316610190565b6002546001600160a01b0316610190565b60006020828403121561029457600080fd5b813561ffff811681146102a657600080fd5b9392505050565b6000602082840312156102bf57600080fd5b81356001600160a01b03811681146102a657600080fdfea26469706673582212203c185dffc9bb44fa08932f64bca8202780f1a9a848379b609aebce34c2989d3864736f6c63430008130033",
    "linkReferences": {}
  },
  "methodIdentifiers": {
    "assetConversionBuffer(uint16)": "bb7c0a63",
    "chainId()": "9a8a0592",
    "coreRelayer()": "e8fec1ce",
    "deliverGasOverhead(uint16)": "3e48e773",
    "gasPrice(uint16)": "49cdb88c",
    "isInitialized(address)": "d60b347f",
    "maximumBudget(uint16)": "3171aaec",
    "nativeCurrencyPrice(uint16)": "4713de7a",
    "owner()": "8da5cb5b",
    "pendingOwner()": "e30c3978",
    "rewardAddress()": "8cf57cb9",
    "targetChainAddress(uint16)": "3978748a"
  },
  "id": 15
}