{
    "_format": "hh-sol-artifact-1",
    "contractName": "XRaydiumBridge",
    "sourceName": "contracts/XRaydiumBridge.sol",
    "abi": [
        {
            "inputs": [
                {
                    "internalType": "contract WormholeTokenBridge",
                    "name": "_wormholeTokenBridge",
                    "type": "address"
                },
                {
                    "internalType": "contract WormholeCoreBridge",
                    "name": "_wormholeCoreBridge",
                    "type": "address"
                },
                {
                    "internalType": "uint64",
                    "name": "_initialId",
                    "type": "uint64"
                }
            ],
            "stateMutability": "nonpayable",
            "type": "constructor"
        },
        {
            "anonymous": false,
            "inputs": [
                {
                    "indexed": false,
                    "internalType": "string",
                    "name": "message",
                    "type": "string"
                },
                {
                    "indexed": false,
                    "internalType": "address",
                    "name": "addr",
                    "type": "address"
                },
                {
                    "indexed": false,
                    "internalType": "uint256",
                    "name": "amount",
                    "type": "uint256"
                }
            ],
            "name": "MessageAddr",
            "type": "event"
        },
        {
            "anonymous": false,
            "inputs": [
                {
                    "indexed": false,
                    "internalType": "uint128",
                    "name": "id",
                    "type": "uint128"
                },
                {
                    "indexed": false,
                    "internalType": "enum XRaydiumStructs.Status",
                    "name": "status",
                    "type": "uint8"
                },
                {
                    "indexed": false,
                    "internalType": "address",
                    "name": "tokenReturned",
                    "type": "address"
                }
            ],
            "name": "XRaydiumTxResponse",
            "type": "event"
        },
        {
            "inputs": [],
            "name": "SOLANA_CHAIN_ID",
            "outputs": [
                {
                    "internalType": "uint8",
                    "name": "",
                    "type": "uint8"
                }
            ],
            "stateMutability": "view",
            "type": "function"
        },
        {
            "inputs": [],
            "name": "SOLANA_XRAYDIUM_BRIDGE_ADDRESS",
            "outputs": [
                {
                    "internalType": "bytes32",
                    "name": "",
                    "type": "bytes32"
                }
            ],
            "stateMutability": "view",
            "type": "function"
        },
        {
            "inputs": [
                {
                    "internalType": "address[]",
                    "name": "x",
                    "type": "address[]"
                }
            ],
            "name": "addressArrayToBytesArray",
            "outputs": [
                {
                    "internalType": "bytes32[]",
                    "name": "",
                    "type": "bytes32[]"
                }
            ],
            "stateMutability": "pure",
            "type": "function"
        },
        {
            "inputs": [
                {
                    "internalType": "bytes32",
                    "name": "",
                    "type": "bytes32"
                }
            ],
            "name": "completedTokenTransfers",
            "outputs": [
                {
                    "internalType": "bool",
                    "name": "",
                    "type": "bool"
                }
            ],
            "stateMutability": "view",
            "type": "function"
        },
        {
            "inputs": [
                {
                    "internalType": "address[]",
                    "name": "x",
                    "type": "address[]"
                }
            ],
            "name": "encodeAddressArray",
            "outputs": [
                {
                    "internalType": "bytes",
                    "name": "data",
                    "type": "bytes"
                }
            ],
            "stateMutability": "pure",
            "type": "function"
        },
        {
            "inputs": [
                {
                    "internalType": "bytes32[]",
                    "name": "x",
                    "type": "bytes32[]"
                }
            ],
            "name": "encodeBytesArray",
            "outputs": [
                {
                    "internalType": "bytes",
                    "name": "data",
                    "type": "bytes"
                }
            ],
            "stateMutability": "pure",
            "type": "function"
        },
        {
            "inputs": [
                {
                    "components": [
                        {
                            "internalType": "bytes32",
                            "name": "tokenAddr",
                            "type": "bytes32"
                        },
                        {
                            "internalType": "uint16",
                            "name": "chainId",
                            "type": "uint16"
                        }
                    ],
                    "internalType": "struct XRaydiumStructs.XTokenLocator",
                    "name": "x",
                    "type": "tuple"
                }
            ],
            "name": "encodeXTokenLocator",
            "outputs": [
                {
                    "internalType": "bytes",
                    "name": "data",
                    "type": "bytes"
                }
            ],
            "stateMutability": "pure",
            "type": "function"
        },
        {
            "inputs": [
                {
                    "components": [
                        {
                            "internalType": "bytes32",
                            "name": "tokenAddr",
                            "type": "bytes32"
                        },
                        {
                            "internalType": "uint16",
                            "name": "chainId",
                            "type": "uint16"
                        }
                    ],
                    "internalType": "struct XRaydiumStructs.XTokenLocator[]",
                    "name": "xs",
                    "type": "tuple[]"
                }
            ],
            "name": "encodeXTokenLocatorArray",
            "outputs": [
                {
                    "internalType": "bytes",
                    "name": "data",
                    "type": "bytes"
                }
            ],
            "stateMutability": "pure",
            "type": "function"
        },
        {
            "inputs": [],
            "name": "latestSequenceNumber",
            "outputs": [
                {
                    "internalType": "uint64",
                    "name": "",
                    "type": "uint64"
                }
            ],
            "stateMutability": "view",
            "type": "function"
        },
        {
            "inputs": [
                {
                    "internalType": "bytes",
                    "name": "encodedIncomingResponse",
                    "type": "bytes"
                }
            ],
            "name": "receiveResponse",
            "outputs": [],
            "stateMutability": "nonpayable",
            "type": "function"
        },
        {
            "inputs": [
                {
                    "internalType": "uint16",
                    "name": "input",
                    "type": "uint16"
                }
            ],
            "name": "reverse16",
            "outputs": [
                {
                    "internalType": "uint16",
                    "name": "v",
                    "type": "uint16"
                }
            ],
            "stateMutability": "pure",
            "type": "function"
        },
        {
            "inputs": [
                {
                    "internalType": "uint32",
                    "name": "input",
                    "type": "uint32"
                }
            ],
            "name": "reverse32",
            "outputs": [
                {
                    "internalType": "uint32",
                    "name": "v",
                    "type": "uint32"
                }
            ],
            "stateMutability": "pure",
            "type": "function"
        },
        {
            "inputs": [
                {
                    "internalType": "uint64",
                    "name": "input",
                    "type": "uint64"
                }
            ],
            "name": "reverse64",
            "outputs": [
                {
                    "internalType": "uint64",
                    "name": "v",
                    "type": "uint64"
                }
            ],
            "stateMutability": "pure",
            "type": "function"
        },
        {
            "inputs": [
                {
                    "components": [
                        {
                            "internalType": "bytes32",
                            "name": "tokenAddr",
                            "type": "bytes32"
                        },
                        {
                            "internalType": "uint16",
                            "name": "chainId",
                            "type": "uint16"
                        }
                    ],
                    "internalType": "struct XRaydiumStructs.XTokenLocator[]",
                    "name": "route_or_pair",
                    "type": "tuple[]"
                },
                {
                    "internalType": "uint256",
                    "name": "amount",
                    "type": "uint256"
                },
                {
                    "internalType": "uint64",
                    "name": "slippage",
                    "type": "uint64"
                },
                {
                    "internalType": "bytes32",
                    "name": "_solanaAddr",
                    "type": "bytes32"
                }
            ],
            "name": "swap",
            "outputs": [],
            "stateMutability": "nonpayable",
            "type": "function"
        },
        {
            "inputs": [],
            "name": "wormholeCoreBridge",
            "outputs": [
                {
                    "internalType": "contract WormholeCoreBridge",
                    "name": "",
                    "type": "address"
                }
            ],
            "stateMutability": "view",
            "type": "function"
        },
        {
            "inputs": [],
            "name": "wormholeTokenBridge",
            "outputs": [
                {
                    "internalType": "contract WormholeTokenBridge",
                    "name": "",
                    "type": "address"
                }
            ],
            "stateMutability": "view",
            "type": "function"
        }
    ],
    "bytecode": "0x610100604052600160ff1660809060ff1660f81b8152507fbab290454a8dfdb086b2666a7452398bae1993969233b7d8cfcc9a1b0001d0dd60001b60a0908152503480156200004d57600080fd5b5060405162003fa038038062003fa0833981810160405281019062000073919062000157565b8273ffffffffffffffffffffffffffffffffffffffff1660c08173ffffffffffffffffffffffffffffffffffffffff1660601b815250508173ffffffffffffffffffffffffffffffffffffffff1660e08173ffffffffffffffffffffffffffffffffffffffff1660601b81525050806000806101000a81548167ffffffffffffffff021916908367ffffffffffffffff1602179055505050506200026b565b60008151905062000123816200021d565b92915050565b6000815190506200013a8162000237565b92915050565b600081519050620001518162000251565b92915050565b6000806000606084860312156200016d57600080fd5b60006200017d8682870162000129565b9350506020620001908682870162000112565b9250506040620001a38682870162000140565b9150509250925092565b6000620001ba82620001e9565b9050919050565b6000620001ce82620001ad565b9050919050565b6000620001e282620001ad565b9050919050565b600073ffffffffffffffffffffffffffffffffffffffff82169050919050565b600067ffffffffffffffff82169050919050565b6200022881620001c1565b81146200023457600080fd5b50565b6200024281620001d5565b81146200024e57600080fd5b50565b6200025c8162000209565b81146200026857600080fd5b50565b60805160f81c60a05160c05160601c60e05160601c613cb3620002ed6000396000818161081a01526108fa015260008181610a5f01528181610b4f01528181610c1401528181610e1501528181610fd901528181611220015261126a015260006108d1015260008181610385015281816109f201526112a80152613cb36000f3fe608060405234801561001057600080fd5b50600436106101005760003560e01c80638cf4284911610097578063e832657311610066578063e8326573146102e7578063ef0745fd14610317578063f11df69d14610347578063f1c046161461036557610100565b80638cf428491461025f5780638da92a5d1461027d57806393f04256146102ad578063b1f850c2146102cb57610100565b8063382b31da116100d3578063382b31da146101b357806339976a14146101e35780634c6ff4b51461021357806369d5d72c1461022f57610100565b8063067bd07a14610105578063070a2b63146101235780631b3f003f14610153578063299990ee14610183575b600080fd5b61010d610383565b60405161011a91906131d1565b60405180910390f35b61013d6004803603810190610138919061278e565b6103a7565b60405161014a9190613120565b60405180910390f35b61016d60048036038101906101689190612832565b6103c6565b60405161017a919061317f565b60405180910390f35b61019d60048036038101906101989190612765565b610458565b6040516101aa9190612f0a565b60405180910390f35b6101cd60048036038101906101c891906124d4565b6104b7565b6040516101da9190612eb2565b60405180910390f35b6101fd60048036038101906101f89190612515565b6105e4565b60405161020a9190612f0a565b60405180910390f35b61022d60048036038101906102289190612597565b61066f565b005b61024960048036038101906102449190612556565b610787565b6040516102569190612f0a565b60405180910390f35b610267610818565b6040516102749190612f2c565b60405180910390f35b610297600480360381019061029291906124d4565b61083c565b6040516102a49190612f0a565b60405180910390f35b6102b56108cf565b6040516102c29190612eef565b60405180910390f35b6102e560048036038101906102e09190612664565b6108f3565b005b61030160048036038101906102fc919061263b565b610f70565b60405161030e9190612ed4565b60405180910390f35b610331600480360381019061032c9190612809565b610f90565b60405161033e9190613164565b60405180910390f35b61034f610fd7565b60405161035c9190612f47565b60405180910390f35b61036d610ffb565b60405161037a919061317f565b60405180910390f35b7f000000000000000000000000000000000000000000000000000000000000000081565b600081905060088161ffff16901b60088261ffff16901c179050919050565b6000819050600866ff00ff00ff00ff821667ffffffffffffffff16901b600867ff00ff00ff00ff00831667ffffffffffffffff16901c179050601065ffff0000ffff821667ffffffffffffffff16901b601067ffff0000ffff0000831667ffffffffffffffff16901c17905060208167ffffffffffffffff16901b60208267ffffffffffffffff16901c179050919050565b6060808260000151604051602001610471929190612cd5565b60405160208183030381529060405290508061049083602001516103a7565b6040516020016104a1929190612d21565b6040516020818303038152906040529050919050565b60606000825167ffffffffffffffff8111156104fc577f4e487b7100000000000000000000000000000000000000000000000000000000600052604160045260246000fd5b60405190808252806020026020018201604052801561052a5781602001602082028036833780820191505090505b50905060005b83518110156105da57610582848281518110610575577f4e487b7100000000000000000000000000000000000000000000000000000000600052603260045260246000fd5b6020026020010151611015565b8282815181106105bb577f4e487b7100000000000000000000000000000000000000000000000000000000600052603260045260246000fd5b60200260200101818152505080806105d2906137d9565b915050610530565b5080915050919050565b606060005b8251811015610669578183828151811061062c577f4e487b7100000000000000000000000000000000000000000000000000000000600052603260045260246000fd5b6020026020010151604051602001610645929190612cd5565b60405160208183030381529060405291508080610661906137d9565b9150506105e9565b50919050565b6000610679611038565b90506000806040518060e001604052808360058111156106c2577f4e487b7100000000000000000000000000000000000000000000000000000000600052602160045260246000fd5b60ff168152602001600160ff1663ffffffff1681526020018881526020016106e933611015565b81526020016106f730611015565b81526020018467ffffffffffffffff1681526020018667ffffffffffffffff16815250905060006107278261109f565b905061077d88600081518110610766577f4e487b7100000000000000000000000000000000000000000000000000000000600052603260045260246000fd5b60200260200101516000015160001c88838861120f565b5050505050505050565b606060005b825181101561081257816107df8483815181106107d2577f4e487b7100000000000000000000000000000000000000000000000000000000600052603260045260246000fd5b6020026020010151610458565b6040516020016107f0929190612cfd565b60405160208183030381529060405291508061080b906137d9565b905061078c565b50919050565b7f000000000000000000000000000000000000000000000000000000000000000081565b606060005b82518110156108c95781610894848381518110610887577f4e487b7100000000000000000000000000000000000000000000000000000000600052603260045260246000fd5b6020026020010151611015565b6040516020016108a5929190612cd5565b604051602081830303815290604052915080806108c1906137d9565b915050610841565b50919050565b7f000000000000000000000000000000000000000000000000000000000000000081565b60008060007f000000000000000000000000000000000000000000000000000000000000000073ffffffffffffffffffffffffffffffffffffffff1663c0fd8bde856040518263ffffffff1660e01b81526004016109519190612f0a565b60006040518083038186803b15801561096957600080fd5b505afa15801561097d573d6000803e3d6000fd5b505050506040513d6000823e3d601f19601f820116820180604052508101906109a691906126e6565b9250925092508181906109ef576040517f08c379a00000000000000000000000000000000000000000000000000000000081526004016109e69190612f62565b60405180910390fd5b507f000000000000000000000000000000000000000000000000000000000000000060ff16836060015161ffff1614610a5d576040517f08c379a0000000000000000000000000000000000000000000000000000000008152600401610a54906130a0565b60405180910390fd5b7f000000000000000000000000000000000000000000000000000000000000000073ffffffffffffffffffffffffffffffffffffffff1663aa4efa5b8461014001516040518263ffffffff1660e01b8152600401610abb9190612eef565b60206040518083038186803b158015610ad357600080fd5b505afa158015610ae7573d6000803e3d6000fd5b505050506040513d601f19601f82011682018060405250810190610b0b9190612612565b15610b4b576040517f08c379a0000000000000000000000000000000000000000000000000000000008152600401610b4290613040565b60405180910390fd5b60007f000000000000000000000000000000000000000000000000000000000000000073ffffffffffffffffffffffffffffffffffffffff1663c3f511c1866040518263ffffffff1660e01b8152600401610ba69190612f0a565b600060405180830381600087803b158015610bc057600080fd5b505af1158015610bd4573d6000803e3d6000fd5b505050506040513d6000823e3d601f19601f82011682018060405250810190610bfd91906126a5565b9050600080610c0b83611373565b915091506000807f000000000000000000000000000000000000000000000000000000000000000073ffffffffffffffffffffffffffffffffffffffff16639a8a05926040518163ffffffff1660e01b815260040160206040518083038186803b158015610c7857600080fd5b505afa158015610c8c573d6000803e3d6000fd5b505050506040513d601f19601f82011682018060405250810190610cb091906127b7565b61ffff16846060015161ffff161415610e1357836040015160001c915060008273ffffffffffffffffffffffffffffffffffffffff166040516024016040516020818303038152906040527f313ce567000000000000000000000000000000000000000000000000000000007bffffffffffffffffffffffffffffffffffffffffffffffffffffffff19166020820180517bffffffffffffffffffffffffffffffffffffffffffffffffffffffff8381831617835250505050604051610d769190612cbe565b600060405180830381855afa9150503d8060008114610db1576040519150601f19603f3d011682016040523d82523d6000602084013e610db6565b606091505b50915050600081806020019051810190610dd09190612884565b90508560200151925060088160ff161115610e0c57600881610df291906135fe565b600a610dfe9190613486565b83610e0991906135a4565b92505b5050610ed0565b7f000000000000000000000000000000000000000000000000000000000000000073ffffffffffffffffffffffffffffffffffffffff16631ff1e286856060015186604001516040518363ffffffff1660e01b8152600401610e7692919061313b565b60206040518083038186803b158015610e8e57600080fd5b505afa158015610ea2573d6000803e3d6000fd5b505050506040513d601f19601f82011682018060405250810190610ec691906124ab565b9150836020015190505b610ee282846020015160001c8361167c565b7f7b2e0c560dd083c649ccb130e7f5b861c01e61d76fdbf6404a1509f5595d4e81836020015160001c82604051610f1a929190612f84565b60405180910390a17f3df48833261afdb0225cbf2bc3dc53da2760522edc67bbc46313b62f69b4d02f8360000151846040015184604051610f5d9392919061319a565b60405180910390a1505050505050505050565b60016020528060005260406000206000915054906101000a900460ff1681565b6000819050600862ff00ff821663ffffffff16901b600863ff00ff00831663ffffffff16901c17905060108163ffffffff16901b60108263ffffffff16901c179050919050565b7f000000000000000000000000000000000000000000000000000000000000000081565b600260009054906101000a900467ffffffffffffffff1681565b60008173ffffffffffffffffffffffffffffffffffffffff1660001b9050919050565b600060016000808282829054906101000a900467ffffffffffffffff1661105f91906133f5565b92506101000a81548167ffffffffffffffff021916908367ffffffffffffffff16021790555060008054906101000a900467ffffffffffffffff16905090565b60608082600001516040516020016110b8929190612d99565b6040516020818303038152906040529050806110d78360200151610f90565b6040516020016110e8929190612d49565b604051602081830303815290604052905080611108836040015151610f90565b604051602001611119929190612d49565b6040516020818303038152906040529050806111388360400151610787565b604051602001611149929190612cfd565b6040516020818303038152906040529050808260600151604051602001611171929190612cd5565b6040516020818303038152906040529050808260800151604051602001611199929190612cd5565b6040516020818303038152906040529050806111b88360a001516103c6565b6040516020016111c9929190612d71565b6040516020818303038152906040529050806111e88360c001516103c6565b6040516020016111f9929190612d71565b6040516020818303038152906040529050919050565b61121b84333086611702565b6112667f0000000000000000000000000000000000000000000000000000000000000000848673ffffffffffffffffffffffffffffffffffffffff1661178b9092919063ffffffff16565b60007f000000000000000000000000000000000000000000000000000000000000000073ffffffffffffffffffffffffffffffffffffffff1663c5a5ebda86867f000000000000000000000000000000000000000000000000000000000000000086631e89672b896040518763ffffffff1660e01b81526004016112ef96959493929190612e4a565b602060405180830381600087803b15801561130957600080fd5b505af115801561131d573d6000803e3d6000fd5b505050506040513d601f19601f82011682018060405250810190611341919061285b565b905080600260006101000a81548167ffffffffffffffff021916908367ffffffffffffffff1602179055505050505050565b61137b611d2c565b611383611d7a565b600061139881856118ac90919063ffffffff16565b836000019060ff16908160ff16815250506001816113b6919061339f565b90506001836000015160ff1614806113d557506003836000015160ff16145b611414576040517f08c379a000000000000000000000000000000000000000000000000000000000815260040161140b90613020565b60405180910390fd5b611427818561191390919063ffffffff16565b83602001818152505060208161143d919061339f565b9050611452818561197a90919063ffffffff16565b836040018181525050602081611468919061339f565b905061147d81856119e190919063ffffffff16565b836060019061ffff16908161ffff168152505060028161149d919061339f565b90506114b2818561197a90919063ffffffff16565b8360800181815250506020816114c8919061339f565b90506114dd81856119e190919063ffffffff16565b8360a0019061ffff16908161ffff16815250506002816114fd919061339f565b9050611512818561191390919063ffffffff16565b8360c0018181525050602081611528919061339f565b90506115456115408286611a4890919063ffffffff16565b6103c6565b826000019067ffffffffffffffff16908167ffffffffffffffff1681525050600881611571919061339f565b9050611586818561197a90919063ffffffff16565b82602001818152505060208161159c919061339f565b90506115b181856118ac90919063ffffffff16565b60ff1660028111156115ec577f4e487b7100000000000000000000000000000000000000000000000000000000600052602160045260246000fd5b82604001906002811115611629577f4e487b7100000000000000000000000000000000000000000000000000000000600052602160045260246000fd5b90816002811115611663577f4e487b7100000000000000000000000000000000000000000000000000000000600052602160045260246000fd5b81525050600181611674919061339f565b905050915091565b6116fd8363a9059cbb60e01b848460405160240161169b929190612e21565b604051602081830303815290604052907bffffffffffffffffffffffffffffffffffffffffffffffffffffffff19166020820180517bffffffffffffffffffffffffffffffffffffffffffffffffffffffff8381831617835250505050611aaf565b505050565b611785846323b872dd60e01b85858560405160240161172393929190612dea565b604051602081830303815290604052907bffffffffffffffffffffffffffffffffffffffffffffffffffffffff19166020820180517bffffffffffffffffffffffffffffffffffffffffffffffffffffffff8381831617835250505050611aaf565b50505050565b6000818473ffffffffffffffffffffffffffffffffffffffff1663dd62ed3e30866040518363ffffffff1660e01b81526004016117c9929190612dc1565b60206040518083038186803b1580156117e157600080fd5b505afa1580156117f5573d6000803e3d6000fd5b505050506040513d601f19601f8201168201806040525081019061181991906127e0565b611823919061339f565b90506118a68463095ea7b360e01b8584604051602401611844929190612e21565b604051602081830303815290604052907bffffffffffffffffffffffffffffffffffffffffffffffffffffffff19166020820180517bffffffffffffffffffffffffffffffffffffffffffffffffffffffff8381831617835250505050611aaf565b50505050565b60006001826118bb919061339f565b835110156118fe576040517f08c379a00000000000000000000000000000000000000000000000000000000081526004016118f5906130e0565b60405180910390fd5b60008260018501015190508091505092915050565b6000602082611922919061339f565b83511015611965576040517f08c379a000000000000000000000000000000000000000000000000000000000815260040161195c90613060565b60405180910390fd5b60008260208501015190508091505092915050565b6000602082611989919061339f565b835110156119cc576040517f08c379a00000000000000000000000000000000000000000000000000000000081526004016119c390613080565b60405180910390fd5b60008260208501015190508091505092915050565b60006002826119f0919061339f565b83511015611a33576040517f08c379a0000000000000000000000000000000000000000000000000000000008152600401611a2a90612fc0565b60405180910390fd5b60008260028501015190508091505092915050565b6000600882611a57919061339f565b83511015611a9a576040517f08c379a0000000000000000000000000000000000000000000000000000000008152600401611a9190612fe0565b60405180910390fd5b60008260088501015190508091505092915050565b6000611b11826040518060400160405280602081526020017f5361666545524332303a206c6f772d6c6576656c2063616c6c206661696c65648152508573ffffffffffffffffffffffffffffffffffffffff16611b769092919063ffffffff16565b9050600081511115611b715780806020019051810190611b319190612612565b611b70576040517f08c379a0000000000000000000000000000000000000000000000000000000008152600401611b6790613100565b60405180910390fd5b5b505050565b6060611b858484600085611b8e565b90509392505050565b606082471015611bd3576040517f08c379a0000000000000000000000000000000000000000000000000000000008152600401611bca90613000565b60405180910390fd5b611bdc85611ca2565b611c1b576040517f08c379a0000000000000000000000000000000000000000000000000000000008152600401611c12906130c0565b60405180910390fd5b6000808673ffffffffffffffffffffffffffffffffffffffff168587604051611c449190612cbe565b60006040518083038185875af1925050503d8060008114611c81576040519150601f19603f3d011682016040523d82523d6000602084013e611c86565b606091505b5091509150611c96828286611cc5565b92505050949350505050565b6000808273ffffffffffffffffffffffffffffffffffffffff163b119050919050565b60608315611cd557829050611d25565b600083511115611ce85782518084602001fd5b816040517f08c379a0000000000000000000000000000000000000000000000000000000008152600401611d1c9190612f62565b60405180910390fd5b9392505050565b6040518060e00160405280600060ff1681526020016000815260200160008019168152602001600061ffff16815260200160008019168152602001600061ffff168152602001600081525090565b6040518060800160405280600067ffffffffffffffff1681526020016000801916815260200160006002811115611dda577f4e487b7100000000000000000000000000000000000000000000000000000000600052602160045260246000fd5b8152602001600073ffffffffffffffffffffffffffffffffffffffff1681525090565b6000611e10611e0b84613211565b6131ec565b90508083825260208201905082856020860282011115611e2f57600080fd5b60005b85811015611e5f5781611e458882612067565b845260208401935060208301925050600181019050611e32565b5050509392505050565b6000611e7c611e778461323d565b6131ec565b90508083825260208201905082856020860282011115611e9b57600080fd5b60005b85811015611ecb5781611eb1888261214e565b845260208401935060208301925050600181019050611e9e565b5050509392505050565b6000611ee8611ee384613269565b6131ec565b90508083825260208201905082856080860282011115611f0757600080fd5b60005b85811015611f375781611f1d88826121f6565b845260208401935060808301925050600181019050611f0a565b5050509392505050565b6000611f54611f4f84613295565b6131ec565b90508083825260208201905082856040860282011115611f7357600080fd5b60005b85811015611fa35781611f8988826123a2565b845260208401935060408301925050600181019050611f76565b5050509392505050565b6000611fc0611fbb846132c1565b6131ec565b905082815260208101848484011115611fd857600080fd5b611fe3848285613766565b509392505050565b6000611ffe611ff9846132c1565b6131ec565b90508281526020810184848401111561201657600080fd5b612021848285613775565b509392505050565b600061203c612037846132f2565b6131ec565b90508281526020810184848401111561205457600080fd5b61205f848285613775565b509392505050565b60008135905061207681613bc5565b92915050565b60008151905061208b81613bc5565b92915050565b600082601f8301126120a257600080fd5b81356120b2848260208601611dfd565b91505092915050565b600082601f8301126120cc57600080fd5b81356120dc848260208601611e69565b91505092915050565b600082601f8301126120f657600080fd5b8151612106848260208601611ed5565b91505092915050565b600082601f83011261212057600080fd5b8135612130848260208601611f41565b91505092915050565b60008151905061214881613bdc565b92915050565b60008135905061215d81613bf3565b92915050565b60008151905061217281613bf3565b92915050565b600082601f83011261218957600080fd5b8135612199848260208601611fad565b91505092915050565b600082601f8301126121b357600080fd5b81516121c3848260208601611feb565b91505092915050565b600082601f8301126121dd57600080fd5b81516121ed848260208601612029565b91505092915050565b60006080828403121561220857600080fd5b61221260806131ec565b9050600061222284828501612163565b600083015250602061223684828501612163565b602083015250604061224a84828501612496565b604083015250606061225e84828501612496565b60608301525092915050565b6000610160828403121561227d57600080fd5b6122886101606131ec565b9050600061229884828501612496565b60008301525060206122ac84828501612457565b60208301525060406122c084828501612457565b60408301525060606122d484828501612403565b60608301525060806122e884828501612163565b60808301525060a06122fc84828501612481565b60a08301525060c061231084828501612496565b60c08301525060e082015167ffffffffffffffff81111561233057600080fd5b61233c848285016121a2565b60e08301525061010061235184828501612457565b6101008301525061012082015167ffffffffffffffff81111561237357600080fd5b61237f848285016120e5565b6101208301525061014061239584828501612163565b6101408301525092915050565b6000604082840312156123b457600080fd5b6123be60406131ec565b905060006123ce8482850161214e565b60008301525060206123e2848285016123ee565b60208301525092915050565b6000813590506123fd81613c0a565b92915050565b60008151905061241281613c0a565b92915050565b60008135905061242781613c21565b92915050565b60008151905061243c81613c21565b92915050565b60008135905061245181613c38565b92915050565b60008151905061246681613c38565b92915050565b60008135905061247b81613c4f565b92915050565b60008151905061249081613c4f565b92915050565b6000815190506124a581613c66565b92915050565b6000602082840312156124bd57600080fd5b60006124cb8482850161207c565b91505092915050565b6000602082840312156124e657600080fd5b600082013567ffffffffffffffff81111561250057600080fd5b61250c84828501612091565b91505092915050565b60006020828403121561252757600080fd5b600082013567ffffffffffffffff81111561254157600080fd5b61254d848285016120bb565b91505092915050565b60006020828403121561256857600080fd5b600082013567ffffffffffffffff81111561258257600080fd5b61258e8482850161210f565b91505092915050565b600080600080608085870312156125ad57600080fd5b600085013567ffffffffffffffff8111156125c757600080fd5b6125d38782880161210f565b94505060206125e487828801612418565b93505060406125f58782880161246c565b92505060606126068782880161214e565b91505092959194509250565b60006020828403121561262457600080fd5b600061263284828501612139565b91505092915050565b60006020828403121561264d57600080fd5b600061265b8482850161214e565b91505092915050565b60006020828403121561267657600080fd5b600082013567ffffffffffffffff81111561269057600080fd5b61269c84828501612178565b91505092915050565b6000602082840312156126b757600080fd5b600082015167ffffffffffffffff8111156126d157600080fd5b6126dd848285016121a2565b91505092915050565b6000806000606084860312156126fb57600080fd5b600084015167ffffffffffffffff81111561271557600080fd5b6127218682870161226a565b935050602061273286828701612139565b925050604084015167ffffffffffffffff81111561274f57600080fd5b61275b868287016121cc565b9150509250925092565b60006040828403121561277757600080fd5b6000612785848285016123a2565b91505092915050565b6000602082840312156127a057600080fd5b60006127ae848285016123ee565b91505092915050565b6000602082840312156127c957600080fd5b60006127d784828501612403565b91505092915050565b6000602082840312156127f257600080fd5b60006128008482850161242d565b91505092915050565b60006020828403121561281b57600080fd5b600061282984828501612442565b91505092915050565b60006020828403121561284457600080fd5b60006128528482850161246c565b91505092915050565b60006020828403121561286d57600080fd5b600061287b84828501612481565b91505092915050565b60006020828403121561289657600080fd5b60006128a484828501612496565b91505092915050565b60006128b98383612941565b60208301905092915050565b6128ce81613632565b82525050565b60006128df82613333565b6128e98185613361565b93506128f483613323565b8060005b8381101561292557815161290c88826128ad565b975061291783613354565b9250506001810190506128f8565b5085935050505092915050565b61293b81613644565b82525050565b61294a81613650565b82525050565b61295981613650565b82525050565b61297061296b82613650565b613822565b82525050565b60006129818261333e565b61298b8185613372565b935061299b818560208601613775565b6129a481613901565b840191505092915050565b60006129ba8261333e565b6129c48185613383565b93506129d4818560208601613775565b80840191505092915050565b6129e9816136d6565b82525050565b6129f8816136fa565b82525050565b612a078161371e565b82525050565b612a1681613730565b82525050565b6000612a2782613349565b612a31818561338e565b9350612a41818560208601613775565b612a4a81613901565b840191505092915050565b6000612a62600e8361338e565b9150612a6d82613953565b602082019050919050565b6000612a8560148361338e565b9150612a908261397c565b602082019050919050565b6000612aa860148361338e565b9150612ab3826139a5565b602082019050919050565b6000612acb60268361338e565b9150612ad6826139ce565b604082019050919050565b6000612aee60108361338e565b9150612af982613a1d565b602082019050919050565b6000612b11601d8361338e565b9150612b1c82613a46565b602082019050919050565b6000612b3460158361338e565b9150612b3f82613a6f565b602082019050919050565b6000612b5760158361338e565b9150612b6282613a98565b602082019050919050565b6000612b7a60218361338e565b9150612b8582613ac1565b604082019050919050565b6000612b9d601d8361338e565b9150612ba882613b10565b602082019050919050565b6000612bc060138361338e565b9150612bcb82613b39565b602082019050919050565b6000612be3602a8361338e565b9150612bee82613b62565b604082019050919050565b612c028161366d565b82525050565b612c19612c148261366d565b61382c565b82525050565b612c288161369b565b82525050565b612c37816136a5565b82525050565b612c4e612c49826136a5565b61383e565b82525050565b612c5d81613742565b82525050565b612c6c816136b5565b82525050565b612c83612c7e826136b5565b613850565b82525050565b612c9281613754565b82525050565b612ca1816136c9565b82525050565b612cb8612cb3826136c9565b613862565b82525050565b6000612cca82846129af565b915081905092915050565b6000612ce182856129af565b9150612ced828461295f565b6020820191508190509392505050565b6000612d0982856129af565b9150612d1582846129af565b91508190509392505050565b6000612d2d82856129af565b9150612d398284612c08565b6002820191508190509392505050565b6000612d5582856129af565b9150612d618284612c3d565b6004820191508190509392505050565b6000612d7d82856129af565b9150612d898284612c72565b6008820191508190509392505050565b6000612da582856129af565b9150612db18284612ca7565b6001820191508190509392505050565b6000604082019050612dd660008301856128c5565b612de360208301846128c5565b9392505050565b6000606082019050612dff60008301866128c5565b612e0c60208301856128c5565b612e196040830184612c1f565b949350505050565b6000604082019050612e3660008301856128c5565b612e436020830184612c1f565b9392505050565b600060c082019050612e5f60008301896128c5565b612e6c6020830188612c1f565b612e796040830187612c89565b612e866060830186612950565b612e936080830185612a0d565b81810360a0830152612ea58184612976565b9050979650505050505050565b60006020820190508181036000830152612ecc81846128d4565b905092915050565b6000602082019050612ee96000830184612932565b92915050565b6000602082019050612f046000830184612950565b92915050565b60006020820190508181036000830152612f248184612976565b905092915050565b6000602082019050612f4160008301846129e0565b92915050565b6000602082019050612f5c60008301846129ef565b92915050565b60006020820190508181036000830152612f7c8184612a1c565b905092915050565b60006060820190508181036000830152612f9d81612a55565b9050612fac60208301856128c5565b612fb96040830184612c1f565b9392505050565b60006020820190508181036000830152612fd981612a78565b9050919050565b60006020820190508181036000830152612ff981612a9b565b9050919050565b6000602082019050818103600083015261301981612abe565b9050919050565b6000602082019050818103600083015261303981612ae1565b9050919050565b6000602082019050818103600083015261305981612b04565b9050919050565b6000602082019050818103600083015261307981612b27565b9050919050565b6000602082019050818103600083015261309981612b4a565b9050919050565b600060208201905081810360008301526130b981612b6d565b9050919050565b600060208201905081810360008301526130d981612b90565b9050919050565b600060208201905081810360008301526130f981612bb3565b9050919050565b6000602082019050818103600083015261311981612bd6565b9050919050565b60006020820190506131356000830184612bf9565b92915050565b60006040820190506131506000830185612bf9565b61315d6020830184612950565b9392505050565b60006020820190506131796000830184612c2e565b92915050565b60006020820190506131946000830184612c63565b92915050565b60006060820190506131af6000830186612c54565b6131bc60208301856129fe565b6131c960408301846128c5565b949350505050565b60006020820190506131e66000830184612c98565b92915050565b60006131f6613207565b905061320282826137a8565b919050565b6000604051905090565b600067ffffffffffffffff82111561322c5761322b6138d2565b5b602082029050602081019050919050565b600067ffffffffffffffff821115613258576132576138d2565b5b602082029050602081019050919050565b600067ffffffffffffffff821115613284576132836138d2565b5b602082029050602081019050919050565b600067ffffffffffffffff8211156132b0576132af6138d2565b5b602082029050602081019050919050565b600067ffffffffffffffff8211156132dc576132db6138d2565b5b6132e582613901565b9050602081019050919050565b600067ffffffffffffffff82111561330d5761330c6138d2565b5b61331682613901565b9050602081019050919050565b6000819050602082019050919050565b600081519050919050565b600081519050919050565b600081519050919050565b6000602082019050919050565b600082825260208201905092915050565b600082825260208201905092915050565b600081905092915050565b600082825260208201905092915050565b60006133aa8261369b565b91506133b58361369b565b9250827fffffffffffffffffffffffffffffffffffffffffffffffffffffffffffffffff038211156133ea576133e9613874565b5b828201905092915050565b6000613400826136b5565b915061340b836136b5565b92508267ffffffffffffffff0382111561342857613427613874565b5b828201905092915050565b6000808291508390505b600185111561347d5780860481111561345957613458613874565b5b60018516156134685780820291505b808102905061347685613946565b945061343d565b94509492505050565b60006134918261369b565b915061349c836136c9565b92506134c97fffffffffffffffffffffffffffffffffffffffffffffffffffffffffffffffff84846134d1565b905092915050565b6000826134e1576001905061359d565b816134ef576000905061359d565b8160018114613505576002811461350f5761353e565b600191505061359d565b60ff84111561352157613520613874565b5b8360020a91508482111561353857613537613874565b5b5061359d565b5060208310610133831016604e8410600b84101617156135735782820a90508381111561356e5761356d613874565b5b61359d565b6135808484846001613433565b9250905081840481111561359757613596613874565b5b81810290505b9392505050565b60006135af8261369b565b91506135ba8361369b565b9250817fffffffffffffffffffffffffffffffffffffffffffffffffffffffffffffffff04831182151516156135f3576135f2613874565b5b828202905092915050565b6000613609826136c9565b9150613614836136c9565b92508282101561362757613626613874565b5b828203905092915050565b600061363d8261367b565b9050919050565b60008115159050919050565b6000819050919050565b600081905061366882613bb1565b919050565b600061ffff82169050919050565b600073ffffffffffffffffffffffffffffffffffffffff82169050919050565b6000819050919050565b600063ffffffff82169050919050565b600067ffffffffffffffff82169050919050565b600060ff82169050919050565b60006136e1826136e8565b9050919050565b60006136f38261367b565b9050919050565b60006137058261370c565b9050919050565b60006137178261367b565b9050919050565b60006137298261365a565b9050919050565b600061373b826136a5565b9050919050565b600061374d826136b5565b9050919050565b600061375f826136c9565b9050919050565b82818337600083830152505050565b60005b83811015613793578082015181840152602081019050613778565b838111156137a2576000848401525b50505050565b6137b182613901565b810181811067ffffffffffffffff821117156137d0576137cf6138d2565b5b80604052505050565b60006137e48261369b565b91507fffffffffffffffffffffffffffffffffffffffffffffffffffffffffffffffff82141561381757613816613874565b5b600182019050919050565b6000819050919050565b60006138378261392c565b9050919050565b60006138498261391f565b9050919050565b600061385b82613912565b9050919050565b600061386d82613939565b9050919050565b7f4e487b7100000000000000000000000000000000000000000000000000000000600052601160045260246000fd5b7f4e487b7100000000000000000000000000000000000000000000000000000000600052602160045260246000fd5b7f4e487b7100000000000000000000000000000000000000000000000000000000600052604160045260246000fd5b6000601f19601f8301169050919050565b60008160c01b9050919050565b60008160e01b9050919050565b60008160f01b9050919050565b60008160f81b9050919050565b60008160011c9050919050565b7f73656e64696e6720746f6b656e73000000000000000000000000000000000000600082015250565b7f746f55696e7431365f6f75744f66426f756e6473000000000000000000000000600082015250565b7f746f55696e7436345f6f75744f66426f756e6473000000000000000000000000600082015250565b7f416464726573733a20696e73756666696369656e742062616c616e636520666f60008201527f722063616c6c0000000000000000000000000000000000000000000000000000602082015250565b7f696e76616c6964205472616e7366657200000000000000000000000000000000600082015250565b7f4475706c696361746520726564656d7074696f6e206465746563746564000000600082015250565b7f746f55696e743235365f6f75744f66426f756e64730000000000000000000000600082015250565b7f746f427974657333325f6f75744f66426f756e64730000000000000000000000600082015250565b7f6d65737361676520646f6573206e6f7420636f6d652066726f6d20736f6c616e60008201527f6100000000000000000000000000000000000000000000000000000000000000602082015250565b7f416464726573733a2063616c6c20746f206e6f6e2d636f6e7472616374000000600082015250565b7f746f55696e74385f6f75744f66426f756e647300000000000000000000000000600082015250565b7f5361666545524332303a204552433230206f7065726174696f6e20646964206e60008201527f6f74207375636365656400000000000000000000000000000000000000000000602082015250565b60038110613bc257613bc16138a3565b5b50565b613bce81613632565b8114613bd957600080fd5b50565b613be581613644565b8114613bf057600080fd5b50565b613bfc81613650565b8114613c0757600080fd5b50565b613c138161366d565b8114613c1e57600080fd5b50565b613c2a8161369b565b8114613c3557600080fd5b50565b613c41816136a5565b8114613c4c57600080fd5b50565b613c58816136b5565b8114613c6357600080fd5b50565b613c6f816136c9565b8114613c7a57600080fd5b5056fea26469706673582212209d841e28581d151bfccb7da50eadc646a92ecacac509d45484389fbd1821a38564736f6c63430008040033",
    "linkReferences": {},
    "deployedLinkReferences": {}
}