{
  "abi": [
    {
      "inputs": [],
      "name": "chainId",
      "outputs": [
        {
          "internalType": "uint16",
          "name": "",
          "type": "uint16"
        }
      ],
      "stateMutability": "view",
      "type": "function"
    },
    {
      "inputs": [],
      "name": "evmChainId",
      "outputs": [
        {
          "internalType": "uint256",
          "name": "",
          "type": "uint256"
        }
      ],
      "stateMutability": "view",
      "type": "function"
    },
    {
      "inputs": [],
      "name": "getCurrentGuardianSetIndex",
      "outputs": [
        {
          "internalType": "uint32",
          "name": "",
          "type": "uint32"
        }
      ],
      "stateMutability": "view",
      "type": "function"
    },
    {
      "inputs": [
        {
          "internalType": "uint32",
          "name": "index",
          "type": "uint32"
        }
      ],
      "name": "getGuardianSet",
      "outputs": [
        {
          "components": [
            {
              "internalType": "address[]",
              "name": "keys",
              "type": "address[]"
            },
            {
              "internalType": "uint32",
              "name": "expirationTime",
              "type": "uint32"
            }
          ],
          "internalType": "struct Structs.GuardianSet",
          "name": "",
          "type": "tuple"
        }
      ],
      "stateMutability": "view",
      "type": "function"
    },
    {
      "inputs": [],
      "name": "getGuardianSetExpiry",
      "outputs": [
        {
          "internalType": "uint32",
          "name": "",
          "type": "uint32"
        }
      ],
      "stateMutability": "view",
      "type": "function"
    },
    {
      "inputs": [
        {
          "internalType": "bytes32",
          "name": "hash",
          "type": "bytes32"
        }
      ],
      "name": "governanceActionIsConsumed",
      "outputs": [
        {
          "internalType": "bool",
          "name": "",
          "type": "bool"
        }
      ],
      "stateMutability": "view",
      "type": "function"
    },
    {
      "inputs": [],
      "name": "governanceChainId",
      "outputs": [
        {
          "internalType": "uint16",
          "name": "",
          "type": "uint16"
        }
      ],
      "stateMutability": "view",
      "type": "function"
    },
    {
      "inputs": [],
      "name": "governanceContract",
      "outputs": [
        {
          "internalType": "bytes32",
          "name": "",
          "type": "bytes32"
        }
      ],
      "stateMutability": "view",
      "type": "function"
    },
    {
      "inputs": [],
      "name": "isFork",
      "outputs": [
        {
          "internalType": "bool",
          "name": "",
          "type": "bool"
        }
      ],
      "stateMutability": "view",
      "type": "function"
    },
    {
      "inputs": [
        {
          "internalType": "address",
          "name": "impl",
          "type": "address"
        }
      ],
      "name": "isInitialized",
      "outputs": [
        {
          "internalType": "bool",
          "name": "",
          "type": "bool"
        }
      ],
      "stateMutability": "view",
      "type": "function"
    },
    {
      "inputs": [],
      "name": "messageFee",
      "outputs": [
        {
          "internalType": "uint256",
          "name": "",
          "type": "uint256"
        }
      ],
      "stateMutability": "view",
      "type": "function"
    },
    {
      "inputs": [
        {
          "internalType": "address",
          "name": "emitter",
          "type": "address"
        }
      ],
      "name": "nextSequence",
      "outputs": [
        {
          "internalType": "uint64",
          "name": "",
          "type": "uint64"
        }
      ],
      "stateMutability": "view",
      "type": "function"
    },
    {
      "inputs": [
        {
          "internalType": "bytes",
          "name": "encodedVM",
          "type": "bytes"
        }
      ],
      "name": "parseAndVerifyVM",
      "outputs": [
        {
          "components": [
            {
              "internalType": "uint8",
              "name": "version",
              "type": "uint8"
            },
            {
              "internalType": "uint32",
              "name": "timestamp",
              "type": "uint32"
            },
            {
              "internalType": "uint32",
              "name": "nonce",
              "type": "uint32"
            },
            {
              "internalType": "uint16",
              "name": "emitterChainId",
              "type": "uint16"
            },
            {
              "internalType": "bytes32",
              "name": "emitterAddress",
              "type": "bytes32"
            },
            {
              "internalType": "uint64",
              "name": "sequence",
              "type": "uint64"
            },
            {
              "internalType": "uint8",
              "name": "consistencyLevel",
              "type": "uint8"
            },
            {
              "internalType": "bytes",
              "name": "payload",
              "type": "bytes"
            },
            {
              "internalType": "uint32",
              "name": "guardianSetIndex",
              "type": "uint32"
            },
            {
              "components": [
                {
                  "internalType": "bytes32",
                  "name": "r",
                  "type": "bytes32"
                },
                {
                  "internalType": "bytes32",
                  "name": "s",
                  "type": "bytes32"
                },
                {
                  "internalType": "uint8",
                  "name": "v",
                  "type": "uint8"
                },
                {
                  "internalType": "uint8",
                  "name": "guardianIndex",
                  "type": "uint8"
                }
              ],
              "internalType": "struct Structs.Signature[]",
              "name": "signatures",
              "type": "tuple[]"
            },
            {
              "internalType": "bytes32",
              "name": "hash",
              "type": "bytes32"
            }
          ],
          "internalType": "struct Structs.VM",
          "name": "vm",
          "type": "tuple"
        },
        {
          "internalType": "bool",
          "name": "valid",
          "type": "bool"
        },
        {
          "internalType": "string",
          "name": "reason",
          "type": "string"
        }
      ],
      "stateMutability": "view",
      "type": "function"
    },
    {
      "inputs": [
        {
          "internalType": "bytes",
          "name": "encodedVM",
          "type": "bytes"
        }
      ],
      "name": "parseVM",
      "outputs": [
        {
          "components": [
            {
              "internalType": "uint8",
              "name": "version",
              "type": "uint8"
            },
            {
              "internalType": "uint32",
              "name": "timestamp",
              "type": "uint32"
            },
            {
              "internalType": "uint32",
              "name": "nonce",
              "type": "uint32"
            },
            {
              "internalType": "uint16",
              "name": "emitterChainId",
              "type": "uint16"
            },
            {
              "internalType": "bytes32",
              "name": "emitterAddress",
              "type": "bytes32"
            },
            {
              "internalType": "uint64",
              "name": "sequence",
              "type": "uint64"
            },
            {
              "internalType": "uint8",
              "name": "consistencyLevel",
              "type": "uint8"
            },
            {
              "internalType": "bytes",
              "name": "payload",
              "type": "bytes"
            },
            {
              "internalType": "uint32",
              "name": "guardianSetIndex",
              "type": "uint32"
            },
            {
              "components": [
                {
                  "internalType": "bytes32",
                  "name": "r",
                  "type": "bytes32"
                },
                {
                  "internalType": "bytes32",
                  "name": "s",
                  "type": "bytes32"
                },
                {
                  "internalType": "uint8",
                  "name": "v",
                  "type": "uint8"
                },
                {
                  "internalType": "uint8",
                  "name": "guardianIndex",
                  "type": "uint8"
                }
              ],
              "internalType": "struct Structs.Signature[]",
              "name": "signatures",
              "type": "tuple[]"
            },
            {
              "internalType": "bytes32",
              "name": "hash",
              "type": "bytes32"
            }
          ],
          "internalType": "struct Structs.VM",
          "name": "vm",
          "type": "tuple"
        }
      ],
      "stateMutability": "pure",
      "type": "function"
    },
    {
      "inputs": [
        {
          "internalType": "uint256",
          "name": "numGuardians",
          "type": "uint256"
        }
      ],
      "name": "quorum",
      "outputs": [
        {
          "internalType": "uint256",
          "name": "numSignaturesRequiredForQuorum",
          "type": "uint256"
        }
      ],
      "stateMutability": "pure",
      "type": "function"
    },
    {
      "inputs": [
        {
          "internalType": "bytes32",
          "name": "hash",
          "type": "bytes32"
        },
        {
          "components": [
            {
              "internalType": "bytes32",
              "name": "r",
              "type": "bytes32"
            },
            {
              "internalType": "bytes32",
              "name": "s",
              "type": "bytes32"
            },
            {
              "internalType": "uint8",
              "name": "v",
              "type": "uint8"
            },
            {
              "internalType": "uint8",
              "name": "guardianIndex",
              "type": "uint8"
            }
          ],
          "internalType": "struct Structs.Signature[]",
          "name": "signatures",
          "type": "tuple[]"
        },
        {
          "components": [
            {
              "internalType": "address[]",
              "name": "keys",
              "type": "address[]"
            },
            {
              "internalType": "uint32",
              "name": "expirationTime",
              "type": "uint32"
            }
          ],
          "internalType": "struct Structs.GuardianSet",
          "name": "guardianSet",
          "type": "tuple"
        }
      ],
      "name": "verifySignatures",
      "outputs": [
        {
          "internalType": "bool",
          "name": "valid",
          "type": "bool"
        },
        {
          "internalType": "string",
          "name": "reason",
          "type": "string"
        }
      ],
      "stateMutability": "pure",
      "type": "function"
    },
    {
      "inputs": [
        {
          "components": [
            {
              "internalType": "uint8",
              "name": "version",
              "type": "uint8"
            },
            {
              "internalType": "uint32",
              "name": "timestamp",
              "type": "uint32"
            },
            {
              "internalType": "uint32",
              "name": "nonce",
              "type": "uint32"
            },
            {
              "internalType": "uint16",
              "name": "emitterChainId",
              "type": "uint16"
            },
            {
              "internalType": "bytes32",
              "name": "emitterAddress",
              "type": "bytes32"
            },
            {
              "internalType": "uint64",
              "name": "sequence",
              "type": "uint64"
            },
            {
              "internalType": "uint8",
              "name": "consistencyLevel",
              "type": "uint8"
            },
            {
              "internalType": "bytes",
              "name": "payload",
              "type": "bytes"
            },
            {
              "internalType": "uint32",
              "name": "guardianSetIndex",
              "type": "uint32"
            },
            {
              "components": [
                {
                  "internalType": "bytes32",
                  "name": "r",
                  "type": "bytes32"
                },
                {
                  "internalType": "bytes32",
                  "name": "s",
                  "type": "bytes32"
                },
                {
                  "internalType": "uint8",
                  "name": "v",
                  "type": "uint8"
                },
                {
                  "internalType": "uint8",
                  "name": "guardianIndex",
                  "type": "uint8"
                }
              ],
              "internalType": "struct Structs.Signature[]",
              "name": "signatures",
              "type": "tuple[]"
            },
            {
              "internalType": "bytes32",
              "name": "hash",
              "type": "bytes32"
            }
          ],
          "internalType": "struct Structs.VM",
          "name": "vm",
          "type": "tuple"
        }
      ],
      "name": "verifyVM",
      "outputs": [
        {
          "internalType": "bool",
          "name": "valid",
          "type": "bool"
        },
        {
          "internalType": "string",
          "name": "reason",
          "type": "string"
        }
      ],
      "stateMutability": "view",
      "type": "function"
    }
  ],
  "bytecode": {
    "object": "0x608060405234801561001057600080fd5b50611994806100206000396000f3fe608060405234801561001057600080fd5b506004361061010b5760003560e01c8063a9e11893116100a2578063e039f22411610071578063e039f22414610290578063eb8d3f1214610298578063f8ce560a146102ae578063f951975a146102c1578063fbe3c2cd146102e157600080fd5b8063a9e118931461021a578063b172b2221461023a578063c0fd8bde14610242578063d60b347f1461026457600080fd5b806364d42b17116100de57806364d42b17146101c3578063875be02a146101cb5780639a8a0592146101ec578063a0cce1b31461020757600080fd5b80631a90a219146101105780631cfe7951146101275780632c3c02a4146101465780634cf842b514610179575b600080fd5b6007545b6040519081526020015b60405180910390f35b60035463ffffffff165b60405163ffffffff909116815260200161011e565b610169610154366004611017565b60009081526005602052604090205460ff1690565b604051901515815260200161011e565b6101ab61018736600461104c565b6001600160a01b03166000908152600460205260409020546001600160401b031690565b6040516001600160401b03909116815260200161011e565b600854610114565b6101de6101d93660046112b2565b6102f3565b60405161011e929190611426565b60005461ffff165b60405161ffff909116815260200161011e565b6101de610215366004611449565b61030c565b61022d610228366004611551565b61058c565b60405161011e91906116d9565b600154610114565b6102556102503660046116ec565b610924565b60405161011e9392919061175d565b61016961027236600461104c565b6001600160a01b031660009081526006602052604090205460ff1690565b610169610988565b600354640100000000900463ffffffff16610131565b6101146102bc366004611017565b61099b565b6102d46102cf366004611794565b610a0b565b60405161011e91906117af565b60005462010000900461ffff166101f4565b60006060610302836001610aaa565b9094909350915050565b8051516000906060908290815b865181101561056a5760008782815181106103365761033661181a565b60200260200101519050600060018a8360400151846000015185602001516040516000815260200160405260405161038a949392919093845260ff9290921660208401526040830152606082015260800190565b6020604051602081039080840390855afa1580156103ac573d6000803e3d6000fd5b5050604051601f1901519150506001600160a01b0381166104145760405162461bcd60e51b815260206004820152601f60248201527f65637265636f766572206661696c65642077697468207369676e61747572650060448201526064015b60405180910390fd5b82158061042a57508460ff16826060015160ff16115b6104825760405162461bcd60e51b815260206004820152602360248201527f7369676e617475726520696e6469636573206d75737420626520617363656e64604482015262696e6760e81b606482015260840161040b565b6060820151945060ff851684116104db5760405162461bcd60e51b815260206004820152601c60248201527f677561726469616e20696e646578206f7574206f6620626f756e647300000000604482015260640161040b565b8760000151826060015160ff16815181106104f8576104f861181a565b60200260200101516001600160a01b0316816001600160a01b031614610555576000604051806040016040528060148152602001731593481cda59db985d1d5c99481a5b9d985b1a5960621b815250965096505050505050610584565b5050808061056290611846565b915050610319565b506001604051806020016040528060008152509350935050505b935093915050565b610594610fbc565b60006105a08382610cde565b60ff1682526105b060018261185f565b9050816000015160ff166001146106095760405162461bcd60e51b815260206004820152601760248201527f564d2076657273696f6e20696e636f6d70617469626c65000000000000000000604482015260640161040b565b6106138382610d3a565b63ffffffff1661010083015261062a60048261185f565b905060006106388483610cde565b60ff16905061064860018361185f565b9150806001600160401b038111156106625761066261106e565b6040519080825280602002602001820160405280156106b457816020015b6040805160808101825260008082526020808301829052928201819052606082015282526000199092019101816106805790505b5061012084015260005b818110156107eb576106d08584610cde565b84610120015182815181106106e7576106e761181a565b602090810291909101015160ff90911660609091015261070860018461185f565b92506107148584610d97565b846101200151828151811061072b5761072b61181a565b60200260200101516000018181525050602083610748919061185f565b92506107548584610d97565b846101200151828151811061076b5761076b61181a565b60200260200101516020018181525050602083610788919061185f565b92506107948584610cde565b61079f90601b611872565b84610120015182815181106107b6576107b661181a565b602090810291909101015160ff9091166040909101526107d760018461185f565b9250806107e381611846565b9150506106be565b506000610807838487516107ff919061188b565b879190610df5565b9050808051906020012060405160200161082391815260200190565b60408051601f19818403018152919052805160209091012061014085015261084b8584610d3a565b63ffffffff16602085015261086160048461185f565b925061086d8584610d3a565b63ffffffff16604085015261088360048461185f565b925061088f8584610f02565b61ffff1660608501526108a360028461185f565b92506108af8584610d97565b60808501526108bf60208461185f565b92506108cb8584610f5f565b6001600160401b031660a08501526108e460088461185f565b92506108f08584610cde565b60ff1660c085015261090360018461185f565b9250610916838487516107ff919061188b565b60e085015250919392505050565b61092c610fbc565b6000606061096f85858080601f01602080910402602001604051908101604052809392919081815260200183838082843760009201919091525061058c92505050565b925061097c836000610aaa565b93969095509293505050565b60004661099460085490565b1415905090565b600061010082106109e35760405162461bcd60e51b8152602060048201526012602482015271746f6f206d616e7920677561726469616e7360701b604482015260640161040b565b60036109f083600261189e565b6109fa91906118b5565b610a0590600161185f565b92915050565b60408051808201825260608082526000602080840182905263ffffffff86168252600281529084902084518154928302810184018652948501828152939493909284928491840182828015610a8957602002820191906000526020600020905b81546001600160a01b03168152600190910190602001808311610a6b575b50505091835250506001919091015463ffffffff1660209091015292915050565b600060606000610abe856101000151610a0b565b90508315610b9457602080860151604080880151606089015160808a015160a08b015160c08c015160e08d01519551600098610afc989791016118d7565b604051602081830303815290604052905060008180519060200120604051602001610b2991815260200190565b6040516020818303038152906040528051906020012090508661014001518114610b915760006040518060400160405280601a81526020017f766d2e6861736820646f65736e2774206d6174636820626f647900000000000081525094509450505050610cd7565b50505b805151600003610bd45750506040805180820190915260148152731a5b9d985b1a590819dd585c991a585b881cd95d60621b602082015260009150610cd7565b60035463ffffffff1663ffffffff1685610100015163ffffffff1614158015610c06575042816020015163ffffffff16105b15610c4a57505060408051808201909152601881527f677561726469616e207365742068617320657870697265640000000000000000602082015260009150610cd7565b805151610c569061099b565b856101200151511015610c8e5750506040805180820190915260098152686e6f2071756f72756d60b81b602082015260009150610cd7565b600080610ca68761014001518861012001518561030c565b9150915081610cbd57600094509250610cd7915050565b600160405180602001604052806000815250945094505050505b9250929050565b6000610ceb82600161185f565b83511015610d315760405162461bcd60e51b8152602060048201526013602482015272746f55696e74385f6f75744f66426f756e647360681b604482015260640161040b565b50016001015190565b6000610d4782600461185f565b83511015610d8e5760405162461bcd60e51b8152602060048201526014602482015273746f55696e7433325f6f75744f66426f756e647360601b604482015260640161040b565b50016004015190565b6000610da482602061185f565b83511015610dec5760405162461bcd60e51b8152602060048201526015602482015274746f427974657333325f6f75744f66426f756e647360581b604482015260640161040b565b50016020015190565b606081610e0381601f61185f565b1015610e425760405162461bcd60e51b815260206004820152600e60248201526d736c6963655f6f766572666c6f7760901b604482015260640161040b565b610e4c828461185f565b84511015610e905760405162461bcd60e51b8152602060048201526011602482015270736c6963655f6f75744f66426f756e647360781b604482015260640161040b565b606082158015610eaf5760405191506000825260208201604052610ef9565b6040519150601f8416801560200281840101858101878315602002848b0101015b81831015610ee8578051835260209283019201610ed0565b5050858452601f01601f1916604052505b50949350505050565b6000610f0f82600261185f565b83511015610f565760405162461bcd60e51b8152602060048201526014602482015273746f55696e7431365f6f75744f66426f756e647360601b604482015260640161040b565b50016002015190565b6000610f6c82600861185f565b83511015610fb35760405162461bcd60e51b8152602060048201526014602482015273746f55696e7436345f6f75744f66426f756e647360601b604482015260640161040b565b50016008015190565b604080516101608101825260008082526020820181905291810182905260608082018390526080820183905260a0820183905260c0820183905260e08201819052610100820183905261012082015261014081019190915290565b60006020828403121561102957600080fd5b5035919050565b80356001600160a01b038116811461104757600080fd5b919050565b60006020828403121561105e57600080fd5b61106782611030565b9392505050565b634e487b7160e01b600052604160045260246000fd5b604051608081016001600160401b03811182821017156110a6576110a661106e565b60405290565b60405161016081016001600160401b03811182821017156110a6576110a661106e565b604080519081016001600160401b03811182821017156110a6576110a661106e565b604051601f8201601f191681016001600160401b03811182821017156111195761111961106e565b604052919050565b803560ff8116811461104757600080fd5b803563ffffffff8116811461104757600080fd5b803561ffff8116811461104757600080fd5b80356001600160401b038116811461104757600080fd5b600082601f83011261118057600080fd5b81356001600160401b038111156111995761119961106e565b6111ac601f8201601f19166020016110f1565b8181528460208386010111156111c157600080fd5b816020850160208301376000918101602001919091529392505050565b60006001600160401b038211156111f7576111f761106e565b5060051b60200190565b600082601f83011261121257600080fd5b81356020611227611222836111de565b6110f1565b82815260079290921b8401810191818101908684111561124657600080fd5b8286015b848110156112a757608081890312156112635760008081fd5b61126b611084565b8135815284820135858201526040611284818401611121565b908201526060611295838201611121565b9082015283529183019160800161124a565b509695505050505050565b6000602082840312156112c457600080fd5b81356001600160401b03808211156112db57600080fd5b9083019061016082860312156112f057600080fd5b6112f86110ac565b61130183611121565b815261130f60208401611132565b602082015261132060408401611132565b604082015261133160608401611146565b60608201526080830135608082015261134c60a08401611158565b60a082015261135d60c08401611121565b60c082015260e08301358281111561137457600080fd5b6113808782860161116f565b60e083015250610100611394818501611132565b9082015261012083810135838111156113ac57600080fd5b6113b888828701611201565b91830191909152506101409283013592810192909252509392505050565b60005b838110156113f15781810151838201526020016113d9565b50506000910152565b600081518084526114128160208601602086016113d6565b601f01601f19169290920160200192915050565b821515815260406020820152600061144160408301846113fa565b949350505050565b60008060006060848603121561145e57600080fd5b833592506020808501356001600160401b038082111561147d57600080fd5b61148988838901611201565b9450604087013591508082111561149f57600080fd5b90860190604082890312156114b357600080fd5b6114bb6110cf565b8235828111156114ca57600080fd5b83019150601f820189136114dd57600080fd5b81356114eb611222826111de565b81815260059190911b8301850190858101908b83111561150a57600080fd5b938601935b8285101561152f5761152085611030565b8252938601939086019061150f565b83525061153f9050838501611132565b84820152809450505050509250925092565b60006020828403121561156357600080fd5b81356001600160401b0381111561157957600080fd5b6114418482850161116f565b600081518084526020808501945080840160005b838110156115de57815180518852838101518489015260408082015160ff908116918a0191909152606091820151169088015260809096019590820190600101611599565b509495945050505050565b805160ff1682526000610160602083015161160c602086018263ffffffff169052565b506040830151611624604086018263ffffffff169052565b50606083015161163a606086018261ffff169052565b506080830151608085015260a083015161165f60a08601826001600160401b03169052565b5060c083015161167460c086018260ff169052565b5060e08301518160e086015261168c828601826113fa565b915050610100808401516116a78287018263ffffffff169052565b505061012080840151858303828701526116c18382611585565b61014095860151969095019590955250919392505050565b60208152600061106760208301846115e9565b600080602083850312156116ff57600080fd5b82356001600160401b038082111561171657600080fd5b818501915085601f83011261172a57600080fd5b81358181111561173957600080fd5b86602082850101111561174b57600080fd5b60209290920196919550909350505050565b60608152600061177060608301866115e9565b8415156020840152828103604084015261178a81856113fa565b9695505050505050565b6000602082840312156117a657600080fd5b61106782611132565b6020808252825160408383015280516060840181905260009291820190839060808601905b808310156117fd5783516001600160a01b031682529284019260019290920191908401906117d4565b5063ffffffff848801511660408701528094505050505092915050565b634e487b7160e01b600052603260045260246000fd5b634e487b7160e01b600052601160045260246000fd5b60006001820161185857611858611830565b5060010190565b80820180821115610a0557610a05611830565b60ff8181168382160190811115610a0557610a05611830565b81810381811115610a0557610a05611830565b8082028115828204841417610a0557610a05611830565b6000826118d257634e487b7160e01b600052601260045260246000fd5b500490565b6001600160e01b031960e089811b8216835288901b1660048201526001600160f01b031960f087901b166008820152600a81018590526001600160c01b031960c085901b16602a8201526001600160f81b031960f884901b166032820152815160009061194b8160338501602087016113d6565b919091016033019897505050505050505056fea264697066735822122087839beb861c02d174b60e06b1f1a3bd333091d021ba903dce683d09b17d7d2164736f6c63430008130033",
    "linkReferences": {}
  },
  "methodIdentifiers": {
    "chainId()": "9a8a0592",
    "evmChainId()": "64d42b17",
    "getCurrentGuardianSetIndex()": "1cfe7951",
    "getGuardianSet(uint32)": "f951975a",
    "getGuardianSetExpiry()": "eb8d3f12",
    "governanceActionIsConsumed(bytes32)": "2c3c02a4",
    "governanceChainId()": "fbe3c2cd",
    "governanceContract()": "b172b222",
    "isFork()": "e039f224",
    "isInitialized(address)": "d60b347f",
    "messageFee()": "1a90a219",
    "nextSequence(address)": "4cf842b5",
    "parseAndVerifyVM(bytes)": "c0fd8bde",
    "parseVM(bytes)": "a9e11893",
    "quorum(uint256)": "f8ce560a",
    "verifySignatures(bytes32,(bytes32,bytes32,uint8,uint8)[],(address[],uint32))": "a0cce1b3",
    "verifyVM((uint8,uint32,uint32,uint16,bytes32,uint64,uint8,bytes,uint32,(bytes32,bytes32,uint8,uint8)[],bytes32))": "875be02a"
  },
  "id": 4
}