{
  "abi": [
    {
      "anonymous": false,
      "inputs": [
        {
          "indexed": false,
          "internalType": "address",
          "name": "previousAdmin",
          "type": "address"
        },
        {
          "indexed": false,
          "internalType": "address",
          "name": "newAdmin",
          "type": "address"
        }
      ],
      "name": "AdminChanged",
      "type": "event"
    },
    {
      "anonymous": false,
      "inputs": [
        {
          "indexed": true,
          "internalType": "address",
          "name": "beacon",
          "type": "address"
        }
      ],
      "name": "BeaconUpgraded",
      "type": "event"
    },
    {
      "anonymous": false,
      "inputs": [
        {
          "indexed": true,
          "internalType": "address",
          "name": "oldContract",
          "type": "address"
        },
        {
          "indexed": true,
          "internalType": "address",
          "name": "newContract",
          "type": "address"
        }
      ],
      "name": "ContractUpgraded",
      "type": "event"
    },
    {
      "anonymous": false,
      "inputs": [
        {
          "indexed": true,
          "internalType": "address",
          "name": "implementation",
          "type": "address"
        }
      ],
      "name": "Upgraded",
      "type": "event"
    },
    {
      "inputs": [
        {
          "internalType": "uint16",
          "name": "chainId_",
          "type": "uint16"
        }
      ],
      "name": "bridgeContracts",
      "outputs": [
        {
          "internalType": "bytes32",
          "name": "",
          "type": "bytes32"
        }
      ],
      "stateMutability": "view",
      "type": "function"
    },
    {
      "inputs": [],
      "name": "chainId",
      "outputs": [
        {
          "internalType": "uint16",
          "name": "",
          "type": "uint16"
        }
      ],
      "stateMutability": "view",
      "type": "function"
    },
    {
      "inputs": [
        {
          "internalType": "bytes",
          "name": "encodedVm",
          "type": "bytes"
        }
      ],
      "name": "completeTransfer",
      "outputs": [],
      "stateMutability": "nonpayable",
      "type": "function"
    },
    {
      "inputs": [
        {
          "components": [
            {
              "internalType": "bytes32",
              "name": "tokenAddress",
              "type": "bytes32"
            },
            {
              "internalType": "uint16",
              "name": "tokenChain",
              "type": "uint16"
            },
            {
              "internalType": "bytes32",
              "name": "symbol",
              "type": "bytes32"
            },
            {
              "internalType": "bytes32",
              "name": "name",
              "type": "bytes32"
            },
            {
              "internalType": "uint256",
              "name": "tokenID",
              "type": "uint256"
            },
            {
              "internalType": "string",
              "name": "uri",
              "type": "string"
            },
            {
              "internalType": "bytes32",
              "name": "to",
              "type": "bytes32"
            },
            {
              "internalType": "uint16",
              "name": "toChain",
              "type": "uint16"
            }
          ],
          "internalType": "struct NFTBridgeStructs.Transfer",
          "name": "transfer",
          "type": "tuple"
        }
      ],
      "name": "encodeTransfer",
      "outputs": [
        {
          "internalType": "bytes",
          "name": "encoded",
          "type": "bytes"
        }
      ],
      "stateMutability": "pure",
      "type": "function"
    },
    {
      "inputs": [],
      "name": "evmChainId",
      "outputs": [
        {
          "internalType": "uint256",
          "name": "",
          "type": "uint256"
        }
      ],
      "stateMutability": "view",
      "type": "function"
    },
    {
      "inputs": [],
      "name": "finality",
      "outputs": [
        {
          "internalType": "uint8",
          "name": "",
          "type": "uint8"
        }
      ],
      "stateMutability": "view",
      "type": "function"
    },
    {
      "inputs": [
        {
          "internalType": "bytes32",
          "name": "hash",
          "type": "bytes32"
        }
      ],
      "name": "governanceActionIsConsumed",
      "outputs": [
        {
          "internalType": "bool",
          "name": "",
          "type": "bool"
        }
      ],
      "stateMutability": "view",
      "type": "function"
    },
    {
      "inputs": [],
      "name": "governanceChainId",
      "outputs": [
        {
          "internalType": "uint16",
          "name": "",
          "type": "uint16"
        }
      ],
      "stateMutability": "view",
      "type": "function"
    },
    {
      "inputs": [],
      "name": "governanceContract",
      "outputs": [
        {
          "internalType": "bytes32",
          "name": "",
          "type": "bytes32"
        }
      ],
      "stateMutability": "view",
      "type": "function"
    },
    {
      "inputs": [],
      "name": "isFork",
      "outputs": [
        {
          "internalType": "bool",
          "name": "",
          "type": "bool"
        }
      ],
      "stateMutability": "view",
      "type": "function"
    },
    {
      "inputs": [
        {
          "internalType": "address",
          "name": "impl",
          "type": "address"
        }
      ],
      "name": "isInitialized",
      "outputs": [
        {
          "internalType": "bool",
          "name": "",
          "type": "bool"
        }
      ],
      "stateMutability": "view",
      "type": "function"
    },
    {
      "inputs": [
        {
          "internalType": "bytes32",
          "name": "hash",
          "type": "bytes32"
        }
      ],
      "name": "isTransferCompleted",
      "outputs": [
        {
          "internalType": "bool",
          "name": "",
          "type": "bool"
        }
      ],
      "stateMutability": "view",
      "type": "function"
    },
    {
      "inputs": [
        {
          "internalType": "address",
          "name": "token",
          "type": "address"
        }
      ],
      "name": "isWrappedAsset",
      "outputs": [
        {
          "internalType": "bool",
          "name": "",
          "type": "bool"
        }
      ],
      "stateMutability": "view",
      "type": "function"
    },
    {
      "inputs": [
        {
          "internalType": "address",
          "name": "operator",
          "type": "address"
        },
        {
          "internalType": "address",
          "name": "",
          "type": "address"
        },
        {
          "internalType": "uint256",
          "name": "",
          "type": "uint256"
        },
        {
          "internalType": "bytes",
          "name": "",
          "type": "bytes"
        }
      ],
      "name": "onERC721Received",
      "outputs": [
        {
          "internalType": "bytes4",
          "name": "",
          "type": "bytes4"
        }
      ],
      "stateMutability": "view",
      "type": "function"
    },
    {
      "inputs": [
        {
          "internalType": "bytes",
          "name": "encodedRecoverChainId",
          "type": "bytes"
        }
      ],
      "name": "parseRecoverChainId",
      "outputs": [
        {
          "components": [
            {
              "internalType": "bytes32",
              "name": "module",
              "type": "bytes32"
            },
            {
              "internalType": "uint8",
              "name": "action",
              "type": "uint8"
            },
            {
              "internalType": "uint256",
              "name": "evmChainId",
              "type": "uint256"
            },
            {
              "internalType": "uint16",
              "name": "newChainId",
              "type": "uint16"
            }
          ],
          "internalType": "struct NFTBridgeStructs.RecoverChainId",
          "name": "rci",
          "type": "tuple"
        }
      ],
      "stateMutability": "pure",
      "type": "function"
    },
    {
      "inputs": [
        {
          "internalType": "bytes",
          "name": "encoded",
          "type": "bytes"
        }
      ],
      "name": "parseRegisterChain",
      "outputs": [
        {
          "components": [
            {
              "internalType": "bytes32",
              "name": "module",
              "type": "bytes32"
            },
            {
              "internalType": "uint8",
              "name": "action",
              "type": "uint8"
            },
            {
              "internalType": "uint16",
              "name": "chainId",
              "type": "uint16"
            },
            {
              "internalType": "uint16",
              "name": "emitterChainID",
              "type": "uint16"
            },
            {
              "internalType": "bytes32",
              "name": "emitterAddress",
              "type": "bytes32"
            }
          ],
          "internalType": "struct NFTBridgeStructs.RegisterChain",
          "name": "chain",
          "type": "tuple"
        }
      ],
      "stateMutability": "pure",
      "type": "function"
    },
    {
      "inputs": [
        {
          "internalType": "bytes",
          "name": "encoded",
          "type": "bytes"
        }
      ],
      "name": "parseTransfer",
      "outputs": [
        {
          "components": [
            {
              "internalType": "bytes32",
              "name": "tokenAddress",
              "type": "bytes32"
            },
            {
              "internalType": "uint16",
              "name": "tokenChain",
              "type": "uint16"
            },
            {
              "internalType": "bytes32",
              "name": "symbol",
              "type": "bytes32"
            },
            {
              "internalType": "bytes32",
              "name": "name",
              "type": "bytes32"
            },
            {
              "internalType": "uint256",
              "name": "tokenID",
              "type": "uint256"
            },
            {
              "internalType": "string",
              "name": "uri",
              "type": "string"
            },
            {
              "internalType": "bytes32",
              "name": "to",
              "type": "bytes32"
            },
            {
              "internalType": "uint16",
              "name": "toChain",
              "type": "uint16"
            }
          ],
          "internalType": "struct NFTBridgeStructs.Transfer",
          "name": "transfer",
          "type": "tuple"
        }
      ],
      "stateMutability": "pure",
      "type": "function"
    },
    {
      "inputs": [
        {
          "internalType": "bytes",
          "name": "encoded",
          "type": "bytes"
        }
      ],
      "name": "parseUpgrade",
      "outputs": [
        {
          "components": [
            {
              "internalType": "bytes32",
              "name": "module",
              "type": "bytes32"
            },
            {
              "internalType": "uint8",
              "name": "action",
              "type": "uint8"
            },
            {
              "internalType": "uint16",
              "name": "chainId",
              "type": "uint16"
            },
            {
              "internalType": "bytes32",
              "name": "newContract",
              "type": "bytes32"
            }
          ],
          "internalType": "struct NFTBridgeStructs.UpgradeContract",
          "name": "chain",
          "type": "tuple"
        }
      ],
      "stateMutability": "pure",
      "type": "function"
    },
    {
      "inputs": [
        {
          "internalType": "bytes",
          "name": "encodedVM",
          "type": "bytes"
        }
      ],
      "name": "registerChain",
      "outputs": [],
      "stateMutability": "nonpayable",
      "type": "function"
    },
    {
      "inputs": [
        {
          "internalType": "uint256",
          "name": "tokenId",
          "type": "uint256"
        }
      ],
      "name": "splCache",
      "outputs": [
        {
          "components": [
            {
              "internalType": "bytes32",
              "name": "name",
              "type": "bytes32"
            },
            {
              "internalType": "bytes32",
              "name": "symbol",
              "type": "bytes32"
            }
          ],
          "internalType": "struct NFTBridgeStorage.SPLCache",
          "name": "",
          "type": "tuple"
        }
      ],
      "stateMutability": "view",
      "type": "function"
    },
    {
      "inputs": [
        {
          "internalType": "bytes",
          "name": "encodedVM",
          "type": "bytes"
        }
      ],
      "name": "submitRecoverChainId",
      "outputs": [],
      "stateMutability": "nonpayable",
      "type": "function"
    },
    {
      "inputs": [],
      "name": "tokenImplementation",
      "outputs": [
        {
          "internalType": "address",
          "name": "",
          "type": "address"
        }
      ],
      "stateMutability": "view",
      "type": "function"
    },
    {
      "inputs": [
        {
          "internalType": "address",
          "name": "token",
          "type": "address"
        },
        {
          "internalType": "uint256",
          "name": "tokenID",
          "type": "uint256"
        },
        {
          "internalType": "uint16",
          "name": "recipientChain",
          "type": "uint16"
        },
        {
          "internalType": "bytes32",
          "name": "recipient",
          "type": "bytes32"
        },
        {
          "internalType": "uint32",
          "name": "nonce",
          "type": "uint32"
        }
      ],
      "name": "transferNFT",
      "outputs": [
        {
          "internalType": "uint64",
          "name": "sequence",
          "type": "uint64"
        }
      ],
      "stateMutability": "payable",
      "type": "function"
    },
    {
      "inputs": [
        {
          "internalType": "bytes",
          "name": "encodedVM",
          "type": "bytes"
        }
      ],
      "name": "upgrade",
      "outputs": [],
      "stateMutability": "nonpayable",
      "type": "function"
    },
    {
      "inputs": [],
      "name": "wormhole",
      "outputs": [
        {
          "internalType": "contract IWormhole",
          "name": "",
          "type": "address"
        }
      ],
      "stateMutability": "view",
      "type": "function"
    },
    {
      "inputs": [
        {
          "internalType": "uint16",
          "name": "tokenChainId",
          "type": "uint16"
        },
        {
          "internalType": "bytes32",
          "name": "tokenAddress",
          "type": "bytes32"
        }
      ],
      "name": "wrappedAsset",
      "outputs": [
        {
          "internalType": "address",
          "name": "",
          "type": "address"
        }
      ],
      "stateMutability": "view",
      "type": "function"
    }
  ],
  "bytecode": {
    "object": "0x608060405234801561001057600080fd5b50613c8a806100206000396000f3fe608060405260043610620001a15760003560e01c80639a8a059211620000e2578063c96616e11162000095578063e039f224116200006c578063e039f224146200066d578063e6a853e01462000685578063fbe3c2cd14620006b9578063fbeeacd914620006da57600080fd5b8063c96616e114620005a0578063cb4cfea814620005d0578063d60b347f146200063057600080fd5b80639a8a059214620004ac578063a5799f9314620004d6578063aa4efa5b14620004fb578063ad66a5f1146200052f578063b172b2221462000564578063c6878519146200057b57600080fd5b80632b51137511620001585780633ca64826116200012f5780633ca6482614620003c357806364d42b17146200043c578063739fc8d1146200045d57806384acd1bb146200048c57600080fd5b80632b511375146200033b5780632c3c02a4146200036f5780632f3a3d5d14620003a357600080fd5b806301f5325514620001a6578063150b7a021462000224578063178149e714620002635780631a2be4da146200028a5780631ff1e28614620002d8578063253946451462000316575b600080fd5b348015620001b357600080fd5b50620001cb620001c536600462002b29565b6200073a565b6040516200021b9190600060a0820190508251825260ff6020840151166020830152604083015161ffff808216604085015280606086015116606085015250506080830151608083015292915050565b60405180910390f35b3480156200023157600080fd5b50620002496200024336600462002b9b565b62000942565b6040516001600160e01b031990911681526020016200021b565b3480156200027057600080fd5b50620002886200028236600462002b29565b620009c6565b005b3480156200029757600080fd5b50620002c7620002a936600462002c3e565b6001600160a01b031660009081526008602052604090205460ff1690565b60405190151581526020016200021b565b348015620002e557600080fd5b50620002fd620002f736600462002c81565b62000ae2565b6040516001600160a01b0390911681526020016200021b565b3480156200032357600080fd5b50620002886200033536600462002b29565b62000b11565b3480156200034857600080fd5b50620003606200035a36600462002b29565b62000c21565b6040516200021b919062002d04565b3480156200037c57600080fd5b50620002c76200038e36600462002d82565b60009081526004602052604090205460ff1690565b348015620003b057600080fd5b506001546001600160a01b0316620002fd565b348015620003d057600080fd5b5062000420620003e236600462002d82565b6040805180820190915260008082526020820152506000908152600a6020908152604091829020825180840190935280548352600101549082015290565b604080518251815260209283015192810192909252016200021b565b3480156200044957600080fd5b50600b545b6040519081526020016200021b565b3480156200046a57600080fd5b50600254640100000000900460ff1660405160ff90911681526020016200021b565b3480156200049957600080fd5b506000546001600160a01b0316620002fd565b348015620004b957600080fd5b5060025461ffff165b60405161ffff90911681526020016200021b565b348015620004e357600080fd5b5062000288620004f536600462002b29565b62000df7565b3480156200050857600080fd5b50620002c76200051a36600462002d82565b60009081526005602052604090205460ff1690565b3480156200053c57600080fd5b506200044e6200054e36600462002d9c565b61ffff1660009081526009602052604090205490565b3480156200057157600080fd5b506003546200044e565b3480156200058857600080fd5b50620002886200059a36600462002b29565b62000efc565b620005b7620005b136600462002dcf565b62000f0a565b6040516001600160401b0390911681526020016200021b565b348015620005dd57600080fd5b50620005f5620005ef36600462002b29565b6200158d565b6040516200021b91908151815260208083015160ff16908201526040808301519082015260609182015161ffff169181019190915260800190565b3480156200063d57600080fd5b50620002c76200064f36600462002c3e565b6001600160a01b031660009081526006602052604090205460ff1690565b3480156200067a57600080fd5b50620002c76200174d565b3480156200069257600080fd5b50620006aa620006a436600462002e56565b62001761565b6040516200021b919062002f23565b348015620006c657600080fd5b5060025462010000900461ffff16620004c2565b348015620006e757600080fd5b50620006ff620006f936600462002b29565b6200181d565b6040516200021b91908151815260208083015160ff169082015260408083015161ffff16908201526060918201519181019190915260800190565b6040805160a081018252600080825260208201819052918101829052606081018290526080810182905290620007718382620019f6565b82526200078060208262002f4e565b8251909150684e465442726964676514620007ee5760405162461bcd60e51b815260206004820152602360248201527f696e76616c6964205265676973746572436861696e3a2077726f6e67206d6f64604482015262756c6560e81b60648201526084015b60405180910390fd5b620007fa838262001a58565b60ff1660208301526200080f60018262002f4e565b9050816020015160ff16600114620008765760405162461bcd60e51b815260206004820152602360248201527f696e76616c6964205265676973746572436861696e3a2077726f6e672061637460448201526234b7b760e91b6064820152608401620007e5565b62000882838262001ab8565b61ffff1660408301526200089860028262002f4e565b9050620008a6838262001ab8565b61ffff166060830152620008bc60028262002f4e565b9050620008ca8382620019f6565b6080830152620008dc60208262002f4e565b9050808351146200093c5760405162461bcd60e51b815260206004820152602360248201527f696e76616c6964205265676973746572436861696e3a2077726f6e67206c656e6044820152620cee8d60eb1b6064820152608401620007e5565b50919050565b60006001600160a01b0386163014620009b45760405162461bcd60e51b815260206004820152602d60248201527f63616e206f6e6c792062726964676520746f6b656e7320766961207472616e7360448201526c19995c939195081b595d1a1bd9609a1b6064820152608401620007e5565b50630a85bd0160e11b95945050505050565b620009d06200174d565b62000a0b5760405162461bcd60e51b815260206004820152600a6024820152696e6f74206120666f726b60b01b6044820152606401620007e5565b600080600062000a1b8462001b19565b92509250925081819062000a445760405162461bcd60e51b8152600401620007e5919062002f23565b5062000a5583610140015162001d38565b600062000a668460e001516200158d565b90504681604001511462000ab15760405162461bcd60e51b815260206004820152601160248201527034b73b30b634b21022ab269021b430b4b760791b6044820152606401620007e5565b62000ac0816040015162001d53565b60608101516002805461ffff191661ffff9092169190911790555b5050505050565b61ffff821660009081526007602090815260408083208484529091529020546001600160a01b03165b92915050565b62000b1b6200174d565b1562000b595760405162461bcd60e51b815260206004820152600c60248201526b696e76616c696420666f726b60a01b6044820152606401620007e5565b600080600062000b698462001b19565b92509250925081819062000b925760405162461bcd60e51b8152600401620007e5919062002f23565b5062000ba383610140015162001d38565b600062000bb48460e001516200181d565b905062000bc460025461ffff1690565b61ffff16816040015161ffff161462000c115760405162461bcd60e51b815260206004820152600e60248201526d1ddc9bdb99c818da185a5b881a5960921b6044820152606401620007e5565b606081015162000adb9062001d9e565b604080516101008101825260008082526020820181905291810182905260608082018390526080820183905260a082015260c0810182905260e08101829052908062000c6e848262001a58565b905062000c7d60018362002f4e565b91508060ff1660011462000cc75760405162461bcd60e51b815260206004820152601060248201526f34b73b30b634b2102a3930b739b332b960811b6044820152606401620007e5565b62000cd38483620019f6565b835262000ce260208362002f4e565b915062000cf0848362001ab8565b61ffff16602084015262000d0660028362002f4e565b915062000d148483620019f6565b604084015262000d2660208362002f4e565b915062000d348483620019f6565b606084015262000d4660208362002f4e565b915062000d54848362001ed5565b608084015262000d6660208362002f4e565b915062000d7560018362002f4e565b915062000da282602284875162000d8d919062002f64565b62000d99919062002f64565b86919062001f2e565b60a08401528351915062000db860028362002f64565b915062000dc6848362001ab8565b61ffff1660e084015262000ddc60208362002f64565b915062000dea8483620019f6565b60c0840152509092915050565b600080600062000e078462001b19565b92509250925081819062000e305760405162461bcd60e51b8152600401620007e5919062002f23565b5062000e4183610140015162001d38565b600062000e528460e001516200073a565b905062000e6260025461ffff1690565b61ffff16816040015161ffff1614801562000e84575062000e826200174d565b155b8062000e965750604081015161ffff16155b62000ed75760405162461bcd60e51b815260206004820152601060248201526f1a5b9d985b1a590818da185a5b881a5960821b6044820152606401620007e5565b62000adb8160600151826080015161ffff909116600090815260096020526040902055565b62000f078162002047565b50565b600080600062000f32886001600160a01b031660009081526008602052604090205460ff1690565b156200100c57876001600160a01b0316639a8a05926040518163ffffffff1660e01b8152600401602060405180830381865afa15801562000f77573d6000803e3d6000fd5b505050506040513d601f19601f8201168201806040525081019062000f9d919062002f87565b9150876001600160a01b0316633d6c043b6040518163ffffffff1660e01b8152600401602060405180830381865afa15801562000fde573d6000803e3d6000fd5b505050506040513d601f19601f8201168201806040525081019062001004919062002fa7565b9050620011b6565b60025461ffff166040516301ffc9a760e01b81526380ac58cd60e01b60048201529092506001600160a01b038916915081906301ffc9a790602401602060405180830381865afa15801562001065573d6000803e3d6000fd5b505050506040513d601f19601f820116820180604052508101906200108b919062002fd2565b620010e35760405162461bcd60e51b815260206004820152602160248201527f6d75737420737570706f7274207468652045524337323120696e7465726661636044820152606560f81b6064820152608401620007e5565b6040516301ffc9a760e01b8152635b5e139f60e01b60048201526001600160a01b038916906301ffc9a790602401602060405180830381865afa1580156200112f573d6000803e3d6000fd5b505050506040513d601f19601f8201168201806040525081019062001155919062002fd2565b620011b65760405162461bcd60e51b815260206004820152602a60248201527f6d75737420737570706f727420746865204552433732312d4d657461646174616044820152691032bc3a32b739b4b7b760b11b6064820152608401620007e5565b60608060608461ffff16600114620013105760408051600481526024810182526020810180516001600160e01b03166395d89b4160e01b17905290516000916001600160a01b038e16916200120c919062002ff0565b600060405180830381855afa9150503d806000811462001249576040519150601f19603f3d011682016040523d82523d6000602084013e6200124e565b606091505b5060408051600481526024810182526020810180516001600160e01b03166306fdde0360e01b1790529051919350600092506001600160a01b038f169162001297919062002ff0565b600060405180830381855afa9150503d8060008114620012d4576040519150601f19603f3d011682016040523d82523d6000602084013e620012d9565b606091505b5091505081806020019051810190620012f391906200305a565b9450808060200190518101906200130b91906200305a565b935050505b60008b6001600160a01b03168b6040516024016200133091815260200190565b60408051601f198184030181529181526020820180516001600160e01b031663c87b56dd60e01b1790525162001367919062002ff0565b600060405180830381855afa9150503d8060008114620013a4576040519150601f19603f3d011682016040523d82523d6000602084013e620013a9565b606091505b5091505080806020019051810190620013c391906200305a565b9150506000808661ffff166001036200143f57604080518082018252600080825260209182018190528e8152600a82528281208351808501909452805484526001015491830191909152906020810151815190945092509050620014388d6000908152600a6020526040812081815560010155565b506200144c565b5050602083810151908301515b604051632142170760e11b8152336004820152306024820152604481018d90526001600160a01b038e16906342842e0e90606401600060405180830381600087803b1580156200149b57600080fd5b505af1158015620014b0573d6000803e3d6000fd5b50505050620014c260025461ffff1690565b61ffff168761ffff16146200152e57604051630852cd8d60e31b8152600481018d90526001600160a01b038e16906342966c6890602401600060405180830381600087803b1580156200151457600080fd5b505af115801562001529573d6000803e3d6000fd5b505050505b6200157c6040518061010001604052808881526020018961ffff1681526020018481526020018381526020018e81526020018581526020018c81526020018d61ffff16815250348b62002419565b9d9c50505050505050505050505050565b604080516080810182526000808252602082018190529181018290526060810182905290620015bd8382620019f6565b8252620015cc60208262002f4e565b8251909150684e465442726964676514620016365760405162461bcd60e51b8152602060048201526024808201527f696e76616c6964205265636f766572436861696e49643a2077726f6e67206d6f60448201526364756c6560e01b6064820152608401620007e5565b62001642838262001a58565b60ff1660208301526200165760018262002f4e565b9050816020015160ff16600314620016be5760405162461bcd60e51b8152602060048201526024808201527f696e76616c6964205265636f766572436861696e49643a2077726f6e672061636044820152633a34b7b760e11b6064820152608401620007e5565b620016ca838262001ed5565b6040830152620016dc60208262002f4e565b9050620016ea838262001ab8565b61ffff1660608301526200170060028262002f4e565b9050808351146200093c5760405162461bcd60e51b81526020600482015260166024820152751a5b9d985b1a5908149958dbdd995c90da185a5b925960521b6044820152606401620007e5565b6000466200175a600b5490565b1415905090565b606060c88260a00151511115620017c65760405162461bcd60e51b815260206004820152602260248201527f746f6b656e555249206d757374206e6f74206578636565642032303020627974604482015261657360f01b6064820152608401620007e5565b81516020808401516040808601516060870151608088015160a0890151805160c08b015160e08c01519651620018079a60019a909998939493910162003092565b6040516020818303038152906040529050919050565b6040805160808101825260008082526020820181905291810182905260608101829052906200184d8382620019f6565b82526200185c60208262002f4e565b8251909150684e465442726964676514620018c85760405162461bcd60e51b815260206004820152602560248201527f696e76616c69642055706772616465436f6e74726163743a2077726f6e67206d6044820152646f64756c6560d81b6064820152608401620007e5565b620018d4838262001a58565b60ff166020830152620018e960018262002f4e565b9050816020015160ff16600214620019525760405162461bcd60e51b815260206004820152602560248201527f696e76616c69642055706772616465436f6e74726163743a2077726f6e67206160448201526431ba34b7b760d91b6064820152608401620007e5565b6200195e838262001ab8565b61ffff1660408301526200197460028262002f4e565b9050620019828382620019f6565b60608301526200199460208262002f4e565b9050808351146200093c5760405162461bcd60e51b815260206004820152602560248201527f696e76616c69642055706772616465436f6e74726163743a2077726f6e67206c6044820152640cadccee8d60db1b6064820152608401620007e5565b600062001a0582602062002f4e565b8351101562001a4f5760405162461bcd60e51b8152602060048201526015602482015274746f427974657333325f6f75744f66426f756e647360581b6044820152606401620007e5565b50016020015190565b600062001a6782600162002f4e565b8351101562001aaf5760405162461bcd60e51b8152602060048201526013602482015272746f55696e74385f6f75744f66426f756e647360681b6044820152606401620007e5565b50016001015190565b600062001ac782600262002f4e565b8351101562001b105760405162461bcd60e51b8152602060048201526014602482015273746f55696e7431365f6f75744f66426f756e647360601b6044820152606401620007e5565b50016002015190565b604080516101608101825260008082526020820181905291810182905260608082018390526080820183905260a0820183905260c0820183905260e08201819052610100820183905261012082015261014081019190915260006060600080600062001b8d6000546001600160a01b031690565b6001600160a01b031663c0fd8bde886040518263ffffffff1660e01b815260040162001bba919062002f23565b600060405180830381865afa15801562001bd8573d6000803e3d6000fd5b505050506040513d6000823e601f3d908101601f1916820160405262001c0291908101906200321e565b9250925092508162001c1b579194509250905062001d31565b60025462010000900461ffff1661ffff16836060015161ffff161462001c795750506040805180820190915260168152753bb937b7339033b7bb32b93730b731b29031b430b4b760511b602082015290935060009250905062001d31565b60035483608001511462001ccc57505060408051808201909152601981527f77726f6e6720676f7665726e616e636520636f6e747261637400000000000000602082015290935060009250905062001d31565b61014083015160009081526004602052604090205460ff161562001d165782600060405180606001604052806022815260200162003c336022913995509550955050505062001d31565b50506040805160208101909152600081529093506001925090505b9193909250565b6000908152600460205260409020805460ff19166001179055565b46811462001d995760405162461bcd60e51b81526020600482015260126024820152711a5b9d985b1a5908195d9b50da185a5b925960721b6044820152606401620007e5565b600b55565b600062001dd27f360894a13ba1a3210667c828492db98dca3e2076cc3735a920a3ca505d382bbc546001600160a01b031690565b905062001ddf82620024d2565b60408051600481526024810182526020810180516001600160e01b031663204a7f0760e21b179052905160009182916001600160a01b0386169162001e249162002ff0565b600060405180830381855af49150503d806000811462001e61576040519150601f19603f3d011682016040523d82523d6000602084013e62001e66565b606091505b509150915081819062001e8e5760405162461bcd60e51b8152600401620007e5919062002f23565b50836001600160a01b0316836001600160a01b03167f2e4cc16c100f0b55e2df82ab0b1a7e294aa9cbd01b48fbaf622683fbc0507a4960405160405180910390a350505050565b600062001ee482602062002f4e565b8351101562001a4f5760405162461bcd60e51b8152602060048201526015602482015274746f55696e743235365f6f75744f66426f756e647360581b6044820152606401620007e5565b60608162001f3e81601f62002f4e565b101562001f7f5760405162461bcd60e51b815260206004820152600e60248201526d736c6963655f6f766572666c6f7760901b6044820152606401620007e5565b62001f8b828462002f4e565b8451101562001fd15760405162461bcd60e51b8152602060048201526011602482015270736c6963655f6f75744f66426f756e647360781b6044820152606401620007e5565b60608215801562001ff257604051915060008252602082016040526200203e565b6040519150601f8416801560200281840101858101878315602002848b0101015b818310156200202d57805183526020928301920162002013565b5050858452601f01601f1916604052505b50949350505050565b60008060006200205f6000546001600160a01b031690565b6001600160a01b031663c0fd8bde856040518263ffffffff1660e01b81526004016200208c919062002f23565b600060405180830381865afa158015620020aa573d6000803e3d6000fd5b505050506040513d6000823e601f3d908101601f19168201604052620020d491908101906200321e565b925092509250818190620020fd5760405162461bcd60e51b8152600401620007e5919062002f23565b50620021098362002514565b620021495760405162461bcd60e51b815260206004820152600f60248201526e34b73b30b634b21032b6b4ba3a32b960891b6044820152606401620007e5565b60006200215a8460e0015162000c21565b90506200217b84610140015160009081526005602052604090205460ff1690565b15620021ca5760405162461bcd60e51b815260206004820152601a60248201527f7472616e7366657220616c726561647920636f6d706c657465640000000000006044820152606401620007e5565b620021ef8461014001516000908152600560205260409020805460ff19166001179055565b60025461ffff1661ffff168160e0015161ffff1614620022495760405162461bcd60e51b815260206004820152601460248201527334b73b30b634b2103a30b933b2ba1031b430b4b760611b6044820152606401620007e5565b60006200225960025461ffff1690565b61ffff16826020015161ffff16036200227557508051620022c0565b60006200228b8360200151846000015162000ae2565b90506001600160a01b038116620022bd57620022ba836020015184600001518560600151866040015162002591565b90505b90505b60c082015160025461ffff1661ffff16836020015161ffff16146200239e57826020015161ffff166001036200232a576080830151604080518082018252606086015181528186015160208083019182526000948552600a90529190922091518255516001909101555b608083015160a08401516040516334ff261960e21b81526001600160a01b0385169263d3fc98649262002364928692919060040162003393565b600060405180830381600087803b1580156200237f57600080fd5b505af115801562002394573d6000803e3d6000fd5b5050505062002410565b6080830151604051632142170760e11b81523060048201526001600160a01b0383811660248301526044820192909252908316906342842e0e90606401600060405180830381600087803b158015620023f657600080fd5b505af11580156200240b573d6000803e3d6000fd5b505050505b50505050505050565b600080620024278562001761565b90506200243c6000546001600160a01b031690565b6001600160a01b031663b19a437e8585846200246360025460ff6401000000009091041690565b6040518563ffffffff1660e01b81526004016200248393929190620033bc565b60206040518083038185885af1158015620024a2573d6000803e3d6000fd5b50505050506040513d601f19601f82011682018060405250810190620024c99190620033f0565b95945050505050565b620024dd816200283c565b6040516001600160a01b038216907fbc7cd75a20ee27fd9adebab32041f755214dbc6bffa90cc0225b39da2e5c2d3b90600090a250565b6000620025206200174d565b156200255e5760405162461bcd60e51b815260206004820152600c60248201526b696e76616c696420666f726b60a01b6044820152606401620007e5565b6080820151606083015161ffff16600090815260096020526040902054036200258957506001919050565b506000919050565b6000620025a160025461ffff1690565b61ffff168561ffff16036200260a5760405162461bcd60e51b815260206004820152602860248201527f63616e206f6e6c79207772617020746f6b656e732066726f6d20666f726569676044820152676e20636861696e7360c01b6064820152608401620007e5565b600062002618868662000ae2565b6001600160a01b031614620026705760405162461bcd60e51b815260206004820152601c60248201527f7772617070656420617373657420616c726561647920657869737473000000006044820152606401620007e5565b8461ffff16600103620026b1577f576f726d686f6c65204272696467656420536f6c616e612d4e4654000000000092506915d3d49354d41313919560b21b91505b6000627ce50b60e31b620026c585620028e3565b620026d085620028e3565b308989604051602401620026e99594939291906200340e565b60408051601f19818403018152918152602080830180516001600160e01b03166001600160e01b031990951694909417909352519092506000916200273391309185910162003462565b60405160208183030381529060405290506000604051806020016200275890620029ee565b601f1982820381018352601f9091011660408190526200277e9190849060200162003488565b60408051601f19818403018152908290526001600160f01b031960f08b901b166020830152602282018990529150600090604201604051602081830303815290604052805190602001209050808251602084016000f59450843b620027e257600080fd5b61ffff891660009081526007602090815260408083208b8452825280832080546001600160a01b0319166001600160a01b038a16908117909155835260089091529020805460ff1916600117905550505050949350505050565b803b620028a25760405162461bcd60e51b815260206004820152602d60248201527f455243313936373a206e657720696d706c656d656e746174696f6e206973206e60448201526c1bdd08184818dbdb9d1c9858dd609a1b6064820152608401620007e5565b7f360894a13ba1a3210667c828492db98dca3e2076cc3735a920a3ca505d382bbc80546001600160a01b0319166001600160a01b0392909216919091179055565b606060005b6020811080156200291a5750828160208110620029095762002909620034bb565b1a60f81b6001600160f81b03191615155b156200293557806200292c81620034d1565b915050620028e8565b6000816001600160401b03811115620029525762002952620029fc565b6040519080825280601f01601f1916602001820160405280156200297d576020820181803683370190505b50905060005b82811015620029e657848160208110620029a157620029a1620034bb565b1a60f81b828281518110620029ba57620029ba620034bb565b60200101906001600160f81b031916908160001a90535080620029dd81620034d1565b91505062002983565b509392505050565b61074580620034ee83390190565b634e487b7160e01b600052604160045260246000fd5b60405161010081016001600160401b038111828210171562002a385762002a38620029fc565b60405290565b604051608081016001600160401b038111828210171562002a385762002a38620029fc565b60405161016081016001600160401b038111828210171562002a385762002a38620029fc565b604051601f8201601f191681016001600160401b038111828210171562002ab45762002ab4620029fc565b604052919050565b60006001600160401b0382111562002ad85762002ad8620029fc565b50601f01601f191660200190565b600062002afd62002af78462002abc565b62002a89565b905082815283838301111562002b1257600080fd5b828260208301376000602084830101529392505050565b60006020828403121562002b3c57600080fd5b81356001600160401b0381111562002b5357600080fd5b8201601f8101841362002b6557600080fd5b62002b768482356020840162002ae6565b949350505050565b80356001600160a01b038116811462002b9657600080fd5b919050565b60008060008060006080868803121562002bb457600080fd5b62002bbf8662002b7e565b945062002bcf6020870162002b7e565b93506040860135925060608601356001600160401b038082111562002bf357600080fd5b818801915088601f83011262002c0857600080fd5b81358181111562002c1857600080fd5b89602082850101111562002c2b57600080fd5b9699959850939650602001949392505050565b60006020828403121562002c5157600080fd5b62002c5c8262002b7e565b9392505050565b61ffff8116811462000f0757600080fd5b803562002b968162002c63565b6000806040838503121562002c9557600080fd5b823562002ca28162002c63565b946020939093013593505050565b60005b8381101562002ccd57818101518382015260200162002cb3565b50506000910152565b6000815180845262002cf081602086016020860162002cb0565b601f01601f19169290920160200192915050565b60208152815160208201526000602083015161ffff80821660408501526040850151606085015260608501516080850152608085015160a085015260a085015191506101008060c086015262002d5f61012086018462002cd6565b925060c086015160e08601528160e0870151168186015250508091505092915050565b60006020828403121562002d9557600080fd5b5035919050565b60006020828403121562002daf57600080fd5b813562002c5c8162002c63565b63ffffffff8116811462000f0757600080fd5b600080600080600060a0868803121562002de857600080fd5b62002df38662002b7e565b945060208601359350604086013562002e0c8162002c63565b925060608601359150608086013562002e258162002dbc565b809150509295509295909350565b600082601f83011262002e4557600080fd5b62002c5c8383356020850162002ae6565b60006020828403121562002e6957600080fd5b81356001600160401b038082111562002e8157600080fd5b90830190610100828603121562002e9757600080fd5b62002ea162002a12565b8235815262002eb36020840162002c74565b602082015260408301356040820152606083013560608201526080830135608082015260a08301358281111562002ee957600080fd5b62002ef78782860162002e33565b60a08301525060c083013560c082015262002f1560e0840162002c74565b60e082015295945050505050565b60208152600062002c5c602083018462002cd6565b634e487b7160e01b600052601160045260246000fd5b8082018082111562000b0b5762000b0b62002f38565b8181038181111562000b0b5762000b0b62002f38565b805162002b968162002c63565b60006020828403121562002f9a57600080fd5b815162002c5c8162002c63565b60006020828403121562002fba57600080fd5b5051919050565b8051801515811462002b9657600080fd5b60006020828403121562002fe557600080fd5b62002c5c8262002fc1565b600082516200300481846020870162002cb0565b9190910192915050565b600082601f8301126200302057600080fd5b81516200303162002af78262002abc565b8181528460208386010111156200304757600080fd5b62002b7682602083016020870162002cb0565b6000602082840312156200306d57600080fd5b81516001600160401b038111156200308457600080fd5b62002b76848285016200300e565b600060ff60f81b808d60f81b1683528b600184015261ffff60f01b808c60f01b1660218501528a6023850152896043850152886063850152818860f81b16608385015286519150620030ec826084860160208a0162002cb0565b920160848101949094525060f09190911b1660a482015260a60198975050505050505050565b805160ff8116811462002b9657600080fd5b805162002b968162002dbc565b80516001600160401b038116811462002b9657600080fd5b600082601f8301126200315b57600080fd5b815160206001600160401b03821115620031795762003179620029fc565b62003189818360051b0162002a89565b82815260079290921b84018101918181019086841115620031a957600080fd5b8286015b84811015620032135760808189031215620031c85760008081fd5b620031d262002a3e565b8151815284820151858201526040620031ed81840162003112565b9082015260606200320083820162003112565b90820152835291830191608001620031ad565b509695505050505050565b6000806000606084860312156200323457600080fd5b83516001600160401b03808211156200324c57600080fd5b9085019061016082880312156200326257600080fd5b6200326c62002a63565b620032778362003112565b8152620032876020840162003124565b60208201526200329a6040840162003124565b6040820152620032ad6060840162002f7a565b606082015260808301516080820152620032ca60a0840162003131565b60a0820152620032dd60c0840162003112565b60c082015260e083015182811115620032f557600080fd5b62003303898286016200300e565b60e0830152506101006200331981850162003124565b9082015261012083810151838111156200333257600080fd5b620033408a82870162003149565b918301919091525061014083810151908201529450620033636020870162002fc1565b935060408601519150808211156200337a57600080fd5b5062003389868287016200300e565b9150509250925092565b60018060a01b0384168152826020820152606060408201526000620024c9606083018462002cd6565b63ffffffff84168152606060208201526000620033dd606083018562002cd6565b905060ff83166040830152949350505050565b6000602082840312156200340357600080fd5b62002c5c8262003131565b60a0815260006200342360a083018862002cd6565b828103602084015262003437818862002cd6565b6001600160a01b03969096166040840152505061ffff92909216606083015260809091015292915050565b6001600160a01b038316815260406020820181905260009062002b769083018462002cd6565b600083516200349c81846020880162002cb0565b835190830190620034b281836020880162002cb0565b01949350505050565b634e487b7160e01b600052603260045260246000fd5b600060018201620034e657620034e662002f38565b506001019056fe608060405234801561001057600080fd5b5060405161074538038061074583398101604081905261002f91610442565b818161005c60017fa3f0ad74e5423aebfd80d3ef4346578335a9a72aeaee59ff6cb3582b35133d51610502565b6000805160206106fe8339815191521461007857610078610523565b6100848282600061008d565b505050506105a3565b6100968361014e565b6040516001600160a01b038416907f1cf3b03a6cf19fa2baba4df148e9dcabedea7f8a5c07840e207e5c089be95d3e90600090a26000825111806100d75750805b1561014957610147836001600160a01b0316635c60da1b6040518163ffffffff1660e01b8152600401602060405180830381865afa15801561011d573d6000803e3d6000fd5b505050506040513d601f19601f820116820180604052508101906101419190610539565b836102ae565b505b505050565b803b6101af5760405162461bcd60e51b815260206004820152602560248201527f455243313936373a206e657720626561636f6e206973206e6f74206120636f6e6044820152641d1c9858dd60da1b60648201526084015b60405180910390fd5b61021a816001600160a01b0316635c60da1b6040518163ffffffff1660e01b8152600401602060405180830381865afa1580156101f0573d6000803e3d6000fd5b505050506040513d601f19601f820116820180604052508101906102149190610539565b3b151590565b61027f5760405162461bcd60e51b815260206004820152603060248201527f455243313936373a20626561636f6e20696d706c656d656e746174696f6e206960448201526f1cc81b9bdd08184818dbdb9d1c9858dd60821b60648201526084016101a6565b6000805160206106fe83398151915280546001600160a01b0319166001600160a01b0392909216919091179055565b60606102d3838360405180606001604052806027815260200161071e602791396102dc565b90505b92915050565b6060833b61033b5760405162461bcd60e51b815260206004820152602660248201527f416464726573733a2064656c65676174652063616c6c20746f206e6f6e2d636f6044820152651b9d1c9858dd60d21b60648201526084016101a6565b600080856001600160a01b0316856040516103569190610554565b600060405180830381855af49150503d8060008114610391576040519150601f19603f3d011682016040523d82523d6000602084013e610396565b606091505b5090925090506103a78282866103b3565b925050505b9392505050565b606083156103c25750816103ac565b8251156103d25782518084602001fd5b8160405162461bcd60e51b81526004016101a69190610570565b80516001600160a01b038116811461040357600080fd5b919050565b634e487b7160e01b600052604160045260246000fd5b60005b83811015610439578181015183820152602001610421565b50506000910152565b6000806040838503121561045557600080fd5b61045e836103ec565b60208401519092506001600160401b038082111561047b57600080fd5b818501915085601f83011261048f57600080fd5b8151818111156104a1576104a1610408565b604051601f8201601f19908116603f011681019083821181831017156104c9576104c9610408565b816040528281528860208487010111156104e257600080fd5b6104f383602083016020880161041e565b80955050505050509250929050565b818103818111156102d657634e487b7160e01b600052601160045260246000fd5b634e487b7160e01b600052600160045260246000fd5b60006020828403121561054b57600080fd5b6102d3826103ec565b6000825161056681846020870161041e565b9190910192915050565b602081526000825180602084015261058f81604085016020870161041e565b601f01601f19169190910160400192915050565b61014c806105b26000396000f3fe60806040523661001357610011610017565b005b6100115b610027610022610029565b6100c2565b565b600061005c7fa3f0ad74e5423aebfd80d3ef4346578335a9a72aeaee59ff6cb3582b35133d50546001600160a01b031690565b6001600160a01b0316635c60da1b6040518163ffffffff1660e01b8152600401602060405180830381865afa158015610099573d6000803e3d6000fd5b505050506040513d601f19601f820116820180604052508101906100bd91906100e6565b905090565b3660008037600080366000845af43d6000803e8080156100e1573d6000f35b3d6000fd5b6000602082840312156100f857600080fd5b81516001600160a01b038116811461010f57600080fd5b939250505056fea26469706673582212201eb9b2aded96f70ed4d0a5fb3cbab0c97edfa90c8635e7d32f7472db5f5e588464736f6c63430008130033a3f0ad74e5423aebfd80d3ef4346578335a9a72aeaee59ff6cb3582b35133d50416464726573733a206c6f772d6c6576656c2064656c65676174652063616c6c206661696c6564676f7665726e616e636520616374696f6e20616c726561647920636f6e73756d6564a26469706673582212200f3a4e605109816beb4364c3bfc8e3882e0e3b68ba91d7b016f210e2ebe1b6ff64736f6c63430008130033",
    "linkReferences": {}
  },
  "methodIdentifiers": {
    "bridgeContracts(uint16)": "ad66a5f1",
    "chainId()": "9a8a0592",
    "completeTransfer(bytes)": "c6878519",
    "encodeTransfer((bytes32,uint16,bytes32,bytes32,uint256,string,bytes32,uint16))": "e6a853e0",
    "evmChainId()": "64d42b17",
    "finality()": "739fc8d1",
    "governanceActionIsConsumed(bytes32)": "2c3c02a4",
    "governanceChainId()": "fbe3c2cd",
    "governanceContract()": "b172b222",
    "isFork()": "e039f224",
    "isInitialized(address)": "d60b347f",
    "isTransferCompleted(bytes32)": "aa4efa5b",
    "isWrappedAsset(address)": "1a2be4da",
    "onERC721Received(address,address,uint256,bytes)": "150b7a02",
    "parseRecoverChainId(bytes)": "cb4cfea8",
    "parseRegisterChain(bytes)": "01f53255",
    "parseTransfer(bytes)": "2b511375",
    "parseUpgrade(bytes)": "fbeeacd9",
    "registerChain(bytes)": "a5799f93",
    "splCache(uint256)": "3ca64826",
    "submitRecoverChainId(bytes)": "178149e7",
    "tokenImplementation()": "2f3a3d5d",
    "transferNFT(address,uint256,uint16,bytes32,uint32)": "c96616e1",
    "upgrade(bytes)": "25394645",
    "wormhole()": "84acd1bb",
    "wrappedAsset(uint16,bytes32)": "1ff1e286"
  },
  "id": 48
}