{
  "abi": [
    {
      "inputs": [],
      "stateMutability": "nonpayable",
      "type": "constructor"
    },
    {
      "inputs": [
        {
          "internalType": "contract WormholeRelayer",
          "name": "governance",
          "type": "address"
        },
        {
          "internalType": "contract IWormhole",
          "name": "wormhole",
          "type": "address"
        },
        {
          "internalType": "uint16",
          "name": "currentChainId",
          "type": "uint16"
        },
        {
          "internalType": "uint16",
          "name": "chainId",
          "type": "uint16"
        },
        {
          "internalType": "bytes32",
          "name": "coreRelayerContractAddress",
          "type": "bytes32"
        }
      ],
      "name": "registerWormholeRelayerContract",
      "outputs": [],
      "stateMutability": "nonpayable",
      "type": "function"
    },
    {
      "inputs": [
        {
          "internalType": "uint16",
          "name": "chainId",
          "type": "uint16"
        },
        {
          "internalType": "address",
          "name": "wormhole",
          "type": "address"
        }
      ],
      "name": "setUpDeliveryProvider",
      "outputs": [
        {
          "internalType": "contract DeliveryProvider",
          "name": "deliveryProvider",
          "type": "address"
        }
      ],
      "stateMutability": "nonpayable",
      "type": "function"
    },
    {
      "inputs": [
        {
          "internalType": "uint16",
          "name": "chainId",
          "type": "uint16"
        }
      ],
      "name": "setUpWormhole",
      "outputs": [
        {
          "internalType": "contract IWormhole",
          "name": "wormholeContract",
          "type": "address"
        },
        {
          "internalType": "contract WormholeSimulator",
          "name": "wormholeSimulator",
          "type": "address"
        }
      ],
      "stateMutability": "nonpayable",
      "type": "function"
    },
    {
      "inputs": [
        {
          "internalType": "contract IWormhole",
          "name": "wormhole",
          "type": "address"
        },
        {
          "internalType": "address",
          "name": "defaultDeliveryProvider",
          "type": "address"
        }
      ],
      "name": "setUpWormholeRelayer",
      "outputs": [
        {
          "internalType": "contract IWormholeRelayer",
          "name": "coreRelayer",
          "type": "address"
        }
      ],
      "stateMutability": "nonpayable",
      "type": "function"
    },
    {
      "inputs": [],
      "name": "vm",
      "outputs": [
        {
          "internalType": "contract Vm",
          "name": "",
          "type": "address"
        }
      ],
      "stateMutability": "view",
      "type": "function"
    }
  ],
  "bytecode": {
    "object": "0x608060405234801561001057600080fd5b5061001b6001610041565b600080546001600160a01b0319166001600160a01b0392909216919091179055506100e3565b60008060008346604051610054906100c7565b61ffff90921682526020820152604001604051809103906000f080158015610080573d6000803e3d6000fd5b50905080604051610090906100d5565b6001600160a01b039091168152602001604051809103906000f0801580156100bc573d6000803e3d6000fd5b509094909350915050565b61238d806200eb1d83390190565b611ac88062010eaa83390190565b61ea2a80620000f36000396000f3fe60806040523480156200001157600080fd5b50600436106200005e5760003560e01c80633a768463146200006357806340632c90146200009c578063552595a214620000b5578063a411d69414620000cc578063f25a40f914620000e3575b600080fd5b6200007f737109709ecfa91a80626ff3989d68f67f5b1dd12d81565b6040516001600160a01b0390911681526020015b60405180910390f35b620000b3620000ad3660046200095d565b6200011b565b005b6200007f620000c6366004620009ca565b620003ec565b6200007f620000dd36600462000a08565b62000623565b620000fa620000f436600462000a29565b62000845565b604080516001600160a01b0393841681529290911660208301520162000093565b604080516a436f726552656c6179657260208201819052600160f81b928201929092526001600160f01b031960f086811b8216604184015285901b1660438201526045810183905260009060650160405160208183030381529060405290506000604051806101600160405280600160ff1681526020014263ffffffff168152602001600063ffffffff168152602001886001600160a01b031663fbe3c2cd6040518163ffffffff1660e01b8152600401602060405180830381865afa158015620001ea573d6000803e3d6000fd5b505050506040513d601f19601f8201168201806040525081019062000210919062000a50565b61ffff168152602001886001600160a01b031663b172b2226040518163ffffffff1660e01b8152600401602060405180830381865afa15801562000258573d6000803e3d6000fd5b505050506040513d601f19601f820116820180604052508101906200027e919062000a70565b81526000602080830182905260c860408085019190915260608401879052608084018390528051838152918201905260a09092019190620002ef565b604080516080810182526000808252602080830182905292820181905260608201528252600019909201910181620002ba5790505b508152600060209091018190528054604051630e64529560e01b815292935090916001600160a01b0390911690630e645295906200033290859060040162000b5a565b6000604051808303816000875af115801562000352573d6000803e3d6000fd5b505050506040513d6000823e601f3d908101601f191682016040526200037c919081019062000c4f565b604051633ed334df60e01b81529091506001600160a01b038a1690633ed334df90620003ad90849060040162000d08565b600060405180830381600087803b158015620003c857600080fd5b505af1158015620003dd573d6000803e3d6000fd5b50505050505050505050505050565b60405163ca669fa760e01b8152336004820152600090737109709ecfa91a80626ff3989d68f67f5b1dd12d9063ca669fa790602401600060405180830381600087803b1580156200043c57600080fd5b505af115801562000451573d6000803e3d6000fd5b5050505060006040516200046590620008d1565b604051809103906000f08015801562000482573d6000803e3d6000fd5b5060405163ca669fa760e01b8152336004820152909150737109709ecfa91a80626ff3989d68f67f5b1dd12d9063ca669fa790602401600060405180830381600087803b158015620004d357600080fd5b505af1158015620004e8573d6000803e3d6000fd5b50505050600083604051620004fd90620008df565b6001600160a01b039091168152602001604051809103906000f0801580156200052a573d6000803e3d6000fd5b5060405163ca669fa760e01b8152336004820152909150737109709ecfa91a80626ff3989d68f67f5b1dd12d9063ca669fa790602401600060405180830381600087803b1580156200057b57600080fd5b505af115801562000590573d6000803e3d6000fd5b50506040516001600160a01b038416602482015261ffff881660448201526000925084915060640160408051601f198184030181529181526020820180516001600160e01b0316637208506360e11b17905251620005ee90620008ed565b620005fb92919062000d1d565b604051809103906000f08015801562000618573d6000803e3d6000fd5b509695505050505050565b6000806040516200063490620008fb565b604051809103906000f08015801562000651573d6000803e3d6000fd5b5090506000816001600160a01b031663e4b73db2306040518263ffffffff1660e01b815260040162000684919062000d4b565b602060405180830381865afa158015620006a2573d6000803e3d6000fd5b505050506040513d601f19601f82011682018060405250810190620006c8919062000d8b565b9050600085604051620006db9062000909565b6001600160a01b039091168152602001604051809103906000f08015801562000708573d6000803e3d6000fd5b506040516001600160a01b038716602482015290915060009060440160408051601f198184030181529181526020820180516001600160e01b031663189acdbd60e31b17905251637054b48960e01b81529091506001600160a01b03851690637054b489906200077f908590859060040162000dab565b6020604051808303816000875af11580156200079f573d6000803e3d6000fd5b505050506040513d601f19601f82011682018060405250810190620007c5919062000d8b565b9450826001600160a01b0316856001600160a01b0316146200083b5760405162461bcd60e51b815260206004820152602560248201527f636f6d7075746564206d757374206d617463682061637475616c2070726f78796044820152641030b2323960d91b606482015260840160405180910390fd5b5050505092915050565b600080600083466040516200085a9062000917565b61ffff90921682526020820152604001604051809103906000f08015801562000887573d6000803e3d6000fd5b50905080604051620008999062000925565b6001600160a01b039091168152602001604051809103906000f080158015620008c6573d6000803e3d6000fd5b509094909350915050565b6103508062000e0983390190565b6126a3806200115983390190565b61056380620037fc83390190565b61172e8062003d5f83390190565b615713806200548d83390190565b61238d806200aba083390190565b611ac8806200cf2d83390190565b6001600160a01b03811681146200094957600080fd5b50565b61ffff811681146200094957600080fd5b600080600080600060a086880312156200097657600080fd5b8535620009838162000933565b94506020860135620009958162000933565b93506040860135620009a7816200094c565b92506060860135620009b9816200094c565b949793965091946080013592915050565b60008060408385031215620009de57600080fd5b8235620009eb816200094c565b91506020830135620009fd8162000933565b809150509250929050565b6000806040838503121562000a1c57600080fd5b8235620009eb8162000933565b60006020828403121562000a3c57600080fd5b813562000a49816200094c565b9392505050565b60006020828403121562000a6357600080fd5b815162000a49816200094c565b60006020828403121562000a8357600080fd5b5051919050565b634e487b7160e01b600052604160045260246000fd5b60005b8381101562000abd57818101518382015260200162000aa3565b50506000910152565b6000815180845262000ae081602086016020860162000aa0565b601f01601f19169290920160200192915050565b600081518084526020808501945080840160005b8381101562000b4f57815180518852838101518489015260408082015160ff908116918a019190915260609182015116908801526080909601959082019060010162000b08565b509495945050505050565b6020815262000b6f60208201835160ff169052565b6000602083015162000b89604084018263ffffffff169052565b50604083015163ffffffff8116606084015250606083015161ffff8116608084015250608083015160a083015260a083015162000bd260c084018267ffffffffffffffff169052565b5060c083015160ff811660e08401525060e0830151610160610100818186015262000c0261018086018462000ac6565b9086015190925061012062000c1e8682018363ffffffff169052565b80870151915050610140601f19868503018187015262000c3f848362000af4565b9601519190940152509192915050565b60006020828403121562000c6257600080fd5b815167ffffffffffffffff8082111562000c7b57600080fd5b818401915084601f83011262000c9057600080fd5b81518181111562000ca55762000ca562000a8a565b604051601f8201601f19908116603f0116810190838211818310171562000cd05762000cd062000a8a565b8160405282815287602084870101111562000cea57600080fd5b62000cfd83602083016020880162000aa0565b979650505050505050565b60208152600062000a49602083018462000ac6565b6001600160a01b038316815260406020820181905260009062000d439083018462000ac6565b949350505050565b6001600160a01b03821681526040602082018190526010908201526f183c23b2b732b934b1a932b630bcb2b960811b606082015260006080820162000a49565b60006020828403121562000d9e57600080fd5b815162000a498162000933565b60608152600062000ddc60608301601081526f183c23b2b732b934b1a932b630bcb2b960811b602082015260400190565b6001600160a01b0385166020840152828103604084015262000dff818562000ac6565b9594505050505056fe608060405234801561001057600080fd5b50610330806100206000396000f3fe608060405234801561001057600080fd5b506004361061002b5760003560e01c8063e410a0c614610030575b600080fd5b61004361003e36600461023b565b610045565b005b6001600160a01b03821661006c576040516309e9cf2160e01b815260040160405180910390fd5b6000805462010000600160b01b0319166201000033021790556000805461ffff191661ffff831617905561009f82610156565b60408051600481526024810182526020810180516001600160e01b031663204a7f0760e21b179052905160009182916001600160a01b038616916100e2916102ab565b600060405180830381855af49150503d806000811461011d576040519150601f19603f3d011682016040523d82523d6000602084013e610122565b606091505b50915091508161015057806040516385f11c8360e01b815260040161014791906102c7565b60405180910390fd5b50505050565b61015f81610196565b6040516001600160a01b038216907fbc7cd75a20ee27fd9adebab32041f755214dbc6bffa90cc0225b39da2e5c2d3b90600090a250565b803b6101fa5760405162461bcd60e51b815260206004820152602d60248201527f455243313936373a206e657720696d706c656d656e746174696f6e206973206e60448201526c1bdd08184818dbdb9d1c9858dd609a1b6064820152608401610147565b7f360894a13ba1a3210667c828492db98dca3e2076cc3735a920a3ca505d382bbc80546001600160a01b0319166001600160a01b0392909216919091179055565b6000806040838503121561024e57600080fd5b82356001600160a01b038116811461026557600080fd5b9150602083013561ffff8116811461027c57600080fd5b809150509250929050565b60005b838110156102a257818101518382015260200161028a565b50506000910152565b600082516102bd818460208701610287565b9190910192915050565b60208152600082518060208401526102e6816040850160208701610287565b601f01601f1916919091016040019291505056fea2646970667358221220a1a244b15be984f381053ca0463a9d8fd036b2ef75ae68cd14bbb5f8df02267064736f6c6343000813003360a06040523480156200001157600080fd5b50604051620026a3380380620026a3833981016040819052620000349162000046565b6001600160a01b031660805262000078565b6000602082840312156200005957600080fd5b81516001600160a01b03811681146200007157600080fd5b9392505050565b60805161260f62000094600039600061133f015261260f6000f3fe608060405234801561001057600080fd5b50600436106102485760003560e01c80638cf57cb91161013b578063bb7c0a63116100b8578063ddf049191161007c578063ddf04919146105e7578063e30c3978146105fa578063e8f62d411461060b578063e8fec1ce1461061e578063fa79380f1461062f57600080fd5b8063bb7c0a631461053e578063bf9321fc1461058d578063d60b347f14610595578063d9f88e14146105c1578063dd36889f146105d457600080fd5b80639a8a0592116100ff5780639a8a0592146104ce578063a31bcc50146104e4578063b51a5f7b146104f7578063b57866d91461050a578063b9e75e661461051d57600080fd5b80638cf57cb9146104595780638da5cb5b1461047e578063944dd5a21461049557806394cc743d146104a8578063973ef215146104bb57600080fd5b80633d77cbfd116101c95780635b5bfc1e1161018d5780635b5bfc1e146103f0578063646e5048146104185780636631703b1461042b5780636b13b5041461043e5780638129fc1c1461045157600080fd5b80633d77cbfd1461035b5780633e48e7731461036e5780634713de7a1461039257806349cdb88c146103b9578063562817e1146103dd57600080fd5b80633171aaec116102105780633171aaec146102cc57806332f3e784146102fe5780633522be7d146103115780633978748a146103245780633a8231541461034857600080fd5b8063038c0b661461024d57806303fed6a514610257578063111335c51461026a57806314de5ced1461027d57806328f41de314610290575b600080fd5b610255610637565b005b610255610265366004611b72565b6106ee565b610255610278366004611c33565b61076b565b61025561028b366004611c33565b6107ab565b6102b761029e366004611c5d565b61ffff1660009081526004602052604090205460ff1690565b60405190151581526020015b60405180910390f35b6102f06102da366004611c5d565b61ffff1660009081526008602052604090205490565b6040519081526020016102c3565b6102f061030c366004611c33565b6107e7565b61025561031f366004611c8d565b610809565b6102f0610332366004611c5d565b61ffff1660009081526005602052604090205490565b610255610356366004611cc4565b610999565b6102f0610369366004611c5d565b6109d6565b6102f061037c366004611c5d565b61ffff1660009081526007602052604090205490565b6102f06103a0366004611c5d565b61ffff1660009081526006602052604090206001015490565b6102f06103c7366004611c5d565b61ffff1660009081526006602052604090205490565b6102556103eb366004611d8b565b6109ef565b6104036103fe366004611cc4565b610b37565b604080519283526020830191909152016102c3565b610255610426366004611f21565b610c20565b610255610439366004611f54565b610cb3565b61025561044c366004611c33565b610d30565b610255610d6c565b600a546001600160a01b03165b6040516001600160a01b0390911681526020016102c3565b6000546201000090046001600160a01b0316610466565b6102556104a3366004612018565b610e0c565b6102556104b6366004611c8d565b610e47565b6102556104c936600461203c565b610ed1565b60005460405161ffff90911681526020016102c3565b6102f06104f2366004611c5d565b610f0e565b610255610505366004612018565b610faa565b61025561051836600461207f565b610fe5565b61053061052b366004612130565b61105d565b6040516102c392919061222e565b61057261054c366004611c5d565b61ffff908116600090815260096020526040902054808216926201000090910490911690565b6040805161ffff9384168152929091166020830152016102c3565b610466611125565b6102b76105a3366004612018565b6001600160a01b031660009081526003602052604090205460ff1690565b6102556105cf366004612247565b61113e565b6102556105e2366004612300565b6111b6565b6102556105f53660046123c6565b611233565b6001546001600160a01b0316610466565b6102f0610619366004611c5d565b6112ab565b6002546001600160a01b0316610466565b6102f061133b565b600061064b6001546001600160a01b031690565b9050336001600160a01b0382161461067657604051630106037360e21b815260040160405180910390fd5b600080546001600160a01b038381166201000090810262010000600160b01b0319841617845590910416906106aa906113bf565b816001600160a01b0316816001600160a01b03167f0d18b5fd22306e373229b9439188228edca81207d1667f604daf6cef8aa3ee6760405160405180910390a35050565b6000546001600160a01b03620100009091041633146107205760405163c0e22f3d60e01b815260040160405180910390fd5b805160005b8181101561076657600083828151811061074157610741612477565b6020026020010151905061075d816000015182602001516113e1565b50600101610725565b505050565b6000546001600160a01b036201000090910416331461079d5760405163c0e22f3d60e01b815260040160405180910390fd5b6107a78282611442565b5050565b6000546001600160a01b03620100009091041633146107dd5760405163c0e22f3d60e01b815260040160405180910390fd5b6107a78282611492565b60006108006107f960005461ffff1690565b84846114d4565b90505b92915050565b6000546001600160a01b036201000090910416331461083b5760405163c0e22f3d60e01b815260040160405180910390fd5b60005461ffff838116911614610863576040516217e1ef60ea1b815260040160405180910390fd5b60006108967f360894a13ba1a3210667c828492db98dca3e2076cc3735a920a3ca505d382bbc546001600160a01b031690565b90506108a182611541565b60408051600481526024810182526020810180516001600160e01b031663204a7f0760e21b179052905160009182916001600160a01b038616916108e49161248d565b600060405180830381855af49150503d806000811461091f576040519150601f19603f3d011682016040523d82523d6000602084013e610924565b606091505b50915091508161095257806040516385f11c8360e01b815260040161094991906124a9565b60405180910390fd5b836001600160a01b0316836001600160a01b03167f2e4cc16c100f0b55e2df82ab0b1a7e294aa9cbd01b48fbaf622683fbc0507a4960405160405180910390a35050505050565b6000546001600160a01b03620100009091041633146109cb5760405163c0e22f3d60e01b815260040160405180910390fd5b610766838383611581565b61ffff8116600090815260056020526040812054610803565b6000546001600160a01b0362010000909104163314610a215760405163c0e22f3d60e01b815260040160405180910390fd5b815160005b81811015610b0b576000848281518110610a4257610a42612477565b60200260200101519050806040015115610a6f57610a6f8160e00151826101600151836101800151611581565b806060015115610a8c57610a8c8160e00151826101a00151611492565b806020015115610aa957610aa98160e00151826101400151611442565b806080015115610ac657610ac68160e00151826101c001516113e1565b805115610ae657610ae68160e001518261010001518361012001516115f3565b8060a0015115610b0257610b028160e001518260c00151610c52565b50600101610a26565b50815115610b2057610b20826040015161166b565b8160200151156107665761076682606001516116c5565b61ffff83166000908152600660205260408120546000610b578583611717565b90506000610b7f610b6788610f0e565b610b7a610b738a6112ab565b8990611717565b611726565b90506000610b8d8887611732565b9050610ba8610ba5610b9f84866117a5565b83611726565b90565b9450610bd0610bb78785611726565b61ffff8a16600090815260086020526040902054101590565b610c155760405162461bcd60e51b8152602060048201526016602482015275115e18d959591cc81b585e1a5b5d5b48189d5919d95d60521b6044820152606401610949565b505050935093915050565b6000546001600160a01b0362010000909104163314610c525760405163c0e22f3d60e01b815260040160405180910390fd5b61ffff82166000908152600460205260409020805460ff19168215151790556040805161ffff8416815282151560208201527feaa35dfb768f1ccf1313ea7faae95ecba5820bf18c08a3e58cbdf3aaa4259096910160405180910390a15050565b6000546001600160a01b0362010000909104163314610ce55760405163c0e22f3d60e01b815260040160405180910390fd5b805160005b81811015610766576000838281518110610d0657610d06612477565b60200260200101519050610d27816000015182602001518360400151611581565b50600101610cea565b6000546001600160a01b0362010000909104163314610d625760405163c0e22f3d60e01b815260040160405180910390fd5b6107a782826113e1565b6000610d9f7f360894a13ba1a3210667c828492db98dca3e2076cc3735a920a3ca505d382bbc546001600160a01b031690565b9050610dc3816001600160a01b031660009081526003602052604090205460ff1690565b15610de1576040516316af21ab60e11b815260040160405180910390fd5b610e09816001600160a01b03166000908152600360205260409020805460ff19166001179055565b50565b6000546001600160a01b0362010000909104163314610e3e5760405163c0e22f3d60e01b815260040160405180910390fd5b610e09816116c5565b6000546001600160a01b0362010000909104163314610e795760405163c0e22f3d60e01b815260040160405180910390fd5b60005461ffff838116911614610ea1576040516217e1ef60ea1b815260040160405180910390fd5b6001600160a01b038116610ec85760405163867915ab60e01b815260040160405180910390fd5b6107a7816113bf565b6000546001600160a01b0362010000909104163314610f035760405163c0e22f3d60e01b815260040160405180910390fd5b6107668383836115f3565b61ffff811660009081526007602090815260408083205460069092528220548290610f3a908390611717565b90506000610f558583610f5060005461ffff1690565b6117ba565b90506fffffffffffffffffffffffffffffffff811115610fa25760405162461bcd60e51b81526020600482015260086024820152674f766572666c6f7760c01b6044820152606401610949565b949350505050565b6000546001600160a01b0362010000909104163314610fdc5760405163c0e22f3d60e01b815260040160405180910390fd5b610e098161166b565b6000546001600160a01b03620100009091041633146110175760405163c0e22f3d60e01b815260040160405180910390fd5b805160005b8181101561076657600083828151811061103857611038612477565b6020026020010151905061105481600001518260200151611492565b5060010161101c565b60006060600061106c846117ef565b9050600081801561107f5761107f6124bc565b036110ef57600061108f85611805565b905060006110a288836000015189610b37565b60408051808201825294518086526020958601839052815160009681019690965285820152606080860192909252805180860390920182526080909401909352945090925061111d915050565b8080156110fe576110fe6124bc565b6040516301959ad760e71b815260ff9091166004820152602401610949565b935093915050565b6000611139600a546001600160a01b031690565b905090565b6000546001600160a01b03620100009091041633146111705760405163c0e22f3d60e01b815260040160405180910390fd5b805160005b8181101561076657600083828151811061119157611191612477565b602002602001015190506111ad81600001518260200151610c52565b50600101611175565b6000546001600160a01b03620100009091041633146111e85760405163c0e22f3d60e01b815260040160405180910390fd5b805160005b8181101561076657600083828151811061120957611209612477565b6020026020010151905061122a8160000151826020015183604001516115f3565b506001016111ed565b6000546001600160a01b03620100009091041633146112655760405163c0e22f3d60e01b815260040160405180910390fd5b805160005b8181101561076657600083828151811061128657611286612477565b602002602001015190506112a281600001518260200151611442565b5060010161126a565b6000806112e0836112d46112cf8661ffff1660009081526006602052604090205490565b61185c565b60005461ffff166117ba565b90506affffffffffffffffffffff8111156113285760405162461bcd60e51b81526020600482015260086024820152674f766572666c6f7760c01b6044820152606401610949565b6affffffffffffffffffffff1692915050565b60007f00000000000000000000000000000000000000000000000000000000000000006001600160a01b0316631a90a2196040518163ffffffff1660e01b8152600401602060405180830381865afa15801561139b573d6000803e3d6000fd5b505050506040513d601f19601f8201168201806040525081019061113991906124d2565b600180546001600160a01b0319166001600160a01b0392909216919091179055565b6001600160c01b0381111561142b5760405162461bcd60e51b815260206004820152601060248201526f616d6f756e7420746f6f206c6172676560801b6044820152606401610949565b61ffff909116600090815260086020526040902055565b61ffff82166000908152600760205260409020546114608383611864565b604051829082907fa73b3e840df75fb07563bcc4e73041b76e761005717b548d420aee0dbfb82e8890600090a3505050565b61ffff8216600081815260056020526040808220849055518392917fca40221dbf955f8619d86581ec5e380ca9ce15f9083a0ab52909d2383d2249f691a35050565b61ffff82811660008181526009602090815260408083205488861684526006909252808320600190810154948452908320015491938181169362010000909204169161153791610ba591856115298682612501565b60008a5b94939291906118cf565b9695505050505050565b61154a81611929565b6040516001600160a01b038216907fbc7cd75a20ee27fd9adebab32041f755214dbc6bffa90cc0225b39da2e5c2d3b90600090a250565b8261ffff166000036115a657604051631b1be67360e21b815260040160405180910390fd5b816000036115c757604051630657481960e21b815260040160405180910390fd5b806000036115e857604051630f47f0ed60e31b815260040160405180910390fd5b6107668383836119ce565b61ffff838116600081815260096020908152604091829020805487861663ffffffff19909116811762010000968816968702179091558251938452908301528181019290925290517faed3d5a75b6e523af32a68084c636eb7880958755291bb890cf7c8abc107a556916060908290030190a1505050565b600280546001600160a01b0319166001600160a01b0383161790556040516001600160a01b03821681527f80ba15fb50f5b4a4de303ae58538112279fb2b00af61c4d38126265bae2944da9060200160405180910390a150565b600a80546001600160a01b0319166001600160a01b0383161790556040516001600160a01b038216907f97e1f675f69047e4b663d3b795841c629240f48eb403a6337e5367c4405737e090600090a250565b600081835b6108009190612525565b6000610800828461253c565b61ffff82811660009081526009602052604081205481549192818116926201000090920481169161179c9161176791166103a0565b61ffff871660009081526006602052604090206001015461178f61ffff808616908716612501565b61ffff861660018961152d565b95945050505050565b60008282116117b45782610800565b50919050565b61ffff83811660009081526006602052604080822060019081015493851683529082208101549192610fa292869280806118cf565b600081806020019051810190610803919061254f565b60408051602081019091526000815260008280602001905181019061182a9190612570565b8352905060ff8116156117b457604051631d4a282160e21b815260ff8216600482015260006024820152604401610949565b600081610803565b63ffffffff8111156118b85760405162461bcd60e51b815260206004820152601c60248201527f64656c697665724761734f7665726865616420746f6f206c61726765000000006044820152606401610949565b61ffff909116600090815260076020526040902055565b6000806118f58563ffffffff166118ef898b611a4290919063ffffffff16565b90611a4e565b9050600061190c8763ffffffff80881690611a4e16565b9050600061191b838387611a57565b9a9950505050505050505050565b803b61198d5760405162461bcd60e51b815260206004820152602d60248201527f455243313936373a206e657720696d706c656d656e746174696f6e206973206e60448201526c1bdd08184818dbdb9d1c9858dd609a1b6064820152608401610949565b7f360894a13ba1a3210667c828492db98dca3e2076cc3735a920a3ca505d382bbc80546001600160a01b0319166001600160a01b0392909216919091179055565b6001600160401b03821115611a255760405162461bcd60e51b815260206004820152601860248201527f676173207072696365206d757374206265203c20325e363400000000000000006044820152606401610949565b61ffff909216600090815260066020526040902090815560010155565b60006108008284612525565b6000818361171c565b60008282611a66576000611a71565b611a716001856125a4565b611a7b908661253c565b610fa291906125b7565b634e487b7160e01b600052604160045260246000fd5b604080519081016001600160401b0381118282101715611abd57611abd611a85565b60405290565b6040516101e081016001600160401b0381118282101715611abd57611abd611a85565b604051606081016001600160401b0381118282101715611abd57611abd611a85565b604051601f8201601f191681016001600160401b0381118282101715611b3057611b30611a85565b604052919050565b60006001600160401b03821115611b5157611b51611a85565b5060051b60200190565b803561ffff81168114611b6d57600080fd5b919050565b60006020808385031215611b8557600080fd5b82356001600160401b03811115611b9b57600080fd5b8301601f81018513611bac57600080fd5b8035611bbf611bba82611b38565b611b08565b81815260069190911b82018301908381019087831115611bde57600080fd5b928401925b82841015611c285760408489031215611bfc5760008081fd5b611c04611a9b565b611c0d85611b5b565b81528486013586820152825260409093019290840190611be3565b979650505050505050565b60008060408385031215611c4657600080fd5b611c4f83611b5b565b946020939093013593505050565b600060208284031215611c6f57600080fd5b61080082611b5b565b6001600160a01b0381168114610e0957600080fd5b60008060408385031215611ca057600080fd5b611ca983611b5b565b91506020830135611cb981611c78565b809150509250929050565b600080600060608486031215611cd957600080fd5b611ce284611b5b565b95602085013595506040909401359392505050565b80358015158114611b6d57600080fd5b600060808284031215611d1957600080fd5b604051608081018181106001600160401b0382111715611d3b57611d3b611a85565b604052905080611d4a83611cf7565b8152611d5860208401611cf7565b60208201526040830135611d6b81611c78565b60408201526060830135611d7e81611c78565b6060919091015292915050565b60008060a0808486031215611d9f57600080fd5b83356001600160401b03811115611db557600080fd5b8401601f81018613611dc657600080fd5b80356020611dd6611bba83611b38565b8281526101e0928302840182019282820191908a851115611df657600080fd5b948301945b84861015611f035780868c031215611e135760008081fd5b611e1b611ac3565b611e2487611cf7565b8152611e31858801611cf7565b858201526040611e42818901611cf7565b908201526060611e53888201611cf7565b908201526080611e64888201611cf7565b90820152611e73878901611cf7565b8882015260c0611e84818901611cf7565b9082015260e0611e95888201611b5b565b90820152610100611ea7888201611b5b565b90820152610120611eb9888201611b5b565b908201526101408781013590820152610160808801359082015261018080880135908201526101a080880135908201526101c0808801359082015283529485019491830191611dfb565b509650611f14905088888301611d07565b9450505050509250929050565b60008060408385031215611f3457600080fd5b611f3d83611b5b565b9150611f4b60208401611cf7565b90509250929050565b60006020808385031215611f6757600080fd5b82356001600160401b03811115611f7d57600080fd5b8301601f81018513611f8e57600080fd5b8035611f9c611bba82611b38565b81815260609182028301840191848201919088841115611fbb57600080fd5b938501935b8385101561200c5780858a031215611fd85760008081fd5b611fe0611ae6565b611fe986611b5b565b815285870135878201526040808701359082015283529384019391850191611fc0565b50979650505050505050565b60006020828403121561202a57600080fd5b813561203581611c78565b9392505050565b60008060006060848603121561205157600080fd5b61205a84611b5b565b925061206860208501611b5b565b915061207660408501611b5b565b90509250925092565b6000602080838503121561209257600080fd5b82356001600160401b038111156120a857600080fd5b8301601f810185136120b957600080fd5b80356120c7611bba82611b38565b81815260069190911b820183019083810190878311156120e657600080fd5b928401925b82841015611c2857604084890312156121045760008081fd5b61210c611a9b565b61211585611b5b565b815284860135868201528252604090930192908401906120eb565b60008060006060848603121561214557600080fd5b61214e84611b5b565b9250602080850135925060408501356001600160401b038082111561217257600080fd5b818701915087601f83011261218657600080fd5b81358181111561219857612198611a85565b6121aa601f8201601f19168501611b08565b915080825288848285010111156121c057600080fd5b80848401858401376000848284010152508093505050509250925092565b60005b838110156121f95781810151838201526020016121e1565b50506000910152565b6000815180845261221a8160208601602086016121de565b601f01601f19169290920160200192915050565b828152604060208201526000610fa26040830184612202565b6000602080838503121561225a57600080fd5b82356001600160401b0381111561227057600080fd5b8301601f8101851361228157600080fd5b803561228f611bba82611b38565b81815260069190911b820183019083810190878311156122ae57600080fd5b928401925b82841015611c2857604084890312156122cc5760008081fd5b6122d4611a9b565b6122dd85611b5b565b81526122ea868601611cf7565b81870152825260409390930192908401906122b3565b6000602080838503121561231357600080fd5b82356001600160401b0381111561232957600080fd5b8301601f8101851361233a57600080fd5b8035612348611bba82611b38565b8181526060918202830184019184820191908884111561236757600080fd5b938501935b8385101561200c5780858a0312156123845760008081fd5b61238c611ae6565b61239586611b5b565b81526123a2878701611b5b565b8782015260406123b3818801611b5b565b908201528352938401939185019161236c565b600060208083850312156123d957600080fd5b82356001600160401b038111156123ef57600080fd5b8301601f8101851361240057600080fd5b803561240e611bba82611b38565b81815260069190911b8201830190838101908783111561242d57600080fd5b928401925b82841015611c28576040848903121561244b5760008081fd5b612453611a9b565b61245c85611b5b565b81528486013586820152825260409093019290840190612432565b634e487b7160e01b600052603260045260246000fd5b6000825161249f8184602087016121de565b9190910192915050565b6020815260006108006020830184612202565b634e487b7160e01b600052602160045260246000fd5b6000602082840312156124e457600080fd5b5051919050565b634e487b7160e01b600052601160045260246000fd5b63ffffffff81811683821601908082111561251e5761251e6124eb565b5092915050565b8082028115828204841417610803576108036124eb565b80820180821115610803576108036124eb565b60006020828403121561256157600080fd5b81516001811061203557600080fd5b6000806040838503121561258357600080fd5b825160ff8116811461259457600080fd5b6020939093015192949293505050565b81810381811115610803576108036124eb565b6000826125d457634e487b7160e01b600052601260045260246000fd5b50049056fea2646970667358221220f72c086262e1992605964653385071b3131d31b07ca1d79ff3e3bfbf69d22b3a64736f6c63430008130033608060405234801561001057600080fd5b5060405161056338038061056383398101604081905261002f91610309565b818161005c60017f360894a13ba1a3210667c828492db98dca3e2076cc3735a920a3ca505d382bbd6103d7565b60008051602061051c83398151915214610078576100786103f8565b6100848282600061008d565b5050505061045d565b610096836100b9565b6000825111806100a35750805b156100b4576100b283836100f9565b505b505050565b6100c281610127565b6040516001600160a01b038216907fbc7cd75a20ee27fd9adebab32041f755214dbc6bffa90cc0225b39da2e5c2d3b90600090a250565b606061011e838360405180606001604052806027815260200161053c602791396101bf565b90505b92915050565b803b6101905760405162461bcd60e51b815260206004820152602d60248201527f455243313936373a206e657720696d706c656d656e746174696f6e206973206e60448201526c1bdd08184818dbdb9d1c9858dd609a1b60648201526084015b60405180910390fd5b60008051602061051c83398151915280546001600160a01b0319166001600160a01b0392909216919091179055565b6060833b61021e5760405162461bcd60e51b815260206004820152602660248201527f416464726573733a2064656c65676174652063616c6c20746f206e6f6e2d636f6044820152651b9d1c9858dd60d21b6064820152608401610187565b600080856001600160a01b031685604051610239919061040e565b600060405180830381855af49150503d8060008114610274576040519150601f19603f3d011682016040523d82523d6000602084013e610279565b606091505b50909250905061028a828286610296565b925050505b9392505050565b606083156102a557508161028f565b8251156102b55782518084602001fd5b8160405162461bcd60e51b8152600401610187919061042a565b634e487b7160e01b600052604160045260246000fd5b60005b838110156103005781810151838201526020016102e8565b50506000910152565b6000806040838503121561031c57600080fd5b82516001600160a01b038116811461033357600080fd5b60208401519092506001600160401b038082111561035057600080fd5b818501915085601f83011261036457600080fd5b815181811115610376576103766102cf565b604051601f8201601f19908116603f0116810190838211818310171561039e5761039e6102cf565b816040528281528860208487010111156103b757600080fd5b6103c88360208301602088016102e5565b80955050505050509250929050565b8181038181111561012157634e487b7160e01b600052601160045260246000fd5b634e487b7160e01b600052600160045260246000fd5b600082516104208184602087016102e5565b9190910192915050565b60208152600082518060208401526104498160408501602087016102e5565b601f01601f19169190910160400192915050565b60b18061046b6000396000f3fe608060405236601057600e6013565b005b600e5b601f601b6021565b6058565b565b600060537f360894a13ba1a3210667c828492db98dca3e2076cc3735a920a3ca505d382bbc546001600160a01b031690565b905090565b3660008037600080366000845af43d6000803e8080156076573d6000f35b3d6000fdfea26469706673582212200555436fd208fb46ba1bc86b0614e29cbb826d937d1a44968daab1f5cc7e239d64736f6c63430008130033360894a13ba1a3210667c828492db98dca3e2076cc3735a920a3ca505d382bbc416464726573733a206c6f772d6c6576656c2064656c65676174652063616c6c206661696c656460c060405234801561001057600080fd5b50600060405161001f906100bf565b604051809103906000f08015801561003b573d6000803e3d6000fd5b506001600160a01b03811660805260405190915061005b602082016100cc565b601f1982820381018352601f9091011660408181526001600160a01b03841660208301520160408051601f198184030181529082905261009e9291602001610109565b60408051601f19818403018152919052805160209091012060a05250610126565b61047a80610dfe83390190565b6104b68061127883390190565b6000815160005b818110156100fa57602081850181015186830152016100e0565b50600093019283525090919050565b600061011e61011883866100d9565b846100d9565b949350505050565b60805160a051610cad61015160003960006102b801526000818160d701526101d10152610cad6000f3fe6080604052600436106200004f5760003560e01c8062d762e014620000545780630a2df82614620000955780637054b48914620000ac578063e1c7392a14620000c3578063e4b73db214620000f9575b600080fd5b3480156200006157600080fd5b5062000079620000733660046200055b565b6200011e565b6040516001600160a01b03909116815260200160405180910390f35b62000079620000a6366004620005b8565b6200013f565b62000079620000bd36600462000623565b620001a0565b348015620000d057600080fd5b50620000797f000000000000000000000000000000000000000000000000000000000000000081565b3480156200010657600080fd5b506200007962000118366004620006a0565b620002a4565b600062000137620001308585620002e4565b8362000319565b949350505050565b6000806200015a34620001533387620002e4565b8562000376565b6040516001600160a01b03821681529091507f1449abf21e49fd025f33495e77f7b1461caefdd3d4bb646424a3f445c4576a5b9060200160405180910390a19392505050565b600080620002348560405180602001620001ba9062000485565b601f1982820381018352601f9091011660408181527f00000000000000000000000000000000000000000000000000000000000000006001600160a01b031660208301520160408051601f19818403018152908290526200021f929160200162000710565b6040516020818303038152906040526200013f565b604051633261ccdb60e21b81529091506001600160a01b0382169063c987336c9062000267908790879060040162000743565b600060405180830381600087803b1580156200028257600080fd5b505af115801562000297573d6000803e3d6000fd5b5092979650505050505050565b6000620002dd620002b68484620002e4565b7f000000000000000000000000000000000000000000000000000000000000000062000319565b9392505050565b60008282604051602001620002fb92919062000787565b60405160208183030381529060405280519060200120905092915050565b604080516001600160f81b03196020808301919091526bffffffffffffffffffffffff193060601b1660218301526035820185905260558083018590528351808403909101815260759092019092528051910120600090620002dd565b60008084471015620003cf5760405162461bcd60e51b815260206004820152601d60248201527f437265617465323a20696e73756666696369656e742062616c616e636500000060448201526064015b60405180910390fd5b8251600003620004225760405162461bcd60e51b815260206004820181905260248201527f437265617465323a2062797465636f6465206c656e677468206973207a65726f6044820152606401620003c6565b8383516020850187f590506001600160a01b038116620001375760405162461bcd60e51b815260206004820152601960248201527f437265617465323a204661696c6564206f6e206465706c6f79000000000000006044820152606401620003c6565b6104b680620007c283390190565b80356001600160a01b0381168114620004ab57600080fd5b919050565b634e487b7160e01b600052604160045260246000fd5b600082601f830112620004d857600080fd5b813567ffffffffffffffff80821115620004f657620004f6620004b0565b604051601f8301601f19908116603f01168101908282118183101715620005215762000521620004b0565b816040528381528660208588010111156200053b57600080fd5b836020870160208301376000602085830101528094505050505092915050565b6000806000606084860312156200057157600080fd5b6200057c8462000493565b9250602084013567ffffffffffffffff8111156200059957600080fd5b620005a786828701620004c6565b925050604084013590509250925092565b60008060408385031215620005cc57600080fd5b823567ffffffffffffffff80821115620005e557600080fd5b620005f386838701620004c6565b935060208501359150808211156200060a57600080fd5b506200061985828601620004c6565b9150509250929050565b6000806000606084860312156200063957600080fd5b833567ffffffffffffffff808211156200065257600080fd5b6200066087838801620004c6565b9450620006706020870162000493565b935060408601359150808211156200068757600080fd5b506200069686828701620004c6565b9150509250925092565b60008060408385031215620006b457600080fd5b620006bf8362000493565b9150602083013567ffffffffffffffff811115620006dc57600080fd5b6200061985828601620004c6565b60005b8381101562000707578181015183820152602001620006ed565b50506000910152565b6000835162000724818460208801620006ea565b8351908301906200073a818360208801620006ea565b01949350505050565b60018060a01b0383168152604060208201526000825180604084015262000772816060850160208701620006ea565b601f01601f1916919091016060019392505050565b6bffffffffffffffffffffffff198360601b16815260008251620007b3816014850160208701620006ea565b91909101601401939250505056fe608060405234801561001057600080fd5b506040516104b63803806104b683398101604081905261002f916102dd565b604080516000815260208101909152819061006b60017f360894a13ba1a3210667c828492db98dca3e2076cc3735a920a3ca505d382bbd610306565b60008051602061046f8339815191521461008757610087610327565b6100938282600061009b565b5050506103b0565b6100a4836100c7565b6000825111806100b15750805b156100c2576100c08383610107565b505b505050565b6100d081610135565b6040516001600160a01b038216907fbc7cd75a20ee27fd9adebab32041f755214dbc6bffa90cc0225b39da2e5c2d3b90600090a250565b606061012c838360405180606001604052806027815260200161048f602791396101cd565b90505b92915050565b803b61019e5760405162461bcd60e51b815260206004820152602d60248201527f455243313936373a206e657720696d706c656d656e746174696f6e206973206e60448201526c1bdd08184818dbdb9d1c9858dd609a1b60648201526084015b60405180910390fd5b60008051602061046f83398151915280546001600160a01b0319166001600160a01b0392909216919091179055565b6060833b61022c5760405162461bcd60e51b815260206004820152602660248201527f416464726573733a2064656c65676174652063616c6c20746f206e6f6e2d636f6044820152651b9d1c9858dd60d21b6064820152608401610195565b600080856001600160a01b0316856040516102479190610361565b600060405180830381855af49150503d8060008114610282576040519150601f19603f3d011682016040523d82523d6000602084013e610287565b606091505b5090925090506102988282866102a4565b925050505b9392505050565b606083156102b357508161029d565b8251156102c35782518084602001fd5b8160405162461bcd60e51b8152600401610195919061037d565b6000602082840312156102ef57600080fd5b81516001600160a01b038116811461029d57600080fd5b8181038181111561012f57634e487b7160e01b600052601160045260246000fd5b634e487b7160e01b600052600160045260246000fd5b60005b83811015610358578181015183820152602001610340565b50506000910152565b6000825161037381846020870161033d565b9190910192915050565b602081526000825180602084015261039c81604085016020870161033d565b601f01601f19169190910160400192915050565b60b1806103be6000396000f3fe608060405236601057600e6013565b005b600e5b601f601b6021565b6058565b565b600060537f360894a13ba1a3210667c828492db98dca3e2076cc3735a920a3ca505d382bbc546001600160a01b031690565b905090565b3660008037600080366000845af43d6000803e8080156076573d6000f35b3d6000fdfea264697066735822122092bb88b7ddf13ebd0b7fb61d3240e6fb1d290fd462b23e1bac9a17339b3b6ebd64736f6c63430008130033360894a13ba1a3210667c828492db98dca3e2076cc3735a920a3ca505d382bbc416464726573733a206c6f772d6c6576656c2064656c65676174652063616c6c206661696c6564a26469706673582212200dd8d287bdd10eaf454a72666040807b22a78e6ecd274c979d69705502c5237964736f6c63430008130033608060405234801561001057600080fd5b5061045a806100206000396000f3fe608060405234801561001057600080fd5b506004361061002b5760003560e01c8063c987336c14610030575b600080fd5b61004361003e3660046102ba565b610045565b005b61005182826000610055565b5050565b61005e83610081565b60008251118061006b5750805b1561007c5761007a83836100c1565b505b505050565b61008a816100ed565b6040516001600160a01b038216907fbc7cd75a20ee27fd9adebab32041f755214dbc6bffa90cc0225b39da2e5c2d3b90600090a250565b60606100e683836040518060600160405280602781526020016103fe60279139610197565b9392505050565b803b6101565760405162461bcd60e51b815260206004820152602d60248201527f455243313936373a206e657720696d706c656d656e746174696f6e206973206e60448201526c1bdd08184818dbdb9d1c9858dd609a1b60648201526084015b60405180910390fd5b7f360894a13ba1a3210667c828492db98dca3e2076cc3735a920a3ca505d382bbc80546001600160a01b0319166001600160a01b0392909216919091179055565b6060833b6101f65760405162461bcd60e51b815260206004820152602660248201527f416464726573733a2064656c65676174652063616c6c20746f206e6f6e2d636f6044820152651b9d1c9858dd60d21b606482015260840161014d565b600080856001600160a01b03168560405161021191906103ae565b600060405180830381855af49150503d806000811461024c576040519150601f19603f3d011682016040523d82523d6000602084013e610251565b606091505b509150915061026182828661026b565b9695505050505050565b6060831561027a5750816100e6565b82511561028a5782518084602001fd5b8160405162461bcd60e51b815260040161014d91906103ca565b634e487b7160e01b600052604160045260246000fd5b600080604083850312156102cd57600080fd5b82356001600160a01b03811681146102e457600080fd5b9150602083013567ffffffffffffffff8082111561030157600080fd5b818501915085601f83011261031557600080fd5b813581811115610327576103276102a4565b604051601f8201601f19908116603f0116810190838211818310171561034f5761034f6102a4565b8160405282815288602084870101111561036857600080fd5b8260208601602083013760006020848301015280955050505050509250929050565b60005b838110156103a557818101518382015260200161038d565b50506000910152565b600082516103c081846020870161038a565b9190910192915050565b60208152600082518060208401526103e981604085016020870161038a565b601f01601f1916919091016040019291505056fe416464726573733a206c6f772d6c6576656c2064656c65676174652063616c6c206661696c6564a2646970667358221220d45d30307f0a9ca049c6a820187e9210d414b890270164722df7ef6210ab6b7d64736f6c63430008130033608060405234801561001057600080fd5b506040516104b63803806104b683398101604081905261002f916102dd565b604080516000815260208101909152819061006b60017f360894a13ba1a3210667c828492db98dca3e2076cc3735a920a3ca505d382bbd610306565b60008051602061046f8339815191521461008757610087610327565b6100938282600061009b565b5050506103b0565b6100a4836100c7565b6000825111806100b15750805b156100c2576100c08383610107565b505b505050565b6100d081610135565b6040516001600160a01b038216907fbc7cd75a20ee27fd9adebab32041f755214dbc6bffa90cc0225b39da2e5c2d3b90600090a250565b606061012c838360405180606001604052806027815260200161048f602791396101cd565b90505b92915050565b803b61019e5760405162461bcd60e51b815260206004820152602d60248201527f455243313936373a206e657720696d706c656d656e746174696f6e206973206e60448201526c1bdd08184818dbdb9d1c9858dd609a1b60648201526084015b60405180910390fd5b60008051602061046f83398151915280546001600160a01b0319166001600160a01b0392909216919091179055565b6060833b61022c5760405162461bcd60e51b815260206004820152602660248201527f416464726573733a2064656c65676174652063616c6c20746f206e6f6e2d636f6044820152651b9d1c9858dd60d21b6064820152608401610195565b600080856001600160a01b0316856040516102479190610361565b600060405180830381855af49150503d8060008114610282576040519150601f19603f3d011682016040523d82523d6000602084013e610287565b606091505b5090925090506102988282866102a4565b925050505b9392505050565b606083156102b357508161029d565b8251156102c35782518084602001fd5b8160405162461bcd60e51b8152600401610195919061037d565b6000602082840312156102ef57600080fd5b81516001600160a01b038116811461029d57600080fd5b8181038181111561012f57634e487b7160e01b600052601160045260246000fd5b634e487b7160e01b600052600160045260246000fd5b60005b83811015610358578181015183820152602001610340565b50506000910152565b6000825161037381846020870161033d565b9190910192915050565b602081526000825180602084015261039c81604085016020870161033d565b601f01601f19169190910160400192915050565b60b1806103be6000396000f3fe608060405236601057600e6013565b005b600e5b601f601b6021565b6058565b565b600060537f360894a13ba1a3210667c828492db98dca3e2076cc3735a920a3ca505d382bbc546001600160a01b031690565b905090565b3660008037600080366000845af43d6000803e8080156076573d6000f35b3d6000fdfea264697066735822122092bb88b7ddf13ebd0b7fb61d3240e6fb1d290fd462b23e1bac9a17339b3b6ebd64736f6c63430008130033360894a13ba1a3210667c828492db98dca3e2076cc3735a920a3ca505d382bbc416464726573733a206c6f772d6c6576656c2064656c65676174652063616c6c206661696c656460c06040523480156200001157600080fd5b5060405162005713380380620057138339810160408190526200003491620000b7565b6001600160a01b038116608081905260408051634d4502c960e11b81529051839291639a8a05929160048083019260209291908290030181865afa15801562000081573d6000803e3d6000fd5b505050506040513d601f19601f82011682018060405250810190620000a79190620000e9565b61ffff1660a052506200010f9050565b600060208284031215620000ca57600080fd5b81516001600160a01b0381168114620000e257600080fd5b9392505050565b600060208284031215620000fc57600080fd5b815161ffff81168114620000e257600080fd5b60805160a0516155986200017b60003960008181610f6801528181612fac01528181612ff30152613ab2015260008181610d120152818161214b015281816125d20152818161271101528181612b7d01528181612c3601528181612cfc0152612f0c01526155986000f3fe60806040526004361061019c5760003560e01c80634d48ec60116100ec578063a60eb4c81161008a578063b686d08911610064578063b686d089146104a3578063c23ee3c3146104b6578063c4d66de8146104d6578063c81fb7fe146104f657600080fd5b8063a60eb4c81461044f578063a79629d814610462578063b1eac8751461049057600080fd5b806375ea8b58116100c657806375ea8b58146103e157806380ebabd0146103f45780638b0301b1146104295780638fecdd021461043c57600080fd5b80634d48ec601461037f5780635cb8cae21461039257806360004157146103b257600080fd5b8063329a2be7116101595780633e8267e7116101335780633e8267e7146102e95780633ed334df146103395780634533e5ff146103595780634b5ca6f41461036c57600080fd5b8063329a2be71461029857806332b2fc0e146102c35780633a2c767d146102d657600080fd5b80631d6bd5aa146101a15780632385904a146101e657806324320c9f1461021457806328b1d852146102415780632936558f146102635780632c75470f14610283575b600080fd5b3480156101ad57600080fd5b506101c16101bc366004613ea2565b610509565b604080516001600160a01b039384168152929091166020830152015b60405180910390f35b3480156101f257600080fd5b50610206610201366004613edf565b61064b565b6040519081526020016101dd565b34801561022057600080fd5b506102296106cb565b6040516001600160a01b0390911681526020016101dd565b34801561024d57600080fd5b5061026161025c366004614052565b6106e7565b005b34801561026f57600080fd5b5061022961027e366004613ea2565b610723565b34801561028f57600080fd5b5061026161076f565b6102ab6102a636600461419a565b610780565b6040516001600160401b0390911681526020016101dd565b6102ab6102d1366004614234565b6107b1565b6102ab6102e4366004614311565b6107dc565b3480156102f557600080fd5b50610206610304366004613ea2565b61ffff1660009081527f9e4e57806ba004485cfae8ca22fb13380f01c10b1b0ccf48c20464961643cf6d602052604090205490565b34801561034557600080fd5b50610261610354366004614052565b610829565b6102616103673660046143fc565b61087f565b6102ab61037a36600461446f565b6108fa565b61026161038d366004614311565b610967565b34801561039e57600080fd5b506102616103ad366004614052565b6109eb565b3480156103be57600080fd5b506103d26103cd366004614595565b610ab1565b6040516101dd939291906146c7565b6102616103ef3660046146f2565b610c0e565b34801561040057600080fd5b5061041461040f3660046147a4565b610c76565b604080519283526020830191909152016101dd565b6102ab6104373660046147ee565b610cbf565b6102ab61044a3660046143fc565b610cee565b61026161045d36600461484c565b610d0c565b34801561046e57600080fd5b5061048261047d3660046148e8565b610fd2565b6040516101dd929190614948565b61026161049e36600461419a565b611063565b6102ab6104b1366004614961565b611092565b3480156104c257600080fd5b506104146104d13660046149d2565b6112b9565b3480156104e257600080fd5b506102616104f1366004614a07565b6112d7565b6102ab6105043660046146f2565b61132e565b60008061053d7f1a2a8eb52f1d00a1242a3f8cc031e30a32870ff64f69009c4e06f75bd842fd23546001600160a01b031690565b91506001600160a01b03821615806105be57506040516328f41de360e01b815261ffff841660048201526001600160a01b038316906328f41de390602401602060405180830381865afa158015610598573d6000803e3d6000fd5b505050506040513d601f19601f820116820180604052508101906105bc9190614a34565b155b156105ce576105cb6106cb565b91505b604051633d77cbfd60e01b815261ffff84166004820152610644906001600160a01b03841690633d77cbfd906024015b602060405180830381865afa15801561061b573d6000803e3d6000fd5b505050506040513d601f19601f8201168201806040525081019061063f9190614a4f565b611398565b9050915091565b604051630cbcf9e160e21b815261ffff84166004820152602481018390526000906001600160a01b038316906332f3e78490604401602060405180830381865afa15801561069d573d6000803e3d6000fd5b505050506040513d601f19601f820116820180604052508101906106c19190614a4f565b90505b9392505050565b600080516020615543833981519152546001600160a01b031690565b60006106f2826113c4565b60008051602061554383398151915280546001600160a01b0319166001600160a01b03929092169190911790555050565b600061076960008051602061554383398151915254604051633d77cbfd60e01b815261ffff851660048201526001600160a01b0390911690633d77cbfd906024016105fe565b92915050565b33301461077e5761077e614a68565b565b60006107a6878787876000888d6107968f610723565b61079e6106cb565b8b600f6107dc565b979650505050505050565b60006107cf8989898960008a89896107c76106cb565b8d600f6107dc565b9998505050505050505050565b60006108198c6001600160a01b038d168c8c8c61080660405180602001604052808f815250611410565b8c6001600160a01b038d168c8c8c61132e565b9c9b505050505050505050505050565b60008061083583611441565b91509150806108617f9e4e57806ba004485cfae8ca22fb13380f01c10b1b0ccf48c20464961643cf6d90565b61ffff90931660009081526020939093526040909220919091555050565b60008061088b87610509565b90925090506108f18787878760008885888a846040519080825280602002602001820160405280156108e957816020015b60408051606081018252600080825260208083018290529282015282526000199092019101816108bc5790505b50600f610967565b50505050505050565b600061095b8888888860008989896109106106cb565b6040805160008082526020820190925290610953565b60408051606081018252600080825260208083018290529282015282526000199092019101816109265790505b50600f6107dc565b98975050505050505050565b6001600160a01b0383166109a3577f1a2a8eb52f1d00a1242a3f8cc031e30a32870ff64f69009c4e06f75bd842fd23546001600160a01b031692505b6109de8b6001600160a01b038c168b8b8b6109cb60405180602001604052808e815250611410565b8b6001600160a01b038c168b8b8b610c0e565b5050505050505050505050565b60006109f68261148c565b9050610a01816114a9565b60408051600481526024810182526020810180516001600160e01b0316632c75470f60e01b179052905160009182913091610a3b91614a7e565b6000604051808303816000865af19150503d8060008114610a78576040519150601f19603f3d011682016040523d82523d6000602084013e610a7d565b606091505b509150915081610aab578060405163135687c760e31b8152600401610aa29190614a9a565b60405180910390fd5b50505050565b6000806060333014610ad65760405163390996ad60e11b815260040160405180910390fd5b600084606001519050600080610aef8760200151611398565b6040808901516101008a015160c08b01518b5160e08d01519451959650600095610b1c9590602401614b02565b60408051601f198184030181529190526020810180516001600160e01b031663294ee51960e11b179052905060005a9050610b5f83838760808d015160846114e9565b9650935060005a9050610b7c86610b768484611530565b9061153c565b9750505050508015610c0057604080516000808252602082019092527f1a2a8eb52f1d00a1242a3f8cc031e30a32870ff64f69009c4e06f75bd842fd2480549297509094509015610bfa576000610be7610be48960a00151610bde878a611530565b90611552565b90565b9050610bf486828461155e565b60039650505b50610c05565b600194505b50509193909250565b6109de6040518061016001604052808d61ffff1681526020018c81526020018b81526020018a81526020018981526020018881526020018761ffff168152602001868152602001856001600160a01b031681526020018481526020018360ff16815250611a9b565b600080600080610c9e8888610c9860405180602001604052808b815250611410565b88610fd2565b91509150819350610cae81611e21565b602001519250505094509492505050565b6000610ce4868686610cde604051806020016040528089815250611410565b86611092565b9695505050505050565b6000610ce4868686866000878c610d048e610723565b6109106106cb565b600080807f00000000000000000000000000000000000000000000000000000000000000006001600160a01b031663c0fd8bde876040518263ffffffff1660e01b8152600401610d5c9190614a9a565b600060405180830381865afa158015610d79573d6000803e3d6000fd5b505050506040513d6000823e601f3d908101601f19168201604052610da19190810190614d8a565b92509250925081610dc7578060405163b72c3b7f60e01b8152600401610aa29190614a9a565b606083015161ffff1660009081527f9e4e57806ba004485cfae8ca22fb13380f01c10b1b0ccf48c20464961643cf6d602052604090205460808401518114610e405760808401516060850151604051633bb6036760e11b815260048101929092526024820183905261ffff166044820152606401610aa2565b6000610e4f8560e00151611e8d565b9050610e74610e618260200151611398565b610e6f836101000151611398565b611faa565b6000604051806101600160405280876060015161ffff1681526020018760a001516001600160401b031681526020018761014001518152602001896001600160a01b031681526020018b81526020018381526020016000815260200160008152602001600081526020018881526020016000801b8152509050610ef78288612040565b61014085015261010084015260e0830181905260c08301829052600091610f3591610be491610f2591611552565b610100850151612100565b612100565b905034811115610f6057604051620885af60e61b815234600482015260248101829052604401610aa2565b825161ffff167f000000000000000000000000000000000000000000000000000000000000000061ffff1614610fb257825160405163d8215fc960e01b815261ffff9091166004820152602401610aa2565b610fc18361016001518c61210c565b610fca82612291565b6109de612542565b600060606000839050600080826001600160a01b031663b9e75e668a8a8a6040518463ffffffff1660e01b815260040161100e93929190614e11565b600060405180830381865afa15801561102b573d6000803e3d6000fd5b505050506040513d6000823e601f3d908101601f191682016040526110539190810190614e34565b909a909950975050505050505050565b60008061106f88610509565b91509150611088888888886000898e888a8c600f610967565b5050505050505050565b6040516328f41de360e01b815261ffff8516600482015260009082906001600160a01b038216906328f41de390602401602060405180830381865afa1580156110df573d6000803e3d6000fd5b505050506040513d601f19601f820116820180604052508101906111039190614a34565b611135576040516366b69b9d60e01b81526001600160a01b038416600482015261ffff87166024820152604401610aa2565b600080826001600160a01b031663b9e75e668989896040518463ffffffff1660e01b815260040161116893929190614e11565b600060405180830381865afa158015611185573d6000803e3d6000fd5b505050506040513d6000823e601f3d908101601f191682016040526111ad9190810190614e34565b9150915060006111bb6125ce565b90506111c981846000612657565b60006112126040518060c001604052808d81526020018c61ffff1681526020018b81526020018581526020016112058a6001600160a01b031690565b81526020013390526126a8565b90506000611287838660008560c88b6001600160a01b031663bf9321fc6040518163ffffffff1660e01b8152600401602060405180830381865afa15801561125e573d6000803e3d6000fd5b505050506040513d601f19601f820116820180604052508101906112829190614e7a565b61270c565b9097509050806112aa576040516304aeb27d60e51b815260040160405180910390fd5b50505050505095945050505050565b6000806112ca85858561040f6106cb565b915091505b935093915050565b60005460ff16156112ea576112ea614a68565b6000805460ff191660011790558061130d60008051602061554383398151915290565b80546001600160a01b0319166001600160a01b039290921691909117905550565b60006108196040518061016001604052808e61ffff1681526020018d81526020018c81526020018b81526020018a81526020018981526020018861ffff168152602001878152602001866001600160a01b031681526020018581526020018460ff1681525061280b565b600060a082901c156113c05760405163033b960d60e41b815260048101839052602401610aa2565b5090565b6000806113d083612b75565b905060006113e18260036001612e5e565b905060006113ef838361302a565b925090506113fc81611398565b93506114088383613050565b505050919050565b6060600082516040805160ff90931660208401528201526060015b6040516020818303038152906040529050919050565b600080600061144f84612b75565b9050600061145f82600180612e5e565b60028184018101519550019050611476828261302a565b90935090506114858282613050565b5050915091565b60008061149883612b75565b905060006113e18260026000612e5e565b6114b281613082565b6040516001600160a01b038216907fbc7cd75a20ee27fd9adebab32041f755214dbc6bffa90cc0225b39da2e5c2d3b90600090a250565b83516040516000916020808301908801858284838a8e8df19450503d80861060018103611514578691505b50808452601f01601f1916016040525090969095509350505050565b60006106c48284614ead565b600082821161154b57816106c4565b5090919050565b60006106c48284614ec0565b60006115686125ce565b82549091506000906001600160401b0381111561158757611587613f21565b6040519080825280602002602001820160405280156115c057816020015b6115ad613d79565b8152602001906001900390816115a55790505b50905060008060005b855481101561173e576115ff838783815481106115e8576115e8614ed7565b906000526020600020906005020160010154612100565b92506116b586828154811061161657611616614ed7565b9060005260206000209060050201600001805461163290614eed565b80601f016020809104026020016040519081016040528092919081815260200182805461165e90614eed565b80156116ab5780601f10611680576101008083540402835291602001916116ab565b820191906000526020600020905b81548152906001019060200180831161168e57829003601f168201915b5050505050611e8d565b8482815181106116c7576116c7614ed7565b602002602001018190525061173461172e611705848985815481106116ee576116ee614ed7565b906000526020600020906005020160020154612100565b88848154811061171757611717614ed7565b906000526020600020906005020160030154612100565b86612100565b91506001016115c9565b50600061174b8784612100565b90508181101561177f576040516385880e2960e01b8152600481018990526024810182905260448101839052606401610aa2565b60006117a98560008151811061179757611797614ed7565b60200260200101516101200151611398565b6001600160a01b03166332f3e784866000815181106117ca576117ca614ed7565b6020026020010151600001516117e08587611530565b6040516001600160e01b031960e085901b16815261ffff90921660048301526024820152604401602060405180830381865afa925050508015611840575060408051601f3d908101601f1916820190925261183d91810190614a4f565b60015b61186057604051632baa6b8960e11b8152600481018a9052602401610aa2565b905061188a8560008151811061187857611878614ed7565b60200260200101516080015182612100565b8560008151811061189d5761189d614ed7565b6020026020010151608001818152505060005b8754811015611a8f576000611a62888a84815481106118d1576118d1614ed7565b9060005260206000209060050201600201546119238c86815481106118f8576118f8614ed7565b90600052602060002090600502016003015486600014611919576000612100565b610f30898b611530565b85156119da578c868154811061193b5761193b614ed7565b9060005260206000209060050201600001805461195790614eed565b80601f016020809104026020016040519081016040528092919081815260200182805461198390614eed565b80156119d05780601f106119a5576101008083540402835291602001916119d0565b820191906000526020600020905b8154815290600101906020018083116119b357829003601f168201915b50505050506119fd565b6119fd8b6000815181106119f0576119f0614ed7565b602002602001015161310d565b8d8781548110611a0f57611a0f614ed7565b906000526020600020906005020160040160149054906101000a900460ff168e8881548110611a4057611a40614ed7565b60009182526020909120600460059092020101546001600160a01b031661270c565b91505080611a86576040516336e7e91f60e11b8152600481018c9052602401610aa2565b506001016118b0565b50505050505050505050565b611aa36131a7565b61010081015181516040516328f41de360e01b815261ffff90911660048201526001600160a01b038216906328f41de390602401602060405180830381865afa158015611af4573d6000803e3d6000fd5b505050506040513d601f19601f82011682018060405250810190611b189190614a34565b611b525761010082015182516040516366b69b9d60e01b81526001600160a01b03909216600483015261ffff166024820152604401610aa2565b8151606083015160a0840151604051635cf3af3360e11b815260009384936001600160a01b0387169363b9e75e6693611b9093929190600401614e11565b600060405180830381865afa158015611bad573d6000803e3d6000fd5b505050506040513d6000823e601f3d908101601f19168201604052611bd59190810190614e34565b915091506000611d6d604051806101800160405280876000015161ffff168152602001876020015181526020018760400151815260200187606001518152602001866001600160a01b03166332f3e78489600001518a608001516040518363ffffffff1660e01b8152600401611c5b92919061ffff929092168252602082015260400190565b602060405180830381865afa158015611c78573d6000803e3d6000fd5b505050506040513d601f19601f82011682018060405250810190611c9c9190614a4f565b81526020018481526020018760c0015161ffff1681526020018760e001518152602001866001600160a01b0316633d77cbfd89600001516040518263ffffffff1660e01b8152600401611cf9919061ffff91909116815260200190565b602060405180830381865afa158015611d16573d6000803e3d6000fd5b505050506040513d601f19601f82011682018060405250810190611d3a9190614a4f565b8152602001611d548861010001516001600160a01b031690565b815260200133815260200187610120015181525061310d565b9050611e1a6040518060c0016040528083815260200134815260200185815260200187608001518152602001866001600160a01b031663bf9321fc6040518163ffffffff1660e01b8152600401602060405180830381865afa158015611dd7573d6000803e3d6000fd5b505050506040513d601f19601f82011682018060405250810190611dfb9190614e7a565b6001600160a01b0316815260200187610140015160ff16815250613230565b5050505050565b6040805180820190915260008082526020820152600082806020019051810190611e4b9190614f21565b60208501528352905060ff811615611e87578060005b60405163c1f4bdd960e01b815260ff928316600482015291166024820152604401610aa2565b50919050565b611e95613d79565b6000611ea483600060016132f3565b9050600080611ebc8584600291810182015192910190565b61ffff90911685529250611ed0858461302a565b60208601919091529250611ee48584613348565b6040868101929092528681016020810151908301519190920194509092509050611f0e8584613348565b60a0860191909152600286820181015161ffff1660c0870152019250611f34858461302a565b60e08601919091529250611f48858461302a565b6101008601919091529250611f5d858461302a565b6101208601919091529250611f72858461302a565b6101408601919091529250611f878584613384565b610160860191909152606085018390526080850182905292506114088584613050565b7f1a2a8eb52f1d00a1242a3f8cc031e30a32870ff64f69009c4e06f75bd842fd22805460ff16156120065780546040516320b84ced60e01b81523360048201526101009091046001600160a01b03166024820152604401610aa2565b805460016001600160a81b03199091166101006001600160a01b039586160217811782550180546001600160a01b03191691909216179055565b60008060008060006120558760a00151613452565b9050600081801561206857612068614b49565b146120835780801561207c5761207c614b49565b6000611e61565b60006120928860a00151611e21565b905086516000146120d35760006120a888613468565b90506120b9896060015183836134f5565b60608b0191909152600060808b0152604090910151935090505b80600001519550806020015194506120f388606001518960800151612100565b9350505092959194509250565b60006106c48284614f58565b805182511461213b57815181516040516316bde1ed60e31b815260048101929092526024820152604401610aa2565b60005b825181101561228c5760007f00000000000000000000000000000000000000000000000000000000000000006001600160a01b031663a9e1189384848151811061218a5761218a614ed7565b60200260200101516040518263ffffffff1660e01b81526004016121ae9190614a9a565b600060405180830381865afa1580156121cb573d6000803e3d6000fd5b505050506040513d6000823e601f3d908101601f191682016040526121f39190810190614f6b565b9050600084838151811061220957612209614ed7565b60200260200101519050816060015161ffff16816000015161ffff1614158061223a57508160800151816020015114155b8061225f57508160a001516001600160401b031681604001516001600160401b031614155b1561228257604051633ad7858760e21b815260ff84166004820152602401610aa2565b505060010161213e565b505050565b61229a816135fc565b156122a25750565b60408051606080820183526000808352602083015291810191909152306001600160a01b03166360004157604051806101200160405280856000015161ffff1681526020018560a001516020015181526020018560a001516040015181526020018560c00151815260200185610100015181526020018560e0015181526020018560a00151610140015181526020018560400151815260200185608001518152506040518263ffffffff1660e01b815260040161235f9190614f9f565b6000604051808303816000875af192505050801561239f57506040513d6000823e601f3d908101601f1916820160405261239c919081019061502f565b60015b61241d573d8080156123cd576040519150601f19603f3d011682016040523d82523d6000602084013e6123d2565b606091505b506000806123df836136d8565b8093508192505050604051806060016040528083612401578660c00151612403565b825b815260200160028152602001848152509350505050612462565b60405180606001604052808381526020018460ff16600381111561244357612443614b49565b600381111561245457612454614b49565b815260200191909152925050505b81602001516001600160401b0316826000015161ffff1661248a8460a0015160200151611398565b6001600160a01b03167fbccc00b713f54173962e7de6098f643d8ebf53d488d71f4b2a5171496d038f9e8560400151856020015186600001516124f78960a001518a606001516124ed610be48d60e00151610bde8f60c001518f60000151611530565b8b60200151613763565b60408901516101408b015160000361251d57604080516000815260208101909152612524565b8a61012001515b6040516125369695949392919061507e565b60405180910390a45050565b7f1a2a8eb52f1d00a1242a3f8cc031e30a32870ff64f69009c4e06f75bd842fd2280546001600160a81b03191681557f1a2a8eb52f1d00a1242a3f8cc031e30a32870ff64f69009c4e06f75bd842fd2380546001600160a01b03191690556125cb7f1a2a8eb52f1d00a1242a3f8cc031e30a32870ff64f69009c4e06f75bd842fd246000613ddc565b50565b60007f00000000000000000000000000000000000000000000000000000000000000006001600160a01b0316631a90a2196040518163ffffffff1660e01b8152600401602060405180830381865afa15801561262e573d6000803e3d6000fd5b505050506040513d601f19601f820116820180604052508101906126529190614a4f565b905090565b61266d3461266861172e8585612100565b141590565b1561228c57346126866126808484612100565b85612100565b604051631f89f67160e01b815260048101929092526024820152604401610aa2565b606060006126b98360000151613883565b9050600281846020015185604001516126d587606001516138ab565b87608001518860a001516040516020016126f597969594939291906150db565b604051602081830303815290604052915050919050565b6000807f00000000000000000000000000000000000000000000000000000000000000006001600160a01b031663b19a437e89600088886040518563ffffffff1660e01b81526004016127619392919061514a565b60206040518083038185885af115801561277f573d6000803e3d6000fd5b50505050506040513d601f19601f820116820180604052508101906127a4919061517c565b91506127b9836127b48989612100565b6138c1565b60408051898152602081018990529192506001600160401b038416917fda8540426b64ece7b164a9dce95448765f0a7263ef3ff85091c9c7361e485364910160405180910390a2965096945050505050565b61010081015181516040516328f41de360e01b815261ffff9091166004820152600091906001600160a01b038216906328f41de390602401602060405180830381865afa158015612860573d6000803e3d6000fd5b505050506040513d601f19601f820116820180604052508101906128849190614a34565b6128be5761010083015183516040516366b69b9d60e01b81526001600160a01b03909216600483015261ffff166024820152604401610aa2565b8251606084015160a0850151604051635cf3af3360e11b815260009384936001600160a01b0387169363b9e75e66936128fc93929190600401614e11565b600060405180830381865afa158015612919573d6000803e3d6000fd5b505050506040513d6000823e601f3d908101601f191682016040526129419190810190614e34565b91509150600061294f6125ce565b905061296081848860800151612657565b6000612af4604051806101800160405280896000015161ffff168152602001896020015181526020018960400151815260200189606001518152602001876001600160a01b03166332f3e7848b600001518c608001516040518363ffffffff1660e01b81526004016129e292919061ffff929092168252602082015260400190565b602060405180830381865afa1580156129ff573d6000803e3d6000fd5b505050506040513d601f19601f82011682018060405250810190612a239190614a4f565b81526020018581526020018960c0015161ffff1681526020018960e001518152602001876001600160a01b0316633d77cbfd8b600001516040518263ffffffff1660e01b8152600401612a80919061ffff91909116815260200190565b602060405180830381865afa158015612a9d573d6000803e3d6000fd5b505050506040513d601f19601f82011682018060405250810190612ac19190614a4f565b8152602001612adb8a61010001516001600160a01b031690565b815260200133815260200189610120015181525061310d565b90506000612b4783868a60800151858c61014001518b6001600160a01b031663bf9321fc6040518163ffffffff1660e01b8152600401602060405180830381865afa15801561125e573d6000803e3d6000fd5b909750905080612b6a576040516304aeb27d60e51b815260040160405180910390fd5b505050505050919050565b6060600080807f00000000000000000000000000000000000000000000000000000000000000006001600160a01b031663c0fd8bde866040518263ffffffff1660e01b8152600401612bc79190614a9a565b600060405180830381865afa158015612be4573d6000803e3d6000fd5b505050506040513d6000823e601f3d908101601f19168201604052612c0c9190810190614d8a565b92509250925081612c325780604051630169d68560e71b8152600401610aa29190614a9a565b60007f00000000000000000000000000000000000000000000000000000000000000006001600160a01b031663fbe3c2cd6040518163ffffffff1660e01b8152600401602060405180830381865afa158015612c92573d6000803e3d6000fd5b505050506040513d601f19601f82011682018060405250810190612cb69190615199565b90508061ffff16846060015161ffff1614612cf857606084015160405163c97817ed60e01b815261ffff91821660048201529082166024820152604401610aa2565b60007f00000000000000000000000000000000000000000000000000000000000000006001600160a01b031663b172b2226040518163ffffffff1660e01b8152600401602060405180830381865afa158015612d58573d6000803e3d6000fd5b505050506040513d601f19601f82011682018060405250810190612d7c9190614a4f565b905080856080015114612db25760808501516040516342852f8d60e11b8152600481019190915260248101829052604401610aa2565b61014085015160009081527f970ad24d4754c92e299cabb86552091f5df0a15abc0f1b71f37d3e30031585dc602052604090205460ff168015612e11578561014001516040516364cbf47160e01b8152600401610aa291815260200190565b5050505061014082015160009081527f970ad24d4754c92e299cabb86552091f5df0a15abc0f1b71f37d3e30031585dc60205260409020805460ff191660011790555060e0015192915050565b600080612e6b858261302a565b925090506a436f726552656c617965728114612eae57604051633d254c6160e01b8152600481018290526a436f726552656c617965726024820152604401610aa2565b600185830181015192019160ff80821690861614612eec57604051633460202560e21b815260ff808316600483015286166024820152604401610aa2565b600286840181015193019261ffff8116158015612f065750845b613020577f00000000000000000000000000000000000000000000000000000000000000006001600160a01b031663e039f2246040518163ffffffff1660e01b8152600401602060405180830381865afa158015612f68573d6000803e3d6000fd5b505050506040513d601f19601f82011682018060405250810190612f8c9190614a34565b15612faa5760405163ea03b6eb60e01b815260040160405180910390fd5b7f000000000000000000000000000000000000000000000000000000000000000061ffff168161ffff16146130205760405163901f6ae360e01b815261ffff80831660048301527f0000000000000000000000000000000000000000000000000000000000000000166024820152604401610aa2565b5050509392505050565b6000806000806130438686602091810182015192910190565b9097909650945050505050565b8082511461307e57815160405163061bc83560e51b8152600481019190915260248101829052604401610aa2565b5050565b803b6130e65760405162461bcd60e51b815260206004820152602d60248201527f455243313936373a206e657720696d706c656d656e746174696f6e206973206e60448201526c1bdd08184818dbdb9d1c9858dd609a1b6064820152608401610aa2565b807f360894a13ba1a3210667c828492db98dca3e2076cc3735a920a3ca505d382bbc61130d565b606060018260000151836020015161312885604001516138ab565b85606001518660800151604051602001613147969594939291906151b6565b6040516020818303038152906040529050806131668360a001516138ab565b8360c001518460e001518561010001518661012001518761014001516131908961016001516138fc565b60405160200161142b989796959493929190615209565b7f1a2a8eb52f1d00a1242a3f8cc031e30a32870ff64f69009c4e06f75bd842fd22805460ff166131e95760405162f1e13160e51b815260040160405180910390fd5b805461010090046001600160a01b031633146125cb5780546040516313f32dd760e31b81523360048201526101009091046001600160a01b03166024820152604401610aa2565b7f1a2a8eb52f1d00a1242a3f8cc031e30a32870ff64f69009c4e06f75bd842fd248054600181018255600091909152815182916005027fd8a7a0d529d70a9a6f145a4d9c275cbe27b1f5cb234c12825e21723f79347fad0190819061329590826152cd565b5060208201516001820155604082015160028201556060820151600382015560808201516004909101805460a09093015160ff16600160a01b026001600160a81b03199093166001600160a01b039092169190911791909117905550565b6000806133098585600191810182015192910190565b9250905060ff8082169084161461334057604051633ce5fedf60e11b815260ff808316600483015284166024820152604401610aa2565b509392505050565b60606000806133608585600491810182015192910190565b92509050613378858363ffffffff808516906139a116565b90969095509350505050565b606060008061339c8585600191810182015192910190565b9250905060ff81166001600160401b038111156133bb576133bb613f21565b60405190808252806020026020018201604052801561340657816020015b60408051606081018252600080825260208083018290529282015282526000199092019101816133d95790505b50925060005b83518110156134495761341f8684613a15565b85838151811061343157613431614ed7565b6020908102919091010191909152925060010161340c565b50509250929050565b600081806020019051810190610769919061538c565b61348f60405180606001604052806000815260200160608152602001600080191681525090565b600061349e83600060016132f3565b905060006134b58483602091810182015192910190565b925090506134c38483613348565b602085019190915291506134d7848361302a565b604085019190915281845291506134ee8483613050565b5050919050565b6000613514604051806040016040528060008152602001600081525090565b848351101561353657604051631c6e090160e31b815260040160405180910390fd5b60006135458460200151613452565b905080801561355657613556614b49565b1561359257600081801561356c5761356c614b49565b60405163170cd96160e11b815260ff928316600482015291166024820152604401610aa2565b61359f8460200151611e21565b84516020870151909450909250602083015110156135d05760405163067dbecf60e11b815260040160405180910390fd5b8151855111156135f3576040516315fc687d60e31b815260040160405180910390fd5b50935093915050565b60a08101516020015160009081036136d35781602001516001600160401b0316826000015161ffff166136368460a0015160200151611398565b6001600160a01b03167fbccc00b713f54173962e7de6098f643d8ebf53d488d71f4b2a5171496d038f9e856040015160008061367e8960a001518a6060015160006001613763565b604080516020810190915260008082526101408c015190036136ae576040805160008152602081019091526136b5565b8a61012001515b6040516136c79695949392919061507e565b60405180910390a45060015b919050565b6000806000806024855110156136f5575060009485945092505050565b6136ff8583613a83565b925090506001600160e01b031981166385880e2960e01b148061373257506001600160e01b03198116632baa6b8960e11b145b8061374d57506001600160e01b031981166336e7e91f60e11b145b1561148557509092016020015192600192509050565b600080600283600381111561377a5761377a614b49565b14806137975750600183600381111561379557613795614b49565b145b156137b7576137b4610be4610be488606001518960800151612100565b90505b60006137e38260038660038111156137d1576137d1614b49565b146137dc5786612100565b6000612100565b90506137fe8760c001518860e00151838a6101000151613aae565b925080600084600481111561381557613815614b49565b14806138325750600284600481111561383057613830614b49565b145b1561383b575060005b6000613848898884613d49565b9050600061385689836138c1565b905080613876576040516304aeb27d60e51b815260040160405180910390fd5b5050505050949350505050565b606080600183600001518460200151856040015160405160200161142b9594939291906153ad565b606081518260405160200161142b92919061540e565b60008180156138f0576040805160008152602081019091526138e89085905a8460006114e9565b5091506138f5565b600191505b5092915050565b606060ff801682511061391157613911614a68565b8151604051602001613936919060f89190911b6001600160f81b031916815260010190565b604051602081830303815290604052905060005b8251811015611e87578161397684838151811061396957613969614ed7565b6020026020010151613883565b604051602001613987929190615440565b60408051601f19818403018152919052915060010161394a565b60606000826000036139c4575050604080516000815260208101909152826112cf565b5050604051828201601f8316806139d9575060205b80830184810186838901015b818310156139fd5780518352602092830192016139e5565b5050848452601f01601f191660405250935093915050565b6040805160608101825260008082526020820181905291810182905290613a3e848460016132f3565b600281860181015161ffff168452019050613a59848261302a565b602084019190915260089481018501516001600160401b0316604084015291949390910192915050565b600080600080613a9c8686600491810182015192910190565b60e09190911b97909650945050505050565b60007f000000000000000000000000000000000000000000000000000000000000000061ffff168561ffff1603613b0657613af1613aeb85611398565b846138c1565b613afc576001613aff565b60005b9050613d41565b6000613b1183611398565b90506000816001600160a01b031663b9e75e66886000613b44613b3f60408051602081019091526000815290565b611410565b6040518463ffffffff1660e01b8152600401613b6293929190614e11565b600060405180830381865afa925050508015613ba057506040513d6000823e601f3d908101601f19168201604052613b9d9190810190614e34565b60015b613be0573d808015613bce576040519150601f19603f3d011682016040523d82523d6000602084013e613bd3565b606091505b5060039350505050613d41565b509050613bfd85613bf8613bf26125ce565b84612100565b101590565b15613c0d57600492505050613d41565b3063c81fb7fe86604080516020810190915260008082528b9181613c41613c3b8d613c366125ce565b611530565b89611530565b613c59613b3f60408051602081019091526000815290565b8f8f613c648f611398565b6040805160008082526020820190925290613ca7565b6040805160608101825260008082526020808301829052928201528252600019909201910181613c7a5790505b5060c86040518d63ffffffff1660e01b8152600401613cd09b9a9998979695949392919061546f565b60206040518083038185885af193505050508015613d0b575060408051601f3d908101601f19168201909252613d089181019061517c565b60015b613d39573d808015613bce576040519150601f19603f3d011682016040523d82523d6000602084013e613bd3565b600293505050505b949350505050565b60006106c1613d73613d6d34613c36610be4610be48a606001518b60800151612100565b85611530565b83612100565b604080516101808101825260008082526020820181905260609282018390528282018190526080820181905260a0820183905260c0820181905260e082018190526101008201819052610120820181905261014082015261016081019190915290565b50805460008255600502906000526020600020908101906125cb91905b808211156113c0576000613e0d8282613e3d565b506000600182018190556002820181905560038201556004810180546001600160a81b0319169055600501613df9565b508054613e4990614eed565b6000825580601f10613e59575050565b601f0160209004906000526020600020908101906125cb91905b808211156113c05760008155600101613e73565b61ffff811681146125cb57600080fd5b80356136d381613e87565b600060208284031215613eb457600080fd5b81356106c481613e87565b6001600160a01b03811681146125cb57600080fd5b80356136d381613ebf565b600080600060608486031215613ef457600080fd5b8335613eff81613e87565b9250602084013591506040840135613f1681613ebf565b809150509250925092565b634e487b7160e01b600052604160045260246000fd5b60405161012081016001600160401b0381118282101715613f5a57613f5a613f21565b60405290565b604051608081016001600160401b0381118282101715613f5a57613f5a613f21565b60405161016081016001600160401b0381118282101715613f5a57613f5a613f21565b604051601f8201601f191681016001600160401b0381118282101715613fcd57613fcd613f21565b604052919050565b60006001600160401b03821115613fee57613fee613f21565b50601f01601f191660200190565b600082601f83011261400d57600080fd5b813561402061401b82613fd5565b613fa5565b81815284602083860101111561403557600080fd5b816020850160208301376000918101602001919091529392505050565b60006020828403121561406457600080fd5b81356001600160401b0381111561407a57600080fd5b613d4184828501613ffc565b60006001600160401b0382111561409f5761409f613f21565b5060051b60200190565b6001600160401b03811681146125cb57600080fd5b6000606082840312156140d057600080fd5b604051606081018181106001600160401b03821117156140f2576140f2613f21565b604052905080823561410381613e87565b815260208381013590820152604083013561411d816140a9565b6040919091015292915050565b600082601f83011261413b57600080fd5b8135602061414b61401b83614086565b8281526060928302850182019282820191908785111561416a57600080fd5b8387015b8581101561418d5761418089826140be565b845292840192810161416e565b5090979650505050505050565b60008060008060008060c087890312156141b357600080fd5b86356141be81613e87565b955060208701356141ce81613ebf565b945060408701356001600160401b03808211156141ea57600080fd5b6141f68a838b01613ffc565b9550606089013594506080890135935060a089013591508082111561421a57600080fd5b5061422789828a0161412a565b9150509295509295509295565b600080600080600080600080610100898b03121561425157600080fd5b883561425c81613e87565b9750602089013561426c81613ebf565b965060408901356001600160401b038082111561428857600080fd5b6142948c838d01613ffc565b975060608b0135965060808b0135955060a08b01359150808211156142b857600080fd5b506142c58b828c0161412a565b93505060c08901356142d681613e87565b915060e08901356142e681613ebf565b809150509295985092959890939650565b60ff811681146125cb57600080fd5b80356136d3816142f7565b60008060008060008060008060008060006101608c8e03121561433357600080fd5b61433c8c613e97565b9a5061434a60208d01613ed4565b99506001600160401b038060408e0135111561436557600080fd5b6143758e60408f01358f01613ffc565b995060608d0135985060808d0135975060a08d0135965061439860c08e01613e97565b95506143a660e08e01613ed4565b94506143b56101008e01613ed4565b9350806101208e013511156143c957600080fd5b506143db8d6101208e01358e0161412a565b91506143ea6101408d01614306565b90509295989b509295989b9093969950565b600080600080600060a0868803121561441457600080fd5b853561441f81613e87565b9450602086013561442f81613ebf565b935060408601356001600160401b0381111561444a57600080fd5b61445688828901613ffc565b9598949750949560608101359550608001359392505050565b600080600080600080600060e0888a03121561448a57600080fd5b873561449581613e87565b965060208801356144a581613ebf565b955060408801356001600160401b038111156144c057600080fd5b6144cc8a828b01613ffc565b955050606088013593506080880135925060a08801356144eb81613e87565b915060c08801356144fb81613ebf565b8091505092959891949750929550565b600082601f83011261451c57600080fd5b8135602061452c61401b83614086565b82815260059290921b8401810191818101908684111561454b57600080fd5b8286015b8481101561458a5780356001600160401b0381111561456e5760008081fd5b61457c8986838b0101613ffc565b84525091830191830161454f565b509695505050505050565b6000602082840312156145a757600080fd5b81356001600160401b03808211156145be57600080fd5b9083019061012082860312156145d357600080fd5b6145db613f37565b6145e483613e97565b81526020830135602082015260408301358281111561460257600080fd5b61460e87828601613ffc565b604083015250606083013560608201526080830135608082015260a083013560a082015260c083013560c082015260e083013560e0820152610100808401358381111561465a57600080fd5b6146668882870161450b565b918301919091525095945050505050565b60005b8381101561469257818101518382015260200161467a565b50506000910152565b600081518084526146b3816020860160208601614677565b601f01601f19169290920160200192915050565b60ff841681528260208201526060604082015260006146e9606083018461469b565b95945050505050565b60008060008060008060008060008060006101608c8e03121561471457600080fd5b61471d8c613e97565b9a5060208c013599506001600160401b038060408e0135111561473f57600080fd5b61474f8e60408f01358f01613ffc565b995060608d0135985060808d013597508060a08e0135111561477057600080fd5b6147808e60a08f01358f01613ffc565b965061478e60c08e01613e97565b955060e08d013594506143b56101008e01613ed4565b600080600080608085870312156147ba57600080fd5b84356147c581613e87565b9350602085013592506040850135915060608501356147e381613ebf565b939692955090935050565b600080600080600060e0868803121561480657600080fd5b61481087876140be565b9450606086013561482081613e87565b93506080860135925060a0860135915060c086013561483e81613ebf565b809150509295509295909350565b6000806000806080858703121561486257600080fd5b84356001600160401b038082111561487957600080fd5b6148858883890161450b565b9550602087013591508082111561489b57600080fd5b6148a788838901613ffc565b9450604087013591506148b982613ebf565b909250606086013590808211156148cf57600080fd5b506148dc87828801613ffc565b91505092959194509250565b600080600080608085870312156148fe57600080fd5b843561490981613e87565b93506020850135925060408501356001600160401b0381111561492b57600080fd5b61493787828801613ffc565b92505060608501356147e381613ebf565b8281526040602082015260006106c1604083018461469b565b600080600080600060e0868803121561497957600080fd5b61498387876140be565b9450606086013561499381613e87565b93506080860135925060a08601356001600160401b038111156149b557600080fd5b6149c188828901613ffc565b92505060c086013561483e81613ebf565b6000806000606084860312156149e757600080fd5b83356149f281613e87565b95602085013595506040909401359392505050565b600060208284031215614a1957600080fd5b81356106c481613ebf565b805180151581146136d357600080fd5b600060208284031215614a4657600080fd5b6106c482614a24565b600060208284031215614a6157600080fd5b5051919050565b634e487b7160e01b600052600160045260246000fd5b60008251614a90818460208701614677565b9190910192915050565b6020815260006106c4602083018461469b565b600081518084526020808501808196508360051b8101915082860160005b85811015614af5578284038952614ae384835161469b565b98850198935090840190600101614acb565b5091979650505050505050565b60a081526000614b1560a083018861469b565b8281036020840152614b278188614aad565b6040840196909652505061ffff92909216606083015260809091015292915050565b634e487b7160e01b600052602160045260246000fd5b80516136d3816142f7565b805163ffffffff811681146136d357600080fd5b80516136d381613e87565b80516136d3816140a9565b6000614ba261401b84613fd5565b9050828152838383011115614bb657600080fd5b6106c4836020830184614677565b600082601f830112614bd557600080fd5b6106c483835160208501614b94565b600082601f830112614bf557600080fd5b81516020614c0561401b83614086565b82815260079290921b84018101918181019086841115614c2457600080fd5b8286015b8481101561458a5760808189031215614c415760008081fd5b614c49613f60565b815181528482015185820152604080830151614c64816142f7565b90820152606082810151614c77816142f7565b90820152835291830191608001614c28565b60006101608284031215614c9c57600080fd5b614ca4613f82565b9050614caf82614b5f565b8152614cbd60208301614b6a565b6020820152614cce60408301614b6a565b6040820152614cdf60608301614b7e565b606082015260808201516080820152614cfa60a08301614b89565b60a0820152614d0b60c08301614b5f565b60c082015260e08201516001600160401b0380821115614d2a57600080fd5b614d3685838601614bc4565b60e08401526101009150614d4b828501614b6a565b8284015261012091508184015181811115614d6557600080fd5b614d7186828701614be4565b8385015250505061014080830151818301525092915050565b600080600060608486031215614d9f57600080fd5b83516001600160401b0380821115614db657600080fd5b614dc287838801614c89565b9450614dd060208701614a24565b93506040860151915080821115614de657600080fd5b508401601f81018613614df857600080fd5b614e0786825160208401614b94565b9150509250925092565b61ffff841681528260208201526060604082015260006146e9606083018461469b565b60008060408385031215614e4757600080fd5b8251915060208301516001600160401b03811115614e6457600080fd5b614e7085828601614bc4565b9150509250929050565b600060208284031215614e8c57600080fd5b81516106c481613ebf565b634e487b7160e01b600052601160045260246000fd5b8181038181111561076957610769614e97565b808202811582820484141761076957610769614e97565b634e487b7160e01b600052603260045260246000fd5b600181811c90821680614f0157607f821691505b602082108103611e8757634e487b7160e01b600052602260045260246000fd5b600080600060608486031215614f3657600080fd5b8351614f41816142f7565b602085015160409095015190969495509392505050565b8082018082111561076957610769614e97565b600060208284031215614f7d57600080fd5b81516001600160401b03811115614f9357600080fd5b613d4184828501614c89565b60208152614fb460208201835161ffff169052565b6020820151604082015260006040830151610120806060850152614fdc61014085018361469b565b915060608501516080850152608085015160a085015260a085015160c085015260c085015160e085015260e0850151610100818187015280870151915050601f198584030182860152610ce48382614aad565b60008060006060848603121561504457600080fd5b835161504f816142f7565b6020850151604086015191945092506001600160401b0381111561507257600080fd5b614e0786828701614bc4565b86815260006004871061509357615093614b49565b866020830152856040830152600585106150af576150af614b49565b84606083015260c060808301526150c960c083018561469b565b82810360a08401526107cf818561469b565b60ff60f81b8860f81b168152600087516150fc816001850160208c01614677565b60f088901b6001600160f01b03191660019184019182015260038101879052855161512e816023840160208a01614677565b0160238101949094525050604382015260630195945050505050565b63ffffffff84168152606060208201526000615169606083018561469b565b905060ff83166040830152949350505050565b60006020828403121561518e57600080fd5b81516106c4816140a9565b6000602082840312156151ab57600080fd5b81516106c481613e87565b60ff60f81b8760f81b16815261ffff60f01b8660f01b166001820152846003820152600084516151ed816023850160208901614677565b9091016023810193909352506043820152606301949350505050565b6000895161521b818460208e01614677565b89519083019061522f818360208e01614677565b80820191505061ffff60f01b8960f01b168152876002820152866022820152856042820152846062820152835161526d816082840160208801614677565b016082019a9950505050505050505050565b601f82111561228c57600081815260208120601f850160051c810160208610156152a65750805b601f850160051c820191505b818110156152c5578281556001016152b2565b505050505050565b81516001600160401b038111156152e6576152e6613f21565b6152fa816152f48454614eed565b8461527f565b602080601f83116001811461532f57600084156153175750858301515b600019600386901b1c1916600185901b1785556152c5565b600085815260208120601f198616915b8281101561535e5788860151825594840194600190910190840161533f565b508582101561537c5787850151600019600388901b60f8161c191681555b5050505050600190811b01905550565b60006020828403121561539e57600080fd5b8151600181106106c457600080fd5b600086516153bf818460208b01614677565b60f89690961b6001600160f81b0319169190950190815260f09390931b6001600160f01b0319166001840152600383019190915260c01b6001600160c01b0319166023820152602b0192915050565b63ffffffff60e01b8360e01b16815260008251615432816004850160208701614677565b919091016004019392505050565b60008351615452818460208801614677565b835190830190615466818360208801614677565b01949350505050565b600061016061ffff808f16845260208e818601528260408601526154958386018f61469b565b92508c60608601528b608086015284830360a08601526154b5838c61469b565b8a831660c087015260e086018a90526001600160a01b038916610100870152858103610120870152875180825282890194509082019060005b8181101561552b57855180518616845284810151858501526040908101516001600160401b031690840152948301946060909201916001016154ee565b505060ff871661014087015293506108199250505056feebc28a1927f62765bfb7ada566eeab2d31a98c65dbd1e8cad64acae2a3ae45d4a2646970667358221220302f176b147f4540a6035027876c83e3243623c58c7b2534867c4060614ab1e264736f6c6343000813003360c060405234801561001057600080fd5b506040516200238d3803806200238d83398101604081905261003191610042565b61ffff90911660805260a052610077565b6000806040838503121561005557600080fd5b825161ffff8116811461006757600080fd5b6020939093015192949293505050565b60805160a0516122f06200009d6000396000610509015260006105b601526122f06000f3fe6080604052600436106101ee5760003560e01c80638129fc1c1161010d578063c0fd8bde116100a0578063eb8d3f121161006f578063eb8d3f12146102d3578063f42bc6411461071b578063f8ce560a1461073b578063f951975a14610756578063fbe3c2cd1461078357600080fd5b8063c0fd8bde1461065d578063cb4cfea81461068c578063d60b347f146106e6578063e039f2241461070757600080fd5b8063a0cce1b3116100dc578063a0cce1b3146105e9578063a9e1189314610609578063b172b22214610636578063b19a437e1461064a57600080fd5b80638129fc1c1461054d578063875be02a1461055957806393df337e146105875780639a8a0592146105a757600080fd5b80634a12a76311610185578063515f324711610154578063515f3247146104805780635cb8cae2146104da57806364d42b17146104fa5780636606b4e01461052d57600080fd5b80634a12a763146103605780634cf842b5146103905780634fc608a3146103e75780634fdc60fa1461041d57600080fd5b80631cfe7951116101c15780631cfe7951146102d35780631e5a2802146102ef57806323aa2a9d1461030f5780632c3c02a41461032f57600080fd5b80630319e59c146101f357806304ca84cf14610265578063178149e7146102925780631a90a219146102b4575b600080fd5b3480156101ff57600080fd5b5061021361020e366004611a0f565b610797565b60405161025c9190600060a0820190508251825260ff602084015116602083015261ffff6040840151166040830152606083015160608301526080830151608083015292915050565b60405180910390f35b34801561027157600080fd5b50610285610280366004611a0f565b610826565b60405161025c9190611aaa565b34801561029e57600080fd5b506102b26102ad366004611a0f565b610893565b005b3480156102c057600080fd5b506002545b60405190815260200161025c565b3480156102df57600080fd5b506040516000815260200161025c565b3480156102fb57600080fd5b506102b261030a366004611b07565b6108f5565b34801561031b57600080fd5b506102b261032a366004611b78565b600255565b34801561033b57600080fd5b5061035061034a366004611b78565b50600090565b604051901515815260200161025c565b34801561036c57600080fd5b5061035061037b366004611b78565b60016020526000908152604090205460ff1681565b34801561039c57600080fd5b506103cf6103ab366004611bad565b6001600160a01b03166000908152602081905260409020546001600160401b031690565b6040516001600160401b03909116815260200161025c565b3480156103f357600080fd5b506103cf610402366004611bad565b6000602081905290815260409020546001600160401b031681565b34801561042957600080fd5b5061043d610438366004611a0f565b610927565b60405161025c91908151815260208083015160ff169082015260408083015161ffff16908201526060918201516001600160a01b03169181019190915260800190565b34801561048c57600080fd5b506104a061049b366004611a0f565b6109ad565b60405161025c91908151815260208083015160ff169082015260408083015161ffff16908201526060918201519181019190915260800190565b3480156104e657600080fd5b506102b26104f5366004611a0f565b610a31565b34801561050657600080fd5b507f00000000000000000000000000000000000000000000000000000000000000006102c5565b34801561053957600080fd5b506102b2610548366004611a0f565b610a94565b3480156102b257600080fd5b34801561056557600080fd5b50610579610574366004611cea565b610af6565b60405161025c929190611e54565b34801561059357600080fd5b506102b26105a2366004611a0f565b610b52565b3480156105b357600080fd5b507f00000000000000000000000000000000000000000000000000000000000000005b60405161ffff909116815260200161025c565b3480156105f557600080fd5b50610579610604366004611e6f565b610bb2565b34801561061557600080fd5b50610629610624366004611b07565b610c16565b60405161025c91906120cb565b34801561064257600080fd5b5060046102c5565b6103cf6106583660046120de565b610c2f565b34801561066957600080fd5b5061067d610678366004611b07565b610d08565b60405161025c9392919061213b565b34801561069857600080fd5b506106ac6106a7366004611a0f565b610d54565b60405161025c91908151815260208083015160ff16908201526040808301519082015260609182015161ffff169181019190915260800190565b3480156106f257600080fd5b50610350610701366004611bad565b50600190565b34801561071357600080fd5b506000610350565b34801561072757600080fd5b506102b2610736366004611a0f565b610dd9565b34801561074757600080fd5b506102c5610701366004611b78565b34801561076257600080fd5b50610776610771366004612172565b610e3a565b60405161025c919061218d565b34801561078f57600080fd5b5060016105d6565b6040805160a08101825260008082526020820181905291810182905260608101829052608081019190915260405162461bcd60e51b815260206004820152602e60248201527f756e737570706f727465642070617273655472616e736665724665657320696e60448201526d20776f726d686f6c65206d6f636b60901b60648201526084015b60405180910390fd5b61082e611838565b60405162461bcd60e51b815260206004820152603460248201527f756e737570706f72746564207061727365477561726469616e5365745570677260448201527361646520696e20776f726d686f6c65206d6f636b60601b606482015260840161081d565b60405162461bcd60e51b815260206004820152603160248201527f756e737570706f72746564207375626d69745265636f766572436861696e496460448201527020696e20776f726d686f6c65206d6f636b60781b606482015260840161081d565b60006109018383610eab565b61014001516000908152600160208190526040909120805460ff19169091179055505050565b60408051608081018252600080825260208201819052918101829052606081019190915260405162461bcd60e51b815260206004820152603160248201527f756e737570706f72746564207061727365436f6e74726163745570677261646560448201527020696e20776f726d686f6c65206d6f636b60781b606482015260840161081d565b60408051608081018252600080825260208201819052918101829052606081019190915260405162461bcd60e51b815260206004820152602f60248201527f756e737570706f727465642070617273655365744d657373616765466565206960448201526e6e20776f726d686f6c65206d6f636b60881b606482015260840161081d565b60405162461bcd60e51b815260206004820152603260248201527f756e737570706f72746564207375626d6974436f6e74726163745570677261646044820152716520696e20776f726d686f6c65206d6f636b60701b606482015260840161081d565b60405162461bcd60e51b815260206004820152603160248201527f756e737570706f72746564207375626d69744e6577477561726469616e53657460448201527020696e20776f726d686f6c65206d6f636b60781b606482015260840161081d565b60405162461bcd60e51b815260206004820152602560248201527f756e737570706f7274656420766572696679564d20696e20776f726d686f6c65604482015264206d6f636b60d81b606482015260009060609060840161081d565b60405162461bcd60e51b815260206004820152602f60248201527f756e737570706f72746564207375626d69745472616e7366657246656573206960448201526e6e20776f726d686f6c65206d6f636b60881b606482015260840161081d565b60405162461bcd60e51b815260206004820152602d60248201527f756e737570706f72746564207665726966795369676e61747572657320696e2060448201526c776f726d686f6c65206d6f636b60981b606482015260009060609060840161081d565b610c1e611892565b610c288383610eab565b9392505050565b60006002543414610c705760405162461bcd60e51b815260206004820152600b60248201526a696e76616c69642066656560a81b604482015260640161081d565b33600090815260208190526040812080546001600160401b031691610c94836121b6565b91906101000a8154816001600160401b0302191690836001600160401b031602179055509050336001600160a01b03167f6eb224fb001ed210e379b335e35efe88672a8ce935d981a6896b27ffdf52a3b282868686604051610cf994939291906121dc565b60405180910390a29392505050565b610d10611892565b60006060610d1e8585610eab565b6101408101516000908152600160209081526040808320548151928301909152918152919760ff90911615965090945092505050565b60408051608081018252600080825260208201819052918101829052606081019190915260405162461bcd60e51b815260206004820152603060248201527f756e737570706f727465642070617273655265636f766572436861696e49642060448201526f696e20776f726d686f6c65206d6f636b60801b606482015260840161081d565b60405162461bcd60e51b815260206004820152603060248201527f756e737570706f72746564207375626d69745365744d6573736167654665652060448201526f696e20776f726d686f6c65206d6f636b60801b606482015260840161081d565b60408051808201909152606081526000602082015260405162461bcd60e51b815260206004820152602b60248201527f756e737570706f7274656420676574477561726469616e53657420696e20776f60448201526a726d686f6c65206d6f636b60a81b606482015260840161081d565b610eb3611892565b600160086020600260048085610ec9828261221e565b610ed3919061221e565b610edd919061221e565b610ee7919061221e565b610ef1919061221e565b610efb919061221e565b610f05919061221e565b610f0f919061221e565b821015610f4d5760405162461bcd60e51b815260206004820152600c60248201526b1d9b481d1bdbc81cdb585b1b60a21b604482015260640161081d565b60606000610f948186868080601f01602080910402602001604051908101604052809392919081815260200183838082843760009201919091525092939250506112fd9050565b60ff168352610fa460018261221e565b9050610fe98186868080601f016020809104026020016040519081016040528093929190818152602001838380828437600092019190915250929392505061135f9050565b63ffffffff1661010084015261100060048261221e565b905061100d8585836113bc565b610120850191909152905061102484828188612231565b8080601f01602080910402602001604051908101604052809392919081815260200183838082843760009201919091525050604080516020601f8a0181900481028201810190925288815293955061109e9385935091508890889081908401838280828437600092019190915250929392505061135f9050565b63ffffffff1660208401526110b460048261221e565b90506110f98186868080601f016020809104026020016040519081016040528093929190818152602001838380828437600092019190915250929392505061135f9050565b63ffffffff16604084015261110f60048261221e565b90506111548186868080601f01602080910402602001604051908101604052809392919081815260200183838082843760009201919091525092939250506117209050565b61ffff16606084015261116860028261221e565b90506111ad8186868080601f016020809104026020016040519081016040528093929190818152602001838380828437600092019190915250929392505061177d9050565b60808401526111bd60208261221e565b90506112028186868080601f01602080910402602001604051908101604052809392919081815260200183838082843760009201919091525092939250506117db9050565b6001600160401b031660a084015261121b60088261221e565b90506112608186868080601f01602080910402602001604051908101604052809392919081815260200183838082843760009201919091525092939250506112fd9050565b60ff1660c084015261127360018261221e565b905061128184828188612231565b8080601f01602080910402602001604051908101604052809392919081815260200183838082843760009201919091525050505060e084015281516020808401919091206040516112d6920190815260200190565b60408051601f19818403018152919052805160209091012061014084015250909392505050565b600061130a82600161221e565b835110156113505760405162461bcd60e51b8152602060048201526013602482015272746f55696e74385f6f75744f66426f756e647360681b604482015260640161081d565b50818101600101515b92915050565b600061136c82600461221e565b835110156113b35760405162461bcd60e51b8152602060048201526014602482015273746f55696e7433325f6f75744f66426f756e647360601b604482015260640161081d565b50016004015190565b60606000806114048487878080601f01602080910402602001604051908101604052809392919081815260200183838082843760009201919091525092939250506112fd9050565b60ff16905061141460018561221e565b935060016020611424818361221e565b61142e919061221e565b611438919061221e565b611442908261225b565b600160086020600260048085611458828261221e565b611462919061221e565b61146c919061221e565b611476919061221e565b611480919061221e565b61148a919061221e565b611494919061221e565b61149e919061221e565b6114a8919061221e565b8510156114e65760405162461bcd60e51b815260206004820152600c60248201526b1d9b481d1bdbc81cdb585b1b60a21b604482015260640161081d565b806001600160401b038111156114fe576114fe6118ed565b60405190808252806020026020018201604052801561155057816020015b60408051608081018252600080825260208083018290529282018190526060820152825260001990920191018161151c5790505b50925060005b818110156117135760006115a38689898080601f01602080910402602001604051908101604052809392919081815260200183838082843760009201919091525092939250506112fd9050565b90506115b060018761221e565b955060006115f7878a8a8080601f016020809104026020016040519081016040528093929190818152602001838380828437600092019190915250929392505061177d9050565b905061160460208861221e565b9650600061164b888b8b8080601f016020809104026020016040519081016040528093929190818152602001838380828437600092019190915250929392505061177d9050565b905061165860208961221e565b9750600061169f898c8c8080601f01602080910402602001604051908101604052809392919081815260200183838082843760009201919091525092939250506112fd9050565b90506116ac60018a61221e565b9850604051806080016040528084815260200183815260200182601b6116d29190612272565b60ff1681526020018560ff168152508886815181106116f3576116f361228b565b6020026020010181905250505050508061170c906122a1565b9050611556565b5083915050935093915050565b600061172d82600261221e565b835110156117745760405162461bcd60e51b8152602060048201526014602482015273746f55696e7431365f6f75744f66426f756e647360601b604482015260640161081d565b50016002015190565b600061178a82602061221e565b835110156117d25760405162461bcd60e51b8152602060048201526015602482015274746f427974657333325f6f75744f66426f756e647360581b604482015260640161081d565b50016020015190565b60006117e882600861221e565b8351101561182f5760405162461bcd60e51b8152602060048201526014602482015273746f55696e7436345f6f75744f66426f756e647360601b604482015260640161081d565b50016008015190565b6040518060a0016040528060008019168152602001600060ff168152602001600061ffff168152602001611885604051806040016040528060608152602001600063ffffffff1681525090565b8152600060209091015290565b604080516101608101825260008082526020820181905291810182905260608082018390526080820183905260a0820183905260c0820183905260e08201819052610100820183905261012082015261014081019190915290565b634e487b7160e01b600052604160045260246000fd5b604051608081016001600160401b0381118282101715611925576119256118ed565b60405290565b60405161016081016001600160401b0381118282101715611925576119256118ed565b604080519081016001600160401b0381118282101715611925576119256118ed565b604051601f8201601f191681016001600160401b0381118282101715611998576119986118ed565b604052919050565b600082601f8301126119b157600080fd5b81356001600160401b038111156119ca576119ca6118ed565b6119dd601f8201601f1916602001611970565b8181528460208386010111156119f257600080fd5b816020850160208301376000918101602001919091529392505050565b600060208284031215611a2157600080fd5b81356001600160401b03811115611a3757600080fd5b611a43848285016119a0565b949350505050565b805160408084528151908401819052600091602091908201906060860190845b81811015611a905783516001600160a01b031683529284019291840191600101611a6b565b50509382015163ffffffff16949091019390935250919050565b602081528151602082015260ff602083015116604082015261ffff60408301511660608201526000606083015160a06080840152611aeb60c0840182611a4b565b905063ffffffff60808501511660a08401528091505092915050565b60008060208385031215611b1a57600080fd5b82356001600160401b0380821115611b3157600080fd5b818501915085601f830112611b4557600080fd5b813581811115611b5457600080fd5b866020828501011115611b6657600080fd5b60209290920196919550909350505050565b600060208284031215611b8a57600080fd5b5035919050565b80356001600160a01b0381168114611ba857600080fd5b919050565b600060208284031215611bbf57600080fd5b610c2882611b91565b803560ff81168114611ba857600080fd5b803563ffffffff81168114611ba857600080fd5b803561ffff81168114611ba857600080fd5b80356001600160401b0381168114611ba857600080fd5b60006001600160401b03821115611c2f57611c2f6118ed565b5060051b60200190565b600082601f830112611c4a57600080fd5b81356020611c5f611c5a83611c16565b611970565b82815260079290921b84018101918181019086841115611c7e57600080fd5b8286015b84811015611cdf5760808189031215611c9b5760008081fd5b611ca3611903565b8135815284820135858201526040611cbc818401611bc8565b908201526060611ccd838201611bc8565b90820152835291830191608001611c82565b509695505050505050565b600060208284031215611cfc57600080fd5b81356001600160401b0380821115611d1357600080fd5b908301906101608286031215611d2857600080fd5b611d3061192b565b611d3983611bc8565b8152611d4760208401611bd9565b6020820152611d5860408401611bd9565b6040820152611d6960608401611bed565b606082015260808301356080820152611d8460a08401611bff565b60a0820152611d9560c08401611bc8565b60c082015260e083013582811115611dac57600080fd5b611db8878286016119a0565b60e083015250610100611dcc818501611bd9565b908201526101208381013583811115611de457600080fd5b611df088828701611c39565b91830191909152506101409283013592810192909252509392505050565b6000815180845260005b81811015611e3457602081850181015186830182015201611e18565b506000602082860101526020601f19601f83011685010191505092915050565b8215158152604060208201526000611a436040830184611e0e565b600080600060608486031215611e8457600080fd5b833592506020808501356001600160401b0380821115611ea357600080fd5b611eaf88838901611c39565b94506040870135915080821115611ec557600080fd5b9086019060408289031215611ed957600080fd5b611ee161194e565b823582811115611ef057600080fd5b83019150601f82018913611f0357600080fd5b8135611f11611c5a82611c16565b81815260059190911b8301850190858101908b831115611f3057600080fd5b938601935b82851015611f5557611f4685611b91565b82529386019390860190611f35565b835250611f659050838501611bd9565b84820152809450505050509250925092565b600081518084526020808501945080840160005b83811015611fd057815180518852838101518489015260408082015160ff908116918a0191909152606091820151169088015260809096019590820190600101611f8b565b509495945050505050565b805160ff16825260006101606020830151611ffe602086018263ffffffff169052565b506040830151612016604086018263ffffffff169052565b50606083015161202c606086018261ffff169052565b506080830151608085015260a083015161205160a08601826001600160401b03169052565b5060c083015161206660c086018260ff169052565b5060e08301518160e086015261207e82860182611e0e565b915050610100808401516120998287018263ffffffff169052565b505061012080840151858303828701526120b38382611f77565b61014095860151969095019590955250919392505050565b602081526000610c286020830184611fdb565b6000806000606084860312156120f357600080fd5b6120fc84611bd9565b925060208401356001600160401b0381111561211757600080fd5b612123868287016119a0565b92505061213260408501611bc8565b90509250925092565b60608152600061214e6060830186611fdb565b841515602084015282810360408401526121688185611e0e565b9695505050505050565b60006020828403121561218457600080fd5b610c2882611bd9565b602081526000610c286020830184611a4b565b634e487b7160e01b600052601160045260246000fd5b60006001600160401b038083168181036121d2576121d26121a0565b6001019392505050565b6001600160401b038516815263ffffffff8416602082015260806040820152600061220a6080830185611e0e565b905060ff8316606083015295945050505050565b80820180821115611359576113596121a0565b6000808585111561224157600080fd5b8386111561224e57600080fd5b5050820193919092039150565b8082028115828204841417611359576113596121a0565b60ff8181168382160190811115611359576113596121a0565b634e487b7160e01b600052603260045260246000fd5b6000600182016122b3576122b36121a0565b506001019056fea264697066735822122090b1786525b526940b649cdab0ebbe87e3389aedc97b7c738935b252a733bf2664736f6c63430008130033608060405234801561001057600080fd5b50604051611ac8380380611ac883398101604081905261002f91610054565b600080546001600160a01b0319166001600160a01b0392909216919091179055610084565b60006020828403121561006657600080fd5b81516001600160a01b038116811461007d57600080fd5b9392505050565b611a35806100936000396000f3fe608060405234801561001057600080fd5b50600436106100935760003560e01c806364bb9bfb1161006657806364bb9bfb146100fc57806384acd1bb1461010f578063920539af1461013a5780639404495d1461014d578063fb41833e1461016d57600080fd5b80630e645295146100985780631e5a2802146100c157806323aa2a9d146100d65780634603c12a146100e9575b600080fd5b6100ab6100a636600461109a565b61018d565b6040516100b8919061120e565b60405180910390f35b6100d46100cf366004611228565b610251565b005b6100d46100e4366004611264565b6102b6565b6100ab6100f7366004611358565b6102e7565b6100ab61010a36600461109a565b610331565b600054610122906001600160a01b031681565b6040516001600160a01b0390911681526020016100b8565b6100ab610148366004611434565b610382565b61016061015b3660046114a4565b6107af565b6040516100b891906114d8565b61018061017b366004611588565b61096b565b6040516100b89190611620565b6060600061019a83610331565b90506101a581610b2a565b610140840152825160005460408051631cfe795160e01b815290516001600160a01b0390921691631cfe7951916004808201926020929091908290030181865afa1580156101f7573d6000803e3d6000fd5b505050506040513d601f19601f8201168201806040525081019061021b919061170c565b60405161023a9291906001906000908190819081908990602001611745565b604051602081830303815290604052915050919050565b600054604051630f2d140160e11b81526001600160a01b0390911690631e5a28029061028190849060040161120e565b600060405180830381600087803b15801561029b57600080fd5b505af11580156102af573d6000803e3d6000fd5b5050505050565b6000546040516323aa2a9d60e01b8152600481018390526001600160a01b03909116906323aa2a9d90602401610281565b606060006102f48561096b565b6001815263ffffffff4216602082015261ffff851660608201526001600160a01b038416608082015290506103288161018d565b95945050505050565b606081602001518260400151836060015184608001518560a001518660c001518760e0015160405160200161036c97969594939291906117bb565b6040516020818303038152906040529050919050565b606060008086516001600160401b038111156103a0576103a0610e45565b6040519080825280602002602001820160405280156103d957816020015b6103c6610dea565b8152602001906001900390816103be5790505b50905060005b87518110156105045761040a8882815181106103fd576103fd611842565b602002602001015161096b565b82828151811061041c5761041c611842565b60200260200101819052504282828151811061043a5761043a611842565b60200260200101516020019063ffffffff16908163ffffffff16815250508582828151811061046b5761046b611842565b60200260200101516060019061ffff16908161ffff1681525050846001600160a01b031660001b8282815181106104a4576104a4611842565b602002602001015160800181815250508663ffffffff168282815181106104cd576104cd611842565b60200260200101516040015163ffffffff16036104f2576104ef60018461186e565b92505b806104fc81611887565b9150506103df565b50606060008360ff166001600160401b0381111561052457610524610e45565b60405190808252806020026020018201604052801561054d578160200160208202803683370190505b5090506000805b8a518110156106fd578963ffffffff1685828151811061057657610576611842565b60200260200101516040015163ffffffff16036106eb5760008582815181106105a1576105a1611842565b6020026020010151602001518683815181106105bf576105bf611842565b6020026020010151604001518784815181106105dd576105dd611842565b6020026020010151606001518885815181106105fb576105fb611842565b60200260200101516080015189868151811061061957610619611842565b602002602001015160a001518a878151811061063757610637611842565b602002602001015160c001518b888151811061065557610655611842565b602002602001015160e0015160405160200161067797969594939291906117bb565b604051602081830303815290604052905061069181610b2a565b848460ff16815181106106a6576106a6611842565b60200260200101818152505084838251836040516020016106ca94939291906118a0565b604051602081830303815290604052945082806106e6906118fc565b935050505b806106f581611887565b915050610554565b5060005460408051631cfe795160e01b815290516002926001600160a01b031691631cfe79519160048083019260209291908290030181865afa158015610748573d6000803e3d6000fd5b505050506040513d601f19601f8201168201806040525081019061076c919061170c565b6040516107919291906001906000908190819081908d908b9082908e9060200161191b565b60405160208183030381529060405295505050505050949350505050565b60606000805b835181101561083c577f6eb224fb001ed210e379b335e35efe88672a8ce935d981a6896b27ffdf52a3b28482815181106107f1576107f1611842565b60200260200101516000015160008151811061080f5761080f611842565b60200260200101510361082a576108276001836119d9565b91505b8061083481611887565b9150506107b5565b506000816001600160401b0381111561085757610857610e45565b60405190808252806020026020018201604052801561089c57816020015b60408051808201909152606080825260208201528152602001906001900390816108755790505b5090506000805b8551811015610961577f6eb224fb001ed210e379b335e35efe88672a8ce935d981a6896b27ffdf52a3b28682815181106108df576108df611842565b6020026020010151600001516000815181106108fd576108fd611842565b60200260200101510361094f5785818151811061091c5761091c611842565b602002602001015183838151811061093657610936611842565b602090810291909101015261094c6001836119d9565b91505b8061095981611887565b9150506108a3565b5090949350505050565b610973610dea565b6000826000015160018151811061098c5761098c611842565b60200260200101518260800181815250506109c460088260206109af91906119d9565b6109b991906119ec565b602085015190610b63565b6001600160401b031660a08301526109dd6020826119d9565b9050610a0460046109ef8360206119d9565b6109f991906119ec565b602085015190610bc6565b63ffffffff166040830152610a1a6020826119d9565b9050610a276020826119d9565b9050610a4e6001610a398360206119d9565b610a4391906119ec565b602085015190610c23565b60ff1660c0830152610a616020826119d9565b90506000610a7c828560200151610c7f90919063ffffffff16565b9050610a896020836119d9565b6020850151909250610a9c908383610cdd565b60e0840152610aab81836119d9565b915081846020015151610abe91906119ec565b610ac890836119d9565b91508360200151518214610b235760405162461bcd60e51b815260206004820181905260248201527f6661696c656420746f20706172736520776f726d686f6c65206d65737361676560448201526064015b60405180910390fd5b5050919050565b60008180519060200120604051602001610b4691815260200190565b604051602081830303815290604052805190602001209050919050565b6000610b708260086119d9565b83511015610bb75760405162461bcd60e51b8152602060048201526014602482015273746f55696e7436345f6f75744f66426f756e647360601b6044820152606401610b1a565b50818101600801515b92915050565b6000610bd38260046119d9565b83511015610c1a5760405162461bcd60e51b8152602060048201526014602482015273746f55696e7433325f6f75744f66426f756e647360601b6044820152606401610b1a565b50016004015190565b6000610c308260016119d9565b83511015610c765760405162461bcd60e51b8152602060048201526013602482015272746f55696e74385f6f75744f66426f756e647360681b6044820152606401610b1a565b50016001015190565b6000610c8c8260206119d9565b83511015610cd45760405162461bcd60e51b8152602060048201526015602482015274746f55696e743235365f6f75744f66426f756e647360581b6044820152606401610b1a565b50016020015190565b606081610ceb81601f6119d9565b1015610d2a5760405162461bcd60e51b815260206004820152600e60248201526d736c6963655f6f766572666c6f7760901b6044820152606401610b1a565b610d3482846119d9565b84511015610d785760405162461bcd60e51b8152602060048201526011602482015270736c6963655f6f75744f66426f756e647360781b6044820152606401610b1a565b606082158015610d975760405191506000825260208201604052610de1565b6040519150601f8416801560200281840101858101878315602002848b0101015b81831015610dd0578051835260209283019201610db8565b5050858452601f01601f1916604052505b50949350505050565b604080516101608101825260008082526020820181905291810182905260608082018390526080820183905260a0820183905260c0820183905260e08201819052610100820183905261012082015261014081019190915290565b634e487b7160e01b600052604160045260246000fd5b604051608081016001600160401b0381118282101715610e7d57610e7d610e45565b60405290565b60405161016081016001600160401b0381118282101715610e7d57610e7d610e45565b604080519081016001600160401b0381118282101715610e7d57610e7d610e45565b604051601f8201601f191681016001600160401b0381118282101715610ef057610ef0610e45565b604052919050565b803560ff81168114610f0957600080fd5b919050565b63ffffffff81168114610f2057600080fd5b50565b8035610f0981610f0e565b803561ffff81168114610f0957600080fd5b80356001600160401b0381168114610f0957600080fd5b600082601f830112610f6857600080fd5b81356001600160401b03811115610f8157610f81610e45565b610f94601f8201601f1916602001610ec8565b818152846020838601011115610fa957600080fd5b816020850160208301376000918101602001919091529392505050565b60006001600160401b03821115610fdf57610fdf610e45565b5060051b60200190565b600082601f830112610ffa57600080fd5b8135602061100f61100a83610fc6565b610ec8565b82815260079290921b8401810191818101908684111561102e57600080fd5b8286015b8481101561108f576080818903121561104b5760008081fd5b611053610e5b565b813581528482013585820152604061106c818401610ef8565b90820152606061107d838201610ef8565b90820152835291830191608001611032565b509695505050505050565b6000602082840312156110ac57600080fd5b81356001600160401b03808211156110c357600080fd5b9083019061016082860312156110d857600080fd5b6110e0610e83565b6110e983610ef8565b81526110f760208401610f23565b602082015261110860408401610f23565b604082015261111960608401610f2e565b60608201526080830135608082015261113460a08401610f40565b60a082015261114560c08401610ef8565b60c082015260e08301358281111561115c57600080fd5b61116887828601610f57565b60e08301525061010061117c818501610f23565b90820152610120838101358381111561119457600080fd5b6111a088828701610fe9565b91830191909152506101409283013592810192909252509392505050565b60005b838110156111d95781810151838201526020016111c1565b50506000910152565b600081518084526111fa8160208601602086016111be565b601f01601f19169290920160200192915050565b60208152600061122160208301846111e2565b9392505050565b60006020828403121561123a57600080fd5b81356001600160401b0381111561125057600080fd5b61125c84828501610f57565b949350505050565b60006020828403121561127657600080fd5b5035919050565b60006040828403121561128f57600080fd5b611297610ea6565b905081356001600160401b03808211156112b057600080fd5b818401915084601f8301126112c457600080fd5b813560206112d461100a83610fc6565b82815260059290921b840181019181810190888411156112f357600080fd5b948201945b83861015611311578535825294820194908201906112f8565b8652508581013593508284111561132757600080fd5b61133387858801610f57565b818601525050505092915050565b80356001600160a01b0381168114610f0957600080fd5b60008060006060848603121561136d57600080fd5b83356001600160401b0381111561138357600080fd5b61138f8682870161127d565b93505061139e60208501610f2e565b91506113ac60408501611341565b90509250925092565b600082601f8301126113c657600080fd5b813560206113d661100a83610fc6565b82815260059290921b840181019181810190868411156113f557600080fd5b8286015b8481101561108f5780356001600160401b038111156114185760008081fd5b6114268986838b010161127d565b8452509183019183016113f9565b6000806000806080858703121561144a57600080fd5b84356001600160401b0381111561146057600080fd5b61146c878288016113b5565b945050602085013561147d81610f0e565b925061148b60408601610f2e565b915061149960608601611341565b905092959194509250565b6000602082840312156114b657600080fd5b81356001600160401b038111156114cc57600080fd5b61125c848285016113b5565b60006020808301818452808551808352604092508286019150828160051b8701018488016000805b8481101561157957898403603f19018652825180518886528051898701819052908a0190849060608801905b8083101561154c5783518252928c019260019290920191908c019061152c565b50928b0151878403888d01529261156381856111e2565b998c019997505050938901935050600101611500565b50919998505050505050505050565b60006020828403121561159a57600080fd5b81356001600160401b038111156115b057600080fd5b61125c8482850161127d565b600081518084526020808501945080840160005b8381101561161557815180518852838101518489015260408082015160ff908116918a01919091526060918201511690880152608090960195908201906001016115d0565b509495945050505050565b6020815261163460208201835160ff169052565b6000602083015161164d604084018263ffffffff169052565b50604083015163ffffffff8116606084015250606083015161ffff8116608084015250608083015160a083015260a083015161169460c08401826001600160401b03169052565b5060c083015160ff811660e08401525060e083015161016061010081818601526116c26101808601846111e2565b908601519092506101206116dd8682018363ffffffff169052565b80870151915050610140601f1986850301818701526116fc84836115bc565b9601519190940152509192915050565b60006020828403121561171e57600080fd5b815161122181610f0e565b6000815161173b8185602086016111be565b9290920192915050565b600060ff60f81b808b60f81b16835263ffffffff60e01b8a60e01b166001840152808960f81b166005840152808860f81b166006840152866007840152856027840152808560f81b1660478401525082516117a78160488501602087016111be565b919091016048019998505050505050505050565b6001600160e01b031960e089811b8216835288901b1660048201526001600160f01b031960f087901b166008820152600a81018590526001600160c01b031960c085901b16602a8201526001600160f81b031960f884901b166032820152815160009061182f8160338501602087016111be565b9190910160330198975050505050505050565b634e487b7160e01b600052603260045260246000fd5b634e487b7160e01b600052601160045260246000fd5b60ff8181168382160190811115610bc057610bc0611858565b60006001820161189957611899611858565b5060010190565b600085516118b2818460208a016111be565b60f886901b6001600160f81b03191690830190815260e085901b6001600160e01b031916600182015283516118ee8160058401602088016111be565b016005019695505050505050565b600060ff821660ff810361191257611912611858565b60010192915050565b600060ff60f81b808e60f81b168352600163ffffffff60e01b8e60e01b1681850152818d60f81b166005850152818c60f81b1660068501528a6007850152896027850152818960f81b166047850152818860f81b1660488501526049840191508651602080890160005b838110156119a0578151865294820194908201908401611985565b505050506119ba828760f81b6001600160f81b0319169052565b6119c681830186611729565b9f9e505050505050505050505050505050565b80820180821115610bc057610bc0611858565b81810381811115610bc057610bc061185856fea26469706673582212205702d8d1f42cc6deb44c4622b43747e170c744083d2f9aa5ff43f7f3da2755cc64736f6c63430008130033a2646970667358221220744bc1b975d3eb2abc4f3a6ba8cd18ac2440e475a5250d87cb9b50b0414dd94a64736f6c6343000813003360c060405234801561001057600080fd5b506040516200238d3803806200238d83398101604081905261003191610042565b61ffff90911660805260a052610077565b6000806040838503121561005557600080fd5b825161ffff8116811461006757600080fd5b6020939093015192949293505050565b60805160a0516122f06200009d6000396000610509015260006105b601526122f06000f3fe6080604052600436106101ee5760003560e01c80638129fc1c1161010d578063c0fd8bde116100a0578063eb8d3f121161006f578063eb8d3f12146102d3578063f42bc6411461071b578063f8ce560a1461073b578063f951975a14610756578063fbe3c2cd1461078357600080fd5b8063c0fd8bde1461065d578063cb4cfea81461068c578063d60b347f146106e6578063e039f2241461070757600080fd5b8063a0cce1b3116100dc578063a0cce1b3146105e9578063a9e1189314610609578063b172b22214610636578063b19a437e1461064a57600080fd5b80638129fc1c1461054d578063875be02a1461055957806393df337e146105875780639a8a0592146105a757600080fd5b80634a12a76311610185578063515f324711610154578063515f3247146104805780635cb8cae2146104da57806364d42b17146104fa5780636606b4e01461052d57600080fd5b80634a12a763146103605780634cf842b5146103905780634fc608a3146103e75780634fdc60fa1461041d57600080fd5b80631cfe7951116101c15780631cfe7951146102d35780631e5a2802146102ef57806323aa2a9d1461030f5780632c3c02a41461032f57600080fd5b80630319e59c146101f357806304ca84cf14610265578063178149e7146102925780631a90a219146102b4575b600080fd5b3480156101ff57600080fd5b5061021361020e366004611a0f565b610797565b60405161025c9190600060a0820190508251825260ff602084015116602083015261ffff6040840151166040830152606083015160608301526080830151608083015292915050565b60405180910390f35b34801561027157600080fd5b50610285610280366004611a0f565b610826565b60405161025c9190611aaa565b34801561029e57600080fd5b506102b26102ad366004611a0f565b610893565b005b3480156102c057600080fd5b506002545b60405190815260200161025c565b3480156102df57600080fd5b506040516000815260200161025c565b3480156102fb57600080fd5b506102b261030a366004611b07565b6108f5565b34801561031b57600080fd5b506102b261032a366004611b78565b600255565b34801561033b57600080fd5b5061035061034a366004611b78565b50600090565b604051901515815260200161025c565b34801561036c57600080fd5b5061035061037b366004611b78565b60016020526000908152604090205460ff1681565b34801561039c57600080fd5b506103cf6103ab366004611bad565b6001600160a01b03166000908152602081905260409020546001600160401b031690565b6040516001600160401b03909116815260200161025c565b3480156103f357600080fd5b506103cf610402366004611bad565b6000602081905290815260409020546001600160401b031681565b34801561042957600080fd5b5061043d610438366004611a0f565b610927565b60405161025c91908151815260208083015160ff169082015260408083015161ffff16908201526060918201516001600160a01b03169181019190915260800190565b34801561048c57600080fd5b506104a061049b366004611a0f565b6109ad565b60405161025c91908151815260208083015160ff169082015260408083015161ffff16908201526060918201519181019190915260800190565b3480156104e657600080fd5b506102b26104f5366004611a0f565b610a31565b34801561050657600080fd5b507f00000000000000000000000000000000000000000000000000000000000000006102c5565b34801561053957600080fd5b506102b2610548366004611a0f565b610a94565b3480156102b257600080fd5b34801561056557600080fd5b50610579610574366004611cea565b610af6565b60405161025c929190611e54565b34801561059357600080fd5b506102b26105a2366004611a0f565b610b52565b3480156105b357600080fd5b507f00000000000000000000000000000000000000000000000000000000000000005b60405161ffff909116815260200161025c565b3480156105f557600080fd5b50610579610604366004611e6f565b610bb2565b34801561061557600080fd5b50610629610624366004611b07565b610c16565b60405161025c91906120cb565b34801561064257600080fd5b5060046102c5565b6103cf6106583660046120de565b610c2f565b34801561066957600080fd5b5061067d610678366004611b07565b610d08565b60405161025c9392919061213b565b34801561069857600080fd5b506106ac6106a7366004611a0f565b610d54565b60405161025c91908151815260208083015160ff16908201526040808301519082015260609182015161ffff169181019190915260800190565b3480156106f257600080fd5b50610350610701366004611bad565b50600190565b34801561071357600080fd5b506000610350565b34801561072757600080fd5b506102b2610736366004611a0f565b610dd9565b34801561074757600080fd5b506102c5610701366004611b78565b34801561076257600080fd5b50610776610771366004612172565b610e3a565b60405161025c919061218d565b34801561078f57600080fd5b5060016105d6565b6040805160a08101825260008082526020820181905291810182905260608101829052608081019190915260405162461bcd60e51b815260206004820152602e60248201527f756e737570706f727465642070617273655472616e736665724665657320696e60448201526d20776f726d686f6c65206d6f636b60901b60648201526084015b60405180910390fd5b61082e611838565b60405162461bcd60e51b815260206004820152603460248201527f756e737570706f72746564207061727365477561726469616e5365745570677260448201527361646520696e20776f726d686f6c65206d6f636b60601b606482015260840161081d565b60405162461bcd60e51b815260206004820152603160248201527f756e737570706f72746564207375626d69745265636f766572436861696e496460448201527020696e20776f726d686f6c65206d6f636b60781b606482015260840161081d565b60006109018383610eab565b61014001516000908152600160208190526040909120805460ff19169091179055505050565b60408051608081018252600080825260208201819052918101829052606081019190915260405162461bcd60e51b815260206004820152603160248201527f756e737570706f72746564207061727365436f6e74726163745570677261646560448201527020696e20776f726d686f6c65206d6f636b60781b606482015260840161081d565b60408051608081018252600080825260208201819052918101829052606081019190915260405162461bcd60e51b815260206004820152602f60248201527f756e737570706f727465642070617273655365744d657373616765466565206960448201526e6e20776f726d686f6c65206d6f636b60881b606482015260840161081d565b60405162461bcd60e51b815260206004820152603260248201527f756e737570706f72746564207375626d6974436f6e74726163745570677261646044820152716520696e20776f726d686f6c65206d6f636b60701b606482015260840161081d565b60405162461bcd60e51b815260206004820152603160248201527f756e737570706f72746564207375626d69744e6577477561726469616e53657460448201527020696e20776f726d686f6c65206d6f636b60781b606482015260840161081d565b60405162461bcd60e51b815260206004820152602560248201527f756e737570706f7274656420766572696679564d20696e20776f726d686f6c65604482015264206d6f636b60d81b606482015260009060609060840161081d565b60405162461bcd60e51b815260206004820152602f60248201527f756e737570706f72746564207375626d69745472616e7366657246656573206960448201526e6e20776f726d686f6c65206d6f636b60881b606482015260840161081d565b60405162461bcd60e51b815260206004820152602d60248201527f756e737570706f72746564207665726966795369676e61747572657320696e2060448201526c776f726d686f6c65206d6f636b60981b606482015260009060609060840161081d565b610c1e611892565b610c288383610eab565b9392505050565b60006002543414610c705760405162461bcd60e51b815260206004820152600b60248201526a696e76616c69642066656560a81b604482015260640161081d565b33600090815260208190526040812080546001600160401b031691610c94836121b6565b91906101000a8154816001600160401b0302191690836001600160401b031602179055509050336001600160a01b03167f6eb224fb001ed210e379b335e35efe88672a8ce935d981a6896b27ffdf52a3b282868686604051610cf994939291906121dc565b60405180910390a29392505050565b610d10611892565b60006060610d1e8585610eab565b6101408101516000908152600160209081526040808320548151928301909152918152919760ff90911615965090945092505050565b60408051608081018252600080825260208201819052918101829052606081019190915260405162461bcd60e51b815260206004820152603060248201527f756e737570706f727465642070617273655265636f766572436861696e49642060448201526f696e20776f726d686f6c65206d6f636b60801b606482015260840161081d565b60405162461bcd60e51b815260206004820152603060248201527f756e737570706f72746564207375626d69745365744d6573736167654665652060448201526f696e20776f726d686f6c65206d6f636b60801b606482015260840161081d565b60408051808201909152606081526000602082015260405162461bcd60e51b815260206004820152602b60248201527f756e737570706f7274656420676574477561726469616e53657420696e20776f60448201526a726d686f6c65206d6f636b60a81b606482015260840161081d565b610eb3611892565b600160086020600260048085610ec9828261221e565b610ed3919061221e565b610edd919061221e565b610ee7919061221e565b610ef1919061221e565b610efb919061221e565b610f05919061221e565b610f0f919061221e565b821015610f4d5760405162461bcd60e51b815260206004820152600c60248201526b1d9b481d1bdbc81cdb585b1b60a21b604482015260640161081d565b60606000610f948186868080601f01602080910402602001604051908101604052809392919081815260200183838082843760009201919091525092939250506112fd9050565b60ff168352610fa460018261221e565b9050610fe98186868080601f016020809104026020016040519081016040528093929190818152602001838380828437600092019190915250929392505061135f9050565b63ffffffff1661010084015261100060048261221e565b905061100d8585836113bc565b610120850191909152905061102484828188612231565b8080601f01602080910402602001604051908101604052809392919081815260200183838082843760009201919091525050604080516020601f8a0181900481028201810190925288815293955061109e9385935091508890889081908401838280828437600092019190915250929392505061135f9050565b63ffffffff1660208401526110b460048261221e565b90506110f98186868080601f016020809104026020016040519081016040528093929190818152602001838380828437600092019190915250929392505061135f9050565b63ffffffff16604084015261110f60048261221e565b90506111548186868080601f01602080910402602001604051908101604052809392919081815260200183838082843760009201919091525092939250506117209050565b61ffff16606084015261116860028261221e565b90506111ad8186868080601f016020809104026020016040519081016040528093929190818152602001838380828437600092019190915250929392505061177d9050565b60808401526111bd60208261221e565b90506112028186868080601f01602080910402602001604051908101604052809392919081815260200183838082843760009201919091525092939250506117db9050565b6001600160401b031660a084015261121b60088261221e565b90506112608186868080601f01602080910402602001604051908101604052809392919081815260200183838082843760009201919091525092939250506112fd9050565b60ff1660c084015261127360018261221e565b905061128184828188612231565b8080601f01602080910402602001604051908101604052809392919081815260200183838082843760009201919091525050505060e084015281516020808401919091206040516112d6920190815260200190565b60408051601f19818403018152919052805160209091012061014084015250909392505050565b600061130a82600161221e565b835110156113505760405162461bcd60e51b8152602060048201526013602482015272746f55696e74385f6f75744f66426f756e647360681b604482015260640161081d565b50818101600101515b92915050565b600061136c82600461221e565b835110156113b35760405162461bcd60e51b8152602060048201526014602482015273746f55696e7433325f6f75744f66426f756e647360601b604482015260640161081d565b50016004015190565b60606000806114048487878080601f01602080910402602001604051908101604052809392919081815260200183838082843760009201919091525092939250506112fd9050565b60ff16905061141460018561221e565b935060016020611424818361221e565b61142e919061221e565b611438919061221e565b611442908261225b565b600160086020600260048085611458828261221e565b611462919061221e565b61146c919061221e565b611476919061221e565b611480919061221e565b61148a919061221e565b611494919061221e565b61149e919061221e565b6114a8919061221e565b8510156114e65760405162461bcd60e51b815260206004820152600c60248201526b1d9b481d1bdbc81cdb585b1b60a21b604482015260640161081d565b806001600160401b038111156114fe576114fe6118ed565b60405190808252806020026020018201604052801561155057816020015b60408051608081018252600080825260208083018290529282018190526060820152825260001990920191018161151c5790505b50925060005b818110156117135760006115a38689898080601f01602080910402602001604051908101604052809392919081815260200183838082843760009201919091525092939250506112fd9050565b90506115b060018761221e565b955060006115f7878a8a8080601f016020809104026020016040519081016040528093929190818152602001838380828437600092019190915250929392505061177d9050565b905061160460208861221e565b9650600061164b888b8b8080601f016020809104026020016040519081016040528093929190818152602001838380828437600092019190915250929392505061177d9050565b905061165860208961221e565b9750600061169f898c8c8080601f01602080910402602001604051908101604052809392919081815260200183838082843760009201919091525092939250506112fd9050565b90506116ac60018a61221e565b9850604051806080016040528084815260200183815260200182601b6116d29190612272565b60ff1681526020018560ff168152508886815181106116f3576116f361228b565b6020026020010181905250505050508061170c906122a1565b9050611556565b5083915050935093915050565b600061172d82600261221e565b835110156117745760405162461bcd60e51b8152602060048201526014602482015273746f55696e7431365f6f75744f66426f756e647360601b604482015260640161081d565b50016002015190565b600061178a82602061221e565b835110156117d25760405162461bcd60e51b8152602060048201526015602482015274746f427974657333325f6f75744f66426f756e647360581b604482015260640161081d565b50016020015190565b60006117e882600861221e565b8351101561182f5760405162461bcd60e51b8152602060048201526014602482015273746f55696e7436345f6f75744f66426f756e647360601b604482015260640161081d565b50016008015190565b6040518060a0016040528060008019168152602001600060ff168152602001600061ffff168152602001611885604051806040016040528060608152602001600063ffffffff1681525090565b8152600060209091015290565b604080516101608101825260008082526020820181905291810182905260608082018390526080820183905260a0820183905260c0820183905260e08201819052610100820183905261012082015261014081019190915290565b634e487b7160e01b600052604160045260246000fd5b604051608081016001600160401b0381118282101715611925576119256118ed565b60405290565b60405161016081016001600160401b0381118282101715611925576119256118ed565b604080519081016001600160401b0381118282101715611925576119256118ed565b604051601f8201601f191681016001600160401b0381118282101715611998576119986118ed565b604052919050565b600082601f8301126119b157600080fd5b81356001600160401b038111156119ca576119ca6118ed565b6119dd601f8201601f1916602001611970565b8181528460208386010111156119f257600080fd5b816020850160208301376000918101602001919091529392505050565b600060208284031215611a2157600080fd5b81356001600160401b03811115611a3757600080fd5b611a43848285016119a0565b949350505050565b805160408084528151908401819052600091602091908201906060860190845b81811015611a905783516001600160a01b031683529284019291840191600101611a6b565b50509382015163ffffffff16949091019390935250919050565b602081528151602082015260ff602083015116604082015261ffff60408301511660608201526000606083015160a06080840152611aeb60c0840182611a4b565b905063ffffffff60808501511660a08401528091505092915050565b60008060208385031215611b1a57600080fd5b82356001600160401b0380821115611b3157600080fd5b818501915085601f830112611b4557600080fd5b813581811115611b5457600080fd5b866020828501011115611b6657600080fd5b60209290920196919550909350505050565b600060208284031215611b8a57600080fd5b5035919050565b80356001600160a01b0381168114611ba857600080fd5b919050565b600060208284031215611bbf57600080fd5b610c2882611b91565b803560ff81168114611ba857600080fd5b803563ffffffff81168114611ba857600080fd5b803561ffff81168114611ba857600080fd5b80356001600160401b0381168114611ba857600080fd5b60006001600160401b03821115611c2f57611c2f6118ed565b5060051b60200190565b600082601f830112611c4a57600080fd5b81356020611c5f611c5a83611c16565b611970565b82815260079290921b84018101918181019086841115611c7e57600080fd5b8286015b84811015611cdf5760808189031215611c9b5760008081fd5b611ca3611903565b8135815284820135858201526040611cbc818401611bc8565b908201526060611ccd838201611bc8565b90820152835291830191608001611c82565b509695505050505050565b600060208284031215611cfc57600080fd5b81356001600160401b0380821115611d1357600080fd5b908301906101608286031215611d2857600080fd5b611d3061192b565b611d3983611bc8565b8152611d4760208401611bd9565b6020820152611d5860408401611bd9565b6040820152611d6960608401611bed565b606082015260808301356080820152611d8460a08401611bff565b60a0820152611d9560c08401611bc8565b60c082015260e083013582811115611dac57600080fd5b611db8878286016119a0565b60e083015250610100611dcc818501611bd9565b908201526101208381013583811115611de457600080fd5b611df088828701611c39565b91830191909152506101409283013592810192909252509392505050565b6000815180845260005b81811015611e3457602081850181015186830182015201611e18565b506000602082860101526020601f19601f83011685010191505092915050565b8215158152604060208201526000611a436040830184611e0e565b600080600060608486031215611e8457600080fd5b833592506020808501356001600160401b0380821115611ea357600080fd5b611eaf88838901611c39565b94506040870135915080821115611ec557600080fd5b9086019060408289031215611ed957600080fd5b611ee161194e565b823582811115611ef057600080fd5b83019150601f82018913611f0357600080fd5b8135611f11611c5a82611c16565b81815260059190911b8301850190858101908b831115611f3057600080fd5b938601935b82851015611f5557611f4685611b91565b82529386019390860190611f35565b835250611f659050838501611bd9565b84820152809450505050509250925092565b600081518084526020808501945080840160005b83811015611fd057815180518852838101518489015260408082015160ff908116918a0191909152606091820151169088015260809096019590820190600101611f8b565b509495945050505050565b805160ff16825260006101606020830151611ffe602086018263ffffffff169052565b506040830151612016604086018263ffffffff169052565b50606083015161202c606086018261ffff169052565b506080830151608085015260a083015161205160a08601826001600160401b03169052565b5060c083015161206660c086018260ff169052565b5060e08301518160e086015261207e82860182611e0e565b915050610100808401516120998287018263ffffffff169052565b505061012080840151858303828701526120b38382611f77565b61014095860151969095019590955250919392505050565b602081526000610c286020830184611fdb565b6000806000606084860312156120f357600080fd5b6120fc84611bd9565b925060208401356001600160401b0381111561211757600080fd5b612123868287016119a0565b92505061213260408501611bc8565b90509250925092565b60608152600061214e6060830186611fdb565b841515602084015282810360408401526121688185611e0e565b9695505050505050565b60006020828403121561218457600080fd5b610c2882611bd9565b602081526000610c286020830184611a4b565b634e487b7160e01b600052601160045260246000fd5b60006001600160401b038083168181036121d2576121d26121a0565b6001019392505050565b6001600160401b038516815263ffffffff8416602082015260806040820152600061220a6080830185611e0e565b905060ff8316606083015295945050505050565b80820180821115611359576113596121a0565b6000808585111561224157600080fd5b8386111561224e57600080fd5b5050820193919092039150565b8082028115828204841417611359576113596121a0565b60ff8181168382160190811115611359576113596121a0565b634e487b7160e01b600052603260045260246000fd5b6000600182016122b3576122b36121a0565b506001019056fea264697066735822122090b1786525b526940b649cdab0ebbe87e3389aedc97b7c738935b252a733bf2664736f6c63430008130033608060405234801561001057600080fd5b50604051611ac8380380611ac883398101604081905261002f91610054565b600080546001600160a01b0319166001600160a01b0392909216919091179055610084565b60006020828403121561006657600080fd5b81516001600160a01b038116811461007d57600080fd5b9392505050565b611a35806100936000396000f3fe608060405234801561001057600080fd5b50600436106100935760003560e01c806364bb9bfb1161006657806364bb9bfb146100fc57806384acd1bb1461010f578063920539af1461013a5780639404495d1461014d578063fb41833e1461016d57600080fd5b80630e645295146100985780631e5a2802146100c157806323aa2a9d146100d65780634603c12a146100e9575b600080fd5b6100ab6100a636600461109a565b61018d565b6040516100b8919061120e565b60405180910390f35b6100d46100cf366004611228565b610251565b005b6100d46100e4366004611264565b6102b6565b6100ab6100f7366004611358565b6102e7565b6100ab61010a36600461109a565b610331565b600054610122906001600160a01b031681565b6040516001600160a01b0390911681526020016100b8565b6100ab610148366004611434565b610382565b61016061015b3660046114a4565b6107af565b6040516100b891906114d8565b61018061017b366004611588565b61096b565b6040516100b89190611620565b6060600061019a83610331565b90506101a581610b2a565b610140840152825160005460408051631cfe795160e01b815290516001600160a01b0390921691631cfe7951916004808201926020929091908290030181865afa1580156101f7573d6000803e3d6000fd5b505050506040513d601f19601f8201168201806040525081019061021b919061170c565b60405161023a9291906001906000908190819081908990602001611745565b604051602081830303815290604052915050919050565b600054604051630f2d140160e11b81526001600160a01b0390911690631e5a28029061028190849060040161120e565b600060405180830381600087803b15801561029b57600080fd5b505af11580156102af573d6000803e3d6000fd5b5050505050565b6000546040516323aa2a9d60e01b8152600481018390526001600160a01b03909116906323aa2a9d90602401610281565b606060006102f48561096b565b6001815263ffffffff4216602082015261ffff851660608201526001600160a01b038416608082015290506103288161018d565b95945050505050565b606081602001518260400151836060015184608001518560a001518660c001518760e0015160405160200161036c97969594939291906117bb565b6040516020818303038152906040529050919050565b606060008086516001600160401b038111156103a0576103a0610e45565b6040519080825280602002602001820160405280156103d957816020015b6103c6610dea565b8152602001906001900390816103be5790505b50905060005b87518110156105045761040a8882815181106103fd576103fd611842565b602002602001015161096b565b82828151811061041c5761041c611842565b60200260200101819052504282828151811061043a5761043a611842565b60200260200101516020019063ffffffff16908163ffffffff16815250508582828151811061046b5761046b611842565b60200260200101516060019061ffff16908161ffff1681525050846001600160a01b031660001b8282815181106104a4576104a4611842565b602002602001015160800181815250508663ffffffff168282815181106104cd576104cd611842565b60200260200101516040015163ffffffff16036104f2576104ef60018461186e565b92505b806104fc81611887565b9150506103df565b50606060008360ff166001600160401b0381111561052457610524610e45565b60405190808252806020026020018201604052801561054d578160200160208202803683370190505b5090506000805b8a518110156106fd578963ffffffff1685828151811061057657610576611842565b60200260200101516040015163ffffffff16036106eb5760008582815181106105a1576105a1611842565b6020026020010151602001518683815181106105bf576105bf611842565b6020026020010151604001518784815181106105dd576105dd611842565b6020026020010151606001518885815181106105fb576105fb611842565b60200260200101516080015189868151811061061957610619611842565b602002602001015160a001518a878151811061063757610637611842565b602002602001015160c001518b888151811061065557610655611842565b602002602001015160e0015160405160200161067797969594939291906117bb565b604051602081830303815290604052905061069181610b2a565b848460ff16815181106106a6576106a6611842565b60200260200101818152505084838251836040516020016106ca94939291906118a0565b604051602081830303815290604052945082806106e6906118fc565b935050505b806106f581611887565b915050610554565b5060005460408051631cfe795160e01b815290516002926001600160a01b031691631cfe79519160048083019260209291908290030181865afa158015610748573d6000803e3d6000fd5b505050506040513d601f19601f8201168201806040525081019061076c919061170c565b6040516107919291906001906000908190819081908d908b9082908e9060200161191b565b60405160208183030381529060405295505050505050949350505050565b60606000805b835181101561083c577f6eb224fb001ed210e379b335e35efe88672a8ce935d981a6896b27ffdf52a3b28482815181106107f1576107f1611842565b60200260200101516000015160008151811061080f5761080f611842565b60200260200101510361082a576108276001836119d9565b91505b8061083481611887565b9150506107b5565b506000816001600160401b0381111561085757610857610e45565b60405190808252806020026020018201604052801561089c57816020015b60408051808201909152606080825260208201528152602001906001900390816108755790505b5090506000805b8551811015610961577f6eb224fb001ed210e379b335e35efe88672a8ce935d981a6896b27ffdf52a3b28682815181106108df576108df611842565b6020026020010151600001516000815181106108fd576108fd611842565b60200260200101510361094f5785818151811061091c5761091c611842565b602002602001015183838151811061093657610936611842565b602090810291909101015261094c6001836119d9565b91505b8061095981611887565b9150506108a3565b5090949350505050565b610973610dea565b6000826000015160018151811061098c5761098c611842565b60200260200101518260800181815250506109c460088260206109af91906119d9565b6109b991906119ec565b602085015190610b63565b6001600160401b031660a08301526109dd6020826119d9565b9050610a0460046109ef8360206119d9565b6109f991906119ec565b602085015190610bc6565b63ffffffff166040830152610a1a6020826119d9565b9050610a276020826119d9565b9050610a4e6001610a398360206119d9565b610a4391906119ec565b602085015190610c23565b60ff1660c0830152610a616020826119d9565b90506000610a7c828560200151610c7f90919063ffffffff16565b9050610a896020836119d9565b6020850151909250610a9c908383610cdd565b60e0840152610aab81836119d9565b915081846020015151610abe91906119ec565b610ac890836119d9565b91508360200151518214610b235760405162461bcd60e51b815260206004820181905260248201527f6661696c656420746f20706172736520776f726d686f6c65206d65737361676560448201526064015b60405180910390fd5b5050919050565b60008180519060200120604051602001610b4691815260200190565b604051602081830303815290604052805190602001209050919050565b6000610b708260086119d9565b83511015610bb75760405162461bcd60e51b8152602060048201526014602482015273746f55696e7436345f6f75744f66426f756e647360601b6044820152606401610b1a565b50818101600801515b92915050565b6000610bd38260046119d9565b83511015610c1a5760405162461bcd60e51b8152602060048201526014602482015273746f55696e7433325f6f75744f66426f756e647360601b6044820152606401610b1a565b50016004015190565b6000610c308260016119d9565b83511015610c765760405162461bcd60e51b8152602060048201526013602482015272746f55696e74385f6f75744f66426f756e647360681b6044820152606401610b1a565b50016001015190565b6000610c8c8260206119d9565b83511015610cd45760405162461bcd60e51b8152602060048201526015602482015274746f55696e743235365f6f75744f66426f756e647360581b6044820152606401610b1a565b50016020015190565b606081610ceb81601f6119d9565b1015610d2a5760405162461bcd60e51b815260206004820152600e60248201526d736c6963655f6f766572666c6f7760901b6044820152606401610b1a565b610d3482846119d9565b84511015610d785760405162461bcd60e51b8152602060048201526011602482015270736c6963655f6f75744f66426f756e647360781b6044820152606401610b1a565b606082158015610d975760405191506000825260208201604052610de1565b6040519150601f8416801560200281840101858101878315602002848b0101015b81831015610dd0578051835260209283019201610db8565b5050858452601f01601f1916604052505b50949350505050565b604080516101608101825260008082526020820181905291810182905260608082018390526080820183905260a0820183905260c0820183905260e08201819052610100820183905261012082015261014081019190915290565b634e487b7160e01b600052604160045260246000fd5b604051608081016001600160401b0381118282101715610e7d57610e7d610e45565b60405290565b60405161016081016001600160401b0381118282101715610e7d57610e7d610e45565b604080519081016001600160401b0381118282101715610e7d57610e7d610e45565b604051601f8201601f191681016001600160401b0381118282101715610ef057610ef0610e45565b604052919050565b803560ff81168114610f0957600080fd5b919050565b63ffffffff81168114610f2057600080fd5b50565b8035610f0981610f0e565b803561ffff81168114610f0957600080fd5b80356001600160401b0381168114610f0957600080fd5b600082601f830112610f6857600080fd5b81356001600160401b03811115610f8157610f81610e45565b610f94601f8201601f1916602001610ec8565b818152846020838601011115610fa957600080fd5b816020850160208301376000918101602001919091529392505050565b60006001600160401b03821115610fdf57610fdf610e45565b5060051b60200190565b600082601f830112610ffa57600080fd5b8135602061100f61100a83610fc6565b610ec8565b82815260079290921b8401810191818101908684111561102e57600080fd5b8286015b8481101561108f576080818903121561104b5760008081fd5b611053610e5b565b813581528482013585820152604061106c818401610ef8565b90820152606061107d838201610ef8565b90820152835291830191608001611032565b509695505050505050565b6000602082840312156110ac57600080fd5b81356001600160401b03808211156110c357600080fd5b9083019061016082860312156110d857600080fd5b6110e0610e83565b6110e983610ef8565b81526110f760208401610f23565b602082015261110860408401610f23565b604082015261111960608401610f2e565b60608201526080830135608082015261113460a08401610f40565b60a082015261114560c08401610ef8565b60c082015260e08301358281111561115c57600080fd5b61116887828601610f57565b60e08301525061010061117c818501610f23565b90820152610120838101358381111561119457600080fd5b6111a088828701610fe9565b91830191909152506101409283013592810192909252509392505050565b60005b838110156111d95781810151838201526020016111c1565b50506000910152565b600081518084526111fa8160208601602086016111be565b601f01601f19169290920160200192915050565b60208152600061122160208301846111e2565b9392505050565b60006020828403121561123a57600080fd5b81356001600160401b0381111561125057600080fd5b61125c84828501610f57565b949350505050565b60006020828403121561127657600080fd5b5035919050565b60006040828403121561128f57600080fd5b611297610ea6565b905081356001600160401b03808211156112b057600080fd5b818401915084601f8301126112c457600080fd5b813560206112d461100a83610fc6565b82815260059290921b840181019181810190888411156112f357600080fd5b948201945b83861015611311578535825294820194908201906112f8565b8652508581013593508284111561132757600080fd5b61133387858801610f57565b818601525050505092915050565b80356001600160a01b0381168114610f0957600080fd5b60008060006060848603121561136d57600080fd5b83356001600160401b0381111561138357600080fd5b61138f8682870161127d565b93505061139e60208501610f2e565b91506113ac60408501611341565b90509250925092565b600082601f8301126113c657600080fd5b813560206113d661100a83610fc6565b82815260059290921b840181019181810190868411156113f557600080fd5b8286015b8481101561108f5780356001600160401b038111156114185760008081fd5b6114268986838b010161127d565b8452509183019183016113f9565b6000806000806080858703121561144a57600080fd5b84356001600160401b0381111561146057600080fd5b61146c878288016113b5565b945050602085013561147d81610f0e565b925061148b60408601610f2e565b915061149960608601611341565b905092959194509250565b6000602082840312156114b657600080fd5b81356001600160401b038111156114cc57600080fd5b61125c848285016113b5565b60006020808301818452808551808352604092508286019150828160051b8701018488016000805b8481101561157957898403603f19018652825180518886528051898701819052908a0190849060608801905b8083101561154c5783518252928c019260019290920191908c019061152c565b50928b0151878403888d01529261156381856111e2565b998c019997505050938901935050600101611500565b50919998505050505050505050565b60006020828403121561159a57600080fd5b81356001600160401b038111156115b057600080fd5b61125c8482850161127d565b600081518084526020808501945080840160005b8381101561161557815180518852838101518489015260408082015160ff908116918a01919091526060918201511690880152608090960195908201906001016115d0565b509495945050505050565b6020815261163460208201835160ff169052565b6000602083015161164d604084018263ffffffff169052565b50604083015163ffffffff8116606084015250606083015161ffff8116608084015250608083015160a083015260a083015161169460c08401826001600160401b03169052565b5060c083015160ff811660e08401525060e083015161016061010081818601526116c26101808601846111e2565b908601519092506101206116dd8682018363ffffffff169052565b80870151915050610140601f1986850301818701526116fc84836115bc565b9601519190940152509192915050565b60006020828403121561171e57600080fd5b815161122181610f0e565b6000815161173b8185602086016111be565b9290920192915050565b600060ff60f81b808b60f81b16835263ffffffff60e01b8a60e01b166001840152808960f81b166005840152808860f81b166006840152866007840152856027840152808560f81b1660478401525082516117a78160488501602087016111be565b919091016048019998505050505050505050565b6001600160e01b031960e089811b8216835288901b1660048201526001600160f01b031960f087901b166008820152600a81018590526001600160c01b031960c085901b16602a8201526001600160f81b031960f884901b166032820152815160009061182f8160338501602087016111be565b9190910160330198975050505050505050565b634e487b7160e01b600052603260045260246000fd5b634e487b7160e01b600052601160045260246000fd5b60ff8181168382160190811115610bc057610bc0611858565b60006001820161189957611899611858565b5060010190565b600085516118b2818460208a016111be565b60f886901b6001600160f81b03191690830190815260e085901b6001600160e01b031916600182015283516118ee8160058401602088016111be565b016005019695505050505050565b600060ff821660ff810361191257611912611858565b60010192915050565b600060ff60f81b808e60f81b168352600163ffffffff60e01b8e60e01b1681850152818d60f81b166005850152818c60f81b1660068501528a6007850152896027850152818960f81b166047850152818860f81b1660488501526049840191508651602080890160005b838110156119a0578151865294820194908201908401611985565b505050506119ba828760f81b6001600160f81b0319169052565b6119c681830186611729565b9f9e505050505050505050505050505050565b80820180821115610bc057610bc0611858565b81810381811115610bc057610bc061185856fea26469706673582212205702d8d1f42cc6deb44c4622b43747e170c744083d2f9aa5ff43f7f3da2755cc64736f6c63430008130033",
    "linkReferences": {}
  },
  "methodIdentifiers": {
    "registerWormholeRelayerContract(address,address,uint16,uint16,bytes32)": "40632c90",
    "setUpDeliveryProvider(uint16,address)": "552595a2",
    "setUpWormhole(uint16)": "f25a40f9",
    "setUpWormholeRelayer(address,address)": "a411d694",
    "vm()": "3a768463"
  },
  "id": 36
}