{
  "abi": [
    {
      "inputs": [
        {
          "internalType": "address",
          "name": "wormhole",
          "type": "address"
        }
      ],
      "stateMutability": "nonpayable",
      "type": "constructor"
    },
    {
      "inputs": [
        {
          "internalType": "Gas",
          "name": "gasUsed",
          "type": "uint256"
        },
        {
          "internalType": "LocalNative",
          "name": "available",
          "type": "uint256"
        },
        {
          "internalType": "LocalNative",
          "name": "required",
          "type": "uint256"
        }
      ],
      "name": "Cancelled",
      "type": "error"
    },
    {
      "inputs": [
        {
          "internalType": "bytes",
          "name": "failure",
          "type": "bytes"
        }
      ],
      "name": "ContractUpgradeFailed",
      "type": "error"
    },
    {
      "inputs": [],
      "name": "DeliveryProviderCannotReceivePayment",
      "type": "error"
    },
    {
      "inputs": [
        {
          "internalType": "address",
          "name": "relayer",
          "type": "address"
        },
        {
          "internalType": "uint16",
          "name": "chainId",
          "type": "uint16"
        }
      ],
      "name": "DeliveryProviderDoesNotSupportTargetChain",
      "type": "error"
    },
    {
      "inputs": [
        {
          "internalType": "Gas",
          "name": "gasUsed",
          "type": "uint256"
        }
      ],
      "name": "DeliveryProviderPaymentFailed",
      "type": "error"
    },
    {
      "inputs": [
        {
          "internalType": "Gas",
          "name": "gasUsed",
          "type": "uint256"
        }
      ],
      "name": "DeliveryProviderReverted",
      "type": "error"
    },
    {
      "inputs": [
        {
          "internalType": "address",
          "name": "msgSender",
          "type": "address"
        },
        {
          "internalType": "address",
          "name": "deliveryTarget",
          "type": "address"
        }
      ],
      "name": "ForwardRequestFromWrongAddress",
      "type": "error"
    },
    {
      "inputs": [
        {
          "internalType": "bytes32",
          "name": "hash",
          "type": "bytes32"
        }
      ],
      "name": "GovernanceActionAlreadyConsumed",
      "type": "error"
    },
    {
      "inputs": [
        {
          "internalType": "LocalNative",
          "name": "msgValue",
          "type": "uint256"
        },
        {
          "internalType": "LocalNative",
          "name": "minimum",
          "type": "uint256"
        }
      ],
      "name": "InsufficientRelayerFunds",
      "type": "error"
    },
    {
      "inputs": [
        {
          "internalType": "string",
          "name": "reason",
          "type": "string"
        }
      ],
      "name": "InvalidDeliveryVaa",
      "type": "error"
    },
    {
      "inputs": [
        {
          "internalType": "bytes32",
          "name": "emitter",
          "type": "bytes32"
        },
        {
          "internalType": "bytes32",
          "name": "registered",
          "type": "bytes32"
        },
        {
          "internalType": "uint16",
          "name": "chainId",
          "type": "uint16"
        }
      ],
      "name": "InvalidEmitter",
      "type": "error"
    },
    {
      "inputs": [],
      "name": "InvalidFork",
      "type": "error"
    },
    {
      "inputs": [
        {
          "internalType": "uint16",
          "name": "parsed",
          "type": "uint16"
        },
        {
          "internalType": "uint16",
          "name": "expected",
          "type": "uint16"
        }
      ],
      "name": "InvalidGovernanceChainId",
      "type": "error"
    },
    {
      "inputs": [
        {
          "internalType": "bytes32",
          "name": "parsed",
          "type": "bytes32"
        },
        {
          "internalType": "bytes32",
          "name": "expected",
          "type": "bytes32"
        }
      ],
      "name": "InvalidGovernanceContract",
      "type": "error"
    },
    {
      "inputs": [
        {
          "internalType": "string",
          "name": "reason",
          "type": "string"
        }
      ],
      "name": "InvalidGovernanceVM",
      "type": "error"
    },
    {
      "inputs": [
        {
          "internalType": "LocalNative",
          "name": "msgValue",
          "type": "uint256"
        },
        {
          "internalType": "LocalNative",
          "name": "totalFee",
          "type": "uint256"
        }
      ],
      "name": "InvalidMsgValue",
      "type": "error"
    },
    {
      "inputs": [],
      "name": "InvalidOverrideGasLimit",
      "type": "error"
    },
    {
      "inputs": [],
      "name": "InvalidOverrideReceiverValue",
      "type": "error"
    },
    {
      "inputs": [],
      "name": "InvalidOverrideRefundPerGasUnused",
      "type": "error"
    },
    {
      "inputs": [
        {
          "internalType": "uint8",
          "name": "parsed",
          "type": "uint8"
        },
        {
          "internalType": "uint8",
          "name": "expected",
          "type": "uint8"
        }
      ],
      "name": "InvalidPayloadAction",
      "type": "error"
    },
    {
      "inputs": [
        {
          "internalType": "uint16",
          "name": "parsed",
          "type": "uint16"
        },
        {
          "internalType": "uint16",
          "name": "expected",
          "type": "uint16"
        }
      ],
      "name": "InvalidPayloadChainId",
      "type": "error"
    },
    {
      "inputs": [
        {
          "internalType": "uint8",
          "name": "parsed",
          "type": "uint8"
        },
        {
          "internalType": "uint8",
          "name": "expected",
          "type": "uint8"
        }
      ],
      "name": "InvalidPayloadId",
      "type": "error"
    },
    {
      "inputs": [
        {
          "internalType": "uint256",
          "name": "received",
          "type": "uint256"
        },
        {
          "internalType": "uint256",
          "name": "expected",
          "type": "uint256"
        }
      ],
      "name": "InvalidPayloadLength",
      "type": "error"
    },
    {
      "inputs": [
        {
          "internalType": "bytes32",
          "name": "parsed",
          "type": "bytes32"
        },
        {
          "internalType": "bytes32",
          "name": "expected",
          "type": "bytes32"
        }
      ],
      "name": "InvalidPayloadModule",
      "type": "error"
    },
    {
      "inputs": [],
      "name": "NoDeliveryInProgress",
      "type": "error"
    },
    {
      "inputs": [
        {
          "internalType": "bytes32",
          "name": "",
          "type": "bytes32"
        }
      ],
      "name": "NotAnEvmAddress",
      "type": "error"
    },
    {
      "inputs": [
        {
          "internalType": "address",
          "name": "msgSender",
          "type": "address"
        },
        {
          "internalType": "address",
          "name": "lockedBy",
          "type": "address"
        }
      ],
      "name": "ReentrantDelivery",
      "type": "error"
    },
    {
      "inputs": [],
      "name": "RequesterNotWormholeRelayer",
      "type": "error"
    },
    {
      "inputs": [
        {
          "internalType": "uint16",
          "name": "targetChain",
          "type": "uint16"
        }
      ],
      "name": "TargetChainIsNotThisChain",
      "type": "error"
    },
    {
      "inputs": [
        {
          "internalType": "uint8",
          "name": "version",
          "type": "uint8"
        },
        {
          "internalType": "uint8",
          "name": "expectedVersion",
          "type": "uint8"
        }
      ],
      "name": "UnexpectedExecutionInfoVersion",
      "type": "error"
    },
    {
      "inputs": [
        {
          "internalType": "uint8",
          "name": "index",
          "type": "uint8"
        }
      ],
      "name": "VaaKeysDoNotMatchVaas",
      "type": "error"
    },
    {
      "inputs": [
        {
          "internalType": "uint256",
          "name": "keys",
          "type": "uint256"
        },
        {
          "internalType": "uint256",
          "name": "vaas",
          "type": "uint256"
        }
      ],
      "name": "VaaKeysLengthDoesNotMatchVaasLength",
      "type": "error"
    },
    {
      "inputs": [
        {
          "internalType": "uint8",
          "name": "instructionVersion",
          "type": "uint8"
        },
        {
          "internalType": "uint8",
          "name": "overrideVersion",
          "type": "uint8"
        }
      ],
      "name": "VersionMismatchOverride",
      "type": "error"
    },
    {
      "anonymous": false,
      "inputs": [
        {
          "indexed": false,
          "internalType": "address",
          "name": "previousAdmin",
          "type": "address"
        },
        {
          "indexed": false,
          "internalType": "address",
          "name": "newAdmin",
          "type": "address"
        }
      ],
      "name": "AdminChanged",
      "type": "event"
    },
    {
      "anonymous": false,
      "inputs": [
        {
          "indexed": true,
          "internalType": "address",
          "name": "beacon",
          "type": "address"
        }
      ],
      "name": "BeaconUpgraded",
      "type": "event"
    },
    {
      "anonymous": false,
      "inputs": [
        {
          "indexed": true,
          "internalType": "address",
          "name": "recipientContract",
          "type": "address"
        },
        {
          "indexed": true,
          "internalType": "uint16",
          "name": "sourceChain",
          "type": "uint16"
        },
        {
          "indexed": true,
          "internalType": "uint64",
          "name": "sequence",
          "type": "uint64"
        },
        {
          "indexed": false,
          "internalType": "bytes32",
          "name": "deliveryVaaHash",
          "type": "bytes32"
        },
        {
          "indexed": false,
          "internalType": "enum IWormholeRelayerDelivery.DeliveryStatus",
          "name": "status",
          "type": "uint8"
        },
        {
          "indexed": false,
          "internalType": "Gas",
          "name": "gasUsed",
          "type": "uint256"
        },
        {
          "indexed": false,
          "internalType": "enum IWormholeRelayerDelivery.RefundStatus",
          "name": "refundStatus",
          "type": "uint8"
        },
        {
          "indexed": false,
          "internalType": "bytes",
          "name": "additionalStatusInfo",
          "type": "bytes"
        },
        {
          "indexed": false,
          "internalType": "bytes",
          "name": "overridesInfo",
          "type": "bytes"
        }
      ],
      "name": "Delivery",
      "type": "event"
    },
    {
      "anonymous": false,
      "inputs": [
        {
          "indexed": true,
          "internalType": "uint64",
          "name": "sequence",
          "type": "uint64"
        },
        {
          "indexed": false,
          "internalType": "LocalNative",
          "name": "deliveryQuote",
          "type": "uint256"
        },
        {
          "indexed": false,
          "internalType": "LocalNative",
          "name": "paymentForExtraReceiverValue",
          "type": "uint256"
        }
      ],
      "name": "SendEvent",
      "type": "event"
    },
    {
      "anonymous": false,
      "inputs": [
        {
          "indexed": true,
          "internalType": "address",
          "name": "implementation",
          "type": "address"
        }
      ],
      "name": "Upgraded",
      "type": "event"
    },
    {
      "inputs": [],
      "name": "checkAndExecuteUpgradeMigration",
      "outputs": [],
      "stateMutability": "nonpayable",
      "type": "function"
    },
    {
      "inputs": [
        {
          "internalType": "bytes[]",
          "name": "encodedVMs",
          "type": "bytes[]"
        },
        {
          "internalType": "bytes",
          "name": "encodedDeliveryVAA",
          "type": "bytes"
        },
        {
          "internalType": "address payable",
          "name": "relayerRefundAddress",
          "type": "address"
        },
        {
          "internalType": "bytes",
          "name": "deliveryOverrides",
          "type": "bytes"
        }
      ],
      "name": "deliver",
      "outputs": [],
      "stateMutability": "payable",
      "type": "function"
    },
    {
      "inputs": [
        {
          "components": [
            {
              "internalType": "uint16",
              "name": "sourceChain",
              "type": "uint16"
            },
            {
              "internalType": "bytes32",
              "name": "targetAddress",
              "type": "bytes32"
            },
            {
              "internalType": "bytes",
              "name": "payload",
              "type": "bytes"
            },
            {
              "internalType": "Gas",
              "name": "gasLimit",
              "type": "uint256"
            },
            {
              "internalType": "TargetNative",
              "name": "totalReceiverValue",
              "type": "uint256"
            },
            {
              "internalType": "GasPrice",
              "name": "targetChainRefundPerGasUnused",
              "type": "uint256"
            },
            {
              "internalType": "bytes32",
              "name": "senderAddress",
              "type": "bytes32"
            },
            {
              "internalType": "bytes32",
              "name": "deliveryHash",
              "type": "bytes32"
            },
            {
              "internalType": "bytes[]",
              "name": "signedVaas",
              "type": "bytes[]"
            }
          ],
          "internalType": "struct EvmDeliveryInstruction",
          "name": "evmInstruction",
          "type": "tuple"
        }
      ],
      "name": "executeInstruction",
      "outputs": [
        {
          "internalType": "uint8",
          "name": "status",
          "type": "uint8"
        },
        {
          "internalType": "Gas",
          "name": "gasUsed",
          "type": "uint256"
        },
        {
          "internalType": "bytes",
          "name": "targetRevertDataTruncated",
          "type": "bytes"
        }
      ],
      "stateMutability": "nonpayable",
      "type": "function"
    },
    {
      "inputs": [
        {
          "internalType": "uint16",
          "name": "targetChain",
          "type": "uint16"
        },
        {
          "internalType": "bytes32",
          "name": "targetAddress",
          "type": "bytes32"
        },
        {
          "internalType": "bytes",
          "name": "payload",
          "type": "bytes"
        },
        {
          "internalType": "TargetNative",
          "name": "receiverValue",
          "type": "uint256"
        },
        {
          "internalType": "LocalNative",
          "name": "paymentForExtraReceiverValue",
          "type": "uint256"
        },
        {
          "internalType": "bytes",
          "name": "encodedExecutionParameters",
          "type": "bytes"
        },
        {
          "internalType": "uint16",
          "name": "refundChain",
          "type": "uint16"
        },
        {
          "internalType": "bytes32",
          "name": "refundAddress",
          "type": "bytes32"
        },
        {
          "internalType": "address",
          "name": "deliveryProviderAddress",
          "type": "address"
        },
        {
          "components": [
            {
              "internalType": "uint16",
              "name": "chainId",
              "type": "uint16"
            },
            {
              "internalType": "bytes32",
              "name": "emitterAddress",
              "type": "bytes32"
            },
            {
              "internalType": "uint64",
              "name": "sequence",
              "type": "uint64"
            }
          ],
          "internalType": "struct VaaKey[]",
          "name": "vaaKeys",
          "type": "tuple[]"
        },
        {
          "internalType": "uint8",
          "name": "consistencyLevel",
          "type": "uint8"
        }
      ],
      "name": "forward",
      "outputs": [],
      "stateMutability": "payable",
      "type": "function"
    },
    {
      "inputs": [
        {
          "internalType": "uint16",
          "name": "targetChain",
          "type": "uint16"
        },
        {
          "internalType": "address",
          "name": "targetAddress",
          "type": "address"
        },
        {
          "internalType": "bytes",
          "name": "payload",
          "type": "bytes"
        },
        {
          "internalType": "TargetNative",
          "name": "receiverValue",
          "type": "uint256"
        },
        {
          "internalType": "Gas",
          "name": "gasLimit",
          "type": "uint256"
        }
      ],
      "name": "forwardPayloadToEvm",
      "outputs": [],
      "stateMutability": "payable",
      "type": "function"
    },
    {
      "inputs": [
        {
          "internalType": "uint16",
          "name": "targetChain",
          "type": "uint16"
        },
        {
          "internalType": "address",
          "name": "targetAddress",
          "type": "address"
        },
        {
          "internalType": "bytes",
          "name": "payload",
          "type": "bytes"
        },
        {
          "internalType": "TargetNative",
          "name": "receiverValue",
          "type": "uint256"
        },
        {
          "internalType": "LocalNative",
          "name": "paymentForExtraReceiverValue",
          "type": "uint256"
        },
        {
          "internalType": "Gas",
          "name": "gasLimit",
          "type": "uint256"
        },
        {
          "internalType": "uint16",
          "name": "refundChain",
          "type": "uint16"
        },
        {
          "internalType": "address",
          "name": "refundAddress",
          "type": "address"
        },
        {
          "internalType": "address",
          "name": "deliveryProviderAddress",
          "type": "address"
        },
        {
          "components": [
            {
              "internalType": "uint16",
              "name": "chainId",
              "type": "uint16"
            },
            {
              "internalType": "bytes32",
              "name": "emitterAddress",
              "type": "bytes32"
            },
            {
              "internalType": "uint64",
              "name": "sequence",
              "type": "uint64"
            }
          ],
          "internalType": "struct VaaKey[]",
          "name": "vaaKeys",
          "type": "tuple[]"
        },
        {
          "internalType": "uint8",
          "name": "consistencyLevel",
          "type": "uint8"
        }
      ],
      "name": "forwardToEvm",
      "outputs": [],
      "stateMutability": "payable",
      "type": "function"
    },
    {
      "inputs": [
        {
          "internalType": "uint16",
          "name": "targetChain",
          "type": "uint16"
        },
        {
          "internalType": "address",
          "name": "targetAddress",
          "type": "address"
        },
        {
          "internalType": "bytes",
          "name": "payload",
          "type": "bytes"
        },
        {
          "internalType": "TargetNative",
          "name": "receiverValue",
          "type": "uint256"
        },
        {
          "internalType": "Gas",
          "name": "gasLimit",
          "type": "uint256"
        },
        {
          "components": [
            {
              "internalType": "uint16",
              "name": "chainId",
              "type": "uint16"
            },
            {
              "internalType": "bytes32",
              "name": "emitterAddress",
              "type": "bytes32"
            },
            {
              "internalType": "uint64",
              "name": "sequence",
              "type": "uint64"
            }
          ],
          "internalType": "struct VaaKey[]",
          "name": "vaaKeys",
          "type": "tuple[]"
        }
      ],
      "name": "forwardVaasToEvm",
      "outputs": [],
      "stateMutability": "payable",
      "type": "function"
    },
    {
      "inputs": [],
      "name": "getDefaultDeliveryProvider",
      "outputs": [
        {
          "internalType": "address",
          "name": "deliveryProvider",
          "type": "address"
        }
      ],
      "stateMutability": "view",
      "type": "function"
    },
    {
      "inputs": [
        {
          "internalType": "uint16",
          "name": "targetChain",
          "type": "uint16"
        }
      ],
      "name": "getDefaultDeliveryProviderOnChain",
      "outputs": [
        {
          "internalType": "address",
          "name": "deliveryProvider",
          "type": "address"
        }
      ],
      "stateMutability": "view",
      "type": "function"
    },
    {
      "inputs": [
        {
          "internalType": "uint16",
          "name": "targetChain",
          "type": "uint16"
        }
      ],
      "name": "getOriginalOrDefaultDeliveryProvider",
      "outputs": [
        {
          "internalType": "address",
          "name": "deliveryProvider",
          "type": "address"
        },
        {
          "internalType": "address",
          "name": "deliveryProviderOnTarget",
          "type": "address"
        }
      ],
      "stateMutability": "view",
      "type": "function"
    },
    {
      "inputs": [
        {
          "internalType": "uint16",
          "name": "chainId",
          "type": "uint16"
        }
      ],
      "name": "getRegisteredWormholeRelayerContract",
      "outputs": [
        {
          "internalType": "bytes32",
          "name": "",
          "type": "bytes32"
        }
      ],
      "stateMutability": "view",
      "type": "function"
    },
    {
      "inputs": [
        {
          "internalType": "address",
          "name": "defaultDeliveryProvider",
          "type": "address"
        }
      ],
      "name": "initialize",
      "outputs": [],
      "stateMutability": "nonpayable",
      "type": "function"
    },
    {
      "inputs": [
        {
          "internalType": "uint16",
          "name": "targetChain",
          "type": "uint16"
        },
        {
          "internalType": "TargetNative",
          "name": "receiverValue",
          "type": "uint256"
        },
        {
          "internalType": "bytes",
          "name": "encodedExecutionParameters",
          "type": "bytes"
        },
        {
          "internalType": "address",
          "name": "deliveryProviderAddress",
          "type": "address"
        }
      ],
      "name": "quoteDeliveryPrice",
      "outputs": [
        {
          "internalType": "LocalNative",
          "name": "nativePriceQuote",
          "type": "uint256"
        },
        {
          "internalType": "bytes",
          "name": "encodedExecutionInfo",
          "type": "bytes"
        }
      ],
      "stateMutability": "view",
      "type": "function"
    },
    {
      "inputs": [
        {
          "internalType": "uint16",
          "name": "targetChain",
          "type": "uint16"
        },
        {
          "internalType": "TargetNative",
          "name": "receiverValue",
          "type": "uint256"
        },
        {
          "internalType": "Gas",
          "name": "gasLimit",
          "type": "uint256"
        },
        {
          "internalType": "address",
          "name": "deliveryProviderAddress",
          "type": "address"
        }
      ],
      "name": "quoteEVMDeliveryPrice",
      "outputs": [
        {
          "internalType": "LocalNative",
          "name": "nativePriceQuote",
          "type": "uint256"
        },
        {
          "internalType": "GasPrice",
          "name": "targetChainRefundPerGasUnused",
          "type": "uint256"
        }
      ],
      "stateMutability": "view",
      "type": "function"
    },
    {
      "inputs": [
        {
          "internalType": "uint16",
          "name": "targetChain",
          "type": "uint16"
        },
        {
          "internalType": "TargetNative",
          "name": "receiverValue",
          "type": "uint256"
        },
        {
          "internalType": "Gas",
          "name": "gasLimit",
          "type": "uint256"
        }
      ],
      "name": "quoteEVMDeliveryPrice",
      "outputs": [
        {
          "internalType": "LocalNative",
          "name": "nativePriceQuote",
          "type": "uint256"
        },
        {
          "internalType": "GasPrice",
          "name": "targetChainRefundPerGasUnused",
          "type": "uint256"
        }
      ],
      "stateMutability": "view",
      "type": "function"
    },
    {
      "inputs": [
        {
          "internalType": "uint16",
          "name": "targetChain",
          "type": "uint16"
        },
        {
          "internalType": "LocalNative",
          "name": "currentChainAmount",
          "type": "uint256"
        },
        {
          "internalType": "address",
          "name": "deliveryProviderAddress",
          "type": "address"
        }
      ],
      "name": "quoteNativeForChain",
      "outputs": [
        {
          "internalType": "TargetNative",
          "name": "targetChainAmount",
          "type": "uint256"
        }
      ],
      "stateMutability": "view",
      "type": "function"
    },
    {
      "inputs": [
        {
          "internalType": "bytes",
          "name": "encodedVm",
          "type": "bytes"
        }
      ],
      "name": "registerWormholeRelayerContract",
      "outputs": [],
      "stateMutability": "nonpayable",
      "type": "function"
    },
    {
      "inputs": [
        {
          "components": [
            {
              "internalType": "uint16",
              "name": "chainId",
              "type": "uint16"
            },
            {
              "internalType": "bytes32",
              "name": "emitterAddress",
              "type": "bytes32"
            },
            {
              "internalType": "uint64",
              "name": "sequence",
              "type": "uint64"
            }
          ],
          "internalType": "struct VaaKey",
          "name": "deliveryVaaKey",
          "type": "tuple"
        },
        {
          "internalType": "uint16",
          "name": "targetChain",
          "type": "uint16"
        },
        {
          "internalType": "TargetNative",
          "name": "newReceiverValue",
          "type": "uint256"
        },
        {
          "internalType": "bytes",
          "name": "newEncodedExecutionParameters",
          "type": "bytes"
        },
        {
          "internalType": "address",
          "name": "newDeliveryProviderAddress",
          "type": "address"
        }
      ],
      "name": "resend",
      "outputs": [
        {
          "internalType": "uint64",
          "name": "sequence",
          "type": "uint64"
        }
      ],
      "stateMutability": "payable",
      "type": "function"
    },
    {
      "inputs": [
        {
          "components": [
            {
              "internalType": "uint16",
              "name": "chainId",
              "type": "uint16"
            },
            {
              "internalType": "bytes32",
              "name": "emitterAddress",
              "type": "bytes32"
            },
            {
              "internalType": "uint64",
              "name": "sequence",
              "type": "uint64"
            }
          ],
          "internalType": "struct VaaKey",
          "name": "deliveryVaaKey",
          "type": "tuple"
        },
        {
          "internalType": "uint16",
          "name": "targetChain",
          "type": "uint16"
        },
        {
          "internalType": "TargetNative",
          "name": "newReceiverValue",
          "type": "uint256"
        },
        {
          "internalType": "Gas",
          "name": "newGasLimit",
          "type": "uint256"
        },
        {
          "internalType": "address",
          "name": "newDeliveryProviderAddress",
          "type": "address"
        }
      ],
      "name": "resendToEvm",
      "outputs": [
        {
          "internalType": "uint64",
          "name": "sequence",
          "type": "uint64"
        }
      ],
      "stateMutability": "payable",
      "type": "function"
    },
    {
      "inputs": [
        {
          "internalType": "uint16",
          "name": "targetChain",
          "type": "uint16"
        },
        {
          "internalType": "bytes32",
          "name": "targetAddress",
          "type": "bytes32"
        },
        {
          "internalType": "bytes",
          "name": "payload",
          "type": "bytes"
        },
        {
          "internalType": "TargetNative",
          "name": "receiverValue",
          "type": "uint256"
        },
        {
          "internalType": "LocalNative",
          "name": "paymentForExtraReceiverValue",
          "type": "uint256"
        },
        {
          "internalType": "bytes",
          "name": "encodedExecutionParameters",
          "type": "bytes"
        },
        {
          "internalType": "uint16",
          "name": "refundChain",
          "type": "uint16"
        },
        {
          "internalType": "bytes32",
          "name": "refundAddress",
          "type": "bytes32"
        },
        {
          "internalType": "address",
          "name": "deliveryProviderAddress",
          "type": "address"
        },
        {
          "components": [
            {
              "internalType": "uint16",
              "name": "chainId",
              "type": "uint16"
            },
            {
              "internalType": "bytes32",
              "name": "emitterAddress",
              "type": "bytes32"
            },
            {
              "internalType": "uint64",
              "name": "sequence",
              "type": "uint64"
            }
          ],
          "internalType": "struct VaaKey[]",
          "name": "vaaKeys",
          "type": "tuple[]"
        },
        {
          "internalType": "uint8",
          "name": "consistencyLevel",
          "type": "uint8"
        }
      ],
      "name": "send",
      "outputs": [
        {
          "internalType": "uint64",
          "name": "sequence",
          "type": "uint64"
        }
      ],
      "stateMutability": "payable",
      "type": "function"
    },
    {
      "inputs": [
        {
          "internalType": "uint16",
          "name": "targetChain",
          "type": "uint16"
        },
        {
          "internalType": "address",
          "name": "targetAddress",
          "type": "address"
        },
        {
          "internalType": "bytes",
          "name": "payload",
          "type": "bytes"
        },
        {
          "internalType": "TargetNative",
          "name": "receiverValue",
          "type": "uint256"
        },
        {
          "internalType": "Gas",
          "name": "gasLimit",
          "type": "uint256"
        },
        {
          "internalType": "uint16",
          "name": "refundChain",
          "type": "uint16"
        },
        {
          "internalType": "address",
          "name": "refundAddress",
          "type": "address"
        }
      ],
      "name": "sendPayloadToEvm",
      "outputs": [
        {
          "internalType": "uint64",
          "name": "sequence",
          "type": "uint64"
        }
      ],
      "stateMutability": "payable",
      "type": "function"
    },
    {
      "inputs": [
        {
          "internalType": "uint16",
          "name": "targetChain",
          "type": "uint16"
        },
        {
          "internalType": "address",
          "name": "targetAddress",
          "type": "address"
        },
        {
          "internalType": "bytes",
          "name": "payload",
          "type": "bytes"
        },
        {
          "internalType": "TargetNative",
          "name": "receiverValue",
          "type": "uint256"
        },
        {
          "internalType": "Gas",
          "name": "gasLimit",
          "type": "uint256"
        }
      ],
      "name": "sendPayloadToEvm",
      "outputs": [
        {
          "internalType": "uint64",
          "name": "sequence",
          "type": "uint64"
        }
      ],
      "stateMutability": "payable",
      "type": "function"
    },
    {
      "inputs": [
        {
          "internalType": "uint16",
          "name": "targetChain",
          "type": "uint16"
        },
        {
          "internalType": "address",
          "name": "targetAddress",
          "type": "address"
        },
        {
          "internalType": "bytes",
          "name": "payload",
          "type": "bytes"
        },
        {
          "internalType": "TargetNative",
          "name": "receiverValue",
          "type": "uint256"
        },
        {
          "internalType": "LocalNative",
          "name": "paymentForExtraReceiverValue",
          "type": "uint256"
        },
        {
          "internalType": "Gas",
          "name": "gasLimit",
          "type": "uint256"
        },
        {
          "internalType": "uint16",
          "name": "refundChain",
          "type": "uint16"
        },
        {
          "internalType": "address",
          "name": "refundAddress",
          "type": "address"
        },
        {
          "internalType": "address",
          "name": "deliveryProviderAddress",
          "type": "address"
        },
        {
          "components": [
            {
              "internalType": "uint16",
              "name": "chainId",
              "type": "uint16"
            },
            {
              "internalType": "bytes32",
              "name": "emitterAddress",
              "type": "bytes32"
            },
            {
              "internalType": "uint64",
              "name": "sequence",
              "type": "uint64"
            }
          ],
          "internalType": "struct VaaKey[]",
          "name": "vaaKeys",
          "type": "tuple[]"
        },
        {
          "internalType": "uint8",
          "name": "consistencyLevel",
          "type": "uint8"
        }
      ],
      "name": "sendToEvm",
      "outputs": [
        {
          "internalType": "uint64",
          "name": "sequence",
          "type": "uint64"
        }
      ],
      "stateMutability": "payable",
      "type": "function"
    },
    {
      "inputs": [
        {
          "internalType": "uint16",
          "name": "targetChain",
          "type": "uint16"
        },
        {
          "internalType": "address",
          "name": "targetAddress",
          "type": "address"
        },
        {
          "internalType": "bytes",
          "name": "payload",
          "type": "bytes"
        },
        {
          "internalType": "TargetNative",
          "name": "receiverValue",
          "type": "uint256"
        },
        {
          "internalType": "Gas",
          "name": "gasLimit",
          "type": "uint256"
        },
        {
          "components": [
            {
              "internalType": "uint16",
              "name": "chainId",
              "type": "uint16"
            },
            {
              "internalType": "bytes32",
              "name": "emitterAddress",
              "type": "bytes32"
            },
            {
              "internalType": "uint64",
              "name": "sequence",
              "type": "uint64"
            }
          ],
          "internalType": "struct VaaKey[]",
          "name": "vaaKeys",
          "type": "tuple[]"
        }
      ],
      "name": "sendVaasToEvm",
      "outputs": [
        {
          "internalType": "uint64",
          "name": "sequence",
          "type": "uint64"
        }
      ],
      "stateMutability": "payable",
      "type": "function"
    },
    {
      "inputs": [
        {
          "internalType": "uint16",
          "name": "targetChain",
          "type": "uint16"
        },
        {
          "internalType": "address",
          "name": "targetAddress",
          "type": "address"
        },
        {
          "internalType": "bytes",
          "name": "payload",
          "type": "bytes"
        },
        {
          "internalType": "TargetNative",
          "name": "receiverValue",
          "type": "uint256"
        },
        {
          "internalType": "Gas",
          "name": "gasLimit",
          "type": "uint256"
        },
        {
          "components": [
            {
              "internalType": "uint16",
              "name": "chainId",
              "type": "uint16"
            },
            {
              "internalType": "bytes32",
              "name": "emitterAddress",
              "type": "bytes32"
            },
            {
              "internalType": "uint64",
              "name": "sequence",
              "type": "uint64"
            }
          ],
          "internalType": "struct VaaKey[]",
          "name": "vaaKeys",
          "type": "tuple[]"
        },
        {
          "internalType": "uint16",
          "name": "refundChain",
          "type": "uint16"
        },
        {
          "internalType": "address",
          "name": "refundAddress",
          "type": "address"
        }
      ],
      "name": "sendVaasToEvm",
      "outputs": [
        {
          "internalType": "uint64",
          "name": "sequence",
          "type": "uint64"
        }
      ],
      "stateMutability": "payable",
      "type": "function"
    },
    {
      "inputs": [
        {
          "internalType": "bytes",
          "name": "encodedVm",
          "type": "bytes"
        }
      ],
      "name": "setDefaultDeliveryProvider",
      "outputs": [],
      "stateMutability": "nonpayable",
      "type": "function"
    },
    {
      "inputs": [
        {
          "internalType": "bytes",
          "name": "encodedVm",
          "type": "bytes"
        }
      ],
      "name": "submitContractUpgrade",
      "outputs": [],
      "stateMutability": "nonpayable",
      "type": "function"
    }
  ],
  "bytecode": {
    "object": "0x60c06040523480156200001157600080fd5b5060405162005713380380620057138339810160408190526200003491620000b7565b6001600160a01b038116608081905260408051634d4502c960e11b81529051839291639a8a05929160048083019260209291908290030181865afa15801562000081573d6000803e3d6000fd5b505050506040513d601f19601f82011682018060405250810190620000a79190620000e9565b61ffff1660a052506200010f9050565b600060208284031215620000ca57600080fd5b81516001600160a01b0381168114620000e257600080fd5b9392505050565b600060208284031215620000fc57600080fd5b815161ffff81168114620000e257600080fd5b60805160a0516155986200017b60003960008181610f6801528181612fac01528181612ff30152613ab2015260008181610d120152818161214b015281816125d20152818161271101528181612b7d01528181612c3601528181612cfc0152612f0c01526155986000f3fe60806040526004361061019c5760003560e01c80634d48ec60116100ec578063a60eb4c81161008a578063b686d08911610064578063b686d089146104a3578063c23ee3c3146104b6578063c4d66de8146104d6578063c81fb7fe146104f657600080fd5b8063a60eb4c81461044f578063a79629d814610462578063b1eac8751461049057600080fd5b806375ea8b58116100c657806375ea8b58146103e157806380ebabd0146103f45780638b0301b1146104295780638fecdd021461043c57600080fd5b80634d48ec601461037f5780635cb8cae21461039257806360004157146103b257600080fd5b8063329a2be7116101595780633e8267e7116101335780633e8267e7146102e95780633ed334df146103395780634533e5ff146103595780634b5ca6f41461036c57600080fd5b8063329a2be71461029857806332b2fc0e146102c35780633a2c767d146102d657600080fd5b80631d6bd5aa146101a15780632385904a146101e657806324320c9f1461021457806328b1d852146102415780632936558f146102635780632c75470f14610283575b600080fd5b3480156101ad57600080fd5b506101c16101bc366004613ea2565b610509565b604080516001600160a01b039384168152929091166020830152015b60405180910390f35b3480156101f257600080fd5b50610206610201366004613edf565b61064b565b6040519081526020016101dd565b34801561022057600080fd5b506102296106cb565b6040516001600160a01b0390911681526020016101dd565b34801561024d57600080fd5b5061026161025c366004614052565b6106e7565b005b34801561026f57600080fd5b5061022961027e366004613ea2565b610723565b34801561028f57600080fd5b5061026161076f565b6102ab6102a636600461419a565b610780565b6040516001600160401b0390911681526020016101dd565b6102ab6102d1366004614234565b6107b1565b6102ab6102e4366004614311565b6107dc565b3480156102f557600080fd5b50610206610304366004613ea2565b61ffff1660009081527f9e4e57806ba004485cfae8ca22fb13380f01c10b1b0ccf48c20464961643cf6d602052604090205490565b34801561034557600080fd5b50610261610354366004614052565b610829565b6102616103673660046143fc565b61087f565b6102ab61037a36600461446f565b6108fa565b61026161038d366004614311565b610967565b34801561039e57600080fd5b506102616103ad366004614052565b6109eb565b3480156103be57600080fd5b506103d26103cd366004614595565b610ab1565b6040516101dd939291906146c7565b6102616103ef3660046146f2565b610c0e565b34801561040057600080fd5b5061041461040f3660046147a4565b610c76565b604080519283526020830191909152016101dd565b6102ab6104373660046147ee565b610cbf565b6102ab61044a3660046143fc565b610cee565b61026161045d36600461484c565b610d0c565b34801561046e57600080fd5b5061048261047d3660046148e8565b610fd2565b6040516101dd929190614948565b61026161049e36600461419a565b611063565b6102ab6104b1366004614961565b611092565b3480156104c257600080fd5b506104146104d13660046149d2565b6112b9565b3480156104e257600080fd5b506102616104f1366004614a07565b6112d7565b6102ab6105043660046146f2565b61132e565b60008061053d7f1a2a8eb52f1d00a1242a3f8cc031e30a32870ff64f69009c4e06f75bd842fd23546001600160a01b031690565b91506001600160a01b03821615806105be57506040516328f41de360e01b815261ffff841660048201526001600160a01b038316906328f41de390602401602060405180830381865afa158015610598573d6000803e3d6000fd5b505050506040513d601f19601f820116820180604052508101906105bc9190614a34565b155b156105ce576105cb6106cb565b91505b604051633d77cbfd60e01b815261ffff84166004820152610644906001600160a01b03841690633d77cbfd906024015b602060405180830381865afa15801561061b573d6000803e3d6000fd5b505050506040513d601f19601f8201168201806040525081019061063f9190614a4f565b611398565b9050915091565b604051630cbcf9e160e21b815261ffff84166004820152602481018390526000906001600160a01b038316906332f3e78490604401602060405180830381865afa15801561069d573d6000803e3d6000fd5b505050506040513d601f19601f820116820180604052508101906106c19190614a4f565b90505b9392505050565b600080516020615543833981519152546001600160a01b031690565b60006106f2826113c4565b60008051602061554383398151915280546001600160a01b0319166001600160a01b03929092169190911790555050565b600061076960008051602061554383398151915254604051633d77cbfd60e01b815261ffff851660048201526001600160a01b0390911690633d77cbfd906024016105fe565b92915050565b33301461077e5761077e614a68565b565b60006107a6878787876000888d6107968f610723565b61079e6106cb565b8b600f6107dc565b979650505050505050565b60006107cf8989898960008a89896107c76106cb565b8d600f6107dc565b9998505050505050505050565b60006108198c6001600160a01b038d168c8c8c61080660405180602001604052808f815250611410565b8c6001600160a01b038d168c8c8c61132e565b9c9b505050505050505050505050565b60008061083583611441565b91509150806108617f9e4e57806ba004485cfae8ca22fb13380f01c10b1b0ccf48c20464961643cf6d90565b61ffff90931660009081526020939093526040909220919091555050565b60008061088b87610509565b90925090506108f18787878760008885888a846040519080825280602002602001820160405280156108e957816020015b60408051606081018252600080825260208083018290529282015282526000199092019101816108bc5790505b50600f610967565b50505050505050565b600061095b8888888860008989896109106106cb565b6040805160008082526020820190925290610953565b60408051606081018252600080825260208083018290529282015282526000199092019101816109265790505b50600f6107dc565b98975050505050505050565b6001600160a01b0383166109a3577f1a2a8eb52f1d00a1242a3f8cc031e30a32870ff64f69009c4e06f75bd842fd23546001600160a01b031692505b6109de8b6001600160a01b038c168b8b8b6109cb60405180602001604052808e815250611410565b8b6001600160a01b038c168b8b8b610c0e565b5050505050505050505050565b60006109f68261148c565b9050610a01816114a9565b60408051600481526024810182526020810180516001600160e01b0316632c75470f60e01b179052905160009182913091610a3b91614a7e565b6000604051808303816000865af19150503d8060008114610a78576040519150601f19603f3d011682016040523d82523d6000602084013e610a7d565b606091505b509150915081610aab578060405163135687c760e31b8152600401610aa29190614a9a565b60405180910390fd5b50505050565b6000806060333014610ad65760405163390996ad60e11b815260040160405180910390fd5b600084606001519050600080610aef8760200151611398565b6040808901516101008a015160c08b01518b5160e08d01519451959650600095610b1c9590602401614b02565b60408051601f198184030181529190526020810180516001600160e01b031663294ee51960e11b179052905060005a9050610b5f83838760808d015160846114e9565b9650935060005a9050610b7c86610b768484611530565b9061153c565b9750505050508015610c0057604080516000808252602082019092527f1a2a8eb52f1d00a1242a3f8cc031e30a32870ff64f69009c4e06f75bd842fd2480549297509094509015610bfa576000610be7610be48960a00151610bde878a611530565b90611552565b90565b9050610bf486828461155e565b60039650505b50610c05565b600194505b50509193909250565b6109de6040518061016001604052808d61ffff1681526020018c81526020018b81526020018a81526020018981526020018881526020018761ffff168152602001868152602001856001600160a01b031681526020018481526020018360ff16815250611a9b565b600080600080610c9e8888610c9860405180602001604052808b815250611410565b88610fd2565b91509150819350610cae81611e21565b602001519250505094509492505050565b6000610ce4868686610cde604051806020016040528089815250611410565b86611092565b9695505050505050565b6000610ce4868686866000878c610d048e610723565b6109106106cb565b600080807f00000000000000000000000000000000000000000000000000000000000000006001600160a01b031663c0fd8bde876040518263ffffffff1660e01b8152600401610d5c9190614a9a565b600060405180830381865afa158015610d79573d6000803e3d6000fd5b505050506040513d6000823e601f3d908101601f19168201604052610da19190810190614d8a565b92509250925081610dc7578060405163b72c3b7f60e01b8152600401610aa29190614a9a565b606083015161ffff1660009081527f9e4e57806ba004485cfae8ca22fb13380f01c10b1b0ccf48c20464961643cf6d602052604090205460808401518114610e405760808401516060850151604051633bb6036760e11b815260048101929092526024820183905261ffff166044820152606401610aa2565b6000610e4f8560e00151611e8d565b9050610e74610e618260200151611398565b610e6f836101000151611398565b611faa565b6000604051806101600160405280876060015161ffff1681526020018760a001516001600160401b031681526020018761014001518152602001896001600160a01b031681526020018b81526020018381526020016000815260200160008152602001600081526020018881526020016000801b8152509050610ef78288612040565b61014085015261010084015260e0830181905260c08301829052600091610f3591610be491610f2591611552565b610100850151612100565b612100565b905034811115610f6057604051620885af60e61b815234600482015260248101829052604401610aa2565b825161ffff167f000000000000000000000000000000000000000000000000000000000000000061ffff1614610fb257825160405163d8215fc960e01b815261ffff9091166004820152602401610aa2565b610fc18361016001518c61210c565b610fca82612291565b6109de612542565b600060606000839050600080826001600160a01b031663b9e75e668a8a8a6040518463ffffffff1660e01b815260040161100e93929190614e11565b600060405180830381865afa15801561102b573d6000803e3d6000fd5b505050506040513d6000823e601f3d908101601f191682016040526110539190810190614e34565b909a909950975050505050505050565b60008061106f88610509565b91509150611088888888886000898e888a8c600f610967565b5050505050505050565b6040516328f41de360e01b815261ffff8516600482015260009082906001600160a01b038216906328f41de390602401602060405180830381865afa1580156110df573d6000803e3d6000fd5b505050506040513d601f19601f820116820180604052508101906111039190614a34565b611135576040516366b69b9d60e01b81526001600160a01b038416600482015261ffff87166024820152604401610aa2565b600080826001600160a01b031663b9e75e668989896040518463ffffffff1660e01b815260040161116893929190614e11565b600060405180830381865afa158015611185573d6000803e3d6000fd5b505050506040513d6000823e601f3d908101601f191682016040526111ad9190810190614e34565b9150915060006111bb6125ce565b90506111c981846000612657565b60006112126040518060c001604052808d81526020018c61ffff1681526020018b81526020018581526020016112058a6001600160a01b031690565b81526020013390526126a8565b90506000611287838660008560c88b6001600160a01b031663bf9321fc6040518163ffffffff1660e01b8152600401602060405180830381865afa15801561125e573d6000803e3d6000fd5b505050506040513d601f19601f820116820180604052508101906112829190614e7a565b61270c565b9097509050806112aa576040516304aeb27d60e51b815260040160405180910390fd5b50505050505095945050505050565b6000806112ca85858561040f6106cb565b915091505b935093915050565b60005460ff16156112ea576112ea614a68565b6000805460ff191660011790558061130d60008051602061554383398151915290565b80546001600160a01b0319166001600160a01b039290921691909117905550565b60006108196040518061016001604052808e61ffff1681526020018d81526020018c81526020018b81526020018a81526020018981526020018861ffff168152602001878152602001866001600160a01b031681526020018581526020018460ff1681525061280b565b600060a082901c156113c05760405163033b960d60e41b815260048101839052602401610aa2565b5090565b6000806113d083612b75565b905060006113e18260036001612e5e565b905060006113ef838361302a565b925090506113fc81611398565b93506114088383613050565b505050919050565b6060600082516040805160ff90931660208401528201526060015b6040516020818303038152906040529050919050565b600080600061144f84612b75565b9050600061145f82600180612e5e565b60028184018101519550019050611476828261302a565b90935090506114858282613050565b5050915091565b60008061149883612b75565b905060006113e18260026000612e5e565b6114b281613082565b6040516001600160a01b038216907fbc7cd75a20ee27fd9adebab32041f755214dbc6bffa90cc0225b39da2e5c2d3b90600090a250565b83516040516000916020808301908801858284838a8e8df19450503d80861060018103611514578691505b50808452601f01601f1916016040525090969095509350505050565b60006106c48284614ead565b600082821161154b57816106c4565b5090919050565b60006106c48284614ec0565b60006115686125ce565b82549091506000906001600160401b0381111561158757611587613f21565b6040519080825280602002602001820160405280156115c057816020015b6115ad613d79565b8152602001906001900390816115a55790505b50905060008060005b855481101561173e576115ff838783815481106115e8576115e8614ed7565b906000526020600020906005020160010154612100565b92506116b586828154811061161657611616614ed7565b9060005260206000209060050201600001805461163290614eed565b80601f016020809104026020016040519081016040528092919081815260200182805461165e90614eed565b80156116ab5780601f10611680576101008083540402835291602001916116ab565b820191906000526020600020905b81548152906001019060200180831161168e57829003601f168201915b5050505050611e8d565b8482815181106116c7576116c7614ed7565b602002602001018190525061173461172e611705848985815481106116ee576116ee614ed7565b906000526020600020906005020160020154612100565b88848154811061171757611717614ed7565b906000526020600020906005020160030154612100565b86612100565b91506001016115c9565b50600061174b8784612100565b90508181101561177f576040516385880e2960e01b8152600481018990526024810182905260448101839052606401610aa2565b60006117a98560008151811061179757611797614ed7565b60200260200101516101200151611398565b6001600160a01b03166332f3e784866000815181106117ca576117ca614ed7565b6020026020010151600001516117e08587611530565b6040516001600160e01b031960e085901b16815261ffff90921660048301526024820152604401602060405180830381865afa925050508015611840575060408051601f3d908101601f1916820190925261183d91810190614a4f565b60015b61186057604051632baa6b8960e11b8152600481018a9052602401610aa2565b905061188a8560008151811061187857611878614ed7565b60200260200101516080015182612100565b8560008151811061189d5761189d614ed7565b6020026020010151608001818152505060005b8754811015611a8f576000611a62888a84815481106118d1576118d1614ed7565b9060005260206000209060050201600201546119238c86815481106118f8576118f8614ed7565b90600052602060002090600502016003015486600014611919576000612100565b610f30898b611530565b85156119da578c868154811061193b5761193b614ed7565b9060005260206000209060050201600001805461195790614eed565b80601f016020809104026020016040519081016040528092919081815260200182805461198390614eed565b80156119d05780601f106119a5576101008083540402835291602001916119d0565b820191906000526020600020905b8154815290600101906020018083116119b357829003601f168201915b50505050506119fd565b6119fd8b6000815181106119f0576119f0614ed7565b602002602001015161310d565b8d8781548110611a0f57611a0f614ed7565b906000526020600020906005020160040160149054906101000a900460ff168e8881548110611a4057611a40614ed7565b60009182526020909120600460059092020101546001600160a01b031661270c565b91505080611a86576040516336e7e91f60e11b8152600481018c9052602401610aa2565b506001016118b0565b50505050505050505050565b611aa36131a7565b61010081015181516040516328f41de360e01b815261ffff90911660048201526001600160a01b038216906328f41de390602401602060405180830381865afa158015611af4573d6000803e3d6000fd5b505050506040513d601f19601f82011682018060405250810190611b189190614a34565b611b525761010082015182516040516366b69b9d60e01b81526001600160a01b03909216600483015261ffff166024820152604401610aa2565b8151606083015160a0840151604051635cf3af3360e11b815260009384936001600160a01b0387169363b9e75e6693611b9093929190600401614e11565b600060405180830381865afa158015611bad573d6000803e3d6000fd5b505050506040513d6000823e601f3d908101601f19168201604052611bd59190810190614e34565b915091506000611d6d604051806101800160405280876000015161ffff168152602001876020015181526020018760400151815260200187606001518152602001866001600160a01b03166332f3e78489600001518a608001516040518363ffffffff1660e01b8152600401611c5b92919061ffff929092168252602082015260400190565b602060405180830381865afa158015611c78573d6000803e3d6000fd5b505050506040513d601f19601f82011682018060405250810190611c9c9190614a4f565b81526020018481526020018760c0015161ffff1681526020018760e001518152602001866001600160a01b0316633d77cbfd89600001516040518263ffffffff1660e01b8152600401611cf9919061ffff91909116815260200190565b602060405180830381865afa158015611d16573d6000803e3d6000fd5b505050506040513d601f19601f82011682018060405250810190611d3a9190614a4f565b8152602001611d548861010001516001600160a01b031690565b815260200133815260200187610120015181525061310d565b9050611e1a6040518060c0016040528083815260200134815260200185815260200187608001518152602001866001600160a01b031663bf9321fc6040518163ffffffff1660e01b8152600401602060405180830381865afa158015611dd7573d6000803e3d6000fd5b505050506040513d601f19601f82011682018060405250810190611dfb9190614e7a565b6001600160a01b0316815260200187610140015160ff16815250613230565b5050505050565b6040805180820190915260008082526020820152600082806020019051810190611e4b9190614f21565b60208501528352905060ff811615611e87578060005b60405163c1f4bdd960e01b815260ff928316600482015291166024820152604401610aa2565b50919050565b611e95613d79565b6000611ea483600060016132f3565b9050600080611ebc8584600291810182015192910190565b61ffff90911685529250611ed0858461302a565b60208601919091529250611ee48584613348565b6040868101929092528681016020810151908301519190920194509092509050611f0e8584613348565b60a0860191909152600286820181015161ffff1660c0870152019250611f34858461302a565b60e08601919091529250611f48858461302a565b6101008601919091529250611f5d858461302a565b6101208601919091529250611f72858461302a565b6101408601919091529250611f878584613384565b610160860191909152606085018390526080850182905292506114088584613050565b7f1a2a8eb52f1d00a1242a3f8cc031e30a32870ff64f69009c4e06f75bd842fd22805460ff16156120065780546040516320b84ced60e01b81523360048201526101009091046001600160a01b03166024820152604401610aa2565b805460016001600160a81b03199091166101006001600160a01b039586160217811782550180546001600160a01b03191691909216179055565b60008060008060006120558760a00151613452565b9050600081801561206857612068614b49565b146120835780801561207c5761207c614b49565b6000611e61565b60006120928860a00151611e21565b905086516000146120d35760006120a888613468565b90506120b9896060015183836134f5565b60608b0191909152600060808b0152604090910151935090505b80600001519550806020015194506120f388606001518960800151612100565b9350505092959194509250565b60006106c48284614f58565b805182511461213b57815181516040516316bde1ed60e31b815260048101929092526024820152604401610aa2565b60005b825181101561228c5760007f00000000000000000000000000000000000000000000000000000000000000006001600160a01b031663a9e1189384848151811061218a5761218a614ed7565b60200260200101516040518263ffffffff1660e01b81526004016121ae9190614a9a565b600060405180830381865afa1580156121cb573d6000803e3d6000fd5b505050506040513d6000823e601f3d908101601f191682016040526121f39190810190614f6b565b9050600084838151811061220957612209614ed7565b60200260200101519050816060015161ffff16816000015161ffff1614158061223a57508160800151816020015114155b8061225f57508160a001516001600160401b031681604001516001600160401b031614155b1561228257604051633ad7858760e21b815260ff84166004820152602401610aa2565b505060010161213e565b505050565b61229a816135fc565b156122a25750565b60408051606080820183526000808352602083015291810191909152306001600160a01b03166360004157604051806101200160405280856000015161ffff1681526020018560a001516020015181526020018560a001516040015181526020018560c00151815260200185610100015181526020018560e0015181526020018560a00151610140015181526020018560400151815260200185608001518152506040518263ffffffff1660e01b815260040161235f9190614f9f565b6000604051808303816000875af192505050801561239f57506040513d6000823e601f3d908101601f1916820160405261239c919081019061502f565b60015b61241d573d8080156123cd576040519150601f19603f3d011682016040523d82523d6000602084013e6123d2565b606091505b506000806123df836136d8565b8093508192505050604051806060016040528083612401578660c00151612403565b825b815260200160028152602001848152509350505050612462565b60405180606001604052808381526020018460ff16600381111561244357612443614b49565b600381111561245457612454614b49565b815260200191909152925050505b81602001516001600160401b0316826000015161ffff1661248a8460a0015160200151611398565b6001600160a01b03167fbccc00b713f54173962e7de6098f643d8ebf53d488d71f4b2a5171496d038f9e8560400151856020015186600001516124f78960a001518a606001516124ed610be48d60e00151610bde8f60c001518f60000151611530565b8b60200151613763565b60408901516101408b015160000361251d57604080516000815260208101909152612524565b8a61012001515b6040516125369695949392919061507e565b60405180910390a45050565b7f1a2a8eb52f1d00a1242a3f8cc031e30a32870ff64f69009c4e06f75bd842fd2280546001600160a81b03191681557f1a2a8eb52f1d00a1242a3f8cc031e30a32870ff64f69009c4e06f75bd842fd2380546001600160a01b03191690556125cb7f1a2a8eb52f1d00a1242a3f8cc031e30a32870ff64f69009c4e06f75bd842fd246000613ddc565b50565b60007f00000000000000000000000000000000000000000000000000000000000000006001600160a01b0316631a90a2196040518163ffffffff1660e01b8152600401602060405180830381865afa15801561262e573d6000803e3d6000fd5b505050506040513d601f19601f820116820180604052508101906126529190614a4f565b905090565b61266d3461266861172e8585612100565b141590565b1561228c57346126866126808484612100565b85612100565b604051631f89f67160e01b815260048101929092526024820152604401610aa2565b606060006126b98360000151613883565b9050600281846020015185604001516126d587606001516138ab565b87608001518860a001516040516020016126f597969594939291906150db565b604051602081830303815290604052915050919050565b6000807f00000000000000000000000000000000000000000000000000000000000000006001600160a01b031663b19a437e89600088886040518563ffffffff1660e01b81526004016127619392919061514a565b60206040518083038185885af115801561277f573d6000803e3d6000fd5b50505050506040513d601f19601f820116820180604052508101906127a4919061517c565b91506127b9836127b48989612100565b6138c1565b60408051898152602081018990529192506001600160401b038416917fda8540426b64ece7b164a9dce95448765f0a7263ef3ff85091c9c7361e485364910160405180910390a2965096945050505050565b61010081015181516040516328f41de360e01b815261ffff9091166004820152600091906001600160a01b038216906328f41de390602401602060405180830381865afa158015612860573d6000803e3d6000fd5b505050506040513d601f19601f820116820180604052508101906128849190614a34565b6128be5761010083015183516040516366b69b9d60e01b81526001600160a01b03909216600483015261ffff166024820152604401610aa2565b8251606084015160a0850151604051635cf3af3360e11b815260009384936001600160a01b0387169363b9e75e66936128fc93929190600401614e11565b600060405180830381865afa158015612919573d6000803e3d6000fd5b505050506040513d6000823e601f3d908101601f191682016040526129419190810190614e34565b91509150600061294f6125ce565b905061296081848860800151612657565b6000612af4604051806101800160405280896000015161ffff168152602001896020015181526020018960400151815260200189606001518152602001876001600160a01b03166332f3e7848b600001518c608001516040518363ffffffff1660e01b81526004016129e292919061ffff929092168252602082015260400190565b602060405180830381865afa1580156129ff573d6000803e3d6000fd5b505050506040513d601f19601f82011682018060405250810190612a239190614a4f565b81526020018581526020018960c0015161ffff1681526020018960e001518152602001876001600160a01b0316633d77cbfd8b600001516040518263ffffffff1660e01b8152600401612a80919061ffff91909116815260200190565b602060405180830381865afa158015612a9d573d6000803e3d6000fd5b505050506040513d601f19601f82011682018060405250810190612ac19190614a4f565b8152602001612adb8a61010001516001600160a01b031690565b815260200133815260200189610120015181525061310d565b90506000612b4783868a60800151858c61014001518b6001600160a01b031663bf9321fc6040518163ffffffff1660e01b8152600401602060405180830381865afa15801561125e573d6000803e3d6000fd5b909750905080612b6a576040516304aeb27d60e51b815260040160405180910390fd5b505050505050919050565b6060600080807f00000000000000000000000000000000000000000000000000000000000000006001600160a01b031663c0fd8bde866040518263ffffffff1660e01b8152600401612bc79190614a9a565b600060405180830381865afa158015612be4573d6000803e3d6000fd5b505050506040513d6000823e601f3d908101601f19168201604052612c0c9190810190614d8a565b92509250925081612c325780604051630169d68560e71b8152600401610aa29190614a9a565b60007f00000000000000000000000000000000000000000000000000000000000000006001600160a01b031663fbe3c2cd6040518163ffffffff1660e01b8152600401602060405180830381865afa158015612c92573d6000803e3d6000fd5b505050506040513d601f19601f82011682018060405250810190612cb69190615199565b90508061ffff16846060015161ffff1614612cf857606084015160405163c97817ed60e01b815261ffff91821660048201529082166024820152604401610aa2565b60007f00000000000000000000000000000000000000000000000000000000000000006001600160a01b031663b172b2226040518163ffffffff1660e01b8152600401602060405180830381865afa158015612d58573d6000803e3d6000fd5b505050506040513d601f19601f82011682018060405250810190612d7c9190614a4f565b905080856080015114612db25760808501516040516342852f8d60e11b8152600481019190915260248101829052604401610aa2565b61014085015160009081527f970ad24d4754c92e299cabb86552091f5df0a15abc0f1b71f37d3e30031585dc602052604090205460ff168015612e11578561014001516040516364cbf47160e01b8152600401610aa291815260200190565b5050505061014082015160009081527f970ad24d4754c92e299cabb86552091f5df0a15abc0f1b71f37d3e30031585dc60205260409020805460ff191660011790555060e0015192915050565b600080612e6b858261302a565b925090506a436f726552656c617965728114612eae57604051633d254c6160e01b8152600481018290526a436f726552656c617965726024820152604401610aa2565b600185830181015192019160ff80821690861614612eec57604051633460202560e21b815260ff808316600483015286166024820152604401610aa2565b600286840181015193019261ffff8116158015612f065750845b613020577f00000000000000000000000000000000000000000000000000000000000000006001600160a01b031663e039f2246040518163ffffffff1660e01b8152600401602060405180830381865afa158015612f68573d6000803e3d6000fd5b505050506040513d601f19601f82011682018060405250810190612f8c9190614a34565b15612faa5760405163ea03b6eb60e01b815260040160405180910390fd5b7f000000000000000000000000000000000000000000000000000000000000000061ffff168161ffff16146130205760405163901f6ae360e01b815261ffff80831660048301527f0000000000000000000000000000000000000000000000000000000000000000166024820152604401610aa2565b5050509392505050565b6000806000806130438686602091810182015192910190565b9097909650945050505050565b8082511461307e57815160405163061bc83560e51b8152600481019190915260248101829052604401610aa2565b5050565b803b6130e65760405162461bcd60e51b815260206004820152602d60248201527f455243313936373a206e657720696d706c656d656e746174696f6e206973206e60448201526c1bdd08184818dbdb9d1c9858dd609a1b6064820152608401610aa2565b807f360894a13ba1a3210667c828492db98dca3e2076cc3735a920a3ca505d382bbc61130d565b606060018260000151836020015161312885604001516138ab565b85606001518660800151604051602001613147969594939291906151b6565b6040516020818303038152906040529050806131668360a001516138ab565b8360c001518460e001518561010001518661012001518761014001516131908961016001516138fc565b60405160200161142b989796959493929190615209565b7f1a2a8eb52f1d00a1242a3f8cc031e30a32870ff64f69009c4e06f75bd842fd22805460ff166131e95760405162f1e13160e51b815260040160405180910390fd5b805461010090046001600160a01b031633146125cb5780546040516313f32dd760e31b81523360048201526101009091046001600160a01b03166024820152604401610aa2565b7f1a2a8eb52f1d00a1242a3f8cc031e30a32870ff64f69009c4e06f75bd842fd248054600181018255600091909152815182916005027fd8a7a0d529d70a9a6f145a4d9c275cbe27b1f5cb234c12825e21723f79347fad0190819061329590826152cd565b5060208201516001820155604082015160028201556060820151600382015560808201516004909101805460a09093015160ff16600160a01b026001600160a81b03199093166001600160a01b039092169190911791909117905550565b6000806133098585600191810182015192910190565b9250905060ff8082169084161461334057604051633ce5fedf60e11b815260ff808316600483015284166024820152604401610aa2565b509392505050565b60606000806133608585600491810182015192910190565b92509050613378858363ffffffff808516906139a116565b90969095509350505050565b606060008061339c8585600191810182015192910190565b9250905060ff81166001600160401b038111156133bb576133bb613f21565b60405190808252806020026020018201604052801561340657816020015b60408051606081018252600080825260208083018290529282015282526000199092019101816133d95790505b50925060005b83518110156134495761341f8684613a15565b85838151811061343157613431614ed7565b6020908102919091010191909152925060010161340c565b50509250929050565b600081806020019051810190610769919061538c565b61348f60405180606001604052806000815260200160608152602001600080191681525090565b600061349e83600060016132f3565b905060006134b58483602091810182015192910190565b925090506134c38483613348565b602085019190915291506134d7848361302a565b604085019190915281845291506134ee8483613050565b5050919050565b6000613514604051806040016040528060008152602001600081525090565b848351101561353657604051631c6e090160e31b815260040160405180910390fd5b60006135458460200151613452565b905080801561355657613556614b49565b1561359257600081801561356c5761356c614b49565b60405163170cd96160e11b815260ff928316600482015291166024820152604401610aa2565b61359f8460200151611e21565b84516020870151909450909250602083015110156135d05760405163067dbecf60e11b815260040160405180910390fd5b8151855111156135f3576040516315fc687d60e31b815260040160405180910390fd5b50935093915050565b60a08101516020015160009081036136d35781602001516001600160401b0316826000015161ffff166136368460a0015160200151611398565b6001600160a01b03167fbccc00b713f54173962e7de6098f643d8ebf53d488d71f4b2a5171496d038f9e856040015160008061367e8960a001518a6060015160006001613763565b604080516020810190915260008082526101408c015190036136ae576040805160008152602081019091526136b5565b8a61012001515b6040516136c79695949392919061507e565b60405180910390a45060015b919050565b6000806000806024855110156136f5575060009485945092505050565b6136ff8583613a83565b925090506001600160e01b031981166385880e2960e01b148061373257506001600160e01b03198116632baa6b8960e11b145b8061374d57506001600160e01b031981166336e7e91f60e11b145b1561148557509092016020015192600192509050565b600080600283600381111561377a5761377a614b49565b14806137975750600183600381111561379557613795614b49565b145b156137b7576137b4610be4610be488606001518960800151612100565b90505b60006137e38260038660038111156137d1576137d1614b49565b146137dc5786612100565b6000612100565b90506137fe8760c001518860e00151838a6101000151613aae565b925080600084600481111561381557613815614b49565b14806138325750600284600481111561383057613830614b49565b145b1561383b575060005b6000613848898884613d49565b9050600061385689836138c1565b905080613876576040516304aeb27d60e51b815260040160405180910390fd5b5050505050949350505050565b606080600183600001518460200151856040015160405160200161142b9594939291906153ad565b606081518260405160200161142b92919061540e565b60008180156138f0576040805160008152602081019091526138e89085905a8460006114e9565b5091506138f5565b600191505b5092915050565b606060ff801682511061391157613911614a68565b8151604051602001613936919060f89190911b6001600160f81b031916815260010190565b604051602081830303815290604052905060005b8251811015611e87578161397684838151811061396957613969614ed7565b6020026020010151613883565b604051602001613987929190615440565b60408051601f19818403018152919052915060010161394a565b60606000826000036139c4575050604080516000815260208101909152826112cf565b5050604051828201601f8316806139d9575060205b80830184810186838901015b818310156139fd5780518352602092830192016139e5565b5050848452601f01601f191660405250935093915050565b6040805160608101825260008082526020820181905291810182905290613a3e848460016132f3565b600281860181015161ffff168452019050613a59848261302a565b602084019190915260089481018501516001600160401b0316604084015291949390910192915050565b600080600080613a9c8686600491810182015192910190565b60e09190911b97909650945050505050565b60007f000000000000000000000000000000000000000000000000000000000000000061ffff168561ffff1603613b0657613af1613aeb85611398565b846138c1565b613afc576001613aff565b60005b9050613d41565b6000613b1183611398565b90506000816001600160a01b031663b9e75e66886000613b44613b3f60408051602081019091526000815290565b611410565b6040518463ffffffff1660e01b8152600401613b6293929190614e11565b600060405180830381865afa925050508015613ba057506040513d6000823e601f3d908101601f19168201604052613b9d9190810190614e34565b60015b613be0573d808015613bce576040519150601f19603f3d011682016040523d82523d6000602084013e613bd3565b606091505b5060039350505050613d41565b509050613bfd85613bf8613bf26125ce565b84612100565b101590565b15613c0d57600492505050613d41565b3063c81fb7fe86604080516020810190915260008082528b9181613c41613c3b8d613c366125ce565b611530565b89611530565b613c59613b3f60408051602081019091526000815290565b8f8f613c648f611398565b6040805160008082526020820190925290613ca7565b6040805160608101825260008082526020808301829052928201528252600019909201910181613c7a5790505b5060c86040518d63ffffffff1660e01b8152600401613cd09b9a9998979695949392919061546f565b60206040518083038185885af193505050508015613d0b575060408051601f3d908101601f19168201909252613d089181019061517c565b60015b613d39573d808015613bce576040519150601f19603f3d011682016040523d82523d6000602084013e613bd3565b600293505050505b949350505050565b60006106c1613d73613d6d34613c36610be4610be48a606001518b60800151612100565b85611530565b83612100565b604080516101808101825260008082526020820181905260609282018390528282018190526080820181905260a0820183905260c0820181905260e082018190526101008201819052610120820181905261014082015261016081019190915290565b50805460008255600502906000526020600020908101906125cb91905b808211156113c0576000613e0d8282613e3d565b506000600182018190556002820181905560038201556004810180546001600160a81b0319169055600501613df9565b508054613e4990614eed565b6000825580601f10613e59575050565b601f0160209004906000526020600020908101906125cb91905b808211156113c05760008155600101613e73565b61ffff811681146125cb57600080fd5b80356136d381613e87565b600060208284031215613eb457600080fd5b81356106c481613e87565b6001600160a01b03811681146125cb57600080fd5b80356136d381613ebf565b600080600060608486031215613ef457600080fd5b8335613eff81613e87565b9250602084013591506040840135613f1681613ebf565b809150509250925092565b634e487b7160e01b600052604160045260246000fd5b60405161012081016001600160401b0381118282101715613f5a57613f5a613f21565b60405290565b604051608081016001600160401b0381118282101715613f5a57613f5a613f21565b60405161016081016001600160401b0381118282101715613f5a57613f5a613f21565b604051601f8201601f191681016001600160401b0381118282101715613fcd57613fcd613f21565b604052919050565b60006001600160401b03821115613fee57613fee613f21565b50601f01601f191660200190565b600082601f83011261400d57600080fd5b813561402061401b82613fd5565b613fa5565b81815284602083860101111561403557600080fd5b816020850160208301376000918101602001919091529392505050565b60006020828403121561406457600080fd5b81356001600160401b0381111561407a57600080fd5b613d4184828501613ffc565b60006001600160401b0382111561409f5761409f613f21565b5060051b60200190565b6001600160401b03811681146125cb57600080fd5b6000606082840312156140d057600080fd5b604051606081018181106001600160401b03821117156140f2576140f2613f21565b604052905080823561410381613e87565b815260208381013590820152604083013561411d816140a9565b6040919091015292915050565b600082601f83011261413b57600080fd5b8135602061414b61401b83614086565b8281526060928302850182019282820191908785111561416a57600080fd5b8387015b8581101561418d5761418089826140be565b845292840192810161416e565b5090979650505050505050565b60008060008060008060c087890312156141b357600080fd5b86356141be81613e87565b955060208701356141ce81613ebf565b945060408701356001600160401b03808211156141ea57600080fd5b6141f68a838b01613ffc565b9550606089013594506080890135935060a089013591508082111561421a57600080fd5b5061422789828a0161412a565b9150509295509295509295565b600080600080600080600080610100898b03121561425157600080fd5b883561425c81613e87565b9750602089013561426c81613ebf565b965060408901356001600160401b038082111561428857600080fd5b6142948c838d01613ffc565b975060608b0135965060808b0135955060a08b01359150808211156142b857600080fd5b506142c58b828c0161412a565b93505060c08901356142d681613e87565b915060e08901356142e681613ebf565b809150509295985092959890939650565b60ff811681146125cb57600080fd5b80356136d3816142f7565b60008060008060008060008060008060006101608c8e03121561433357600080fd5b61433c8c613e97565b9a5061434a60208d01613ed4565b99506001600160401b038060408e0135111561436557600080fd5b6143758e60408f01358f01613ffc565b995060608d0135985060808d0135975060a08d0135965061439860c08e01613e97565b95506143a660e08e01613ed4565b94506143b56101008e01613ed4565b9350806101208e013511156143c957600080fd5b506143db8d6101208e01358e0161412a565b91506143ea6101408d01614306565b90509295989b509295989b9093969950565b600080600080600060a0868803121561441457600080fd5b853561441f81613e87565b9450602086013561442f81613ebf565b935060408601356001600160401b0381111561444a57600080fd5b61445688828901613ffc565b9598949750949560608101359550608001359392505050565b600080600080600080600060e0888a03121561448a57600080fd5b873561449581613e87565b965060208801356144a581613ebf565b955060408801356001600160401b038111156144c057600080fd5b6144cc8a828b01613ffc565b955050606088013593506080880135925060a08801356144eb81613e87565b915060c08801356144fb81613ebf565b8091505092959891949750929550565b600082601f83011261451c57600080fd5b8135602061452c61401b83614086565b82815260059290921b8401810191818101908684111561454b57600080fd5b8286015b8481101561458a5780356001600160401b0381111561456e5760008081fd5b61457c8986838b0101613ffc565b84525091830191830161454f565b509695505050505050565b6000602082840312156145a757600080fd5b81356001600160401b03808211156145be57600080fd5b9083019061012082860312156145d357600080fd5b6145db613f37565b6145e483613e97565b81526020830135602082015260408301358281111561460257600080fd5b61460e87828601613ffc565b604083015250606083013560608201526080830135608082015260a083013560a082015260c083013560c082015260e083013560e0820152610100808401358381111561465a57600080fd5b6146668882870161450b565b918301919091525095945050505050565b60005b8381101561469257818101518382015260200161467a565b50506000910152565b600081518084526146b3816020860160208601614677565b601f01601f19169290920160200192915050565b60ff841681528260208201526060604082015260006146e9606083018461469b565b95945050505050565b60008060008060008060008060008060006101608c8e03121561471457600080fd5b61471d8c613e97565b9a5060208c013599506001600160401b038060408e0135111561473f57600080fd5b61474f8e60408f01358f01613ffc565b995060608d0135985060808d013597508060a08e0135111561477057600080fd5b6147808e60a08f01358f01613ffc565b965061478e60c08e01613e97565b955060e08d013594506143b56101008e01613ed4565b600080600080608085870312156147ba57600080fd5b84356147c581613e87565b9350602085013592506040850135915060608501356147e381613ebf565b939692955090935050565b600080600080600060e0868803121561480657600080fd5b61481087876140be565b9450606086013561482081613e87565b93506080860135925060a0860135915060c086013561483e81613ebf565b809150509295509295909350565b6000806000806080858703121561486257600080fd5b84356001600160401b038082111561487957600080fd5b6148858883890161450b565b9550602087013591508082111561489b57600080fd5b6148a788838901613ffc565b9450604087013591506148b982613ebf565b909250606086013590808211156148cf57600080fd5b506148dc87828801613ffc565b91505092959194509250565b600080600080608085870312156148fe57600080fd5b843561490981613e87565b93506020850135925060408501356001600160401b0381111561492b57600080fd5b61493787828801613ffc565b92505060608501356147e381613ebf565b8281526040602082015260006106c1604083018461469b565b600080600080600060e0868803121561497957600080fd5b61498387876140be565b9450606086013561499381613e87565b93506080860135925060a08601356001600160401b038111156149b557600080fd5b6149c188828901613ffc565b92505060c086013561483e81613ebf565b6000806000606084860312156149e757600080fd5b83356149f281613e87565b95602085013595506040909401359392505050565b600060208284031215614a1957600080fd5b81356106c481613ebf565b805180151581146136d357600080fd5b600060208284031215614a4657600080fd5b6106c482614a24565b600060208284031215614a6157600080fd5b5051919050565b634e487b7160e01b600052600160045260246000fd5b60008251614a90818460208701614677565b9190910192915050565b6020815260006106c4602083018461469b565b600081518084526020808501808196508360051b8101915082860160005b85811015614af5578284038952614ae384835161469b565b98850198935090840190600101614acb565b5091979650505050505050565b60a081526000614b1560a083018861469b565b8281036020840152614b278188614aad565b6040840196909652505061ffff92909216606083015260809091015292915050565b634e487b7160e01b600052602160045260246000fd5b80516136d3816142f7565b805163ffffffff811681146136d357600080fd5b80516136d381613e87565b80516136d3816140a9565b6000614ba261401b84613fd5565b9050828152838383011115614bb657600080fd5b6106c4836020830184614677565b600082601f830112614bd557600080fd5b6106c483835160208501614b94565b600082601f830112614bf557600080fd5b81516020614c0561401b83614086565b82815260079290921b84018101918181019086841115614c2457600080fd5b8286015b8481101561458a5760808189031215614c415760008081fd5b614c49613f60565b815181528482015185820152604080830151614c64816142f7565b90820152606082810151614c77816142f7565b90820152835291830191608001614c28565b60006101608284031215614c9c57600080fd5b614ca4613f82565b9050614caf82614b5f565b8152614cbd60208301614b6a565b6020820152614cce60408301614b6a565b6040820152614cdf60608301614b7e565b606082015260808201516080820152614cfa60a08301614b89565b60a0820152614d0b60c08301614b5f565b60c082015260e08201516001600160401b0380821115614d2a57600080fd5b614d3685838601614bc4565b60e08401526101009150614d4b828501614b6a565b8284015261012091508184015181811115614d6557600080fd5b614d7186828701614be4565b8385015250505061014080830151818301525092915050565b600080600060608486031215614d9f57600080fd5b83516001600160401b0380821115614db657600080fd5b614dc287838801614c89565b9450614dd060208701614a24565b93506040860151915080821115614de657600080fd5b508401601f81018613614df857600080fd5b614e0786825160208401614b94565b9150509250925092565b61ffff841681528260208201526060604082015260006146e9606083018461469b565b60008060408385031215614e4757600080fd5b8251915060208301516001600160401b03811115614e6457600080fd5b614e7085828601614bc4565b9150509250929050565b600060208284031215614e8c57600080fd5b81516106c481613ebf565b634e487b7160e01b600052601160045260246000fd5b8181038181111561076957610769614e97565b808202811582820484141761076957610769614e97565b634e487b7160e01b600052603260045260246000fd5b600181811c90821680614f0157607f821691505b602082108103611e8757634e487b7160e01b600052602260045260246000fd5b600080600060608486031215614f3657600080fd5b8351614f41816142f7565b602085015160409095015190969495509392505050565b8082018082111561076957610769614e97565b600060208284031215614f7d57600080fd5b81516001600160401b03811115614f9357600080fd5b613d4184828501614c89565b60208152614fb460208201835161ffff169052565b6020820151604082015260006040830151610120806060850152614fdc61014085018361469b565b915060608501516080850152608085015160a085015260a085015160c085015260c085015160e085015260e0850151610100818187015280870151915050601f198584030182860152610ce48382614aad565b60008060006060848603121561504457600080fd5b835161504f816142f7565b6020850151604086015191945092506001600160401b0381111561507257600080fd5b614e0786828701614bc4565b86815260006004871061509357615093614b49565b866020830152856040830152600585106150af576150af614b49565b84606083015260c060808301526150c960c083018561469b565b82810360a08401526107cf818561469b565b60ff60f81b8860f81b168152600087516150fc816001850160208c01614677565b60f088901b6001600160f01b03191660019184019182015260038101879052855161512e816023840160208a01614677565b0160238101949094525050604382015260630195945050505050565b63ffffffff84168152606060208201526000615169606083018561469b565b905060ff83166040830152949350505050565b60006020828403121561518e57600080fd5b81516106c4816140a9565b6000602082840312156151ab57600080fd5b81516106c481613e87565b60ff60f81b8760f81b16815261ffff60f01b8660f01b166001820152846003820152600084516151ed816023850160208901614677565b9091016023810193909352506043820152606301949350505050565b6000895161521b818460208e01614677565b89519083019061522f818360208e01614677565b80820191505061ffff60f01b8960f01b168152876002820152866022820152856042820152846062820152835161526d816082840160208801614677565b016082019a9950505050505050505050565b601f82111561228c57600081815260208120601f850160051c810160208610156152a65750805b601f850160051c820191505b818110156152c5578281556001016152b2565b505050505050565b81516001600160401b038111156152e6576152e6613f21565b6152fa816152f48454614eed565b8461527f565b602080601f83116001811461532f57600084156153175750858301515b600019600386901b1c1916600185901b1785556152c5565b600085815260208120601f198616915b8281101561535e5788860151825594840194600190910190840161533f565b508582101561537c5787850151600019600388901b60f8161c191681555b5050505050600190811b01905550565b60006020828403121561539e57600080fd5b8151600181106106c457600080fd5b600086516153bf818460208b01614677565b60f89690961b6001600160f81b0319169190950190815260f09390931b6001600160f01b0319166001840152600383019190915260c01b6001600160c01b0319166023820152602b0192915050565b63ffffffff60e01b8360e01b16815260008251615432816004850160208701614677565b919091016004019392505050565b60008351615452818460208801614677565b835190830190615466818360208801614677565b01949350505050565b600061016061ffff808f16845260208e818601528260408601526154958386018f61469b565b92508c60608601528b608086015284830360a08601526154b5838c61469b565b8a831660c087015260e086018a90526001600160a01b038916610100870152858103610120870152875180825282890194509082019060005b8181101561552b57855180518616845284810151858501526040908101516001600160401b031690840152948301946060909201916001016154ee565b505060ff871661014087015293506108199250505056feebc28a1927f62765bfb7ada566eeab2d31a98c65dbd1e8cad64acae2a3ae45d4a2646970667358221220302f176b147f4540a6035027876c83e3243623c58c7b2534867c4060614ab1e264736f6c63430008130033",
    "linkReferences": {}
  },
  "methodIdentifiers": {
    "checkAndExecuteUpgradeMigration()": "2c75470f",
    "deliver(bytes[],bytes,address,bytes)": "a60eb4c8",
    "executeInstruction((uint16,bytes32,bytes,uint256,uint256,uint256,bytes32,bytes32,bytes[]))": "60004157",
    "forward(uint16,bytes32,bytes,uint256,uint256,bytes,uint16,bytes32,address,(uint16,bytes32,uint64)[],uint8)": "75ea8b58",
    "forwardPayloadToEvm(uint16,address,bytes,uint256,uint256)": "4533e5ff",
    "forwardToEvm(uint16,address,bytes,uint256,uint256,uint256,uint16,address,address,(uint16,bytes32,uint64)[],uint8)": "4d48ec60",
    "forwardVaasToEvm(uint16,address,bytes,uint256,uint256,(uint16,bytes32,uint64)[])": "b1eac875",
    "getDefaultDeliveryProvider()": "24320c9f",
    "getDefaultDeliveryProviderOnChain(uint16)": "2936558f",
    "getOriginalOrDefaultDeliveryProvider(uint16)": "1d6bd5aa",
    "getRegisteredWormholeRelayerContract(uint16)": "3e8267e7",
    "initialize(address)": "c4d66de8",
    "quoteDeliveryPrice(uint16,uint256,bytes,address)": "a79629d8",
    "quoteEVMDeliveryPrice(uint16,uint256,uint256)": "c23ee3c3",
    "quoteEVMDeliveryPrice(uint16,uint256,uint256,address)": "80ebabd0",
    "quoteNativeForChain(uint16,uint256,address)": "2385904a",
    "registerWormholeRelayerContract(bytes)": "3ed334df",
    "resend((uint16,bytes32,uint64),uint16,uint256,bytes,address)": "b686d089",
    "resendToEvm((uint16,bytes32,uint64),uint16,uint256,uint256,address)": "8b0301b1",
    "send(uint16,bytes32,bytes,uint256,uint256,bytes,uint16,bytes32,address,(uint16,bytes32,uint64)[],uint8)": "c81fb7fe",
    "sendPayloadToEvm(uint16,address,bytes,uint256,uint256)": "8fecdd02",
    "sendPayloadToEvm(uint16,address,bytes,uint256,uint256,uint16,address)": "4b5ca6f4",
    "sendToEvm(uint16,address,bytes,uint256,uint256,uint256,uint16,address,address,(uint16,bytes32,uint64)[],uint8)": "3a2c767d",
    "sendVaasToEvm(uint16,address,bytes,uint256,uint256,(uint16,bytes32,uint64)[])": "329a2be7",
    "sendVaasToEvm(uint16,address,bytes,uint256,uint256,(uint16,bytes32,uint64)[],uint16,address)": "32b2fc0e",
    "setDefaultDeliveryProvider(bytes)": "28b1d852",
    "submitContractUpgrade(bytes)": "5cb8cae2"
  },
  "id": 23
}