{
  "_format": "hh-sol-artifact-1",
  "contractName": "XRaydiumStructs",
  "sourceName": "contracts/XRaydiumStructs.sol",
  "abi": [
    {
      "inputs": [
        {
          "internalType": "address[]",
          "name": "x",
          "type": "address[]"
        }
      ],
      "name": "addressArrayToBytesArray",
      "outputs": [
        {
          "internalType": "bytes32[]",
          "name": "",
          "type": "bytes32[]"
        }
      ],
      "stateMutability": "pure",
      "type": "function"
    },
    {
      "inputs": [
        {
          "internalType": "address[]",
          "name": "x",
          "type": "address[]"
        }
      ],
      "name": "encodeAddressArray",
      "outputs": [
        {
          "internalType": "bytes",
          "name": "data",
          "type": "bytes"
        }
      ],
      "stateMutability": "pure",
      "type": "function"
    },
    {
      "inputs": [
        {
          "internalType": "bytes32[]",
          "name": "x",
          "type": "bytes32[]"
        }
      ],
      "name": "encodeBytesArray",
      "outputs": [
        {
          "internalType": "bytes",
          "name": "data",
          "type": "bytes"
        }
      ],
      "stateMutability": "pure",
      "type": "function"
    },
    {
      "inputs": [
        {
          "components": [
            {
              "internalType": "bytes32",
              "name": "tokenAddr",
              "type": "bytes32"
            },
            {
              "internalType": "uint16",
              "name": "chainId",
              "type": "uint16"
            }
          ],
          "internalType": "struct XRaydiumStructs.XTokenLocator",
          "name": "x",
          "type": "tuple"
        }
      ],
      "name": "encodeXTokenLocator",
      "outputs": [
        {
          "internalType": "bytes",
          "name": "data",
          "type": "bytes"
        }
      ],
      "stateMutability": "pure",
      "type": "function"
    },
    {
      "inputs": [
        {
          "components": [
            {
              "internalType": "bytes32",
              "name": "tokenAddr",
              "type": "bytes32"
            },
            {
              "internalType": "uint16",
              "name": "chainId",
              "type": "uint16"
            }
          ],
          "internalType": "struct XRaydiumStructs.XTokenLocator[]",
          "name": "xs",
          "type": "tuple[]"
        }
      ],
      "name": "encodeXTokenLocatorArray",
      "outputs": [
        {
          "internalType": "bytes",
          "name": "data",
          "type": "bytes"
        }
      ],
      "stateMutability": "pure",
      "type": "function"
    },
    {
      "inputs": [
        {
          "internalType": "uint16",
          "name": "input",
          "type": "uint16"
        }
      ],
      "name": "reverse16",
      "outputs": [
        {
          "internalType": "uint16",
          "name": "v",
          "type": "uint16"
        }
      ],
      "stateMutability": "pure",
      "type": "function"
    },
    {
      "inputs": [
        {
          "internalType": "uint32",
          "name": "input",
          "type": "uint32"
        }
      ],
      "name": "reverse32",
      "outputs": [
        {
          "internalType": "uint32",
          "name": "v",
          "type": "uint32"
        }
      ],
      "stateMutability": "pure",
      "type": "function"
    },
    {
      "inputs": [
        {
          "internalType": "uint64",
          "name": "input",
          "type": "uint64"
        }
      ],
      "name": "reverse64",
      "outputs": [
        {
          "internalType": "uint64",
          "name": "v",
          "type": "uint64"
        }
      ],
      "stateMutability": "pure",
      "type": "function"
    }
  ],
  "bytecode": "0x608060405234801561001057600080fd5b50611003806100206000396000f3fe608060405234801561001057600080fd5b50600436106100885760003560e01c806339976a141161005b57806339976a141461014d57806369d5d72c1461017d5780638da92a5d146101ad578063ef0745fd146101dd57610088565b8063070a2b631461008d5780631b3f003f146100bd578063299990ee146100ed578063382b31da1461011d575b600080fd5b6100a760048036038101906100a291906109c6565b61020d565b6040516100b49190610c43565b60405180910390f35b6100d760048036038101906100d29190610a18565b61022c565b6040516100e49190610c79565b60405180910390f35b6101076004803603810190610102919061099d565b6102be565b6040516101149190610c21565b60405180910390f35b610137600480360381019061013291906108da565b61031d565b6040516101449190610bff565b60405180910390f35b6101676004803603810190610162919061091b565b61044a565b6040516101749190610c21565b60405180910390f35b6101976004803603810190610192919061095c565b6104d5565b6040516101a49190610c21565b60405180910390f35b6101c760048036038101906101c291906108da565b610566565b6040516101d49190610c21565b60405180910390f35b6101f760048036038101906101f291906109ef565b6105f9565b6040516102049190610c5e565b60405180910390f35b600081905060088161ffff16901b60088261ffff16901c179050919050565b6000819050600866ff00ff00ff00ff821667ffffffffffffffff16901b600867ff00ff00ff00ff00831667ffffffffffffffff16901c179050601065ffff0000ffff821667ffffffffffffffff16901b601067ffff0000ffff0000831667ffffffffffffffff16901c17905060208167ffffffffffffffff16901b60208267ffffffffffffffff16901c179050919050565b60608082600001516040516020016102d7929190610b8b565b6040516020818303038152906040529050806102f6836020015161020d565b604051602001610307929190610bd7565b6040516020818303038152906040529050919050565b60606000825167ffffffffffffffff811115610362577f4e487b7100000000000000000000000000000000000000000000000000000000600052604160045260246000fd5b6040519080825280602002602001820160405280156103905781602001602082028036833780820191505090505b50905060005b8351811015610440576103e88482815181106103db577f4e487b7100000000000000000000000000000000000000000000000000000000600052603260045260246000fd5b6020026020010151610640565b828281518110610421577f4e487b7100000000000000000000000000000000000000000000000000000000600052603260045260246000fd5b602002602001018181525050808061043890610e79565b915050610396565b5080915050919050565b606060005b82518110156104cf5781838281518110610492577f4e487b7100000000000000000000000000000000000000000000000000000000600052603260045260246000fd5b60200260200101516040516020016104ab929190610b8b565b604051602081830303815290604052915080806104c790610e79565b91505061044f565b50919050565b606060005b8251811015610560578161052d848381518110610520577f4e487b7100000000000000000000000000000000000000000000000000000000600052603260045260246000fd5b60200260200101516102be565b60405160200161053e929190610bb3565b60405160208183030381529060405291508061055990610e79565b90506104da565b50919050565b606060005b82518110156105f357816105be8483815181106105b1577f4e487b7100000000000000000000000000000000000000000000000000000000600052603260045260246000fd5b6020026020010151610640565b6040516020016105cf929190610b8b565b604051602081830303815290604052915080806105eb90610e79565b91505061056b565b50919050565b6000819050600862ff00ff821663ffffffff16901b600863ff00ff00831663ffffffff16901c17905060108163ffffffff16901b60108263ffffffff16901c179050919050565b60008173ffffffffffffffffffffffffffffffffffffffff1660001b9050919050565b600061067661067184610cb9565b610c94565b9050808382526020820190508285602086028201111561069557600080fd5b60005b858110156106c557816106ab88826107a7565b845260208401935060208301925050600181019050610698565b5050509392505050565b60006106e26106dd84610ce5565b610c94565b9050808382526020820190508285602086028201111561070157600080fd5b60005b858110156107315781610717888261083a565b845260208401935060208301925050600181019050610704565b5050509392505050565b600061074e61074984610d11565b610c94565b9050808382526020820190508285604086028201111561076d57600080fd5b60005b8581101561079d5781610783888261084f565b845260208401935060408301925050600181019050610770565b5050509392505050565b6000813590506107b681610f5a565b92915050565b600082601f8301126107cd57600080fd5b81356107dd848260208601610663565b91505092915050565b600082601f8301126107f757600080fd5b81356108078482602086016106cf565b91505092915050565b600082601f83011261082157600080fd5b813561083184826020860161073b565b91505092915050565b60008135905061084981610f71565b92915050565b60006040828403121561086157600080fd5b61086b6040610c94565b9050600061087b8482850161083a565b600083015250602061088f8482850161089b565b60208301525092915050565b6000813590506108aa81610f88565b92915050565b6000813590506108bf81610f9f565b92915050565b6000813590506108d481610fb6565b92915050565b6000602082840312156108ec57600080fd5b600082013567ffffffffffffffff81111561090657600080fd5b610912848285016107bc565b91505092915050565b60006020828403121561092d57600080fd5b600082013567ffffffffffffffff81111561094757600080fd5b610953848285016107e6565b91505092915050565b60006020828403121561096e57600080fd5b600082013567ffffffffffffffff81111561098857600080fd5b61099484828501610810565b91505092915050565b6000604082840312156109af57600080fd5b60006109bd8482850161084f565b91505092915050565b6000602082840312156109d857600080fd5b60006109e68482850161089b565b91505092915050565b600060208284031215610a0157600080fd5b6000610a0f848285016108b0565b91505092915050565b600060208284031215610a2a57600080fd5b6000610a38848285016108c5565b91505092915050565b6000610a4d8383610ab7565b60208301905092915050565b6000610a6482610d4d565b610a6e8185610d70565b9350610a7983610d3d565b8060005b83811015610aaa578151610a918882610a41565b9750610a9c83610d63565b925050600181019050610a7d565b5085935050505092915050565b610ac081610daf565b82525050565b610ad7610ad282610daf565b610ec2565b82525050565b6000610ae882610d58565b610af28185610d81565b9350610b02818560208601610e15565b610b0b81610f3c565b840191505092915050565b6000610b2182610d58565b610b2b8185610d92565b9350610b3b818560208601610e15565b80840191505092915050565b610b5081610db9565b82525050565b610b67610b6282610db9565b610ecc565b82525050565b610b7681610df1565b82525050565b610b8581610e01565b82525050565b6000610b978285610b16565b9150610ba38284610ac6565b6020820191508190509392505050565b6000610bbf8285610b16565b9150610bcb8284610b16565b91508190509392505050565b6000610be38285610b16565b9150610bef8284610b56565b6002820191508190509392505050565b60006020820190508181036000830152610c198184610a59565b905092915050565b60006020820190508181036000830152610c3b8184610add565b905092915050565b6000602082019050610c586000830184610b47565b92915050565b6000602082019050610c736000830184610b6d565b92915050565b6000602082019050610c8e6000830184610b7c565b92915050565b6000610c9e610caf565b9050610caa8282610e48565b919050565b6000604051905090565b600067ffffffffffffffff821115610cd457610cd3610f0d565b5b602082029050602081019050919050565b600067ffffffffffffffff821115610d0057610cff610f0d565b5b602082029050602081019050919050565b600067ffffffffffffffff821115610d2c57610d2b610f0d565b5b602082029050602081019050919050565b6000819050602082019050919050565b600081519050919050565b600081519050919050565b6000602082019050919050565b600082825260208201905092915050565b600082825260208201905092915050565b600081905092915050565b6000610da882610dc7565b9050919050565b6000819050919050565b600061ffff82169050919050565b600073ffffffffffffffffffffffffffffffffffffffff82169050919050565b6000819050919050565b600063ffffffff82169050919050565b600067ffffffffffffffff82169050919050565b60005b83811015610e33578082015181840152602081019050610e18565b83811115610e42576000848401525b50505050565b610e5182610f3c565b810181811067ffffffffffffffff82111715610e7057610e6f610f0d565b5b80604052505050565b6000610e8482610de7565b91507fffffffffffffffffffffffffffffffffffffffffffffffffffffffffffffffff821415610eb757610eb6610ede565b5b600182019050919050565b6000819050919050565b6000610ed782610f4d565b9050919050565b7f4e487b7100000000000000000000000000000000000000000000000000000000600052601160045260246000fd5b7f4e487b7100000000000000000000000000000000000000000000000000000000600052604160045260246000fd5b6000601f19601f8301169050919050565b60008160f01b9050919050565b610f6381610d9d565b8114610f6e57600080fd5b50565b610f7a81610daf565b8114610f8557600080fd5b50565b610f9181610db9565b8114610f9c57600080fd5b50565b610fa881610df1565b8114610fb357600080fd5b50565b610fbf81610e01565b8114610fca57600080fd5b5056fea264697066735822122014d0756b99a20d3470f1a93dd59d9515a1abb05a309fb5fdb2428e196594d29d64736f6c63430008040033",
  "linkReferences": {},
  "deployedLinkReferences": {}
}