{
  "contractName": "Wormhole",
  "abi": [
    {
      "inputs": [
        {
          "components": [
            {
              "internalType": "uint256",
              "name": "x",
              "type": "uint256"
            },
            {
              "internalType": "uint8",
              "name": "parity",
              "type": "uint8"
            },
            {
              "internalType": "uint32",
              "name": "expiration_time",
              "type": "uint32"
            }
          ],
          "internalType": "struct Wormhole.GuardianSet",
          "name": "initial_guardian_set",
          "type": "tuple"
        },
        {
          "internalType": "address",
          "name": "wrapped_asset_master",
          "type": "address"
        }
      ],
      "stateMutability": "nonpayable",
      "type": "constructor"
    },
    {
      "anonymous": false,
      "inputs": [
        {
          "components": [
            {
              "internalType": "uint256",
              "name": "x",
              "type": "uint256"
            },
            {
              "internalType": "uint8",
              "name": "parity",
              "type": "uint8"
            },
            {
              "internalType": "uint32",
              "name": "expiration_time",
              "type": "uint32"
            }
          ],
          "indexed": true,
          "internalType": "struct Wormhole.GuardianSet",
          "name": "oldGuardian",
          "type": "tuple"
        },
        {
          "components": [
            {
              "internalType": "uint256",
              "name": "x",
              "type": "uint256"
            },
            {
              "internalType": "uint8",
              "name": "parity",
              "type": "uint8"
            },
            {
              "internalType": "uint32",
              "name": "expiration_time",
              "type": "uint32"
            }
          ],
          "indexed": true,
          "internalType": "struct Wormhole.GuardianSet",
          "name": "newGuardian",
          "type": "tuple"
        }
      ],
      "name": "LogGuardianSetChanged",
      "type": "event"
    },
    {
      "anonymous": false,
      "inputs": [
        {
          "indexed": false,
          "internalType": "uint8",
          "name": "target_chain",
          "type": "uint8"
        },
        {
          "indexed": false,
          "internalType": "uint8",
          "name": "token_chain",
          "type": "uint8"
        },
        {
          "indexed": true,
          "internalType": "bytes32",
          "name": "token",
          "type": "bytes32"
        },
        {
          "indexed": true,
          "internalType": "bytes32",
          "name": "sender",
          "type": "bytes32"
        },
        {
          "indexed": false,
          "internalType": "bytes32",
          "name": "recipient",
          "type": "bytes32"
        },
        {
          "indexed": false,
          "internalType": "uint256",
          "name": "amount",
          "type": "uint256"
        }
      ],
      "name": "LogTokensLocked",
      "type": "event"
    },
    {
      "anonymous": false,
      "inputs": [
        {
          "indexed": true,
          "internalType": "address",
          "name": "token",
          "type": "address"
        },
        {
          "indexed": true,
          "internalType": "bytes32",
          "name": "sender",
          "type": "bytes32"
        },
        {
          "indexed": false,
          "internalType": "address",
          "name": "recipient",
          "type": "address"
        },
        {
          "indexed": false,
          "internalType": "uint256",
          "name": "amount",
          "type": "uint256"
        }
      ],
      "name": "LogTokensUnlocked",
      "type": "event"
    },
    {
      "stateMutability": "payable",
      "type": "fallback"
    },
    {
      "inputs": [],
      "name": "guardian_set_index",
      "outputs": [
        {
          "internalType": "uint32",
          "name": "",
          "type": "uint32"
        }
      ],
      "stateMutability": "view",
      "type": "function"
    },
    {
      "inputs": [],
      "name": "vaa_expiry",
      "outputs": [
        {
          "internalType": "uint32",
          "name": "",
          "type": "uint32"
        }
      ],
      "stateMutability": "view",
      "type": "function"
    },
    {
      "inputs": [],
      "name": "wrappedAssetMaster",
      "outputs": [
        {
          "internalType": "address",
          "name": "",
          "type": "address"
        }
      ],
      "stateMutability": "view",
      "type": "function"
    },
    {
      "stateMutability": "payable",
      "type": "receive"
    },
    {
      "inputs": [
        {
          "internalType": "bytes",
          "name": "vaa",
          "type": "bytes"
        }
      ],
      "name": "submitVAA",
      "outputs": [],
      "stateMutability": "nonpayable",
      "type": "function"
    },
    {
      "inputs": [
        {
          "internalType": "address",
          "name": "asset",
          "type": "address"
        },
        {
          "internalType": "uint256",
          "name": "amount",
          "type": "uint256"
        },
        {
          "internalType": "bytes32",
          "name": "recipient",
          "type": "bytes32"
        },
        {
          "internalType": "uint8",
          "name": "target_chain",
          "type": "uint8"
        }
      ],
      "name": "lockAssets",
      "outputs": [],
      "stateMutability": "nonpayable",
      "type": "function"
    },
    {
      "inputs": [
        {
          "internalType": "bytes32",
          "name": "recipient",
          "type": "bytes32"
        },
        {
          "internalType": "uint8",
          "name": "target_chain",
          "type": "uint8"
        }
      ],
      "name": "lockETH",
      "outputs": [],
      "stateMutability": "payable",
      "type": "function"
    }
  ],
  "bytecode": "0x60806040526002600060146101000a81548160ff021916908360ff1602179055503480156200002d57600080fd5b5060405162002f0438038062002f048339818101604052810190620000539190620001f1565b81600160008063ffffffff1681526020019081526020016000206000820151816000015560208201518160010160006101000a81548160ff021916908360ff16021790555060408201518160010160016101000a81548163ffffffff021916908363ffffffff1602179055509050506000600260006101000a81548163ffffffff021916908363ffffffff160217905550806000806101000a81548173ffffffffffffffffffffffffffffffffffffffff021916908373ffffffffffffffffffffffffffffffffffffffff160217905550505062000323565b6000815190506200013d81620002bb565b92915050565b6000606082840312156200015657600080fd5b62000162606062000232565b905060006200017484828501620001ac565b60008301525060206200018a84828501620001da565b6020830152506040620001a084828501620001c3565b60408301525092915050565b600081519050620001bd81620002d5565b92915050565b600081519050620001d481620002ef565b92915050565b600081519050620001eb8162000309565b92915050565b600080608083850312156200020557600080fd5b6000620002158582860162000143565b925050606062000228858286016200012c565b9150509250929050565b6000604051905081810181811067ffffffffffffffff821117156200025657600080fd5b8060405250919050565b60006200026d8262000274565b9050919050565b600073ffffffffffffffffffffffffffffffffffffffff82169050919050565b6000819050919050565b600063ffffffff82169050919050565b600060ff82169050919050565b620002c68162000260565b8114620002d257600080fd5b50565b620002e08162000294565b8114620002ec57600080fd5b50565b620002fa816200029e565b81146200030657600080fd5b50565b6200031481620002ae565b81146200032057600080fd5b50565b612bd180620003336000396000f3fe6080604052600436106100595760003560e01c80633bc0aee6146100d4578063780e2183146100fd5780637f04d9e614610119578063822d82b31461014457806399da1d3c1461016f578063e66fd3731461019a57610099565b36610099576040517f08c379a0000000000000000000000000000000000000000000000000000000008152600401610090906126d9565b60405180910390fd5b6040517f08c379a00000000000000000000000000000000000000000000000000000000081526004016100cb906126d9565b60405180910390fd5b3480156100e057600080fd5b506100fb60048036038101906100f69190611dfc565b6101c3565b005b61011760048036038101906101129190611dc0565b61087a565b005b34801561012557600080fd5b5061012e6109cb565b60405161013b91906128cc565b60405180910390f35b34801561015057600080fd5b506101596109e1565b60405161016691906128cc565b60405180910390f35b34801561017b57600080fd5b506101846109f7565b60405161019191906125b8565b60405180910390f35b3480156101a657600080fd5b506101c160048036038101906101bc9190611d0b565b610a1b565b005b600061021d600084848080601f016020809104026020016040519081016040528093929190818152602001838380828437600081840152601f19601f82011690508083019250505050505050610e1390919063ffffffff16565b905060018160ff1614610265576040517f08c379a000000000000000000000000000000000000000000000000000000000815260040161025c90612719565b60405180910390fd5b60006102bf600185858080601f016020809104026020016040519081016040528093929190818152602001838380828437600081840152601f19601f82011690508083019250505050505050610e7190919063ffffffff16565b9050600061031b600586868080601f016020809104026020016040519081016040528093929190818152602001838380828437600081840152601f19601f82011690508083019250505050505050610ecf90919063ffffffff16565b90506000610377602587878080601f016020809104026020016040519081016040528093929190818152602001838380828437600081840152601f19601f82011690508083019250505050505050610f2d90919063ffffffff16565b905060006103d3603988888080601f016020809104026020016040519081016040528093929190818152602001838380828437600081840152601f19601f82011690508083019250505050505050610e7190919063ffffffff16565b905042600260049054906101000a900463ffffffff16820163ffffffff1610610431576040517f08c379a000000000000000000000000000000000000000000000000000000000815260040161042890612739565b60405180910390fd5b60006104926039808a8a9050038a8a8080601f016020809104026020016040519081016040528093929190818152602001838380828437600081840152601f19601f82011690508083019250505050505050610f9a9092919063ffffffff16565b8051906020012090506003600082815260200190815260200160002060009054906101000a900460ff16156104fc576040517f08c379a00000000000000000000000000000000000000000000000000000000081526004016104f3906126b9565b60405180910390fd5b610504611bef565b600160008763ffffffff1663ffffffff168152602001908152602001600020604051806060016040529081600082015481526020016001820160009054906101000a900460ff1660ff1660ff1681526020016001820160019054906101000a900463ffffffff1663ffffffff1663ffffffff168152505090506000816040015163ffffffff16148061059f575042816040015163ffffffff16115b6105de576040517f08c379a00000000000000000000000000000000000000000000000000000000081526004016105d5906127f9565b60405180910390fd5b73__Schnorr_______________________________63ff51dff282600001518360200151888660001c896040518663ffffffff1660e01b8152600401610628959493929190612879565b60206040518083038186803b15801561064057600080fd5b505af4158015610654573d6000803e3d6000fd5b505050506040513d601f19601f820116820180604052508101906106789190611d6e565b6106b7576040517f08c379a00000000000000000000000000000000000000000000000000000000081526004016106ae90612759565b60405180910390fd5b6000610711603d8b8b8080601f016020809104026020016040519081016040528093929190818152602001838380828437600081840152601f19601f82011690508083019250505050505050610e1390919063ffffffff16565b9050600061076d603e8c8c8080601f016020809104026020016040519081016040528093929190818152602001838380828437600081840152601f19601f82011690508083019250505050505050610e1390919063ffffffff16565b905060606107ce603f8360ff168e8e8080601f016020809104026020016040519081016040528093929190818152602001838380828437600081840152601f19601f82011690508083019250505050505050610f9a9092919063ffffffff16565b905060018360ff1614156107ea576107e58161105c565b610840565b60108360ff161415610804576107ff81611337565b61083f565b6040517f08c379a000000000000000000000000000000000000000000000000000000000815260040161083690612699565b60405180910390fd5b5b60016003600087815260200190815260200160002060006101000a81548160ff021916908315150217905550505050505050505050505050565b60003414156108be576040517f08c379a00000000000000000000000000000000000000000000000000000000081526004016108b5906127b9565b60405180910390fd5b73c02aaa39b223fe8d0a0e5c4f27ead9083c756cc273ffffffffffffffffffffffffffffffffffffffff1663d0e30db0346040518263ffffffff1660e01b81526004016000604051808303818588803b15801561091a57600080fd5b505af115801561092e573d6000803e3d6000fd5b50505050508173c02aaa39b223fe8d0a0e5c4f27ead9083c756cc273ffffffffffffffffffffffffffffffffffffffff1660001b7f84b445260a99044cc9529b3033663c078031a14e31f3c255ff02c62667bab14b83600060149054906101000a900460ff163373ffffffffffffffffffffffffffffffffffffffff1660001b346040516109bf9493929190612910565b60405180910390a35050565b600260049054906101000a900463ffffffff1681565b600260009054906101000a900463ffffffff1681565b60008054906101000a900473ffffffffffffffffffffffffffffffffffffffff1681565b6000831415610a5f576040517f08c379a0000000000000000000000000000000000000000000000000000000008152600401610a56906127b9565b60405180910390fd5b60008060149054906101000a900460ff1690506000600560008773ffffffffffffffffffffffffffffffffffffffff1673ffffffffffffffffffffffffffffffffffffffff16815260200190815260200160002060009054906101000a900460ff1615610c38578573ffffffffffffffffffffffffffffffffffffffff16639dc29fac33876040518363ffffffff1660e01b8152600401610b019291906125ee565b600060405180830381600087803b158015610b1b57600080fd5b505af1158015610b2f573d6000803e3d6000fd5b505050508573ffffffffffffffffffffffffffffffffffffffff1663026b05396040518163ffffffff1660e01b815260040160206040518083038186803b158015610b7957600080fd5b505afa158015610b8d573d6000803e3d6000fd5b505050506040513d601f19601f82011682018060405250810190610bb19190611e6a565b91508573ffffffffffffffffffffffffffffffffffffffff16631ba46cfd6040518163ffffffff1660e01b815260040160206040518083038186803b158015610bf957600080fd5b505afa158015610c0d573d6000803e3d6000fd5b505050506040513d601f19601f82011682018060405250810190610c319190611d97565b9050610db3565b60008673ffffffffffffffffffffffffffffffffffffffff166370a08231306040518263ffffffff1660e01b8152600401610c7391906125d3565b60206040518083038186803b158015610c8b57600080fd5b505afa158015610c9f573d6000803e3d6000fd5b505050506040513d601f19601f82011682018060405250810190610cc39190611e41565b9050610cf23330888a73ffffffffffffffffffffffffffffffffffffffff166115ed909392919063ffffffff16565b60008773ffffffffffffffffffffffffffffffffffffffff166370a08231306040518263ffffffff1660e01b8152600401610d2d91906125d3565b60206040518083038186803b158015610d4557600080fd5b505afa158015610d59573d6000803e3d6000fd5b505050506040513d601f19601f82011682018060405250810190610d7d9190611e41565b9050610d92828261167690919063ffffffff16565b96508773ffffffffffffffffffffffffffffffffffffffff1660001b925050505b83817f84b445260a99044cc9529b3033663c078031a14e31f3c255ff02c62667bab14b85853373ffffffffffffffffffffffffffffffffffffffff1660001b8a604051610e039493929190612910565b60405180910390a3505050505050565b60006001820183511015610e5c576040517f08c379a0000000000000000000000000000000000000000000000000000000008152600401610e53906126f9565b60405180910390fd5b60008260018501015190508091505092915050565b60006004820183511015610eba576040517f08c379a0000000000000000000000000000000000000000000000000000000008152600401610eb1906126f9565b60405180910390fd5b60008260048501015190508091505092915050565b60006020820183511015610f18576040517f08c379a0000000000000000000000000000000000000000000000000000000008152600401610f0f906126f9565b60405180910390fd5b60008260208501015190508091505092915050565b60006014820183511015610f76576040517f08c379a0000000000000000000000000000000000000000000000000000000008152600401610f6d906126f9565b60405180910390fd5b60006c01000000000000000000000000836020860101510490508091505092915050565b606081830184511015610fe2576040517f08c379a0000000000000000000000000000000000000000000000000000000008152600401610fd9906126f9565b60405180910390fd5b6060821560008114610fff57604051915060208201604052611050565b6040519150601f8416801560200281840101858101878315602002848b0101015b8183101561103d5780518352602083019250602081019050611020565b50868552601f19601f8301166040525050505b50809150509392505050565b6000611072600083610ecf90919063ffffffff16565b9050600061108a602084610ecf90919063ffffffff16565b905060006110a2604085610e7190919063ffffffff16565b9050600260009054906101000a900463ffffffff1663ffffffff168163ffffffff1611611104576040517f08c379a00000000000000000000000000000000000000000000000000000000081526004016110fb90612779565b60405180910390fd5b6001807ffffffffffffffffffffffffffffffffebaaedce6af48a03bbfd25e8cd0364141901c01831061116c576040517f08c379a000000000000000000000000000000000000000000000000000000000815260040161116390612799565b60405180910390fd5b6000600260009054906101000a900463ffffffff16905081600260006101000a81548163ffffffff021916908363ffffffff1602179055506111ac611bef565b6040518060600160405280868152602001600286816111c757fe5b0660ff168152602001600063ffffffff1681525090508060016000600260009054906101000a900463ffffffff1663ffffffff1663ffffffff1681526020019081526020016000206000820151816000015560208201518160010160006101000a81548160ff021916908360ff16021790555060408201518160010160016101000a81548163ffffffff021916908363ffffffff160217905550905050600260049054906101000a900463ffffffff164201600160008463ffffffff1663ffffffff16815260200190815260200160002060010160016101000a81548163ffffffff021916908363ffffffff160217905550806040516112c79190612556565b6040518091039020600160008463ffffffff1663ffffffff1681526020019081526020016000206040516112fb9190612571565b60405180910390207f776a7721d091beb15fb219d7be3c92b83fa7c10428af15a7312461bc3bc52e0b60405160405180910390a3505050505050565b600061134d600483610e1390919063ffffffff16565b90506000611365600584610e1390919063ffffffff16565b9050600061137d603285610f2d90919063ffffffff16565b90506000611395604686610e1390919063ffffffff16565b905060006113ad606787610ecf90919063ffffffff16565b90508360ff168560ff1614156113f8576040517f08c379a00000000000000000000000000000000000000000000000000000000081526004016113ef90612859565b60405180910390fd5b600060149054906101000a900460ff1660ff168460ff161461144f576040517f08c379a0000000000000000000000000000000000000000000000000000000008152600401611446906127d9565b60405180910390fd5b600060149054906101000a900460ff1660ff168260ff16146115a05760006114816047886116c090919063ffffffff16565b90506000838260405160200161149892919061258c565b60405160208183030381529060405280519060200120905060006004600083815260200190815260200160002060009054906101000a900473ffffffffffffffffffffffffffffffffffffffff169050600073ffffffffffffffffffffffffffffffffffffffff168173ffffffffffffffffffffffffffffffffffffffff16141561152b5761152882868561171e565b90505b8073ffffffffffffffffffffffffffffffffffffffff166340c10f1987866040518363ffffffff1660e01b815260040161156692919061264e565b600060405180830381600087803b15801561158057600080fd5b505af1158015611594573d6000803e3d6000fd5b505050505050506115e5565b60006115b6605388610f2d90919063ffffffff16565b90506115e384838373ffffffffffffffffffffffffffffffffffffffff166118c19092919063ffffffff16565b505b505050505050565b611670846323b872dd60e01b85858560405160240161160e93929190612617565b604051602081830303815290604052907bffffffffffffffffffffffffffffffffffffffffffffffffffffffff19166020820180517bffffffffffffffffffffffffffffffffffffffffffffffffffffffff8381831617835250505050611947565b50505050565b60006116b883836040518060400160405280601e81526020017f536166654d6174683a207375627472616374696f6e206f766572666c6f770000815250611a0e565b905092915050565b60006020820183511015611709576040517f08c379a0000000000000000000000000000000000000000000000000000000008152600401611700906126f9565b60405180910390fd5b60008260208501015190508091505092915050565b60008060008054906101000a900473ffffffffffffffffffffffffffffffffffffffff1660601b90506040517f3d602d80600a3d3981f3363d3d373d3d3d363d7300000000000000000000000081528160148201527f5af43d82803e903d91602b57fd5bf3000000000000000000000000000000000060288201526037816000f09250508173ffffffffffffffffffffffffffffffffffffffff166302a0958585856040518363ffffffff1660e01b81526004016117dd9291906128e7565b600060405180830381600087803b1580156117f757600080fd5b505af115801561180b573d6000803e3d6000fd5b50505050816004600087815260200190815260200160002060006101000a81548173ffffffffffffffffffffffffffffffffffffffff021916908373ffffffffffffffffffffffffffffffffffffffff1602179055506001600560008473ffffffffffffffffffffffffffffffffffffffff1673ffffffffffffffffffffffffffffffffffffffff16815260200190815260200160002060006101000a81548160ff021916908315150217905550509392505050565b6119428363a9059cbb60e01b84846040516024016118e092919061264e565b604051602081830303815290604052907bffffffffffffffffffffffffffffffffffffffffffffffffffffffff19166020820180517bffffffffffffffffffffffffffffffffffffffffffffffffffffffff8381831617835250505050611947565b505050565b60606119a9826040518060400160405280602081526020017f5361666545524332303a206c6f772d6c6576656c2063616c6c206661696c65648152508573ffffffffffffffffffffffffffffffffffffffff16611a699092919063ffffffff16565b9050600081511115611a0957808060200190518101906119c99190611d6e565b611a08576040517f08c379a00000000000000000000000000000000000000000000000000000000081526004016119ff90612839565b60405180910390fd5b5b505050565b6000838311158290611a56576040517f08c379a0000000000000000000000000000000000000000000000000000000008152600401611a4d9190612677565b60405180910390fd5b5060008385039050809150509392505050565b6060611a788484600085611a81565b90509392505050565b6060611a8c85611ba4565b611acb576040517f08c379a0000000000000000000000000000000000000000000000000000000008152600401611ac290612819565b60405180910390fd5b600060608673ffffffffffffffffffffffffffffffffffffffff168587604051611af5919061253f565b60006040518083038185875af1925050503d8060008114611b32576040519150601f19603f3d011682016040523d82523d6000602084013e611b37565b606091505b50915091508115611b4c578092505050611b9c565b600081511115611b5f5780518082602001fd5b836040517f08c379a0000000000000000000000000000000000000000000000000000000008152600401611b939190612677565b60405180910390fd5b949350505050565b60008060007fc5d2460186f7233c927e7db2dcc703c0e500b653ca82273b7bfad8045d85a47060001b9050833f9150808214158015611be657506000801b8214155b92505050919050565b604051806060016040528060008152602001600060ff168152602001600063ffffffff1681525090565b600081359050611c2881612b28565b92915050565b600081519050611c3d81612b3f565b92915050565b600081359050611c5281612b56565b92915050565b600081519050611c6781612b56565b92915050565b60008083601f840112611c7f57600080fd5b8235905067ffffffffffffffff811115611c9857600080fd5b602083019150836001820283011115611cb057600080fd5b9250929050565b600081359050611cc681612b6d565b92915050565b600081519050611cdb81612b6d565b92915050565b600081359050611cf081612b84565b92915050565b600081519050611d0581612b84565b92915050565b60008060008060808587031215611d2157600080fd5b6000611d2f87828801611c19565b9450506020611d4087828801611cb7565b9350506040611d5187828801611c43565b9250506060611d6287828801611ce1565b91505092959194509250565b600060208284031215611d8057600080fd5b6000611d8e84828501611c2e565b91505092915050565b600060208284031215611da957600080fd5b6000611db784828501611c58565b91505092915050565b60008060408385031215611dd357600080fd5b6000611de185828601611c43565b9250506020611df285828601611ce1565b9150509250929050565b60008060208385031215611e0f57600080fd5b600083013567ffffffffffffffff811115611e2957600080fd5b611e3585828601611c6d565b92509250509250929050565b600060208284031215611e5357600080fd5b6000611e6184828501611ccc565b91505092915050565b600060208284031215611e7c57600080fd5b6000611e8a84828501611cf6565b91505092915050565b6000611e9f83836124ce565b60208301905092915050565b6000611eb783836124ec565b60208301905092915050565b6000611ecf8383612519565b60208301905092915050565b611ee481612a1d565b82525050565b611ef3816129ae565b82525050565b611f02816129ae565b82525050565b611f11816129cc565b82525050565b611f28611f23826129cc565b612ad4565b82525050565b6000611f3982612955565b611f43818561296b565b9350611f53818560208601612a53565b80840191505092915050565b6000611f6a82612960565b611f748185612976565b9350611f84818560208601612a53565b611f8d81612af0565b840191505092915050565b6000611fa5601283612976565b91507f696e76616c69642056414120616374696f6e00000000000000000000000000006000830152602082019050919050565b6000611fe5601883612976565b91507f5641412077617320616c726561647920657865637574656400000000000000006000830152602082019050919050565b6000612025602c83612976565b91507f706c6561736520757365206c6f636b45544820746f207472616e73666572204560008301527f544820746f20536f6c616e6100000000000000000000000000000000000000006020830152604082019050919050565b600061208b601283612976565b91507f52656164206f7574206f6620626f756e647300000000000000000000000000006000830152602082019050919050565b60006120cb601883612976565b91507f5641412076657273696f6e20696e636f6d70617469626c6500000000000000006000830152602082019050919050565b600061210b600f83612976565b91507f56414120686173206578706972656400000000000000000000000000000000006000830152602082019050919050565b600061214b601583612976565b91507f564141207369676e617475726520696e76616c696400000000000000000000006000830152602082019050919050565b600061218b602b83612976565b91507f696e646578206f66206e657720677561726469616e20736574206d757374206260008301527f65203e2063757272656e740000000000000000000000000000000000000000006020830152604082019050919050565b60006121f1602983612976565b91507f696e76616c6964206b657920666f722066617374205363686e6f72722076657260008301527f696669636174696f6e00000000000000000000000000000000000000000000006020830152604082019050919050565b6000612257601483612976565b91507f616d6f756e74206d757374206e6f7420626520300000000000000000000000006000830152602082019050919050565b6000612297601983612976565b91507f7472616e73666572206d75737420626520696e636f6d696e67000000000000006000830152602082019050919050565b60006122d7601883612976565b91507f677561726469616e2073657420686173206578706972656400000000000000006000830152602082019050919050565b6000612317601d83612976565b91507f416464726573733a2063616c6c20746f206e6f6e2d636f6e74726163740000006000830152602082019050919050565b6000612357602a83612976565b91507f5361666545524332303a204552433230206f7065726174696f6e20646964206e60008301527f6f742073756363656564000000000000000000000000000000000000000000006020830152604082019050919050565b60006123bd602683612976565b91507f73616d6520636861696e207472616e736665727320617265206e6f742073757060008301527f706f7274656400000000000000000000000000000000000000000000000000006020830152604082019050919050565b6000820160008201516124298482611e93565b935050602082015161243b8482611ec3565b935050604082015161244d8482611eab565b935050505050565b60008201600080830154905061246a81612a86565b6124748582611e93565b9450506001830154905061248781612aa0565b6124918582611ec3565b94505061249d81612aba565b6124a78582611eab565b94505050505050565b6124b9816129f6565b82525050565b6124c8816129f6565b82525050565b6124d7816129f6565b82525050565b6124e681612a00565b82525050565b6124f581612a00565b82525050565b61250481612a10565b82525050565b61251381612a10565b82525050565b61252281612a10565b82525050565b61253961253482612a10565b612ade565b82525050565b600061254b8284611f2e565b915081905092915050565b60006125628284612416565b60608201915081905092915050565b600061257d8284612455565b60608201915081905092915050565b60006125988285612528565b6001820191506125a88284611f17565b6020820191508190509392505050565b60006020820190506125cd6000830184611eea565b92915050565b60006020820190506125e86000830184611edb565b92915050565b60006040820190506126036000830185611edb565b61261060208301846124b0565b9392505050565b600060608201905061262c6000830186611eea565b6126396020830185611eea565b61264660408301846124b0565b949350505050565b60006040820190506126636000830185611eea565b61267060208301846124b0565b9392505050565b600060208201905081810360008301526126918184611f5f565b905092915050565b600060208201905081810360008301526126b281611f98565b9050919050565b600060208201905081810360008301526126d281611fd8565b9050919050565b600060208201905081810360008301526126f281612018565b9050919050565b600060208201905081810360008301526127128161207e565b9050919050565b60006020820190508181036000830152612732816120be565b9050919050565b60006020820190508181036000830152612752816120fe565b9050919050565b600060208201905081810360008301526127728161213e565b9050919050565b600060208201905081810360008301526127928161217e565b9050919050565b600060208201905081810360008301526127b2816121e4565b9050919050565b600060208201905081810360008301526127d28161224a565b9050919050565b600060208201905081810360008301526127f28161228a565b9050919050565b60006020820190508181036000830152612812816122ca565b9050919050565b600060208201905081810360008301526128328161230a565b9050919050565b600060208201905081810360008301526128528161234a565b9050919050565b60006020820190508181036000830152612872816123b0565b9050919050565b600060a08201905061288e60008301886124bf565b61289b602083018761250a565b6128a860408301866124bf565b6128b560608301856124bf565b6128c26080830184611ef9565b9695505050505050565b60006020820190506128e160008301846124dd565b92915050565b60006040820190506128fc60008301856124fb565b6129096020830184611f08565b9392505050565b600060808201905061292560008301876124fb565b61293260208301866124fb565b61293f6040830185611f08565b61294c60608301846124b0565b95945050505050565b600081519050919050565b600081519050919050565b600081905092915050565b600082825260208201905092915050565b6000819050919050565b600063ffffffff82169050919050565b600060ff82169050919050565b60006129b9826129d6565b9050919050565b60008115159050919050565b6000819050919050565b600073ffffffffffffffffffffffffffffffffffffffff82169050919050565b6000819050919050565b600063ffffffff82169050919050565b600060ff82169050919050565b6000612a2882612a2f565b9050919050565b6000612a3a82612a41565b9050919050565b6000612a4c826129d6565b9050919050565b60005b83811015612a71578082015181840152602081019050612a56565b83811115612a80576000848401525b50505050565b6000612a99612a9483612b0e565b612987565b9050919050565b6000612ab3612aae83612b0e565b6129a1565b9050919050565b6000612acd612ac883612b1b565b612991565b9050919050565b6000819050919050565b6000612ae982612b01565b9050919050565b6000601f19601f8301169050919050565b60008160f81b9050919050565b60008160001c9050919050565b60008160081c9050919050565b612b31816129ae565b8114612b3c57600080fd5b50565b612b48816129c0565b8114612b5357600080fd5b50565b612b5f816129cc565b8114612b6a57600080fd5b50565b612b76816129f6565b8114612b8157600080fd5b50565b612b8d81612a10565b8114612b9857600080fd5b5056fea264697066735822122033713fbc06fc98ebfb1480eb1fb0380c4ff666a6ec58c529f5305334818eb30164736f6c634300060c0033",
  "immutableReferences": {},
  "source": "// contracts/Wormhole.sol\n// SPDX-License-Identifier: Apache 2\n\npragma solidity ^0.6.0;\npragma experimental ABIEncoderV2;\n\nimport \"@openzeppelin/contracts/token/ERC20/IERC20.sol\";\nimport \"@openzeppelin/contracts/token/ERC20/SafeERC20.sol\";\nimport \"@openzeppelin/contracts/math/SafeMath.sol\";\nimport \"./BytesLib.sol\";\nimport \"./SchnorrSECP256K1.sol\";\nimport \"./WrappedAsset.sol\";\n\ncontract Wormhole {\n    using SafeERC20 for IERC20;\n    using BytesLib for bytes;\n    using SafeMath for uint256;\n\n    // Address of the Wrapped asset template\n    address public wrappedAssetMaster;\n\n    // Chain ID of Ethereum\n    uint8 CHAIN_ID = 2;\n\n    // Address of the official WETH contract\n    address constant WETHAddress = 0xC02aaA39b223FE8D0A0e5C4F27eAD9083C756Cc2;\n\n    struct GuardianSet {\n        uint256 x;\n        uint8 parity;\n        uint32 expiration_time;\n    }\n\n    event LogGuardianSetChanged(\n        GuardianSet indexed oldGuardian,\n        GuardianSet indexed newGuardian\n    );\n\n    event LogTokensLocked(\n        uint8 target_chain,\n        uint8 token_chain,\n        bytes32 indexed token,\n        bytes32 indexed sender,\n        bytes32 recipient,\n        uint256 amount\n    );\n\n    event LogTokensUnlocked(\n        address indexed token,\n        bytes32 indexed sender,\n        address recipient,\n        uint256 amount\n    );\n\n    // Mapping of guardian_set_index => guardian set\n    mapping(uint32 => GuardianSet)  private guardian_sets;\n    // Current active guardian set\n    uint32 public guardian_set_index;\n\n    // Period for which an vaa is valid in seconds\n    uint32 public vaa_expiry;\n\n    // Mapping of already consumedVAAs\n    mapping(bytes32 => bool) consumedVAAs;\n\n    // Mapping of wrapped asset ERC20 contracts\n    mapping(bytes32 => address) wrappedAssets;\n    mapping(address => bool) isWrappedAsset;\n\n    constructor(GuardianSet memory initial_guardian_set, address wrapped_asset_master) public {\n        guardian_sets[0] = initial_guardian_set;\n        // Explicitly set for doc purposes\n        guardian_set_index = 0;\n\n        wrappedAssetMaster = wrapped_asset_master;\n    }\n\n    function submitVAA(\n        bytes calldata vaa\n    ) public {\n        uint8 version = vaa.toUint8(0);\n        require(version == 1, \"VAA version incompatible\");\n\n        // Load 4 bytes starting from index 1\n        uint32 vaa_guardian_set_index = vaa.toUint32(1);\n\n        uint256 signature = vaa.toUint256(5);\n        address sig_address = vaa.toAddress(37);\n\n        // Load 4 bytes starting from index 77\n        uint32 timestamp = vaa.toUint32(57);\n\n        // Verify that the VAA is still valid\n        // TODO: the clock on Solana can't be trusted\n        require(timestamp + vaa_expiry < block.timestamp, \"VAA has expired\");\n\n        // Hash the body\n        bytes32 hash = keccak256(vaa.slice(57, vaa.length - 57));\n        require(!consumedVAAs[hash], \"VAA was already executed\");\n\n        GuardianSet memory guardian_set = guardian_sets[vaa_guardian_set_index];\n        require(guardian_set.expiration_time == 0 || guardian_set.expiration_time > block.timestamp, \"guardian set has expired\");\n        require(\n            Schnorr.verifySignature(\n                guardian_set.x,\n                guardian_set.parity,\n                signature,\n                uint256(hash),\n                sig_address\n            ),\n            \"VAA signature invalid\");\n\n        uint8 action = vaa.toUint8(61);\n        uint8 payload_len = vaa.toUint8(62);\n        bytes memory payload = vaa.slice(63, payload_len);\n\n        // Process VAA\n        if (action == 0x01) {\n            vaaUpdateGuardianSet(payload);\n        } else if (action == 0x10) {\n            vaaTransfer(payload);\n        } else {\n            revert(\"invalid VAA action\");\n        }\n\n        // Set the VAA as consumed\n        consumedVAAs[hash] = true;\n    }\n\n    function vaaUpdateGuardianSet(bytes memory data) private {\n        uint256 new_key_x = data.toUint256(0);\n        uint256 new_key_y = data.toUint256(32);\n        uint32 new_guardian_set_index = data.toUint32(64);\n\n        require(new_guardian_set_index > guardian_set_index, \"index of new guardian set must be > current\");\n        require(new_key_x < Schnorr.HALF_Q, \"invalid key for fast Schnorr verification\");\n\n        uint32 old_guardian_set_index = guardian_set_index;\n        guardian_set_index = new_guardian_set_index;\n\n        GuardianSet memory new_guardian_set = GuardianSet(new_key_x, uint8(new_key_y % 2), 0);\n        guardian_sets[guardian_set_index] = new_guardian_set;\n        guardian_sets[old_guardian_set_index].expiration_time = uint32(block.timestamp) + vaa_expiry;\n\n        emit LogGuardianSetChanged(guardian_sets[old_guardian_set_index], new_guardian_set);\n    }\n\n    function vaaTransfer(bytes memory data) private {\n        //uint32 nonce = data.toUint64(0);\n        uint8 source_chain = data.toUint8(4);\n\n        uint8 target_chain = data.toUint8(5);\n        //bytes32 source_address = data.toBytes32(6);\n        //bytes32 target_address = data.toBytes32(38);\n        address target_address = data.toAddress(38 + 12);\n\n        uint8 token_chain = data.toUint8(70);\n        //bytes32 token_address = data.toBytes32(71);\n        uint256 amount = data.toUint256(103);\n\n        require(source_chain != target_chain, \"same chain transfers are not supported\");\n        require(target_chain == CHAIN_ID, \"transfer must be incoming\");\n\n        if (token_chain != CHAIN_ID) {\n            bytes32 token_address = data.toBytes32(71);\n            bytes32 asset_id = keccak256(abi.encodePacked(token_chain, token_address));\n\n            // if yes: mint to address\n            // if no: create and mint\n            address wrapped_asset = wrappedAssets[asset_id];\n            if (wrapped_asset == address(0)) {\n                wrapped_asset = deployWrappedAsset(asset_id, token_chain, token_address);\n            }\n\n            WrappedAsset(wrapped_asset).mint(target_address, amount);\n        } else {\n            address token_address = data.toAddress(71 + 12);\n\n            IERC20(token_address).safeTransfer(target_address, amount);\n        }\n        // Safely transfer tokens out\n    }\n\n    function deployWrappedAsset(bytes32 seed, uint8 token_chain, bytes32 token_address) private returns (address asset){\n        // Taken from https://github.com/OpenZeppelin/openzeppelin-sdk/blob/master/packages/lib/contracts/upgradeability/ProxyFactory.sol\n        // Licensed under MIT\n        bytes20 targetBytes = bytes20(wrappedAssetMaster);\n        assembly {\n            let clone := mload(0x40)\n            mstore(clone, 0x3d602d80600a3d3981f3363d3d373d3d3d363d73000000000000000000000000)\n            mstore(add(clone, 0x14), targetBytes)\n            mstore(add(clone, 0x28), 0x5af43d82803e903d91602b57fd5bf30000000000000000000000000000000000)\n            asset := create(0, clone, 0x37)\n        }\n\n        // Call initializer\n        WrappedAsset(asset).initialize(token_chain, token_address);\n\n        // Store address\n        wrappedAssets[seed] = asset;\n        isWrappedAsset[asset] = true;\n    }\n\n    function lockAssets(\n        address asset,\n        uint256 amount,\n        bytes32 recipient,\n        uint8 target_chain\n    ) public {\n        require(amount != 0, \"amount must not be 0\");\n\n        uint8 asset_chain = CHAIN_ID;\n        bytes32 asset_address;\n        if (isWrappedAsset[asset]) {\n            WrappedAsset(asset).burn(msg.sender, amount);\n            asset_chain = WrappedAsset(asset).assetChain();\n            asset_address = WrappedAsset(asset).assetAddress();\n        } else {\n            uint256 balanceBefore = IERC20(asset).balanceOf(address(this));\n            IERC20(asset).safeTransferFrom(msg.sender, address(this), amount);\n            uint256 balanceAfter = IERC20(asset).balanceOf(address(this));\n\n            // The amount that was transferred in is the delta between balance before and after the transfer.\n            // This is to properly handle tokens that charge a fee on transfer.\n            amount = balanceAfter.sub(balanceBefore);\n            asset_address = bytes32(uint256(asset));\n        }\n\n        emit LogTokensLocked(target_chain, asset_chain, asset_address, recipient, bytes32(uint256(msg.sender)), amount);\n    }\n\n    function lockETH(\n        bytes32 recipient,\n        uint8 target_chain\n    ) public payable {\n        require(msg.value != 0, \"amount must not be 0\");\n\n        // Wrap tx value in WETH\n        WETH(WETHAddress).deposit{value : msg.value}();\n\n        // Log deposit of WETH\n        emit LogTokensLocked(target_chain, CHAIN_ID, bytes32(uint256(WETHAddress)), recipient, bytes32(uint256(msg.sender)), msg.value);\n    }\n\n\nfallback() external payable {revert(\"please use lockETH to transfer ETH to Solana\");}\nreceive() external payable {revert(\"please use lockETH to transfer ETH to Solana\");}\n}\n\n\ninterface WETH is IERC20 {\nfunction deposit() external payable;\n\nfunction withdraw(uint256 amount) external;\n}\n",
  "sourcePath": "/home/hhofstadt/Dev/certus/wormhole/ethereum/contracts/Wormhole.sol",
  "compiler": {
    "name": "solc",
    "version": "0.6.12+commit.27d51765.Emscripten.clang"
  },
  "schemaVersion": "3.2.3",
  "updatedAt": "2020-08-06T18:00:08.723Z",
  "devdoc": {
    "kind": "dev",
    "methods": {},
    "version": 1
  },
  "userdoc": {
    "kind": "user",
    "methods": {},
    "version": 1
  }
}