{
  "contractName": "Wormhole",
  "abi": [
    {
      "inputs": [
        {
          "components": [
            {
              "internalType": "uint256",
              "name": "x",
              "type": "uint256"
            },
            {
              "internalType": "uint8",
              "name": "parity",
              "type": "uint8"
            },
            {
              "internalType": "uint32",
              "name": "expiration_time",
              "type": "uint32"
            }
          ],
          "internalType": "struct Wormhole.GuardianSet",
          "name": "initial_guardian_set",
          "type": "tuple"
        },
        {
          "internalType": "address",
          "name": "wrapped_asset_master",
          "type": "address"
        },
        {
          "internalType": "uint32",
          "name": "_vaa_expiry",
          "type": "uint32"
        }
      ],
      "stateMutability": "nonpayable",
      "type": "constructor"
    },
    {
      "anonymous": false,
      "inputs": [
        {
          "components": [
            {
              "internalType": "uint256",
              "name": "x",
              "type": "uint256"
            },
            {
              "internalType": "uint8",
              "name": "parity",
              "type": "uint8"
            },
            {
              "internalType": "uint32",
              "name": "expiration_time",
              "type": "uint32"
            }
          ],
          "indexed": true,
          "internalType": "struct Wormhole.GuardianSet",
          "name": "oldGuardian",
          "type": "tuple"
        },
        {
          "components": [
            {
              "internalType": "uint256",
              "name": "x",
              "type": "uint256"
            },
            {
              "internalType": "uint8",
              "name": "parity",
              "type": "uint8"
            },
            {
              "internalType": "uint32",
              "name": "expiration_time",
              "type": "uint32"
            }
          ],
          "indexed": true,
          "internalType": "struct Wormhole.GuardianSet",
          "name": "newGuardian",
          "type": "tuple"
        }
      ],
      "name": "LogGuardianSetChanged",
      "type": "event"
    },
    {
      "anonymous": false,
      "inputs": [
        {
          "indexed": false,
          "internalType": "uint8",
          "name": "target_chain",
          "type": "uint8"
        },
        {
          "indexed": false,
          "internalType": "uint8",
          "name": "token_chain",
          "type": "uint8"
        },
        {
          "indexed": true,
          "internalType": "bytes32",
          "name": "token",
          "type": "bytes32"
        },
        {
          "indexed": true,
          "internalType": "bytes32",
          "name": "sender",
          "type": "bytes32"
        },
        {
          "indexed": false,
          "internalType": "bytes32",
          "name": "recipient",
          "type": "bytes32"
        },
        {
          "indexed": false,
          "internalType": "uint256",
          "name": "amount",
          "type": "uint256"
        }
      ],
      "name": "LogTokensLocked",
      "type": "event"
    },
    {
      "stateMutability": "payable",
      "type": "fallback"
    },
    {
      "inputs": [],
      "name": "guardian_set_index",
      "outputs": [
        {
          "internalType": "uint32",
          "name": "",
          "type": "uint32"
        }
      ],
      "stateMutability": "view",
      "type": "function"
    },
    {
      "inputs": [
        {
          "internalType": "uint32",
          "name": "",
          "type": "uint32"
        }
      ],
      "name": "guardian_sets",
      "outputs": [
        {
          "internalType": "uint256",
          "name": "x",
          "type": "uint256"
        },
        {
          "internalType": "uint8",
          "name": "parity",
          "type": "uint8"
        },
        {
          "internalType": "uint32",
          "name": "expiration_time",
          "type": "uint32"
        }
      ],
      "stateMutability": "view",
      "type": "function"
    },
    {
      "inputs": [
        {
          "internalType": "address",
          "name": "",
          "type": "address"
        }
      ],
      "name": "isWrappedAsset",
      "outputs": [
        {
          "internalType": "bool",
          "name": "",
          "type": "bool"
        }
      ],
      "stateMutability": "view",
      "type": "function"
    },
    {
      "inputs": [],
      "name": "vaa_expiry",
      "outputs": [
        {
          "internalType": "uint32",
          "name": "",
          "type": "uint32"
        }
      ],
      "stateMutability": "view",
      "type": "function"
    },
    {
      "inputs": [],
      "name": "wrappedAssetMaster",
      "outputs": [
        {
          "internalType": "address",
          "name": "",
          "type": "address"
        }
      ],
      "stateMutability": "view",
      "type": "function"
    },
    {
      "inputs": [
        {
          "internalType": "bytes32",
          "name": "",
          "type": "bytes32"
        }
      ],
      "name": "wrappedAssets",
      "outputs": [
        {
          "internalType": "address",
          "name": "",
          "type": "address"
        }
      ],
      "stateMutability": "view",
      "type": "function"
    },
    {
      "stateMutability": "payable",
      "type": "receive"
    },
    {
      "inputs": [
        {
          "internalType": "bytes",
          "name": "vaa",
          "type": "bytes"
        }
      ],
      "name": "submitVAA",
      "outputs": [],
      "stateMutability": "nonpayable",
      "type": "function"
    },
    {
      "inputs": [
        {
          "internalType": "address",
          "name": "asset",
          "type": "address"
        },
        {
          "internalType": "uint256",
          "name": "amount",
          "type": "uint256"
        },
        {
          "internalType": "bytes32",
          "name": "recipient",
          "type": "bytes32"
        },
        {
          "internalType": "uint8",
          "name": "target_chain",
          "type": "uint8"
        }
      ],
      "name": "lockAssets",
      "outputs": [],
      "stateMutability": "nonpayable",
      "type": "function"
    },
    {
      "inputs": [
        {
          "internalType": "bytes32",
          "name": "recipient",
          "type": "bytes32"
        },
        {
          "internalType": "uint8",
          "name": "target_chain",
          "type": "uint8"
        }
      ],
      "name": "lockETH",
      "outputs": [],
      "stateMutability": "payable",
      "type": "function"
    }
  ],
  "bytecode": "0x60806040526002600060146101000a81548160ff021916908360ff1602179055503480156200002d57600080fd5b506040516200334a3803806200334a833981810160405281019062000053919062000213565b82600160008063ffffffff1681526020019081526020016000206000820151816000015560208201518160010160006101000a81548160ff021916908360ff16021790555060408201518160010160016101000a81548163ffffffff021916908363ffffffff1602179055509050506000600260006101000a81548163ffffffff021916908363ffffffff16021790555080600260046101000a81548163ffffffff021916908363ffffffff160217905550816000806101000a81548173ffffffffffffffffffffffffffffffffffffffff021916908373ffffffffffffffffffffffffffffffffffffffff1602179055505050506200035a565b6000815190506200015f81620002f2565b92915050565b6000606082840312156200017857600080fd5b62000184606062000269565b905060006200019684828501620001ce565b6000830152506020620001ac84828501620001fc565b6020830152506040620001c284828501620001e5565b60408301525092915050565b600081519050620001df816200030c565b92915050565b600081519050620001f68162000326565b92915050565b6000815190506200020d8162000340565b92915050565b600080600060a084860312156200022957600080fd5b6000620002398682870162000165565b93505060606200024c868287016200014e565b92505060806200025f86828701620001e5565b9150509250925092565b6000604051905081810181811067ffffffffffffffff821117156200028d57600080fd5b8060405250919050565b6000620002a482620002ab565b9050919050565b600073ffffffffffffffffffffffffffffffffffffffff82169050919050565b6000819050919050565b600063ffffffff82169050919050565b600060ff82169050919050565b620002fd8162000297565b81146200030957600080fd5b50565b6200031781620002cb565b81146200032357600080fd5b50565b6200033181620002d5565b81146200033d57600080fd5b50565b6200034b81620002e5565b81146200035757600080fd5b50565b612fe0806200036a6000396000f3fe60806040526004361061008a5760003560e01c80637f04d9e6116100595780637f04d9e6146101c6578063822d82b3146101f157806399da1d3c1461021c578063b6694c2a14610247578063e66fd37314610284576100ca565b80631a2be4da146101055780633bc0aee61461014257806342b0aefa1461016b578063780e2183146101aa576100ca565b366100ca576040517f08c379a00000000000000000000000000000000000000000000000000000000081526004016100c190612a5a565b60405180910390fd5b6040517f08c379a00000000000000000000000000000000000000000000000000000000081526004016100fc90612a5a565b60405180910390fd5b34801561011157600080fd5b5061012c60048036038101906101279190611f41565b6102ad565b60405161013991906129dd565b60405180910390f35b34801561014e57600080fd5b5061016960048036038101906101649190612084565b6102cd565b005b34801561017757600080fd5b50610192600480360381019061018d91906120f2565b6109e4565b6040516101a193929190612c8d565b60405180910390f35b6101c460048036038101906101bf9190612048565b610a2b565b005b3480156101d257600080fd5b506101db610b7c565b6040516101e89190612cc4565b60405180910390f35b3480156101fd57600080fd5b50610206610b92565b6040516102139190612cc4565b60405180910390f35b34801561022857600080fd5b50610231610ba8565b60405161023e919061291e565b60405180910390f35b34801561025357600080fd5b5061026e60048036038101906102699190611ff6565b610bcc565b60405161027b919061291e565b60405180910390f35b34801561029057600080fd5b506102ab60048036038101906102a69190611f6a565b610bff565b005b60056020528060005260406000206000915054906101000a900460ff1681565b6000610327600084848080601f016020809104026020016040519081016040528093929190818152602001838380828437600081840152601f19601f82011690508083019250505050505050610ff790919063ffffffff16565b905060018160ff161461036f576040517f08c379a000000000000000000000000000000000000000000000000000000000815260040161036690612ada565b60405180910390fd5b60006103c9600185858080601f016020809104026020016040519081016040528093929190818152602001838380828437600081840152601f19601f8201169050808301925050505050505061105590919063ffffffff16565b90506000610425600586868080601f016020809104026020016040519081016040528093929190818152602001838380828437600081840152601f19601f820116905080830192505050505050506110b390919063ffffffff16565b90506000610481602587878080601f016020809104026020016040519081016040528093929190818152602001838380828437600081840152601f19601f8201169050808301925050505050505061111190919063ffffffff16565b905060006104dd603988888080601f016020809104026020016040519081016040528093929190818152602001838380828437600081840152601f19601f8201169050808301925050505050505061105590919063ffffffff16565b905042600260049054906101000a900463ffffffff16820163ffffffff161161053b576040517f08c379a000000000000000000000000000000000000000000000000000000000815260040161053290612afa565b60405180910390fd5b600061059c6039808a8a9050038a8a8080601f016020809104026020016040519081016040528093929190818152602001838380828437600081840152601f19601f8201169050808301925050505050505061117e9092919063ffffffff16565b8051906020012090506003600082815260200190815260200160002060009054906101000a900460ff1615610606576040517f08c379a00000000000000000000000000000000000000000000000000000000081526004016105fd90612a3a565b60405180910390fd5b61060e611e10565b600160008763ffffffff1663ffffffff168152602001908152602001600020604051806060016040529081600082015481526020016001820160009054906101000a900460ff1660ff1660ff1681526020016001820160019054906101000a900463ffffffff1663ffffffff1663ffffffff168152505090506000816040015163ffffffff1614806106a9575042816040015163ffffffff16115b6106e8576040517f08c379a00000000000000000000000000000000000000000000000000000000081526004016106df90612bba565b60405180910390fd5b73__Schnorr_______________________________63ff51dff282600001518360200151888660001c896040518663ffffffff1660e01b8152600401610732959493929190612c3a565b60206040518083038186803b15801561074a57600080fd5b505af415801561075e573d6000803e3d6000fd5b505050506040513d601f19601f820116820180604052508101906107829190611fcd565b6107c1576040517f08c379a00000000000000000000000000000000000000000000000000000000081526004016107b890612b1a565b60405180910390fd5b600061081b603d8b8b8080601f016020809104026020016040519081016040528093929190818152602001838380828437600081840152601f19601f82011690508083019250505050505050610ff790919063ffffffff16565b90506000610877603e8c8c8080601f016020809104026020016040519081016040528093929190818152602001838380828437600081840152601f19601f82011690508083019250505050505050610ff790919063ffffffff16565b905060606108d8603f8360ff168e8e8080601f016020809104026020016040519081016040528093929190818152602001838380828437600081840152601f19601f8201169050808301925050505050505061117e9092919063ffffffff16565b905060018360ff16141561095457600260009054906101000a900463ffffffff1663ffffffff168963ffffffff1614610946576040517f08c379a000000000000000000000000000000000000000000000000000000000815260040161093d90612a9a565b60405180910390fd5b61094f81611240565b6109aa565b60108360ff16141561096e5761096981611558565b6109a9565b6040517f08c379a00000000000000000000000000000000000000000000000000000000081526004016109a090612a1a565b60405180910390fd5b5b60016003600087815260200190815260200160002060006101000a81548160ff021916908315150217905550505050505050505050505050565b60016020528060005260406000206000915090508060000154908060010160009054906101000a900460ff16908060010160019054906101000a900463ffffffff16905083565b6000341415610a6f576040517f08c379a0000000000000000000000000000000000000000000000000000000008152600401610a6690612b7a565b60405180910390fd5b73c02aaa39b223fe8d0a0e5c4f27ead9083c756cc273ffffffffffffffffffffffffffffffffffffffff1663d0e30db0346040518263ffffffff1660e01b81526004016000604051808303818588803b158015610acb57600080fd5b505af1158015610adf573d6000803e3d6000fd5b50505050503373ffffffffffffffffffffffffffffffffffffffff1660001b73c02aaa39b223fe8d0a0e5c4f27ead9083c756cc273ffffffffffffffffffffffffffffffffffffffff1660001b7f84b445260a99044cc9529b3033663c078031a14e31f3c255ff02c62667bab14b83600060149054906101000a900460ff168634604051610b709493929190612d08565b60405180910390a35050565b600260049054906101000a900463ffffffff1681565b600260009054906101000a900463ffffffff1681565b60008054906101000a900473ffffffffffffffffffffffffffffffffffffffff1681565b60046020528060005260406000206000915054906101000a900473ffffffffffffffffffffffffffffffffffffffff1681565b6000831415610c43576040517f08c379a0000000000000000000000000000000000000000000000000000000008152600401610c3a90612b7a565b60405180910390fd5b60008060149054906101000a900460ff1690506000600560008773ffffffffffffffffffffffffffffffffffffffff1673ffffffffffffffffffffffffffffffffffffffff16815260200190815260200160002060009054906101000a900460ff1615610e1c578573ffffffffffffffffffffffffffffffffffffffff16639dc29fac33876040518363ffffffff1660e01b8152600401610ce5929190612954565b600060405180830381600087803b158015610cff57600080fd5b505af1158015610d13573d6000803e3d6000fd5b505050508573ffffffffffffffffffffffffffffffffffffffff1663026b05396040518163ffffffff1660e01b815260040160206040518083038186803b158015610d5d57600080fd5b505afa158015610d71573d6000803e3d6000fd5b505050506040513d601f19601f82011682018060405250810190610d95919061211b565b91508573ffffffffffffffffffffffffffffffffffffffff16631ba46cfd6040518163ffffffff1660e01b815260040160206040518083038186803b158015610ddd57600080fd5b505afa158015610df1573d6000803e3d6000fd5b505050506040513d601f19601f82011682018060405250810190610e15919061201f565b9050610f97565b60008673ffffffffffffffffffffffffffffffffffffffff166370a08231306040518263ffffffff1660e01b8152600401610e579190612939565b60206040518083038186803b158015610e6f57600080fd5b505afa158015610e83573d6000803e3d6000fd5b505050506040513d601f19601f82011682018060405250810190610ea791906120c9565b9050610ed63330888a73ffffffffffffffffffffffffffffffffffffffff1661180e909392919063ffffffff16565b60008773ffffffffffffffffffffffffffffffffffffffff166370a08231306040518263ffffffff1660e01b8152600401610f119190612939565b60206040518083038186803b158015610f2957600080fd5b505afa158015610f3d573d6000803e3d6000fd5b505050506040513d601f19601f82011682018060405250810190610f6191906120c9565b9050610f76828261189790919063ffffffff16565b96508773ffffffffffffffffffffffffffffffffffffffff1660001b925050505b3373ffffffffffffffffffffffffffffffffffffffff1660001b817f84b445260a99044cc9529b3033663c078031a14e31f3c255ff02c62667bab14b8585888a604051610fe79493929190612d08565b60405180910390a3505050505050565b60006001820183511015611040576040517f08c379a000000000000000000000000000000000000000000000000000000000815260040161103790612aba565b60405180910390fd5b60008260018501015190508091505092915050565b6000600482018351101561109e576040517f08c379a000000000000000000000000000000000000000000000000000000000815260040161109590612aba565b60405180910390fd5b60008260048501015190508091505092915050565b600060208201835110156110fc576040517f08c379a00000000000000000000000000000000000000000000000000000000081526004016110f390612aba565b60405180910390fd5b60008260208501015190508091505092915050565b6000601482018351101561115a576040517f08c379a000000000000000000000000000000000000000000000000000000000815260040161115190612aba565b60405180910390fd5b60006c01000000000000000000000000836020860101510490508091505092915050565b6060818301845110156111c6576040517f08c379a00000000000000000000000000000000000000000000000000000000081526004016111bd90612aba565b60405180910390fd5b60608215600081146111e357604051915060208201604052611234565b6040519150601f8416801560200281840101858101878315602002848b0101015b818310156112215780518352602083019250602081019050611204565b50868552601f19601f8301166040525050505b50809150509392505050565b60006112566000836110b390919063ffffffff16565b9050600061126e602084610ff790919063ffffffff16565b60ff169050600061128960218561105590919063ffffffff16565b9050600260009054906101000a900463ffffffff1663ffffffff168163ffffffff16116112eb576040517f08c379a00000000000000000000000000000000000000000000000000000000081526004016112e290612b3a565b60405180910390fd5b6001807ffffffffffffffffffffffffffffffffebaaedce6af48a03bbfd25e8cd0364141901c018310611353576040517f08c379a000000000000000000000000000000000000000000000000000000000815260040161134a90612b5a565b60405180910390fd5b6001821115611397576040517f08c379a000000000000000000000000000000000000000000000000000000000815260040161138e90612a7a565b60405180910390fd5b6000600260009054906101000a900463ffffffff16905081600260006101000a81548163ffffffff021916908363ffffffff1602179055506113d7611e10565b60405180606001604052808681526020018560ff168152602001600063ffffffff1681525090508060016000600260009054906101000a900463ffffffff1663ffffffff1663ffffffff1681526020019081526020016000206000820151816000015560208201518160010160006101000a81548160ff021916908360ff16021790555060408201518160010160016101000a81548163ffffffff021916908363ffffffff160217905550905050600260049054906101000a900463ffffffff164201600160008463ffffffff1663ffffffff16815260200190815260200160002060010160016101000a81548163ffffffff021916908363ffffffff160217905550806040516114e891906128bc565b6040518091039020600160008463ffffffff1663ffffffff16815260200190815260200160002060405161151c91906128d7565b60405180910390207f776a7721d091beb15fb219d7be3c92b83fa7c10428af15a7312461bc3bc52e0b60405160405180910390a3505050505050565b600061156e600483610ff790919063ffffffff16565b90506000611586600584610ff790919063ffffffff16565b9050600061159e60328561111190919063ffffffff16565b905060006115b6604686610ff790919063ffffffff16565b905060006115ce6067876110b390919063ffffffff16565b90508360ff168560ff161415611619576040517f08c379a000000000000000000000000000000000000000000000000000000000815260040161161090612c1a565b60405180910390fd5b600060149054906101000a900460ff1660ff168460ff1614611670576040517f08c379a000000000000000000000000000000000000000000000000000000000815260040161166790612b9a565b60405180910390fd5b600060149054906101000a900460ff1660ff168260ff16146117c15760006116a26047886118e190919063ffffffff16565b9050600083826040516020016116b99291906128f2565b60405160208183030381529060405280519060200120905060006004600083815260200190815260200160002060009054906101000a900473ffffffffffffffffffffffffffffffffffffffff169050600073ffffffffffffffffffffffffffffffffffffffff168173ffffffffffffffffffffffffffffffffffffffff16141561174c5761174982868561193f565b90505b8073ffffffffffffffffffffffffffffffffffffffff166340c10f1987866040518363ffffffff1660e01b81526004016117879291906129b4565b600060405180830381600087803b1580156117a157600080fd5b505af11580156117b5573d6000803e3d6000fd5b50505050505050611806565b60006117d760538861111190919063ffffffff16565b905061180484838373ffffffffffffffffffffffffffffffffffffffff16611ae29092919063ffffffff16565b505b505050505050565b611891846323b872dd60e01b85858560405160240161182f9392919061297d565b604051602081830303815290604052907bffffffffffffffffffffffffffffffffffffffffffffffffffffffff19166020820180517bffffffffffffffffffffffffffffffffffffffffffffffffffffffff8381831617835250505050611b68565b50505050565b60006118d983836040518060400160405280601e81526020017f536166654d6174683a207375627472616374696f6e206f766572666c6f770000815250611c2f565b905092915050565b6000602082018351101561192a576040517f08c379a000000000000000000000000000000000000000000000000000000000815260040161192190612aba565b60405180910390fd5b60008260208501015190508091505092915050565b60008060008054906101000a900473ffffffffffffffffffffffffffffffffffffffff1660601b90506040517f3d602d80600a3d3981f3363d3d373d3d3d363d7300000000000000000000000081528160148201527f5af43d82803e903d91602b57fd5bf3000000000000000000000000000000000060288201526037816000f09250508173ffffffffffffffffffffffffffffffffffffffff166302a0958585856040518363ffffffff1660e01b81526004016119fe929190612cdf565b600060405180830381600087803b158015611a1857600080fd5b505af1158015611a2c573d6000803e3d6000fd5b50505050816004600087815260200190815260200160002060006101000a81548173ffffffffffffffffffffffffffffffffffffffff021916908373ffffffffffffffffffffffffffffffffffffffff1602179055506001600560008473ffffffffffffffffffffffffffffffffffffffff1673ffffffffffffffffffffffffffffffffffffffff16815260200190815260200160002060006101000a81548160ff021916908315150217905550509392505050565b611b638363a9059cbb60e01b8484604051602401611b019291906129b4565b604051602081830303815290604052907bffffffffffffffffffffffffffffffffffffffffffffffffffffffff19166020820180517bffffffffffffffffffffffffffffffffffffffffffffffffffffffff8381831617835250505050611b68565b505050565b6060611bca826040518060400160405280602081526020017f5361666545524332303a206c6f772d6c6576656c2063616c6c206661696c65648152508573ffffffffffffffffffffffffffffffffffffffff16611c8a9092919063ffffffff16565b9050600081511115611c2a5780806020019051810190611bea9190611fcd565b611c29576040517f08c379a0000000000000000000000000000000000000000000000000000000008152600401611c2090612bfa565b60405180910390fd5b5b505050565b6000838311158290611c77576040517f08c379a0000000000000000000000000000000000000000000000000000000008152600401611c6e91906129f8565b60405180910390fd5b5060008385039050809150509392505050565b6060611c998484600085611ca2565b90509392505050565b6060611cad85611dc5565b611cec576040517f08c379a0000000000000000000000000000000000000000000000000000000008152600401611ce390612bda565b60405180910390fd5b600060608673ffffffffffffffffffffffffffffffffffffffff168587604051611d1691906128a5565b60006040518083038185875af1925050503d8060008114611d53576040519150601f19603f3d011682016040523d82523d6000602084013e611d58565b606091505b50915091508115611d6d578092505050611dbd565b600081511115611d805780518082602001fd5b836040517f08c379a0000000000000000000000000000000000000000000000000000000008152600401611db491906129f8565b60405180910390fd5b949350505050565b60008060007fc5d2460186f7233c927e7db2dcc703c0e500b653ca82273b7bfad8045d85a47060001b9050833f9150808214158015611e0757506000801b8214155b92505050919050565b604051806060016040528060008152602001600060ff168152602001600063ffffffff1681525090565b600081359050611e4981612f20565b92915050565b600081519050611e5e81612f37565b92915050565b600081359050611e7381612f4e565b92915050565b600081519050611e8881612f4e565b92915050565b60008083601f840112611ea057600080fd5b8235905067ffffffffffffffff811115611eb957600080fd5b602083019150836001820283011115611ed157600080fd5b9250929050565b600081359050611ee781612f65565b92915050565b600081519050611efc81612f65565b92915050565b600081359050611f1181612f7c565b92915050565b600081359050611f2681612f93565b92915050565b600081519050611f3b81612f93565b92915050565b600060208284031215611f5357600080fd5b6000611f6184828501611e3a565b91505092915050565b60008060008060808587031215611f8057600080fd5b6000611f8e87828801611e3a565b9450506020611f9f87828801611ed8565b9350506040611fb087828801611e64565b9250506060611fc187828801611f17565b91505092959194509250565b600060208284031215611fdf57600080fd5b6000611fed84828501611e4f565b91505092915050565b60006020828403121561200857600080fd5b600061201684828501611e64565b91505092915050565b60006020828403121561203157600080fd5b600061203f84828501611e79565b91505092915050565b6000806040838503121561205b57600080fd5b600061206985828601611e64565b925050602061207a85828601611f17565b9150509250929050565b6000806020838503121561209757600080fd5b600083013567ffffffffffffffff8111156120b157600080fd5b6120bd85828601611e8e565b92509250509250929050565b6000602082840312156120db57600080fd5b60006120e984828501611eed565b91505092915050565b60006020828403121561210457600080fd5b600061211284828501611f02565b91505092915050565b60006020828403121561212d57600080fd5b600061213b84828501611f2c565b91505092915050565b60006121508383612834565b60208301905092915050565b60006121688383612852565b60208301905092915050565b6000612180838361287f565b60208301905092915050565b61219581612e15565b82525050565b6121a481612da6565b82525050565b6121b381612da6565b82525050565b6121c281612db8565b82525050565b6121d181612dc4565b82525050565b6121e86121e382612dc4565b612ecc565b82525050565b60006121f982612d4d565b6122038185612d63565b9350612213818560208601612e4b565b80840191505092915050565b600061222a82612d58565b6122348185612d6e565b9350612244818560208601612e4b565b61224d81612ee8565b840191505092915050565b6000612265601283612d6e565b91507f696e76616c69642056414120616374696f6e00000000000000000000000000006000830152602082019050919050565b60006122a5601883612d6e565b91507f5641412077617320616c726561647920657865637574656400000000000000006000830152602082019050919050565b60006122e5602c83612d6e565b91507f706c6561736520757365206c6f636b45544820746f207472616e73666572204560008301527f544820746f20536f6c616e6100000000000000000000000000000000000000006020830152604082019050919050565b600061234b601083612d6e565b91507f696e76616c6964207920706172697479000000000000000000000000000000006000830152602082019050919050565b600061238b603983612d6e565b91507f6f6e6c79207468652063757272656e7420677561726469616e2073657420636160008301527f6e206368616e67652074686520677561726469616e20736574000000000000006020830152604082019050919050565b60006123f1601283612d6e565b91507f52656164206f7574206f6620626f756e647300000000000000000000000000006000830152602082019050919050565b6000612431601883612d6e565b91507f5641412076657273696f6e20696e636f6d70617469626c6500000000000000006000830152602082019050919050565b6000612471600f83612d6e565b91507f56414120686173206578706972656400000000000000000000000000000000006000830152602082019050919050565b60006124b1601583612d6e565b91507f564141207369676e617475726520696e76616c696400000000000000000000006000830152602082019050919050565b60006124f1602b83612d6e565b91507f696e646578206f66206e657720677561726469616e20736574206d757374206260008301527f65203e2063757272656e740000000000000000000000000000000000000000006020830152604082019050919050565b6000612557602983612d6e565b91507f696e76616c6964206b657920666f722066617374205363686e6f72722076657260008301527f696669636174696f6e00000000000000000000000000000000000000000000006020830152604082019050919050565b60006125bd601483612d6e565b91507f616d6f756e74206d757374206e6f7420626520300000000000000000000000006000830152602082019050919050565b60006125fd601983612d6e565b91507f7472616e73666572206d75737420626520696e636f6d696e67000000000000006000830152602082019050919050565b600061263d601883612d6e565b91507f677561726469616e2073657420686173206578706972656400000000000000006000830152602082019050919050565b600061267d601d83612d6e565b91507f416464726573733a2063616c6c20746f206e6f6e2d636f6e74726163740000006000830152602082019050919050565b60006126bd602a83612d6e565b91507f5361666545524332303a204552433230206f7065726174696f6e20646964206e60008301527f6f742073756363656564000000000000000000000000000000000000000000006020830152604082019050919050565b6000612723602683612d6e565b91507f73616d6520636861696e207472616e736665727320617265206e6f742073757060008301527f706f7274656400000000000000000000000000000000000000000000000000006020830152604082019050919050565b60008201600082015161278f8482612144565b93505060208201516127a18482612174565b93505060408201516127b3848261215c565b935050505050565b6000820160008083015490506127d081612e7e565b6127da8582612144565b945050600183015490506127ed81612e98565b6127f78582612174565b94505061280381612eb2565b61280d858261215c565b94505050505050565b61281f81612dee565b82525050565b61282e81612dee565b82525050565b61283d81612dee565b82525050565b61284c81612df8565b82525050565b61285b81612df8565b82525050565b61286a81612e08565b82525050565b61287981612e08565b82525050565b61288881612e08565b82525050565b61289f61289a82612e08565b612ed6565b82525050565b60006128b182846121ee565b915081905092915050565b60006128c8828461277c565b60608201915081905092915050565b60006128e382846127bb565b60608201915081905092915050565b60006128fe828561288e565b60018201915061290e82846121d7565b6020820191508190509392505050565b6000602082019050612933600083018461219b565b92915050565b600060208201905061294e600083018461218c565b92915050565b6000604082019050612969600083018561218c565b6129766020830184612816565b9392505050565b6000606082019050612992600083018661219b565b61299f602083018561219b565b6129ac6040830184612816565b949350505050565b60006040820190506129c9600083018561219b565b6129d66020830184612816565b9392505050565b60006020820190506129f260008301846121b9565b92915050565b60006020820190508181036000830152612a12818461221f565b905092915050565b60006020820190508181036000830152612a3381612258565b9050919050565b60006020820190508181036000830152612a5381612298565b9050919050565b60006020820190508181036000830152612a73816122d8565b9050919050565b60006020820190508181036000830152612a938161233e565b9050919050565b60006020820190508181036000830152612ab38161237e565b9050919050565b60006020820190508181036000830152612ad3816123e4565b9050919050565b60006020820190508181036000830152612af381612424565b9050919050565b60006020820190508181036000830152612b1381612464565b9050919050565b60006020820190508181036000830152612b33816124a4565b9050919050565b60006020820190508181036000830152612b53816124e4565b9050919050565b60006020820190508181036000830152612b738161254a565b9050919050565b60006020820190508181036000830152612b93816125b0565b9050919050565b60006020820190508181036000830152612bb3816125f0565b9050919050565b60006020820190508181036000830152612bd381612630565b9050919050565b60006020820190508181036000830152612bf381612670565b9050919050565b60006020820190508181036000830152612c13816126b0565b9050919050565b60006020820190508181036000830152612c3381612716565b9050919050565b600060a082019050612c4f6000830188612825565b612c5c6020830187612870565b612c696040830186612825565b612c766060830185612825565b612c8360808301846121aa565b9695505050505050565b6000606082019050612ca26000830186612816565b612caf6020830185612861565b612cbc6040830184612843565b949350505050565b6000602082019050612cd96000830184612843565b92915050565b6000604082019050612cf46000830185612861565b612d0160208301846121c8565b9392505050565b6000608082019050612d1d6000830187612861565b612d2a6020830186612861565b612d3760408301856121c8565b612d446060830184612816565b95945050505050565b600081519050919050565b600081519050919050565b600081905092915050565b600082825260208201905092915050565b6000819050919050565b600063ffffffff82169050919050565b600060ff82169050919050565b6000612db182612dce565b9050919050565b60008115159050919050565b6000819050919050565b600073ffffffffffffffffffffffffffffffffffffffff82169050919050565b6000819050919050565b600063ffffffff82169050919050565b600060ff82169050919050565b6000612e2082612e27565b9050919050565b6000612e3282612e39565b9050919050565b6000612e4482612dce565b9050919050565b60005b83811015612e69578082015181840152602081019050612e4e565b83811115612e78576000848401525b50505050565b6000612e91612e8c83612f06565b612d7f565b9050919050565b6000612eab612ea683612f06565b612d99565b9050919050565b6000612ec5612ec083612f13565b612d89565b9050919050565b6000819050919050565b6000612ee182612ef9565b9050919050565b6000601f19601f8301169050919050565b60008160f81b9050919050565b60008160001c9050919050565b60008160081c9050919050565b612f2981612da6565b8114612f3457600080fd5b50565b612f4081612db8565b8114612f4b57600080fd5b50565b612f5781612dc4565b8114612f6257600080fd5b50565b612f6e81612dee565b8114612f7957600080fd5b50565b612f8581612df8565b8114612f9057600080fd5b50565b612f9c81612e08565b8114612fa757600080fd5b5056fea264697066735822122047d9c8466a232ae962552bd67dd62980ed6d384b15b4bbc45385e966dcc4ef8d64736f6c634300060c0033",
  "immutableReferences": {},
  "source": "// contracts/Wormhole.sol\n// SPDX-License-Identifier: Apache 2\n\npragma solidity ^0.6.0;\npragma experimental ABIEncoderV2;\n\nimport \"@openzeppelin/contracts/token/ERC20/IERC20.sol\";\nimport \"@openzeppelin/contracts/token/ERC20/SafeERC20.sol\";\nimport \"@openzeppelin/contracts/math/SafeMath.sol\";\nimport \"./BytesLib.sol\";\nimport \"./SchnorrSECP256K1.sol\";\nimport \"./WrappedAsset.sol\";\n\ncontract Wormhole {\n    using SafeERC20 for IERC20;\n    using BytesLib for bytes;\n    using SafeMath for uint256;\n\n    // Address of the Wrapped asset template\n    address public wrappedAssetMaster;\n\n    // Chain ID of Ethereum\n    uint8 CHAIN_ID = 2;\n\n    // Address of the official WETH contract\n    address constant WETHAddress = 0xC02aaA39b223FE8D0A0e5C4F27eAD9083C756Cc2;\n\n    struct GuardianSet {\n        uint256 x;\n        uint8 parity;\n        uint32 expiration_time;\n    }\n\n    event LogGuardianSetChanged(\n        GuardianSet indexed oldGuardian,\n        GuardianSet indexed newGuardian\n    );\n\n    event LogTokensLocked(\n        uint8 target_chain,\n        uint8 token_chain,\n        bytes32 indexed token,\n        bytes32 indexed sender,\n        bytes32 recipient,\n        uint256 amount\n    );\n\n    // Mapping of guardian_set_index => guardian set\n    mapping(uint32 => GuardianSet) public guardian_sets;\n    // Current active guardian set\n    uint32 public guardian_set_index;\n\n    // Period for which an vaa is valid in seconds\n    uint32 public vaa_expiry;\n\n    // Mapping of already consumedVAAs\n    mapping(bytes32 => bool) consumedVAAs;\n\n    // Mapping of wrapped asset ERC20 contracts\n    mapping(bytes32 => address) public wrappedAssets;\n    mapping(address => bool) public isWrappedAsset;\n\n    constructor(GuardianSet memory initial_guardian_set, address wrapped_asset_master, uint32 _vaa_expiry) public {\n        guardian_sets[0] = initial_guardian_set;\n        // Explicitly set for doc purposes\n        guardian_set_index = 0;\n        vaa_expiry = _vaa_expiry;\n\n        wrappedAssetMaster = wrapped_asset_master;\n    }\n\n    function submitVAA(\n        bytes calldata vaa\n    ) public {\n        uint8 version = vaa.toUint8(0);\n        require(version == 1, \"VAA version incompatible\");\n\n        // Load 4 bytes starting from index 1\n        uint32 vaa_guardian_set_index = vaa.toUint32(1);\n\n        uint256 signature = vaa.toUint256(5);\n        address sig_address = vaa.toAddress(37);\n\n        // Load 4 bytes starting from index 77\n        uint32 timestamp = vaa.toUint32(57);\n\n        // Verify that the VAA is still valid\n        require(timestamp + vaa_expiry > block.timestamp, \"VAA has expired\");\n\n        // Hash the body\n        bytes32 hash = keccak256(vaa.slice(57, vaa.length - 57));\n        require(!consumedVAAs[hash], \"VAA was already executed\");\n\n        GuardianSet memory guardian_set = guardian_sets[vaa_guardian_set_index];\n        require(guardian_set.expiration_time == 0 || guardian_set.expiration_time > block.timestamp, \"guardian set has expired\");\n        require(\n            Schnorr.verifySignature(\n                guardian_set.x,\n                guardian_set.parity,\n                signature,\n                uint256(hash),\n                sig_address\n            ),\n            \"VAA signature invalid\");\n\n        uint8 action = vaa.toUint8(61);\n        uint8 payload_len = vaa.toUint8(62);\n        bytes memory payload = vaa.slice(63, payload_len);\n\n        // Process VAA\n        if (action == 0x01) {\n            require(vaa_guardian_set_index == guardian_set_index, \"only the current guardian set can change the guardian set\");\n            vaaUpdateGuardianSet(payload);\n        } else if (action == 0x10) {\n            vaaTransfer(payload);\n        } else {\n            revert(\"invalid VAA action\");\n        }\n\n        // Set the VAA as consumed\n        consumedVAAs[hash] = true;\n    }\n\n    function vaaUpdateGuardianSet(bytes memory data) private {\n        uint256 new_key_x = data.toUint256(0);\n        uint256 y_parity = data.toUint8(32);\n        uint32 new_guardian_set_index = data.toUint32(33);\n\n        require(new_guardian_set_index > guardian_set_index, \"index of new guardian set must be > current\");\n        require(new_key_x < Schnorr.HALF_Q, \"invalid key for fast Schnorr verification\");\n        require(y_parity <= 1, \"invalid y parity\");\n\n        uint32 old_guardian_set_index = guardian_set_index;\n        guardian_set_index = new_guardian_set_index;\n\n        GuardianSet memory new_guardian_set = GuardianSet(new_key_x, uint8(y_parity), 0);\n        guardian_sets[guardian_set_index] = new_guardian_set;\n        guardian_sets[old_guardian_set_index].expiration_time = uint32(block.timestamp) + vaa_expiry;\n\n        emit LogGuardianSetChanged(guardian_sets[old_guardian_set_index], new_guardian_set);\n    }\n\n    function vaaTransfer(bytes memory data) private {\n        //uint32 nonce = data.toUint64(0);\n        uint8 source_chain = data.toUint8(4);\n\n        uint8 target_chain = data.toUint8(5);\n        //bytes32 source_address = data.toBytes32(6);\n        //bytes32 target_address = data.toBytes32(38);\n        address target_address = data.toAddress(38 + 12);\n\n        uint8 token_chain = data.toUint8(70);\n        //bytes32 token_address = data.toBytes32(71);\n        uint256 amount = data.toUint256(103);\n\n        require(source_chain != target_chain, \"same chain transfers are not supported\");\n        require(target_chain == CHAIN_ID, \"transfer must be incoming\");\n\n        if (token_chain != CHAIN_ID) {\n            bytes32 token_address = data.toBytes32(71);\n            bytes32 asset_id = keccak256(abi.encodePacked(token_chain, token_address));\n\n            // if yes: mint to address\n            // if no: create and mint\n            address wrapped_asset = wrappedAssets[asset_id];\n            if (wrapped_asset == address(0)) {\n                wrapped_asset = deployWrappedAsset(asset_id, token_chain, token_address);\n            }\n\n            WrappedAsset(wrapped_asset).mint(target_address, amount);\n        } else {\n            address token_address = data.toAddress(71 + 12);\n\n            IERC20(token_address).safeTransfer(target_address, amount);\n        }\n    }\n\n    function deployWrappedAsset(bytes32 seed, uint8 token_chain, bytes32 token_address) private returns (address asset){\n        // Taken from https://github.com/OpenZeppelin/openzeppelin-sdk/blob/master/packages/lib/contracts/upgradeability/ProxyFactory.sol\n        // Licensed under MIT\n        bytes20 targetBytes = bytes20(wrappedAssetMaster);\n        assembly {\n            let clone := mload(0x40)\n            mstore(clone, 0x3d602d80600a3d3981f3363d3d373d3d3d363d73000000000000000000000000)\n            mstore(add(clone, 0x14), targetBytes)\n            mstore(add(clone, 0x28), 0x5af43d82803e903d91602b57fd5bf30000000000000000000000000000000000)\n            asset := create(0, clone, 0x37)\n        }\n\n        // Call initializer\n        WrappedAsset(asset).initialize(token_chain, token_address);\n\n        // Store address\n        wrappedAssets[seed] = asset;\n        isWrappedAsset[asset] = true;\n    }\n\n    function lockAssets(\n        address asset,\n        uint256 amount,\n        bytes32 recipient,\n        uint8 target_chain\n    ) public {\n        require(amount != 0, \"amount must not be 0\");\n\n        uint8 asset_chain = CHAIN_ID;\n        bytes32 asset_address;\n        if (isWrappedAsset[asset]) {\n            WrappedAsset(asset).burn(msg.sender, amount);\n            asset_chain = WrappedAsset(asset).assetChain();\n            asset_address = WrappedAsset(asset).assetAddress();\n        } else {\n            uint256 balanceBefore = IERC20(asset).balanceOf(address(this));\n            IERC20(asset).safeTransferFrom(msg.sender, address(this), amount);\n            uint256 balanceAfter = IERC20(asset).balanceOf(address(this));\n\n            // The amount that was transferred in is the delta between balance before and after the transfer.\n            // This is to properly handle tokens that charge a fee on transfer.\n            amount = balanceAfter.sub(balanceBefore);\n            asset_address = bytes32(uint256(asset));\n        }\n\n        emit LogTokensLocked(target_chain, asset_chain, asset_address, bytes32(uint256(msg.sender)), recipient, amount);\n    }\n\n    function lockETH(\n        bytes32 recipient,\n        uint8 target_chain\n    ) public payable {\n        require(msg.value != 0, \"amount must not be 0\");\n\n        // Wrap tx value in WETH\n        WETH(WETHAddress).deposit{value : msg.value}();\n\n        // Log deposit of WETH\n        emit LogTokensLocked(target_chain, CHAIN_ID, bytes32(uint256(WETHAddress)), bytes32(uint256(msg.sender)), recipient, msg.value);\n    }\n\n\nfallback() external payable {revert(\"please use lockETH to transfer ETH to Solana\");}\nreceive() external payable {revert(\"please use lockETH to transfer ETH to Solana\");}\n}\n\n\ninterface WETH is IERC20 {\nfunction deposit() external payable;\n\nfunction withdraw(uint256 amount) external;\n}\n",
  "sourcePath": "/home/hhofstadt/Dev/certus/wormhole/ethereum/contracts/Wormhole.sol",
  "compiler": {
    "name": "solc",
    "version": "0.6.12+commit.27d51765.Emscripten.clang"
  },
  "schemaVersion": "3.2.3",
  "updatedAt": "2020-08-09T18:58:34.074Z",
  "devdoc": {
    "kind": "dev",
    "methods": {},
    "version": 1
  },
  "userdoc": {
    "kind": "user",
    "methods": {},
    "version": 1
  }
}