{
  "contractName": "Wormhole",
  "abi": [
    {
      "inputs": [
        {
          "components": [
            {
              "internalType": "address[]",
              "name": "keys",
              "type": "address[]"
            },
            {
              "internalType": "uint32",
              "name": "expiration_time",
              "type": "uint32"
            }
          ],
          "internalType": "struct Wormhole.GuardianSet",
          "name": "initial_guardian_set",
          "type": "tuple"
        },
        {
          "internalType": "address",
          "name": "wrapped_asset_master",
          "type": "address"
        },
        {
          "internalType": "uint32",
          "name": "_vaa_expiry",
          "type": "uint32"
        }
      ],
      "stateMutability": "nonpayable",
      "type": "constructor"
    },
    {
      "anonymous": false,
      "inputs": [
        {
          "indexed": false,
          "internalType": "uint32",
          "name": "oldGuardianIndex",
          "type": "uint32"
        },
        {
          "indexed": false,
          "internalType": "uint32",
          "name": "newGuardianIndex",
          "type": "uint32"
        }
      ],
      "name": "LogGuardianSetChanged",
      "type": "event"
    },
    {
      "anonymous": false,
      "inputs": [
        {
          "indexed": false,
          "internalType": "uint8",
          "name": "target_chain",
          "type": "uint8"
        },
        {
          "indexed": false,
          "internalType": "uint8",
          "name": "token_chain",
          "type": "uint8"
        },
        {
          "indexed": true,
          "internalType": "bytes32",
          "name": "token",
          "type": "bytes32"
        },
        {
          "indexed": true,
          "internalType": "bytes32",
          "name": "sender",
          "type": "bytes32"
        },
        {
          "indexed": false,
          "internalType": "bytes32",
          "name": "recipient",
          "type": "bytes32"
        },
        {
          "indexed": false,
          "internalType": "uint256",
          "name": "amount",
          "type": "uint256"
        },
        {
          "indexed": false,
          "internalType": "uint32",
          "name": "nonce",
          "type": "uint32"
        }
      ],
      "name": "LogTokensLocked",
      "type": "event"
    },
    {
      "stateMutability": "payable",
      "type": "fallback"
    },
    {
      "inputs": [],
      "name": "guardian_set_index",
      "outputs": [
        {
          "internalType": "uint32",
          "name": "",
          "type": "uint32"
        }
      ],
      "stateMutability": "view",
      "type": "function"
    },
    {
      "inputs": [
        {
          "internalType": "uint32",
          "name": "",
          "type": "uint32"
        }
      ],
      "name": "guardian_sets",
      "outputs": [
        {
          "internalType": "uint32",
          "name": "expiration_time",
          "type": "uint32"
        }
      ],
      "stateMutability": "view",
      "type": "function"
    },
    {
      "inputs": [
        {
          "internalType": "address",
          "name": "",
          "type": "address"
        }
      ],
      "name": "isWrappedAsset",
      "outputs": [
        {
          "internalType": "bool",
          "name": "",
          "type": "bool"
        }
      ],
      "stateMutability": "view",
      "type": "function"
    },
    {
      "inputs": [],
      "name": "vaa_expiry",
      "outputs": [
        {
          "internalType": "uint32",
          "name": "",
          "type": "uint32"
        }
      ],
      "stateMutability": "view",
      "type": "function"
    },
    {
      "inputs": [],
      "name": "wrappedAssetMaster",
      "outputs": [
        {
          "internalType": "address",
          "name": "",
          "type": "address"
        }
      ],
      "stateMutability": "view",
      "type": "function"
    },
    {
      "inputs": [
        {
          "internalType": "bytes32",
          "name": "",
          "type": "bytes32"
        }
      ],
      "name": "wrappedAssets",
      "outputs": [
        {
          "internalType": "address",
          "name": "",
          "type": "address"
        }
      ],
      "stateMutability": "view",
      "type": "function"
    },
    {
      "stateMutability": "payable",
      "type": "receive"
    },
    {
      "inputs": [
        {
          "internalType": "uint32",
          "name": "idx",
          "type": "uint32"
        }
      ],
      "name": "getGuardianSet",
      "outputs": [
        {
          "components": [
            {
              "internalType": "address[]",
              "name": "keys",
              "type": "address[]"
            },
            {
              "internalType": "uint32",
              "name": "expiration_time",
              "type": "uint32"
            }
          ],
          "internalType": "struct Wormhole.GuardianSet",
          "name": "gs",
          "type": "tuple"
        }
      ],
      "stateMutability": "view",
      "type": "function"
    },
    {
      "inputs": [
        {
          "internalType": "bytes",
          "name": "vaa",
          "type": "bytes"
        }
      ],
      "name": "submitVAA",
      "outputs": [],
      "stateMutability": "nonpayable",
      "type": "function"
    },
    {
      "inputs": [
        {
          "internalType": "address",
          "name": "asset",
          "type": "address"
        },
        {
          "internalType": "uint256",
          "name": "amount",
          "type": "uint256"
        },
        {
          "internalType": "bytes32",
          "name": "recipient",
          "type": "bytes32"
        },
        {
          "internalType": "uint8",
          "name": "target_chain",
          "type": "uint8"
        },
        {
          "internalType": "uint32",
          "name": "nonce",
          "type": "uint32"
        }
      ],
      "name": "lockAssets",
      "outputs": [],
      "stateMutability": "nonpayable",
      "type": "function"
    },
    {
      "inputs": [
        {
          "internalType": "bytes32",
          "name": "recipient",
          "type": "bytes32"
        },
        {
          "internalType": "uint8",
          "name": "target_chain",
          "type": "uint8"
        },
        {
          "internalType": "uint32",
          "name": "nonce",
          "type": "uint32"
        }
      ],
      "name": "lockETH",
      "outputs": [],
      "stateMutability": "payable",
      "type": "function"
    }
  ],
  "bytecode": "0x60806040526002600160146101000a81548160ff021916908360ff1602179055503480156200002d57600080fd5b506040516200370b3803806200370b83398181016040528101906200005391906200033e565b600160008190555082600260008063ffffffff1681526020019081526020016000206000820151816000019080519060200190620000939291906200014b565b5060208201518160010160006101000a81548163ffffffff021916908363ffffffff1602179055509050506000600360006101000a81548163ffffffff021916908363ffffffff16021790555080600360046101000a81548163ffffffff021916908363ffffffff16021790555081600160006101000a81548173ffffffffffffffffffffffffffffffffffffffff021916908373ffffffffffffffffffffffffffffffffffffffff1602179055505050506200047c565b828054828255906000526020600020908101928215620001c7579160200282015b82811115620001c65782518260006101000a81548173ffffffffffffffffffffffffffffffffffffffff021916908373ffffffffffffffffffffffffffffffffffffffff160217905550916020019190600101906200016c565b5b509050620001d69190620001da565b5090565b5b808211156200021357600081816101000a81549073ffffffffffffffffffffffffffffffffffffffff021916905550600101620001db565b5090565b600081519050620002288162000448565b92915050565b600082601f8301126200024057600080fd5b8151620002576200025182620003db565b620003ad565b915081818352602084019350602081019050838560208402820111156200027d57600080fd5b60005b83811015620002b1578162000296888262000217565b84526020840193506020830192505060018101905062000280565b5050505092915050565b600060408284031215620002ce57600080fd5b620002da6040620003ad565b9050600082015167ffffffffffffffff811115620002f757600080fd5b62000305848285016200022e565b60008301525060206200031b8482850162000327565b60208301525092915050565b600081519050620003388162000462565b92915050565b6000806000606084860312156200035457600080fd5b600084015167ffffffffffffffff8111156200036f57600080fd5b6200037d86828701620002bb565b9350506020620003908682870162000217565b9250506040620003a38682870162000327565b9150509250925092565b6000604051905081810181811067ffffffffffffffff82111715620003d157600080fd5b8060405250919050565b600067ffffffffffffffff821115620003f357600080fd5b602082029050602081019050919050565b6000620004118262000418565b9050919050565b600073ffffffffffffffffffffffffffffffffffffffff82169050919050565b600063ffffffff82169050919050565b620004538162000404565b81146200045f57600080fd5b50565b6200046d8162000438565b81146200047957600080fd5b50565b61327f806200048c6000396000f3fe6080604052600436106100955760003560e01c80637f04d9e6116100595780637f04d9e6146101f8578063822d82b31461022357806399da1d3c1461024e578063b6694c2a14610279578063f951975a146102b6576100d5565b806313cca1a9146101105780631a2be4da146101395780633bc0aee61461017657806342b0aefa1461019f57806358d62e46146101dc576100d5565b366100d5576040517f08c379a00000000000000000000000000000000000000000000000000000000081526004016100cc90612da0565b60405180910390fd5b6040517f08c379a000000000000000000000000000000000000000000000000000000000815260040161010790612da0565b60405180910390fd5b34801561011c57600080fd5b5061013760048036038101906101329190612371565b6102f3565b005b34801561014557600080fd5b50610160600480360381019061015b9190612348565b610745565b60405161016d9190612cde565b60405180910390f35b34801561018257600080fd5b5061019d600480360381019061019891906124b2565b610765565b005b3480156101ab57600080fd5b506101c660048036038101906101c19190612520565b611091565b6040516101d39190612f82565b60405180910390f35b6101f660048036038101906101f19190612463565b6110bf565b005b34801561020457600080fd5b5061020d611269565b60405161021a9190612f82565b60405180910390f35b34801561022f57600080fd5b5061023861127f565b6040516102459190612f82565b60405180910390f35b34801561025a57600080fd5b50610263611295565b6040516102709190612c1f565b60405180910390f35b34801561028557600080fd5b506102a0600480360381019061029b9190612411565b6112bb565b6040516102ad9190612c1f565b60405180910390f35b3480156102c257600080fd5b506102dd60048036038101906102d89190612520565b6112ee565b6040516102ea9190612f60565b60405180910390f35b60026000541415610339576040517f08c379a000000000000000000000000000000000000000000000000000000000815260040161033090612f40565b60405180910390fd5b60026000819055506000841415610385576040517f08c379a000000000000000000000000000000000000000000000000000000000815260040161037c90612e80565b60405180910390fd5b6000600160149054906101000a900460ff1690506000600660008873ffffffffffffffffffffffffffffffffffffffff1673ffffffffffffffffffffffffffffffffffffffff16815260200190815260200160002060009054906101000a900460ff161561055f578673ffffffffffffffffffffffffffffffffffffffff16639dc29fac33886040518363ffffffff1660e01b8152600401610428929190612c55565b600060405180830381600087803b15801561044257600080fd5b505af1158015610456573d6000803e3d6000fd5b505050508673ffffffffffffffffffffffffffffffffffffffff1663026b05396040518163ffffffff1660e01b815260040160206040518083038186803b1580156104a057600080fd5b505afa1580156104b4573d6000803e3d6000fd5b505050506040513d601f19601f820116820180604052508101906104d89190612549565b91508673ffffffffffffffffffffffffffffffffffffffff16631ba46cfd6040518163ffffffff1660e01b815260040160206040518083038186803b15801561052057600080fd5b505afa158015610534573d6000803e3d6000fd5b505050506040513d601f19601f82011682018060405250810190610558919061243a565b90506106da565b60008773ffffffffffffffffffffffffffffffffffffffff166370a08231306040518263ffffffff1660e01b815260040161059a9190612c3a565b60206040518083038186803b1580156105b257600080fd5b505afa1580156105c6573d6000803e3d6000fd5b505050506040513d601f19601f820116820180604052508101906105ea91906124f7565b90506106193330898b73ffffffffffffffffffffffffffffffffffffffff166113db909392919063ffffffff16565b60008873ffffffffffffffffffffffffffffffffffffffff166370a08231306040518263ffffffff1660e01b81526004016106549190612c3a565b60206040518083038186803b15801561066c57600080fd5b505afa158015610680573d6000803e3d6000fd5b505050506040513d601f19601f820116820180604052508101906106a491906124f7565b90506106b9828261146490919063ffffffff16565b97508873ffffffffffffffffffffffffffffffffffffffff1660001b925050505b3373ffffffffffffffffffffffffffffffffffffffff1660001b817f5742f26a345471409566883d5cac5a7d295eee7092e5be3a7d6c60bc2a3e24208685898b8960405161072c959493929190612fef565b60405180910390a3505060016000819055505050505050565b60066020528060005260406000206000915054906101000a900460ff1681565b600260005414156107ab576040517f08c379a00000000000000000000000000000000000000000000000000000000081526004016107a290612f40565b60405180910390fd5b6002600081905550600061080d600084848080601f016020809104026020016040519081016040528093929190818152602001838380828437600081840152601f19601f820116905080830192505050505050506114ae90919063ffffffff16565b905060018160ff1614610855576040517f08c379a000000000000000000000000000000000000000000000000000000000815260040161084c90612e00565b60405180910390fd5b60006108af600185858080601f016020809104026020016040519081016040528093929190818152602001838380828437600081840152601f19601f8201169050808301925050505050505061150c90919063ffffffff16565b9050600061090b600586868080601f016020809104026020016040519081016040528093929190818152602001838380828437600081840152601f19601f820116905080830192505050505050506114ae90919063ffffffff16565b60ff169050600081604202600601905060006109748288888080601f016020809104026020016040519081016040528093929190818152602001838380828437600081840152601f19601f8201169050808301925050505050505061150c90919063ffffffff16565b905042600360049054906101000a900463ffffffff16820163ffffffff16116109d2576040517f08c379a00000000000000000000000000000000000000000000000000000000081526004016109c990612e20565b60405180910390fd5b6000610a3283848a8a9050038a8a8080601f016020809104026020016040519081016040528093929190818152602001838380828437600081840152601f19601f8201169050808301925050505050505061156a9092919063ffffffff16565b8051906020012090506004600082815260200190815260200160002060009054906101000a900460ff1615610a9c576040517f08c379a0000000000000000000000000000000000000000000000000000000008152600401610a9390612d80565b60405180910390fd5b610aa461215c565b600260008763ffffffff1663ffffffff16815260200190815260200160002060405180604001604052908160008201805480602002602001604051908101604052809291908181526020018280548015610b5357602002820191906000526020600020905b8160009054906101000a900473ffffffffffffffffffffffffffffffffffffffff1673ffffffffffffffffffffffffffffffffffffffff1681526020019060010190808311610b09575b505050505081526020016001820160009054906101000a900463ffffffff1663ffffffff1663ffffffff168152505090506000816020015163ffffffff161480610ba6575042816020015163ffffffff16115b610be5576040517f08c379a0000000000000000000000000000000000000000000000000000000008152600401610bdc90612ec0565b60405180910390fd5b846001600460038460000151510281610bfa57fe5b04011115610c3d576040517f08c379a0000000000000000000000000000000000000000000000000000000008152600401610c3490612e60565b60405180910390fd5b60005b85811015610eb9576000610ca7604283026006018c8c8080601f016020809104026020016040519081016040528093929190818152602001838380828437600081840152601f19601f820116905080830192505050505050506114ae90919063ffffffff16565b90506000610d08604284026007018d8d8080601f016020809104026020016040519081016040528093929190818152602001838380828437600081840152601f19601f8201169050808301925050505050505061162c90919063ffffffff16565b90506000610d69604285026027018e8e8080601f016020809104026020016040519081016040528093929190818152602001838380828437600081840152601f19601f8201169050808301925050505050505061162c90919063ffffffff16565b90506000610dca604286026047018f8f8080601f016020809104026020016040519081016040528093929190818152602001838380828437600081840152601f19601f820116905080830192505050505050506114ae90919063ffffffff16565b9050601b8101905085600001518460ff1681518110610de557fe5b602002602001015173ffffffffffffffffffffffffffffffffffffffff1660018883868660405160008152602001604052604051610e269493929190612cf9565b6020604051602081039080840390855afa158015610e48573d6000803e3d6000fd5b5050506020604051035173ffffffffffffffffffffffffffffffffffffffff1614610ea8576040517f08c379a0000000000000000000000000000000000000000000000000000000008152600401610e9f90612e40565b60405180910390fd5b505050508080600101915050610c40565b506000610f16600486018b8b8080601f016020809104026020016040519081016040528093929190818152602001838380828437600081840152601f19601f820116905080830192505050505050506114ae90919063ffffffff16565b90506060610f7e60058701600588018d8d9050038d8d8080601f016020809104026020016040519081016040528093929190818152602001838380828437600081840152601f19601f8201169050808301925050505050505061156a9092919063ffffffff16565b905060018260ff161415610ffa57600360009054906101000a900463ffffffff1663ffffffff168863ffffffff1614610fec576040517f08c379a0000000000000000000000000000000000000000000000000000000008152600401610fe390612dc0565b60405180910390fd5b610ff58161168a565b611050565b60108260ff1614156110145761100f81611908565b61104f565b6040517f08c379a000000000000000000000000000000000000000000000000000000000815260040161104690612d60565b60405180910390fd5b5b60016004600086815260200190815260200160002060006101000a81548160ff02191690831515021790555050505050505050505060016000819055505050565b60026020528060005260406000206000915090508060010160009054906101000a900463ffffffff16905081565b60026000541415611105576040517f08c379a00000000000000000000000000000000000000000000000000000000081526004016110fc90612f40565b60405180910390fd5b60026000819055506000341415611151576040517f08c379a000000000000000000000000000000000000000000000000000000000815260040161114890612e80565b60405180910390fd5b73c02aaa39b223fe8d0a0e5c4f27ead9083c756cc273ffffffffffffffffffffffffffffffffffffffff1663d0e30db0346040518263ffffffff1660e01b81526004016000604051808303818588803b1580156111ad57600080fd5b505af11580156111c1573d6000803e3d6000fd5b50505050503373ffffffffffffffffffffffffffffffffffffffff1660001b73c02aaa39b223fe8d0a0e5c4f27ead9083c756cc273ffffffffffffffffffffffffffffffffffffffff1660001b7f5742f26a345471409566883d5cac5a7d295eee7092e5be3a7d6c60bc2a3e242084600160149054906101000a900460ff16873487604051611254959493929190612fef565b60405180910390a36001600081905550505050565b600360049054906101000a900463ffffffff1681565b600360009054906101000a900463ffffffff1681565b600160009054906101000a900473ffffffffffffffffffffffffffffffffffffffff1681565b60056020528060005260406000206000915054906101000a900473ffffffffffffffffffffffffffffffffffffffff1681565b6112f661215c565b600260008363ffffffff1663ffffffff168152602001908152602001600020604051806040016040529081600082018054806020026020016040519081016040528092919081815260200182805480156113a557602002820191906000526020600020905b8160009054906101000a900473ffffffffffffffffffffffffffffffffffffffff1673ffffffffffffffffffffffffffffffffffffffff168152602001906001019080831161135b575b505050505081526020016001820160009054906101000a900463ffffffff1663ffffffff1663ffffffff16815250509050919050565b61145e846323b872dd60e01b8585856040516024016113fc93929190612c7e565b604051602081830303815290604052907bffffffffffffffffffffffffffffffffffffffffffffffffffffffff19166020820180517bffffffffffffffffffffffffffffffffffffffffffffffffffffffff8381831617835250505050611bbe565b50505050565b60006114a683836040518060400160405280601e81526020017f536166654d6174683a207375627472616374696f6e206f766572666c6f770000815250611c85565b905092915050565b600060018201835110156114f7576040517f08c379a00000000000000000000000000000000000000000000000000000000081526004016114ee90612de0565b60405180910390fd5b60008260018501015190508091505092915050565b60006004820183511015611555576040517f08c379a000000000000000000000000000000000000000000000000000000000815260040161154c90612de0565b60405180910390fd5b60008260048501015190508091505092915050565b6060818301845110156115b2576040517f08c379a00000000000000000000000000000000000000000000000000000000081526004016115a990612de0565b60405180910390fd5b60608215600081146115cf57604051915060208201604052611620565b6040519150601f8416801560200281840101858101878315602002848b0101015b8183101561160d57805183526020830192506020810190506115f0565b50868552601f19601f8301166040525050505b50809150509392505050565b60006020820183511015611675576040517f08c379a000000000000000000000000000000000000000000000000000000000815260040161166c90612de0565b60405180910390fd5b60008260208501015190508091505092915050565b60006116a060008361150c90919063ffffffff16565b905060006116b86004846114ae90919063ffffffff16565b905060608160ff1667ffffffffffffffff811180156116d657600080fd5b506040519080825280602002602001820160405280156117055781602001602082028036833780820191505090505b50905060005b8260ff168110156117885760006117316014830260050187611ce090919063ffffffff16565b90508083838151811061174057fe5b602002602001019073ffffffffffffffffffffffffffffffffffffffff16908173ffffffffffffffffffffffffffffffffffffffff168152505050808060010191505061170b565b506000600360009054906101000a900463ffffffff16905083600360006101000a81548163ffffffff021916908363ffffffff1602179055506117c961215c565b6040518060400160405280848152602001600063ffffffff1681525090508060026000600360009054906101000a900463ffffffff1663ffffffff1663ffffffff168152602001908152602001600020600082015181600001908051906020019061183592919061217c565b5060208201518160010160006101000a81548163ffffffff021916908363ffffffff160217905550905050600360049054906101000a900463ffffffff164201600260008463ffffffff1663ffffffff16815260200190815260200160002060010160006101000a81548163ffffffff021916908363ffffffff1602179055507fdfb80683934199683861bf00b64ecdf0984bbaf661bf27983dba382e99297a6282600360009054906101000a900463ffffffff166040516118f8929190612f9d565b60405180910390a1505050505050565b600061191e6004836114ae90919063ffffffff16565b905060006119366005846114ae90919063ffffffff16565b9050600061194e603285611ce090919063ffffffff16565b905060006119666046866114ae90919063ffffffff16565b9050600061197e606787611d4d90919063ffffffff16565b90508360ff168560ff1614156119c9576040517f08c379a00000000000000000000000000000000000000000000000000000000081526004016119c090612f20565b60405180910390fd5b600160149054906101000a900460ff1660ff168460ff1614611a20576040517f08c379a0000000000000000000000000000000000000000000000000000000008152600401611a1790612ea0565b60405180910390fd5b600160149054906101000a900460ff1660ff168260ff1614611b71576000611a5260478861162c90919063ffffffff16565b905060008382604051602001611a69929190612bf3565b60405160208183030381529060405280519060200120905060006005600083815260200190815260200160002060009054906101000a900473ffffffffffffffffffffffffffffffffffffffff169050600073ffffffffffffffffffffffffffffffffffffffff168173ffffffffffffffffffffffffffffffffffffffff161415611afc57611af9828685611dab565b90505b8073ffffffffffffffffffffffffffffffffffffffff166340c10f1987866040518363ffffffff1660e01b8152600401611b37929190612cb5565b600060405180830381600087803b158015611b5157600080fd5b505af1158015611b65573d6000803e3d6000fd5b50505050505050611bb6565b6000611b87605388611ce090919063ffffffff16565b9050611bb484838373ffffffffffffffffffffffffffffffffffffffff16611f509092919063ffffffff16565b505b505050505050565b6060611c20826040518060400160405280602081526020017f5361666545524332303a206c6f772d6c6576656c2063616c6c206661696c65648152508573ffffffffffffffffffffffffffffffffffffffff16611fd69092919063ffffffff16565b9050600081511115611c805780806020019051810190611c4091906123e8565b611c7f576040517f08c379a0000000000000000000000000000000000000000000000000000000008152600401611c7690612f00565b60405180910390fd5b5b505050565b6000838311158290611ccd576040517f08c379a0000000000000000000000000000000000000000000000000000000008152600401611cc49190612d3e565b60405180910390fd5b5060008385039050809150509392505050565b60006014820183511015611d29576040517f08c379a0000000000000000000000000000000000000000000000000000000008152600401611d2090612de0565b60405180910390fd5b60006c01000000000000000000000000836020860101510490508091505092915050565b60006020820183511015611d96576040517f08c379a0000000000000000000000000000000000000000000000000000000008152600401611d8d90612de0565b60405180910390fd5b60008260208501015190508091505092915050565b600080600160009054906101000a900473ffffffffffffffffffffffffffffffffffffffff1660601b90506040517f3d602d80600a3d3981f3363d3d373d3d3d363d7300000000000000000000000081528160148201527f5af43d82803e903d91602b57fd5bf3000000000000000000000000000000000060288201526037816000f09250508173ffffffffffffffffffffffffffffffffffffffff166302a0958585856040518363ffffffff1660e01b8152600401611e6c929190612fc6565b600060405180830381600087803b158015611e8657600080fd5b505af1158015611e9a573d6000803e3d6000fd5b50505050816005600087815260200190815260200160002060006101000a81548173ffffffffffffffffffffffffffffffffffffffff021916908373ffffffffffffffffffffffffffffffffffffffff1602179055506001600660008473ffffffffffffffffffffffffffffffffffffffff1673ffffffffffffffffffffffffffffffffffffffff16815260200190815260200160002060006101000a81548160ff021916908315150217905550509392505050565b611fd18363a9059cbb60e01b8484604051602401611f6f929190612cb5565b604051602081830303815290604052907bffffffffffffffffffffffffffffffffffffffffffffffffffffffff19166020820180517bffffffffffffffffffffffffffffffffffffffffffffffffffffffff8381831617835250505050611bbe565b505050565b6060611fe58484600085611fee565b90509392505050565b6060611ff985612111565b612038576040517f08c379a000000000000000000000000000000000000000000000000000000000815260040161202f90612ee0565b60405180910390fd5b600060608673ffffffffffffffffffffffffffffffffffffffff1685876040516120629190612bdc565b60006040518083038185875af1925050503d806000811461209f576040519150601f19603f3d011682016040523d82523d6000602084013e6120a4565b606091505b509150915081156120b9578092505050612109565b6000815111156120cc5780518082602001fd5b836040517f08c379a00000000000000000000000000000000000000000000000000000000081526004016121009190612d3e565b60405180910390fd5b949350505050565b60008060007fc5d2460186f7233c927e7db2dcc703c0e500b653ca82273b7bfad8045d85a47060001b9050833f915080821415801561215357506000801b8214155b92505050919050565b604051806040016040528060608152602001600063ffffffff1681525090565b8280548282559060005260206000209081019282156121f5579160200282015b828111156121f45782518260006101000a81548173ffffffffffffffffffffffffffffffffffffffff021916908373ffffffffffffffffffffffffffffffffffffffff1602179055509160200191906001019061219c565b5b5090506122029190612206565b5090565b5b8082111561223d57600081816101000a81549073ffffffffffffffffffffffffffffffffffffffff021916905550600101612207565b5090565b600081359050612250816131bf565b92915050565b600081519050612265816131d6565b92915050565b60008135905061227a816131ed565b92915050565b60008151905061228f816131ed565b92915050565b60008083601f8401126122a757600080fd5b8235905067ffffffffffffffff8111156122c057600080fd5b6020830191508360018202830111156122d857600080fd5b9250929050565b6000813590506122ee81613204565b92915050565b60008151905061230381613204565b92915050565b6000813590506123188161321b565b92915050565b60008135905061232d81613232565b92915050565b60008151905061234281613232565b92915050565b60006020828403121561235a57600080fd5b600061236884828501612241565b91505092915050565b600080600080600060a0868803121561238957600080fd5b600061239788828901612241565b95505060206123a8888289016122df565b94505060406123b98882890161226b565b93505060606123ca8882890161231e565b92505060806123db88828901612309565b9150509295509295909350565b6000602082840312156123fa57600080fd5b600061240884828501612256565b91505092915050565b60006020828403121561242357600080fd5b60006124318482850161226b565b91505092915050565b60006020828403121561244c57600080fd5b600061245a84828501612280565b91505092915050565b60008060006060848603121561247857600080fd5b60006124868682870161226b565b93505060206124978682870161231e565b92505060406124a886828701612309565b9150509250925092565b600080602083850312156124c557600080fd5b600083013567ffffffffffffffff8111156124df57600080fd5b6124eb85828601612295565b92509250509250929050565b60006020828403121561250957600080fd5b6000612517848285016122f4565b91505092915050565b60006020828403121561253257600080fd5b600061254084828501612309565b91505092915050565b60006020828403121561255b57600080fd5b600061256984828501612333565b91505092915050565b600061257e8383612599565b60208301905092915050565b6125938161311c565b82525050565b6125a2816130ad565b82525050565b6125b1816130ad565b82525050565b60006125c282613052565b6125cc8185613080565b93506125d783613042565b8060005b838110156126085781516125ef8882612572565b97506125fa83613073565b9250506001810190506125db565b5085935050505092915050565b61261e816130bf565b82525050565b61262d816130cb565b82525050565b61264461263f826130cb565b613185565b82525050565b60006126558261305d565b61265f8185613091565b935061266f818560208601613152565b80840191505092915050565b600061268682613068565b612690818561309c565b93506126a0818560208601613152565b6126a9816131a1565b840191505092915050565b60006126c160128361309c565b91507f696e76616c69642056414120616374696f6e00000000000000000000000000006000830152602082019050919050565b600061270160188361309c565b91507f5641412077617320616c726561647920657865637574656400000000000000006000830152602082019050919050565b6000612741602c8361309c565b91507f706c6561736520757365206c6f636b45544820746f207472616e73666572204560008301527f544820746f20536f6c616e6100000000000000000000000000000000000000006020830152604082019050919050565b60006127a760398361309c565b91507f6f6e6c79207468652063757272656e7420677561726469616e2073657420636160008301527f6e206368616e67652074686520677561726469616e20736574000000000000006020830152604082019050919050565b600061280d60128361309c565b91507f52656164206f7574206f6620626f756e647300000000000000000000000000006000830152602082019050919050565b600061284d60188361309c565b91507f5641412076657273696f6e20696e636f6d70617469626c6500000000000000006000830152602082019050919050565b600061288d600f8361309c565b91507f56414120686173206578706972656400000000000000000000000000000000006000830152602082019050919050565b60006128cd60158361309c565b91507f564141207369676e617475726520696e76616c696400000000000000000000006000830152602082019050919050565b600061290d60098361309c565b91507f6e6f2071756f72756d00000000000000000000000000000000000000000000006000830152602082019050919050565b600061294d60148361309c565b91507f616d6f756e74206d757374206e6f7420626520300000000000000000000000006000830152602082019050919050565b600061298d60198361309c565b91507f7472616e73666572206d75737420626520696e636f6d696e67000000000000006000830152602082019050919050565b60006129cd60188361309c565b91507f677561726469616e2073657420686173206578706972656400000000000000006000830152602082019050919050565b6000612a0d601d8361309c565b91507f416464726573733a2063616c6c20746f206e6f6e2d636f6e74726163740000006000830152602082019050919050565b6000612a4d602a8361309c565b91507f5361666545524332303a204552433230206f7065726174696f6e20646964206e60008301527f6f742073756363656564000000000000000000000000000000000000000000006020830152604082019050919050565b6000612ab360268361309c565b91507f73616d6520636861696e207472616e736665727320617265206e6f742073757060008301527f706f7274656400000000000000000000000000000000000000000000000000006020830152604082019050919050565b6000612b19601f8361309c565b91507f5265656e7472616e637947756172643a207265656e7472616e742063616c6c006000830152602082019050919050565b60006040830160008301518482036000860152612b6982826125b7565b9150506020830151612b7e6020860182612b98565b508091505092915050565b612b92816130f5565b82525050565b612ba1816130ff565b82525050565b612bb0816130ff565b82525050565b612bbf8161310f565b82525050565b612bd6612bd18261310f565b61318f565b82525050565b6000612be8828461264a565b915081905092915050565b6000612bff8285612bc5565b600182019150612c0f8284612633565b6020820191508190509392505050565b6000602082019050612c3460008301846125a8565b92915050565b6000602082019050612c4f600083018461258a565b92915050565b6000604082019050612c6a600083018561258a565b612c776020830184612b89565b9392505050565b6000606082019050612c9360008301866125a8565b612ca060208301856125a8565b612cad6040830184612b89565b949350505050565b6000604082019050612cca60008301856125a8565b612cd76020830184612b89565b9392505050565b6000602082019050612cf36000830184612615565b92915050565b6000608082019050612d0e6000830187612624565b612d1b6020830186612bb6565b612d286040830185612624565b612d356060830184612624565b95945050505050565b60006020820190508181036000830152612d58818461267b565b905092915050565b60006020820190508181036000830152612d79816126b4565b9050919050565b60006020820190508181036000830152612d99816126f4565b9050919050565b60006020820190508181036000830152612db981612734565b9050919050565b60006020820190508181036000830152612dd98161279a565b9050919050565b60006020820190508181036000830152612df981612800565b9050919050565b60006020820190508181036000830152612e1981612840565b9050919050565b60006020820190508181036000830152612e3981612880565b9050919050565b60006020820190508181036000830152612e59816128c0565b9050919050565b60006020820190508181036000830152612e7981612900565b9050919050565b60006020820190508181036000830152612e9981612940565b9050919050565b60006020820190508181036000830152612eb981612980565b9050919050565b60006020820190508181036000830152612ed9816129c0565b9050919050565b60006020820190508181036000830152612ef981612a00565b9050919050565b60006020820190508181036000830152612f1981612a40565b9050919050565b60006020820190508181036000830152612f3981612aa6565b9050919050565b60006020820190508181036000830152612f5981612b0c565b9050919050565b60006020820190508181036000830152612f7a8184612b4c565b905092915050565b6000602082019050612f976000830184612ba7565b92915050565b6000604082019050612fb26000830185612ba7565b612fbf6020830184612ba7565b9392505050565b6000604082019050612fdb6000830185612bb6565b612fe86020830184612624565b9392505050565b600060a0820190506130046000830188612bb6565b6130116020830187612bb6565b61301e6040830186612624565b61302b6060830185612b89565b6130386080830184612ba7565b9695505050505050565b6000819050602082019050919050565b600081519050919050565b600081519050919050565b600081519050919050565b6000602082019050919050565b600082825260208201905092915050565b600081905092915050565b600082825260208201905092915050565b60006130b8826130d5565b9050919050565b60008115159050919050565b6000819050919050565b600073ffffffffffffffffffffffffffffffffffffffff82169050919050565b6000819050919050565b600063ffffffff82169050919050565b600060ff82169050919050565b60006131278261312e565b9050919050565b600061313982613140565b9050919050565b600061314b826130d5565b9050919050565b60005b83811015613170578082015181840152602081019050613155565b8381111561317f576000848401525b50505050565b6000819050919050565b600061319a826131b2565b9050919050565b6000601f19601f8301169050919050565b60008160f81b9050919050565b6131c8816130ad565b81146131d357600080fd5b50565b6131df816130bf565b81146131ea57600080fd5b50565b6131f6816130cb565b811461320157600080fd5b50565b61320d816130f5565b811461321857600080fd5b50565b613224816130ff565b811461322f57600080fd5b50565b61323b8161310f565b811461324657600080fd5b5056fea2646970667358221220093e64f2de68a8ba56b15335745c5182b42d2cffc846382a42044fbb6a6793ec64736f6c634300060c0033",
  "immutableReferences": {},
  "source": "// contracts/Wormhole.sol\n// SPDX-License-Identifier: Apache 2\n\n// TODO(hendrik): switch-over feature\n\npragma solidity ^0.6.0;\npragma experimental ABIEncoderV2;\n\nimport \"@openzeppelin/contracts/token/ERC20/IERC20.sol\";\nimport \"@openzeppelin/contracts/token/ERC20/SafeERC20.sol\";\nimport \"@openzeppelin/contracts/math/SafeMath.sol\";\nimport \"@openzeppelin/contracts/utils/ReentrancyGuard.sol\";\nimport \"./BytesLib.sol\";\nimport \"./WrappedAsset.sol\";\n\ncontract Wormhole is ReentrancyGuard {\n    using SafeERC20 for IERC20;\n    using BytesLib for bytes;\n    using SafeMath for uint256;\n\n    // Address of the Wrapped asset template\n    address public wrappedAssetMaster;\n\n    // Chain ID of Ethereum\n    uint8 CHAIN_ID = 2;\n\n    // Address of the official WETH contract\n    address constant WETHAddress = 0xC02aaA39b223FE8D0A0e5C4F27eAD9083C756Cc2;\n\n    struct GuardianSet {\n        address[] keys;\n        uint32 expiration_time;\n    }\n\n    event LogGuardianSetChanged(\n        uint32 oldGuardianIndex,\n        uint32 newGuardianIndex\n    );\n\n    event LogTokensLocked(\n        uint8 target_chain,\n        uint8 token_chain,\n        bytes32 indexed token,\n        bytes32 indexed sender,\n        bytes32 recipient,\n        uint256 amount,\n        uint32 nonce\n    );\n\n    // Mapping of guardian_set_index => guardian set\n    mapping(uint32 => GuardianSet) public guardian_sets;\n    // Current active guardian set\n    uint32 public guardian_set_index;\n\n    // Period for which an vaa is valid in seconds\n    uint32 public vaa_expiry;\n\n    // Mapping of already consumedVAAs\n    mapping(bytes32 => bool) consumedVAAs;\n\n    // Mapping of wrapped asset ERC20 contracts\n    mapping(bytes32 => address) public wrappedAssets;\n    mapping(address => bool) public isWrappedAsset;\n\n    constructor(GuardianSet memory initial_guardian_set, address wrapped_asset_master, uint32 _vaa_expiry) public {\n        guardian_sets[0] = initial_guardian_set;\n        // Explicitly set for doc purposes\n        guardian_set_index = 0;\n        vaa_expiry = _vaa_expiry;\n\n        wrappedAssetMaster = wrapped_asset_master;\n    }\n\n    function getGuardianSet(uint32 idx) view public returns (GuardianSet memory gs) {\n        return guardian_sets[idx];\n    }\n\n    function submitVAA(\n        bytes calldata vaa\n    ) public nonReentrant {\n        uint8 version = vaa.toUint8(0);\n        require(version == 1, \"VAA version incompatible\");\n\n        // Load 4 bytes starting from index 1\n        uint32 vaa_guardian_set_index = vaa.toUint32(1);\n\n        uint256 len_signers = vaa.toUint8(5);\n        uint offset = 6 + 66 * len_signers;\n\n        // Load 4 bytes timestamp\n        uint32 timestamp = vaa.toUint32(offset);\n\n        // Verify that the VAA is still valid\n        require(timestamp + vaa_expiry > block.timestamp, \"VAA has expired\");\n\n        // Hash the body\n        bytes32 hash = keccak256(vaa.slice(offset, vaa.length - offset));\n        require(!consumedVAAs[hash], \"VAA was already executed\");\n\n        GuardianSet memory guardian_set = guardian_sets[vaa_guardian_set_index];\n        require(guardian_set.expiration_time == 0 || guardian_set.expiration_time > block.timestamp, \"guardian set has expired\");\n        require(guardian_set.keys.length * 3 / 4 + 1 <= len_signers, \"no quorum\");\n\n        for (uint i = 0; i < len_signers; i++) {\n            uint8 index = vaa.toUint8(6 + i * 66);\n            bytes32 r = vaa.toBytes32(7 + i * 66);\n            bytes32 s = vaa.toBytes32(39 + i * 66);\n            uint8 v = vaa.toUint8(71 + i * 66);\n            v += 27;\n            require(ecrecover(hash, v, r, s) == guardian_set.keys[index], \"VAA signature invalid\");\n        }\n\n        uint8 action = vaa.toUint8(offset + 4);\n        bytes memory payload = vaa.slice(offset + 5, vaa.length - (offset + 5));\n\n        // Process VAA\n        if (action == 0x01) {\n            require(vaa_guardian_set_index == guardian_set_index, \"only the current guardian set can change the guardian set\");\n            vaaUpdateGuardianSet(payload);\n        } else if (action == 0x10) {\n            vaaTransfer(payload);\n        } else {\n            revert(\"invalid VAA action\");\n        }\n\n        // Set the VAA as consumed\n        consumedVAAs[hash] = true;\n    }\n\n    function vaaUpdateGuardianSet(bytes memory data) private {\n        uint32 new_guardian_set_index = data.toUint32(0);\n        uint8 len = data.toUint8(4);\n\n        address[] memory new_guardians = new address[](len);\n        for (uint i = 0; i < len; i++) {\n            address addr = data.toAddress(5 + i * 20);\n            new_guardians[i] = addr;\n        }\n\n        uint32 old_guardian_set_index = guardian_set_index;\n        guardian_set_index = new_guardian_set_index;\n\n        GuardianSet memory new_guardian_set = GuardianSet(new_guardians, 0);\n        guardian_sets[guardian_set_index] = new_guardian_set;\n        guardian_sets[old_guardian_set_index].expiration_time = uint32(block.timestamp) + vaa_expiry;\n\n        emit LogGuardianSetChanged(old_guardian_set_index, guardian_set_index);\n    }\n\n    function vaaTransfer(bytes memory data) private {\n        //uint32 nonce = data.toUint64(0);\n        uint8 source_chain = data.toUint8(4);\n\n        uint8 target_chain = data.toUint8(5);\n        //bytes32 source_address = data.toBytes32(6);\n        //bytes32 target_address = data.toBytes32(38);\n        address target_address = data.toAddress(38 + 12);\n\n        uint8 token_chain = data.toUint8(70);\n        //bytes32 token_address = data.toBytes32(71);\n        uint256 amount = data.toUint256(103);\n\n        require(source_chain != target_chain, \"same chain transfers are not supported\");\n        require(target_chain == CHAIN_ID, \"transfer must be incoming\");\n\n        if (token_chain != CHAIN_ID) {\n            bytes32 token_address = data.toBytes32(71);\n            bytes32 asset_id = keccak256(abi.encodePacked(token_chain, token_address));\n\n            // if yes: mint to address\n            // if no: create and mint\n            address wrapped_asset = wrappedAssets[asset_id];\n            if (wrapped_asset == address(0)) {\n                wrapped_asset = deployWrappedAsset(asset_id, token_chain, token_address);\n            }\n\n            WrappedAsset(wrapped_asset).mint(target_address, amount);\n        } else {\n            address token_address = data.toAddress(71 + 12);\n\n            IERC20(token_address).safeTransfer(target_address, amount);\n        }\n    }\n\n    function deployWrappedAsset(bytes32 seed, uint8 token_chain, bytes32 token_address) private returns (address asset){\n        // Taken from https://github.com/OpenZeppelin/openzeppelin-sdk/blob/master/packages/lib/contracts/upgradeability/ProxyFactory.sol\n        // Licensed under MIT\n        bytes20 targetBytes = bytes20(wrappedAssetMaster);\n        assembly {\n            let clone := mload(0x40)\n            mstore(clone, 0x3d602d80600a3d3981f3363d3d373d3d3d363d73000000000000000000000000)\n            mstore(add(clone, 0x14), targetBytes)\n            mstore(add(clone, 0x28), 0x5af43d82803e903d91602b57fd5bf30000000000000000000000000000000000)\n            asset := create(0, clone, 0x37)\n        }\n\n        // Call initializer\n        WrappedAsset(asset).initialize(token_chain, token_address);\n\n        // Store address\n        wrappedAssets[seed] = asset;\n        isWrappedAsset[asset] = true;\n    }\n\n    // TODO(hendrik): nonce\n    function lockAssets(\n        address asset,\n        uint256 amount,\n        bytes32 recipient,\n        uint8 target_chain,\n        uint32 nonce\n    ) public nonReentrant {\n        require(amount != 0, \"amount must not be 0\");\n\n        uint8 asset_chain = CHAIN_ID;\n        bytes32 asset_address;\n        if (isWrappedAsset[asset]) {\n            WrappedAsset(asset).burn(msg.sender, amount);\n            asset_chain = WrappedAsset(asset).assetChain();\n            asset_address = WrappedAsset(asset).assetAddress();\n        } else {\n            uint256 balanceBefore = IERC20(asset).balanceOf(address(this));\n            IERC20(asset).safeTransferFrom(msg.sender, address(this), amount);\n            uint256 balanceAfter = IERC20(asset).balanceOf(address(this));\n\n            // The amount that was transferred in is the delta between balance before and after the transfer.\n            // This is to properly handle tokens that charge a fee on transfer.\n            amount = balanceAfter.sub(balanceBefore);\n            asset_address = bytes32(uint256(asset));\n        }\n\n        emit LogTokensLocked(target_chain, asset_chain, asset_address, bytes32(uint256(msg.sender)), recipient, amount, nonce);\n    }\n\n    function lockETH(\n        bytes32 recipient,\n        uint8 target_chain,\n        uint32 nonce\n    ) public payable nonReentrant {\n        require(msg.value != 0, \"amount must not be 0\");\n\n        // Wrap tx value in WETH\n        WETH(WETHAddress).deposit{value : msg.value}();\n\n        // Log deposit of WETH\n        emit LogTokensLocked(target_chain, CHAIN_ID, bytes32(uint256(WETHAddress)), bytes32(uint256(msg.sender)), recipient, msg.value, nonce);\n    }\n\n\nfallback() external payable {revert(\"please use lockETH to transfer ETH to Solana\");}\nreceive() external payable {revert(\"please use lockETH to transfer ETH to Solana\");}\n}\n\n\ninterface WETH is IERC20 {\nfunction deposit() external payable;\n\nfunction withdraw(uint256 amount) external;\n}\n",
  "sourcePath": "/home/hhofstadt/Dev/certus/wormhole/ethereum/contracts/Wormhole.sol",
  "compiler": {
    "name": "solc",
    "version": "0.6.12+commit.27d51765.Emscripten.clang"
  },
  "schemaVersion": "3.2.3",
  "updatedAt": "2020-08-20T18:32:51.829Z",
  "devdoc": {
    "kind": "dev",
    "methods": {},
    "version": 1
  },
  "userdoc": {
    "kind": "user",
    "methods": {},
    "version": 1
  }
}