{
  "contractName": "Wormhole",
  "abi": [
    {
      "inputs": [
        {
          "components": [
            {
              "internalType": "address[]",
              "name": "keys",
              "type": "address[]"
            },
            {
              "internalType": "uint32",
              "name": "expiration_time",
              "type": "uint32"
            }
          ],
          "internalType": "struct Wormhole.GuardianSet",
          "name": "initial_guardian_set",
          "type": "tuple"
        },
        {
          "internalType": "address",
          "name": "wrapped_asset_master",
          "type": "address"
        },
        {
          "internalType": "uint32",
          "name": "_guardian_set_expirity",
          "type": "uint32"
        }
      ],
      "stateMutability": "nonpayable",
      "type": "constructor"
    },
    {
      "anonymous": false,
      "inputs": [
        {
          "indexed": false,
          "internalType": "uint32",
          "name": "oldGuardianIndex",
          "type": "uint32"
        },
        {
          "indexed": false,
          "internalType": "uint32",
          "name": "newGuardianIndex",
          "type": "uint32"
        }
      ],
      "name": "LogGuardianSetChanged",
      "type": "event"
    },
    {
      "anonymous": false,
      "inputs": [
        {
          "indexed": false,
          "internalType": "uint8",
          "name": "target_chain",
          "type": "uint8"
        },
        {
          "indexed": false,
          "internalType": "uint8",
          "name": "token_chain",
          "type": "uint8"
        },
        {
          "indexed": false,
          "internalType": "uint8",
          "name": "token_decimals",
          "type": "uint8"
        },
        {
          "indexed": true,
          "internalType": "bytes32",
          "name": "token",
          "type": "bytes32"
        },
        {
          "indexed": true,
          "internalType": "bytes32",
          "name": "sender",
          "type": "bytes32"
        },
        {
          "indexed": false,
          "internalType": "bytes32",
          "name": "recipient",
          "type": "bytes32"
        },
        {
          "indexed": false,
          "internalType": "uint256",
          "name": "amount",
          "type": "uint256"
        },
        {
          "indexed": false,
          "internalType": "uint32",
          "name": "nonce",
          "type": "uint32"
        }
      ],
      "name": "LogTokensLocked",
      "type": "event"
    },
    {
      "stateMutability": "payable",
      "type": "fallback"
    },
    {
      "inputs": [
        {
          "internalType": "bytes32",
          "name": "",
          "type": "bytes32"
        }
      ],
      "name": "consumedVAAs",
      "outputs": [
        {
          "internalType": "bool",
          "name": "",
          "type": "bool"
        }
      ],
      "stateMutability": "view",
      "type": "function"
    },
    {
      "inputs": [],
      "name": "guardian_set_expirity",
      "outputs": [
        {
          "internalType": "uint32",
          "name": "",
          "type": "uint32"
        }
      ],
      "stateMutability": "view",
      "type": "function"
    },
    {
      "inputs": [],
      "name": "guardian_set_index",
      "outputs": [
        {
          "internalType": "uint32",
          "name": "",
          "type": "uint32"
        }
      ],
      "stateMutability": "view",
      "type": "function"
    },
    {
      "inputs": [
        {
          "internalType": "uint32",
          "name": "",
          "type": "uint32"
        }
      ],
      "name": "guardian_sets",
      "outputs": [
        {
          "internalType": "uint32",
          "name": "expiration_time",
          "type": "uint32"
        }
      ],
      "stateMutability": "view",
      "type": "function"
    },
    {
      "inputs": [
        {
          "internalType": "address",
          "name": "",
          "type": "address"
        }
      ],
      "name": "isWrappedAsset",
      "outputs": [
        {
          "internalType": "bool",
          "name": "",
          "type": "bool"
        }
      ],
      "stateMutability": "view",
      "type": "function"
    },
    {
      "inputs": [],
      "name": "wrappedAssetMaster",
      "outputs": [
        {
          "internalType": "address",
          "name": "",
          "type": "address"
        }
      ],
      "stateMutability": "view",
      "type": "function"
    },
    {
      "inputs": [
        {
          "internalType": "bytes32",
          "name": "",
          "type": "bytes32"
        }
      ],
      "name": "wrappedAssets",
      "outputs": [
        {
          "internalType": "address",
          "name": "",
          "type": "address"
        }
      ],
      "stateMutability": "view",
      "type": "function"
    },
    {
      "stateMutability": "payable",
      "type": "receive"
    },
    {
      "inputs": [
        {
          "internalType": "uint32",
          "name": "idx",
          "type": "uint32"
        }
      ],
      "name": "getGuardianSet",
      "outputs": [
        {
          "components": [
            {
              "internalType": "address[]",
              "name": "keys",
              "type": "address[]"
            },
            {
              "internalType": "uint32",
              "name": "expiration_time",
              "type": "uint32"
            }
          ],
          "internalType": "struct Wormhole.GuardianSet",
          "name": "gs",
          "type": "tuple"
        }
      ],
      "stateMutability": "view",
      "type": "function"
    },
    {
      "inputs": [
        {
          "internalType": "bytes",
          "name": "vaa",
          "type": "bytes"
        }
      ],
      "name": "submitVAA",
      "outputs": [],
      "stateMutability": "nonpayable",
      "type": "function"
    },
    {
      "inputs": [
        {
          "internalType": "address",
          "name": "asset",
          "type": "address"
        },
        {
          "internalType": "uint256",
          "name": "amount",
          "type": "uint256"
        },
        {
          "internalType": "bytes32",
          "name": "recipient",
          "type": "bytes32"
        },
        {
          "internalType": "uint8",
          "name": "target_chain",
          "type": "uint8"
        },
        {
          "internalType": "uint32",
          "name": "nonce",
          "type": "uint32"
        }
      ],
      "name": "lockAssets",
      "outputs": [],
      "stateMutability": "nonpayable",
      "type": "function"
    },
    {
      "inputs": [
        {
          "internalType": "bytes32",
          "name": "recipient",
          "type": "bytes32"
        },
        {
          "internalType": "uint8",
          "name": "target_chain",
          "type": "uint8"
        },
        {
          "internalType": "uint32",
          "name": "nonce",
          "type": "uint32"
        }
      ],
      "name": "lockETH",
      "outputs": [],
      "stateMutability": "payable",
      "type": "function"
    }
  ],
  "bytecode": "0x60806040526002600160146101000a81548160ff021916908360ff1602179055503480156200002d57600080fd5b50604051620037993803806200379983398181016040528101906200005391906200033e565b600160008190555082600260008063ffffffff1681526020019081526020016000206000820151816000019080519060200190620000939291906200014b565b5060208201518160010160006101000a81548163ffffffff021916908363ffffffff1602179055509050506000600360006101000a81548163ffffffff021916908363ffffffff16021790555080600360046101000a81548163ffffffff021916908363ffffffff16021790555081600160006101000a81548173ffffffffffffffffffffffffffffffffffffffff021916908373ffffffffffffffffffffffffffffffffffffffff1602179055505050506200047c565b828054828255906000526020600020908101928215620001c7579160200282015b82811115620001c65782518260006101000a81548173ffffffffffffffffffffffffffffffffffffffff021916908373ffffffffffffffffffffffffffffffffffffffff160217905550916020019190600101906200016c565b5b509050620001d69190620001da565b5090565b5b808211156200021357600081816101000a81549073ffffffffffffffffffffffffffffffffffffffff021916905550600101620001db565b5090565b600081519050620002288162000448565b92915050565b600082601f8301126200024057600080fd5b8151620002576200025182620003db565b620003ad565b915081818352602084019350602081019050838560208402820111156200027d57600080fd5b60005b83811015620002b1578162000296888262000217565b84526020840193506020830192505060018101905062000280565b5050505092915050565b600060408284031215620002ce57600080fd5b620002da6040620003ad565b9050600082015167ffffffffffffffff811115620002f757600080fd5b62000305848285016200022e565b60008301525060206200031b8482850162000327565b60208301525092915050565b600081519050620003388162000462565b92915050565b6000806000606084860312156200035457600080fd5b600084015167ffffffffffffffff8111156200036f57600080fd5b6200037d86828701620002bb565b9350506020620003908682870162000217565b9250506040620003a38682870162000327565b9150509250925092565b6000604051905081810181811067ffffffffffffffff82111715620003d157600080fd5b8060405250919050565b600067ffffffffffffffff821115620003f357600080fd5b602082029050602081019050919050565b6000620004118262000418565b9050919050565b600073ffffffffffffffffffffffffffffffffffffffff82169050919050565b600063ffffffff82169050919050565b620004538162000404565b81146200045f57600080fd5b50565b6200046d8162000438565b81146200047957600080fd5b50565b61330d806200048c6000396000f3fe6080604052600436106100a05760003560e01c806358d62e461161006457806358d62e4614610212578063822d82b31461022e57806399da1d3c14610259578063a31fe40914610284578063b6694c2a146102c1578063f951975a146102fe576100e0565b806313cca1a91461011b5780631a2be4da146101445780633bc0aee61461018157806342b0aefa146101aa5780634db47840146101e7576100e0565b366100e0576040517f08c379a00000000000000000000000000000000000000000000000000000000081526004016100d790612dbf565b60405180910390fd5b6040517f08c379a000000000000000000000000000000000000000000000000000000000815260040161011290612dbf565b60405180910390fd5b34801561012757600080fd5b50610142600480360381019061013d91906123c1565b61033b565b005b34801561015057600080fd5b5061016b60048036038101906101669190612398565b61080c565b6040516101789190612cfd565b60405180910390f35b34801561018d57600080fd5b506101a860048036038101906101a39190612502565b61082c565b005b3480156101b657600080fd5b506101d160048036038101906101cc9190612570565b6110a0565b6040516101de9190612f81565b60405180910390f35b3480156101f357600080fd5b506101fc6110ce565b6040516102099190612f81565b60405180910390f35b61022c600480360381019061022791906124b3565b6110e4565b005b34801561023a57600080fd5b50610243611291565b6040516102509190612f81565b60405180910390f35b34801561026557600080fd5b5061026e6112a7565b60405161027b9190612c3e565b60405180910390f35b34801561029057600080fd5b506102ab60048036038101906102a69190612461565b6112cd565b6040516102b89190612cfd565b60405180910390f35b3480156102cd57600080fd5b506102e860048036038101906102e39190612461565b6112ed565b6040516102f59190612c3e565b60405180910390f35b34801561030a57600080fd5b5061032560048036038101906103209190612570565b611320565b6040516103329190612f5f565b60405180910390f35b60026000541415610381576040517f08c379a000000000000000000000000000000000000000000000000000000000815260040161037890612f3f565b60405180910390fd5b600260008190555060008414156103cd576040517f08c379a00000000000000000000000000000000000000000000000000000000081526004016103c490612e7f565b60405180910390fd5b6000600160149054906101000a900460ff1690506000600660008873ffffffffffffffffffffffffffffffffffffffff1673ffffffffffffffffffffffffffffffffffffffff16815260200190815260200160002060009054906101000a900460ff16156105a7578673ffffffffffffffffffffffffffffffffffffffff16639dc29fac33886040518363ffffffff1660e01b8152600401610470929190612c74565b600060405180830381600087803b15801561048a57600080fd5b505af115801561049e573d6000803e3d6000fd5b505050508673ffffffffffffffffffffffffffffffffffffffff1663026b05396040518163ffffffff1660e01b815260040160206040518083038186803b1580156104e857600080fd5b505afa1580156104fc573d6000803e3d6000fd5b505050506040513d601f19601f820116820180604052508101906105209190612599565b91508673ffffffffffffffffffffffffffffffffffffffff16631ba46cfd6040518163ffffffff1660e01b815260040160206040518083038186803b15801561056857600080fd5b505afa15801561057c573d6000803e3d6000fd5b505050506040513d601f19601f820116820180604052508101906105a0919061248a565b9050610722565b60008773ffffffffffffffffffffffffffffffffffffffff166370a08231306040518263ffffffff1660e01b81526004016105e29190612c59565b60206040518083038186803b1580156105fa57600080fd5b505afa15801561060e573d6000803e3d6000fd5b505050506040513d601f19601f820116820180604052508101906106329190612547565b90506106613330898b73ffffffffffffffffffffffffffffffffffffffff1661140d909392919063ffffffff16565b60008873ffffffffffffffffffffffffffffffffffffffff166370a08231306040518263ffffffff1660e01b815260040161069c9190612c59565b60206040518083038186803b1580156106b457600080fd5b505afa1580156106c8573d6000803e3d6000fd5b505050506040513d601f19601f820116820180604052508101906106ec9190612547565b9050610701828261149690919063ffffffff16565b97508873ffffffffffffffffffffffffffffffffffffffff1660001b925050505b3373ffffffffffffffffffffffffffffffffffffffff1660001b817f6bbd554ad75919f71fd91bf917ca6e4f41c10f03ab25751596a22253bb39aab886858b73ffffffffffffffffffffffffffffffffffffffff1663313ce5676040518163ffffffff1660e01b815260040160206040518083038186803b1580156107a657600080fd5b505afa1580156107ba573d6000803e3d6000fd5b505050506040513d601f19601f820116820180604052508101906107de9190612599565b8a8c8a6040516107f39695949392919061305d565b60405180910390a3505060016000819055505050505050565b60066020528060005260406000206000915054906101000a900460ff1681565b60026000541415610872576040517f08c379a000000000000000000000000000000000000000000000000000000000815260040161086990612f3f565b60405180910390fd5b600260008190555060006108d4600084848080601f016020809104026020016040519081016040528093929190818152602001838380828437600081840152601f19601f820116905080830192505050505050506114e090919063ffffffff16565b905060018160ff161461091c576040517f08c379a000000000000000000000000000000000000000000000000000000000815260040161091390612e1f565b60405180910390fd5b6000610976600185858080601f016020809104026020016040519081016040528093929190818152602001838380828437600081840152601f19601f8201169050808301925050505050505061153e90919063ffffffff16565b905060006109d2600586868080601f016020809104026020016040519081016040528093929190818152602001838380828437600081840152601f19601f820116905080830192505050505050506114e090919063ffffffff16565b60ff16905060008160420260060190506000610a428283898990500389898080601f016020809104026020016040519081016040528093929190818152602001838380828437600081840152601f19601f8201169050808301925050505050505061159c9092919063ffffffff16565b8051906020012090506004600082815260200190815260200160002060009054906101000a900460ff1615610aac576040517f08c379a0000000000000000000000000000000000000000000000000000000008152600401610aa390612d9f565b60405180910390fd5b610ab46121ac565b600260008663ffffffff1663ffffffff16815260200190815260200160002060405180604001604052908160008201805480602002602001604051908101604052809291908181526020018280548015610b6357602002820191906000526020600020905b8160009054906101000a900473ffffffffffffffffffffffffffffffffffffffff1673ffffffffffffffffffffffffffffffffffffffff1681526020019060010190808311610b19575b505050505081526020016001820160009054906101000a900463ffffffff1663ffffffff1663ffffffff168152505090506000816020015163ffffffff161480610bb6575042816020015163ffffffff16115b610bf5576040517f08c379a0000000000000000000000000000000000000000000000000000000008152600401610bec90612ebf565b60405180910390fd5b8360016003600484600001515181610c0957fe5b0402011115610c4d576040517f08c379a0000000000000000000000000000000000000000000000000000000008152600401610c4490612e5f565b60405180910390fd5b60005b84811015610ec9576000610cb7604283026006018b8b8080601f016020809104026020016040519081016040528093929190818152602001838380828437600081840152601f19601f820116905080830192505050505050506114e090919063ffffffff16565b90506000610d18604284026007018c8c8080601f016020809104026020016040519081016040528093929190818152602001838380828437600081840152601f19601f8201169050808301925050505050505061165e90919063ffffffff16565b90506000610d79604285026027018d8d8080601f016020809104026020016040519081016040528093929190818152602001838380828437600081840152601f19601f8201169050808301925050505050505061165e90919063ffffffff16565b90506000610dda604286026047018e8e8080601f016020809104026020016040519081016040528093929190818152602001838380828437600081840152601f19601f820116905080830192505050505050506114e090919063ffffffff16565b9050601b8101905085600001518460ff1681518110610df557fe5b602002602001015173ffffffffffffffffffffffffffffffffffffffff1660018883868660405160008152602001604052604051610e369493929190612d18565b6020604051602081039080840390855afa158015610e58573d6000803e3d6000fd5b5050506020604051035173ffffffffffffffffffffffffffffffffffffffff1614610eb8576040517f08c379a0000000000000000000000000000000000000000000000000000000008152600401610eaf90612e3f565b60405180910390fd5b505050508080600101915050610c50565b506000610f26600485018a8a8080601f016020809104026020016040519081016040528093929190818152602001838380828437600081840152601f19601f820116905080830192505050505050506114e090919063ffffffff16565b90506060610f8e60058601600587018c8c9050038c8c8080601f016020809104026020016040519081016040528093929190818152602001838380828437600081840152601f19601f8201169050808301925050505050505061159c9092919063ffffffff16565b905060018260ff16141561100a57600360009054906101000a900463ffffffff1663ffffffff168763ffffffff1614610ffc576040517f08c379a0000000000000000000000000000000000000000000000000000000008152600401610ff390612ddf565b60405180910390fd5b611005816116bc565b611060565b60108260ff1614156110245761101f8161193a565b61105f565b6040517f08c379a000000000000000000000000000000000000000000000000000000000815260040161105690612d7f565b60405180910390fd5b5b60016004600086815260200190815260200160002060006101000a81548160ff021916908315150217905550505050505050505060016000819055505050565b60026020528060005260406000206000915090508060010160009054906101000a900463ffffffff16905081565b600360049054906101000a900463ffffffff1681565b6002600054141561112a576040517f08c379a000000000000000000000000000000000000000000000000000000000815260040161112190612f3f565b60405180910390fd5b60026000819055506000341415611176576040517f08c379a000000000000000000000000000000000000000000000000000000000815260040161116d90612e7f565b60405180910390fd5b73c02aaa39b223fe8d0a0e5c4f27ead9083c756cc273ffffffffffffffffffffffffffffffffffffffff1663d0e30db0346040518263ffffffff1660e01b81526004016000604051808303818588803b1580156111d257600080fd5b505af11580156111e6573d6000803e3d6000fd5b50505050503373ffffffffffffffffffffffffffffffffffffffff1660001b73c02aaa39b223fe8d0a0e5c4f27ead9083c756cc273ffffffffffffffffffffffffffffffffffffffff1660001b7f6bbd554ad75919f71fd91bf917ca6e4f41c10f03ab25751596a22253bb39aab884600160149054906101000a900460ff16601288348860405161127c96959493929190612ffc565b60405180910390a36001600081905550505050565b600360009054906101000a900463ffffffff1681565b600160009054906101000a900473ffffffffffffffffffffffffffffffffffffffff1681565b60046020528060005260406000206000915054906101000a900460ff1681565b60056020528060005260406000206000915054906101000a900473ffffffffffffffffffffffffffffffffffffffff1681565b6113286121ac565b600260008363ffffffff1663ffffffff168152602001908152602001600020604051806040016040529081600082018054806020026020016040519081016040528092919081815260200182805480156113d757602002820191906000526020600020905b8160009054906101000a900473ffffffffffffffffffffffffffffffffffffffff1673ffffffffffffffffffffffffffffffffffffffff168152602001906001019080831161138d575b505050505081526020016001820160009054906101000a900463ffffffff1663ffffffff1663ffffffff16815250509050919050565b611490846323b872dd60e01b85858560405160240161142e93929190612c9d565b604051602081830303815290604052907bffffffffffffffffffffffffffffffffffffffffffffffffffffffff19166020820180517bffffffffffffffffffffffffffffffffffffffffffffffffffffffff8381831617835250505050611c0a565b50505050565b60006114d883836040518060400160405280601e81526020017f536166654d6174683a207375627472616374696f6e206f766572666c6f770000815250611cd1565b905092915050565b60006001820183511015611529576040517f08c379a000000000000000000000000000000000000000000000000000000000815260040161152090612dff565b60405180910390fd5b60008260018501015190508091505092915050565b60006004820183511015611587576040517f08c379a000000000000000000000000000000000000000000000000000000000815260040161157e90612dff565b60405180910390fd5b60008260048501015190508091505092915050565b6060818301845110156115e4576040517f08c379a00000000000000000000000000000000000000000000000000000000081526004016115db90612dff565b60405180910390fd5b606082156000811461160157604051915060208201604052611652565b6040519150601f8416801560200281840101858101878315602002848b0101015b8183101561163f5780518352602083019250602081019050611622565b50868552601f19601f8301166040525050505b50809150509392505050565b600060208201835110156116a7576040517f08c379a000000000000000000000000000000000000000000000000000000000815260040161169e90612dff565b60405180910390fd5b60008260208501015190508091505092915050565b60006116d260008361153e90919063ffffffff16565b905060006116ea6004846114e090919063ffffffff16565b905060608160ff1667ffffffffffffffff8111801561170857600080fd5b506040519080825280602002602001820160405280156117375781602001602082028036833780820191505090505b50905060005b8260ff168110156117ba5760006117636014830260050187611d2c90919063ffffffff16565b90508083838151811061177257fe5b602002602001019073ffffffffffffffffffffffffffffffffffffffff16908173ffffffffffffffffffffffffffffffffffffffff168152505050808060010191505061173d565b506000600360009054906101000a900463ffffffff16905083600360006101000a81548163ffffffff021916908363ffffffff1602179055506117fb6121ac565b6040518060400160405280848152602001600063ffffffff1681525090508060026000600360009054906101000a900463ffffffff1663ffffffff1663ffffffff16815260200190815260200160002060008201518160000190805190602001906118679291906121cc565b5060208201518160010160006101000a81548163ffffffff021916908363ffffffff160217905550905050600360049054906101000a900463ffffffff164201600260008463ffffffff1663ffffffff16815260200190815260200160002060010160006101000a81548163ffffffff021916908363ffffffff1602179055507fdfb80683934199683861bf00b64ecdf0984bbaf661bf27983dba382e99297a6282600360009054906101000a900463ffffffff1660405161192a929190612f9c565b60405180910390a1505050505050565b60006119506004836114e090919063ffffffff16565b905060006119686005846114e090919063ffffffff16565b90506000611980603285611d2c90919063ffffffff16565b905060006119986046866114e090919063ffffffff16565b905060006119b0606887611d9990919063ffffffff16565b90508360ff168560ff1614156119fb576040517f08c379a00000000000000000000000000000000000000000000000000000000081526004016119f290612f1f565b60405180910390fd5b600160149054906101000a900460ff1660ff168460ff1614611a52576040517f08c379a0000000000000000000000000000000000000000000000000000000008152600401611a4990612e9f565b60405180910390fd5b600160149054906101000a900460ff1660ff168260ff1614611bbd576000611a8460478861165e90919063ffffffff16565b905060008382604051602001611a9b929190612c12565b60405160208183030381529060405280519060200120905060006005600083815260200190815260200160002060009054906101000a900473ffffffffffffffffffffffffffffffffffffffff169050600073ffffffffffffffffffffffffffffffffffffffff168173ffffffffffffffffffffffffffffffffffffffff161415611b48576000611b3660678b6114e090919063ffffffff16565b9050611b4483878684611df7565b9150505b8073ffffffffffffffffffffffffffffffffffffffff166340c10f1987866040518363ffffffff1660e01b8152600401611b83929190612cd4565b600060405180830381600087803b158015611b9d57600080fd5b505af1158015611bb1573d6000803e3d6000fd5b50505050505050611c02565b6000611bd3605388611d2c90919063ffffffff16565b9050611c0084838373ffffffffffffffffffffffffffffffffffffffff16611fa09092919063ffffffff16565b505b505050505050565b6060611c6c826040518060400160405280602081526020017f5361666545524332303a206c6f772d6c6576656c2063616c6c206661696c65648152508573ffffffffffffffffffffffffffffffffffffffff166120269092919063ffffffff16565b9050600081511115611ccc5780806020019051810190611c8c9190612438565b611ccb576040517f08c379a0000000000000000000000000000000000000000000000000000000008152600401611cc290612eff565b60405180910390fd5b5b505050565b6000838311158290611d19576040517f08c379a0000000000000000000000000000000000000000000000000000000008152600401611d109190612d5d565b60405180910390fd5b5060008385039050809150509392505050565b60006014820183511015611d75576040517f08c379a0000000000000000000000000000000000000000000000000000000008152600401611d6c90612dff565b60405180910390fd5b60006c01000000000000000000000000836020860101510490508091505092915050565b60006020820183511015611de2576040517f08c379a0000000000000000000000000000000000000000000000000000000008152600401611dd990612dff565b60405180910390fd5b60008260208501015190508091505092915050565b600080600160009054906101000a900473ffffffffffffffffffffffffffffffffffffffff1660601b90506040517f3d602d80600a3d3981f3363d3d373d3d3d363d7300000000000000000000000081528160148201527f5af43d82803e903d91602b57fd5bf300000000000000000000000000000000006028820152866037826000f59250508173ffffffffffffffffffffffffffffffffffffffff1663a7a2d3fb8686866040518463ffffffff1660e01b8152600401611ebb93929190612fc5565b600060405180830381600087803b158015611ed557600080fd5b505af1158015611ee9573d6000803e3d6000fd5b50505050816005600088815260200190815260200160002060006101000a81548173ffffffffffffffffffffffffffffffffffffffff021916908373ffffffffffffffffffffffffffffffffffffffff1602179055506001600660008473ffffffffffffffffffffffffffffffffffffffff1673ffffffffffffffffffffffffffffffffffffffff16815260200190815260200160002060006101000a81548160ff02191690831515021790555050949350505050565b6120218363a9059cbb60e01b8484604051602401611fbf929190612cd4565b604051602081830303815290604052907bffffffffffffffffffffffffffffffffffffffffffffffffffffffff19166020820180517bffffffffffffffffffffffffffffffffffffffffffffffffffffffff8381831617835250505050611c0a565b505050565b6060612035848460008561203e565b90509392505050565b606061204985612161565b612088576040517f08c379a000000000000000000000000000000000000000000000000000000000815260040161207f90612edf565b60405180910390fd5b600060608673ffffffffffffffffffffffffffffffffffffffff1685876040516120b29190612bfb565b60006040518083038185875af1925050503d80600081146120ef576040519150601f19603f3d011682016040523d82523d6000602084013e6120f4565b606091505b50915091508115612109578092505050612159565b60008151111561211c5780518082602001fd5b836040517f08c379a00000000000000000000000000000000000000000000000000000000081526004016121509190612d5d565b60405180910390fd5b949350505050565b60008060007fc5d2460186f7233c927e7db2dcc703c0e500b653ca82273b7bfad8045d85a47060001b9050833f91508082141580156121a357506000801b8214155b92505050919050565b604051806040016040528060608152602001600063ffffffff1681525090565b828054828255906000526020600020908101928215612245579160200282015b828111156122445782518260006101000a81548173ffffffffffffffffffffffffffffffffffffffff021916908373ffffffffffffffffffffffffffffffffffffffff160217905550916020019190600101906121ec565b5b5090506122529190612256565b5090565b5b8082111561228d57600081816101000a81549073ffffffffffffffffffffffffffffffffffffffff021916905550600101612257565b5090565b6000813590506122a08161324d565b92915050565b6000815190506122b581613264565b92915050565b6000813590506122ca8161327b565b92915050565b6000815190506122df8161327b565b92915050565b60008083601f8401126122f757600080fd5b8235905067ffffffffffffffff81111561231057600080fd5b60208301915083600182028301111561232857600080fd5b9250929050565b60008135905061233e81613292565b92915050565b60008151905061235381613292565b92915050565b600081359050612368816132a9565b92915050565b60008135905061237d816132c0565b92915050565b600081519050612392816132c0565b92915050565b6000602082840312156123aa57600080fd5b60006123b884828501612291565b91505092915050565b600080600080600060a086880312156123d957600080fd5b60006123e788828901612291565b95505060206123f88882890161232f565b9450506040612409888289016122bb565b935050606061241a8882890161236e565b925050608061242b88828901612359565b9150509295509295909350565b60006020828403121561244a57600080fd5b6000612458848285016122a6565b91505092915050565b60006020828403121561247357600080fd5b6000612481848285016122bb565b91505092915050565b60006020828403121561249c57600080fd5b60006124aa848285016122d0565b91505092915050565b6000806000606084860312156124c857600080fd5b60006124d6868287016122bb565b93505060206124e78682870161236e565b92505060406124f886828701612359565b9150509250925092565b6000806020838503121561251557600080fd5b600083013567ffffffffffffffff81111561252f57600080fd5b61253b858286016122e5565b92509250509250929050565b60006020828403121561255957600080fd5b600061256784828501612344565b91505092915050565b60006020828403121561258257600080fd5b600061259084828501612359565b91505092915050565b6000602082840312156125ab57600080fd5b60006125b984828501612383565b91505092915050565b60006125ce83836125e9565b60208301905092915050565b6125e381613198565b82525050565b6125f281613129565b82525050565b61260181613129565b82525050565b6000612612826130ce565b61261c81856130fc565b9350612627836130be565b8060005b8381101561265857815161263f88826125c2565b975061264a836130ef565b92505060018101905061262b565b5085935050505092915050565b61266e8161313b565b82525050565b61267d81613147565b82525050565b61269461268f82613147565b613213565b82525050565b60006126a5826130d9565b6126af818561310d565b93506126bf8185602086016131e0565b80840191505092915050565b6126d4816131aa565b82525050565b60006126e5826130e4565b6126ef8185613118565b93506126ff8185602086016131e0565b6127088161322f565b840191505092915050565b6000612720601283613118565b91507f696e76616c69642056414120616374696f6e00000000000000000000000000006000830152602082019050919050565b6000612760601883613118565b91507f5641412077617320616c726561647920657865637574656400000000000000006000830152602082019050919050565b60006127a0602c83613118565b91507f706c6561736520757365206c6f636b45544820746f207472616e73666572204560008301527f544820746f20536f6c616e6100000000000000000000000000000000000000006020830152604082019050919050565b6000612806603983613118565b91507f6f6e6c79207468652063757272656e7420677561726469616e2073657420636160008301527f6e206368616e67652074686520677561726469616e20736574000000000000006020830152604082019050919050565b600061286c601283613118565b91507f52656164206f7574206f6620626f756e647300000000000000000000000000006000830152602082019050919050565b60006128ac601883613118565b91507f5641412076657273696f6e20696e636f6d70617469626c6500000000000000006000830152602082019050919050565b60006128ec601583613118565b91507f564141207369676e617475726520696e76616c696400000000000000000000006000830152602082019050919050565b600061292c600983613118565b91507f6e6f2071756f72756d00000000000000000000000000000000000000000000006000830152602082019050919050565b600061296c601483613118565b91507f616d6f756e74206d757374206e6f7420626520300000000000000000000000006000830152602082019050919050565b60006129ac601983613118565b91507f7472616e73666572206d75737420626520696e636f6d696e67000000000000006000830152602082019050919050565b60006129ec601883613118565b91507f677561726469616e2073657420686173206578706972656400000000000000006000830152602082019050919050565b6000612a2c601d83613118565b91507f416464726573733a2063616c6c20746f206e6f6e2d636f6e74726163740000006000830152602082019050919050565b6000612a6c602a83613118565b91507f5361666545524332303a204552433230206f7065726174696f6e20646964206e60008301527f6f742073756363656564000000000000000000000000000000000000000000006020830152604082019050919050565b6000612ad2602683613118565b91507f73616d6520636861696e207472616e736665727320617265206e6f742073757060008301527f706f7274656400000000000000000000000000000000000000000000000000006020830152604082019050919050565b6000612b38601f83613118565b91507f5265656e7472616e637947756172643a207265656e7472616e742063616c6c006000830152602082019050919050565b60006040830160008301518482036000860152612b888282612607565b9150506020830151612b9d6020860182612bb7565b508091505092915050565b612bb181613171565b82525050565b612bc08161317b565b82525050565b612bcf8161317b565b82525050565b612bde8161318b565b82525050565b612bf5612bf08261318b565b61321d565b82525050565b6000612c07828461269a565b915081905092915050565b6000612c1e8285612be4565b600182019150612c2e8284612683565b6020820191508190509392505050565b6000602082019050612c5360008301846125f8565b92915050565b6000602082019050612c6e60008301846125da565b92915050565b6000604082019050612c8960008301856125da565b612c966020830184612ba8565b9392505050565b6000606082019050612cb260008301866125f8565b612cbf60208301856125f8565b612ccc6040830184612ba8565b949350505050565b6000604082019050612ce960008301856125f8565b612cf66020830184612ba8565b9392505050565b6000602082019050612d126000830184612665565b92915050565b6000608082019050612d2d6000830187612674565b612d3a6020830186612bd5565b612d476040830185612674565b612d546060830184612674565b95945050505050565b60006020820190508181036000830152612d7781846126da565b905092915050565b60006020820190508181036000830152612d9881612713565b9050919050565b60006020820190508181036000830152612db881612753565b9050919050565b60006020820190508181036000830152612dd881612793565b9050919050565b60006020820190508181036000830152612df8816127f9565b9050919050565b60006020820190508181036000830152612e188161285f565b9050919050565b60006020820190508181036000830152612e388161289f565b9050919050565b60006020820190508181036000830152612e58816128df565b9050919050565b60006020820190508181036000830152612e788161291f565b9050919050565b60006020820190508181036000830152612e988161295f565b9050919050565b60006020820190508181036000830152612eb88161299f565b9050919050565b60006020820190508181036000830152612ed8816129df565b9050919050565b60006020820190508181036000830152612ef881612a1f565b9050919050565b60006020820190508181036000830152612f1881612a5f565b9050919050565b60006020820190508181036000830152612f3881612ac5565b9050919050565b60006020820190508181036000830152612f5881612b2b565b9050919050565b60006020820190508181036000830152612f798184612b6b565b905092915050565b6000602082019050612f966000830184612bc6565b92915050565b6000604082019050612fb16000830185612bc6565b612fbe6020830184612bc6565b9392505050565b6000606082019050612fda6000830186612bd5565b612fe76020830185612674565b612ff46040830184612bd5565b949350505050565b600060c0820190506130116000830189612bd5565b61301e6020830188612bd5565b61302b60408301876126cb565b6130386060830186612674565b6130456080830185612ba8565b61305260a0830184612bc6565b979650505050505050565b600060c0820190506130726000830189612bd5565b61307f6020830188612bd5565b61308c6040830187612bd5565b6130996060830186612674565b6130a66080830185612ba8565b6130b360a0830184612bc6565b979650505050505050565b6000819050602082019050919050565b600081519050919050565b600081519050919050565b600081519050919050565b6000602082019050919050565b600082825260208201905092915050565b600081905092915050565b600082825260208201905092915050565b600061313482613151565b9050919050565b60008115159050919050565b6000819050919050565b600073ffffffffffffffffffffffffffffffffffffffff82169050919050565b6000819050919050565b600063ffffffff82169050919050565b600060ff82169050919050565b60006131a3826131bc565b9050919050565b60006131b58261318b565b9050919050565b60006131c7826131ce565b9050919050565b60006131d982613151565b9050919050565b60005b838110156131fe5780820151818401526020810190506131e3565b8381111561320d576000848401525b50505050565b6000819050919050565b600061322882613240565b9050919050565b6000601f19601f8301169050919050565b60008160f81b9050919050565b61325681613129565b811461326157600080fd5b50565b61326d8161313b565b811461327857600080fd5b50565b61328481613147565b811461328f57600080fd5b50565b61329b81613171565b81146132a657600080fd5b50565b6132b28161317b565b81146132bd57600080fd5b50565b6132c98161318b565b81146132d457600080fd5b5056fea26469706673582212208f3f419adeb7ca3cd853715b74fc3a8cacdc215c41169446b0565304bd3fa34364736f6c634300060c0033",
  "immutableReferences": {},
  "source": "// contracts/Wormhole.sol\n// SPDX-License-Identifier: Apache 2\n\n// TODO(hendrik): switch-over feature\n\npragma solidity ^0.6.0;\npragma experimental ABIEncoderV2;\n\nimport \"@openzeppelin/contracts/token/ERC20/ERC20.sol\";\nimport \"@openzeppelin/contracts/token/ERC20/IERC20.sol\";\nimport \"@openzeppelin/contracts/token/ERC20/SafeERC20.sol\";\nimport \"@openzeppelin/contracts/math/SafeMath.sol\";\nimport \"@openzeppelin/contracts/utils/ReentrancyGuard.sol\";\nimport \"./BytesLib.sol\";\nimport \"./WrappedAsset.sol\";\n\ncontract Wormhole is ReentrancyGuard {\n    using SafeERC20 for IERC20;\n    using BytesLib for bytes;\n    using SafeMath for uint256;\n\n    // Address of the Wrapped asset template\n    address public wrappedAssetMaster;\n\n    // Chain ID of Ethereum\n    uint8 CHAIN_ID = 2;\n\n    // Address of the official WETH contract\n    address constant WETHAddress = 0xC02aaA39b223FE8D0A0e5C4F27eAD9083C756Cc2;\n\n    struct GuardianSet {\n        address[] keys;\n        uint32 expiration_time;\n    }\n\n    event LogGuardianSetChanged(\n        uint32 oldGuardianIndex,\n        uint32 newGuardianIndex\n    );\n\n    event LogTokensLocked(\n        uint8 target_chain,\n        uint8 token_chain,\n        uint8 token_decimals,\n        bytes32 indexed token,\n        bytes32 indexed sender,\n        bytes32 recipient,\n        uint256 amount,\n        uint32 nonce\n    );\n\n    // Mapping of guardian_set_index => guardian set\n    mapping(uint32 => GuardianSet) public guardian_sets;\n    // Current active guardian set\n    uint32 public guardian_set_index;\n\n    // Period for which a guardian set stays active after it has been replaced\n    uint32 public guardian_set_expirity;\n\n    // Mapping of already consumedVAAs\n    mapping(bytes32 => bool) public consumedVAAs;\n\n    // Mapping of wrapped asset ERC20 contracts\n    mapping(bytes32 => address) public wrappedAssets;\n    mapping(address => bool) public isWrappedAsset;\n\n    constructor(GuardianSet memory initial_guardian_set, address wrapped_asset_master, uint32 _guardian_set_expirity) public {\n        guardian_sets[0] = initial_guardian_set;\n        // Explicitly set for doc purposes\n        guardian_set_index = 0;\n        guardian_set_expirity = _guardian_set_expirity;\n\n        wrappedAssetMaster = wrapped_asset_master;\n    }\n\n    function getGuardianSet(uint32 idx) view public returns (GuardianSet memory gs) {\n        return guardian_sets[idx];\n    }\n\n    function submitVAA(\n        bytes calldata vaa\n    ) public nonReentrant {\n        uint8 version = vaa.toUint8(0);\n        require(version == 1, \"VAA version incompatible\");\n\n        // Load 4 bytes starting from index 1\n        uint32 vaa_guardian_set_index = vaa.toUint32(1);\n\n        uint256 len_signers = vaa.toUint8(5);\n        uint offset = 6 + 66 * len_signers;\n\n        // Load 4 bytes timestamp\n        //uint32 timestamp = vaa.toUint32(offset);\n\n        // Hash the body\n        bytes32 hash = keccak256(vaa.slice(offset, vaa.length - offset));\n        require(!consumedVAAs[hash], \"VAA was already executed\");\n\n        GuardianSet memory guardian_set = guardian_sets[vaa_guardian_set_index];\n        require(guardian_set.expiration_time == 0 || guardian_set.expiration_time > block.timestamp, \"guardian set has expired\");\n        require(((guardian_set.keys.length / 4) * 3) + 1 <= len_signers, \"no quorum\");\n\n        for (uint i = 0; i < len_signers; i++) {\n            uint8 index = vaa.toUint8(6 + i * 66);\n            bytes32 r = vaa.toBytes32(7 + i * 66);\n            bytes32 s = vaa.toBytes32(39 + i * 66);\n            uint8 v = vaa.toUint8(71 + i * 66);\n            v += 27;\n            require(ecrecover(hash, v, r, s) == guardian_set.keys[index], \"VAA signature invalid\");\n        }\n\n        uint8 action = vaa.toUint8(offset + 4);\n        bytes memory payload = vaa.slice(offset + 5, vaa.length - (offset + 5));\n\n        // Process VAA\n        if (action == 0x01) {\n            require(vaa_guardian_set_index == guardian_set_index, \"only the current guardian set can change the guardian set\");\n            vaaUpdateGuardianSet(payload);\n        } else if (action == 0x10) {\n            vaaTransfer(payload);\n        } else {\n            revert(\"invalid VAA action\");\n        }\n\n        // Set the VAA as consumed\n        consumedVAAs[hash] = true;\n    }\n\n    function vaaUpdateGuardianSet(bytes memory data) private {\n        uint32 new_guardian_set_index = data.toUint32(0);\n        uint8 len = data.toUint8(4);\n\n        address[] memory new_guardians = new address[](len);\n        for (uint i = 0; i < len; i++) {\n            address addr = data.toAddress(5 + i * 20);\n            new_guardians[i] = addr;\n        }\n\n        uint32 old_guardian_set_index = guardian_set_index;\n        guardian_set_index = new_guardian_set_index;\n\n        GuardianSet memory new_guardian_set = GuardianSet(new_guardians, 0);\n        guardian_sets[guardian_set_index] = new_guardian_set;\n        guardian_sets[old_guardian_set_index].expiration_time = uint32(block.timestamp) + guardian_set_expirity;\n\n        emit LogGuardianSetChanged(old_guardian_set_index, guardian_set_index);\n    }\n\n    function vaaTransfer(bytes memory data) private {\n        //uint32 nonce = data.toUint64(0);\n        uint8 source_chain = data.toUint8(4);\n\n        uint8 target_chain = data.toUint8(5);\n        //bytes32 source_address = data.toBytes32(6);\n        //bytes32 target_address = data.toBytes32(38);\n        address target_address = data.toAddress(38 + 12);\n\n        uint8 token_chain = data.toUint8(70);\n        //bytes32 token_address = data.toBytes32(71);\n        uint256 amount = data.toUint256(104);\n\n        require(source_chain != target_chain, \"same chain transfers are not supported\");\n        require(target_chain == CHAIN_ID, \"transfer must be incoming\");\n\n        if (token_chain != CHAIN_ID) {\n            bytes32 token_address = data.toBytes32(71);\n            bytes32 asset_id = keccak256(abi.encodePacked(token_chain, token_address));\n\n            // if yes: mint to address\n            // if no: create and mint\n            address wrapped_asset = wrappedAssets[asset_id];\n            if (wrapped_asset == address(0)) {\n                uint8 asset_decimals = data.toUint8(103);\n                wrapped_asset = deployWrappedAsset(asset_id, token_chain, token_address, asset_decimals);\n            }\n\n            WrappedAsset(wrapped_asset).mint(target_address, amount);\n        } else {\n            address token_address = data.toAddress(71 + 12);\n\n            IERC20(token_address).safeTransfer(target_address, amount);\n        }\n    }\n\n    function deployWrappedAsset(bytes32 seed, uint8 token_chain, bytes32 token_address, uint8 decimals) private returns (address asset){\n        // Taken from https://github.com/OpenZeppelin/openzeppelin-sdk/blob/master/packages/lib/contracts/upgradeability/ProxyFactory.sol\n        // Licensed under MIT\n        bytes20 targetBytes = bytes20(wrappedAssetMaster);\n        assembly {\n            let clone := mload(0x40)\n            mstore(clone, 0x3d602d80600a3d3981f3363d3d373d3d3d363d73000000000000000000000000)\n            mstore(add(clone, 0x14), targetBytes)\n            mstore(add(clone, 0x28), 0x5af43d82803e903d91602b57fd5bf30000000000000000000000000000000000)\n            asset := create2(0, clone, 0x37, seed)\n        }\n\n        // Call initializer\n        WrappedAsset(asset).initialize(token_chain, token_address, decimals);\n\n        // Store address\n        wrappedAssets[seed] = asset;\n        isWrappedAsset[asset] = true;\n    }\n\n    function lockAssets(\n        address asset,\n        uint256 amount,\n        bytes32 recipient,\n        uint8 target_chain,\n        uint32 nonce\n    ) public nonReentrant {\n        require(amount != 0, \"amount must not be 0\");\n\n        uint8 asset_chain = CHAIN_ID;\n        bytes32 asset_address;\n        if (isWrappedAsset[asset]) {\n            WrappedAsset(asset).burn(msg.sender, amount);\n            asset_chain = WrappedAsset(asset).assetChain();\n            asset_address = WrappedAsset(asset).assetAddress();\n        } else {\n            uint256 balanceBefore = IERC20(asset).balanceOf(address(this));\n            IERC20(asset).safeTransferFrom(msg.sender, address(this), amount);\n            uint256 balanceAfter = IERC20(asset).balanceOf(address(this));\n\n            // The amount that was transferred in is the delta between balance before and after the transfer.\n            // This is to properly handle tokens that charge a fee on transfer.\n            amount = balanceAfter.sub(balanceBefore);\n            asset_address = bytes32(uint256(asset));\n        }\n\n        emit LogTokensLocked(target_chain, asset_chain, ERC20(asset).decimals(), asset_address, bytes32(uint256(msg.sender)), recipient, amount, nonce);\n    }\n\n    function lockETH(\n        bytes32 recipient,\n        uint8 target_chain,\n        uint32 nonce\n    ) public payable nonReentrant {\n        require(msg.value != 0, \"amount must not be 0\");\n\n        // Wrap tx value in WETH\n        WETH(WETHAddress).deposit{value : msg.value}();\n\n        // Log deposit of WETH\n        emit LogTokensLocked(target_chain, CHAIN_ID, 18, bytes32(uint256(WETHAddress)), bytes32(uint256(msg.sender)), recipient, msg.value, nonce);\n    }\n\n\nfallback() external payable {revert(\"please use lockETH to transfer ETH to Solana\");}\nreceive() external payable {revert(\"please use lockETH to transfer ETH to Solana\");}\n}\n\n\ninterface WETH is IERC20 {\nfunction deposit() external payable;\n\nfunction withdraw(uint256 amount) external;\n}\n",
  "sourcePath": "/home/hhofstadt/Dev/certus/wormhole/ethereum/contracts/Wormhole.sol",
  "compiler": {
    "name": "solc",
    "version": "0.6.12+commit.27d51765.Emscripten.clang"
  },
  "schemaVersion": "3.2.3",
  "updatedAt": "2020-08-28T09:22:10.553Z",
  "devdoc": {
    "kind": "dev",
    "methods": {},
    "version": 1
  },
  "userdoc": {
    "kind": "user",
    "methods": {},
    "version": 1
  }
}