{
  "contractName": "Wormhole",
  "abi": [
    {
      "inputs": [
        {
          "components": [
            {
              "internalType": "address[]",
              "name": "keys",
              "type": "address[]"
            },
            {
              "internalType": "uint32",
              "name": "expiration_time",
              "type": "uint32"
            }
          ],
          "internalType": "struct Wormhole.GuardianSet",
          "name": "initial_guardian_set",
          "type": "tuple"
        },
        {
          "internalType": "address",
          "name": "wrapped_asset_master",
          "type": "address"
        },
        {
          "internalType": "uint32",
          "name": "_guardian_set_expirity",
          "type": "uint32"
        }
      ],
      "stateMutability": "nonpayable",
      "type": "constructor"
    },
    {
      "anonymous": false,
      "inputs": [
        {
          "indexed": false,
          "internalType": "uint32",
          "name": "oldGuardianIndex",
          "type": "uint32"
        },
        {
          "indexed": false,
          "internalType": "uint32",
          "name": "newGuardianIndex",
          "type": "uint32"
        }
      ],
      "name": "LogGuardianSetChanged",
      "type": "event"
    },
    {
      "anonymous": false,
      "inputs": [
        {
          "indexed": false,
          "internalType": "uint8",
          "name": "target_chain",
          "type": "uint8"
        },
        {
          "indexed": false,
          "internalType": "uint8",
          "name": "token_chain",
          "type": "uint8"
        },
        {
          "indexed": false,
          "internalType": "uint8",
          "name": "token_decimals",
          "type": "uint8"
        },
        {
          "indexed": true,
          "internalType": "bytes32",
          "name": "token",
          "type": "bytes32"
        },
        {
          "indexed": true,
          "internalType": "bytes32",
          "name": "sender",
          "type": "bytes32"
        },
        {
          "indexed": false,
          "internalType": "bytes32",
          "name": "recipient",
          "type": "bytes32"
        },
        {
          "indexed": false,
          "internalType": "uint256",
          "name": "amount",
          "type": "uint256"
        },
        {
          "indexed": false,
          "internalType": "uint32",
          "name": "nonce",
          "type": "uint32"
        }
      ],
      "name": "LogTokensLocked",
      "type": "event"
    },
    {
      "stateMutability": "payable",
      "type": "fallback"
    },
    {
      "inputs": [
        {
          "internalType": "bytes32",
          "name": "",
          "type": "bytes32"
        }
      ],
      "name": "consumedVAAs",
      "outputs": [
        {
          "internalType": "bool",
          "name": "",
          "type": "bool"
        }
      ],
      "stateMutability": "view",
      "type": "function"
    },
    {
      "inputs": [],
      "name": "guardian_set_expirity",
      "outputs": [
        {
          "internalType": "uint32",
          "name": "",
          "type": "uint32"
        }
      ],
      "stateMutability": "view",
      "type": "function"
    },
    {
      "inputs": [],
      "name": "guardian_set_index",
      "outputs": [
        {
          "internalType": "uint32",
          "name": "",
          "type": "uint32"
        }
      ],
      "stateMutability": "view",
      "type": "function"
    },
    {
      "inputs": [
        {
          "internalType": "uint32",
          "name": "",
          "type": "uint32"
        }
      ],
      "name": "guardian_sets",
      "outputs": [
        {
          "internalType": "uint32",
          "name": "expiration_time",
          "type": "uint32"
        }
      ],
      "stateMutability": "view",
      "type": "function"
    },
    {
      "inputs": [
        {
          "internalType": "address",
          "name": "",
          "type": "address"
        }
      ],
      "name": "isWrappedAsset",
      "outputs": [
        {
          "internalType": "bool",
          "name": "",
          "type": "bool"
        }
      ],
      "stateMutability": "view",
      "type": "function"
    },
    {
      "inputs": [],
      "name": "wrappedAssetMaster",
      "outputs": [
        {
          "internalType": "address",
          "name": "",
          "type": "address"
        }
      ],
      "stateMutability": "view",
      "type": "function"
    },
    {
      "inputs": [
        {
          "internalType": "bytes32",
          "name": "",
          "type": "bytes32"
        }
      ],
      "name": "wrappedAssets",
      "outputs": [
        {
          "internalType": "address",
          "name": "",
          "type": "address"
        }
      ],
      "stateMutability": "view",
      "type": "function"
    },
    {
      "stateMutability": "payable",
      "type": "receive"
    },
    {
      "inputs": [
        {
          "internalType": "uint32",
          "name": "idx",
          "type": "uint32"
        }
      ],
      "name": "getGuardianSet",
      "outputs": [
        {
          "components": [
            {
              "internalType": "address[]",
              "name": "keys",
              "type": "address[]"
            },
            {
              "internalType": "uint32",
              "name": "expiration_time",
              "type": "uint32"
            }
          ],
          "internalType": "struct Wormhole.GuardianSet",
          "name": "gs",
          "type": "tuple"
        }
      ],
      "stateMutability": "view",
      "type": "function"
    },
    {
      "inputs": [
        {
          "internalType": "bytes",
          "name": "vaa",
          "type": "bytes"
        }
      ],
      "name": "submitVAA",
      "outputs": [],
      "stateMutability": "nonpayable",
      "type": "function"
    },
    {
      "inputs": [
        {
          "internalType": "address",
          "name": "asset",
          "type": "address"
        },
        {
          "internalType": "uint256",
          "name": "amount",
          "type": "uint256"
        },
        {
          "internalType": "bytes32",
          "name": "recipient",
          "type": "bytes32"
        },
        {
          "internalType": "uint8",
          "name": "target_chain",
          "type": "uint8"
        },
        {
          "internalType": "uint32",
          "name": "nonce",
          "type": "uint32"
        },
        {
          "internalType": "bool",
          "name": "refund_dust",
          "type": "bool"
        }
      ],
      "name": "lockAssets",
      "outputs": [],
      "stateMutability": "nonpayable",
      "type": "function"
    },
    {
      "inputs": [
        {
          "internalType": "bytes32",
          "name": "recipient",
          "type": "bytes32"
        },
        {
          "internalType": "uint8",
          "name": "target_chain",
          "type": "uint8"
        },
        {
          "internalType": "uint32",
          "name": "nonce",
          "type": "uint32"
        }
      ],
      "name": "lockETH",
      "outputs": [],
      "stateMutability": "payable",
      "type": "function"
    }
  ],
  "bytecode": "0x60806040526002600160146101000a81548160ff021916908360ff1602179055503480156200002d57600080fd5b5060405162003b6738038062003b6783398181016040528101906200005391906200033e565b600160008190555082600260008063ffffffff1681526020019081526020016000206000820151816000019080519060200190620000939291906200014b565b5060208201518160010160006101000a81548163ffffffff021916908363ffffffff1602179055509050506000600360006101000a81548163ffffffff021916908363ffffffff16021790555080600360046101000a81548163ffffffff021916908363ffffffff16021790555081600160006101000a81548173ffffffffffffffffffffffffffffffffffffffff021916908373ffffffffffffffffffffffffffffffffffffffff1602179055505050506200047c565b828054828255906000526020600020908101928215620001c7579160200282015b82811115620001c65782518260006101000a81548173ffffffffffffffffffffffffffffffffffffffff021916908373ffffffffffffffffffffffffffffffffffffffff160217905550916020019190600101906200016c565b5b509050620001d69190620001da565b5090565b5b808211156200021357600081816101000a81549073ffffffffffffffffffffffffffffffffffffffff021916905550600101620001db565b5090565b600081519050620002288162000448565b92915050565b600082601f8301126200024057600080fd5b8151620002576200025182620003db565b620003ad565b915081818352602084019350602081019050838560208402820111156200027d57600080fd5b60005b83811015620002b1578162000296888262000217565b84526020840193506020830192505060018101905062000280565b5050505092915050565b600060408284031215620002ce57600080fd5b620002da6040620003ad565b9050600082015167ffffffffffffffff811115620002f757600080fd5b62000305848285016200022e565b60008301525060206200031b8482850162000327565b60208301525092915050565b600081519050620003388162000462565b92915050565b6000806000606084860312156200035457600080fd5b600084015167ffffffffffffffff8111156200036f57600080fd5b6200037d86828701620002bb565b9350506020620003908682870162000217565b9250506040620003a38682870162000327565b9150509250925092565b6000604051905081810181811067ffffffffffffffff82111715620003d157600080fd5b8060405250919050565b600067ffffffffffffffff821115620003f357600080fd5b602082029050602081019050919050565b6000620004118262000418565b9050919050565b600073ffffffffffffffffffffffffffffffffffffffff82169050919050565b600063ffffffff82169050919050565b620004538162000404565b81146200045f57600080fd5b50565b6200046d8162000438565b81146200047957600080fd5b50565b6136db806200048c6000396000f3fe6080604052600436106100a05760003560e01c806370713960116100645780637071396014610205578063822d82b31461022e57806399da1d3c14610259578063a31fe40914610284578063b6694c2a146102c1578063f951975a146102fe576100e0565b80631a2be4da1461011b5780633bc0aee61461015857806342b0aefa146101815780634db47840146101be57806358d62e46146101e9576100e0565b366100e0576040517f08c379a00000000000000000000000000000000000000000000000000000000081526004016100d79061318d565b60405180910390fd5b6040517f08c379a00000000000000000000000000000000000000000000000000000000081526004016101129061318d565b60405180910390fd5b34801561012757600080fd5b50610142600480360381019061013d91906126ce565b61033b565b60405161014f91906130ab565b60405180910390f35b34801561016457600080fd5b5061017f600480360381019061017a919061284a565b61035b565b005b34801561018d57600080fd5b506101a860048036038101906101a391906128b8565b610bcf565b6040516101b5919061334f565b60405180910390f35b3480156101ca57600080fd5b506101d3610bfd565b6040516101e0919061334f565b60405180910390f35b61020360048036038101906101fe91906127fb565b610c13565b005b34801561021157600080fd5b5061022c600480360381019061022791906126f7565b610dc0565b005b34801561023a57600080fd5b50610243611461565b604051610250919061334f565b60405180910390f35b34801561026557600080fd5b5061026e611477565b60405161027b9190612fec565b60405180910390f35b34801561029057600080fd5b506102ab60048036038101906102a691906127a9565b61149d565b6040516102b891906130ab565b60405180910390f35b3480156102cd57600080fd5b506102e860048036038101906102e391906127a9565b6114bd565b6040516102f59190612fec565b60405180910390f35b34801561030a57600080fd5b50610325600480360381019061032091906128b8565b6114f0565b604051610332919061332d565b60405180910390f35b60066020528060005260406000206000915054906101000a900460ff1681565b600260005414156103a1576040517f08c379a00000000000000000000000000000000000000000000000000000000081526004016103989061330d565b60405180910390fd5b60026000819055506000610403600084848080601f016020809104026020016040519081016040528093929190818152602001838380828437600081840152601f19601f820116905080830192505050505050506115dd90919063ffffffff16565b905060018160ff161461044b576040517f08c379a0000000000000000000000000000000000000000000000000000000008152600401610442906131ed565b60405180910390fd5b60006104a5600185858080601f016020809104026020016040519081016040528093929190818152602001838380828437600081840152601f19601f8201169050808301925050505050505061163b90919063ffffffff16565b90506000610501600586868080601f016020809104026020016040519081016040528093929190818152602001838380828437600081840152601f19601f820116905080830192505050505050506115dd90919063ffffffff16565b60ff169050600081604202600601905060006105718283898990500389898080601f016020809104026020016040519081016040528093929190818152602001838380828437600081840152601f19601f820116905080830192505050505050506116999092919063ffffffff16565b8051906020012090506004600082815260200190815260200160002060009054906101000a900460ff16156105db576040517f08c379a00000000000000000000000000000000000000000000000000000000081526004016105d29061316d565b60405180910390fd5b6105e36124cd565b600260008663ffffffff1663ffffffff1681526020019081526020016000206040518060400160405290816000820180548060200260200160405190810160405280929190818152602001828054801561069257602002820191906000526020600020905b8160009054906101000a900473ffffffffffffffffffffffffffffffffffffffff1673ffffffffffffffffffffffffffffffffffffffff1681526020019060010190808311610648575b505050505081526020016001820160009054906101000a900463ffffffff1663ffffffff1663ffffffff168152505090506000816020015163ffffffff1614806106e5575042816020015163ffffffff16115b610724576040517f08c379a000000000000000000000000000000000000000000000000000000000815260040161071b9061328d565b60405180910390fd5b836001600360048460000151518161073857fe5b040201111561077c576040517f08c379a00000000000000000000000000000000000000000000000000000000081526004016107739061322d565b60405180910390fd5b60005b848110156109f85760006107e6604283026006018b8b8080601f016020809104026020016040519081016040528093929190818152602001838380828437600081840152601f19601f820116905080830192505050505050506115dd90919063ffffffff16565b90506000610847604284026007018c8c8080601f016020809104026020016040519081016040528093929190818152602001838380828437600081840152601f19601f8201169050808301925050505050505061175b90919063ffffffff16565b905060006108a8604285026027018d8d8080601f016020809104026020016040519081016040528093929190818152602001838380828437600081840152601f19601f8201169050808301925050505050505061175b90919063ffffffff16565b90506000610909604286026047018e8e8080601f016020809104026020016040519081016040528093929190818152602001838380828437600081840152601f19601f820116905080830192505050505050506115dd90919063ffffffff16565b9050601b8101905085600001518460ff168151811061092457fe5b602002602001015173ffffffffffffffffffffffffffffffffffffffff166001888386866040516000815260200160405260405161096594939291906130c6565b6020604051602081039080840390855afa158015610987573d6000803e3d6000fd5b5050506020604051035173ffffffffffffffffffffffffffffffffffffffff16146109e7576040517f08c379a00000000000000000000000000000000000000000000000000000000081526004016109de9061320d565b60405180910390fd5b50505050808060010191505061077f565b506000610a55600485018a8a8080601f016020809104026020016040519081016040528093929190818152602001838380828437600081840152601f19601f820116905080830192505050505050506115dd90919063ffffffff16565b90506060610abd60058601600587018c8c9050038c8c8080601f016020809104026020016040519081016040528093929190818152602001838380828437600081840152601f19601f820116905080830192505050505050506116999092919063ffffffff16565b905060018260ff161415610b3957600360009054906101000a900463ffffffff1663ffffffff168763ffffffff1614610b2b576040517f08c379a0000000000000000000000000000000000000000000000000000000008152600401610b22906131ad565b60405180910390fd5b610b34816117b9565b610b8f565b60108260ff161415610b5357610b4e81611a37565b610b8e565b6040517f08c379a0000000000000000000000000000000000000000000000000000000008152600401610b859061314d565b60405180910390fd5b5b60016004600086815260200190815260200160002060006101000a81548160ff021916908315150217905550505050505050505060016000819055505050565b60026020528060005260406000206000915090508060010160009054906101000a900463ffffffff16905081565b600360049054906101000a900463ffffffff1681565b60026000541415610c59576040517f08c379a0000000000000000000000000000000000000000000000000000000008152600401610c509061330d565b60405180910390fd5b60026000819055506000341415610ca5576040517f08c379a0000000000000000000000000000000000000000000000000000000008152600401610c9c9061324d565b60405180910390fd5b73c02aaa39b223fe8d0a0e5c4f27ead9083c756cc273ffffffffffffffffffffffffffffffffffffffff1663d0e30db0346040518263ffffffff1660e01b81526004016000604051808303818588803b158015610d0157600080fd5b505af1158015610d15573d6000803e3d6000fd5b50505050503373ffffffffffffffffffffffffffffffffffffffff1660001b73c02aaa39b223fe8d0a0e5c4f27ead9083c756cc273ffffffffffffffffffffffffffffffffffffffff1660001b7f6bbd554ad75919f71fd91bf917ca6e4f41c10f03ab25751596a22253bb39aab884600160149054906101000a900460ff166012883488604051610dab969594939291906133ca565b60405180910390a36001600081905550505050565b60026000541415610e06576040517f08c379a0000000000000000000000000000000000000000000000000000000008152600401610dfd9061330d565b60405180910390fd5b60026000819055506000851415610e52576040517f08c379a0000000000000000000000000000000000000000000000000000000008152600401610e499061324d565b60405180910390fd5b6000600160149054906101000a900460ff1690506000808873ffffffffffffffffffffffffffffffffffffffff1663313ce5676040518163ffffffff1660e01b815260040160206040518083038186803b158015610eaf57600080fd5b505afa158015610ec3573d6000803e3d6000fd5b505050506040513d601f19601f82011682018060405250810190610ee791906128e1565b9050600660008a73ffffffffffffffffffffffffffffffffffffffff1673ffffffffffffffffffffffffffffffffffffffff16815260200190815260200160002060009054906101000a900460ff16156110ad578873ffffffffffffffffffffffffffffffffffffffff16639dc29fac338a6040518363ffffffff1660e01b8152600401610f76929190613022565b600060405180830381600087803b158015610f9057600080fd5b505af1158015610fa4573d6000803e3d6000fd5b505050508873ffffffffffffffffffffffffffffffffffffffff1663026b05396040518163ffffffff1660e01b815260040160206040518083038186803b158015610fee57600080fd5b505afa158015611002573d6000803e3d6000fd5b505050506040513d601f19601f8201168201806040525081019061102691906128e1565b92508873ffffffffffffffffffffffffffffffffffffffff16631ba46cfd6040518163ffffffff1660e01b815260040160206040518083038186803b15801561106e57600080fd5b505afa158015611082573d6000803e3d6000fd5b505050506040513d601f19601f820116820180604052508101906110a691906127d2565b91506113f2565b60008973ffffffffffffffffffffffffffffffffffffffff166370a08231306040518263ffffffff1660e01b81526004016110e89190613007565b60206040518083038186803b15801561110057600080fd5b505afa158015611114573d6000803e3d6000fd5b505050506040513d601f19601f82011682018060405250810190611138919061288f565b905061116733308b8d73ffffffffffffffffffffffffffffffffffffffff16611d07909392919063ffffffff16565b60008a73ffffffffffffffffffffffffffffffffffffffff166370a08231306040518263ffffffff1660e01b81526004016111a29190613007565b60206040518083038186803b1580156111ba57600080fd5b505afa1580156111ce573d6000803e3d6000fd5b505050506040513d601f19601f820116820180604052508101906111f2919061288f565b90506112078282611d9090919063ffffffff16565b995060098360ff1611156112ee5760008a90506112366009850360ff16600a0a8c611dda90919063ffffffff16565b9a5086156112e8578b73ffffffffffffffffffffffffffffffffffffffff1663a9059cbb336112776009880360ff16600a0a85611e2490919063ffffffff16565b6040518363ffffffff1660e01b8152600401611294929190613022565b602060405180830381600087803b1580156112ae57600080fd5b505af11580156112c2573d6000803e3d6000fd5b505050506040513d601f19601f820116820180604052508101906112e69190612780565b505b60099350505b67ffffffffffffffff801661139260098d73ffffffffffffffffffffffffffffffffffffffff1663313ce5676040518163ffffffff1660e01b815260040160206040518083038186803b15801561134457600080fd5b505afa158015611358573d6000803e3d6000fd5b505050506040513d601f19601f8201168201806040525081019061137c91906128e1565b0360ff16600a0a83611dda90919063ffffffff16565b11156113d3576040517f08c379a00000000000000000000000000000000000000000000000000000000081526004016113ca9061312d565b60405180910390fd5b8a73ffffffffffffffffffffffffffffffffffffffff1660001b935050505b3373ffffffffffffffffffffffffffffffffffffffff1660001b827f6bbd554ad75919f71fd91bf917ca6e4f41c10f03ab25751596a22253bb39aab88886858c8e8c6040516114469695949392919061342b565b60405180910390a35050506001600081905550505050505050565b600360009054906101000a900463ffffffff1681565b600160009054906101000a900473ffffffffffffffffffffffffffffffffffffffff1681565b60046020528060005260406000206000915054906101000a900460ff1681565b60056020528060005260406000206000915054906101000a900473ffffffffffffffffffffffffffffffffffffffff1681565b6114f86124cd565b600260008363ffffffff1663ffffffff168152602001908152602001600020604051806040016040529081600082018054806020026020016040519081016040528092919081815260200182805480156115a757602002820191906000526020600020905b8160009054906101000a900473ffffffffffffffffffffffffffffffffffffffff1673ffffffffffffffffffffffffffffffffffffffff168152602001906001019080831161155d575b505050505081526020016001820160009054906101000a900463ffffffff1663ffffffff1663ffffffff16815250509050919050565b60006001820183511015611626576040517f08c379a000000000000000000000000000000000000000000000000000000000815260040161161d906131cd565b60405180910390fd5b60008260018501015190508091505092915050565b60006004820183511015611684576040517f08c379a000000000000000000000000000000000000000000000000000000000815260040161167b906131cd565b60405180910390fd5b60008260048501015190508091505092915050565b6060818301845110156116e1576040517f08c379a00000000000000000000000000000000000000000000000000000000081526004016116d8906131cd565b60405180910390fd5b60608215600081146116fe5760405191506020820160405261174f565b6040519150601f8416801560200281840101858101878315602002848b0101015b8183101561173c578051835260208301925060208101905061171f565b50868552601f19601f8301166040525050505b50809150509392505050565b600060208201835110156117a4576040517f08c379a000000000000000000000000000000000000000000000000000000000815260040161179b906131cd565b60405180910390fd5b60008260208501015190508091505092915050565b60006117cf60008361163b90919063ffffffff16565b905060006117e76004846115dd90919063ffffffff16565b905060608160ff1667ffffffffffffffff8111801561180557600080fd5b506040519080825280602002602001820160405280156118345781602001602082028036833780820191505090505b50905060005b8260ff168110156118b75760006118606014830260050187611e6e90919063ffffffff16565b90508083838151811061186f57fe5b602002602001019073ffffffffffffffffffffffffffffffffffffffff16908173ffffffffffffffffffffffffffffffffffffffff168152505050808060010191505061183a565b506000600360009054906101000a900463ffffffff16905083600360006101000a81548163ffffffff021916908363ffffffff1602179055506118f86124cd565b6040518060400160405280848152602001600063ffffffff1681525090508060026000600360009054906101000a900463ffffffff1663ffffffff1663ffffffff16815260200190815260200160002060008201518160000190805190602001906119649291906124ed565b5060208201518160010160006101000a81548163ffffffff021916908363ffffffff160217905550905050600360049054906101000a900463ffffffff164201600260008463ffffffff1663ffffffff16815260200190815260200160002060010160006101000a81548163ffffffff021916908363ffffffff1602179055507fdfb80683934199683861bf00b64ecdf0984bbaf661bf27983dba382e99297a6282600360009054906101000a900463ffffffff16604051611a2792919061336a565b60405180910390a1505050505050565b6000611a4d6004836115dd90919063ffffffff16565b90506000611a656005846115dd90919063ffffffff16565b90506000611a7d603285611e6e90919063ffffffff16565b90506000611a956046866115dd90919063ffffffff16565b90506000611aad606887611edb90919063ffffffff16565b90508360ff168560ff161415611af8576040517f08c379a0000000000000000000000000000000000000000000000000000000008152600401611aef906132ed565b60405180910390fd5b600160149054906101000a900460ff1660ff168460ff1614611b4f576040517f08c379a0000000000000000000000000000000000000000000000000000000008152600401611b469061326d565b60405180910390fd5b600160149054906101000a900460ff1660ff168260ff1614611cba576000611b8160478861175b90919063ffffffff16565b905060008382604051602001611b98929190612fc0565b60405160208183030381529060405280519060200120905060006005600083815260200190815260200160002060009054906101000a900473ffffffffffffffffffffffffffffffffffffffff169050600073ffffffffffffffffffffffffffffffffffffffff168173ffffffffffffffffffffffffffffffffffffffff161415611c45576000611c3360678b6115dd90919063ffffffff16565b9050611c4183878684611f39565b9150505b8073ffffffffffffffffffffffffffffffffffffffff166340c10f1987866040518363ffffffff1660e01b8152600401611c80929190613082565b600060405180830381600087803b158015611c9a57600080fd5b505af1158015611cae573d6000803e3d6000fd5b50505050505050611cff565b6000611cd0605388611e6e90919063ffffffff16565b9050611cfd84838373ffffffffffffffffffffffffffffffffffffffff166120e29092919063ffffffff16565b505b505050505050565b611d8a846323b872dd60e01b858585604051602401611d289392919061304b565b604051602081830303815290604052907bffffffffffffffffffffffffffffffffffffffffffffffffffffffff19166020820180517bffffffffffffffffffffffffffffffffffffffffffffffffffffffff8381831617835250505050612168565b50505050565b6000611dd283836040518060400160405280601e81526020017f536166654d6174683a207375627472616374696f6e206f766572666c6f77000081525061222f565b905092915050565b6000611e1c83836040518060400160405280601a81526020017f536166654d6174683a206469766973696f6e206279207a65726f00000000000081525061228a565b905092915050565b6000611e6683836040518060400160405280601881526020017f536166654d6174683a206d6f64756c6f206279207a65726f00000000000000008152506122eb565b905092915050565b60006014820183511015611eb7576040517f08c379a0000000000000000000000000000000000000000000000000000000008152600401611eae906131cd565b60405180910390fd5b60006c01000000000000000000000000836020860101510490508091505092915050565b60006020820183511015611f24576040517f08c379a0000000000000000000000000000000000000000000000000000000008152600401611f1b906131cd565b60405180910390fd5b60008260208501015190508091505092915050565b600080600160009054906101000a900473ffffffffffffffffffffffffffffffffffffffff1660601b90506040517f3d602d80600a3d3981f3363d3d373d3d3d363d7300000000000000000000000081528160148201527f5af43d82803e903d91602b57fd5bf300000000000000000000000000000000006028820152866037826000f59250508173ffffffffffffffffffffffffffffffffffffffff1663a7a2d3fb8686866040518463ffffffff1660e01b8152600401611ffd93929190613393565b600060405180830381600087803b15801561201757600080fd5b505af115801561202b573d6000803e3d6000fd5b50505050816005600088815260200190815260200160002060006101000a81548173ffffffffffffffffffffffffffffffffffffffff021916908373ffffffffffffffffffffffffffffffffffffffff1602179055506001600660008473ffffffffffffffffffffffffffffffffffffffff1673ffffffffffffffffffffffffffffffffffffffff16815260200190815260200160002060006101000a81548160ff02191690831515021790555050949350505050565b6121638363a9059cbb60e01b8484604051602401612101929190613082565b604051602081830303815290604052907bffffffffffffffffffffffffffffffffffffffffffffffffffffffff19166020820180517bffffffffffffffffffffffffffffffffffffffffffffffffffffffff8381831617835250505050612168565b505050565b60606121ca826040518060400160405280602081526020017f5361666545524332303a206c6f772d6c6576656c2063616c6c206661696c65648152508573ffffffffffffffffffffffffffffffffffffffff166123479092919063ffffffff16565b905060008151111561222a57808060200190518101906121ea9190612780565b612229576040517f08c379a0000000000000000000000000000000000000000000000000000000008152600401612220906132cd565b60405180910390fd5b5b505050565b6000838311158290612277576040517f08c379a000000000000000000000000000000000000000000000000000000000815260040161226e919061310b565b60405180910390fd5b5060008385039050809150509392505050565b600080831182906122d1576040517f08c379a00000000000000000000000000000000000000000000000000000000081526004016122c8919061310b565b60405180910390fd5b5060008385816122dd57fe5b049050809150509392505050565b6000808314158290612333576040517f08c379a000000000000000000000000000000000000000000000000000000000815260040161232a919061310b565b60405180910390fd5b5082848161233d57fe5b0690509392505050565b6060612356848460008561235f565b90509392505050565b606061236a85612482565b6123a9576040517f08c379a00000000000000000000000000000000000000000000000000000000081526004016123a0906132ad565b60405180910390fd5b600060608673ffffffffffffffffffffffffffffffffffffffff1685876040516123d39190612fa9565b60006040518083038185875af1925050503d8060008114612410576040519150601f19603f3d011682016040523d82523d6000602084013e612415565b606091505b5091509150811561242a57809250505061247a565b60008151111561243d5780518082602001fd5b836040517f08c379a0000000000000000000000000000000000000000000000000000000008152600401612471919061310b565b60405180910390fd5b949350505050565b60008060007fc5d2460186f7233c927e7db2dcc703c0e500b653ca82273b7bfad8045d85a47060001b9050833f91508082141580156124c457506000801b8214155b92505050919050565b604051806040016040528060608152602001600063ffffffff1681525090565b828054828255906000526020600020908101928215612566579160200282015b828111156125655782518260006101000a81548173ffffffffffffffffffffffffffffffffffffffff021916908373ffffffffffffffffffffffffffffffffffffffff1602179055509160200191906001019061250d565b5b5090506125739190612577565b5090565b5b808211156125ae57600081816101000a81549073ffffffffffffffffffffffffffffffffffffffff021916905550600101612578565b5090565b6000813590506125c18161361b565b92915050565b6000813590506125d681613632565b92915050565b6000815190506125eb81613632565b92915050565b60008135905061260081613649565b92915050565b60008151905061261581613649565b92915050565b60008083601f84011261262d57600080fd5b8235905067ffffffffffffffff81111561264657600080fd5b60208301915083600182028301111561265e57600080fd5b9250929050565b60008135905061267481613660565b92915050565b60008151905061268981613660565b92915050565b60008135905061269e81613677565b92915050565b6000813590506126b38161368e565b92915050565b6000815190506126c88161368e565b92915050565b6000602082840312156126e057600080fd5b60006126ee848285016125b2565b91505092915050565b60008060008060008060c0878903121561271057600080fd5b600061271e89828a016125b2565b965050602061272f89828a01612665565b955050604061274089828a016125f1565b945050606061275189828a016126a4565b935050608061276289828a0161268f565b92505060a061277389828a016125c7565b9150509295509295509295565b60006020828403121561279257600080fd5b60006127a0848285016125dc565b91505092915050565b6000602082840312156127bb57600080fd5b60006127c9848285016125f1565b91505092915050565b6000602082840312156127e457600080fd5b60006127f284828501612606565b91505092915050565b60008060006060848603121561281057600080fd5b600061281e868287016125f1565b935050602061282f868287016126a4565b92505060406128408682870161268f565b9150509250925092565b6000806020838503121561285d57600080fd5b600083013567ffffffffffffffff81111561287757600080fd5b6128838582860161261b565b92509250509250929050565b6000602082840312156128a157600080fd5b60006128af8482850161267a565b91505092915050565b6000602082840312156128ca57600080fd5b60006128d88482850161268f565b91505092915050565b6000602082840312156128f357600080fd5b6000612901848285016126b9565b91505092915050565b60006129168383612931565b60208301905092915050565b61292b81613566565b82525050565b61293a816134f7565b82525050565b612949816134f7565b82525050565b600061295a8261349c565b61296481856134ca565b935061296f8361348c565b8060005b838110156129a0578151612987888261290a565b9750612992836134bd565b925050600181019050612973565b5085935050505092915050565b6129b681613509565b82525050565b6129c581613515565b82525050565b6129dc6129d782613515565b6135e1565b82525050565b60006129ed826134a7565b6129f781856134db565b9350612a078185602086016135ae565b80840191505092915050565b612a1c81613578565b82525050565b6000612a2d826134b2565b612a3781856134e6565b9350612a478185602086016135ae565b612a50816135fd565b840191505092915050565b6000612a686023836134e6565b91507f6272696467652062616c616e636520776f756c6420657863656564206d61786960008301527f6d756d00000000000000000000000000000000000000000000000000000000006020830152604082019050919050565b6000612ace6012836134e6565b91507f696e76616c69642056414120616374696f6e00000000000000000000000000006000830152602082019050919050565b6000612b0e6018836134e6565b91507f5641412077617320616c726561647920657865637574656400000000000000006000830152602082019050919050565b6000612b4e602c836134e6565b91507f706c6561736520757365206c6f636b45544820746f207472616e73666572204560008301527f544820746f20536f6c616e6100000000000000000000000000000000000000006020830152604082019050919050565b6000612bb46039836134e6565b91507f6f6e6c79207468652063757272656e7420677561726469616e2073657420636160008301527f6e206368616e67652074686520677561726469616e20736574000000000000006020830152604082019050919050565b6000612c1a6012836134e6565b91507f52656164206f7574206f6620626f756e647300000000000000000000000000006000830152602082019050919050565b6000612c5a6018836134e6565b91507f5641412076657273696f6e20696e636f6d70617469626c6500000000000000006000830152602082019050919050565b6000612c9a6015836134e6565b91507f564141207369676e617475726520696e76616c696400000000000000000000006000830152602082019050919050565b6000612cda6009836134e6565b91507f6e6f2071756f72756d00000000000000000000000000000000000000000000006000830152602082019050919050565b6000612d1a6014836134e6565b91507f616d6f756e74206d757374206e6f7420626520300000000000000000000000006000830152602082019050919050565b6000612d5a6019836134e6565b91507f7472616e73666572206d75737420626520696e636f6d696e67000000000000006000830152602082019050919050565b6000612d9a6018836134e6565b91507f677561726469616e2073657420686173206578706972656400000000000000006000830152602082019050919050565b6000612dda601d836134e6565b91507f416464726573733a2063616c6c20746f206e6f6e2d636f6e74726163740000006000830152602082019050919050565b6000612e1a602a836134e6565b91507f5361666545524332303a204552433230206f7065726174696f6e20646964206e60008301527f6f742073756363656564000000000000000000000000000000000000000000006020830152604082019050919050565b6000612e806026836134e6565b91507f73616d6520636861696e207472616e736665727320617265206e6f742073757060008301527f706f7274656400000000000000000000000000000000000000000000000000006020830152604082019050919050565b6000612ee6601f836134e6565b91507f5265656e7472616e637947756172643a207265656e7472616e742063616c6c006000830152602082019050919050565b60006040830160008301518482036000860152612f36828261294f565b9150506020830151612f4b6020860182612f65565b508091505092915050565b612f5f8161353f565b82525050565b612f6e81613549565b82525050565b612f7d81613549565b82525050565b612f8c81613559565b82525050565b612fa3612f9e82613559565b6135eb565b82525050565b6000612fb582846129e2565b915081905092915050565b6000612fcc8285612f92565b600182019150612fdc82846129cb565b6020820191508190509392505050565b60006020820190506130016000830184612940565b92915050565b600060208201905061301c6000830184612922565b92915050565b60006040820190506130376000830185612922565b6130446020830184612f56565b9392505050565b60006060820190506130606000830186612940565b61306d6020830185612940565b61307a6040830184612f56565b949350505050565b60006040820190506130976000830185612940565b6130a46020830184612f56565b9392505050565b60006020820190506130c060008301846129ad565b92915050565b60006080820190506130db60008301876129bc565b6130e86020830186612f83565b6130f560408301856129bc565b61310260608301846129bc565b95945050505050565b600060208201905081810360008301526131258184612a22565b905092915050565b6000602082019050818103600083015261314681612a5b565b9050919050565b6000602082019050818103600083015261316681612ac1565b9050919050565b6000602082019050818103600083015261318681612b01565b9050919050565b600060208201905081810360008301526131a681612b41565b9050919050565b600060208201905081810360008301526131c681612ba7565b9050919050565b600060208201905081810360008301526131e681612c0d565b9050919050565b6000602082019050818103600083015261320681612c4d565b9050919050565b6000602082019050818103600083015261322681612c8d565b9050919050565b6000602082019050818103600083015261324681612ccd565b9050919050565b6000602082019050818103600083015261326681612d0d565b9050919050565b6000602082019050818103600083015261328681612d4d565b9050919050565b600060208201905081810360008301526132a681612d8d565b9050919050565b600060208201905081810360008301526132c681612dcd565b9050919050565b600060208201905081810360008301526132e681612e0d565b9050919050565b6000602082019050818103600083015261330681612e73565b9050919050565b6000602082019050818103600083015261332681612ed9565b9050919050565b600060208201905081810360008301526133478184612f19565b905092915050565b60006020820190506133646000830184612f74565b92915050565b600060408201905061337f6000830185612f74565b61338c6020830184612f74565b9392505050565b60006060820190506133a86000830186612f83565b6133b560208301856129bc565b6133c26040830184612f83565b949350505050565b600060c0820190506133df6000830189612f83565b6133ec6020830188612f83565b6133f96040830187612a13565b61340660608301866129bc565b6134136080830185612f56565b61342060a0830184612f74565b979650505050505050565b600060c0820190506134406000830189612f83565b61344d6020830188612f83565b61345a6040830187612f83565b61346760608301866129bc565b6134746080830185612f56565b61348160a0830184612f74565b979650505050505050565b6000819050602082019050919050565b600081519050919050565b600081519050919050565b600081519050919050565b6000602082019050919050565b600082825260208201905092915050565b600081905092915050565b600082825260208201905092915050565b60006135028261351f565b9050919050565b60008115159050919050565b6000819050919050565b600073ffffffffffffffffffffffffffffffffffffffff82169050919050565b6000819050919050565b600063ffffffff82169050919050565b600060ff82169050919050565b60006135718261358a565b9050919050565b600061358382613559565b9050919050565b60006135958261359c565b9050919050565b60006135a78261351f565b9050919050565b60005b838110156135cc5780820151818401526020810190506135b1565b838111156135db576000848401525b50505050565b6000819050919050565b60006135f68261360e565b9050919050565b6000601f19601f8301169050919050565b60008160f81b9050919050565b613624816134f7565b811461362f57600080fd5b50565b61363b81613509565b811461364657600080fd5b50565b61365281613515565b811461365d57600080fd5b50565b6136698161353f565b811461367457600080fd5b50565b61368081613549565b811461368b57600080fd5b50565b61369781613559565b81146136a257600080fd5b5056fea2646970667358221220c2c5c5efcbf02fa3995baa2a1d9f45dfa7344533b3f1c0232cdb372ed8dc4c0764736f6c634300060c0033",
  "immutableReferences": {},
  "source": "// contracts/Wormhole.sol\n// SPDX-License-Identifier: Apache 2\n\n// TODO(hendrik): switch-over feature\n\npragma solidity ^0.6.0;\npragma experimental ABIEncoderV2;\n\nimport \"@openzeppelin/contracts/token/ERC20/ERC20.sol\";\nimport \"@openzeppelin/contracts/token/ERC20/IERC20.sol\";\nimport \"@openzeppelin/contracts/token/ERC20/SafeERC20.sol\";\nimport \"@openzeppelin/contracts/math/SafeMath.sol\";\nimport \"@openzeppelin/contracts/utils/ReentrancyGuard.sol\";\nimport \"./BytesLib.sol\";\nimport \"./WrappedAsset.sol\";\n\ncontract Wormhole is ReentrancyGuard {\n    using SafeERC20 for IERC20;\n    using BytesLib for bytes;\n    using SafeMath for uint256;\n\n    uint64 constant MAX_UINT64 = 18_446_744_073_709_551_615;\n\n    // Address of the Wrapped asset template\n    address public wrappedAssetMaster;\n\n    // Chain ID of Ethereum\n    uint8 CHAIN_ID = 2;\n\n    // Address of the official WETH contract\n    address constant WETHAddress = 0xC02aaA39b223FE8D0A0e5C4F27eAD9083C756Cc2;\n\n    struct GuardianSet {\n        address[] keys;\n        uint32 expiration_time;\n    }\n\n    event LogGuardianSetChanged(\n        uint32 oldGuardianIndex,\n        uint32 newGuardianIndex\n    );\n\n    event LogTokensLocked(\n        uint8 target_chain,\n        uint8 token_chain,\n        uint8 token_decimals,\n        bytes32 indexed token,\n        bytes32 indexed sender,\n        bytes32 recipient,\n        uint256 amount,\n        uint32 nonce\n    );\n\n    // Mapping of guardian_set_index => guardian set\n    mapping(uint32 => GuardianSet) public guardian_sets;\n    // Current active guardian set\n    uint32 public guardian_set_index;\n\n    // Period for which a guardian set stays active after it has been replaced\n    uint32 public guardian_set_expirity;\n\n    // Mapping of already consumedVAAs\n    mapping(bytes32 => bool) public consumedVAAs;\n\n    // Mapping of wrapped asset ERC20 contracts\n    mapping(bytes32 => address) public wrappedAssets;\n    mapping(address => bool) public isWrappedAsset;\n\n    constructor(GuardianSet memory initial_guardian_set, address wrapped_asset_master, uint32 _guardian_set_expirity) public {\n        guardian_sets[0] = initial_guardian_set;\n        // Explicitly set for doc purposes\n        guardian_set_index = 0;\n        guardian_set_expirity = _guardian_set_expirity;\n\n        wrappedAssetMaster = wrapped_asset_master;\n    }\n\n    function getGuardianSet(uint32 idx) view public returns (GuardianSet memory gs) {\n        return guardian_sets[idx];\n    }\n\n    function submitVAA(\n        bytes calldata vaa\n    ) public nonReentrant {\n        uint8 version = vaa.toUint8(0);\n        require(version == 1, \"VAA version incompatible\");\n\n        // Load 4 bytes starting from index 1\n        uint32 vaa_guardian_set_index = vaa.toUint32(1);\n\n        uint256 len_signers = vaa.toUint8(5);\n        uint offset = 6 + 66 * len_signers;\n\n        // Load 4 bytes timestamp\n        //uint32 timestamp = vaa.toUint32(offset);\n\n        // Hash the body\n        bytes32 hash = keccak256(vaa.slice(offset, vaa.length - offset));\n        require(!consumedVAAs[hash], \"VAA was already executed\");\n\n        GuardianSet memory guardian_set = guardian_sets[vaa_guardian_set_index];\n        require(guardian_set.expiration_time == 0 || guardian_set.expiration_time > block.timestamp, \"guardian set has expired\");\n        require(((guardian_set.keys.length / 4) * 3) + 1 <= len_signers, \"no quorum\");\n\n        for (uint i = 0; i < len_signers; i++) {\n            uint8 index = vaa.toUint8(6 + i * 66);\n            bytes32 r = vaa.toBytes32(7 + i * 66);\n            bytes32 s = vaa.toBytes32(39 + i * 66);\n            uint8 v = vaa.toUint8(71 + i * 66);\n            v += 27;\n            require(ecrecover(hash, v, r, s) == guardian_set.keys[index], \"VAA signature invalid\");\n        }\n\n        uint8 action = vaa.toUint8(offset + 4);\n        bytes memory payload = vaa.slice(offset + 5, vaa.length - (offset + 5));\n\n        // Process VAA\n        if (action == 0x01) {\n            require(vaa_guardian_set_index == guardian_set_index, \"only the current guardian set can change the guardian set\");\n            vaaUpdateGuardianSet(payload);\n        } else if (action == 0x10) {\n            vaaTransfer(payload);\n        } else {\n            revert(\"invalid VAA action\");\n        }\n\n        // Set the VAA as consumed\n        consumedVAAs[hash] = true;\n    }\n\n    function vaaUpdateGuardianSet(bytes memory data) private {\n        uint32 new_guardian_set_index = data.toUint32(0);\n        uint8 len = data.toUint8(4);\n\n        address[] memory new_guardians = new address[](len);\n        for (uint i = 0; i < len; i++) {\n            address addr = data.toAddress(5 + i * 20);\n            new_guardians[i] = addr;\n        }\n\n        uint32 old_guardian_set_index = guardian_set_index;\n        guardian_set_index = new_guardian_set_index;\n\n        GuardianSet memory new_guardian_set = GuardianSet(new_guardians, 0);\n        guardian_sets[guardian_set_index] = new_guardian_set;\n        guardian_sets[old_guardian_set_index].expiration_time = uint32(block.timestamp) + guardian_set_expirity;\n\n        emit LogGuardianSetChanged(old_guardian_set_index, guardian_set_index);\n    }\n\n    function vaaTransfer(bytes memory data) private {\n        //uint32 nonce = data.toUint64(0);\n        uint8 source_chain = data.toUint8(4);\n\n        uint8 target_chain = data.toUint8(5);\n        //bytes32 source_address = data.toBytes32(6);\n        //bytes32 target_address = data.toBytes32(38);\n        address target_address = data.toAddress(38 + 12);\n\n        uint8 token_chain = data.toUint8(70);\n        //bytes32 token_address = data.toBytes32(71);\n        uint256 amount = data.toUint256(104);\n\n        require(source_chain != target_chain, \"same chain transfers are not supported\");\n        require(target_chain == CHAIN_ID, \"transfer must be incoming\");\n\n        if (token_chain != CHAIN_ID) {\n            bytes32 token_address = data.toBytes32(71);\n            bytes32 asset_id = keccak256(abi.encodePacked(token_chain, token_address));\n\n            // if yes: mint to address\n            // if no: create and mint\n            address wrapped_asset = wrappedAssets[asset_id];\n            if (wrapped_asset == address(0)) {\n                uint8 asset_decimals = data.toUint8(103);\n                wrapped_asset = deployWrappedAsset(asset_id, token_chain, token_address, asset_decimals);\n            }\n\n            WrappedAsset(wrapped_asset).mint(target_address, amount);\n        } else {\n            address token_address = data.toAddress(71 + 12);\n\n            IERC20(token_address).safeTransfer(target_address, amount);\n        }\n    }\n\n    function deployWrappedAsset(bytes32 seed, uint8 token_chain, bytes32 token_address, uint8 decimals) private returns (address asset){\n        // Taken from https://github.com/OpenZeppelin/openzeppelin-sdk/blob/master/packages/lib/contracts/upgradeability/ProxyFactory.sol\n        // Licensed under MIT\n        bytes20 targetBytes = bytes20(wrappedAssetMaster);\n        assembly {\n            let clone := mload(0x40)\n            mstore(clone, 0x3d602d80600a3d3981f3363d3d373d3d3d363d73000000000000000000000000)\n            mstore(add(clone, 0x14), targetBytes)\n            mstore(add(clone, 0x28), 0x5af43d82803e903d91602b57fd5bf30000000000000000000000000000000000)\n            asset := create2(0, clone, 0x37, seed)\n        }\n\n        // Call initializer\n        WrappedAsset(asset).initialize(token_chain, token_address, decimals);\n\n        // Store address\n        wrappedAssets[seed] = asset;\n        isWrappedAsset[asset] = true;\n    }\n\n    function lockAssets(\n        address asset,\n        uint256 amount,\n        bytes32 recipient,\n        uint8 target_chain,\n        uint32 nonce,\n        bool refund_dust\n    ) public nonReentrant {\n        require(amount != 0, \"amount must not be 0\");\n\n        uint8 asset_chain = CHAIN_ID;\n        bytes32 asset_address;\n        uint8 decimals = ERC20(asset).decimals();\n\n        if (isWrappedAsset[asset]) {\n            WrappedAsset(asset).burn(msg.sender, amount);\n            asset_chain = WrappedAsset(asset).assetChain();\n            asset_address = WrappedAsset(asset).assetAddress();\n        } else {\n            uint256 balanceBefore = IERC20(asset).balanceOf(address(this));\n            IERC20(asset).safeTransferFrom(msg.sender, address(this), amount);\n            uint256 balanceAfter = IERC20(asset).balanceOf(address(this));\n\n            // The amount that was transferred in is the delta between balance before and after the transfer.\n            // This is to properly handle tokens that charge a fee on transfer.\n            amount = balanceAfter.sub(balanceBefore);\n\n            // Decimal adjust amount - we keep the dust\n            if (decimals > 9) {\n                uint256 original_amount = amount;\n                amount = amount.div(10 ** uint256(decimals - 9));\n\n                if (refund_dust) {\n                    ERC20(asset).transfer(msg.sender, original_amount.mod(10 ** uint256(decimals - 9)));\n                }\n\n                decimals = 9;\n            }\n\n            require(balanceAfter.div(10 ** uint256(ERC20(asset).decimals() - 9)) <= MAX_UINT64, \"bridge balance would exceed maximum\");\n\n            asset_address = bytes32(uint256(asset));\n        }\n\n        emit LogTokensLocked(target_chain, asset_chain, decimals, asset_address, bytes32(uint256(msg.sender)), recipient, amount, nonce);\n    }\n\n    function lockETH(\n        bytes32 recipient,\n        uint8 target_chain,\n        uint32 nonce\n    ) public payable nonReentrant {\n        require(msg.value != 0, \"amount must not be 0\");\n\n        // Wrap tx value in WETH\n        WETH(WETHAddress).deposit{value : msg.value}();\n\n        // Log deposit of WETH\n        emit LogTokensLocked(target_chain, CHAIN_ID, 18, bytes32(uint256(WETHAddress)), bytes32(uint256(msg.sender)), recipient, msg.value, nonce);\n    }\n\n    fallback() external payable {revert(\"please use lockETH to transfer ETH to Solana\");}\n\n    receive() external payable {revert(\"please use lockETH to transfer ETH to Solana\");}\n}\n\n\ninterface WETH is IERC20 {\n    function deposit() external payable;\n\n    function withdraw(uint256 amount) external;\n}\n",
  "sourcePath": "/home/hhofstadt/Dev/certus/wormhole/ethereum/contracts/Wormhole.sol",
  "compiler": {
    "name": "solc",
    "version": "0.6.12+commit.27d51765.Emscripten.clang"
  },
  "schemaVersion": "3.2.3",
  "updatedAt": "2020-08-30T09:23:52.322Z",
  "devdoc": {
    "kind": "dev",
    "methods": {},
    "version": 1
  },
  "userdoc": {
    "kind": "user",
    "methods": {},
    "version": 1
  }
}